:100000000C945D000C9485000C9485000C94850084
:100010000C9485000C9485000C9485000C9485004C
:100020000C9485000C9485000C9485000C94F102CE
:100030000C9485000C9485000C9485000C9485002C
:100040000C94A7020C9485000C9475020C944F023A
:100050000C9485000C9485000C9485000C9485000C
:100060000C9485000C94850000000008000201003B
:100070000003040700000000000000000000000072
:10008000250028002B0000000000240027002A0083
:10009000040404040404040402020202020203032E
:1000A0000303030301020408102040800102040836
:1000B0001020010204081020550311241FBECFEFA9
:1000C000D8E0DEBFCDBF11E0A0E0B1E0E0E6F9E0AE
:1000D00002C005900D92AE39B107D9F722E0AEE922
:1000E000B1E001C01D92A53BB207E1F710E0CDE5FC
:1000F000D0E004C02197FE010E94A304CC35D107B3
:10010000C9F70E9407040C94AE040C940000ECECB8
:10011000F1E0A089B18982E08C93A485B5851C9219
:10012000A685B7858FEC8C93108EA489B58986E05F
:100130008C93A289B3898C9180618C93A289B389B5
:100140008C9188608C93A289B3898C9180688C9300
:100150000288F389E02D80818F7D80830895CF927E
:10016000DF92EF92FF920F931F932FB7F894C090F6
:10017000C801D090C901E090CA01F090CB012FBF17
:10018000DC01CB018C0D9D1DAE1DBF1D4FB7F8943A
:100190000091C8011091C9012091CA013091CB0191
:1001A0004FBF0C151D052E053F0528F08017910740
:1001B000A207B30758F71F910F91FF90EF90DF90C0
:1001C000CF900895CF92DF92EF92FF920F931F93FB
:1001D000CF93DF936C017A018B01C0E0D0E0CE15A4
:1001E000DF0589F0D8016D918D01D601ED91FC916B
:1001F0000190F081E02DC6010995892B11F47E0153
:1002000002C02196ECCFC701DF91CF911F910F91D2
:10021000FF90EF90DF90CF9008950895FC01538DEB
:10022000448D252F30E0842F90E0821B930B5417D0
:1002300010F0CF96089501970895FC01918D828D5D
:10024000981761F0828DDF01A80FB11D5D968C912A
:10025000928D9F5F9F73928F90E008958FEF9FEF35
:100260000895FC01918D828D981731F0828DE80FF1
:10027000F11D858D90E008958FEF9FEF0895FC01AB
:10028000918D228D892F90E0805C9F4F821B910978
:100290008F73992708958CEC91E00E943F0121E033
:1002A000892B09F420E0822F0895FC01848DDF0161
:1002B000A80FB11DA35ABF4F2C91848D90E00196D9
:1002C0008F739927848FA689B7892C93A089B189C8
:1002D0008C9180648C93938D848D981306C00288D2
:1002E000F389E02D80818F7D80830895EF92FF92C6
:1002F0000F931F93CF93DF93EC0181E0888F9B8D49
:100300008C8D981305C0E889F989808185FD24C00A
:10031000F62E0B8D10E00F5F1F4F0F731127E02E8D
:100320008C8DE8120CC00FB607FCFACFE889F9896A
:10033000808185FFF5CFCE010E945501F1CF8B8DD5
:10034000FE01E80FF11DE35AFF4FF0820B8FEA899F
:10035000FB898081806207C0EE89FF896083E8891C
:10036000F98980818064808381E090E0DF91CF9182
:100370001F910F91FF90EF900895CF93DF93EC01C1
:10038000888D8823C9F0EA89FB89808185FD05C0B5
:10039000A889B9898C9186FD0FC00FB607FCF5CFEF
:1003A000808185FFF2CFA889B9898C9185FFEDCF37
:1003B000CE010E945501E7CFDF91CF91089580E0F3
:1003C00090E0892B29F00E944B0181110C940000D0
:1003D000089590E0FC01E859FF4F3491FC01EC5581
:1003E000FF4F2491FC01E057FF4FE491EE2309F405
:1003F0003BC0332339F1333091F038F43130A9F078
:10040000323001F584B58F7D12C0373091F038302D
:10041000A1F03430B9F4809180008F7D03C08091C9
:1004200080008F77809380000DC084B58F7784BD66
:1004300009C08091B0008F7703C08091B0008F7D9C
:100440008093B000F0E0EE0FFF1FE458FF4FA5913E
:10045000B4918FB7F894EC91611103C020952E23CD
:1004600001C02E2B2C938FBF089580E090E008955B
:100470000E94A9046115710579F0FB01019000202B
:10048000E9F73197AF01461B570BDC01ED91FC9169
:100490000280F381E02D099480E090E008951F929E
:1004A0000F920FB60F9211242F933F934F935F93A8
:1004B0006F937F938F939F93AF93BF93EF93FF932C
:1004C0008CEC91E00E945501FF91EF91BF91AF91AB
:1004D0009F918F917F916F915F914F913F912F915C
:1004E0000F900FBE0F901F9018951F920F920FB68E
:1004F0000F9211242F938F939F93EF93FF93E0918B
:10050000DC01F091DD018081E091E201F091E301F5
:1005100082FD12C090818091E5018F5F8F732091E1
:10052000E601821751F0E091E501F0E0E453FE4F5F
:10053000958F8093E50101C08081FF91EF919F919C
:100540008F912F910F900FBE0F901F9018951F92B3
:100550000F920FB60F9211242F933F938F939F9377
:10056000AF93BF938091C8019091C901A091CA0136
:10057000B091CB013091C70123E0230F2D3720F438
:100580000196A11DB11D05C026E8230F0296A11DED
:10059000B11D2093C7018093C8019093C901A09316
:1005A000CA01B093CB018091C3019091C401A09185
:1005B000C501B091C6010196A11DB11D8093C30173
:1005C0009093C401A093C501B093C601BF91AF91B0
:1005D0009F918F913F912F910F900FBE0F901F9081
:1005E00018951F920F920FB60F9211242F933F93DD
:1005F0008F939F93EF93FF938091C20187FF05C074
:10060000109285001092840005C08091C20187FD80
:100610008091C2018091C2018F5F8093C20180915D
:10062000C20187FF20C08091C2018C30E4F4209188
:100630008400309185008091C201082E000C990B36
:10064000FC01EE0FFF1F8E0F9F1FFC01E256FE4FB5
:1006500081819281820F931F9093890080938800FB
:100660008091C20117C0809184009091850004960A
:1006700080349C4918F480E49CE905C08091840092
:1006800090918500049690938900809388008FEF65
:100690008093C201FF91EF919F918F913F912F9194
:1006A0000F900FBE0F901F901895CF93DF9310926D
:1006B000CF011092CE0188EE93E0A0E0B0E08093ED
:1006C000D0019093D101A093D201B093D30184E0E3
:1006D00091E09093CD018093CC0185EC90E09093D4
:1006E000D9018093D80184EC90E09093DB01809352
:1006F000DA0180EC90E09093DD018093DC0181ECE5
:1007000090E09093DF018093DE0182EC90E0909383
:10071000E1018093E00186EC90E09093E301809307
:10072000E2011092E5011092E6011092E7011092A9
:10073000E80110926F0210927002109271021092F2
:10074000720210927302109274021092750210924B
:10075000760210927702109278021092790210922B
:100760007A0210927B0210927C0210927D0210920B
:100770007E0284E090E09093B2028093B10287E021
:1007800090E09093B4028093B302E8EAF0E0249101
:10079000E4E9F0E08491882399F090E0880F991FB4
:1007A000FC01EA57FF4FA591B491FC01E458FF4FBB
:1007B000859194918FB7F894EC91E22BEC938FBFD5
:1007C00060E084E00E94E901EBEAF0E02491E7E9CF
:1007D000F0E084918823C1F090E0880F991FFC011C
:1007E000EA57FF4FC591D491FC01E458FF4FA59102
:1007F000B4919FB7F8948881E22FE0958E23888387
:100800008C91E823EC939FBFDF91CF91089578946A
:1008100084B5826084BD84B5816084BD85B5826005
:1008200085BD85B5816085BD80916E0081608093B6
:100830006E0010928100809181008260809381001F
:10084000809181008160809381008091800081602F
:10085000809380008091B10084608093B10080918A
:10086000B00081608093B00080917A0084608093B2
:100870007A0080917A00826080937A0080917A0079
:10088000816080937A0080917A00806880937A00FA
:100890001092C1001092AD021092AE021092AF02FF
:1008A0001092B00210926B0210926C0210926D02C4
:1008B00010926E0268EB7BE080E090E00E94AF0057
:1008C0008CEC91E09093AC028093AB020E94870085
:1008D0002FB7F8948091C8019091C901A091CA01E5
:1008E000B091CB012FBF80936B0290936C02A093C9
:1008F0006D02B0936E0262E171E08091AB02909163
:10090000AC020E943A026AE070E080E090E00E944F
:10091000AF0081E080937F020E94870064E271E073
:100920008CEC91E00E943A0261E271E08CEC91E083
:100930000E943A0261E271E08CEC91E00E943A027E
:100940000E94DF01FDCFEE0FFF1F0590F491E02D17
:10095000099481E090E0F8940C94AE04F894FFCFF1
:10096000000000007601E2000E01BD013F011D0103
:100970003101564D4450565F317C315F564D4450E5
:10098000560D0A00433A5C55736572735C74796264
:100990006C755C417070446174615C4C6F63616C38
:1009A0005C54656D705C564D4275696C64735C4156
:1009B00075746F4D6F76655C537061726B46756EC2
:1009C0005F526564426F6172645C44656275675C26
:1009D0004175746F4D6F76652E63707020636F6D17
:1009E00070696C6564204F63742032362032303178
:0E09F000372061742031383A32343A31380001
:00000001FF
