:100000000C9410010C9438010C9438010C943801B4
:100010000C9438010C9438010C9438010C9438017C
:100020000C9438010C9438010C9438010C94A10CF8
:100030000C9438010C9438010C9438010C9438015C
:100040000C94CD080C9438010C94900F0C946A0F0A
:100050000C9438010C9438010C9438010C9438013C
:100060000C9438010C9438012513221328133713EC
:100070002B132E13311334133A133D134013431330
:1000800000001100230034004600570069007A0088
:100090008B009C00AE00BF00D000E100F200030125
:1000A00014012401350146015601660177018701DB
:1000B0009701A701B601C601D501E501F4010302CC
:1000C000120221022F023E024C025A0268027502FD
:1000D000830290029D02AA02B702C302CF02DB0292
:1000E000E702F302FE02090314031F03290333038B
:1000F0003D0347035003590362036B0373037B0300
:1001000083038A03920399039F03A603AC03B203FC
:10011000B703BC03C103C603CA03CE03D203D6038D
:10012000D903DC03DE03E103E303E403E603E703AF
:10013000E703E803E80300000000240027002A008A
:1001400000000000250028002B000000000800022D
:100150000100000304070000000000000000290067
:1001600020287261773A20005B72696768745D20AD
:1001700000292C200020287261773A20005B6C65F2
:1001800066745D2000466F7263652073656E736FE1
:10019000727320636F6E6669677572656420286E7E
:1001A0006F726D616C6C79206F6666293A2000531E
:1001B0006572766F20706F77657220697320737730
:1001C000697463686564206F6E20616E6420776572
:1001D00027726520726561647920746F20726F6385
:1001E0006B20616E6420726F6C6C21000000000057
:1001F0002300260029000404040404040404020269
:100200000202020203030303030301020408102095
:100210004080010204081020010204081020F81890
:1002200011241FBECFEFD8E0DEBFCDBF11E0A0E0AC
:10023000B1E0E8E4FEE302C005900D92A23EB107F2
:10024000D9F727E0A2EEB1E001C01D92A038B207B5
:10025000E1F711E0C0E1D1E004C02197FE010E9466
:100260000E1FCF30D107C9F70E9456150C94221FDC
:100270000C9400003FB7F8948091E9019091EA0155
:10028000A091EB01B091EC0126B5A89B05C02F3FD2
:1002900019F00196A11DB11D3FBFBA2FA92F982FAC
:1002A0008827820F911DA11DB11DBC01CD0142E027
:1002B000660F771F881F991F4A95D1F708958EBD45
:1002C0000DB407FEFDCF08958F929F92AF92BF921B
:1002D000EF92FF921F93CF93DF93DC012C9120FFCD
:1002E00041C0EC017C01B7E0EB0EF11CE981FA8121
:1002F00080819181DC01ED91FC914B815C816D816C
:100300007E810480F581E02D97010995182F8111D8
:1003100002C010E028C0888181FD04C088818E7FE2
:10032000888321C0A981BA818D919C911197FC018C
:10033000208131811C968D909D90AD90BC901F972F
:100340004B815C816D817E81480D591D6A1D7B1D2D
:10035000D9011496ED91FC9115979701099581119A
:10036000DDCFD7CF11E0812FDF91CF911F91FF908B
:10037000EF90BF90AF909F908F900895CF92DF92B3
:10038000EF92FF921F93CF93DF93EC016A017B0101
:10039000122F8B819C81AD81BE8184179507A607A2
:1003A000B70719F1CE010E946401811103C080E0FA
:1003B00090E021C012FF06C01882CB82DC82ED8261
:1003C000FE8213C0E981FA8180819181DC01ED9187
:1003D000FC910190F081E02D9E01295F3F4FB70114
:1003E000A60109958111E8CFE2CF13708881182BFF
:1003F0001883CE010796DF91CF911F91FF90EF9068
:10040000DF90CF9008958F929F92AF92BF92CF923C
:10041000DF92EF92FF920F931F936A017B014801D5
:100420005901FC012581203251F54489558966899D
:10043000778997018601E7E0369527951795079507
:10044000EA95D1F7400F511F621F731F23E0849676
:100450000E94BE01009711F480E02DC0E894C7F817
:10046000DD24EE24FF24CC0CDD1CCC0CDD1CFC01B7
:10047000EC0DFD1D80829182A282B3821BC02031CF
:1004800059F7FC0144895589668977894D0D511DBD
:10049000611D711D23E084960E94BE010097E1F268
:1004A000DD24EE24FF24CC0CDD1CFC01EC0DFD1D35
:1004B0009182808281E01F910F91FF90EF90DF90F9
:1004C000CF90BF90AF909F908F900895CF92DF9282
:1004D000EF92FF920F931F93CF93DF93EC016A018A
:1004E0007B0189018D81803251F58C899D89AE898E
:1004F000BF89E7E07695679557954795EA95D1F7D7
:10050000480F591F6A1F7B1F22E0CE0184960E946C
:10051000BE01009711F48FEF40C0E894C7F8DD24C6
:10052000EE24FF24CC0CDD1CCC0CDD1CFC01EC0DFE
:10053000FD1D80819181A281B381BF701DC080317A
:1005400051F74C895D896E897F894D0D511D611D63
:10055000711D22E0CE0184960E94BE010097D9F25F
:10056000DD24EE24FF24CC0CDD1CFC01EC0DFD1D74
:1005700080819181A0E0B0E0488D598D6A8D7B8D9E
:10058000481759076A077B0738F0F8018083918381
:10059000A283B38381E001C080E0DF91CF911F91FE
:1005A0000F91FF90EF90DF90CF9008953F924F9280
:1005B0005F926F927F928F929F92AF92BF92CF92F3
:1005C000DF92EF92FF920F931F93CF93DF93CDB7FC
:1005D000DEB728970FB6F894DEBF0FBECDBF5C0123
:1005E0002A013B014901411551056105710561F47D
:1005F000DC0118968D919D910D90BC91A02D8D835D
:100600009E83AF83B88704C04D835E836F837887F2
:10061000CD80DE80EF80F884BFEFCB1ADB0AEB0AD7
:10062000FB0AF501808D918DA28DB38D8C159D05F2
:10063000AE05BF0528F482E0C82ED12CE12CF12CA8
:100640009E012F5F3F4FB701A601C5010E946602C0
:1006500087FD20C0882341F089819A81AB81BC81CC
:10066000892B8A2B8B2B51F08D819E81AF81B88590
:10067000C816D906EA06FB0679F60CC00FEF1FEF85
:100680002FEF3FE0B701A601C5010E940302382EFB
:10069000811102C0312C2AC041145104610471043B
:1006A00051F097018601B301A201C5010E94030226
:1006B000811108C0EFCFD5011896CD92DD92ED9251
:1006C000FC921B97F50180A191A1A2A1B3A1B7FD56
:1006D00007C00197A109B10980A391A3A2A3B3A365
:1006E000D401CD92DD92ED92FC921397832D289642
:1006F0000FB6F894DEBF0FBECDBFDF91CF911F9133
:100700000F91FF90EF90DF90CF90BF90AF909F90B0
:100710008F907F906F905F904F903F9008950F93D0
:100720001F93CF93DF93EC018A8187FF35C04C89FB
:100730005D896E897F898E819F8121E084960E94E8
:10074000BE010097E9F1EC81FD81EF70FF2725E004
:10075000EE0FFF1F2A95E1F7DC01AE0FBF1F2C91B2
:10076000253E71F1288123FF0AC0488D598D6A8D7D
:100770007B8D5C964D935D936D937C935F974C8DD1
:100780005D8D6E8D7F8DE80FF91F538F428F758BB6
:10079000648B8A818F778A830E811F81C80184963A
:1007A0000E946401882361F0D8018D919C91DC0145
:1007B000ED91FC910280F381E02D0995811104C037
:1007C00089818160898380E0DF91CF911F910F91B2
:1007D0000895DC01ED91FC91119718966D917C9133
:1007E00019970084F185E02D0994DC01ED91FC91CD
:1007F000119718966D917C9119970480F581E02DE1
:10080000099480E090E0089580E090E0089580E011
:1008100090E0089580E090E00895DC01ED91FC9176
:10082000119718966D917C9119970084F185E02DB0
:100830000994DC01ED91FC91119718966D917C91D2
:1008400019970480F581E02D0994FC018681978138
:100850000895FC01848195810895FC01848195812E
:100860000895FC01828193810895FC018281938126
:1008700008950895CF93DF9321E030E0E8E6F1E0BA
:10088000C4EBD0E0BF010E94FA1E88599E4FBF0101
:100890000E94FA1E8E3041E0940724F091958195D4
:1008A000910905C0843B910534F08C549F4F3195DC
:1008B00021953109E7CF8B3591052CF0AE01481B0E
:1008C000590BCA01DFCFFC01EE0FFF1FE058FF4FAD
:1008D00085919491AC01249FC001259F900D349F78
:1008E000900D1124DF91CF910895CF93DF9300D025
:1008F00000D0CDB7DEB7FC01228533854485558510
:10090000CB01865A9F4F29833A834B835C830E9495
:100910003A04DC0129813A814B815C810E94C31E2B
:1009200028EE33E040E050E00E94991EC9010F908C
:100930000F900F900F90DF91CF910895CF93DF9399
:1009400000D000D0CDB7DEB7FC01228533854485C9
:100950005585CB0129833A834B835C830E943A04FB
:10096000DC0129813A814B815C810E94C31E28EE03
:1009700033E040E050E00E94991EC9010F900F90B3
:100980000F900F90DF91CF9108958F929F92AF9229
:10099000BF92EF92FF92CF93DF9300D000D0CDB7FC
:1009A000DEB77C01CB01F701208931894289538967
:1009B00029833A834B835C830E943A04DC012981BA
:1009C0003A814B815C810E94C31E28EE822E23E077
:1009D000922EA12CB12CA50194010E94991EF70121
:1009E00084859585A685B785280F391F4A1F5B1F0B
:1009F00082859385865A9F4F29833A834B835C83F4
:100A00000E943A04DC0129813A814B815C810E9479
:100A1000C31EA50194010E94991EC9010F900F9059
:100A20000F900F90DF91CF91FF90EF90BF90AF901C
:100A30009F908F9008958F929F92AF92BF92EF9266
:100A4000FF92CF93DF9300D000D0CDB7DEB77C010B
:100A5000CB01F701208931894289538929833A835F
:100A60004B835C830E943A04DC0129813A814B81EB
:100A70005C810E94C31E28EE822E23E0922EA12CC0
:100A8000B12CA50194010E94991EF70184859585DA
:100A9000A685B785280F391F4A1F5B1F828593855E
:100AA00029833A834B835C830E943A04DC012981C9
:100AB0003A814B815C810E94C31EA50194010E9472
:100AC000991EC9010F900F900F900F90DF91CF9159
:100AD000FF90EF90BF90AF909F908F900895FC0192
:100AE0002481222319F004960C948F03089581E049
:100AF0000895089580E090E008952F923F924F92DC
:100B00005F926F927F928F929F92AF92BF92CF929D
:100B1000DF92EF92FF920F931F93CF93DF93CDB7A6
:100B2000DEB72A970FB6F894DEBF0FBECDBF9E8307
:100B30008D831B015A834983DC01BC91BB83B3FFC6
:100B400067C0FC01828181FF63C06DC0AD81BE8141
:100B50001696ED91FC911797848190E009968A0191
:100B60009B010150110921093109082E04C0369555
:100B70002795179507950A94D2F775016401B1E09E
:100B8000CB1AD108E108F10804C0F694E794D79491
:100B9000C7948A95D2F7C016D106E206F30608F08C
:100BA00069C08B8186FD02C0ED81FE81848D958DAB
:100BB000A68DB78DED81FE8184879587A687B7873F
:100BC0000D811E81045F1F4FC114D104E104F104A3
:100BD00009F45AC0AD81BE811C964D915D916D9115
:100BE0007C911F97980116968D919C9117970E9462
:100BF0006602B1E0CB1AD108E108F108181624F317
:100C0000AD81BE811C964D925D926D927C921F9734
:100C1000AD81BE8111968C911197816011968C9354
:100C20008FEF9FEF9AC182FF35C0AD81BE8158968C
:100C30008D909D90AD90BC905B971C964D905D9073
:100C40006D907C901F9750964D915D916D917C9128
:100C5000539784169506A606B706E1F08114910411
:100C6000A104B10409F072CFFD0114861586168621
:100C700017860AC0452B462B472B09F492CFC01A82
:100C8000D10AE20AF30A9CCFED81FE81808A918A23
:100C9000A28AB38AE981FA81AF0160E070E0ED8158
:100CA000FE8180899189A289B38980959095A095CC
:100CB000B09584179507A607B70708F4A9CFC98090
:100CC000DA803C96FC83EB8344244A94542C320112
:100CD000AD81BE8150960D911D912D913C91539700
:100CE000C114D10409F411C1AD81BE8116968D9154
:100CF0009C911797B901A80129E0769567955795BA
:100D000047952A95D1F7FC01F380F4221170F11078
:100D10005CC00115110509F058C01C964D915D91FC
:100D20006D917C911F97411551056105710511F178
:100D30002B813C810E94660287FD6ACF811145C0EC
:100D4000AD81BE8112968C911297806812968C9319
:100D500012971C964D915D916D917C911F972B81FF
:100D60003C8116968D919C9117970E94D602811115
:100D70002CC04ECFED81FE81448D558D668D778DD3
:100D80004115510561057105C1F422812068228356
:100D90002B813C8140E050E0BA010E94D6028823BA
:100DA00009F436CFED81FE8184859585A685B785CA
:100DB000848F958FA68FB78F08C0AD81BE811C969A
:100DC0004D935D936D937C931F97AD81BE81169675
:100DD000ED91FC9117971C964D915D916D917C91D1
:100DE0001F974250510961097109048004C0440FE2
:100DF000551F661F771F0A94D2F780899189A289AF
:100E0000B389480F591F6A1F7B1F4F0D511D611D6C
:100E1000711D0115110521F4C114B2E0DB06F0F5D6
:100E200080E092E0801B910B76018C159D0508F403
:100E30007C0101151105A9F4AD81BE8150968D90FC
:100E40009D90AD90BC90539758968D919D910D902B
:100E5000BC91A02D88169906AA06BB0610F025E0C5
:100E600001C021E0CF0184960E94BE01009709F4E1
:100E7000CFCEA701B101800F911F0E94191F0E0D47
:100E80001F1D0115124071F5ED81FE81868197814C
:100E900084960E946401811125C0BACE87A190A5D5
:100EA000A1A5B2A584179507A607B70729F414A230
:100EB00047A250A661A672A6AD81BE811696ED919D
:100EC000FC91179780819181DC01ED91FC91048068
:100ED000F581E02D91010995882309F499CEE12C43
:100EE00082E0F82EED81FE8180899189A289B38903
:100EF0008E0D9F1DA11DB11D808B918BA28BB38B7D
:100F00002E0C3F1CCE18DF08E3CE58968D919D9194
:100F10000D90BC91A02D80179107A207B30748F44C
:100F2000ED81FE81008F118F228F338F8281806847
:100F30008283AD81BE8112968C9183FD03C089812D
:100F40009A810BC0ED81FE8180818823C1F3CF019E
:100F50000E948F038111F3CF5BCE2A960FB6F894CF
:100F6000DEBF0FBECDBFDF91CF911F910F91FF90DC
:100F7000EF90DF90CF90BF90AF909F908F907F9039
:100F80006F905F904F903F902F90089504960C942F
:100F90007D05CF93DF931F92CDB7DEB7698341E024
:100FA00050E0BE016F5F7F4F04960E947D050F9059
:100FB000DF91CF910895833081F028F4813099F04A
:100FC0008230A1F008958730A9F08830B9F08430DC
:100FD000D1F4809180008F7D03C0809180008F7755
:100FE00080938000089584B58F7702C084B58F7D8B
:100FF00084BD08958091B0008F7703C08091B000C8
:101000008F7D8093B00008951F93CF93DF93282F97
:1010100030E0F901E65BFE4F8491F901E65FFD4F98
:10102000D491F901EA50FE4FC491CC23C9F0162F98
:1010300081110E94DB07EC2FF0E0EE0FFF1FE05C58
:10104000FE4FA591B4918FB7F894111105C09C91F2
:10105000ED2FE095E92302C0EC91ED2BEC938FBFCF
:10106000DF91CF911F910895CF93DF9390E0FC0122
:10107000E65FFD4F2491FC01EA50FE4F84918823E6
:1010800061F190E0880F991FFC01EA5CFE4FC59169
:10109000D491FC01E05CFE4FA591B491611109C0AF
:1010A0009FB7F8948881209582238883EC912E2322
:1010B0000BC0623061F49FB7F8943881822F80951D
:1010C00083238883EC912E2B2C939FBF06C08FB770
:1010D000F894E8812E2B28838FBFDF91CF9108955C
:1010E0008E3008F08E508770806480937C008091F1
:1010F0007A00806480937A0080917A0086FDFCCF2C
:10110000809178002091790090E0922B08958F9241
:101110009F92AF92BF92CF92DF92EF92FF926B01BC
:101120007C010E943A014B015C01C114D104E1042D
:10113000F104F1F00E943A01DC01CB018819990910
:10114000AA09BB09883E9340A105B10570F321E0CF
:10115000C21AD108E108F10888EE880E83E0981ED3
:10116000A11CB11CC114D104E104F10419F7DDCFB5
:10117000FF90EF90DF90CF90BF90AF909F908F90B7
:1011800008952FB7F8946091E5017091E601809180
:10119000E7019091E8012FBF08951F920F920FB6BB
:1011A0000F9211242F933F938F939F93AF93BF93ED
:1011B0008091E5019091E601A091E701B091E801ED
:1011C0003091E40123E0230F2D3720F40196A11D77
:1011D000B11D05C026E8230F0296A11DB11D209365
:1011E000E4018093E5019093E601A093E701B093B9
:1011F000E8018091E9019091EA01A091EB01B091A1
:10120000EC010196A11DB11D8093E9019093EA01C3
:10121000A093EB01B093EC01BF91AF919F918F919F
:101220003F912F910F900FBE0F901F9018958FEF49
:101230008EBD0DB407FEFDCF8EB50895FF920F93BE
:101240001F93CF93DF9300D000D0CDB7DEB78C01D2
:10125000F62E29833A834B835C83DC0115968C91AF
:101260001597811113C01396ED91FC9114979081FD
:1012700081819CBD8DBD1396ED91FC91149760E02A
:1012800082810E94040881E0F80185830E948E1407
:101290008F2D80640E945F018C810E945F018B8191
:1012A0000E945F018A810E945F0189810E945F0123
:1012B000FF2011F087E801C085E90E945F01FCE092
:1012C000FF1202C00E941709F12C0E941709D801D1
:1012D00016968C9387FF05C0BFEFFB1611F0F394B1
:1012E000F4CF0F900F900F900F90DF91CF911F913F
:1012F0000F91FF900895CF93DF93FC012581222366
:1013000061F0EC010380F481E02D61E082810E94B4
:1013100004088FEF0E945F011D82DF91CF91089535
:101320001F93CF93DF93EC018C858130A9F41C8649
:1013300020E030E0A9016CE0CE010E941E09882364
:1013400039F088E28A83CE010E947B0910E017C041
:10135000CE010E947B0912C0823081F41C860E945B
:101360008E14182F882321F08DEF0E945F0102C098
:1013700086E58A83CE010E947B0901C011E0812F9E
:10138000DF91CF911F910895CF92DF92EF92FF925C
:101390000F931F93CF93DF93EC016A017B018901C7
:1013A0008C85813049F488859985AA85BB85481745
:1013B00059076A077B0741F1E881F9810280F381CF
:1013C000E02DCE0109958823B9F08F81A701960100
:1013D000833039F089E0220F331F441F551F8A954F
:1013E000D1F762E1CE010E941E09882339F081E322
:1013F0008A83CE010E947B0980E018C0C886D98606
:10140000EA86FB8681E08C87B801CE010E944A14EF
:10141000882391F3488559856A857B854F5F5F4FA7
:101420006F4F7F4F488759876A877B87DF91CF91BE
:101430001F910F91FF90EF90DF90CF9008950F9341
:101440001F93CF93DF938C01862FEA010E945F01E7
:1014500088818EBD8981FE013296DE5F0DB407FE64
:10146000FDCF8EBDEC17FD0711F08191F7CF0DB4C4
:1014700007FEFDCF8FEF0E945F018FEF0E945F019B
:101480000E941709F8018683982F9F71953039F0D3
:1014900087E58283C8010E947B0980E001C081E06A
:1014A000DF91CF911F910F910895CF92DF92EF922C
:1014B000FF920F931F93CF93DF93EC016A017B019F
:1014C00089018C85823049F488859985AA85BB85F8
:1014D00084179507A607B70719F1E881F9810280FB
:1014E000F381E02DCE0109958823C9F18F81A701F1
:1014F0009601833039F089E0220F331F441F551FB6
:101500008A95D1F769E1CE010E941E09882311F066
:1015100083E30BC0C886D986EA86FB8682E08C8787
:101520000E948E14811103C08AE58A8307C0A80136
:101530006CEFCE010E941F0A811105C0CE010E94EE
:101540007B0980E00CC0488559856A857B854F5FA3
:101550005F4F6F4F7F4F488759876A877B87DF913F
:10156000CF911F910F91FF90EF90DF90CF90089552
:101570000F931F93CF93DF93EC0189018F81833009
:1015800039F089E0440F551F661F771F8A95D1F700
:101590009A01AB0168E1CE010E941E09882319F06F
:1015A00082E38A830CC0A8016EEFCE010E941F0A5D
:1015B000182F882321F0CE010E947B0904C0CE01A0
:1015C0000E947B0910E0812FDF91CF911F910F9135
:1015D00008950F931F93CF93DF93EC0189018F81BF
:1015E000833039F089E0440F551F661F771F8A95B5
:1015F000D1F79A01AB0161E1CE010E941E09882357
:1016000019F080E38A830BC0B801CE010E944A140E
:10161000182F882321F0CE010E947B0904C0CE013F
:101620000E947B0910E0812FDF91CF911F910F91D4
:1016300008956115710579F0FB0101900020E9F72B
:101640003197AF01461B570BDC01ED91FC910280F5
:10165000F381E02D099480E090E008958F929F92AD
:10166000AF92BF92CF92DF92EF92FF92FC01828104
:1016700028E532E06901C81AD10887FDD394CC0C63
:10168000DD1CCC0CDD1C0D2C000CEE08FF0881814C
:1016900028E830E04901881A910887FD9394880C66
:1016A000991C880C991C092C000CAA08BB08808185
:1016B0008F3FC1F090E0FC01EE0FFF1F8E0F9F1FC8
:1016C000FC01E351FE4F2181328143E0220F331FA1
:1016D0004A95E1F754E0369527955A95E1F72E5F44
:1016E0003F4F02C020E030E02F5F3F4FC901330F72
:1016F000AA0BBB0B9C01AD01281939094A095B09EA
:10170000A4EBB0E00E94B81EA70196012819390980
:101710004A095B090E94991EC901FF90EF90DF9072
:10172000CF90BF90AF909F908F900895CF93DF930D
:10173000EC010E942E0B29853A854B855C85DC01E6
:101740000E94C31E6C507E4F8F4F9F4F28EE33E098
:1017500040E050E00E94991E8D819E81AF81B88546
:10176000820F931FA41FB51FDF91CF910895CF93D0
:10177000DF93EC01CB010E94960BBC01998788870F
:10178000E881F9810480F581E02DCE0109959B83E4
:101790008A83E881F981688579850084F185E02D67
:1017A000CE0109959D838C83DF91CF910895CF93CE
:1017B000DF93EC01CB010E94960B9F838E83DF9118
:1017C000CF910895CF93DF93EC01CB010E94960B4C
:1017D000BC0199878887E881F9810084F185E02D33
:1017E000CE0109959D838C83E881F981688579858F
:1017F0000480F581E02DCE0109959B838A83DF91DA
:10180000CF910895CF92DF92EF92FF92CF93DF9323
:10181000EC01603282E078070CF03DC077FD06C035
:10182000653B71052CF064EB70E002C060E070E095
:10183000898128E830E06901C81AD10887FDD3946E
:10184000CC0CDD1CCC0CDD1C0D2C000CEE08FF08B4
:101850008A8128E532E0281B310987FD3395220F64
:10186000331F220F331FC901330FAA0BBB0B9C017F
:10187000AD012C193D094E095F09DB010E94C31E11
:1018800024EB30E040E050E00E94991EC20ED31ECF
:10189000E41EF51EB60188818C3080F5998148E8F8
:1018A00050E0491B510997FD5395440F551F440FB4
:1018B000551F6417750784F09A8128E532E0291BCB
:1018C000310997FD3395220F331F220F331FAB01D0
:1018D000261737070CF4A90142505109440F551F30
:1018E0002FB7F89490E0FC01EE0FFF1F8E0F9F1FA3
:1018F000FC01E351FE4F528341832FBFDF91CF9113
:10190000FF90EF90DF90CF900895FC019091E3015C
:101910009C30A0F481E0890F8093E3019083892FAC
:1019200090E0FC01EE0FFF1F8E0F9F1FFC01E351A3
:10193000FE4F88EB9BE09283818308958FEF808335
:1019400008951F920F920FB60F9211242F933F9379
:101950004F935F936F937F938F939F93AF93BF93B7
:10196000EF93FF938091E20187FF05C010928500FD
:10197000109284001BC02091E201022E000C330B58
:101980008091E30190E02817390784F48091E20107
:10199000082E000C990BFC01EE0FFF1F8E0F9F1FEE
:1019A000FC01E351FE4F808186FD15C08091E2016C
:1019B0008F5F8093E2012091E201022E000C330B35
:1019C0008091E30190E028173907C4F48091E20187
:1019D0008C3064F113C08091E201082E000C990B49
:1019E000FC01EE0FFF1F8E0F9F1FFC01E351FE4F06
:1019F000808160E08F730E940408D8CF80918400BA
:101A000090918500049680349C4918F480E49CE908
:101A100005C0809184009091850004969093890080
:101A2000809388008FEF8093E2013BC02091840077
:101A3000309185008091E201082E000C990BFC0189
:101A4000EE0FFF1F8E0F9F1FFC01E351FE4F8181A0
:101A50009281820F931F90938900809388008091D8
:101A6000E201082E000C990BFC01EE0FFF1F8E0FF8
:101A70009F1FFC01E351FE4F808186FF12C08091C1
:101A8000E201082E000C990BFC01EE0FFF1F8E0FD8
:101A90009F1FFC01E351FE4F808161E08F730E9424
:101AA0000408FF91EF91BF91AF919F918F917F912A
:101AB0006F915F914F913F912F910F900FBE0F90BB
:101AC0001F9018950F931F93CF93DF93EC014881DC
:101AD00059816A817B818C819D81AE81BF81840F18
:101AE000951FA61FB71F0196A11DB11D48855985D9
:101AF0006A857B858C019D01040F151F261F371FEA
:101B0000C901B80123E030E040E050E00E94771EB8
:101B10002C873D874E875F8781E0888BDF91CF914F
:101B20001F910F910895FC01DB0184E991E09183FD
:101B3000808312968D919C91139793838283149640
:101B40008D919C9115979583848316968D919C9188
:101B500017979783868318968D919C9119979187F3
:101B6000808708958F929F92AF92BF92CF92DF921B
:101B7000EF92FF920F931F93CF93DF938C01DC01C1
:101B80001F96ED90FC9050976E157F054CF0519686
:101B90008D919C9152977B01861797070CF47C01DD
:101BA000C8010E942E0BEC016701CC1ADD0AD9F0A6
:101BB0000E94C1084B015C01BFE08B0E911CA11C6F
:101BC000B11C0E94C108681579058A059B05C8F3F8
:101BD0001C141D0414F4219601C02197BE01C801F4
:101BE0000E94020CE1CFF80183819481DC01ED9128
:101BF000FC910190F081E02DB801DF91CF911F9110
:101C00000F91FF90EF90DF90CF90BF90AF909F909B
:101C10008F9009940F931F93CF93DF938C01EB0167
:101C20000E942E0BBC016C0F7D1FC801DF91CF916C
:101C30001F910F910C94B20D8F929F92AF92BF9211
:101C4000DF92EF92FF920F931F93CF93DF938C015C
:101C5000FC0181810E94C20FDD24D394019751F0D1
:101C6000D12C61E0F80181810E94040883E090E0BA
:101C70000197F1F70E94C1084B015C01F4E68F0E59
:101C8000911CA11CB11CE12CF12CC0E0D0E0F801AA
:101C900080810E947008F80122813381281739075A
:101CA00040F4248135818217930718F4E80EF91E59
:101CB0002196C233D10538F40E94C1086815790510
:101CC0008A059B0520F3BE01660F771F660F771FFD
:101CD0006115710549F0CB01969587958E0D9F1D75
:101CE0000E94E61EC62F01C0C0E0D11009C060E00E
:101CF000F80181810E94040883E090E00197F1F7E8
:101D00008C2FDF91CF911F910F91FF90EF90DF907B
:101D1000BF90AF909F908F900895FC01538D448D9C
:101D2000252F30E0842F90E0821B930B541710F086
:101D3000CF96089501970895FC01918D828D981793
:101D400061F0828DDF01A80FB11D5D968C91928D9F
:101D50009F5F9F73928F90E008958FEF9FEF08959C
:101D6000FC01918D828D981731F0828DE80FF11D65
:101D7000858D90E008958FEF9FEF0895FC01918D80
:101D8000228D892F90E0805C9F4F821B91098F7379
:101D90009927089581E192E00E94BE0E21E0892BEF
:101DA00009F420E0822F0895FC01848DDF01A80F43
:101DB000B11DA35ABF4F2C91848D90E001968F7373
:101DC0009927848FA689B7892C93A089B1898C9192
:101DD00080648C93938D848D981306C00288F38958
:101DE000E02D80818F7D80830895EF92FF920F9385
:101DF0001F93CF93DF93EC0181E0888F9B8D8C8DB7
:101E0000981305C0E889F989808185FD24C0F62EE4
:101E10000B8D10E00F5F1F4F0F731127E02E8C8D7D
:101E2000E8120CC00FB607FCFACFE889F989808167
:101E300085FFF5CFCE010E94D40EF1CF8B8DFE0130
:101E4000E80FF11DE35AFF4FF0820B8FEA89FB89FF
:101E50008081806207C0EE89FF896083E889F98903
:101E600080818064808381E090E0DF91CF911F9139
:101E70000F91FF90EF900895CF93DF93EC01888D41
:101E80008823C9F0EA89FB89808185FD05C0A8897E
:101E9000B9898C9186FD0FC00FB607FCF5CF808104
:101EA00085FFF2CFA889B9898C9185FFEDCFCE014E
:101EB0000E94D40EE7CFDF91CF91089580E090E0AB
:101EC000892B29F00E94CA0E81110C9400000895FC
:101ED0000E94141F1F920F920FB60F9211242F937E
:101EE0003F934F935F936F937F938F939F93AF93A2
:101EF000BF93EF93FF9381E192E00E94D40EFF9194
:101F0000EF91BF91AF919F918F917F916F915F9171
:101F10004F913F912F910F900FBE0F901F901895EA
:101F20001F920F920FB60F9211242F938F939F93AE
:101F3000EF93FF93E0912102F09122028081E091E2
:101F40002702F091280282FD12C0908180912A021E
:101F50008F5F8F7320912B02821751F0E0912A023C
:101F6000F0E0EF5EFD4F958F80932A0201C08081E3
:101F7000FF91EF919F918F912F910F900FBE0F9036
:101F80001F901895CF93DF93282F30E0F901E65B7F
:101F9000FE4F8491F901E65FFD4FD491F901EA50BB
:101FA000FE4FC491CC2391F081110E94DB07EC2FEE
:101FB000F0E0EE0FFF1FE451FE4FA591B491EC91BC
:101FC000ED2381E090E021F480E002C080E090E029
:101FD000DF91CF910895CF93DF93C6E0D3E08A8954
:101FE0009B89DC01ED91FC916A857B850190F081F4
:101FF000E02D09958C899D89DC01ED91FC916C8522
:102000007D850190F081E02D09958E899F89DC0105
:10201000ED91FC916E857F850190F081E02D099511
:10202000888D998DDC01ED91FC9168897989019009
:10203000F081E02D09954A895B89AC89BD89688D5D
:10204000798DFA012281338112968D919C9113979B
:10205000820F931FFB0122813381820F931F9B8389
:102060008A83FA012481358114968D919C9115976C
:10207000820F931FDB0114962D913C911597820FCF
:10208000931F9D838C83EE89FF89868197819F832F
:102090008E83DF91CF9108954F925F926F927F92DE
:1020A0008F929F92AF92BF92CF92DF92EF92FF9268
:1020B0000F931F93CF93DF937C0180919A039091AC
:1020C0009B030E942E0B8C0180919C0390919D0399
:1020D0000E942E0BEC010E94C1084B015C0128E814
:1020E000820E23E1921EA11CB11C78E8472E73E1F9
:1020F000572E612C712CE0910803F0910903D70150
:1021000012966D917C9113979F01261B370B37FF19
:1021100003C031952195310980910A0390910B03F9
:10212000D70114964D915C911597841B950B97FFE1
:1021300003C0919581959109A901480F591F80917C
:102140000C0390910D03D70116962D913C91179792
:10215000821B930B97FF03C0919581959109840F82
:10216000951F03970CF44BC114141504160417049F
:102170000CF045C1E617F707C4F5E0919C03F09118
:102180009D0381899289C817D9077CF52196BE01E4
:1021900080919C0390919D030E94B20D0E94EB0FD1
:1021A0000E94C108D70112962D913C91139740913E
:1021B00008035091090342175307BCF4E0919C03B4
:1021C000F0919D0321893289AE014F5F5F4F421725
:1021D00053075CF4A5019401261B370B480B590BE0
:1021E00012161306140615068CF2D70114962D91BB
:1021F0003C91159780910A0390910B03281739079A
:10220000BCF5E0919A03F0919B0387859089801734
:10221000910774F501501109B80180919A039091CA
:102220009B030E94B20D0E94EB0F0E94C108F701B0
:102230002481358140910A0350910B0324173507FF
:10224000BCF4E0919A03F0919B0327853089A801A3
:1022500041505109241735075CF4A5019401261B50
:10226000370B480B590B121613061406150694F279
:10227000D70116962D913C91179780910C03909160
:102280000D032817390709F440C0C0909E03D09071
:102290009F03281B390BA901330F660B770BF6013F
:1022A00085819681A781B0859A01AB01281B390BE6
:1022B0004A0B5B0BA8EEB3E00E94B81E2185328565
:1022C000438554852B013C01F4EF4F1AF1E05F0A7E
:1022D00061087108DA01C90157FF07C088279927EB
:1022E000DC01821B930BA40BB50BB595A7959795B5
:1022F0008795BC01CD01640D751D861D971D0E943B
:10230000991EB901C6010E940A0ED70112962D919D
:102310003C911397809108039091090382179307CA
:102320005CF480919C0390919D03FC01218932898A
:10233000C217D3070CF44DC0D70114962D913C91D0
:10234000159780910A0390910B032817390754F4CD
:1023500080919A0390919B03FC0127853089201777
:102360003107E4F1D70112962D913C91139780919A
:102370000803909109032817390754F480919C03AE
:1023800090919D03FC01278530892C173D0764F14E
:10239000D70114962D913C91159780910A03909145
:1023A0000B038217930754F480919A0390919B0337
:1023B000FC012189328902171307DCF00E94EB0F20
:1023C0000E94C10824013501461A570A680A790A91
:1023D00092CE2196BE010E94B20DAECF01501109DE
:1023E000B8010E94B20DBECF2197BE010E94B20D6E
:1023F000CFCF0F5F1F4FB8010E94B20DDFCFDF912B
:10240000CF911F910F91FF90EF90DF90CF90BF90F1
:10241000AF909F908F907F906F905F904F900895B6
:10242000E1E1F2E0A089B18982E08C93A485B585D1
:102430001C92A685B7858FEC8C93108EA489B589E4
:1024400086E08C93A289B3898C9180618C93A28958
:10245000B3898C9188608C93A289B3898C918068B0
:102460008C930288F389E02D80818F7D808308958D
:10247000CF92DF92EF92FF92CF93DF936C01990F8F
:10248000EE08FF08F7FE21C0E0911102F091120260
:102490000190F081E02D6DE281E192E00995EC017F
:1024A00044275527BA014C195D096E097F092AE0B6
:1024B00081E192E00E94A4148C0F9D1FDF91CF91C7
:1024C000FF90EF90DF90CF9008952AE0B701A6012A
:1024D00081E192E0DF91CF91FF90EF90DF90CF907C
:1024E0000C94A414809198030E94C20F019769F084
:1024F00061E0809198030E94040868EC70E080E03D
:1025000090E00E9487080C94EB0F0895DF92EF9201
:10251000FF920F931F93CF93DF9302EA13E04CE0F7
:10252000F42E52E0E52ED801CD91DD918D01288168
:10253000822F90E0FC01EE0FFF1F8E0F9F1FFC010A
:10254000E351FE4F808186FD5DC0DD842C3008F0B4
:102550004FC061E08D2D0E9434088881E82FF0E0A3
:102560009F01220F331FE20FF31FE351FE4F9D2DFA
:102570009F732081207CD22ED92AD08219821A8280
:102580006F2D0E94DA1EBCE08B9FB001112440E049
:1025900050E09A01260F371FF901EE0FFF1F2E0F93
:1025A0003F1FF901E351FE4F908196FD15C04F5F2B
:1025B0005F4F4C30510569F781110EC010928000B9
:1025C000E09281001092850010928400B19A80916F
:1025D0006F00826080936F00E881F0E0CF01880F88
:1025E000991FE80FF91FE351FE4F808180648083BB
:1025F0008B819C81DC01ED91FC910190F081E02DBB
:10260000BE010995B3E00A3A1B0709F08CCFDF91B0
:10261000CF911F910F91FF90EF90DF900895CF938E
:10262000DF93CDB7DEB72A970FB6F894DEBF0FBEA3
:10263000CDBF01978C30910580F58C5C9F4FFC01DC
:102640000C940E1F6AE273E020C060E273E01DC0CC
:1026500064E373E01AC068E473E017C062E573E0F6
:1026600014C06CE573E011C066E673E00EC06EE363
:1026700073E00BC060E773E008C06AE773E005C071
:1026800064E873E002C06EE873E0CE0101960E9438
:10269000930DCE0101960E944C102A960FB6F89425
:1026A000DEBF0FBECDBFDF91CF9108958F929F9275
:1026B000AF92BF92CF92DF92EF92FF920F931F9350
:1026C000CF93DF93CEE1D0E0812C912C540193E0A5
:1026D000E92EF12C23E2C22ED12C60E0809102037E
:1026E0000E940408C7010197F1F761E0809102039D
:1026F0000E940408C6010197F1F760E0809102038F
:102700000E94040880910403909105039927FC011D
:10271000E65FFD4F6491FC01EA50FE4FE491F0E06A
:10272000EE0FFF1FE451FE4F859194910CE119E0EB
:1027300020E030E0462F0E941115611571058105DA
:10274000910539F0DC01CB010196A11DB11DBF70CF
:1027500003C080E090E0DC01880E991EAA1EBB1E1B
:102760006CE370E080E090E00E948708219709F018
:10277000B4CFC501B401615F7F4F8F4F9F4F2EE1F2
:1027800030E040E050E00E94771ECA01B901DF91BD
:10279000CF911F910F91FF90EF90DF90CF90BF905E
:1027A000AF909F908F900895CF93DF93CDB7DEB712
:1027B00064970FB6F894DEBF0FBECDBF24E931E0B9
:1027C0003C872B879E878D87788B6F875A8B498BA9
:1027D0001C8A1B8ABE01655F7F4FCE0101960E9455
:1027E000930DCE0101960E944C1064960FB6F8949A
:1027F000DEBF0FBECDBFDF91CF9108956091E203A0
:102800007091E303861797074CF02091E403309111
:10281000E503BC01281739070CF4B90183ED93E0F7
:102820000E94020C8091D6039091D703DC01ED91B8
:10283000FC910190F081E02D63ED73E00994CF925B
:10284000DF92EF92FF920F931F93CF93DF936C0170
:102850007A018B01C0E0D0E0CE15DF0589F0D80108
:102860006D918D01D601ED91FC910190F081E02DEB
:10287000C6010995892B11F47E0102C02196ECCF87
:10288000C701DF91CF911F910F91FF90EF90DF90E3
:10289000CF900895EF92FF920F931F93CF93DF9302
:1028A000EC017B010E94C1088B010E9417098E83F5
:1028B0008F3F49F40E94C108601B710B6D3271405B
:1028C000A0F385E503C08E3F39F080E58A83CE0111
:1028D0000E947B0980E01BC08FEF8EBDF701D701FE
:1028E000A150BE4F9FEF0DB407FEFDCF8EB59EBD2C
:1028F0008193EA17FB07B9F70DB407FEFDCF8EB53C
:102900008C931E820E9417090E94170981E0DF91B3
:10291000CF911F910F91FF90EF900895CF93DF9388
:102920000E94C108EB010E9417098F3F49F00E94E5
:10293000C1086C1B7D0B69357240A8F380E001C0B3
:1029400081E0DF91CF9108954F925F926F927F92D5
:10295000EF92FF920F931F93CF93DF93CDB7DEB724
:10296000A1970FB6F894DEBF0FBECDBF7C01FA0170
:10297000CB0119A2223008F42AE08E010F5D1F4F0F
:10298000422E512C612C712CBF01A30192010E9497
:10299000771EF901CA01015011096A3014F4605D13
:1029A00001C0695CD8016C93232B242B252B61F784
:1029B000B801C7010E94190BA1960FB6F894DEBFAB
:1029C0000FBECDBFDF91CF911F910F91FF90EF9080
:1029D0007F906F905F904F900895EF92FF920F93CA
:1029E0001F93CF93DF938C017B01C0E0D0E0F70110
:1029F000EC0FFD1F6491662361F0D801ED91FC910D
:102A00000190F081E02DC8010995892B11F02196E4
:102A1000EECFCE01DF91CF911F910F91FF90EF90FC
:102A20000895CF92DF92EF92FF920F931F93E82FBA
:102A3000F92F05C0015011092109310961F1908177
:102A400096239417B9F305C00150110921093109E2
:102A500011F1908196239413F7CFC12CD12CE12C46
:102A6000F12C0AC08FEFC81AD80AE80AF80A0C1528
:102A70001D052E053F0579F080818623841791F38B
:102A80006C2D7D2D8E2D9F2D1F910F91FF90EF901E
:102A9000DF90CF90089560E070E080E090E01F91BB
:102AA0000F91FF90EF90DF90CF900895CF93DF9339
:102AB000CDB7DEB765970FB6F894DEBF0FBECDBFBA
:102AC000789484B5826084BD84B5816084BD85B509
:102AD000826085BD85B5816085BD80916E00816015
:102AE00080936E00109281008091810082608093BB
:102AF00081008091810081608093810080918000BD
:102B00008160809380008091B10084608093B100E7
:102B10008091B00081608093B00080917A008460E1
:102B200080937A0080917A00826080937A0080910D
:102B30007A00816080937A0080917A008068809327
:102B40007A001092C1001092F2021092F3021092D9
:102B5000F4021092F5021092B0021092B10210929B
:102B6000B2021092B3020E94C1086B017C014B01BA
:102B70005C0128EB820E2BE0921EA11CB11C0E946E
:102B8000C1086C157D058E059F0528F086169706F1
:102B9000A806B906A0F781E192E09093F102809334
:102BA000F0020E9410120E94C1086093B00270935C
:102BB000B1028093B2029093B30260EA71E0809117
:102BC000F0029091F1020E94190B0E94C1086B0162
:102BD0007C014B015C013AE0830E911CA11CB11CED
:102BE0000E94C1086C157D058E059F0528F086168C
:102BF0009706A806B906A0F781E08093C4020E9458
:102C0000101262EB71E081E192E00E94190B6FEA11
:102C100071E081E192E00E94190B88E19CEFAFEF37
:102C2000BFEF80931B0490931C04A0931D04B093EA
:102C30001E048CED90E0A0E0B0E080931704909328
:102C40001804A0931904B0931A0486E590E09093B9
:102C500022048093210484EB90E0909324048093D9
:102C600023042AE530E0309326042093250448EE1F
:102C700053E060E070E040930604509307046093D3
:102C800008047093090403E81FEF2FEF3FEF009350
:102C9000020410930304209304043093050424E1F8
:102CA00030E030930D0420930C0426E930E030939B
:102CB0000F0420930E042FE530E03093110420938D
:102CC00010044093DC035093DD036093DE037093A4
:102CD000DF034CEE5FEF6FEF7FEF4093D80350932D
:102CE000D9036093DA037093DB032DE730E0309370
:102CF000E3032093E2032AEA30E03093E5032093D4
:102D0000E40322E830E03093E7032093E6034AEE41
:102D100051E060E070E04093F1035093F203609360
:102D2000F3037093F4031092ED031092EE031092EC
:102D3000EF031092F0031092F8031092F7039093B0
:102D4000FA038093F9038AE090E09093FC03809368
:102D5000FB0302EA13E0F801808191810E942E0BAF
:102D60007C01F80180819181FC0167857089E616FC
:102D7000F70614F40E94020CF801819191918F01E1
:102D8000FC01618972896E157F0514F40E94020CA2
:102D9000F3E00A3A1F07F9F681E090E00E940F1372
:102DA0000E9486120E94721265E871E081E192E051
:102DB0000E94ED146DE771E081E192E00E94ED1454
:102DC0008CEF92E00E941C0E482F50E060E070E013
:102DD0002AE081E192E00E94A41465E771E081E1BC
:102DE00092E00E94ED148091FC020E9470080E9403
:102DF000381261E771E081E192E00E94ED1468E62B
:102E000071E081E192E00E94ED1486EF92E00E9471
:102E10001C0E482F50E060E070E02AE081E192E073
:102E20000E94A41460E671E081E192E00E94ED143A
:102E30008091F6020E9470080E9438126EE571E0DF
:102E400081E192E00E94ED146FEA71E081E192E08D
:102E50000E94190B11E01E012DE0220E311C04E12D
:102E6000E12CF12C809199030E947008E80EF91E64
:102E70000150C1F737EFE31637E2F306A4F40E94DE
:102E800072120E94861281E090E00E940F136FEA96
:102E900071E081E192E00E94ED146FEA71E081E15E
:102EA00092E00E94190B04E1E12CF12C809199032E
:102EB0000E947008E80EF91E0150C1F747EFE416B2
:102EC00047E2F40624F40E9472120E94861281E006
:102ED00090E00E940F136AEF70E080E090E00E94A3
:102EE00087080E9456136B017C016D877E878F8750
:102EF000988B198B69837A838B839C836D837E8304
:102F00008F83988769877A878B879C870E94C108FF
:102F10009B01AC01205D3A484F4F5F4F2A8B3B8BA2
:102F20004C8B5D8B0E9456138D809E80AF80B88441
:102F300089829A82AB82BC8289849A84AB84BC8465
:102F40008D829E82AF82B88669877A878B879C87BD
:102F5000198A4601570134E0830E911CA11CB11C53
:102F600086169706A806B90688F40E9456136B01C8
:102F70007C016D837E838F83988769877A878B87AF
:102F80009C876D877E878F87988B198B89898111A4
:102F900004C0CE0101960E94620D8D859E85AF858D
:102FA000B8898C159D05AE05BF0540F08989811152
:102FB00074C0CE0101960E94620D6FC08989811193
:102FC00004C0CE0101960E94620D4D845E846F8420
:102FD0007888FE013196812C912C54018191919138
:102FE000A191B191BC01CD016419750986099709B8
:102FF0009B01AC010E94671E860E971EA81EB91E7B
:10300000E215F30559F7C501B4016F5F7F4F8F4F8C
:103010009F4F23E030E040E050E00E94991E2901DC
:103020003A0143E0441651046104710408F4BECF30
:103030005301420121E030E040E050E0D501C401FD
:10304000821B930BA40BB50B0297A105B105F0F001
:10305000820E931EA41EB51E5FEF851A950AA50A5F
:10306000B50AB694A79497948794D501C401B695F0
:10307000A79597958795BC01CD01640D751D861D9B
:10308000971DA50194010E94771ED8CF85E0881670
:103090009104A104B10470F489CF8D859E85AF851C
:1030A000B8890896A11DB11D8C159D05AE05BF05FB
:1030B00008F040C08091E2039091E3030E94FE1368
:1030C000E0910603F09107030280F381E02D86E092
:1030D00093E0099547E350E062ED70E00E94D4135D
:1030E00047E350E062ED70E08FE090E00E94D4137F
:1030F0008CEF92E00E941C0E86EF92E00E941C0E64
:1031000083ED93E00E942E0B2091E4033091E503C0
:103110008217930714F547E350E064E071E081EF14
:103120009FEF0E94D41365E070E083ED93E00E946E
:103130000A0EDECF0E94C1082A893B894C895D892D
:10314000261B370B480B590B1216130614061506CF
:103150000CF4E8CE0E945E0F82CE64EF71E080E056
:1031600090E00E94870884E090E00E940F13A090F6
:103170000C03B0900D03C0900A03D0900B03E090B5
:103180000803F09009038CEF92E00E941C0E082FB8
:1031900086EF92E00E941C0E282F30E0C901800FBC
:1031A000911D83359105BCF083ED93E00E942E0BB9
:1031B0002091E2033091E3032817390764F4A50155
:1031C000B601C7010E94D4136BEF7FEF83ED93E04C
:1031D0000E940A0ED8CF8091E2039091E3030E94EF
:1031E000FE1364EF71E080E090E00E948708B2CFA8
:1031F000AF92BF92CF92DF92EF92FF920F931F9305
:10320000CF93DF93109214021092130288EE93E092
:10321000A0E0B0E08093150290931602A0931702ED
:10322000B09318028CE291E0909312028093110205
:1032300085EC90E090931E0280931D0284EC90E058
:103240009093200280931F0280EC90E090932202E2
:103250008093210281EC90E09093240280932302DA
:1032600082EC90E0909326028093250246EC50E099
:10327000509328024093270210922A0210922B02A8
:1032800010922C0210922D021092B4021092B502EC
:103290001092B6021092B7021092B8021092B902C0
:1032A0001092BA021092BB021092BC021092BD02A0
:1032B0001092BE021092BF021092C0021092C10280
:1032C0001092C2021092C302C4E9D1E0D093090760
:1032D000C093080784EB90E090930B0780930A0754
:1032E00082E791E090930D0780930C078FE390E0C5
:1032F00090930F0780930E071092110710921007FA
:10330000D0931307C0931207109215071092140759
:103310008CE990E0909317078093160722E330E042
:10332000309319072093180710921B0710921A0761
:10333000D0931D07C0931C0781E090E090931F0776
:1033400080931E0761EA70E0709321076093200765
:103350009093230780932207109225071092240749
:10336000D0932707C0932607509329074093280737
:1033700043E251E050932B0740932A0730932D07E7
:1033800020932C0710922F0710922E07D09331070D
:10339000C093300740EE5FEF5093330740933207FE
:1033A0004DE251E05093350740933407909337072F
:1033B000809336071092390710923807D0933B0755
:1033C000C0933A0742E650E050933D0740933C07D4
:1033D00041E851E050933F0740933E073093410747
:1033E000209340071092430710924207D09345075D
:1033F000C093440710924707109246072FE830E029
:10340000309349072093480790934B0780934A07CE
:1034100010924D0710924C07D0934F07C0934E0760
:1034200084E190E0909351078093500785EA90E003
:10343000909353078093520784E090E09093550750
:10344000809354071092570710925607D09359074C
:10345000C093580784E690E090935B0780935A07E7
:1034600023E131E030935D0720935C072EE130E0EB
:1034700030935F0720935E071092610710926007F8
:10348000D0936307C09362079093650780936407A6
:103490002DE731E0309367072093660725E330E09E
:1034A000309369072093680710926B0710926A07A0
:1034B000D0936D07C0936C0790936F0780936E074E
:1034C00025E331E0309371072093700721E530E068
:1034D0003093730720937207109275071092740748
:1034E000D0937707C09376079093790780937807F6
:1034F0008EED90E090937B0780937A0787E590E0CC
:1035000090937D0780937C0710927F0710927E072F
:103510001092FD061092FC061092FF061092FE0615
:1035200010920107109200071092030710920207F1
:1035300084E891E09093FB068093FA064CE850E013
:1035400060E070E04093040750930507609306071E
:10355000709307071092EF061092EE061092F10694
:103560001092F0061092F3061092F2061092F506F1
:103570001092F4069093ED068093EC0681E990E0BA
:10358000A0E0B0E08093F6069093F706A093F806CB
:10359000B093F9061092E5061092E4061092E70641
:1035A0001092E6061092E9061092E8061092EB06D9
:1035B0001092EA0684E791E09093E3068093E20696
:1035C0005EECA52E56E0B52E1092D1061092D006D4
:1035D0001092D3061092D2061092D5061092D406FD
:1035E0001092D7061092D60684E691E09093CF060B
:1035F0008093CE061092D9061092D80688E790E004
:10360000A0E0B0E08093DA069093DB06A093DC069E
:10361000B093DD0680E290E0A0E0B0E08093DE06AB
:103620009093DF06A093E006B093E10682E194E078
:103630000E94850C62E1C62E64E0D62E8AEF96E0E9
:10364000909316048093150486E090E090932004F4
:1036500080931F048DEF93E00E94850C7DEFE72E91
:1036600073E0F72E8CEE96E09093010480930004B3
:1036700089E090E090930B0480930A0488EE93E035
:103680000E94850C08EE13E082EE96E09093EC0326
:103690008093EB0383E090E09093F6038093F5032F
:1036A00083ED93E00E94850C83ED93E0B092D70305
:1036B000A092D60325E030E03093E1032093E003AD
:1036C000109209031092080310920B0310920A0340
:1036D00010920D0310920C0310920F0310920E0320
:1036E00024E531E03093070320930603D0921103C1
:1036F000C0921003F0921303E0921203109315038B
:1037000000931403909317038093160320911504DC
:10371000309116043093190320931803209100046C
:103720003091010430931B0320931A032091EB0383
:103730003091EC0330931D0320931C03B0921F03C0
:10374000A0921E0320910E0730910F0740910C07A5
:1037500050910D0760910A0770910B07D0932103D8
:10376000C093200370932303609322035093250397
:1037700040932403309327032093260310922903B8
:1037800010922803209118073091190740911607CD
:10379000509117076091140770911507D0932B0370
:1037A000C0932A0370932D0360932C0350932F032F
:1037B00040932E0330933103209330031092330350
:1037C0001092320320912207309123074091200765
:1037D0005091210760911E0770911F07D093350308
:1037E000C0933403709337036093360350933903C7
:1037F0004093380330933B0320933A0310923D03E8
:1038000010923C0320915407309155074091520784
:10381000509153076091500770915107D0933F0327
:10382000C0933E037093410360934003509343035E
:10383000409342033093450320934403109247037F
:103840001092460320912C0730912D0740912A07B2
:1038500050912B076091280770912907D093490355
:10386000C093480370934B0360934A0350934D03F6
:1038700040934C0330934F0320934E031092510317
:10388000109250032091360730913707409134074A
:10389000509135076091320770913307D0935303ED
:1038A000C09352037093550360935403509357038E
:1038B00040935603309359032093580310925B03AF
:1038C00010925A03209140073091410740913E07E2
:1038D00050913F0760913C0770913D07D0935D0385
:1038E000C0935C0370935F0360935E035093610326
:1038F0004093600330936303209362031092650347
:103900001092640320914A0730914B074091480779
:10391000509149076091460770914707D09367031C
:10392000C0936603709369036093680350936B03BD
:1039300040936A0330936D0320936C0310926F03DE
:1039400010926E0320915E0730915F0740915C07F3
:1039500050915D0760915A0770915B07D093710396
:10396000C093700370937303609372035093750355
:103970004093740330937703209376031092790376
:10398000109278032091680730916907409166078B
:10399000509167076091640770916507D0937B032E
:1039A000C0937A0370937D0360937C0350937F03ED
:1039B00040937E033093810320938003109283030E
:1039C0001092820320917207309173074091700723
:1039D0005091710760916E0770916F07D0938503C6
:1039E000C093840370938703609386035093890385
:1039F0004093880330938B0320938A0310928D03A6
:103A000010928C0320917C0730917D0740917A07BA
:103A100050917B076091780770917907D0938F035D
:103A2000C0938E037093910360939003509393031C
:103A3000409392033093950320939403109297033D
:103A40001092960328E02093980321E12093990394
:103A5000D0929B03C0929A03F0929D03E0929C0344
:103A600010939F0300939E039093A1038093A00360
:103A70001092A3031092A2031092A5031092A40324
:103A80001092A7031092A6031092A9031092A80304
:103A9000EAEAF3E01182108213821282349683E004
:103AA000E23DF807B9F71092D20360E088E00E9487
:103AB000040861E088E00E94340860E081E10E942F
:103AC000340882E194E09093A3038093A2038DEFE6
:103AD00093E09093A5038093A40388EE93E09093E2
:103AE000A7038093A60383ED93E09093A9038093AB
:103AF000A803A0E0B1E030E012964D915C911397DD
:103B00006D917C9111972091D2032A3008F492C0D4
:103B10003F5F14963A3081F784E090E0909303037E
:103B20008093020387E090E0909305038093040361
:103B300061E084E00E94340860E084E00E940408B0
:103B400060E087E00E9434081092780410929E068C
:103B500010929F0684E68093C0061092C5068AE400
:103B600091E09093BF068093BE0680E58093CB06DC
:103B70001092CC06109253041092540410925204E6
:103B8000109251048EE391E09093500480934F047F
:103B900010922F041092300410922E0410922D04D3
:103BA00090932C0480932B0486E093E09093280458
:103BB0008093270482E093E090932A048093290461
:103BC00082E18093FC0282E0F82EF092FD0209E28D
:103BD00010E01093FF020093FE02C6EDD3E0D093F5
:103BE0000103C093000361E082E00E94340860E0BA
:103BF00082E10E94340883E18093F602F092F7029A
:103C00001093F9020093F802D093FB02C093FA02DA
:103C100061E082E00E94340860E083E1DF91CF91AF
:103C20001F910F91FF90EF90DF90CF90BF90AF90DA
:103C30000C943408E4E02E9FC00111248A5F9C4F4D
:103C4000FC01EC55FF4F71836083329651834083B2
:103C50002F5F2093D203CEEAD3E0BB24B394B216F5
:103C600008F056CF488159816A817B81088119818A
:103C7000AB2C8A2D90E08150904C880F991F880FB3
:103C8000991FFC01E655FC4F7F01C080D1800C15C7
:103C90001D057CF482559C4FF701C080D180E280E5
:103CA000F380FC01C082D182E282F382AA94A11047
:103CB000E0CFA80184E0A89EF0011124E655FC4F56
:103CC0004083518362837383B3942496C8CFDB010E
:103CD0008F939F930E94B81EBF91AF91A29F800DBA
:103CE000911DA39F900DB29F900D11240895A1E204
:103CF0001A2EAA1BBB1BFD010DC0AA1FBB1FEE1F66
:103D0000FF1FA217B307E407F50720F0A21BB30BB0
:103D1000E40BF50B661F771F881F991F1A9469F72C
:103D200060957095809590959B01AC01BD01CF0188
:103D30000895052E97FB1EF400940E94B01E57FDB7
:103D400007D00E94771E07FC03D04EF40C94B01EDF
:103D500050954095309521953F4F4F4F5F4F0895B7
:103D600090958095709561957F4F8F4F9F4F0895E7
:103D70000E94CB1EA59F900DB49F900DA49F800D17
:103D8000911D11240895B7FF0C94B81E0E94B81E0F
:103D9000821B930B0895A29FB001B39FC001A39F04
:103DA000700D811D1124911DB29F700D811D112474
:103DB000911D0895991B79E004C0991F961708F08A
:103DC000961B881F7A95C9F780950895AA1BBB1B7F
:103DD00051E107C0AA1FBB1FA617B70710F0A61B0B
:103DE000B70B881F991F5A95A9F780959095BC012C
:103DF000CD01089597FB072E16F4009407D077FDA8
:103E000009D00E94E61E07FC05D03EF490958195EE
:103E10009F4F0895709561957F4F0895EE0FFF1F96
:103E20000590F491E02D099481E090E0F8940C94D1
:103E3000221FFB01DC0102C001900D924150504055
:083E4000D8F70895F894FFCFB4
:103E48005A005300640044006E00370078003200C6
:103E5800820028008C001E0096001400A0001900A3
:103E6800AA001A00B4001A0000000000F50E1F1482
:103E78008D0E3C0FBE0E9C0EB00E00000000C90750
:103E8800C6077A056F0500000000C4099009550AA5
:103E9800000000003904350431042D0429042504E8
:103EA80000000000E20B19041B050D04C5042504DD
:103EB80000000000D70B0A040704040401042504C9
:103EC80000000000B70BF5039E04E9037504250400
:103ED800000000003904350431042D0429042504A8
:103EE800564D4450565F317C315F564D4450560D07
:103EF8000A004175746F4D6F76652E63707020638C
:103F08006F6D70696C6564204465632020392032C8
:103F18003031372061742031393A33353A31310A3A
:023F2800000097
:107E0000112484B714BE81FFF0D085E080938100F7
:107E100082E08093C00088E18093C10086E0809377
:107E2000C20080E18093C4008EE0C9D0259A86E02C
:107E300020E33CEF91E0309385002093840096BBD3
:107E4000B09BFECF1D9AA8958150A9F7CC24DD24C4
:107E500088248394B5E0AB2EA1E19A2EF3E0BF2EE7
:107E6000A2D0813461F49FD0082FAFD0023811F036
:107E7000013811F484E001C083E08DD089C08234E0
:107E800011F484E103C0853419F485E0A6D080C0E4
:107E9000853579F488D0E82EFF2485D0082F10E0AE
:107EA000102F00270E291F29000F111F8ED06801E7
:107EB0006FC0863521F484E090D080E0DECF843638
:107EC00009F040C070D06FD0082F6DD080E0C81688
:107ED00080E7D80618F4F601B7BEE895C0E0D1E017
:107EE00062D089930C17E1F7F0E0CF16F0E7DF06D8
:107EF00018F0F601B7BEE89568D007B600FCFDCFD4
:107F0000A601A0E0B1E02C9130E011968C91119780
:107F100090E0982F8827822B932B1296FA010C0160
:107F200087BEE89511244E5F5F4FF1E0A038BF0790
:107F300051F7F601A7BEE89507B600FCFDCF97BE46
:107F4000E89526C08437B1F42ED02DD0F82E2BD052
:107F50003CD0F601EF2C8F010F5F1F4F84911BD097
:107F6000EA94F801C1F70894C11CD11CFA94CF0C13
:107F7000D11C0EC0853739F428D08EE10CD085E9AC
:107F80000AD08FE07ACF813511F488E018D01DD067
:107F900080E101D065CF982F8091C00085FFFCCF94
:107FA0009093C60008958091C00087FFFCCF809118
:107FB000C00084FD01C0A8958091C6000895E0E648
:107FC000F0E098E1908380830895EDDF803219F02E
:107FD00088E0F5DFFFCF84E1DECF1F93182FE3DFCA
:107FE0001150E9F7F2DF1F91089580E0E8DFEE27F6
:047FF000FF270994CA
:027FFE00040479
:0400000300007E007B
:00000001FF