:100000000C946C010C9494010C9494010C94940144
:100010000C9494010C9494010C9494010C9494010C
:100020000C9494010C9494010C9494010C94EE1B88
:100030000C9494010C9494010C9494010C949401EC
:100040000C94090C0C9494010C94E40A0C94BE0AD0
:100050000C9494010C9494010C9494010C949401CC
:100060000C9494010C94940148656164657220704D
:1000700072696E74656420746F20534420636172EA
:10008000642E2E2E2049207468696E6B2E004175F7
:10009000746F4D6F7665203A2000626F6F6D312C62
:1000A000626F6F6D322C7475727265742C636C6143
:1000B000772C736F6E6172004F70656E2066696C8D
:1000C00065206661696C65643A20004175746F4D06
:1000D0006F7665203A20004368616E676520646929
:1000E000726563746F727920746F2022546F706F21
:1000F0004D61707322206661696C65642E004175E4
:10010000746F4D6F7665203A2000556E6971756584
:100110002073686F72742066696C65206E616D650E
:100120003A20004175746F4D6F7665203A20004388
:1001300072656174652022546F706F4D6170732217
:10014000206661696C65642E004372656174652088
:1001500022546F706F4D61707322207375636365F5
:10016000656465642E004175746F4D6F7665203A45
:100170002000534420696E6974207375636365734E
:10018000732E00534420696E6974206661696C6542
:10019000642E004175746F4D6F7665203A200053D0
:1001A00074617274696E6720535049205344206310
:1001B0006172642073747566662E004175746F4DAC
:1001C0006F7665203A200046696E69736865642021
:1001D000776967676C696E67206120736572766FF7
:1001E0002E004175746F4D6F7665203A200053657F
:1001F00072766F206661696C656420746F2061742B
:10020000746163682E00536572766F206174746147
:10021000636865642E004175746F4D6F7665203A92
:10022000200000000000240027002A000000000039
:10023000250028002B000000000800020100000338
:100240000407000000000000000000000000230080
:100250002600290004040404040404040202020227
:100260000202030303030303010204081020408079
:10027000010204081020010204081020577269745A
:100280006520737563636573732E005772697465B7
:10029000206572726F722E004175746F4D6F7665B6
:1002A000203A200044617461207261746520676F98
:1002B0006F642E0044617461207261746520746FF4
:1002C0006F20686967682E004175746F4D6F7665A1
:1002D000203A2000F121C32011241FBECFEFD8E027
:1002E000DEBFCDBF11E0A0E0B1E0E0EEF2E502C07C
:1002F00005900D92A63DB107D9F725E0A6EDB1E036
:1003000001C01D92AA3EB207E1F711E0CBE6D1E0B1
:1003100004C02197FE010E943527CA36D107C9F7CC
:100320000E94C4200C9463290C94000081E008957D
:10033000089580E090E00895FF920F931F93CF936C
:10034000DF938C01F62EEC01C55DDD4FCE010E94DE
:100350001018B801CE010E94F617882371F0FF2013
:1003600061F090914005907739F020E435E03093CA
:10037000D8012093D70101C080E0DF91CF911F9178
:100380000F91FF900895FF920F931F93CF93DF93E8
:10039000CDB7DEB7A0970FB6F894DEBF0FBECDBFC6
:1003A000FB01F42E19821A8220812F3239F4218127
:1003B000211104C0642F0E949C0125C08C01055DA1
:1003C0001D4F21E0AF01B801CE0101960E9419181E
:1003D0008823C9F099819077A9F090E2FE013196C7
:1003E000D80101900D929A95E1F7FF2061F090916C
:1003F0004005907741F020E435E03093D801209318
:10040000D70101C080E0A0960FB6F894DEBF0FBE02
:10041000CDBFDF91CF911F910F91FF90089504966A
:100420000C947F14CF93DF931F92CDB7DEB769830F
:1004300041E050E0BE016F5F7F4F04960E947F1441
:100440000F90DF91CF91089504960C94CB159B01EA
:10045000FC01658576852617370754F0FC01678512
:100460007089621773071CF4283C31050CF0B90140
:100470000C944F1B2F923F924F925F926F927F92FC
:100480008F929F92AF92BF92CF92DF92EF92FF92A4
:100490000F931F93CF93DF93CDB7DEB7CE5ED10915
:1004A0000FB6F894DEBF0FBECDBF8DB79EB7C35158
:1004B000DF4F99838883CD5ED0401092ED02109279
:1004C000EE021092EF021092F0021092AB02109224
:1004D000AC021092AD021092AE020E94FD0B6B01B5
:1004E0007C014B015C0198EB890E9BE0991EA11CDD
:1004F000B11C0E94FD0B6C157D058E059F0528F033
:1005000086169706A806B906A0F78CE092E09093AD
:10051000EC028093EB020E94151D0E94FD0B60937C
:10052000AB027093AC028093AD029093AE026EE288
:1005300071E08091EB029091EC020E94D00F0E943A
:10054000FD0B6B017C014B015C01AAE08A0E911C42
:10055000A11CB11C0E94FD0B6C157D058E059F052D
:1005600028F086169706A806B906A0F781E08093C2
:10057000BF020E94151D80E491E00E9438208CE0AB
:1005800092E00E9434208E010F551F4F22242394A5
:10059000312C8091E505811174C2C8010E948D1E25
:1005A000F80161897289C8010E942702D8011B964F
:1005B000BC91C851DF4FB883C85ED04020E030E026
:1005C00040E85FE3F801658976898789908D0E940C
:1005D000A125D80155962D913D914D915C9158974B
:1005E0000E94B52618160CF06EC0FE0131966F0100
:1005F0005F01D80153968C918E3008F08E50877031
:10060000806480937C0080917A00806480937A007B
:1006100080917A0086FDFCCF60917800809179000E
:1006200070E0782B072E000C880B990B0E94D923C1
:10063000F50161937193819391935F01E017F10745
:10064000C1F6CE0101960E94C51ECE0101965C0145
:1006500060E070E0CB01D5012D913D914D915D9110
:100660005D010E94A125A016B106A9F720E030E0A7
:1006700040E252E40E940D262B013C01812C912C7A
:100680005401F60161917191819191916F01A301E2
:1006900092010E94A0259B01AC010E9438249B017D
:1006A000AC01C501B4010E94A1254B015C01C0163B
:1006B000D10639F720E030E04CE152E40E940D26EB
:1006C0000E94C02686CFADB7BEB7C751DF4FB983F2
:1006D000A883C95ED040EDB7FEB7E05AF1090FB666
:1006E000F894FEBF0FBEEDBF8DB79EB701966C01AB
:1006F000A054B1400FB6F894BEBF0FBEADBFEF59C6
:10070000F109C052DF4FF983E883C05ED040815FBA
:1007100091090FB6F8949EBF0FBE8DBFAF54B109BB
:10072000CE51DF4FB983A883C25ED040FE0131961F
:100730005601D60141915191619171914D935D9313
:100740006D937D93E017F107A9F7C6010E94C51EBE
:10075000F60180819181A281B381C052DF4FE8818F
:10076000F981C05ED04080839183A283B383CE5150
:10077000DF4FA881B981C25ED0402D923C92F60134
:10078000E456FF4FC551DF4FF983E883CB5ED0407D
:10079000E12CF12C812C912CC12CD12CF5018481E0
:1007A0009581A681B781CC51DF4F88839983AA8335
:1007B000BB83C45ED0402081318142815381B4E04B
:1007C000AB0EB11CCC51DF4F688179818A819B814E
:1007D000C45ED0400E94A0252B013C0120E030E007
:1007E000A9010E94D22387FF04C077FA709477F89A
:1007F000709420E030E040E85FE3C301B2010E9462
:10080000D22387FF16C0F601EE0FFF1FCE51DF4F38
:1008100088819981C25ED040E80FF91F8081918163
:100820000196918380838816990664F576014C01C0
:1008300029C09FEFC91AD90AF601EE0FFF1FEE0F6C
:10084000FF1FC052DF4FA881B981C05ED040EA0FC0
:10085000FB1FCC51DF4F88819981AA81BB81C45E87
:10086000D04080839183A283B383F601EE0FFF1FF4
:10087000CE51DF4FA881B981C25ED040EA0FFB1F85
:1008800031822082C551DF4FE881F981CB5ED040B3
:10089000AE16BF0609F082CFF2E08F16910494F0F5
:1008A000F701EE0FFF1FEE0FFF1FC052DF4F8881D1
:1008B0009981C05ED040E80FF91F80809180A280AE
:1008C000B38003C0812C912C5401C751DF4FA88104
:1008D000B981C95ED0400FB6F894BEBF0FBEADBFA0
:1008E00020E030E040E251E4C501B4010E94D2238F
:1008F00087FD0FC020E030E040E054E4C501B401C2
:100900000E94B52618162CF0C501B4010E947F265E
:1009100002C060E070E0072E000C880B990B0E946B
:10092000D923F80123813481458156810E943824DE
:10093000D80117962D913D914D915C911A970E9487
:10094000A1250E947F26F801458556856417750705
:1009500044F047855089461757071CF0C8010E948C
:100960002702D8018C918C3008F05EC061E0C8513C
:10097000DF4F8881C85ED0400E94620BF801808101
:10098000E82FF0E09F01220F331FE20FF31FEA511F
:10099000FE4FC851DF4F9881C85ED0409F732081C1
:1009A000207CF22EF92AF082D80111961C92119720
:1009B00012961C926CE00E941527BCE08B9FB00140
:1009C000112440E050E09A01260F371FF901EE0F85
:1009D000FF1F2E0F3F1FF901EA51FE4F908196FD38
:1009E00016C04F5F5F4F4C30510569F781110FC042
:1009F00010928000E2E0E093810010928500109256
:100A00008400B19A80916F00826080936F00D8015A
:100A1000EC91F0E0CF01880F991FE80FF91FEA5120
:100A2000FE4F80818064808366E172E08CE092E01A
:100A30000E944920F801808190E0FC01EE0FFF1F29
:100A40008E0F9F1FFC01EA51FE4F808186FF03C07D
:100A500086E092E002C08EEE91E00E946D2062E09E
:100A600070E080E090E00E94C30B8091E4058F5F0E
:100A70008093E4051092E505CE0101960E948D1E3B
:100A800088CD1092E5051092E4058091E50581116D
:100A900033C0CE0101960E948D1E6E857F85CE01EA
:100AA00001960E94AF1C68897989CE0101960E9447
:100AB000AF1C6A897B89CE0101960E94AF1C62EE51
:100AC00071E08CE092E00E94492087EC91E00E9466
:100AD0006D2062E070E080E090E00E94C30B8091A6
:100AE000E4058F5F8093E4051092E505CE018F55F4
:100AF0009F4F0E948D1EC9CF6BEB71E08CE092E09E
:100B00000E9449208FE991E00E946D2062E070E030
:100B100080E090E00E94C30B63E971E08CE092E01A
:100B20000E94492010926C05109265051092620592
:100B3000109267058DE695E09093640580936305B8
:100B40000E94FD0B8B01E0906305F09064058AE044
:100B5000D70112968C9361E00E94620B61E0F7016D
:100B600082810E94160BFFB6F8948091D601811104
:100B700027C0EEE5F2E08491E2E7F2E09491E82FFD
:100B8000F0E0EE0FFF1FEE5DFD4FA591B491EC91EB
:100B9000E92321F461E08AE00E94160B61E08AE01B
:100BA0000E94620B8CB580618CBD8CB580648CBD5D
:100BB00061E08DE00E94620B61E08BE00E94620BBD
:100BC0008091D6018F5F8093D601FFBEE0916305CF
:100BD000F091640582E58083118280E695E00E94B1
:100BE000FD0DE0916305F091640561E082810E9452
:100BF000160B4AE0F42E8FEF0E94530CFA94F1107A
:100C0000FACFE0916305F091640560E082810E9473
:100C1000160B20E030E0A90160E080E695E00E943C
:100C2000160E813049F00E94FD0B601B710B613D77
:100C3000774078F380E25AC02AEA31E040E050E0A1
:100C400068E080E695E00E94160E853011F481E0A0
:100C50000CC034E0F32E0E94580C80936605FA9481
:100C6000F110F9CF8A3A59F482E0809367058091B8
:100C70006705823069F0C12CD12C76010EC00E942C
:100C8000FD0B601B710B613D7740B0F285E22EC019
:100C9000C12CD12CE12C20E4F22E20E030E0A9017F
:100CA00067E380E695E00E94160EA701960169E2CF
:100CB00080E695E00E94160E882349F00E94FD0B05
:100CC000601B710B613D774040F383E40FC080915E
:100CD0006705823001F520E030E0A9016AE380E693
:100CE00095E00E94160E882341F087E38093620509
:100CF00080E695E00E945F0C45C00E94580C807C05
:100D0000803C19F483E0809367050E94580C0E9490
:100D1000580C0E94580C80E695E00E945F0CE09110
:100D20006305F091640580E5808381E0818380E63E
:100D300095E0909316038093150380E495E00E945C
:100D4000101881E00E94531D882349F065E173E08B
:100D500080E495E00E94F6178823A1F006C080E0A9
:100D60000E94531D8111F2CF0DC080914005807704
:100D700049F080E495E09093D8018093D70182E711
:100D800091E002C083E891E00E946D2062E070E093
:100D900080E090E00E94C30B19821A8221E04CECA3
:100DA00051E060E475E0CE0101960E9419188111AE
:100DB0007FC066E671E08CE092E00E944920CF554A
:100DC000DF4F1882C15AD040CE55DF4F1882C25A29
:100DD000D0408CEC91E0C252DF4F99838883CE5D86
:100DE000D04019821A8280914005807709F456C05C
:100DF00000E415E090E2F92EAE0142525F4FBE01D1
:100E00006F537F4FC252DF4F88819981CE5DD040B2
:100E10000E946113882309F441C0C252DF4FE88168
:100E2000F981CE5DD0408081882351F121E0AE016F
:100E30004F535F4FB801CE018F559F4F0E94E50F72
:100E400081110BC0AE014F535F4FB801CE018F55DA
:100E50009F4F0E94EF19882309F1FE01EF55FF4FC4
:100E6000DE0111968F2D01900D928A95E1F7CE014A
:100E70008F559F4F0E9410188E010F5F1F4FBCCFE0
:100E8000AE014F535F4FB801CE018F559F4F0E9467
:100E9000EF19882319F089E491E002C08FE291E014
:100EA0000E946D2062E070E080E090E00E94C30B41
:100EB0000E94FD0BC852DF4F19821882C85DD040D6
:100EC000C652DF4F19821882CA5DD040C452DF4F2C
:100ED00019821882CC5DD0402AE0AE014F5F5F4F8F
:100EE0000E94A023BE016F5F7F4FCE0188529F4FAB
:100EF0000E94CA1FCE52DF4F19821882C25DD040B5
:100F0000CC52DF4F19821882C45DD040CA52DF4FE5
:100F100019821882C65DD0404CE050E06AEB71E067
:100F2000CE018E529F4F0E949F1F61E085E193E0AA
:100F30000E949C0141E06CEC71E085E193E00E942D
:100F4000C3018EE2F82EC452DF4F68817981CC5DF7
:100F5000D040CA52DF4F88819981C65DD0406B0175
:100F6000C81AD90A0E94FD0BCF53DF4F198218828D
:100F7000C15CD040CD53DF4F19821882C35CD04092
:100F8000CB53DF4F19821882C55CD0402AE0AE01F6
:100F90004F5F5F4F0E94A023BE016F5F7F4FCE0166
:100FA0008F539F4F0E94CA1FCB53DF4F0881198177
:100FB000C55CD0400C151D0528F49C2D8D2D6801B5
:100FC000092F182F1A8219821C821B821E821D82F1
:100FD00040E050E06FE371E0CE0101960E949F1F58
:100FE000CB53DF4F88819981C55CD040C816D906A4
:100FF00018F58017910708F48C01CF53DF4FE88173
:10100000F981C15CD040E00FF11FE0801082CF5326
:10101000DF4F68817981C15CD0406C0D7D1DCE01B0
:1010200001960E94CA1FCF53DF4FE881F981C15C4E
:10103000D040E00FF11FE082CE52DF4F88819981CE
:10104000C25DD0400097E9F069817A816115710530
:10105000B1F0CC52DF4F48815981C45DD0402D8121
:101060003E814217530758F00E944D298D819E8181
:10107000CA52DF4F99838883C65DD0401EC00E944C
:10108000D02789819A81CE52DF4F99838883C25DB0
:10109000D0408B819C81CC52DF4F99838883C45D83
:1010A000D0408D819E81CA52DF4F99838883C65D6F
:1010B000D0401A8219821C821B821E821D82898165
:1010C0009A810E94D027CF53DF4F88819981C15CDC
:1010D000D0400E94D027F9821A82CA52DF4F08817D
:1010E0001981C65DD0400F5F1F4FB801CE018E52EF
:1010F0009F4F0E94781F8823C9F0CE52DF4F28816E
:101100003981C25DD040CA52DF4F88819981C65D66
:10111000D040BE016F5F7F4F820F931F0E944D2909
:10112000CA52DF4F19830883C65DD040CA52DF4FD1
:1011300008811981C65DD0400D5F1F4FB801CE01F7
:101140008E529F4F0E94781F8823C1F0CE52DF4FEE
:1011500028813981C25DD040CA52DF4F8881998190
:10116000C65DD04067EC71E0820F931F0E944D294D
:10117000CA52DF4F19830883C65DD040CA52DF4F81
:1011800008811981C65DD0400115110531F4CF5594
:10119000DF4F1882C15AD04018C00C30110510F032
:1011A0000CE010E0CE52DF4F68817981C25DD04003
:1011B000A801CE018F559F4F0E945429E1EAF0E02B
:1011C000EC0FFD1FE00FF11F108219821A8221E03F
:1011D000AE014F555F4F60E475E0CE0101960E946D
:1011E00019188111B0CE61E085E193E00E949C0165
:1011F000CE52DF4F88819981C25DD0400E94D027B6
:10120000C852DF4F88819981C85DD0400E94D027A5
:1012100063E271E08CE092E00E9449206AE071E0B4
:101220008CE092E00E944920CE018F559F4F0E9492
:10123000382062E070E080E090E00E94C30B40E064
:101240006BEC71E085E193E00E94C301811110C055
:101250006EEF70E08CE092E00E94492087ED90E014
:101260000E946D2062E070E080E090E00E94C30B7D
:101270006091D7017091D80120E4AE014F555F4FC6
:1012800085EF92E00E941918811117C06BEC70E095
:101290008CE092E00E94492068EB70E08CE092E0E4
:1012A0000E944920CE018F559F4F0E94382062E056
:1012B00070E080E090E00E94C30B6AE970E081EF8B
:1012C00092E00E94492081EF92E00E9434206EE873
:1012D00070E08CE092E00E94492088E690E00E9455
:1012E0006D2062E070E080E090E00E94C30B0E94FD
:1012F0009E0B20E231EA47E050E00E9406252F5F76
:101300003F4F4F4F5F4F60E271EA87E090E00E94ED
:10131000F6246093D9017093DA018093DB019093F6
:10132000DC01C351DF4FA881B981CD5ED0400FB63B
:10133000F894BEBF0FBEADBFC251DF4F0FB6F894D9
:10134000DEBF0FBECDBFDF91CF911F910F91FF90F8
:10135000EF90DF90CF90BF90AF909F908F907F9055
:101360006F905F904F903F902F900895CF92DF92B3
:10137000EF92FF920F931F93CF93DF936C017A014B
:101380008B01C0E0D0E0CE15DF0589F0D8016D916A
:101390008D01D601ED91FC910190F081E02DC60107
:1013A0000995892B11F47E0102C02196ECCFC7016B
:1013B000DF91CF911F910F91FF90EF90DF90CF9031
:1013C0000895FC01538D448D252F30E0842F90E04B
:1013D000821B930B541710F0CF9608950197089530
:1013E000FC01918D828D981761F0828DDF01A80F2D
:1013F000B11D5D968C91928D9F5F9F73928F90E04F
:1014000008958FEF9FEF0895FC01918D828D9817BD
:1014100031F0828DE80FF11D858D90E008958FEFFA
:101420009FEF0895FC01918D228D892F90E0805CC3
:101430009F4F821B91098F73992708958CE092E04A
:101440000E94120A21E0892B09F420E0822F0895DE
:10145000FC01848DDF01A80FB11DA35ABF4F2C9151
:10146000848D90E001968F739927848FA689B78920
:101470002C93A089B1898C9180648C93938D848DF9
:10148000981306C00288F389E02D80818F7D8083C8
:101490000895EF92FF920F931F93CF93DF93EC0188
:1014A00081E0888F9B8D8C8D981305C0E889F98920
:1014B000808185FD24C0F62E0B8D10E00F5F1F4F3D
:1014C0000F731127E02E8C8DE8120CC00FB607FCAD
:1014D000FACFE889F989808185FFF5CFCE010E9496
:1014E000280AF1CF8B8DFE01E80FF11DE35AFF4F63
:1014F000F0820B8FEA89FB898081806207C0EE89C8
:10150000FF896083E889F98980818064808381E034
:1015100090E0DF91CF911F910F91FF90EF90089590
:10152000CF93DF93EC01888D8823C9F0EA89FB898A
:10153000808185FD05C0A889B9898C9186FD0FC081
:101540000FB607FCF5CF808185FFF2CFA889B98956
:101550008C9185FFEDCFCE010E94280AE7CFDF9165
:10156000CF91089580E090E0892B29F00E941E0A17
:1015700081110C94000008950E9432291F920F924D
:101580000FB60F9211242F933F934F935F936F9356
:101590007F938F939F93AF93BF93EF93FF938CE0D1
:1015A00092E00E94280AFF91EF91BF91AF919F9125
:1015B0008F917F916F915F914F913F912F910F90FC
:1015C0000FBE0F901F9018951F920F920FB60F929B
:1015D00011242F938F939F93EF93FF93E0911C021D
:1015E000F0911D028081E0912202F091230282FDA0
:1015F00012C09081809125028F5F8F732091260207
:10160000821751F0E0912502F0E0E45FFD4F958FE5
:101610008093250201C08081FF91EF919F918F916E
:101620002F910F900FBE0F901F90189590E0FC0126
:10163000EA5CFD4F3491FC01E859FD4F2491FC0117
:10164000EC5AFD4FE491EE2309F43BC0332339F10A
:10165000333091F038F43130A9F0323001F584B5EF
:101660008F7D12C0373091F03830A1F03430B9F4AA
:10167000809180008F7D03C0809180008F77809360
:1016800080000DC084B58F7784BD09C08091B00003
:101690008F7703C08091B0008F7D8093B000F0E021
:1016A000EE0FFF1FE45DFD4FA591B4918FB7F89445
:1016B000EC91611103C020952E2301C02E2B2C9399
:1016C0008FBF0895CF93DF9390E0FC01E859FD4F61
:1016D0002491FC01EC5AFD4F8491882361F190E044
:1016E000880F991FFC01EE5DFD4FC591D491FC015F
:1016F000E45DFD4FA591B491611109C09FB7F894C5
:101700008881209582238883EC912E230BC0623040
:1017100061F49FB7F8943881822F80958323888362
:10172000EC912E2B2C939FBF06C08FB7F894E881C5
:101730002E2B28838FBFDF91CF9108953FB7F89468
:101740008091E2019091E301A091E401B091E50163
:1017500026B5A89B05C02F3F19F00196A11DB11D0C
:101760003FBFBA2FA92F982F8827820F911DA11D47
:10177000B11DBC01CD0142E0660F771F881F991F84
:101780004A95D1F708958F929F92AF92BF92CF92D0
:10179000DF92EF92FF926B017C010E949E0B4B0146
:1017A0005C01C114D104E104F104F1F00E949E0B2C
:1017B000DC01CB0188199909AA09BB09883E93402D
:1017C000A105B10570F321E0C21AD108E108F108C2
:1017D00088EE880E83E0981EA11CB11CC114D104B0
:1017E000E104F10419F7DDCFFF90EF90DF90CF9087
:1017F000BF90AF909F908F9008952FB7F89460910D
:10180000DE017091DF018091E0019091E1012FBF35
:1018100008951F920F920FB60F9211242F933F93AA
:101820008F939F93AF93BF938091DE019091DF01DF
:10183000A091E001B091E1013091DD0123E0230F9F
:101840002D3720F40196A11DB11D05C026E8230FF8
:101850000296A11DB11D2093DD018093DE019093BE
:10186000DF01A093E001B093E1018091E20190914A
:10187000E301A091E401B091E5010196A11DB11D24
:101880008093E2019093E301A093E401B093E5011A
:10189000BF91AF919F918F913F912F910F900FBE6C
:1018A0000F901F9018958EBD0DB407FEFDCF0895C3
:1018B0008FEF8EBD0DB407FEFDCF8EB50895CF938B
:1018C000DF93FC012581222361F0EC010380F48188
:1018D000E02D61E082810E94160B8FEF0E94530C75
:1018E0001D82DF91CF9108951F93CF93DF93EC0179
:1018F0008C858130A9F41C8620E030E0A9016CE0E1
:10190000CE010E94160E882339F088E28A83CE0128
:101910000E945F0C10E017C0CE010E945F0C12C045
:10192000823081F41C860E943D1D182F882321F0EF
:101930008DEF0E94530C02C086E58A83CE010E947F
:101940005F0C01C011E0812FDF91CF911F910895AD
:10195000CF92DF92EF92FF920F931F93CF93DF937B
:10196000EC016A017B0189018C85813049F488850D
:101970009985AA85BB85481759076A077B0741F1F6
:10198000E881F9810280F381E02DCE010995882359
:10199000B9F08F81A7019601833039F089E0220FD9
:1019A000331F441F551F8A95D1F762E1CE010E9473
:1019B000160E882339F081E38A83CE010E945F0CE2
:1019C00080E018C0C886D986EA86FB8681E08C87CD
:1019D000B801CE010E94341F882391F348855985B0
:1019E0006A857B854F5F5F4F6F4F7F4F4887598771
:1019F0006A877B87DF91CF911F910F91FF90EF90C6
:101A0000DF90CF9008950F931F93CF93DF938C01B6
:101A1000862FEA010E94530C88818EBD8981FE01C8
:101A20003296DE5F0DB407FEFDCF8EBDEC17FD07CD
:101A300011F08191F7CF0DB407FEFDCF8FEF0E941B
:101A4000530C8FEF0E94530C0E94580CF8018683B0
:101A5000982F9F71953039F087E58283C8010E94E5
:101A60005F0C80E001C081E0DF91CF911F910F9169
:101A70000895CF92DF92EF92FF920F931F93CF932F
:101A8000DF93EC016A017B0189018C85823049F486
:101A900088859985AA85BB8584179507A607B7070A
:101AA00019F1E881F9810280F381E02DCE010995D9
:101AB0008823C9F18F81A7019601833039F089E02D
:101AC000220F331F441F551F8A95D1F769E1CE01BC
:101AD0000E94160E882311F083E30BC0C886D986B6
:101AE000EA86FB8682E08C870E943D1D811103C03F
:101AF0008AE58A8307C0A8016CEFCE010E94030D1E
:101B0000811105C0CE010E945F0C80E00CC04885A9
:101B100059856A857B854F5F5F4F6F4F7F4F488741
:101B200059876A877B87DF91CF911F910F91FF9033
:101B3000EF90DF90CF9008950F931F93CF93DF9393
:101B4000EC0189018F81833039F089E0440F551F02
:101B5000661F771F8A95D1F79A01AB0168E1CE0124
:101B60000E94160E882319F082E38A830CC0A80114
:101B70006EEFCE010E94030D182F882321F0CE01B5
:101B80000E945F0C04C0CE010E945F0C10E0812F08
:101B9000DF91CF911F910F9108950F931F93CF93D2
:101BA000DF93EC0189018F81833039F089E0440FA4
:101BB000551F661F771F8A95D1F79A01AB0161E126
:101BC000CE010E94160E882319F080E38A830BC091
:101BD000B801CE010E94341F182F882321F0CE01B6
:101BE0000E945F0C04C0CE010E945F0C10E0812FA8
:101BF000DF91CF911F910F910895CF93DF93FC0157
:101C00002581211110C0EC010380F481E02D908129
:101C100081819CBD8DBDEB81FC8160E082810E9451
:101C2000160B81E08D83DF91CF910895EF92FF92A3
:101C30001F93CF93DF9300D000D0CDB7DEB77C01E8
:101C4000162F29833A834B835C83FC0185818111A4
:101C500003C0C7010E94FD0D0E943D1D812F8064BD
:101C60000E94530C8C810E94530C8B810E94530C58
:101C70008A810E94530C89810E94530C112311F018
:101C800087E801C085E90E94530C1C3011F40E94C2
:101C9000580C10E00E94580CF701868387FF04C09F
:101CA0001F3F11F01F5FF6CF0F900F900F900F9016
:101CB000DF91CF911F91FF90EF9008958F929F92A7
:101CC000AF92BF92EF92FF921F93CF93DF93DC010D
:101CD0002C9120FF41C0EC017C01B7E0EB0EF11C20
:101CE000E981FA8180819181DC01ED91FC914B8148
:101CF0005C816D817E810480F581E02D97010995DD
:101D0000182F811102C010E028C0888181FD04C015
:101D100088818E7F888321C0A981BA818D919C9111
:101D20001197FC01208131811C968D909D90AD9082
:101D3000BC901F974B815C816D817E81480D591D40
:101D40006A1D7B1DD9011496ED91FC9115979701A1
:101D500009958111DDCFD7CF11E0812FDF91CF9190
:101D60001F91FF90EF90BF90AF909F908F9008953C
:101D7000CF92DF92EF92FF921F93CF93DF93EC010C
:101D80006A017B01122F8B819C81AD81BE818417FA
:101D90009507A607B70719F1CE010E945E0E8111C3
:101DA00003C080E090E021C012FF06C01882CB8201
:101DB000DC82ED82FE8213C0E981FA81808191810B
:101DC000DC01ED91FC910190F081E02D9E01295FF5
:101DD0003F4FB701A60109958111E8CFE2CF1370FB
:101DE0008881182B1883CE010796DF91CF911F9120
:101DF000FF90EF90DF90CF9008958F929F92AF92D7
:101E0000BF92CF92DF92EF92FF920F931F936A01DE
:101E10007B0148015901FC012581203251F544899B
:101E200055896689778997018601E7E03695279578
:101E300017950795EA95D1F7400F511F621F731F41
:101E400023E084960E94B80E009711F480E02DC024
:101E5000E894C7F8DD24EE24FF24CC0CDD1CCC0C68
:101E6000DD1CFC01EC0DFD1D80829182A282B382FB
:101E70001BC0203159F7FC0144895589668977894F
:101E80004D0D511D611D711D23E084960E94B80EF9
:101E90000097E1F2DD24EE24FF24CC0CDD1CFC01D4
:101EA000EC0DFD1D9182808281E01F910F91FF90CA
:101EB000EF90DF90CF90BF90AF909F908F9008955C
:101EC000CF92DF92EF92FF920F931F93CF93DF9306
:101ED000EC016A017B0189018D81803251F58C8989
:101EE0009D89AE89BF89E7E07695679557954795B7
:101EF000EA95D1F7480F591F6A1F7B1F22E0CE01D8
:101F000084960E94B80E009711F48FEF40C0E894B9
:101F1000C7F8DD24EE24FF24CC0CDD1CCC0CDD1C2A
:101F2000FC01EC0DFD1D80819181A281B381BF7008
:101F30001DC0803151F74C895D896E897F894D0DB7
:101F4000511D611D711D22E0CE0184960E94B80EC4
:101F50000097D9F2DD24EE24FF24CC0CDD1CFC011B
:101F6000EC0DFD1D80819181A0E0B0E0488D598D80
:101F70006A8D7B8D481759076A077B0738F0F8018F
:101F800080839183A283B38381E001C080E0DF91ED
:101F9000CF911F910F91FF90EF90DF90CF90089518
:101FA0006115710579F0FB0101900020E9F7319787
:101FB000AF01461B570BDC01ED91FC910280F381D0
:101FC000E02D099480E090E008952F923F924F9287
:101FD0005F926F927F928F929F92AF92BF92CF92B9
:101FE000DF92EF92FF920F931F93CF93DF93CDB7C2
:101FF000DEB72D970FB6F894DEBF0FBECDBF6C01D4
:102000007B01FA0181809280DB018C91807709F459
:1020100044C0D6018C91811140C08081837009F445
:1020200022C3C4010C966DE070E00E942127552464
:102030005394560E2D835F0140E050E0BA01C70172
:102040000E942B161C861D861E82412C612C712C31
:102050001B861501B6E02B0E311CF7018089918992
:10206000A289B3899C01AD0195E0569547953795B6
:1020700027959A95D1F72F83388749875A870F81FB
:10208000188561E0C7010E94EF16009741F4D7015F
:1020900011968C91882309F4A8C080E0F9C2FC0154
:1020A0002081253E11F021110CC0611004C03F8138
:1020B0003C8738853D87651408F46394211105C079
:1020C00094C0651408F4D2C202C0253EF1F12E324C
:1020D000E1F1DC011B963C911B973F3009F057C0A2
:1020E000711009C026FFB9CF2F71722E1D962C9149
:1020F0002E83472C09C04A94241127C0DC011D9669
:102100002C913E81321321C0442D50E041505109A1
:102110006DE0649F9001659F300D112428153905ED
:10212000A0F4FC0170E0753018F48181928107C041
:102130007B3018F48481958102C0868197812815AF
:10214000390529F4892B09F488CF712C86CF8F3F6C
:10215000910509F0D0F74FEB480F4A3110F0682F86
:1021600002C060E2680FA9014F5F5F4FD50113966F
:102170008D919C911497DC01A20FB31F8C919FEB62
:10218000980F9A3108F4805E6813DFCF71C233FD77
:10219000DCCF7720B9F0B1E04B127FCFFC01AC016E
:1021A000455F5F4F90E060E8969F900111249695FF
:1021B000922B2191920FE417F507A9F72E81921324
:1021C0006CCF0FC04BE050E0B1010E943729892B42
:1021D00009F043CFD5018C9180FF03C021E02B870C
:1021E0003CCFBD81B7FF6FC158CF8D8182748234DF
:1021F00009F053CF662051F00C851D8507C060E0C3
:10220000C7010E94EF16892B21F063946514B8F37F
:1022100015C0F7018181882389F03FCFC7010E9453
:102220006719882309F439CFD7011696ED91FC91EF
:1022300017978281823020F430E1630E651470F3C9
:102240002B85222309F473C0D50115964C9082E0AA
:10225000682E712C1501B6E02B0E311C43C0F3E043
:10226000F41510F4A3E04A2E34E0340D282F2F701B
:10227000432F50E02A3008F053C0205DF501E40FF1
:10228000F51F2683F4E096958795FA95E1F731508E
:10229000431660F3F501E40DF11D2EE7268340E0BF
:1022A00050E0BA01C7010E942B1661E0C7010E94ED
:1022B000EF160097B9F1FC0120812223C1F123859B
:1022C00023FDF3CF4BE050E0BC01C1010E94372950
:1022D000892B59F7BFEF6B1A7B0AE4E66E1671047F
:1022E00009F4DBCEF50141815281C301840F951FB2
:1022F0000380F481E02D4E0F5F1FE417F50709F40A
:10230000AECF9C01B5E0220F331FBA95E1F7820FE3
:10231000931F2191022E000C330B82279327EDCFC0
:10232000295CACCFD70111968C918111B6CEA80152
:1023300060E070E0E5E0440F551F661F771FEA95E7
:10234000D1F7C7010E942B16882309F4A6CE772463
:102350007A94750C172D5FE0652E1501F6E02F0EAF
:10236000311C250121E1420E511C0DE0112309F41D
:1023700063C060E0C7010E94EF16FC01892B09F4DD
:102380008CCED70116962D913C911797D901949632
:102390008C919497816094968C93612F171101C052
:1023A0006064608363861486D10120E030E8239F57
:1023B000C00111242695282B9D91290FA415B50540
:1023C000A9F72587138E128ED50113964D915C9136
:1023D00014976F7170E061507109069F9001079F1B
:1023E000300D112460E02815390540F4DA01A20F00
:1023F000B31F8C91082E000C990B0AC081E090E06D
:102400002815390511F480E090E0919581959109A6
:10241000653018F49283818307C06B3018F495837C
:10242000848302C0978386836F5F2F5F3F4F32960E
:102430006D30C9F611509ACFF701008911892289B0
:10244000338945E036952795179507954A95D1F735
:1024500060E0C7010E94EF16009709F41ECE20E24B
:10246000DC011D922A95E9F7F50136962BE0DC0197
:1024700001900D922A95E1F7F50120812871DC0188
:102480001C962C931C9721E238E251963C932E9394
:10249000509740E058E01F965C934E931E975396DA
:1024A0003C932E93529759963C932E935897579658
:1024B0005C934E935697D7011696ED91FC91179722
:1024C00084A1816084A380E2F60111928A95E9F7E4
:1024D000D7011696AD90BC901797F601B782A682E9
:1024E000158304835C968D919D910D90BC91A02DD8
:1024F00080879187A287B3870F701127F501BB965C
:1025000095E0000F111F9A95E1F7E00FF11F838509
:1025100083FF03C0D6011C92C0CDD501A00FB11F0F
:10252000D6968C918771D6018C939385987111F40E
:1025300088608C93F60173828D81827319F080819B
:10254000817141F78D818F70D60112968C93F501C0
:1025500087A190A5A1A5B2A5F601848B958BA68B2A
:10256000B78B0A0D1B1DF801FF9640805180612C2E
:10257000712CD20199278827369640805180612C92
:10258000712C482A592A6A2A7B2AFD81F4FF48C007
:10259000411451046104710409F471C09E012F5F5C
:1025A0003F4FB301A201C5010E94600FF82E87FDC5
:1025B000B1CF00E010E09801B301A201C5010E9473
:1025C000FD0E882309F4A6CFD50190964D915D911B
:1025D0006D917C91939777FD09C04F5F5F4F6F4F6F
:1025E0007F4FF50140A351A362A373A3D5011896B1
:1025F0004D915D916D917C911B9744165506660631
:10260000770628F4F50140865186628673864980F4
:102610005A806B807C80F110C1CF811130C07ACF9D
:10262000D6015C964D925D926D927C925F97F80117
:10263000E95BFF4F80819181A281B381F601808F98
:10264000918FA28FB38FFD81F5FF21C0D6015896DF
:102650004D915D916D917C915B97C6010E942B1607
:10266000811115C057CF55245394E4CC612C2FCD44
:102670007F5F32967D3009F4F0CC9A0154CDD601BB
:1026800012968C911297806812968C93DCCF81E021
:102690002D960FB6F894DEBF0FBECDBFDF91CF9160
:1026A0001F910F91FF90EF90DF90CF90BF90AF9070
:1026B0009F908F907F906F905F904F903F902F9062
:1026C0000895AF92BF92CF92DF92EF92FF920F9355
:1026D0001F93CF93DF93FB01DC0101962C912032F5
:1026E000D9F3B483A3839D0189010A1B1B0BE90164
:1026F00089919E018823C1F08F32B1F08C3511F49D
:1027000080E0F2C0982F977F9232D1F38A33C1F3E1
:10271000982F9F7B9C33A1F392EC980F923080F31B
:1027200080528F3508F3ECCF0A0F1B1FC801682FAA
:10273000392FEC012991CE012032C9F32F32B9F3A0
:10274000EA016883398398012A1B3B0B0A171B0790
:1027500041F0E8018A918E018E32A9F3803299F31B
:1027600003C0A12CB12C05C059012F3F310509F040
:102770003CF6B282A182CF0106969F012F5E3F4FA9
:1027800040E2EC014993CE01C217D307D1F7CD0146
:10279000AC014A1B5B0BEC013991CE013E32C1F317
:1027A0003032B1F39A0191E0452B09F090E0A50198
:1027B0004150510938F0BD01640F751FEB0188814C
:1027C0008E32B1F717E060E000E070E088E0E82EBC
:1027D0002A153B050CF06CC06D01C20ED31EE6013C
:1027E0008881803209F45BC08E3229F44217530786
:1027F00009F055C004C08232E1F08C37D1F0D6ED3B
:10280000FD2EF80ED5E0DF1510F08D3291F4C6ECF8
:10281000FC2EF80EC5E0CF1560F4D5EAFD2EF80EBB
:10282000D2E0DF1530F4CFEDFC2EF80ECDE5CF155C
:1028300020F42417350781F438C024173507A9F18F
:10284000161718F1F82ECFE9DC2ED80ED9E1DD15D8
:1028500048F080527E290CC01617B8F090E08FE542
:10286000CFE5FC2ECFEBFC0ED9E1DF1508F00E29E9
:10287000FF24F394F60E6F01C60ED11CE6018E8381
:10288000D6E0DF1570F0F5820CC01A3081F04217E7
:1028900053076CF09A011AE068E0D0E1ED2E90E069
:1028A00001C06F2D2F5F3F4F93CF1A30B9F490E0E6
:1028B0008681803209F424CF992329F0072309F077
:1028C00072E0708309C081E080838581E80FF11D8B
:1028D0008EE7868381E3878381E006C09A011AE050
:1028E00068E0D0E1ED2EDECFDF91CF911F910F9107
:1028F000FF90EF90DF90CF90BF90AF9008952F9210
:102900003F924F925F926F927F928F929F92AF927F
:10291000BF92CF92DF92EF92FF920F931F93CF93CC
:10292000DF93EC015B014A01888183FF0EC08A813D
:1029300081FF0BC082FF0FC0488D598D6A8D7B8D42
:10294000CE010E942B16811106C089818160898386
:102950008FEF9FEF0DC1A40160E070E08889998935
:10296000AA89BB8980959095A095B0958417950705
:10297000A607B70750F364011E018CE0280E311C36
:10298000088919892A893B89C114D10409F4D5C061
:102990008E819F81B901A80129E0769567955795A9
:1029A00047952A95D1F7DC011396FC90F42211701B
:1029B000F11034C00115110589F54C855D856E85D2
:1029C0007F85411551056105710569F091010E94EE
:1029D000600F87FDBACF811121C0CE010E949E18E1
:1029E00081111CC0B2CF8C8D9D8DAE8DBF8D009797
:1029F000A105B10579F4CE010E949E18882309F43F
:102A0000A4CF8C859D85AE85BF858C8F9D8FAE8F25
:102A1000BF8F04C08C879D87AE87BF87EE81FF8103
:102A20004C855D856E857F8542505109610971092C
:102A3000048004C0440F551F661F771F0A94D2F705
:102A400080899189A289B389480F591F6A1F7B1F0A
:102A50004F0D511D611D711D0115110521F4C1148A
:102A6000B2E0DB06B0F580E092E0801B910B7601CE
:102A70008C159D0508F47C010115110579F4488831
:102A800059886A887B88888D998DAA8DBB8D481658
:102A900059066A067B0610F025E001C021E0CF014F
:102AA00084960E94B80E009709F44FCFA701B50194
:102AB000800F911F0E9444290E0D1F1D0115124009
:102AC00059F58E819F8184960E945E0E811124C0EB
:102AD0003CCF87A190A5A1A5B2A584179507A6070D
:102AE000B70741F414A28FEF9FEFDC0187A390A7F3
:102AF000A1A7B2A7EE81FF8180819181DC01ED91D8
:102B0000FC910480F581E02D95010995882309F455
:102B10001CCFE12C82E0F82E88899989AA89BB898B
:102B20008E0D9F1DA11DB11D888B998BAA8BBB8B10
:102B3000AE0CBF1CCE18DF0823CF888D998DAA8DCF
:102B4000BB8D80179107A207B30738F4088F198F40
:102B50002A8F3B8F8A8180688A838A8183FD02C0A5
:102B6000C40106C0CE010E94CB158111F9CFEDCE74
:102B7000DF91CF911F910F91FF90EF90DF90CF9059
:102B8000BF90AF909F908F907F906F905F904F908D
:102B90003F902F9008950F931F93CF93DF93DC0105
:102BA0002C91211102C081E051C0EC018A8187FF84
:102BB00035C04C895D896E897F898E819F8121E036
:102BC00084960E94B80E0097E9F1EC81FD81EF70C8
:102BD000FF2725E0EE0FFF1F2A95E1F7DC01AE0F7E
:102BE000BF1F2C91253E71F1288123FF0AC0488D1B
:102BF000598D6A8D7B8D5C964D935D936D937C931F
:102C00005F974C8D5D8D6E8D7F8DE80FF91F538F13
:102C1000428F758B648B8A818F778A830E811F81A7
:102C2000C80184960E945E0E882361F0F8018081BD
:102C30009181DC01ED91FC910280F381E02D0995F9
:102C40008111B1CF89818160898380E0DF91CF914B
:102C50001F910F9108954F925F926F927F928F9282
:102C60009F92AF92BF92CF92DF92EF92FF920F931B
:102C70001F93CF93DF93EC014A015B014C845D8489
:102C80006E847F84A881AA2309F491C04889598958
:102C90006A897B8984169506A606B70609F48DC055
:102CA00081149104A104B10429F41C861D861E869A
:102CB0001F8678C0A3FF0BC0088D198D2A8D3B8D10
:102CC000081519052A053B0508F471C014C0A5FFB5
:102CD00012C0EE81FF818681978125E0880F991FC0
:102CE0002A95E1F7A0E0B0E088159905AA05BB0593
:102CF00008F45DC057C0EE81FF81848190E00996A1
:102D00008A019B010150110921093109082E04C0D3
:102D100036952795179507950A94D2F775016401A2
:102D2000B1E0CB1AD108E108F10804C0F694E794A9
:102D3000D794C7948A95D2F7C016D106E206F30657
:102D400020F0452B462B472B81F4A6FF05C0848D30
:102D5000958DA68DB78D04C08C8D9D8DAE8DBF8D4C
:102D60008C879D87AE87BF8704C0C01AD10AE20A4C
:102D7000F30A8E01045F1F4FC114D104E104F10472
:102D800089F04C855D856E857F8598018E819F8158
:102D90000E94600F91E0C91AD108E108F1081816E5
:102DA0005CF305C0888A998AAA8ABB8A06C04C86C9
:102DB0005D866E867F8680E001C081E0DF91CF91E5
:102DC0001F910F91FF90EF90DF90CF90BF90AF9049
:102DD0009F908F907F906F905F904F900895CF92CB
:102DE000DF92EF92FF920F931F93CF93DF93EC014B
:102DF000862F488959896A897B898A019B01E5E088
:102E00003695279517950795EA95D1F7102F1F70DE
:102E100011F0811151C098819923D9F18A8180FFE5
:102E200038C093FF63C0C88CD98CEA8CFB8CC41A61
:102E3000D50AE60AF70A22E0C216D104E104F10439
:102E400008F44EC09A01317095FD61C0EE81FF819A
:102E500003816A017B0189E0F694E794D794C794D3
:102E60008A95D1F70C21232B09F07EC001117CC07B
:102E7000452B462B472B09F45CC04C855D856E8540
:102E80007F859E01245F3F4FCF010E94600F87FF27
:102E900060C08981826089838FEF9FEF0197E9F499
:102EA00088899989AA89BB894F96A11DB11D888BF4
:102EB000998BAA8BBB8B08C0405E5F4F6F4F7F4FD3
:102EC000488B598B6A8B7B8B8E819F818B9620E2FE
:102ED000129F800D911D112480C080E090E07DC084
:102EE000CD28CE28CF2809F0ADCF0EC095FFAACFB0
:102EF000EE81FF818681978125E0880F991F2A95B1
:102F0000E1F78417950719F480E090E061C099E03B
:102F100076956795579547959A95D1F7EE81FF81FC
:102F2000848D958DA68DB78D480F591F6A1F7B1F05
:102F300039C096FF05C0848D958DA68DB78D04C0D0
:102F40008C8D9D8DAE8DBF8D8C879D87AE87BF8705
:102F50000BC0811109C08881807709F49ACF81E084
:102F600090E021E030E036C0EE81FF814C855D8548
:102F70006E857F854250510961097109048004C042
:102F8000440F551F661F771F0A94D2F780899189D5
:102F9000A289B389480F591F6A1F7B1F400F511D1B
:102FA000611D711D8E819F8120E084960E94B80E64
:102FB000892B09F46ECF88899989AA89BB890196E2
:102FC000A11DB11D888B998BAA8BBB8B81E090E0F2
:102FD00020E030E0821B930B61CFDF91CF911F91F6
:102FE0000F91FF90EF90DF90CF900895FC018081CA
:102FF000811114C080E2DF01982F1D929A95E9F7A4
:1030000077836683DB0115969C91903119F090329D
:1030100029F480E4808381E08283089580E008952C
:10302000CF93DF93EC010E94CB151882DF91CF91F3
:103030000895CF92DF92EF92FF920F931F93CF9359
:10304000DF93CDB7DEB7E3970FB6F894DEBF0FBEC0
:10305000CDBF7C018B015BAB4AABD22E19821A82A9
:10306000FC018081882311F080E059C0FB01808140
:103070008077D1F3EAA9FBA980818F32D9F4EAA93C
:10308000FBA980818F3221F43196FBABEAABF7CFFD
:10309000F80166817781811104C0C7010E94F6178B
:1030A0003EC0CE0101960E94F6178823E9F28E01F8
:1030B0000F5F1F4F80E2C82EAE014E5C5F4FBE0116
:1030C0006F5D7F4F8AA99BA90E946113882361F2DB
:1030D000EAA9FBA980818823D1F021E0AE014F5DF0
:1030E0005F4FB801C7010E94E50F882309F4BCCFE8
:1030F000F701DE0111968C2D01900D928A95E1F772
:10310000C7010E9410188E010F5F1F4FD5CF2D2DC4
:10311000AE014F5D5F4FB801C7010E94E50FE39616
:103120000FB6F894DEBF0FBECDBFDF91CF911F91D8
:103130000F91FF90EF90DF90CF9008953F924F92C4
:103140005F926F927F928F929F92AF92BF92CF9237
:10315000DF92EF92FF920F931F93CF93DF93CDB740
:10316000DEB728970FB6F894DEBF0FBECDBF4C0177
:10317000DC0112968C911297806812968C931297AC
:103180001C964D905D906D907C901F971696AD901B
:10319000BC901797411451046104710461F4D50186
:1031A00018968D919D910D90BC91A02D8D839E833D
:1031B000AF83B88704C04D825E826F827886CD80EF
:1031C000DE80EF80F884BFEFCB1ADB0AEB0AFB0A44
:1031D000F501808D918DA28DB38D8C159D05AE0569
:1031E000BF0528F482E0C82ED12CE12CF12C9E01E1
:1031F0002F5F3F4FB701A601C5010E94600F87FDF9
:1032000020C0882341F089819A81AB81BC81892BC0
:103210008A2B8B2B51F08D819E81AF81B885C8168A
:10322000D906EA06FB0679F60CC00FEF1FEF2FEF69
:103230003FE0B701A601C5010E94FD0E382E8111A5
:1032400002C0312C2BC0411451046104710451F0AF
:1032500097018601B301A201C5010E94FD0E8111F3
:1032600008C0EFCFD5011896CD92DD92ED92FC9279
:103270001B97F50180A191A1A2A1B3A1B7FD07C041
:103280000197A109B10980A391A3A2A3B3A3D4017B
:103290001C96CD92DD92ED92FC921F97832D28967D
:1032A0000FB6F894DEBF0FBECDBFDF91CF911F9157
:1032B0000F91FF90EF90DF90CF90BF90AF909F90D5
:1032C0008F907F906F905F904F903F9008958F9276
:1032D0009F92AF92BF92EF92FF920F931F93CF9363
:1032E000DF93EC01888185FF02C010E06CC0888903
:1032F0009989AA89BB8981159E4FAF41B105A8F76D
:10330000CE010E949E18182F882379F3EE81FF8149
:103310004C855D856E857F85425051096109710933
:10332000048004C0440F551F661F771F0A94D2F70C
:1033300080889188A288B388840E951EA61EB71E29
:1033400025E0B501A401CF0184960E94B80E7C014E
:10335000892B59F280E092E0D701FC011D92319750
:10336000E9F701E0EE81FF8192810917A8F48081DD
:103370009181DC01ED91FC910480F581E02D9701B4
:10338000B501A401400F511D611D711D09958823D0
:1033900009F4ABCF0F5FE6CF492F50E060E070E05B
:1033A00089E0440F551F661F771F8A95D1F78889DA
:1033B0009989AA89BB89480F591F6A1F7B1F488BAF
:1033C000598B6A8B7B8B812FDF91CF911F910F914E
:1033D000FF90EF90BF90AF909F908F900895AF9225
:1033E000BF92CF92DF92EF92FF920F931F93CF93F2
:1033F000DF93CDB7DEB7A0970FB6F894DEBF0FBE50
:10340000CDBF8C01DB019C91907709F4CEC07B018C
:1034100023ECC8010E94E50F882309F4C6C081E0AF
:10342000F801828350E1D52ED082C8010E9467192D
:10343000882309F4BAC0F80184859585A685B785E7
:10344000848F958FA68FB78F40E050E0BA01C801F6
:103450000E942B16C8010E94CB15882309F4A5C031
:10346000D80154964D915D916D917C915797169628
:103470008D919C91179721E084960E94B80E009739
:1034800009F493C0F801248135812F70332745E07A
:10349000220F331F4A95E1F7820F931FDC011B9621
:1034A000DC9220E2FC01DE01119601900D922A953A
:1034B000E1F7FC01A488B588C28CD38C8EE28983A5
:1034C000FE013296CE010C9620E22193E817F9070F
:1034D000E1F7D8011696ED91FC9117975C964D9106
:1034E0005D916D917C915F9742505109610971091D
:1034F000048004C0440F551F661F771F0A94D2F73B
:1035000080899189A289B389480F591F6A1F7B1F3F
:1035100021E0CF0184960E94B80E009709F445C0BF
:10352000BE8AAD8ADC8ECB8E20E2FE013196DC01B4
:1035300001900D922A95E1F72EE22A83F701448D3E
:10354000558D668D778D7E8B6D8B5C8F4B8F20E2DA
:10355000FE013196DC01909601900D922A95E1F7DB
:10356000D80116960D911C911797C80184960E9458
:103570005E0E8823D1F0F80180819181DC01ED910C
:10358000FC910280F381E02DA0960FB6F894DEBF87
:103590000FBECDBFDF91CF911F910F91FF90EF90A4
:1035A000DF90CF90BF90AF90099480E0A0960FB6C7
:1035B000F894DEBF0FBECDBFDF91CF911F910F9169
:1035C000FF90EF90DF90CF90BF90AF9008958F92D3
:1035D0009F92AF92BF92CF92DF92EF92FF92FC0147
:1035E000828128E532E06901C81AD10887FDD394A9
:1035F000CC0CDD1CCC0CDD1C0D2C000CEE08FF08E7
:10360000818128E830E04901881A910887FD939468
:10361000880C991C880C991C092C000CAA08BB0862
:1036200080818F3FC1F090E0FC01EE0FFF1F8E0FF5
:103630009F1FFC01EA51FE4F2181328143E0220F9E
:10364000331F4A95E1F754E0369527955A95E1F7EF
:103650002E5F3F4F02C020E030E02F5F3F4FC90197
:10366000330FAA0BBB0B9C01AD01281939094A097C
:103670005B09A4EBB0E00E944725A7019601281939
:1036800039094A095B090E942825C901FF90EF907A
:10369000DF90CF90BF90AF909F908F900895CF9282
:1036A000DF92EF92FF92CF93DF93EC01603282E0E2
:1036B00078070CF03DC077FD06C0653B71052CF026
:1036C00064EB70E002C060E070E0898128E830E0DF
:1036D0006901C81AD10887FDD394CC0CDD1CCC0C31
:1036E000DD1C0D2C000CEE08FF088A8128E532E075
:1036F000281B310987FD3395220F331F220F331FFB
:10370000C901330FAA0BBB0B9C01AD012C193D095C
:103710004E095F09DB010E94522524EB30E040E0B6
:1037200050E00E942825C20ED31EE41EF51EB601ED
:1037300088818C3080F5998148E850E0491B510917
:1037400097FD5395440F551F440F551F6417750778
:1037500084F09A8128E532E0291B310997FD3395E1
:10376000220F331F220F331FAB01261737070CF42C
:10377000A90142505109440F551F2FB7F89490E00A
:10378000FC01EE0FFF1F8E0F9F1FFC01EA51FE4F41
:10379000528341832FBFDF91CF91FF90EF90DF9055
:1037A000CF900895FC0190910B029C30A0F481E031
:1037B000890F80930B029083892F90E0FC01EE0F1C
:1037C000FF1F8E0F9F1FFC01EA51FE4F88EB9BE00D
:1037D0009283818308958FEF808308951F920F92C3
:1037E0000FB60F9211242F933F934F935F936F93D4
:1037F0007F938F939F93AF93BF93EF93FF938091AA
:103800000A0287FF05C010928500109284001BC039
:1038100020910A02022E000C330B80910B0290E0E3
:103820002817390784F480910A02082E000C990B9E
:10383000FC01EE0FFF1F8E0F9F1FFC01EA51FE4F90
:10384000808186FD15C080910A028F5F80930A02F5
:1038500020910A02022E000C330B80910B0290E0A3
:1038600028173907C4F480910A028C3064F113C020
:1038700080910A02082E000C990BFC01EE0FFF1F2D
:103880008E0F9F1FFC01EA51FE4F808160E08F7315
:103890000E94160BD8CF80918400909185000496E9
:1038A00080349C4918F480E49CE905C08091840030
:1038B00090918500049690938900809388008FEF03
:1038C00080930A023BC02091840030918500809152
:1038D0000A02082E000C990BFC01EE0FFF1F8E0F41
:1038E0009F1FFC01EA51FE4F81819281820F931F3D
:1038F000909389008093880080910A02082E000C22
:10390000990BFC01EE0FFF1F8E0F9F1FFC01EA5168
:10391000FE4F808186FF12C080910A02082E000CA3
:10392000990BFC01EE0FFF1F8E0F9F1FFC01EA5148
:10393000FE4F808161E08F730E94160BFF91EF9123
:10394000BF91AF919F918F917F916F915F914F91B7
:103950003F912F910F900FBE0F901F901895CF920F
:10396000DF92EF92FF920F931F93CF93DF937C012F
:103970008B010E94E71A6C010197833B910518F4B3
:10398000E60120E02EC0B801C701DF91CF911F9161
:103990000F91FF90EF90DF90CF900C942702C80119
:1039A0008C1B9D0B211121C021E030E01816190657
:1039B00014F020E030E0892F881F8827881F281BFB
:1039C0003109C20FD31FCC16DD0629F1BE01C70194
:1039D0000E94270269E170E080E090E00E94C30B42
:1039E00021E0C017D107D9F616C09C012E5F3F4FCA
:1039F00025303105C8F221E030E01816190614F020
:103A000020E030E0892F881F8827881F281B310974
:103A1000220F331FD6CFDF91CF911F910F91FF90CF
:103A2000EF90DF90CF9008950895ECE0F2E0A08948
:103A3000B18982E08C93A485B5851C92A685B78553
:103A40008FEC8C93108EA489B58986E08C93A28923
:103A5000B3898C9180618C93A289B3898C918860A1
:103A60008C93A289B3898C9180688C930288F389A6
:103A7000E02D80818F7D80830895CF93DF930E9416
:103A8000FD0BEB010E94580C8F3F49F00E94FD0B8B
:103A90006C1B7D0B69357240A8F380E001C081E0AA
:103AA000DF91CF9108958F929F92AF92BF92CF9264
:103AB000DF92EF92FF92CF93C82F10921A0381E00A
:103AC00090E0A0E0B0E080931D0390931E03A093CC
:103AD0001F03B093200385E193E090933B03809311
:103AE0003A03109239038FEF9FEFDC0180933C0380
:103AF00090933D03A0933E03B0933F03CC2331F159
:103B0000C53008F0E7C020E040E050E0BA0189E3AA
:103B100093E00E94B80E009709F4DCC020E1C29F38
:103B2000800D911D11244097FC01E254FE4F20812D
:103B30002F7709F0CFC0389680809180A280B38023
:103B400081149104A104B10421F4C4C0812C912CEE
:103B5000540120E0B501A40189E393E00E94B80E6E
:103B6000FC01892B09F4B6C08385948581159240A8
:103B700009F0B0C08089823009F0ACC04685578515
:103B80004115510509F4A6C02585209317038FEF31
:103B9000820F8093180380E091E0291751F031E003
:103BA000380F393019F48093190394C0990F832F7B
:103BB000F4CF80931903C688D788C114D10419F0B3
:103BC000E12CF12C04C0C4A0D5A0E6A0F7A0C092BF
:103BD0002103D0922203E0922303F0922403D50123
:103BE000C401840F951FA11DB11D809329039093DB
:103BF0002A03A0932B03B0932C032189328930939D
:103C00001C0320931B03CC0CDD1CEE1CFF1CC80EF8
:103C1000D91EEA1EFB1EC0923103D0923203E092FD
:103C20003303F092340355E0220F331F5A95E1F726
:103C300021503E4F232F33272695C20ED31EE11C61
:103C4000F11CC0922503D0922603E0922703F09244
:103C50002803238934892115310521F0C901A0E009
:103C6000B0E004C080A191A1A2A1B3A1B501A401BB
:103C70004C195D096E097F09480F591F6A1F7B1F88
:103C80000090190304C076956795579547950A9457
:103C9000D2F7DB01CA010196A11DB11D80932D034E
:103CA00090932E03A0932F03B09330038FEF9FEFD9
:103CB000DC018093350390933603A0933703B093D0
:103CC0003803453F8FE058076105710528F48CE003
:103CD00080931A0380E017C0453F5F4F610571056F
:103CE00010F480E10DC084A595A5A6A5B7A5809385
:103CF000310390933203A0933303B093340380E2F3
:103D000080931A0381E0CF91FF90EF90DF90CF90E6
:103D1000BF90AF909F908F900895CF93DF93EC0169
:103D20008091E405813069F040F0823071F0833099
:103D3000A9F48CE1E8ECF5E00BC08CE1E4E7F5E0F8
:103D400007C08CE1E0E9F5E003C08CE1ECEAF5E0C6
:103D5000DE0101900D928A95E1F708C01092E4050A
:103D600081E08093E505CE010E948D1ECE01DF919A
:103D7000CF910895E091F102F091F2020190F0816B
:103D8000E02D682F81EF92E009942F923F924F929D
:103D90005F926F927F928F929F92AF92BF92CF92DB
:103DA000DF92EF92FF920F931F93CF93DF9300D098
:103DB00000D0CDB7DEB78C011801C12CD12C760113
:103DC000C394812C912C54018394D1014D905D902A
:103DD0006D907D901D018D919D910D90BC91A02DB8
:103DE00089839A83AB83BC839C01AD01C301B2017B
:103DF0000E94B526181684F4F10140825182628235
:103E00007382349789819A81AB81BC81808391834D
:103E1000A283B383460157019FEFC91AD90AE90A61
:103E2000F90AA8E2CA16D104E104F10471F68A94F1
:103E300089288A288B2809F0BFCF0F900F900F9008
:103E40000F90DF91CF911F910F91FF90EF90DF9036
:103E5000CF90BF90AF909F908F907F906F905F902A
:103E60004F903F902F900895EF92FF920F931F93E2
:103E7000CF93DF93EC017B010E94FD0B8B010E942D
:103E8000580C8E838F3F49F40E94FD0B601B710B11
:103E90006D327140A0F385E503C08E3F39F080E5B7
:103EA0008A83CE010E945F0C80E01BC08FEF8EBD25
:103EB000F701D701A150BE4F9FEF0DB407FEFDCF14
:103EC0008EB59EBD8193EA17FB07B9F70DB407FEC7
:103ED000FDCF8EB58C931E820E94580C0E94580C08
:103EE00081E0DF91CF911F910F91FF90EF900895A6
:103EF0000F931F93CF93DF93EC01888199810097F3
:103F000029F02A813B812617370788F48B016F5FE0
:103F10007F4F0E946828009761F0998388831B83F4
:103F20000A832C813D81232B11F4FC01108281E056
:103F300001C080E0DF91CF911F910F910895EF9222
:103F4000FF920F931F93CF93DF93EC017B018A01C4
:103F5000BA010E94781F2881398181110DC0211575
:103F6000310519F0C9010E94D027198218821D82DB
:103F70001C821B821A8206C01D830C83B701C901F3
:103F80000E944D29CE01DF91CF911F910F91FF909B
:103F9000EF900895CF93DF93EC016115710559F00F
:103FA000FB0101900020E9F73197AF01461B570B49
:103FB0000E949F1F0CC088819981009711F00E9478
:103FC000D027198218821D821C821B821A82CE0180
:103FD000DF91CF9108954F925F926F927F92EF920F
:103FE000FF920F931F93CF93DF93CDB7DEB7A197C7
:103FF0000FB6F894DEBF0FBECDBF7C01FA01CB0136
:1040000019A2223008F42AE08E010F5D1F4F422EC4
:10401000512C612C712CBF01A30192010E94062535
:10402000F901CA01015011096A3014F4605D01C040
:10403000695CD8016C93232B242B252B61F7B801E5
:10404000C7010E94D00FA1960FB6F894DEBF0FBE35
:10405000CDBFDF91CF911F910F91FF90EF907F9097
:104060006F905F904F9008956DE371E00C94D00FC6
:10407000CF93DF93BC018CE092E00E94D00FEC0163
:104080008CE092E00E9434208C0F9D1FDF91CF9135
:104090000895EF92FF920F931F93CF93DF938C01BC
:1040A0007B01C0E0D0E0F701EC0FFD1F64916623B7
:1040B00061F0D801ED91FC910190F081E02DC801F3
:1040C0000995892B11F02196EECFCE01DF91CF918A
:1040D0001F910F91FF90EF900895CF93DF93BC0154
:1040E0008CE092E00E944920EC018CE092E00E947A
:1040F00034208C0F9D1FDF91CF910895CF92DF92D6
:10410000EF92FF920F931F93E82FF92F05C00150F4
:1041100011092109310961F1908196239417B9F3AE
:1041200005C0015011092109310911F1908196232F
:104130009413F7CFC12CD12CE12CF12C0AC08FEFB6
:10414000C81AD80AE80AF80A0C151D052E053F05FD
:1041500079F080818623841791F36C2D7D2D8E2D2F
:104160009F2D1F910F91FF90EF90DF90CF900895BA
:1041700060E070E080E090E01F910F91FF90EF9081
:10418000DF90CF9008950895789484B5826084BDBF
:1041900084B5816084BD85B5826085BD85B581604B
:1041A00085BD80916E00816080936E0010928100C9
:1041B0008091810082608093810080918100816084
:1041C0008093810080918000816080938000809145
:1041D000B10084608093B1008091B00081608093D1
:1041E000B00080917A00846080937A0080917A0098
:1041F000826080937A0080917A00816080937A0057
:1042000080917A00806880937A001092C1000E94A9
:104210003A02C3E0D0E093E2E92EF12C4090D901BC
:104220005090DA016090DB017090DC0180E2480E72
:1042300081EA581E87E0681E711C4092D901509295
:10424000DA016092DB017092DC010E949E0B4B014F
:104250005C0184189508A608B708B7FCF6CF68EC8F
:1042600072E08CE092E00E9449208BE08816910475
:10427000A104B1041CF084EB92E002C084EA92E055
:104280000E946D2062E070E080E090E00E94C30B2D
:1042900084E795E00E94E71A2C0180E995E00E94EE
:1042A000E71A3C018CEA95E00E94E71A4C0188EC81
:1042B00095E00E94E71A5C01A20160E070E02AE04C
:1042C00081EF92E00E94EB1F8CE20E94BA1EA301D4
:1042D00060E070E02AE081EF92E00E94EB1F8CE248
:1042E0000E94BA1EA40160E070E02AE081EF92E033
:1042F0000E94EB1F8CE20E94BA1EA50160E070E0F4
:104300002AE081EF92E00E94EB1F8CE20E94BA1E2D
:1043100060E0809170050E94160BCE010197F1F7C5
:1043200061E0809170050E94160BC7010197F1F7BB
:1043300060E0809170050E94160B8091720590914B
:1043400073059927FC01E859FD4F6491FC01EC5A73
:10435000FD4FE491F0E0EE0FFF1FE65BFD4F85910E
:10436000949103E61BE020E030E0462F0E947E207F
:10437000611571058105910541F0AB01BC014F5FED
:104380005F4F6F4F7F4F7F7003C040E050E0BA0136
:104390002AE081EF92E00E94EB1F81EF92E00E9401
:1043A000342068E972E08CE092E00E94492085EFB9
:1043B00092E00E94CB15882321F08091F60280FFC5
:1043C00003C08BE892E002C08CE792E00E946D206F
:1043D00062E070E080E090E00E94C30B0E94B20AAD
:1043E0001DCF4F925F926F927F928F929F92AF926A
:1043F000BF92CF92DF92EF92FF920F931F93CF93D2
:10440000DF93CDB7DEB7C057D1090FB6F894DEBF42
:104410000FBECDBFECE0F2E01382128288EE93E093
:10442000A0E0B0E084839583A683B7838AE091E01F
:104430009183808385EC90E09587848784EC90E07D
:104440009787868780EC90E0918B808B81EC90E061
:10445000938B828B82EC90E0958B848B86EC90E042
:10446000978B868B118E128E138E148EE9EAF2E0F2
:104470001682178210861186128613861486158678
:1044800016861786108A118A128A138A148A158A48
:10449000CE018B5A9F4F0E94D21BC12CD12C88E495
:1044A000E82E82E4F82EAE96CCAEDDAEEEAEFFAED8
:1044B000AE9702E310E0E0961FAF0EAFE09785E005
:1044C00090E0A2969FAF8EAFA2978CE390E0A49667
:1044D0009FAF8EAFA49782E890E0A6969FAF8EAF75
:1044E000A69794E6892E912CA8969FAE8EAEA8979B
:1044F00080E190E0AA969FAF8EAFAA972DE8422E5A
:1045000027E9522E2EE0622E2FE3722E6C964CAECF
:104510005DAE6EAE7FAE6C978FE195E8A5E7B2EC2D
:10452000A0968CAF9DAFAEAFBFAFA097CE01C9969E
:104530000E94D21B8AE590E02C969FAF8EAF2C97FD
:104540006296CCAEDDAEEEAEFFAE629764961FAF64
:104550000EAF649783E090E026969FAF8EAF2697CC
:104560008EE190E028969FAF8EAF289736E9A32E74
:10457000B12C2A96BFAEAEAE2A9781E190E02E967E
:104580009FAF8EAF2E9780E090E0A0E8BFE38CAFA6
:104590009DAFAEAFBFAF80E090E0A0E8BFEB249648
:1045A0008CAF9DAFAEAFBFAF2497CE014D960E94AA
:1045B000D21BCAAADBAAECAAFDAA1FAB0EAB89E0EC
:1045C00090E099A788A786E490E09BA78AA783E755
:1045D00090E09DA78CA780E590E09FA78EA78EE036
:1045E00090E099AB88AB89EC96E7AEE8BFE388A38F
:1045F00099A3AAA3BBA38AE999E1A3E1B3EC8CA395
:104600009DA3AEA3BFA3CE0101960E94D21BCE8A6A
:10461000DF8AE88EF98E1B8F0A8F86E090E09D87F7
:104620008C879F868E86B98AA88A8EE690E09B8BBF
:104630008A8B8FE090E09D8B8C8B4C825D826E82AA
:104640007F828CE59FE8A6E4B2EC88879987AA87E9
:10465000BB878CE1FE013196A4E7B5E001900D9295
:104660008A95E1F78CE1FE017D96A0E9B5E0019025
:104670000D928A95E1F78CE1FE01F996ACEAB5E07E
:1046800001900D928A95E1F78CE1FE01EB5AFF4F04
:10469000A8ECB5E001900D928A95E1F71092E4053F
:1046A0001092E505E0E7F5E084E090E091838083F7
:1046B00087E090E09383828361E084E00E94620B54
:1046C00060E084E00E94160B60E087E00E94620BCD
:1046D00010921A03109240051092410584E68093CF
:1046E00062051092670588E291E0909361058093DE
:1046F000600580E580936D0510926E05E1EFF2E0B4
:1047000014821582138212828CE191E0918380835E
:10471000C059DF4F0FB6F894DEBF0FBECDBFDF919B
:10472000CF911F910F91FF90EF90DF90CF90BF90AE
:10473000AF909F908F907F906F905F904F90089573
:10474000BB27FA01A62F6217710581059105330B6E
:1047500030FB66F0AA27660F771F881F991FAA1FD4
:10476000A21710F0A21B63953850A9F7A05DAA33D9
:1047700008F0A95DA19336F7B111B1931082CA0177
:104780000C94C223DC01FC01672F71917723E1F7C0
:10479000329704C07C916D9370836291AE17BF070E
:1047A000C8F308950E94142408F481E00895E89461
:1047B00009C097FB3EF490958095709561957F4F69
:1047C0008F4F9F4F9923A9F0F92F96E9BB27939517
:1047D000F695879577956795B795F111F8CFFAF427
:1047E000BB0F11F460FF1BC06F5F7F4F8F4F9F4F58
:1047F00016C0882311F096E911C0772321F09EE8B6
:10480000872F762F05C0662371F096E8862F70E01B
:1048100060E02AF09A95660F771F881FDAF7880FF5
:104820009695879597F90895990F0008550FAA0B4B
:10483000E0E8FEEF16161706E807F907C0F01216B3
:104840001306E407F50798F0621B730B840B950BB6
:1048500039F40A2661F0232B242B252B21F408950B
:104860000A2609F4A140A6958FEF811D811D0895A8
:104870000E944B240C94BC240E94AE2438F00E9469
:10488000B52420F0952311F00C94A5240C94AB24AE
:1048900011240C94F0240E94CD2470F3959FC1F351
:1048A000950F50E0551F629FF001729FBB27F00DDE
:1048B000B11D639FAA27F00DB11DAA1F649F662733
:1048C000B00DA11D661F829F2227B00DA11D621F82
:1048D000739FB00DA11D621F839FA00D611D221F3C
:1048E000749F3327A00D611D231F849F600D211D20
:1048F000822F762F6A2F11249F5750409AF0F1F0A3
:1049000088234AF0EE0FFF1FBB1F661F771F881F0B
:1049100091505040A9F79E3F510580F00C94A5247A
:104920000C94F0245F3FE4F3983ED4F3869577959A
:104930006795B795F795E7959F5FC1F7FE2B880FB1
:10494000911D9695879597F9089597F99F6780E847
:1049500070E060E008959FEF80EC089500240A94D1
:104960001616170618060906089500240A9412164A
:104970001306140605060895092E0394000C11F47D
:10498000882352F0BB0F40F4BF2B11F460FF04C02A
:104990006F5F7F4F8F4F9F4F089557FD9058440F83
:1049A000551F59F05F3F71F04795880F97FB991F8E
:1049B00061F09F3F79F0879508951216130614064B
:1049C000551FF2CF4695F1DF08C0161617061806D8
:1049D000991FF1CF86957105610508940895E894B3
:1049E000BB2766277727CB0197F90895DB018F93C3
:1049F0009F930E944725BF91AF91A29F800D911D6B
:104A0000A39F900DB29F900D11240895A1E21A2E3C
:104A1000AA1BBB1BFD010DC0AA1FBB1FEE1FFF1F62
:104A2000A217B307E407F50720F0A21BB30BE40BB2
:104A3000F50B661F771F881F991F1A9469F76095F9
:104A40007095809590959B01AC01BD01CF010895B3
:104A5000052E97FB1EF400940E943F2557FD07D0BA
:104A60000E94062507FC03D04EF40C943F25509578
:104A70004095309521953F4F4F4F5F4F089590954A
:104A80008095709561957F4F8F4F9F4F08950E943D
:104A90009125A59F900DB49F900DA49F800D911D11
:104AA00011240895B7FF0C9447250E944725821BC7
:104AB000930B08952F923F924F925F926F927F9245
:104AC0008F929F92AF92BF92CF92DF92EF92FF921E
:104AD0000F931F93CF93DF93CDB7DEB7CA1BDB0BCA
:104AE0000FB6F894DEBF0FBECDBF09942A8839886F
:104AF00048885F846E847D848C849B84AA84B98476
:104B0000C884DF80EE80FD800C811B81AA81B98181
:104B1000CE0FD11D0FB6F894DEBF0FBECDBFED0195
:104B20000895A29FB001B39FC001A39F700D811D86
:104B30001124911DB29F700D811D1124911D0895A6
:104B40005058BB27AA270E94B8250C94BC240E9469
:104B5000AE2438F00E94B52420F039F49F3F19F4B8
:104B600026F40C94AB240EF4E095E7FB0C94A524FA
:104B7000E92F0E94CD2458F3BA1762077307840700
:104B8000950720F079F4A6F50C94EF240EF4E09547
:104B90000B2EBA2FA02D0B01B90190010C01CA01F7
:104BA000A0011124FF27591B99F0593F50F4503EA2
:104BB00068F11A16F040A22F232F342F4427585F94
:104BC000F3CF469537952795A795F0405395C9F7AC
:104BD0007EF41F16BA0B620B730B840BBAF0915064
:104BE000A1F0FF0FBB1F661F771F881FC2F70EC003
:104BF000BA0F621F731F841F48F4879577956795D6
:104C0000B795F7959E3F08F0B0CF9395880F08F0C1
:104C10009927EE0F9795879508950E9421260C9469
:104C2000BC240E94B52458F00E94AE2440F029F420
:104C30005F3F29F00C94A52451110C94F0240C949E
:104C4000AB240E94CD2468F39923B1F3552391F34B
:104C5000951B550BBB27AA2762177307840738F0EB
:104C60009F5F5F4F220F331F441FAA1FA9F335D048
:104C70000E2E3AF0E0E832D091505040E695001CFC
:104C8000CAF72BD0FE2F29D0660F771F881FBB1FB6
:104C9000261737074807AB07B0E809F0BB0B802D94
:104CA000BF01FF2793585F4F3AF09E3F510578F0C0
:104CB0000C94A5240C94F0245F3FE4F3983ED4F3C5
:104CC000869577956795B795F7959F5FC9F7880F94
:104CD000911D9695879597F90895E1E0660F771FE6
:104CE000881FBB1F621773078407BA0720F0621B77
:104CF000730B840BBA0BEE1F88F7E09508950E94A2
:104D000086266894B1110C94F02408950E94D5244D
:104D100088F09F5798F0B92F9927B751B0F0E1F07C
:104D2000660F771F881F991F1AF0BA95C9F714C02C
:104D3000B13091F00E94EF24B1E008950C94EF247B
:104D4000672F782F8827B85F39F0B93FCCF3869565
:104D500077956795B395D9F73EF4909580957095C2
:104D600061957F4F8F4F9F4F08950E94142408F440
:104D70008FEF089519F416F40C94AB240C940027CB
:104D80000E94D524B8F39923C9F3B6F39F57550B66
:104D900087FF0E940E270024A0E640EA9001805879
:104DA0005695979528F4805C660F771F881F20F032
:104DB00026173707480730F4621B730B840B202932
:104DC00031294A2BA69517940794202531254A2787
:104DD00058F7660F771F881F20F0261737074807F8
:104DE00030F4620B730B840B200D311D411DA09517
:104DF00081F7B901842F9158880F9695879508956A
:104E00009F3F31F0915020F4879577956795B7953E
:104E1000880F911D9695879597F908959150504068
:104E2000660F771F881FD2F70895991B79E004C099
:104E3000991F961708F0961B881F7A95C9F78095D9
:104E40000895AA1BBB1B51E107C0AA1FBB1FA617D1
:104E5000B70710F0A61BB70B881F991F5A95A9F723
:104E600080959095BC01CD010895EE0FFF1F059030
:104E7000F491E02D0994CF93DF938230910510F4E3
:104E800082E090E0E091E805F091E90520E030E073
:104E9000C0E0D0E0309711F14081518148175907A7
:104EA000C0F04817590761F482819381209719F067
:104EB0009B838A832BC09093E9058093E80526C0E5
:104EC0002115310519F04217530718F49A01BE0154
:104ED000DF01EF010280F381E02DDCCF21153105E8
:104EE00009F1281B390B2430310590F412968D916D
:104EF0009C9113976115710521F0FB0193838283C7
:104F000004C09093E9058093E805FD01329644C002
:104F1000FD01E20FF31F81939193225031092D93EC
:104F20003C933AC02091E6053091E705232B41F4EC
:104F300020910201309103013093E7052093E605AB
:104F400020910001309101012115310541F42DB767
:104F50003EB74091040150910501241B350BE091AF
:104F6000E605F091E705E217F307A0F42E1B3F0BCF
:104F70002817390778F0AC014E5F5F4F24173507CB
:104F800048F04E0F5F1F5093E7054093E60581936D
:104F9000919302C0E0E0F0E0CF01DF91CF9108955E
:104FA0000F931F93CF93DF93009709F48CC0FC01FC
:104FB0003297138212820091E8051091E9050115DC
:104FC000110581F420813181820F931F2091E60524
:104FD0003091E7052817390779F5F093E705E09355
:104FE000E60571C0D80140E050E0AE17BF0750F4AD
:104FF00012962D913C911397AD012115310509F1C0
:10500000D901F3CF9D01DA0133832283608171815D
:10501000860F971F8217930769F4EC012881398165
:10502000260F371F2E5F3F4F318320838A819B815C
:1050300093838283452B29F4F093E905E093E805F7
:1050400042C01396FC93EE931297ED01499159914A
:105050009E01240F351FE217F30771F480819181BF
:10506000840F951F029611969C938E938281938153
:1050700013969C938E931297E0E0F0E0D80112967D
:105080008D919C911397009719F0F8018C01F6CF40
:105090008D919C9198012E5F3F4F820F931F20911D
:1050A000E6053091E7052817390769F4309729F4A8
:1050B0001092E9051092E80502C013821282109343
:1050C000E7050093E605DF91CF911F910F910895B9
:1050D000A0E0B0E0EEE6F8E20C945E25EC0100976B
:1050E00021F4CB010E943B27B8C0FC01E60FF71F5B
:1050F0009C0122503109E217F30708F4ACC0D90132
:105100000D911C91119706171707B0F00530110586
:1051100008F49FC0C80104978617970708F499C040
:1051200002501109061B170B019311936D937C9389
:10513000CF010E94D0278DC05B01A01AB10A4C019B
:10514000800E911EA091E805B091E90540E050E085
:10515000E12CF12C109709F44AC0A815B905D1F536
:105160006D907C901197630182E0C80ED11CCA1427
:10517000DB0480F1A3014A195B096A0182E0C80ED1
:10518000D11C1296BC9012971396AC91B5E0CB1639
:10519000D10440F0B282A38351834083D9016D933F
:1051A0007C930AC00E5F1F4FC301800F911FF9014E
:1051B00091838083EB2DFA2FE114F10431F0D701B4
:1051C0001396FC93EE93129744C0F093E905E09395
:1051D000E8053FC08D919C9111974817590708F435
:1051E000AC017D0112960D90BC91A02DB3CF8091A2
:1051F000E6059091E70588159905E1F446175707EC
:10520000C8F48091000190910101009741F48DB79D
:105210009EB74091040150910501841B950BE8173E
:10522000F907C8F4F093E705E093E605F901718307
:1052300060830FC0CB010E943B277C01009759F08F
:10524000A801BE010E944429CE010E94D027C701B7
:1052500004C0CE0102C080E090E0CDB7DEB7EEE042
:105260000C947A2581E090E0F8940C946329FB017A
:10527000DC0104C08D910190801921F4415050400F
:10528000C8F7881B990B0895FB01DC0102C001904F
:105290000D9241505040D8F70895FB01DC01019078
:1052A0000D920020E1F70895FB01DC0141505040D0
:1052B00048F001900D920020C9F701C01D924150A5
:1052C0005040E0F7089511E0CBE6D1E004C0FE01C4
:1052D0000E9435272196CC36D107C9F7F894FFCF25
:1052E0000000EA05800000000000490AB609E10953
:1052F000900A120AF009040A0000000012020F02CC
:105300009901240200000000A80C740C390D564DC0
:105310004450565F317C315F564D4450560D0A0063
:10532000433A5C55736572735C7479626C755C4169
:105330007070446174615C4C6F63616C5C54656D4A
:10534000705C564D4275696C64735C4175746F4D49
:105350006F76655C537061726B46756E5F52656403
:10536000426F6172645C44656275675C4175746F1D
:105370004D6F76652E63707020636F6D70696C651C
:1053800064204F637420323720323031372061740B
:105390002031373A35323A33340030313233343514
:1053A00036372E65787400747874002F546F706FE0
:0653B0004D617073000066
:00000001FF
