:100000000C94A7030C94CF030C94CF030C94CF0350
:100010000C94CF030C94CF030C94CF030C94CF0318
:100020000C94CF030C94CF030C94CF030C94A40B2B
:100030000C94CF030C94CF030C94CF030C94CF03F8
:100040000C943C100C94CF030C942F0F0C94090FBC
:100050000C94CF030C94CF030C94CF030C94CF03D8
:100060000C94CF030C94CF03706F734D6178526181
:10007000646975733A2000526F626F7441726D53F8
:1000800074617465203A2000706F734D696E52611F
:10009000646975733A2000526F626F7441726D53D8
:1000A00074617465203A2000706F734D6178486503
:1000B000696768743A2000526F626F7441726D53C1
:1000C00074617465203A2000706F734D696E4865E5
:1000D000696768743A2000526F626F7441726D53A1
:1000E00074617465203A2000706F734D696E4865C5
:1000F00069676874206368616E67656420746F3A2D
:100100002000526F626F7441726D53746174652088
:100110003A2000706F734D696E5261646975732087
:100120006368616E67656420746F3A2000526F6285
:100130006F7441726D5374617465203A2000706F62
:10014000734D6178486569676874206368616E679C
:10015000656420746F3A2000526F626F7441726D53
:100160005374617465203A2000706F734D6178524A
:100170006164697573206368616E67656420746F7C
:100180003A2000526F626F7441726D5374617465EE
:10019000203A200000000000240027002A00303010
:1001A0003030303030303030006865696768742C2A
:1001B000207261646975732C2074686574612C20E9
:1001C000736F6E6172206D6561737572656D656EBA
:1001D0007400636C617720736572766F20616E675F
:1001E0006C652C20636C61772061646A20616E67A6
:1001F0006C652C20636C6177206865696768742C76
:1002000020636C6177207261646975732C0074756A
:100210007272656E7420736572766F20616E676CA2
:10022000652C207475727265742061646A20616E39
:10023000676C652C207475727265742068656967D7
:1002400068742C20747572726574207261646975AB
:10025000732C00626F6F6D3220736572766F206150
:100260006E676C652C20626F6F6D322061646A204E
:10027000616E676C652C20626F6F6D3220686569F6
:100280006768742C20626F6F6D32207261646975CB
:10029000732C00626F6F6D3120736572766F206111
:1002A0006E676C652C20626F6F6D312061646A200F
:1002B000616E676C652C20626F6F6D3120686569B7
:1002C0006768742C20626F6F6D312072616469758C
:1002D000732C005248532073656E736F72207265E1
:1002E0006164696E673A20004175746F4D6F766581
:1002F000203A20004C48532073656E736F72207251
:10030000656164696E673A20004175746F4D6F7660
:1003100065203A2000536B697070696E6720534402
:1003200020636172642073747566662E004F706579
:100330006E20737563636573732E004F70656E2056
:100340006661696C65642E004175746F4D6F7665EA
:10035000203A200063686469722073756363657373
:10036000732E00636864697220746F2022546F706A
:100370006F4D61707322206661696C65642E004167
:1003800075746F4D6F7665203A2000556E697175F2
:10039000652066696C65206E616D653A2000417567
:1003A000746F4D6F7665203A200043726561746505
:1003B0002022546F706F4D61707322206661696CEA
:1003C00065642E004372656174652022546F706FFE
:1003D0004D61707322207375636365656465642E77
:1003E000004175746F4D6F7665203A200062656735
:1003F000696E20737563636573732E006265676948
:100400006E206661696C65642E004175746F4D6F76
:100410007665203A20005374617274696E672053C8
:10042000504920534420636172642073747566667A
:100430002E004175746F4D6F7665203A200053652C
:1004400072766F7320706F7765726564206F6E2EA1
:10045000004175746F4D6F7665203A2000000000F2
:1004600000230026002900040404040404040402F8
:100470000202020202030303030303010204081041
:100480002040800102040810200102040810202EE0
:100490002020202020546865746120203D20002EFB
:1004A0002020202020526164697573203D20002E99
:1004B000636C617720726164697573203D2000620E
:1004C0006F6F6D3220726164697573203D20006228
:1004D0006F6F6D3120726164697573203D20002E4D
:1004E0002020202020486569676874203D20002E68
:1004F000636C617720686569676874203D200074CB
:100500007572726574206865696768743D20006261
:100510006F6F6D3220686569676874203D200062E6
:100520006F6F6D3120686569676874203D200053E6
:100530006F6E6172206D6561737572656D656E7445
:100540003A2000206465677265657320777269746C
:1005500074656E2E00206465677265657320656E34
:1005600074657265642E20002E2E2E20456E7465F3
:10057000722074617267657420616E676C653A20E1
:1005800000456E7465722074617267657420616ED7
:10059000676C653A200054727920616761696E2E3C
:1005A00000456E746572206D656D626572206E75B2
:1005B0006D6265723A2000456E746572206D656DDE
:1005C000626572206E756D6265723A2000290020A6
:1005D000287068797320002E2020202020202020E1
:1005E0002020202020205B345D202020636C617758
:1005F000203A2000290020287068797320002E20DE
:10060000202020202020202020202020205B335D5F
:1006100020747572726574203A20002900202870B9
:1006200068797320002E20202020202020202020E8
:10063000202020205B325D20626F6F6D3220203AD7
:1006400020002900202870687973200053656C65AC
:100650006374206D656D6265723A205B315D206266
:100660006F6F6D3120203A2000000011002300340C
:10067000004600570069007A008B009C00AE00BF66
:1006800000D000E100F2000301140124013501460D
:100690000156016601770187019701A701B601C6DE
:1006A00001D501E501F4010302120221022F023EED
:1006B000024C025A0268027502830290029D02AA4D
:1006C00002B702C302CF02DB02E702F302FE020915
:1006D0000314031F03290333033D03470350035946
:1006E0000362036B0373037B0383038A03920399FF
:1006F000039F03A603AC03B203B703BC03C103C645
:1007000003CA03CE03D203D603D903DC03DE03E11D
:1007100003E303E403E603E703E703E803E8034333
:100720006C6177206C656E677468203D2000000066
:100730000000250028002B00000000080002010036
:100740000003040700000000000000009D2A11249F
:100750001FBECFEFD8E0DEBFCDBF12E0A0E0B1E01A
:10076000E2EFFFE502C005900D92A830B107D9F77E
:1007700027E0A8E0B2E001C01D92A535B207E1F77D
:1007800013E0C7EAD3E004C02197FE010E94C42F02
:10079000C63AD107C9F70E94B41D0C94F72F0C94E8
:1007A0000000DC01ED91FC91119718966D917C9100
:1007B00019970084F185E02D0994DC01ED91FC91FD
:1007C000119718966D917C9119970480F581E02D11
:1007D000099480E090E0089580E090E0089580E042
:1007E00090E0089580E090E00895DC01ED91FC91A7
:1007F000119718966D917C9119970084F185E02DE1
:100800000994DC01ED91FC91119718966D917C9102
:1008100019970480F581E02D0994FC018681978168
:100820000895FC01848195810895FC01848195815E
:100830000895FC01828193810895FC018281938156
:1008400008950895CF93DF9321E030E0E8E6F1E0EA
:10085000C4EBD0E0BF010E94B02F88599E4FBF016A
:100860000E94B02F8E3041E0940724F0919581953D
:10087000910905C0843B910534F08C549F4F31950C
:1008800021953109E7CF8B3591052CF0AE01481B3E
:10089000590BCA01DFCFFC01EE0FFF1FE759F94FDB
:1008A00085919491AC01249FC001259F900D349FA8
:1008B000900D1124DF91CF910895CF93DF9300D055
:1008C00000D0CDB7DEB7FC01228533854485558540
:1008D00080859185865A9F4F29833A834B835C8319
:1008E0000E942204DC0129813A814B815C810E94B3
:1008F000792F28EE33E040E050E00E944F2FC901ED
:100900000F900F900F900F90DF91CF910895CF939C
:10091000DF9300D000D0CDB7DEB7FC012285338550
:10092000448555858085918529833A834B835C83F3
:100930000E942204DC0129813A814B815C810E9462
:10094000792F28EE33E040E050E00E944F2FC9019C
:100950000F900F900F900F90DF91CF91089581E04D
:100960000895089580E090E00895CF92DF92EF928D
:10097000FF92CF93DF9300D000D0CDB7DEB77C01DC
:10098000CB01F701208931894289538929833A8330
:100990004B835C830E942204DC0129813A814B81D4
:1009A0005C810E94792F28EE33E040E050E00E9405
:1009B0004F2FF70184859585A685B78569017A0152
:1009C000C80ED91EEA1EFB1E66EF71E08BE392E0B3
:1009D0000E9403146FE177E08BE392E00E942917F5
:1009E000B701A6018BE392E00E94D5168BE392E05B
:1009F0000E94111762E070E080E090E00E94F60F24
:100A0000C701B6010F900F900F900F90DF91CF911B
:100A1000FF90EF90DF90CF9008950F931F93CF93A7
:100A2000DF9300D000D0CDB7DEB78C010E94B504B3
:100A30009B01AC01F80182859385865A9F4F2983DB
:100A40003A834B835C830E942204DC0129813A8132
:100A50004B815C810E94792F28EE33E040E050E02A
:100A60000E944F2FC9010F900F900F900F90DF91B0
:100A7000CF911F910F9108950F931F93CF93DF9301
:100A800000D000D0CDB7DEB78C010E94B5049B0129
:100A9000AC01F8018285938529833A834B835C837B
:100AA0000E942204DC0129813A814B815C810E94F1
:100AB000792F28EE33E040E050E00E944F2FC9012B
:100AC0000F900F900F900F90DF91CF911F910F918A
:100AD000089504960C94F81BCF93DF931F92CDB723
:100AE000DEB7698341E050E0BE016F5F7F4F04963F
:100AF0000E94F81B0F90DF91CF9108950F931F93E1
:100B0000CF93DF93DC012C91211102C081E051C011
:100B1000EC018A8187FF35C04C895D896E897F89A8
:100B20008E819F8121E084960E94EB120097E9F16B
:100B3000EC81FD81EF70FF2725E0EE0FFF1F2A9566
:100B4000E1F7DC01AE0FBF1F2C91253E71F128812A
:100B500023FF0AC0488D598D6A8D7B8D5C964D931D
:100B60005D936D937C935F974C8D5D8D6E8D7F8DC6
:100B7000E80FF91F538F428F758B648B8A818F77B3
:100B80008A830E811F81C80184960E949112882356
:100B900061F0F80180819181DC01ED91FC9102808E
:100BA000F381E02D09958111B1CF8981816089831D
:100BB00080E0DF91CF911F910F91089504960C94DE
:100BC0007E054F925F926F927F928F929F92AF922B
:100BD000BF92CF92DF92EF92FF920F931F93CF932A
:100BE000DF93EC014A015B014C845D846E847F8459
:100BF000A881AA2309F491C0488959896A897B8907
:100C000084169506A606B70609F48DC081149104D2
:100C1000A104B10429F41C861D861E861F8678C097
:100C2000A3FF0BC0088D198D2A8D3B8D0815190562
:100C30002A053B0508F471C014C0A5FF12C0EE815F
:100C4000FF818681978125E0880F991F2A95E1F71A
:100C5000A0E0B0E088159905AA05BB0508F45DC0C1
:100C600057C0EE81FF81848190E009968A019B0143
:100C70000150110921093109082E04C03695279524
:100C8000179507950A94D2F775016401B1E0CB1A64
:100C9000D108E108F10804C0F694E794D794C7940A
:100CA0008A95D2F7C016D106E206F30620F0452B4E
:100CB000462B472B81F4A6FF05C0848D958DA68D0C
:100CC000B78D04C08C8D9D8DAE8DBF8D8C879D871B
:100CD000AE87BF8704C0C01AD10AE20AF30A8E01A8
:100CE000045F1F4FC114D104E104F10489F04C8565
:100CF0005D856E857F8598018E819F810E9493130B
:100D000091E0C91AD108E108F10818165CF305C092
:100D1000888A998AAA8ABB8A06C04C865D866E86B6
:100D20007F8680E001C081E0DF91CF911F910F911C
:100D3000FF90EF90DF90CF90BF90AF909F908F90FB
:100D40007F906F905F904F900895CF92DF92EF92D7
:100D5000FF920F931F93CF93DF93EC01862F488967
:100D600059896A897B898A019B01E5E03695279537
:100D700017950795EA95D1F7102F1F7011F0811183
:100D800051C098819923D9F18A8180FF38C093FF9F
:100D900063C0C88CD98CEA8CFB8CC41AD50AE60ACD
:100DA000F70A22E0C216D104E104F10408F44EC0AF
:100DB0009A01317095FD61C0EE81FF8103816A0166
:100DC0007B0189E0F694E794D794C7948A95D1F78C
:100DD0000C21232B09F07EC001117CC0452B462B32
:100DE000472B09F45CC04C855D856E857F859E012F
:100DF000245F3F4FCF010E94931387FF60C089811A
:100E0000826089838FEF9FEF0197E9F48889998940
:100E1000AA89BB894F96A11DB11D888B998BAA8B7E
:100E2000BB8B08C0405E5F4F6F4F7F4F488B598B25
:100E30006A8B7B8B8E819F818B9620E2129F800D27
:100E4000911D112480C080E090E07DC0CD28CE2887
:100E5000CF2809F0ADCF0EC095FFAACFEE81FF815C
:100E60008681978125E0880F991F2A95E1F78417DD
:100E7000950719F480E090E061C099E07695679558
:100E8000579547959A95D1F7EE81FF81848D958D81
:100E9000A68DB78D480F591F6A1F7B1F39C096FF5B
:100EA00005C0848D958DA68DB78D04C08C8D9D8DCC
:100EB000AE8DBF8D8C879D87AE87BF870BC081119C
:100EC00009C08881807709F49ACF81E090E021E021
:100ED00030E036C0EE81FF814C855D856E857F8573
:100EE0004250510961097109048004C0440F551F23
:100EF000661F771F0A94D2F780899189A289B389E6
:100F0000480F591F6A1F7B1F400F511D611D711D26
:100F10008E819F8120E084960E94EB12892B09F438
:100F20006ECF88899989AA89BB890196A11DB11DB7
:100F3000888B998BAA8BBB8B81E090E020E030E01E
:100F4000821B930B61CFDF91CF911F910F91FF9087
:100F5000EF90DF90CF900895FC018081811114C043
:100F600080E2DF01982F1D929A95E9F777836683D7
:100F7000DB0115969C91903119F0903229F480E4B0
:100F8000808381E08283089580E00895CF93DF938A
:100F9000EC010E947E051882DF91CF910895CF92D7
:100FA000DF92EF92FF920F931F93CF93DF93CDB712
:100FB000DEB7E3970FB6F894DEBF0FBECDBF7C015E
:100FC0008B015BAB4AABD22E19821A82FC01808165
:100FD000882311F080E059C0FB0180818077D1F334
:100FE000EAA9FBA980818F32D9F4EAA9FBA9808103
:100FF0008F3221F43196FBABEAABF7CFF801668173
:101000007781811104C0C7010E94AC073EC0CE01A8
:1010100001960E94AC078823E9F28E010F5F1F4FF3
:1010200080E2C82EAE014E5C5F4FBE016F5D7F4F08
:101030008AA99BA90E94DA1A882361F2EAA9FBA96E
:1010400080818823D1F021E0AE014F5D5F4FB80170
:10105000C7010E945E17882309F4BCCFF701DE01A7
:1010600011968C2D01900D928A95E1F7C7010E948F
:10107000C6078E010F5F1F4FD5CF2D2DAE014F5DDF
:101080005F4FB801C7010E945E17E3960FB6F89450
:10109000DEBF0FBECDBFDF91CF911F910F91FF90AB
:1010A000EF90DF90CF9008953F924F925F926F92B2
:1010B0007F928F929F92AF92BF92CF92DF92EF92E8
:1010C000FF920F931F93CF93DF93CDB7DEB728978F
:1010D0000FB6F894DEBF0FBECDBF4C01DC011296F7
:1010E0008C911297806812968C9312971C964D9053
:1010F0005D906D907C901F971696AD90BC90179761
:10110000411451046104710461F4D50118968D9164
:101110009D910D90BC91A02D8D839E83AF83B88748
:1011200004C04D825E826F827886CD80DE80EF8043
:10113000F884BFEFCB1ADB0AEB0AFB0AF501808DBE
:10114000918DA28DB38D8C159D05AE05BF0528F43C
:1011500082E0C82ED12CE12CF12C9E012F5F3F4F55
:10116000B701A601C5010E94931387FD20C0882303
:1011700041F089819A81AB81BC81892B8A2B8B2B91
:1011800051F08D819E81AF81B885C816D906EA06D7
:10119000FB0679F60CC00FEF1FEF2FEF3FE0B70112
:1011A000A601C5010E943013382E811102C0312CD6
:1011B0002BC0411451046104710451F09701860160
:1011C000B301A201C5010E943013811108C0EFCF05
:1011D000D5011896CD92DD92ED92FC921B97F50108
:1011E00080A191A1A2A1B3A1B7FD07C00197A10958
:1011F000B10980A391A3A2A3B3A3D4011C96CD925D
:10120000DD92ED92FC921F97832D28960FB6F894ED
:10121000DEBF0FBECDBFDF91CF911F910F91FF9029
:10122000EF90DF90CF90BF90AF909F908F907F9086
:101230006F905F904F903F9008958F929F92AF92E2
:10124000BF92EF92FF920F931F93CF93DF93EC0126
:10125000888185FF02C010E06CC088899989AA89BD
:10126000BB8981159E4FAF41B105A8F7CE010E9401
:101270005408182F882379F3EE81FF814C855D8512
:101280006E857F854250510961097109048004C04F
:10129000440F551F661F771F0A94D2F780889188E4
:1012A000A288B388840E951EA61EB71E25E0B50140
:1012B000A401CF0184960E94EB127C01892B59F284
:1012C00080E092E0D701FC011D923197E9F701E03F
:1012D000EE81FF8192810917A8F480819181DC0160
:1012E000ED91FC910480F581E02D9701B501A401F9
:1012F000400F511D611D711D0995882309F4ABCF65
:101300000F5FE6CF492F50E060E070E089E0440FC6
:10131000551F661F771F8A95D1F788899989AA89F1
:10132000BB89480F591F6A1F7B1F488B598B6A8BDB
:101330007B8B812FDF91CF911F910F91FF90EF90C9
:10134000BF90AF909F908F900895AF92BF92CF9231
:10135000DF92EF92FF920F931F93CF93DF93CDB75E
:10136000DEB7A0970FB6F894DEBF0FBECDBF8C01DD
:10137000DB019C91907709F4CEC07B0123ECC8017E
:101380000E945E17882309F4C6C081E0F8018283B9
:1013900050E1D52ED082C8010E941D09882309F48E
:1013A000BAC0F80184859585A685B785848F958F09
:1013B000A68FB78F40E050E0BA01C8010E94E10556
:1013C000C8010E947E05882309F4A5C0D80154965F
:1013D0004D915D916D917C91579716968D919C9151
:1013E000179721E084960E94EB12009709F493C0AE
:1013F000F801248135812F70332745E0220F331FF8
:101400004A95E1F7820F931FDC011B96DC9220E2E4
:10141000FC01DE01119601900D922A95E1F7FC0185
:10142000A488B588C28CD38C8EE28983FE01329663
:10143000CE010C9620E22193E817F907E1F7D801D5
:101440001696ED91FC9117975C964D915D916D917B
:101450007C915F974250510961097109048004C071
:10146000440F551F661F771F0A94D2F78089918910
:10147000A289B389480F591F6A1F7B1F21E0CF0142
:1014800084960E94EB12009709F445C0BE8AAD8A8B
:10149000DC8ECB8E20E2FE013196DC0101900D92B4
:1014A0002A95E1F72EE22A83F701448D558D668D4A
:1014B000778D7E8B6D8B5C8F4B8F20E2FE0131969A
:1014C000DC01909601900D922A95E1F7D8011696CD
:1014D0000D911C911797C80184960E949112882340
:1014E000D1F0F80180819181DC01ED91FC910280C5
:1014F000F381E02DA0960FB6F894DEBF0FBECDBFEE
:10150000DF91CF911F910F91FF90EF90DF90CF90DF
:10151000BF90AF90099480E0A0960FB6F894DEBF1C
:101520000FBECDBFDF91CF911F910F91FF90EF9034
:10153000DF90CF90BF90AF9008958F929F92AF921F
:10154000BF92CF92DF92EF92FF92FC01828128E559
:1015500032E06901C81AD10887FDD394CC0CDD1C98
:10156000CC0CDD1C0D2C000CEE08FF08818128E856
:1015700030E04901881A910887FD9394880C991CE2
:10158000880C991C092C000CAA08BB0880818F3F8D
:10159000C1F090E0FC01EE0FFF1F8E0F9F1FFC01BA
:1015A000E85FFD4F2181328143E0220F331F4A95CE
:1015B000E1F754E0369527955A95E1F72E5F3F4FB6
:1015C00002C020E030E02F5F3F4FC901330FAA0B6C
:1015D000BB0B9C01AD01281939094A095B09A4EB31
:1015E000B0E00E946E2FA7019601281939094A0917
:1015F0005B090E944F2FC901FF90EF90DF90CF90C1
:10160000BF90AF909F908F900895CF92DF92EF920E
:10161000FF92CF93DF93EC01603282E078070CF009
:101620003DC077FD06C0653B71052CF064EB70E0B2
:1016300002C060E070E0898128E830E06901C81AE2
:10164000D10887FDD394CC0CDD1CCC0CDD1C0D2CFB
:10165000000CEE08FF088A8128E532E0281B3109DA
:1016600087FD3395220F331F220F331FC901330F1C
:10167000AA0BBB0B9C01AD012C193D094E095F095A
:10168000DB010E94792F24EB30E040E050E00E9423
:101690004F2FC20ED31EE41EF51EB60188818C307A
:1016A00080F5998148E850E0491B510997FD539511
:1016B000440F551F440F551F6417750784F09A8116
:1016C00028E532E0291B310997FD3395220F331F9E
:1016D000220F331FAB01261737070CF4A901425024
:1016E0005109440F551F2FB7F89490E0FC01EE0FFD
:1016F000FF1F8E0F9F1FFC01E85FFD4F5283418348
:101700002FBFDF91CF91FF90EF90DF90CF900895A2
:10171000FC01909131029C30A0F481E0890F80930C
:1017200031029083892F90E0FC01EE0FFF1F8E0F96
:101730009F1FFC01E85FFD4F88EB9BE09283818354
:1017400008958FEF808308951F920F920FB60F9226
:1017500011242F933F934F935F936F937F938F93B6
:101760009F93AF93BF93EF93FF938091300287FFD6
:1017700005C010928500109284001BC02091300299
:10178000022E000C330B8091310290E028173907AC
:1017900084F480913002082E000C990BFC01EE0FAE
:1017A000FF1F8E0F9F1FFC01E85FFD4F808186FDAC
:1017B00015C0809130028F5F8093300220913002FB
:1017C000022E000C330B8091310290E0281739076C
:1017D000C4F4809130028C3064F113C080913002E7
:1017E000082E000C990BFC01EE0FFF1F8E0F9F1FA0
:1017F000FC01E85FFD4F808160E08F730E948A0FDB
:10180000D8CF8091840090918500049680349C49C3
:1018100018F480E49CE905C08091840090918500D3
:10182000049690938900809388008FEF8093300214
:101830003BC0209184003091850080913002082EB9
:10184000000C990BFC01EE0FFF1F8E0F9F1FFC0178
:10185000E85FFD4F81819281820F931F90938900F1
:101860008093880080913002082E000C990BFC01B7
:10187000EE0FFF1F8E0F9F1FFC01E85FFD4F808161
:1018800086FF12C080913002082E000C990BFC01DB
:10189000EE0FFF1F8E0F9F1FFC01E85FFD4F808141
:1018A00061E08F730E948A0FFF91EF91BF91AF911A
:1018B0009F918F917F916F915F914F913F912F9168
:1018C0000F900FBE0F901F901895CF93DF93EC01F0
:1018D00088E290E00E94CA156A817B818BE392E0E6
:1018E0000E940B178CE290E00E94CA156C817D81EA
:1018F0008BE392E00E940B178CE290E00E94CA15E5
:101900006E817F818BE392E00E940B1789E290E069
:101910000E94CA1564E070E080E090E0DF91CF9112
:101920000C94F60FCF93DF93EC010E949D0A29855A
:101930003A854B855C85DC010E94792F6C507E4F87
:101940008F4F9F4F28EE33E040E050E00E944F2F32
:101950008D819E81AF81B885820F931FA41FB51F13
:10196000DF91CF910895CF93DF93EC01CB010E94DB
:10197000920CBC0199878887E881F9810480F58100
:10198000E02DCE0109959B838A83E881F9816885E2
:1019900079850084F185E02DCE0109959D838C83A6
:1019A000DF91CF910895CF93DF93EC01CB010E949B
:1019B000920C9F838E83DF91CF910895CF93DF9315
:1019C000EC01CB010E94920CBC0199878887E881C9
:1019D000F9810084F185E02DCE0109959D838C83EA
:1019E000E881F981688579850480F581E02DCE0153
:1019F00009959B838A83DF91CF9108958F929F925F
:101A0000AF92BF92CF92DF92EF92FF920F931F930C
:101A1000CF93DF93EC01298130E0F901E85CF84FC6
:101A20008491F901E558FB4F0491F901E959FB4F05
:101A300014911123A1F081110E94610FE12FF0E0B8
:101A4000EE0FFF1FE35AFB4FA591B491EC91E023F9
:101A500091E080E009F490E0E92EF82E02C0E12C3C
:101A6000F12C61E089810E948A0F83E090E0019768
:101A7000F1F70E9430104B015C0124E6820E911CAC
:101A8000A11CB11CC12CD12C00E010E098819E302B
:101A900008F09E509770906490937C0080917A003B
:101AA000806480937A0080917A0086FDFCCF8091DB
:101AB00078002091790090E0922B2A8130E028175D
:101AC000390724F4C80ED91E0F5F1F4F02331105CA
:101AD00038F40E943010681579058A059B05B0F22C
:101AE000EF2841F460E089810E948A0F83E090E052
:101AF0000197F1F7B801660F771F660F771FCB01CB
:101B0000969587958C0D9D1D0E949C2F862FDF91A9
:101B1000CF911F910F91FF90EF90DF90CF90BF90EA
:101B2000AF909F908F900895FF920F931F93CF9344
:101B3000DF938C01F62EEC01C55DDD4FCE010E94D6
:101B4000C607B801CE010E94AC07882371F0FF20C0
:101B500061F090917905907739F029E735E030937D
:101B60002D0220932C0201C080E0DF91CF911F91C4
:101B70000F91FF900895FF920F931F93CF93DF93E0
:101B8000CDB7DEB7A0970FB6F894DEBF0FBECDBFBE
:101B9000FB01F42E19821A8220812F3239F421811F
:101BA000211104C0642F0E94940D25C08C01055D95
:101BB0001D4F21E0AF01B801CE0101960E94CF0771
:101BC0008823C9F099819077A9F090E2FE013196BF
:101BD000D80101900D929A95E1F7FF2061F0909164
:101BE0007905907741F029E735E030932D02209375
:101BF0002C0201C080E0A0960FB6F894DEBF0FBEA5
:101C0000CDBFDF91CF911F910F91FF900895FC01FF
:101C1000538D448D252F30E0842F90E0821B930B51
:101C2000541710F0CF96089501970895FC01918DF7
:101C3000828D981761F0828DDF01A80FB11D5D962E
:101C40008C91928D9F5F9F73928F90E008958FEF9C
:101C50009FEF0895FC01918D828D981731F0828D50
:101C6000E80FF11D858D90E008958FEF9FEF0895A7
:101C7000FC01918D228D892F90E0805C9F4F821B0B
:101C800091098F73992708958BE392E00E94380E93
:101C900021E0892B09F420E0822F0895FC01848D36
:101CA000DF01A80FB11DA35ABF4F2C91848D90E086
:101CB00001968F739927848FA689B7892C93A08961
:101CC000B1898C9180648C93938D848D981306C018
:101CD0000288F389E02D80818F7D80830895EF92C3
:101CE000FF920F931F93CF93DF93EC0181E0888FD6
:101CF0009B8D8C8D981305C0E889F989808185FDBD
:101D000024C0F62E0B8D10E00F5F1F4F0F731127AD
:101D1000E02E8C8DE8120CC00FB607FCFACFE889D4
:101D2000F989808185FFF5CFCE010E944E0EF1CF5B
:101D30008B8DFE01E80FF11DE35AFF4FF0820B8FF0
:101D4000EA89FB898081806207C0EE89FF89608310
:101D5000E889F98980818064808381E090E0DF9167
:101D6000CF911F910F91FF90EF900895CF93DF9344
:101D7000EC01888D8823C9F0EA89FB89808185FD83
:101D800005C0A889B9898C9186FD0FC00FB607FCE4
:101D9000F5CF808185FFF2CFA889B9898C9185FF25
:101DA000EDCFCE010E944E0EE7CFDF91CF91089587
:101DB00080E090E0892B29F00E94440E81110C9460
:101DC000000008953FB7F89480913702909138024F
:101DD000A0913902B0913A0226B5A89B05C02F3FC9
:101DE00019F00196A11DB11D3FBFBA2FA92F982F41
:101DF0008827820F911DA11DB11DBC01CD0142E0BC
:101E0000660F771F881F991F4A95D1F708950E9482
:101E1000CA2F1F920F920FB60F9211242F933F9348
:101E20004F935F936F937F938F939F93AF93BF93E2
:101E3000EF93FF938BE392E00E944E0EFF91EF91A0
:101E4000BF91AF919F918F917F916F915F914F91D2
:101E50003F912F910F900FBE0F901F9018951F92DA
:101E60000F920FB60F9211242F938F939F93EF939E
:101E7000FF93E0914B02F0914C028081E09151027E
:101E8000F091520282FD12C09081809154028F5FC6
:101E90008F7320915502821751F0E0915402F0E0C7
:101EA000E55CFD4F958F8093540201C08081FF91C6
:101EB000EF919F918F912F910F900FBE0F901F90D8
:101EC0001895833081F028F4813099F08230A1F0A8
:101ED00008958730A9F08830B9F08430D1F480912A
:101EE00080008F7D03C0809180008F778093800079
:101EF000089584B58F7702C084B58F7D84BD089521
:101F00008091B0008F7703C08091B0008F7D809367
:101F1000B00008951F93CF93DF93282F30E0F9018D
:101F2000E85CF84F8491F901E558FB4FD491F90131
:101F3000E959FB4FC491CC23C9F0162F81110E949F
:101F4000610FEC2FF0E0EE0FFF1FE25DF84FA5915F
:101F5000B4918FB7F894111105C09C91ED2FE095C5
:101F6000E92302C0EC91ED2BEC938FBFDF91CF9171
:101F70001F910895CF93DF9390E0FC01E558FB4F4C
:101F80002491FC01E959FB4F8491882361F190E091
:101F9000880F991FFC01EC56FE4FC591D491FC01AE
:101FA000E25DF84FA591B491611109C09FB7F89413
:101FB0008881209582238883EC912E230BC0623088
:101FC00061F49FB7F8943881822F809583238883AA
:101FD000EC912E2B2C939FBF06C08FB7F894E8810D
:101FE0002E2B28838FBFDF91CF9108958F929F92E0
:101FF000AF92BF92CF92DF92EF92FF926B017C0182
:102000000E94E20E4B015C01C114D104E104F10411
:10201000F1F00E94E20EDC01CB0188199909AA09AE
:10202000BB09883E9340A105B10570F321E0C21AB7
:10203000D108E108F10888EE880E83E0981EA11C03
:10204000B11CC114D104E104F10419F7DDCFFF90F4
:10205000EF90DF90CF90BF90AF909F908F900895BA
:102060002FB7F89460913302709134028091350259
:10207000909136022FBF08951F920F920FB60F92C4
:1020800011242F933F938F939F93AF93BF9380918E
:10209000330290913402A0913502B0913602309112
:1020A000320223E0230F2D3720F40196A11DB11D2C
:1020B00005C026E8230F0296A11DB11D2093320210
:1020C0008093330290933402A0933502B09336028A
:1020D0008091370290913802A0913902B0913A0272
:1020E0000196A11DB11D8093370290933802A093F1
:1020F0003902B0933A02BF91AF919F918F913F9176
:102100002F910F900FBE0F901F9018958EBD0DB49C
:1021100007FEFDCF08958FEF8EBD0DB407FEFDCFF6
:102120008EB50895CF93DF93FC012581222361F0C2
:10213000EC010380F481E02D61E082810E948A0F2E
:102140008FEF0E9486101D82DF91CF9108950F932B
:102150001F93CF93DF938C01862FEA010E94861094
:1021600088818EBD8981FE013296DE5F0DB407FE47
:10217000FDCF8EBDEC17FD0711F08191F7CF0DB4A7
:1021800007FEFDCF8FEF0E9486108FEF0E94861012
:102190000E948B10F8018683982F9F71953039F03B
:1021A00087E58283C8010E94921080E001C081E02F
:1021B000DF91CF911F910F910895CF93DF93FC0191
:1021C0002581211110C0EC010380F481E02D908164
:1021D00081819CBD8DBDEB81FC8160E082810E948C
:1021E0008A0F81E08D83DF91CF910895EF92FF9266
:1021F0001F93CF93DF9300D000D0CDB7DEB77C0123
:10220000162F29833A834B835C83FC0185818111DE
:1022100003C0C7010E94DD100E947A14812F8064E0
:102220000E9486108C810E9486108B810E948610ED
:102230008A810E94861089810E948610112311F0E4
:1022400087E801C085E90E9486101C3011F40E94C5
:102250008B1010E00E948B10F701868387FF04C06B
:102260001F3F11F01F5FF6CF0F900F900F900F9050
:10227000DF91CF911F91FF90EF900895CF92DF9261
:10228000EF92FF920F931F93CF93DF93EC016A01BC
:102290007B0189018C85823049F488859985AA85DE
:1022A000BB8584179507A607B70719F1E881F9815F
:1022B0000280F381E02DCE0109958823C9F18F8139
:1022C000A7019601833039F089E0220F331F441FA4
:1022D000551F8A95D1F769E1CE010E94F610882337
:1022E00011F083E30BC0C886D986EA86FB8682E0BC
:1022F0008C870E947A14811103C08AE58A8307C003
:10230000A8016CEFCE010E94A710811105C0CE017B
:102310000E94921080E00CC0488559856A857B85B3
:102320004F5F5F4F6F4F7F4F488759876A877B8723
:10233000DF91CF911F910F91FF90EF90DF90CF90A1
:1023400008951F93CF93DF93EC018C858130A9F41E
:102350001C8620E030E0A9016CE0CE010E94F6105E
:10236000882339F088E28A83CE010E94921010E01F
:1023700017C0CE010E94921012C0823081F41C86D8
:102380000E947A14182F882321F08DEF0E94861066
:1023900002C086E58A83CE010E94921001C011E03E
:1023A000812FDF91CF911F910895CF92DF92EF920D
:1023B000FF920F931F93CF93DF93EC016A017B0190
:1023C00089018C85813049F488859985AA85BB85EA
:1023D000481759076A077B0741F1E881F9810280B4
:1023E000F381E02DCE0109958823B9F08F81A701F3
:1023F0009601833039F089E0220F331F441F551FA7
:102400008A95D1F762E1CE010E94F610882339F057
:1024100081E38A83CE010E94921080E018C0C886B2
:10242000D986EA86FB8681E08C87B801CE010E94BE
:102430004816882391F3488559856A857B854F5FC7
:102440005F4F6F4F7F4F488759876A877B87DF9140
:10245000CF911F910F91FF90EF90DF90CF90089553
:102460000F931F93CF93DF93EC0189018F8183300A
:1024700039F089E0440F551F661F771F8A95D1F701
:102480009A01AB0168E1CE010E94F610882319F091
:1024900082E38A830CC0A8016EEFCE010E94A710D0
:1024A000182F882321F0CE010E94921004C0CE0183
:1024B0000E94921010E0812FDF91CF911F910F9118
:1024C00008950F931F93CF93DF93EC0189018F81C0
:1024D000833039F089E0440F551F661F771F8A95B6
:1024E000D1F79A01AB0161E1CE010E94F610882379
:1024F00019F080E38A830BC0B801CE010E94481610
:10250000182F882321F0CE010E94921004C0CE0122
:102510000E94921010E0812FDF91CF911F910F91B7
:1025200008958F929F92AF92BF92EF92FF921F9366
:10253000CF93DF93DC012C9120FF41C0EC017C01A3
:10254000B7E0EB0EF11CE981FA8180819181DC0119
:10255000ED91FC914B815C816D817E810480F581E0
:10256000E02D97010995182F811102C010E028C0B5
:10257000888181FD04C088818E7F888321C0A981E4
:10258000BA818D919C911197FC01208131811C961B
:102590008D909D90AD90BC901F974B815C816D811B
:1025A0007E81480D591D6A1D7B1DD9011496ED9140
:1025B000FC911597970109958111DDCFD7CF11E0D7
:1025C000812FDF91CF911F91FF90EF90BF90AF903F
:1025D0009F908F900895CF92DF92EF92FF921F937A
:1025E000CF93DF93EC016A017B01122F8B819C81D9
:1025F000AD81BE8184179507A607B70719F1CE01F3
:102600000E949112811103C080E090E021C012FF6E
:1026100006C01882CB82DC82ED82FE8213C0E98183
:10262000FA8180819181DC01ED91FC910190F08132
:10263000E02D9E01295F3F4FB701A6010995811149
:10264000E8CFE2CF13708881182B1883CE0107964C
:10265000DF91CF911F91FF90EF90DF90CF90089581
:102660008F929F92AF92BF92CF92DF92EF92FF92A2
:102670000F931F936A017B0148015901FC012581D9
:10268000203251F5448955896689778997018601F9
:10269000E7E03695279517950795EA95D1F7400F0E
:1026A000511F621F731F23E084960E94EB12009754
:1026B00011F480E02DC0E894C7F8DD24EE24FF2457
:1026C000CC0CDD1CCC0CDD1CFC01EC0DFD1D808256
:1026D0009182A282B3821BC0203159F7FC01448948
:1026E0005589668977894D0D511D611D711D23E046
:1026F00084960E94EB120097E1F2DD24EE24FF2481
:10270000CC0CDD1CFC01EC0DFD1D9182808281E072
:102710001F910F91FF90EF90DF90CF90BF90AF90FF
:102720009F908F900895CF92DF92EF92FF920F9338
:102730001F93CF93DF93EC016A017B0189018D81A7
:10274000803251F58C899D89AE89BF89E7E0769505
:10275000679557954795EA95D1F7480F591F6A1F16
:102760007B1F22E0CE0184960E94EB12009711F4A9
:102770008FEF40C0E894C7F8DD24EE24FF24CC0C92
:10278000DD1CCC0CDD1CFC01EC0DFD1D808191815C
:10279000A281B381BF701DC0803151F74C895D8922
:1027A0006E897F894D0D511D611D711D22E0CE0185
:1027B00084960E94EB120097D9F2DD24EE24FF24C8
:1027C000CC0CDD1CFC01EC0DFD1D80819181A0E095
:1027D000B0E0488D598D6A8D7B8D481759076A077F
:1027E0007B0738F0F80180839183A283B38381E073
:1027F00001C080E0DF91CF911F910F91FF90EF908A
:10280000DF90CF9008956115710579F0FB0101907B
:102810000020E9F73197AF01461B570BDC01ED9122
:10282000FC910280F381E02D099480E090E008950E
:102830000F931F930E9430106093430270934402E1
:102840008093450290934602E0913B02F0913C0256
:102850000484F585E02D8BE392E0099597FF1FC076
:102860000E943010009143021091440220914502D1
:1028700030914602DC01CB01801B910BA20BB30B04
:1028800000913F021091400220914102309142029A
:1028900080179107A207B307B8F28FEF9FEF1F9140
:1028A0000F910895EBE3F2E0A089B18982E08C9367
:1028B000A485B5851C92A685B7858FEC8C93108E68
:1028C000A489B58986E08C93A289B3898C918061B3
:1028D0008C93A289B3898C9188608C93A289B389E7
:1028E0008C9180688C930288F389E02D80818F7DA4
:1028F00080830895CF93DF930E943010EB010E94F4
:102900008B108F3F49F00E9430106C1B7D0B693596
:102910007240A8F380E001C081E0DF91CF9108957B
:102920008F929F92AF92BF92CF92DF92EF92FF92DF
:10293000CF93C82F1092530381E090E0A0E0B0E065
:102940008093560390935703A0935803B093590371
:102950008EE493E090937403809373031092720358
:102960008FEF9FEFDC018093750390937603A09324
:102970007703B0937803CC2331F1C53008F0E7C07A
:1029800020E040E050E0BA0182E793E00E94EB12C1
:10299000009709F4DCC020E1C29F800D911D112435
:1029A0004097FC01E254FE4F20812F7709F0CFC001
:1029B000389680809180A280B38081149104A10414
:1029C000B10421F4C4C0812C912C540120E0B50144
:1029D000A40182E793E00E94EB12FC01892B09F429
:1029E000B6C0838594858115924009F0B0C0808976
:1029F000823009F0ACC0468557854115510509F470
:102A0000A6C02585209350038FEF820F809351033A
:102A100080E091E0291751F031E0380F393019F496
:102A20008093520394C0990F832FF4CF8093520365
:102A3000C688D788C114D10419F0E12CF12C04C048
:102A4000C4A0D5A0E6A0F7A0C0925A03D0925B0321
:102A5000E0925C03F0925D03D501C401840F951FE1
:102A6000A11DB11D8093620390936303A09364033F
:102A7000B093650321893289309355032093540321
:102A8000CC0CDD1CEE1CFF1CC80ED91EEA1EFB1E62
:102A9000C0926A03D0926B03E0926C03F0926D03D4
:102AA00055E0220F331F5A95E1F721503E4F232F57
:102AB00033272695C20ED31EE11CF11CC0925E0383
:102AC000D0925F03E0926003F0926103238934891E
:102AD0002115310521F0C901A0E0B0E004C080A1BA
:102AE00091A1A2A1B3A1B501A4014C195D096E0980
:102AF0007F09480F591F6A1F7B1F0090520304C0B3
:102B000076956795579547950A94D2F7DB01CA01E8
:102B10000196A11DB11D8093660390936703A09356
:102B20006803B09369038FEF9FEFDC0180936E031E
:102B300090936F03A0937003B0937103453F8FE0B0
:102B400058076105710528F48CE08093530380E0F9
:102B500017C0453F5F4F6105710510F480E10DC05E
:102B600084A595A5A6A5B7A580936A0390936B034A
:102B7000A0936C03B0936D0380E28093530381E0D4
:102B8000CF91FF90EF90DF90CF90BF90AF909F904C
:102B90008F900895682F8BE392E00C946F0EFF9254
:102BA0000F931F93CF93DF9300D000D0CDB7DEB744
:102BB0000E941814FC0197FD11C08D32910591F00F
:102BC000C0970A9778F0E0913B02F0913C020284B2
:102BD000F385E02D8BE392E00995EACF60E070E0A9
:102BE000CB014CC020E030E0A901F12CE130F1052F
:102BF000F1F0ED32F105C9F0CF01C0970A97B8F4B2
:102C0000AAE0B0E00E946E2F8F01FF0F220B330B62
:102C1000DC01CB01800F911FA21FB31F9C01AD01EE
:102C2000205331094109510902C0FF24F394E09176
:102C30003B02F0913C020284F385E02D8BE392E0AD
:102C400029833A834B835C8309950E941814FC0105
:102C5000C09729813A814B815C810A9738F2E13033
:102C6000F10521F2FF2041F066277727CB01621B97
:102C7000730B840B950B02C0CA01B9010F900F9022
:102C80000F900F90DF91CF911F910F91FF900895BA
:102C9000EF92FF920F931F93CF93DF93EC017B0191
:102CA0000E9430108B010E948B108E838F3F49F45D
:102CB0000E943010601B710B6D327140A0F385E5EE
:102CC00003C08E3F39F080E58A83CE010E949210C6
:102CD00080E01BC08FEF8EBDF701D701A150BE4F22
:102CE0009FEF0DB407FEFDCF8EB59EBD8193EA1711
:102CF000FB07B9F70DB407FEFDCF8EB58C931E828E
:102D00000E948B100E948B1081E0DF91CF911F9168
:102D10000F91FF90EF9008954F925F926F927F9284
:102D2000EF92FF920F931F93CF93DF93CDB7DEB750
:102D3000A1970FB6F894DEBF0FBECDBF7C01FA019C
:102D4000CB0119A2223008F42AE08E010F5D1F4F3B
:102D5000422E512C612C712CBF01A30192010E94C3
:102D60002D2FF901CA01015011096A3014F4605D78
:102D700001C0695CD8016C93232B242B252B61F7B0
:102D8000B801C7010E940314A1960FB6F894DEBFE4
:102D90000FBECDBFDF91CF911F910F91FF90EF90AC
:102DA0007F906F905F904F900895CF92DF92EF9257
:102DB000FF920F931F93CF93DF9377FF21C06A0198
:102DC0007B01EC01E881F9810190F081E02D6DE259
:102DD00009958C0144275527BA014C195D096E09E4
:102DE0007F092AE0CE010E948C16800F911FDF918F
:102DF000CF911F910F91FF90EF90DF90CF900895AA
:102E00002AE0DF91CF911F910F91FF90EF90DF901B
:102E1000CF900C948C16AB01770F660B770B0C944C
:102E2000D5166FEA71E00C940314CF93DF93AC01D5
:102E3000990F660B770B8BE392E00E94D516EC019D
:102E40008BE392E00E9411178C0F9D1FDF91CF91B1
:102E50000895EF92FF920F931F93CF93DF938C010E
:102E60007B01C0E0D0E0F701EC0FFD1F6491662309
:102E700061F0D801ED91FC910190F081E02DC80145
:102E80000995892B11F02196EECFCE01DF91CF91DC
:102E90001F910F91FF90EF900895CF93DF93BC01A6
:102EA0008BE392E00E942917EC018BE392E00E94F1
:102EB00011178C0F9D1FDF91CF9108952F923F9294
:102EC0004F925F926F927F928F929F92AF92BF923A
:102ED000CF92DF92EF92FF920F931F93CF93DF93E6
:102EE000CDB7DEB72D970FB6F894DEBF0FBECDBFBE
:102EF0006C017B01FA0181809280DB018C918077EB
:102F000009F444C0D6018C91811140C08081837046
:102F100009F422C3C4010C966DE070E00E949C2F5E
:102F200055245394560E2D835F0140E050E0BA01C2
:102F3000C7010E94E1051C861D861E82412C612C62
:102F4000712C1B861501B6E02B0E311CF701808910
:102F50009189A289B3899C01AD0195E05695479569
:102F6000379527959A95D1F72F83388749875A87C0
:102F70000F81188561E0C7010E94A506009741F402
:102F8000D70111968C91882309F4A8C080E0F9C27A
:102F9000FC012081253E11F021110CC0611004C0FC
:102FA0003F813C8738853D87651408F4639421117F
:102FB00005C094C0651408F4D2C202C0253EF1F1E8
:102FC0002E32E1F1DC011B963C911B973F3009F05A
:102FD00057C0711009C026FFB9CF2F71722E1D96F0
:102FE0002C912E83472C09C04A94241127C0DC0160
:102FF0001D962C913E81321321C0442D50E041504A
:1030000051096DE0649F9001659F300D11242815D2
:103010003905A0F4FC0170E0753018F481819281CB
:1030200007C07B3018F48481958102C08681978126
:103030002815390529F4892B09F488CF712C86CFFE
:103040008F3F910509F0D0F74FEB480F4A3110F050
:10305000682F02C060E2680FA9014F5F5F4FD50182
:1030600013968D919C911497DC01A20FB31F8C9144
:103070009FEB980F9A3108F4805E6813DFCF71C21E
:1030800033FDDCCF7720B9F0B1E04B127FCFFC01EC
:10309000AC01455F5F4F90E060E8969F900111247E
:1030A0009695922B2191920FE417F507A9F72E819F
:1030B00092136CCF0FC04BE050E0B1010E94CF2FB4
:1030C000892B09F043CFD5018C9180FF03C021E00B
:1030D0002B873CCFBD81B7FF6FC158CF8D818274E4
:1030E000823409F053CF662051F00C851D8507C04E
:1030F00060E0C7010E94A506892B21F06394651446
:10310000B8F315C0F7018181882389F03FCFC7014B
:103110000E941D09882309F439CFD7011696ED9135
:10312000FC9117978281823020F430E1630E6514A0
:1031300070F32B85222309F473C0D50115964C90AA
:1031400082E0682E712C1501B6E02B0E311C43C0B5
:10315000F3E0F41510F4A3E04A2E34E0340D282FE8
:103160002F70432F50E02A3008F053C0205DF50146
:10317000E40FF51F2683F4E096958795FA95E1F71D
:103180003150431660F3F501E40DF11D2EE726835F
:1031900040E050E0BA01C7010E94E10561E0C701CB
:1031A0000E94A5060097B9F1FC0120812223C1F1FC
:1031B000238523FDF3CF4BE050E0BC01C1010E9409
:1031C000CF2F892B59F7BFEF6B1A7B0AE4E66E16F7
:1031D000710409F4DBCEF50141815281C301840FF2
:1031E000951F0380F481E02D4E0F5F1FE417F50754
:1031F00009F4AECF9C01B5E0220F331FBA95E1F779
:10320000820F931F2191022E000C330B82279327EC
:10321000EDCF295CACCFD70111968C918111B6CE40
:10322000A80160E070E0E5E0440F551F661F771FBE
:10323000EA95D1F7C7010E94E105882309F4A6CEDB
:1032400077247A94750C172D5FE0652E1501F6E052
:103250002F0E311C250121E1420E511C0DE01123DE
:1032600009F463C060E0C7010E94A506FC01892B38
:1032700009F48CCED70116962D913C911797D90160
:1032800094968C919497816094968C93612F1711EA
:1032900001C06064608363861486D10120E030E859
:1032A000239FC00111242695282B9D91290FA41539
:1032B000B505A9F72587138E128ED50113964D916A
:1032C0005C9114976F7170E061507109069F9001D5
:1032D000079F300D112460E02815390540F4DA010C
:1032E000A20FB31F8C91082E000C990B0AC081E02D
:1032F00090E02815390511F480E090E091958195D2
:103300009109653018F49283818307C06B3018F4FB
:103310009583848302C0978386836F5F2F5F3F4FBF
:1033200032966D30C9F611509ACFF7010089118994
:103330002289338945E036952795179507954A9553
:10334000D1F760E0C7010E94A506009709F41ECEE0
:1033500020E2DC011D922A95E9F7F50136962BE073
:10336000DC0101900D922A95E1F7F5012081287189
:10337000DC011C962C931C9721E238E251963C9379
:103380002E93509740E058E01F965C934E931E9703
:1033900053963C932E93529759963C932E9358975D
:1033A00057965C934E935697D7011696ED91FC91E4
:1033B000179784A1816084A380E2F60111928A9517
:1033C000E9F7D7011696AD90BC901797F601B78232
:1033D000A682158304835C968D919D910D90BC917E
:1033E000A02D80879187A287B3870F701127F501E1
:1033F000BB9695E0000F111F9A95E1F7E00FF11FC2
:10340000838583FF03C0D6011C92C0CDD501A00FD8
:10341000B11FD6968C918771D6018C939385987144
:1034200011F488608C93F60173828D81827319F098
:103430008081817141F78D818F70D60112968C93B6
:10344000F50187A190A5A1A5B2A5F601848B958B66
:10345000A68BB78B0A0D1B1DF801FF96408051808B
:10346000612C712CD2019927882736964080518093
:10347000612C712C482A592A6A2A7B2AFD81F4FF83
:1034800048C0411451046104710409F471C09E01E3
:103490002F5F3F4FB301A201C5010E949313F82E85
:1034A00087FDB1CF00E010E09801B301A201C50192
:1034B0000E943013882309F4A6CFD50190964D9130
:1034C0005D916D917C91939777FD09C04F5F5F4F40
:1034D0006F4F7F4FF50140A351A362A373A3D501A2
:1034E00018964D915D916D917C911B9744165506F0
:1034F0006606770628F4F501408651866286738653
:1035000049805A806B807C80F110C1CF811130C01E
:103510007ACFD6015C964D925D926D927C925F97C8
:10352000F801E95BFF4F80819181A281B381F601AF
:10353000808F918FA28FB38FFD81F5FF21C0D601BF
:1035400058964D915D916D917C915B97C6010E945B
:10355000E105811115C057CF55245394E4CC612C5B
:103560002FCD7F5F32967D3009F4F0CC9A0154CD97
:10357000D60112968C911297806812968C93DCCFAC
:1035800081E02D960FB6F894DEBF0FBECDBFDF9160
:10359000CF911F910F91FF90EF90DF90CF90BF9050
:1035A000AF909F908F907F906F905F904F903F90E3
:1035B0002F900895AF92BF92CF92DF92EF92FF9239
:1035C0000F931F93CF93DF93FB01DC0101962C91A6
:1035D0002032D9F3B483A3839D0189010A1B1B0BFD
:1035E000E90189919E018823C1F08F32B1F08C35B9
:1035F00011F480E0F2C0982F977F9232D1F38A3392
:10360000C1F3982F9F7B9C33A1F392EC980F9230DB
:1036100080F380528F3508F3ECCF0A0F1B1FC801CF
:10362000682F392FEC012991CE012032C9F32F32B6
:10363000B9F3EA016883398398012A1B3B0B0A1707
:103640001B0741F0E8018A918E018E32A9F3803286
:1036500099F303C0A12CB12C05C059012F3F3105AE
:1036600009F03CF6B282A182CF0106969F012F5E3F
:103670003F4F40E2EC014993CE01C217D307D1F787
:10368000CD01AC014A1B5B0BEC013991CE013E32FE
:10369000C1F33032B1F39A0191E0452B09F090E08B
:1036A000A5014150510938F0BD01640F751FEB01B0
:1036B00088818E32B1F717E060E000E070E088E0CA
:1036C000E82E2A153B050CF06CC06D01C20ED31E0E
:1036D000E6018881803209F45BC08E3229F44217FA
:1036E000530709F055C004C08232E1F08C37D1F0A5
:1036F000D6EDFD2EF80ED5E0DF1510F08D3291F4E9
:10370000C6ECFC2EF80EC5E0CF1560F4D5EAFD2E10
:10371000F80ED2E0DF1530F4CFEDFC2EF80ECDE53B
:10372000CF1520F42417350781F438C02417350746
:10373000A9F1161718F1F82ECFE9DC2ED80ED9E131
:10374000DD1548F080527E290CC01617B8F090E0C5
:103750008FE5CFE5FC2ECFEBFC0ED9E1DF1508F0AD
:103760000E29FF24F394F60E6F01C60ED11CE6015C
:103770008E83D6E0DF1570F0F5820CC01A3081F030
:10378000421753076CF09A011AE068E0D0E1ED2E81
:1037900090E001C06F2D2F5F3F4F93CF1A30B9F4E7
:1037A00090E08681803209F424CF992329F0072301
:1037B00009F072E0708309C081E080838581E80FA1
:1037C000F11D8EE7868381E3878381E006C09A013D
:1037D0001AE068E0D0E1ED2EDECFDF91CF911F91AE
:1037E0000F91FF90EF90DF90CF90BF90AF90089532
:1037F0002F923F924F925F926F927F928F929F9201
:10380000AF92BF92CF92DF92EF92FF920F931F93EE
:10381000CF93DF93EC015B014A01888183FF0EC0E7
:103820008A8181FF0BC082FF0FC0488D598D6A8D40
:103830007B8DCE010E94E105811106C089818160E6
:1038400089838FEF9FEF0DC1A40160E070E088894C
:103850009989AA89BB8980959095A095B095841780
:103860009507A607B70750F364011E018CE0280EE8
:10387000311C088919892A893B89C114D10409F4AA
:10388000D5C08E819F81B901A80129E07695679501
:10389000579547952A95D1F7DC011396FC90F422B1
:1038A0001170F11034C00115110589F54C855D8545
:1038B0006E857F85411551056105710569F091019E
:1038C0000E94931387FDBACF811121C0CE010E94BF
:1038D000540881111CC0B2CF8C8D9D8DAE8DBF8DD3
:1038E0000097A105B10579F4CE010E945408882300
:1038F00009F4A4CF8C859D85AE85BF858C8F9D8F67
:10390000AE8FBF8F04C08C879D87AE87BF87EE8147
:10391000FF814C855D856E857F8542505109610927
:103920007109048004C0440F551F661F771F0A9455
:10393000D2F780899189A289B389480F591F6A1FDC
:103940007B1F4F0D511D611D711D0115110521F4C6
:10395000C114B2E0DB06B0F580E092E0801B910B71
:1039600076018C159D0508F47C010115110579F48B
:10397000488859886A887B88888D998DAA8DBB8DE7
:10398000481659066A067B0610F025E001C021E0C2
:10399000CF0184960E94EB12009709F44FCFA70144
:1039A000B501800F911F0E94DC2F0E0D1F1D011508
:1039B000124059F58E819F8184960E949112811147
:1039C00024C03CCF87A190A5A1A5B2A584179507D7
:1039D000A607B70741F414A28FEF9FEFDC0187A37E
:1039E00090A7A1A7B2A7EE81FF8180819181DC0120
:1039F000ED91FC910480F581E02D950109958823D6
:103A000009F41CCFE12C82E0F82E88899989AA89D3
:103A1000BB898E0D9F1DA11DB11D888B998BAA8B13
:103A2000BB8BAE0CBF1CCE18DF0823CF888D998DC1
:103A3000AA8DBB8D80179107A207B30738F4088FB2
:103A4000198F2A8F3B8F8A8180688A838A8183FDC0
:103A500002C0C40106C0CE010E947E058111F9CFCB
:103A6000EDCEDF91CF911F910F91FF90EF90DF90FE
:103A7000CF90BF90AF909F908F907F906F905F900E
:103A80004F903F902F900895CF92DF92EF92FF9248
:103A90000F931F93CF93DF936C017A018B01C0E0EA
:103AA000D0E0CE15DF0589F0D8016D918D01D601EA
:103AB000ED91FC910190F081E02DC6010995892BD3
:103AC00011F47E0102C02196ECCFC701DF91CF91A6
:103AD0001F910F91FF90EF90DF90CF900895CF92BC
:103AE000DF92EF92FF920F931F93E82FF92F05C0FB
:103AF000015011092109310961F190819623941730
:103B0000B9F305C0015011092109310911F1908162
:103B100096239413F7CFC12CD12CE12CF12C0AC0A1
:103B20008FEFC81AD80AE80AF80A0C151D052E05E9
:103B30003F0579F080818623841791F36C2D7D2DCC
:103B40008E2D9F2D1F910F91FF90EF90DF90CF90C2
:103B5000089560E070E080E090E01F910F91FF9089
:103B6000EF90DF90CF900895CF93DF93CDB7DEB77E
:103B7000C359D1090FB6F894DEBF0FBECDBF7894FC
:103B800084B5826084BD84B5816084BD85B5826062
:103B900085BD85B5816085BD80916E008160809313
:103BA0006E0010928100809181008260809381007C
:103BB000809181008160809381008091800081608C
:103BC000809380008091B10084608093B1008091E7
:103BD000B00081608093B00080917A00846080930F
:103BE0007A0080917A00826080937A0080917A00D6
:103BF000816080937A0080917A00806880937A0057
:103C00001092C10010921C0310921D0310921E030B
:103C100010921F031092DA021092DB021092DC0263
:103C20001092DD020E9430106B017C014B015C019F
:103C300028EB820E2BE0921EA11CB11C0E943010BA
:103C40006C157D058E059F0528F086169706A8063B
:103C5000B906A0F78BE392E090931B0380931A03BD
:103C60000E9452140E9430106093DA027093DB02BB
:103C70008093DC029093DD0260EA71E080911A0388
:103C800090911B030E9403140E9430106B017C0171
:103C90004B015C013AE0830E911CA11CB11C0E94F7
:103CA00030106C157D058E059F0528F08616970649
:103CB000A806B906A0F781E08093EE020E94521494
:103CC00062EB71E08BE392E00E9403148BE392E0DD
:103CD0000E9411178BE392E00E94111788E19CEF7C
:103CE000AFEFBFEF8093C9069093CA06A093CB06AF
:103CF000B093CC0681EE90E0A0E0B0E08093C506E2
:103D00009093C606A093C706B093C8061092D0063B
:103D10001092CF0624EB30E03093D2062093D106E8
:103D20008AE590E09093D4068093D30648EE53E062
:103D300060E070E04093B4065093B5066093B60619
:103D40007093B706E3E8CE2EDD24DA94ED2CFD2C3B
:103D5000C092B006D092B106E092B206F092B306DD
:103D60001092BB061092BA063093BD062093BC0693
:103D70009093BF068093BE0640938A0650938B06AD
:103D800060938C0670938D061092860610928706BB
:103D90001092880610928906109291061092900651
:103DA0003093930620939206909395068093940601
:103DB00044EF51E060E070E040939F065093A0060E
:103DC0006093A1067093A20610929B0610929C0627
:103DD00010929D0610929E061092A6061092A506BD
:103DE0003093A8062093A7069093AA068093A9066D
:103DF000E0910F06F0911006C784D088EC96DFAEF4
:103E0000CEAEEC97812C912C54012FEF3FE7EA9630
:103E10003FAF2EAFEA9740E050E8E6965FAF4EAF77
:103E2000E6978FEF9FE7E8969FAF8EAFE897A0E009
:103E3000B0E8E496BFAFAEAFE4970D2C000CEE08EF
:103E4000FF08C257DF4FC882D982EA82FB82CE5870
:103E5000D040F8EE4F2EF3E05F2E612C712CE091F4
:103E60000F06F091100621893289EC968EAD9FAD38
:103E7000EC97880D991D821793070CF0E0C2E09033
:103E80002006F0902106EE96FFAEEEAEEE97AE96CF
:103E90001CAE1DAE1EAE1FAEAE97C257DF4FC88020
:103EA000D980EA80FB80CE58D040C80CD91CEA1CCF
:103EB000FB1CCE57DF4FC882D982EA82FB82C258F0
:103EC000D040EE96CEACDFACEE970D2C000CEE0899
:103ED000FF08C657DF4FC882D982EA82FB82CA58E0
:103EE000D0402091220630912306EE968EAD9FADF4
:103EF000EE97AC96AEADBFADAC978A0F9B1F821705
:103F000093070CF096C220904A0630904B06E2963A
:103F10001CAE1DAE1EAE1FAEE297AE96CCACDDACB5
:103F2000EEACFFACAE97C657DF4F288139814A818E
:103F30005B81CA58D040C20ED31EE41EF51EC25883
:103F4000DF4FC882D982EA82FB82CE57D04061011E
:103F5000032C000CEE08FF08CA57DF4FC882D98235
:103F6000EA82FB82C658D04020914C0630914D0623
:103F7000E0968EAD9FADE097820D931D821793075B
:103F80000CF047C200910F0610911006D80113964D
:103F9000ED90FC90149719966D917D918D919C9167
:103FA0001C97CE57DF4F288139814A815B81C258E7
:103FB000D0400E941D2F6C507E4F8F4F9F4FA3010A
:103FC00092010E944F2FF701C080D180F8018581B6
:103FD0009681A781B085BC01CD01620F731F841F3C
:103FE000951FD6011896ED91FC911997C701099577
:103FF0007C01009114061091150660911A067091CB
:104000001B0680911C0690911D06C258DF4F288127
:1040100039814A815B81CE57D0400E941D2F6C5060
:104020007E4F8F4F9F4FA30192010E944F2FD801C7
:10403000ED91FC918091160690911706A0911806BB
:10404000B0911906BC01CD01620F731F841F951F2B
:104050000084F185E02DC80109958E0D9F1DCE5677
:10406000DF4F99838883C259D04000913E0610915A
:104070003F066091440670914506809146069091F6
:104080004706E296CCACDDACEEACFFACE297CA578B
:10409000DF4F288139814A815B81C658D040C20EEA
:1040A000D31EE41EF51EAA96CCAEDDAEEEAEFFAE7C
:1040B000AA97A70196010E941D2F6C507E4F8F4F2B
:1040C0009F4FA30192010E944F2FD801ED91FC91C7
:1040D0008091400690914106A0914206B09143061E
:1040E000BC01CD01620F731F841F951F0084F185F1
:1040F000E02DC8010995CE56DF4FE880F980C259FE
:10410000D040E80EF91E00910F0610911006F8013C
:10411000C380D4806185728583859485CE57DF4FB7
:10412000288139814A815B81C258D0400E941D2F6D
:104130006C507E4F8F4F9F4FA30192010E944F2FD3
:10414000D6010D90BC91A02DCE56DF4FB983A88328
:10415000C259D040F80185819681A781B085BC0104
:10416000CD01620F731F841F951FCE56DF4FA881AC
:10417000B981C259D0401496ED91FC911597C601B2
:1041800009958C01C0901406D090150660911A060E
:1041900070911B0680911C0690911D06C258DF4F3E
:1041A000288139814A815B81CE57D0400E941D2FE2
:1041B0006C507E4F8F4F9F4FA30192010E944F2F53
:1041C000D601ED91FC918091160690911706A09171
:1041D0001806B0911906BC01CD01620F731F841F30
:1041E000951F0480F581E02DC6010995080F191F60
:1041F000C0903E06D0903F066091440670914506FF
:104200008091460690914706AA962CAD3DAD4EADE5
:104210005FADAA970E941D2F6C507E4F8F4F9F4F0E
:10422000A30192010E944F2FD601ED91FC91809144
:10423000400690914106A0914206B0914306BC0110
:10424000CD01620F731F841F951F0480F581E02D3F
:10425000C6010995080F191FE496CEACDFACE497B0
:10426000CE14DF0464F51093FC050093FB05F09277
:10427000FE05E092FD0563E871E08BE392E00E94A9
:10428000291769E671E08BE392E00E94291762E04A
:1042900070E080E090E00E94F60F89EF95E00E94C8
:1042A000650C8BE392E00E94111762E070E080E001
:1042B00090E00E94F60FE496FFAEEEAEE497E6962D
:1042C000CEACDFACE697C016D10664F51093E805D6
:1042D0000093E705F092EA05E092E90568E571E0F0
:1042E0008BE392E00E9429176EE371E08BE392E08A
:1042F0000E94291762E070E080E090E00E94F60FD3
:1043000085EE95E00E94650C8BE392E00E94111708
:1043100062E070E080E090E00E94F60FE6961FAF4A
:104320000EAFE697E896CEACDFACE897EC14FD0450
:1043300064F51093060600930506F0920806E092D5
:1043400007066DE271E08BE392E00E94291763E1BA
:1043500071E08BE392E00E94291762E070E080E058
:1043600090E00E94F60F83E096E00E94650C8BE3DC
:1043700092E00E94111762E070E080E090E00E94FD
:10438000F60FE896FFAEEEAEE897EA96CEACDFAC5D
:10439000EA970C151D0564F51093F2050093F105DD
:1043A000F092F405E092F30562E071E08BE392E0B5
:1043B0000E94291768EE70E08BE392E00E942917B3
:1043C00062E070E080E090E00E94F60F8FEE95E0F2
:1043D0000E94650C8BE392E00E94111762E070E08E
:1043E00080E090E00E94F60FEA961FAF0EAFEA97CA
:1043F000E2962CAD3DAD4EAD5FADE2972F5F3F4FE6
:104400004F4F5F4FE2962CAF3DAF4EAF5FAFE2979D
:10441000ABCDAE968CAD9DADAEADBFADAE970196BA
:10442000A11DB11DAE968CAF9DAFAEAFBFAFAE9725
:1044300058CDBFEF8B1A9B0AAB0ABB0A10CD67EDB4
:1044400070E08BE392E00E94291768EC70E08BE348
:1044500092E00E94291762E070E080E090E00E9404
:10446000F60F8FEE95E00E94650C8BE392E00E94C0
:10447000111762E070E080E090E00E94F60F67EBB9
:1044800070E08BE392E00E94291768EA70E08BE30A
:1044900092E00E94291762E070E080E090E00E94C4
:1044A000F60F85EE95E00E94650C8BE392E00E948A
:1044B000111762E070E080E090E00E94F60F67E97B
:1044C00070E08BE392E00E94291768E870E08BE3CC
:1044D00092E00E94291762E070E080E090E00E9484
:1044E000F60F83E096E00E94650C8BE392E00E9459
:1044F000111762E070E080E090E00E94F60F67E73D
:1045000070E08BE392E00E94291768E670E08BE38D
:1045100092E00E94291762E070E080E090E00E9443
:10452000F60F89EF95E00E94650C8BE392E00E9404
:10453000111762E070E080E090E00E94F60F68EEF4
:1045400073E080E090E00E94F60F70E5E72E76E0E1
:10455000F72E6701F601019111916F01D8018C913D
:1045600090E0FC01EE0FFF1F8E0F9F1FFC01E85F24
:10457000FD4F808153966D917C91549786FD04C0C8
:10458000C8010E94050B40C0F80187849088681517
:10459000790534F081889288681579050CF44B010F
:1045A000C8010E949D0A5C0134016A187B08F9F079
:1045B0000E9430101B012C01FFE02F0E311C411C0A
:1045C000511C0E9430106215730584059505C8F3CF
:1045D0001614170424F42FEFA21AB20A03C031E014
:1045E000A31AB108B501C8010E94050BDDCFD8019F
:1045F00013968D919C911497DC01ED91FC910190A3
:10460000F081E02DB8010995B8E5CB16B6E0DB06E0
:1046100009F0A0CF4CE0D42E52E0C52EF701019155
:1046200011917F01D8012C91822F90E0FC01EE0FB7
:10463000FF1F8E0F9F1FFC01E85FFD4F808186FDED
:1046400065C01D96BC902C3008F055C061E08B2DE4
:104650000E94BA0FF8018081E82FF0E09F01220F3D
:10466000331FE20FF31FE85FFD4F9B2D9F732081E7
:10467000207CB22EB92AB082D80111961C921197D3
:1046800012961C926D2D0E94902FBCE08B9FB00162
:10469000112440E050E09A01260F371FF901EE0F78
:1046A000FF1F2E0F3F1FF901E85FFD4F908196FD20
:1046B00015C04F5F5F4F4C30510569F781110EC037
:1046C00010928000C09281001092850010928400A8
:1046D000B19A80916F00826080936F00D801EC9155
:1046E000F0E0CF01880F991FE80FF91FE85FFD4F39
:1046F000808180648083F80183819481DC01ED9165
:10470000FC910190F081E02DB8010995B8E5EB1618
:10471000B6E0FB0609F082CF61E080910D060E94B1
:104720008A0F61E574E08BE392E00E9429178EE323
:1047300094E00E944D1762E070E080E090E00E94FB
:10474000F60F62E374E08BE392E00E94291786E1A2
:1047500094E00E944D1762E070E080E090E00E94DB
:10476000F60F1092A50510929E0510929B051092CF
:10477000A00586EA95E090939D0580939C050E9494
:1047800030108B01E0909C05F0909D058AE0F701C8
:10479000828361E00E94BA0F61E0D70112968C918A
:1047A0000E948A0FFFB6F89480912E02811127C0D3
:1047B000E1E7F4E08491E5E8F4E09491E82FF0E09B
:1047C000EE0FFF1FEC56FE4FA591B491EC91E9233B
:1047D00021F461E08AE00E948A0F61E08AE00E9491
:1047E000BA0F8CB580618CBD8CB580648CBD61E0E6
:1047F0008DE00E94BA0F61E08BE00E94BA0F8091B9
:104800002E028F5F80932E02FFBEE0919C05F091F7
:104810009D0582E58083118289E995E00E94DD1083
:10482000E0919C05F0919D0561E082810E948A0FD4
:10483000AAE0FA2E8FEF0E948610FA94F110FACFB8
:10484000E0919C05F0919D0560E082810E948A0FB5
:1048500020E030E0A90160E089E995E00E94F610CF
:10486000813049F00E943010601B710B613D774030
:1048700078F380E25AC02AEA31E040E050E068E094
:1048800089E995E00E94F610853011F481E00CC0B2
:10489000F4E0FF2E0E948B1080939F05FA94F11094
:1048A000F9CF8A3A59F482E08093A0058091A0055F
:1048B000823069F0C12CD12C76010EC00E943010DC
:1048C000601B710B613D7740B0F285E22EC0C12CB8
:1048D000D12CE12CE0E4FE2E20E030E0A90167E3DA
:1048E00089E995E00E94F610A701960169E289E93D
:1048F00095E00E94F610882349F00E943010601B5A
:10490000710B613D774040F383E40FC08091A005B7
:10491000823001F520E030E0A9016AE389E995E001
:104920000E94F610882341F087E380939B0589E974
:1049300095E00E94921043C00E948B10807C803CC6
:1049400019F483E08093A0050E948B100E948B10C5
:104950000E948B1089E995E00E949210E0919C05DD
:10496000F0919D0580E5808381E0818389E995E070
:1049700090934F0380934E0389E795E00E94C6070A
:1049800081E00E949014882349F06EE473E089E787
:1049900095E00E94AC07882391F006C080E00E9459
:1049A00090148111F2CF0BC090917905907739F076
:1049B00029E735E030932D0220932C0201C080E0DE
:1049C00080932F026AE074E08BE392E00E94291743
:1049D00080912F02811103C08CEF93E002C08DEE15
:1049E00093E00E944D1762E070E080E090E00E944A
:1049F000F60F80912F02882309F44CC18E010E5AC4
:104A00001F4F8AE0ECEEF1E0D80101900D928A95FB
:104A1000E1F719821A8221E0A80169E775E0CE0169
:104A200001960E94CF0781113CC061EE73E08BE3D9
:104A300092E00E94291719A21AA2A6961FAF0EAFE4
:104A4000A69719821A8280917905807709F020C58E
:104A50001EC060917F0570918005CE0101960E9475
:104A6000AC078823A1F09E012F5F3F4F790170E2D0
:104A7000D72EAE014C595F4FBE016F5B7F4FA6969C
:104A80008EAD9FADA6970E94DA1A811114C58AEAED
:104A900093E00E944D1762E070E080E090E00E9499
:104AA000F60F61E08EE493E00E94940D41E0B801BE
:104AB0008EE493E00E94BB0DC12CD12C4AE0642E01
:104AC000712C88248394912C62E0A62EB12C60EE88
:104AD00071E0CE0181960E94F02F1EA255E6C51608
:104AE000D10409F45BC0C601E12C8A30910530F095
:104AF000E394B3010E949C2FCB01F7CFF12CA401CA
:104B00004E195F096EE971E0CE018F5B9F4F0E94E5
:104B1000D92EF501EE19FF0981E490E08C0F9D1F5D
:104B2000E80FF91F1082BC0180970E94E52F4AE030
:104B3000BE01645A7F4FC6010E94E82EBE01645A2E
:104B40007F4FCE0181960E94E52F66EE71E0CE0187
:104B500081960E94E52F68EE71E0CE0181960E9459
:104B6000E52F9FEFC91AD90A19821A8221E0AE01F6
:104B70004F5D5F4F69E775E0CE0101960E94CF0758
:104B80008111A5CFBE016F5D7F4FCE0101960E94BE
:104B9000F02F61E08EE493E00E94940D6EE973E0E3
:104BA0008BE392E00E9429176BE873E08BE392E0BD
:104BB0000E942917BE016F5F7F4F8BE392E00E9436
:104BC00003148BE392E00E94111762E070E080E032
:104BD00090E00E94F60F6FE773E08BE392E00E9493
:104BE000291740E0B8018EE493E00E94BB0D8111CB
:104BF00003C083E693E002C084E593E00E944D1772
:104C000062E070E080E090E00E94F60F68E473E0FC
:104C10008BE392E00E94291760912C0270912D0283
:104C200022E4AE014F5F5F4F8EE293E00E94CF0718
:104C3000811103C08BE393E002C08DE293E00E94F8
:104C40004D1762E070E080E090E00E94F60F63E9AB
:104C500072E08AE293E00E94291763E572E08AE23B
:104C600093E00E9429176EE072E08AE293E00E94CE
:104C7000291762ED71E08AE293E00E94291769EA40
:104C800071E08AE293E00E9429178AE293E00E9491
:104C9000111704C085E193E00E944D1769E073E0AD
:104CA0008BE392E00E94291764EF72E08BE392E0BD
:104CB0000E94291783E293E00E94FE0C482F50E0E7
:104CC00060E070E02AE08BE392E00E948C168BE3B8
:104CD00092E00E94111762E070E080E090E00E9494
:104CE000F60F68EE72E08BE392E00E94291763ED05
:104CF00072E08BE392E00E94291780E293E00E9429
:104D0000FE0C482F50E060E070E02AE08BE392E078
:104D10000E948C168BE392E00E94111762E070E013
:104D200080E090E00E94F60F23E0E22EF12C33E2C7
:104D3000C32ED12C8BE392E00E9411176CE476E035
:104D40008BE392E00E94291762E070E080E090E03F
:104D50000E94F60F80EC96E00E949D0ABC018BE356
:104D600092E00E940B1764E476E08BE392E00E94ED
:104D7000291762E070E080E090E00E94F60F80EC7E
:104D800096E00E94920CBC018BE392E00E940B170C
:104D900082E496E00E944D1762E070E080E090E0CF
:104DA0000E94F60F65E276E08BE392E00E942917FD
:104DB00062E070E080E090E00E94F60F8BEA96E0FF
:104DC0000E949D0ABC018BE392E00E940B176DE1EB
:104DD00076E08BE392E00E94291762E070E080E0C9
:104DE00090E00E94F60F8BEA96E00E94920CBC01C4
:104DF0008BE392E00E940B178BE196E00E944D1727
:104E000062E070E080E090E00E94F60F6EEF75E0E7
:104E10008BE392E00E94291762E070E080E090E06E
:104E20000E94F60F86E996E00E949D0ABC018BE382
:104E300092E00E940B1766EF75E08BE392E00E9410
:104E4000291762E070E080E090E00E94F60F86E9AA
:104E500096E00E94920CBC018BE392E00E940B173B
:104E600084EF95E00E944D1762E070E080E090E0F2
:104E70000E94F60F67ED75E08BE392E00E94291720
:104E800062E070E080E090E00E94F60F81E896E03A
:104E90000E949D0ABC018BE392E00E940B176FEC0D
:104EA00075E08BE392E00E94291762E070E080E0F9
:104EB00090E00E94F60F81E896E00E94920CBC01FF
:104EC0008BE392E00E940B178DEC95E00E944D174A
:104ED00062E070E080E090E00E94F60F67EB75E022
:104EE0008BE392E00E94291762E070E080E090E09E
:104EF0000E94F60F0E9430104B015C01A0E18A0E67
:104F0000A7E29A1EA11CB11C8BE392E00E94380E0E
:104F1000892B11F50E94301086169706A806B9064F
:104F200098F70E9430104B015C01B0E18B0EB7E2A4
:104F30009B1EA11CB11C8BE392E00E94111761EA39
:104F400075E08BE392E00E94291762E070E080E058
:104F500090E00E94F60FD8CF0E94CF158B01CB01B5
:104F60000E9415170230110571F024F4013011056B
:104F700001F10CC003301105F9F00430110531F4D2
:104F800001E816E01BC00BEA16E018C086E995E0C0
:104F90000E944D1762E070E080E090E00E94F60F02
:104FA0008BE392E00E9411178BE392E00E94B60E11
:104FB0006CC200EC16E002C006E916E00E94301058
:104FC0004B015C01E0E18E0EE7E29E1EA11CB11CCC
:104FD00061E875E08BE392E00E94291762E070E0DF
:104FE00080E090E00E94F60F8BE392E00E94380E82
:104FF000892BC1F40E94301086169706A806B906C0
:1050000098F70E9430104B015C01F0E18F0EF7E23F
:105010009F1EA11CB11C8BE392E00E94111768E651
:1050200075E0D8CF0E94CF154B015C01CB010E94E7
:105030001517B4018BE392E00E940B1765E575E04C
:105040008BE392E00E94291762E070E080E090E03C
:105050000E94F60FB401C8010E94050BC8010E940E
:105060009D0ABC018BE392E00E940B1783E495E05C
:105070000E944D1762E070E080E090E00E94F60F21
:105080006FE275E08BE392E00E94291762E070E026
:1050900080E090E00E94F60F60E08091A9050E94F8
:1050A0008A0FC7010197F1F761E08091A9050E947D
:1050B0008A0FC6010197F1F760E08091A9050E946F
:1050C0008A0F8091AB059091AC059927FC01E558BA
:1050D000FB4F6491FC01E959FB4FE491F0E0EE0FC6
:1050E000FF1FE35AFB4F8591949103E61BE020E0FC
:1050F00030E0462F0E946F1D6115710581059105F5
:1051000041F0AB01BC014F5F5F4F6F4F7F4F7F702E
:1051100003C040E050E0BA018BE392E00E94D51654
:105120008BE392E00E94111762E070E080E090E073
:105130000E94F60F8091BF059091C005DC01ED91B2
:10514000FC916091B7057091B8050190F081E02D58
:1051500009958091C1059091C205DC01ED91FC910A
:105160006091B9057091BA050190F081E02D099523
:105170008091C3059091C405DC01ED91FC91609193
:10518000BB057091BC050190F081E02D09958091DF
:10519000C5059091C605DC01ED91FC916091BD05BE
:1051A0007091BE050190F081E02D09954091BF05F9
:1051B0005091C005A091C105B091C2056091C5058F
:1051C0007091C605FA012281338112968D919C91CE
:1051D0001397820F931FFB0122813381820F931F4C
:1051E0009093B0058093AF05FA0124813581149620
:1051F0008D919C911597820F931FDB0114962D9131
:105200003C911597820F931F9093B2058093B1053F
:10521000E091C305F091C405868197819093B40510
:105220008093B3056FE175E08BE392E00E9429174C
:1052300062E070E080E090E00E94F60F8091C3068B
:105240009091C406DC01ED91FC910280F381E02D88
:1052500009950E94151762E070E080E090E00E94DE
:10526000F60F6FE075E08BE392E00E94291762E091
:1052700070E080E090E00E94F60F8091AE06909181
:10528000AF06DC01ED91FC910280F381E02D0995E0
:105290000E94151762E070E080E090E00E94F60F37
:1052A0006FEF74E08BE392E00E94291762E070E0F8
:1052B00080E090E00E94F60F8091990690919A0606
:1052C000DC01ED91FC910280F381E02D09950E94B3
:1052D000151762E070E080E090E00E94F60F6FEE3C
:1052E00074E08BE392E00E94291762E070E080E0B6
:1052F00090E00E94F60F8091840690918506DC0173
:10530000ED91FC910280F381E02D09950E94151723
:1053100062E070E080E090E00E94F60F6FED74E0D4
:105320008BE392E00E94291762E070E080E090E059
:105330000E94F60FE091AD05F091AE050280F38179
:10534000E02D8DEA95E009950E94151762E070E066
:1053500080E090E00E94F60F6FEC74E08BE392E047
:105360000E94291762E070E080E090E00E94F60F52
:105370008091C3069091C406DC01ED91FC910680FA
:10538000F781E02D09950E94151762E070E080E03A
:1053900090E00E94F60F6FEB74E08BE392E00E94C6
:1053A000291762E070E080E090E00E94F60F8091A3
:1053B000AE069091AF06DC01ED91FC910680F7817D
:1053C000E02D09950E94151762E070E080E090E002
:1053D0000E94F60F6FEA74E08BE392E00E942917B7
:1053E00062E070E080E090E00E94F60F8091840619
:1053F00090918506DC01ED91FC910680F781E02D0E
:1054000009950E94151762E070E080E090E00E942C
:10541000F60F6FE974E08BE392E00E94291762E0D7
:1054200070E080E090E00E94F60FE091AD05F09111
:10543000AE050680F781E02D8DEA95E009950E9482
:10544000151762E070E080E090E00E94F60F6FE8D0
:1054500074E08BE392E00E94291762E070E080E044
:1054600090E00E94F60FE091AD05F091AE05028448
:10547000F385E02D8DEA95E009950E94151762E00D
:1054800070E080E090E00E94F60F0E94D80E52CCAF
:10549000F80180818F3209F04BC0A696EEADFFADCA
:1054A000A69780818F3209F0D4CA3196A696FFAFB5
:1054B000EEAFA697F2CFA696EEADFFADA697808190
:1054C000882341F121E0AE014F5B5F4FB701CE0170
:1054D00081960E945E1781110BC0AE014F5B5F4F3A
:1054E000B701CE0181960E94A509882309F4CFCA8D
:1054F000FE01B196DE0111968D2D01900D928A95D7
:10550000E1F7CE0181960E94C607AE014F5F5F4F63
:105510007A01AFCAAE014F5B5F4FB701CE018196F2
:105520000E94A509882309F4B2CA84EC93E0B1CAA9
:1055300089E7E82E85E0F82E9ACAAF92BF92CF9203
:10554000DF92EF92FF920F931F93CF93DF9310920E
:105550003E0210923D0288EE93E0A0E0B0E080931E
:105560003F0290934002A0934102B09342028CE22A
:1055700091E090933C0280933B0285EC90E0909305
:1055800048028093470284EC90E090934A02809313
:10559000490280EC90E090934C0280934B0281ECA6
:1055A00090E090934E0280934D0282EC90E09093B5
:1055B000500280934F0286EC90E0909352028093C9
:1055C00051021092540210925502109256021092FB
:1055D00057021092DE021092DF021092E002109247
:1055E000E1021092E2021092E3021092E4021092A1
:1055F000E5021092E6021092E7021092E802109281
:10560000E9021092EA021092EB021092EC02109260
:10561000ED02C4E9D1E0D0931007C0930F072DE746
:1056200030E0309312072093110748E750E0509381
:1056300014074093130787E890E090931607809330
:1056400015071092180710921707D0931A07C093E6
:10565000190730931C0720931B0750931E07409394
:105660001D073093200720931F07109222071092E6
:105670002107D0932407C09323074AE550E05093B5
:1056800026074093250746E450E0509328074093AF
:10569000270790932A078093290710922C071092CE
:1056A0002B07D0932E07C0932D0742E850E050936C
:1056B000300740932F0730933207209331079093A0
:1056C0003407809333071092360710923507D09332
:1056D0003807C093370710923A071092390726EA25
:1056E0003FEF30933C0720933B0710923E07109208
:1056F0003D071092400710923F07D0934207C09396
:1057000041071092440710924307109246071092E7
:105710004507909348078093470710924A071092D5
:105720004907D0934C07C0934B078CE890E09093C7
:105730004E0780934D078AEB9FEF9093500780931D
:105740004F0710925207109251071092540710926F
:105750005307109204071092030710920607109245
:105760000507109208071092070710920A07109277
:10577000090784E891E0909302078093010747E8C6
:1057800050E060E070E040930B0750930C0760938B
:105790000D0770930E071092F6061092F506109200
:1057A000F8061092F7061092FA061092F906109277
:1057B000FC061092FB069093F4068093F3068EE8A5
:1057C00090E0A0E0B0E08093FD069093FE06A093E9
:1057D000FF06B09300071092EC061092EB061092B1
:1057E000EE061092ED061092F0061092EF0610925F
:1057F000F2061092F10684E791E09093EA06809316
:10580000E906F5EDEF2EF6E0FF2E1092D806109285
:10581000D7061092DA061092D9061092DC06109282
:10582000DB061092DE061092DD0684E691E090938E
:10583000D6068093D5061092E0061092DF0688E225
:1058400090E0A0E0B0E08093E1069093E206A093A0
:10585000E306B093E4068EE190E0A0E0B0E0809330
:10586000E5069093E606A093E706B093E80680EC81
:1058700096E00E94880B00EC16E081E097E09093A0
:10588000C4068093C30686E090E09093CE06809392
:10589000CD068BEA96E00E94880B83EF96E090930A
:1058A000AF068093AE0689E090E09093B9068093AE
:1058B000B80686E996E00E94880B89EE96E0909300
:1058C0009A068093990683E090E09093A4068093D3
:1058D000A30681E896E00E94880BF0928506E0928C
:1058E000840685E090E090938F0680938E06109258
:1058F000B0051092AF051092B2051092B10510924A
:10590000B4051092B3051092B6051092B50584E562
:1059100091E09093AE058093AD051093B805009388
:10592000B7058BEA96E09093BA058093B90586E9AE
:1059300096E09093BC058093BB0581E896E0909338
:10594000BE058093BD058091C3069091C4069093D7
:10595000C0058093BF058091AE069091AF069093ED
:10596000C2058093C1058091990690919A06909303
:10597000C4058093C305F092C605E092C5058091E9
:105980001507909116072091130730911407409145
:10599000110750911207D093C805C093C7055093C3
:1059A000CA054093C9053093CC052093CB0590934D
:1059B000CE058093CD051092D0051092CF05809131
:1059C0001F079091200720911D0730911E074091DD
:1059D0001B0750911C07D093D205C093D10550935B
:1059E000D4054093D3053093D6052093D5059093E5
:1059F000D8058093D7051092DA051092D9058091C9
:105A0000290790912A072091270730912807409174
:105A1000250750912607D093DC05C093DB055093F2
:105A2000DE054093DD053093E0052093DF0590937C
:105A3000E2058093E1051092E4051092E305809160
:105A4000330790913407209131073091320740910C
:105A50002F0750913007D093E605C093E50550938A
:105A6000E8054093E7053093EA052093E905909314
:105A7000EC058093EB051092EE051092ED058091F8
:105A80003D0790913E0720913B0730913C074091A4
:105A9000390750913A07D093F005C093EF05509322
:105AA000F2054093F1053093F4052093F3059093AC
:105AB000F6058093F5051092F8051092F705809190
:105AC000470790914807209145073091460740913C
:105AD000430750914407D093FA05C093F9055093BA
