:100000000C94FE020C9426030C9426030C942603F5
:100010000C9426030C9426030C9426030C942603BC
:100020000C9426030C9426030C9426030C94CD09FF
:100030000C9426030C9426030C9426030C9426039C
:100040000C949F0E0C9426030C94A70D0C94810D18
:100050000C9426030C9426030C9426030C9426037C
:100060000C9426030C9426030000000024002700B3
:100070002A00303030303030303030300068656940
:100080006768742C207261646975732C20746865CC
:1000900074612C20736F6E6172206D65617375726F
:1000A000656D656E7400636C617720736572766F41
:1000B00020616E676C652C20636C61772061646AD7
:1000C00020616E676C652C20636C617720686569C0
:1000D0006768742C20636C61772072616469757342
:1000E0002C0074757272656E7420736572766F2061
:1000F000616E676C652C2074757272657420616422
:100100006A20616E676C652C20747572726574204C
:100110006865696768742C207475727265742072E2
:1001200061646975732C00626F6F6D322073657244
:10013000766F20616E676C652C20626F6F6D322068
:1001400061646A20616E676C652C20626F6F6D322E
:10015000206865696768742C20626F6F6D32207249
:1001600061646975732C00626F6F6D312073657205
:10017000766F20616E676C652C20626F6F6D312029
:1001800061646A20616E676C652C20626F6F6D31EF
:10019000206865696768742C20626F6F6D3120720A
:1001A00061646975732C005248532073656E736FD8
:1001B000722072656164696E673A20004175746FE0
:1001C0004D6F7665203A20004C48532073656E735E
:1001D0006F722072656164696E673A2000417574C0
:1001E0006F4D6F7665203A20004F70656E207375F5
:1001F00063636573732E004F70656E206661696C72
:1002000065642E004175746F4D6F7665203A20004D
:10021000636864697220737563636573732E00632A
:100220006864697220746F2022546F706F4D617022
:100230007322206661696C65642E004175746F4D90
:100240006F7665203A2000556E6971756520666984
:100250006C65206E616D653A20004175746F4D6F5D
:100260007665203A20004372656174652022546FE0
:10027000706F4D61707322206661696C65642E0039
:100280004372656174652022546F706F4D617073A5
:1002900022207375636365656465642E004175741F
:1002A0006F4D6F7665203A2000626567696E207336
:1002B0007563636573732E00626567696E2066619E
:1002C000696C65642E004175746F4D6F7665203AD8
:1002D00020005374617274696E6720535049205333
:1002E0004420636172642073747566662E004175E4
:1002F000746F4D6F7665203A200046696E697368A9
:10030000656420706F776572696E6720616E642026
:10031000776967676C696E6720736572766F732E95
:10032000004175746F4D6F7665203A200000000023
:100330000023002600290004040404040404040229
:100340000202020202030303030303010204081072
:100350002040800102040810200102040810202E11
:100360002020202020546865746120203D20002E2C
:100370002020202020526164697573203D200020D8
:10038000636C617720726164697573203D2000623F
:100390006F6F6D3220726164697573203D20006259
:1003A0006F6F6D3120726164697573203D20002E7E
:1003B0002020202020486569676874203D200020A7
:1003C000636C617720686569676874203D200074FC
:1003D0007572726574206865696768743D20006293
:1003E0006F6F6D3220686569676874203D20006218
:1003F0006F6F6D3120686569676874203D20005318
:100400006F6E6172206D6561737572656D656E7476
:100410003A2000206465677265657320777269749D
:1004200074656E2E00206465677265657320656E65
:1004300074657265642E20002E2E2E20456E746524
:10044000722074617267657420616E676C653A2012
:1004500000456E7465722074617267657420616E08
:10046000676C653A200054727920616761696E2E6D
:1004700000456E746572206D656D626572206E75E3
:100480006D6265723A2000456E746572206D656D0F
:10049000626572206E756D6265723A2000290020D7
:1004A00028002E2020202020202020202020202056
:1004B000205B335D202020636C6177203A20002987
:1004C000002028002E202020202020202020202056
:1004D0002020205B335D20747572726574203A2091
:1004E0000029002028002E2020202020202020204D
:1004F00020202020205B325D20626F6F6D32202033
:100500003A2000290020280053656C656374206D33
:10051000656D6265723A205B315D20626F6F6D318F
:1005200020203A200000001100230034004600572C
:100530000069007A008B009C00AE00BF00D000E193
:1005400000F2000301140124013501460156016641
:1005500001770187019701A701B601C601D501E521
:1005600001F4010302120221022F023E024C025A40
:100570000268027502830290029D02AA02B702C3BA
:1005800002CF02DB02E702F302FE02090314031F9B
:1005900003290333033D0347035003590362036BED
:1005A0000373037B0383038A03920399039F03A6C8
:1005B00003AC03B203B703BC03C103C603CA03CE33
:1005C00003D203D603D903DC03DE03E103E303E430
:1005D00003E603E703E703E803E803000000002560
:1005E0000028002B000000000800020100000304A6
:1005F00007000000000000000000E32411241FBEDB
:10060000CFEFD8E0DEBFCDBF12E0A0E0B1E0EEE575
:10061000F4E502C005900D92A234B107D9F727E0A6
:10062000A2E4B2E001C01D92AE38B207E1F712E0D9
:10063000CEEFD2E004C02197FE010E94FA29CD3FFF
:10064000D107C9F70E946D1D0C942D2A0C9400004F
:10065000DC01ED91FC91119718966D917C911997A1
:100660000084F185E02D0994DC01ED91FC91119756
:1006700018966D917C9119970480F581E02D09946D
:1006800080E090E0089580E090E0089580E090E0C0
:10069000089580E090E00895DC01ED91FC911197C0
:1006A00018966D917C9119970084F185E02D09943D
:1006B000DC01ED91FC91119718966D917C91199741
:1006C0000480F581E02D0994FC01868197810895CD
:1006D000FC01848195810895FC01848195810895B0
:1006E000FC01828193810895FC01828193810895A8
:1006F0000895CF93DF9321E030E0E8E6F1E0C4EB2A
:10070000D0E0BF010E94E62988599E4FBF010E9498
:10071000E6298E3041E0940724F091958195910966
:1007200005C0843B910534F08C549F4F3195219541
:100730003109E7CF8B3591052CF0AE01481B590BE1
:10074000CA01DFCFFC01EE0FFF1FEB5DFA4F859171
:100750009491AC01249FC001259F900D349F900D72
:100760001124DF91CF910895CF93DF9300D000D073
:10077000CDB7DEB7FC01228533854485558580855C
:100780009185865A9F4F29833A834B835C830E94CD
:100790007903DC0129813A814B815C810E94AF2978
:1007A00028EE33E040E050E00E948529C9010F9017
:1007B0000F900F900F90DF91CF910895CF93DF931B
:1007C00000D000D0CDB7DEB7FC012285338544854B
:1007D00055858085918529833A834B835C830E946C
:1007E0007903DC0129813A814B815C810E94AF2928
:1007F00028EE33E040E050E00E948529C9010F90C7
:100800000F900F900F90DF91CF9108958F929F924C
:10081000AF92BF92EF92FF92CF93DF9300D000D0C0
:10082000CDB7DEB77C01CB01F70120893189428940
:10083000538929833A834B835C830E947903DC01CB
:1008400029813A814B815C810E94AF2928EE822E5A
:1008500023E0922EA12CB12CA50194010E948529A0
:10086000F70184859585A685B785280F391F4A1F0E
:100870005B1F82859385865A9F4F29833A834B83DA
:100880005C830E947903DC0129813A814B815C8180
:100890000E94AF29A50194010E948529C9010F90EA
:1008A0000F900F900F90DF91CF91FF90EF90BF903E
:1008B000AF909F908F9008958F929F92AF92BF922A
:1008C000EF92FF92CF93DF9300D000D0CDB7DEB789
:1008D0007C01CB01F7012089318942895389298321
:1008E0003A834B835C830E947903DC0129813A813E
:1008F0004B815C810E94AF2928EE822E23E0922E4C
:10090000A12CB12CA50194010E948529F7018485B1
:100910009585A685B785280F391F4A1F5B1F8285DD
:10092000938529833A834B835C830E947903DC019E
:1009300029813A814B815C810E94AF29A5019401F4
:100940000E948529C9010F900F900F900F90DF91A1
:10095000CF91FF90EF90BF90AF909F908F900895B0
:1009600081E00895089580E090E0089504960C9445
:10097000991304960C943918CF93DF931F92CDB737
:10098000DEB7698341E050E0BE016F5F7F4F0496A0
:100990000E9439180F90DF91CF910895CF92DF9286
:1009A000EF92FF920F931F93CF93DF93EC01862F6B
:1009B000488959896A897B898A019B01E5E03695D6
:1009C000279517950795EA95D1F7102F1F7011F00D
:1009D000811151C098819923D9F18A8180FF38C053
:1009E00093FF63C0C88CD98CEA8CFB8CC41AD50ADF
:1009F000E60AF70A22E0C216D104E104F10408F481
:100A00004EC09A01317095FD61C0EE81FF81038176
:100A10006A017B0189E0F694E794D794C7948A959C
:100A2000D1F70C21232B09F07EC001117CC0452B8E
:100A3000462B472B09F45CC04C855D856E857F8510
:100A40009E01245F3F4FCF010E94F61187FF60C0D7
:100A50008981826089838FEF9FEF0197E9F488890C
:100A60009989AA89BB894F96A11DB11D888B998B45
:100A7000AA8BBB8B08C0405E5F4F6F4F7F4F488B88
:100A8000598B6A8B7B8B8E819F818B9620E2129F84
:100A9000800D911D112480C080E090E07DC0CD28A4
:100AA000CE28CF2809F0ADCF0EC095FFAACFEE819A
:100AB000FF818681978125E0880F991F2A95E1F7AC
:100AC0008417950719F480E090E061C099E076956D
:100AD0006795579547959A95D1F7EE81FF81848D5B
:100AE000958DA68DB78D480F591F6A1F7B1F39C082
:100AF00096FF05C0848D958DA68DB78D04C08C8D15
:100B00009D8DAE8DBF8D8C879D87AE87BF870BC0B7
:100B1000811109C08881807709F49ACF81E090E043
:100B200021E030E036C0EE81FF814C855D856E8529
:100B30007F854250510961097109048004C0440F46
:100B4000551F661F771F0A94D2F780899189A28961
:100B5000B389480F591F6A1F7B1F400F511D611D2C
:100B6000711D8E819F8120E084960E944E11892BF9
:100B700009F46ECF88899989AA89BB890196A11D3C
:100B8000B11D888B998BAA8BBB8B81E090E020E014
:100B900030E0821B930B61CFDF91CF911F910F91BA
:100BA000FF90EF90DF90CF900895FC01808181113C
:100BB00014C080E2DF01982F1D929A95E9F77783A0
:100BC0006683DB0115969C91903119F0903229F4DF
:100BD00080E4808381E08283089580E00895CF934C
:100BE000DF93EC010E9499131882DF91CF91089551
:100BF000CF92DF92EF92FF920F931F93CF93DF93E9
:100C0000CDB7DEB7E3970FB6F894DEBF0FBECDBF0A
:100C10007C018B015BAB4AABD22E19821A82FC019C
:100C20008081882311F080E059C0FB0180818077AA
:100C3000D1F3EAA9FBA980818F32D9F4EAA9FBA9F3
:100C400080818F3221F43196FBABEAABF7CFF8010C
:100C500066817781811104C0C7010E94D5053EC01D
:100C6000CE0101960E94D5058823E9F28E010F5F1F
:100C70001F4F80E2C82EAE014E5C5F4FBE016F5D1C
:100C80007F4F8AA99BA90E947B12882361F2EAA95F
:100C9000FBA980818823D1F021E0AE014F5D5F4F39
:100CA000B801C7010E94BD14882309F4BCCFF70125
:100CB000DE0111968C2D01900D928A95E1F7C70106
:100CC0000E94EF058E010F5F1F4FD5CF2D2DAE0176
:100CD0004F5D5F4FB801C7010E94BD14E3960FB688
:100CE000F894DEBF0FBECDBFDF91CF911F910F9162
:100CF000FF90EF90DF90CF9008953F924F925F92D8
:100D00006F927F928F929F92AF92BF92CF92DF921B
:100D1000EF92FF920F931F93CF93DF93CDB7DEB780
:100D200028970FB6F894DEBF0FBECDBF4C01DC0193
:100D300012968C911297806812968C9312971C963B
:100D40004D905D906D907C901F971696AD90BC90E5
:100D50001797411451046104710461F4D501189688
:100D60008D919D910D90BC91A02D8D839E83AF831D
:100D7000B88704C04D825E826F827886CD80DE8027
:100D8000EF80F884BFEFCB1ADB0AEB0AFB0AF50110
:100D9000808D918DA28DB38D8C159D05AE05BF05FF
:100DA00028F482E0C82ED12CE12CF12C9E012F5F7B
:100DB0003F4FB701A601C5010E94F61187FD20C073
:100DC000882341F089819A81AB81BC81892B8A2B50
:100DD0008B2B51F08D819E81AF81B885C816D906C5
:100DE000EA06FB0679F60CC00FEF1FEF2FEF3FE08E
:100DF000B701A601C5010E949311382E811102C0CE
:100E0000312C2BC0411451046104710451F097013D
:100E10008601B301A201C5010E949311811108C08E
:100E2000EFCFD5011896CD92DD92ED92FC921B97F3
:100E3000F50180A191A1A2A1B3A1B7FD07C00197BF
:100E4000A109B10980A391A3A2A3B3A3D4011C96C5
:100E5000CD92DD92ED92FC921F97832D28960FB6CE
:100E6000F894DEBF0FBECDBFDF91CF911F910F91E0
:100E7000FF90EF90DF90CF90BF90AF909F908F90BA
:100E80007F906F905F904F903F9008958F929F92C8
:100E9000AF92BF92EF92FF920F931F93CF93DF9386
:100EA000EC01888185FF02C010E06CC088899989B7
:100EB000AA89BB8981159E4FAF41B105A8F7CE0124
:100EC0000E947D06182F882379F3EE81FF814C85DF
:100ED0005D856E857F8542505109610971090480E5
:100EE00004C0440F551F661F771F0A94D2F78088ED
:100EF0009188A288B388840E951EA61EB71E25E091
:100F0000B501A401CF0184960E944E117C01892B6A
:100F100059F280E092E0D701FC011D923197E9F788
:100F200001E0EE81FF8192810917A8F4808191810F
:100F3000DC01ED91FC910480F581E02D9701B50174
:100F4000A401400F511D611D711D0995882309F4ED
:100F5000ABCF0F5FE6CF492F50E060E070E089E053
:100F6000440F551F661F771F8A95D1F78889998985
:100F7000AA89BB89480F591F6A1F7B1F488B598B51
:100F80006A8B7B8B812FDF91CF911F910F91FF9007
:100F9000EF90BF90AF909F908F900895AF92BF92C7
:100FA000CF92DF92EF92FF920F931F93CF93DF9335
:100FB000CDB7DEB7A0970FB6F894DEBF0FBECDBF9A
:100FC0008C01DB019C91907709F4CEC07B0123EC6E
:100FD000C8010E94BD14882309F4C6C081E0F8014D
:100FE000828350E1D52ED082C8010E944607882313
:100FF00009F4BAC0F80184859585A685B785848FE4
:10100000958FA68FB78F40E050E0BA01C8010E94CB
:10101000F913C8010E949913882309F4A5C0D801C7
:1010200054964D915D916D917C91579716968D9147
:101030009C91179721E084960E944E11009709F425
:1010400093C0F801248135812F70332745E0220FAA
:10105000331F4A95E1F7820F931FDC011B96DC9248
:1010600020E2FC01DE01119601900D922A95E1F734
:10107000FC01A488B588C28CD38C8EE28983FE01E2
:101080003296CE010C9620E22193E817F907E1F79A
:10109000D8011696ED91FC9117975C964D915D9154
:1010A0006D917C915F9742505109610971090480EB
:1010B00004C0440F551F661F771F0A94D2F780891A
:1010C0009189A289B389480F591F6A1F7B1F21E0AC
:1010D000CF0184960E944E11009709F445C0BE8A44
:1010E000AD8ADC8ECB8E20E2FE013196DC010190D0
:1010F0000D922A95E1F72EE22A83F701448D558D52
:10110000668D778D7E8B6D8B5C8F4B8F20E2FE0121
:101110003196DC01909601900D922A95E1F7D80165
:1011200016960D911C911797C80184960E94F41091
:101130008823D1F0F80180819181DC01ED91FC914F
:101140000280F381E02DA0960FB6F894DEBF0FBEAB
:10115000CDBFDF91CF911F910F91FF90EF90DF9066
:10116000CF90BF90AF90099480E0A0960FB6F8940E
:10117000DEBF0FBECDBFDF91CF911F910F91FF90CA
:10118000EF90DF90CF90BF90AF9008958F929F9295
:10119000AF92BF92CF92DF92EF92FF92FC018281D9
:1011A00028E532E06901C81AD10887FDD394CC0C38
:1011B000DD1CCC0CDD1C0D2C000CEE08FF08818121
:1011C00028E830E04901881A910887FD9394880C3B
:1011D000991C880C991C092C000CAA08BB0880815A
:1011E0008F3FC1F090E0FC01EE0FFF1F8E0F9F1F9D
:1011F000FC01EE5BFD4F2181328143E0220F331F62
:101200004A95E1F754E0369527955A95E1F72E5F18
:101210003F4F02C020E030E02F5F3F4FC901330F46
:10122000AA0BBB0B9C01AD01281939094A095B09BE
:10123000A4EBB0E00E94A429A7019601281939095E
:101240004A095B090E948529C901FF90EF90DF9050
:10125000CF90BF90AF909F908F900895CF92DF92E4
:10126000EF92FF92CF93DF93EC01603282E0780738
:101270000CF03DC077FD06C0653B71052CF064EBBA
:1012800070E002C060E070E0898128E830E0690128
:10129000C81AD10887FDD394CC0CDD1CCC0CDD1C06
:1012A0000D2C000CEE08FF088A8128E532E0281B8F
:1012B000310987FD3395220F331F220F331FC901D8
:1012C000330FAA0BBB0B9C01AD012C193D094E0934
:1012D0005F09DB010E94AF2924EB30E040E050E0E1
:1012E0000E948529C20ED31EE41EF51EB601888118
:1012F0008C3080F5998148E850E0491B510997FDF1
:101300005395440F551F440F551F6417750784F0FC
:101310009A8128E532E0291B310997FD3395220F88
:10132000331F220F331FAB01261737070CF4A90117
:1013300042505109440F551F2FB7F89490E0FC011B
:10134000EE0FFF1F8E0F9F1FFC01EE5BFD4F5283C0
:1013500041832FBFDF91CF91FF90EF90DF90CF902F
:101360000895FC0190916A029C30A0F481E0890FFD
:1013700080936A029083892F90E0FC01EE0FFF1F9B
:101380008E0F9F1FFC01EE5BFD4F88EB9BE092836D
:10139000818308958FEF808308951F920F920FB677
:1013A0000F9211242F933F934F935F936F937F93EB
:1013B0008F939F93AF93BF93EF93FF9380916902B5
:1013C00087FF05C010928500109284001BC02091F9
:1013D0006902022E000C330B80916A0290E02817FC
:1013E000390784F480916902082E000C990BFC01E6
:1013F000EE0FFF1F8E0F9F1FFC01EE5BFD4F8081E4
:1014000086FD15C0809169028F5F809369022091EB
:101410006902022E000C330B80916A0290E02817BB
:101420003907C4F4809169028C3064F113C0809153
:101430006902082E000C990BFC01EE0FFF1F8E0FA6
:101440009F1FFC01EE5BFD4F808160E08F730E9467
:10145000020ED8CF8091840090918500049680344C
:101460009C4918F480E49CE905C080918400909127
:101470008500049690938900809388008FEF809375
:1014800069023BC0209184003091850080916902FF
:10149000082E000C990BFC01EE0FFF1F8E0F9F1FF3
:1014A000FC01EE5BFD4F81819281820F931F90932F
:1014B00089008093880080916902082E000C990BA6
:1014C000FC01EE0FFF1F8E0F9F1FFC01EE5BFD4F17
:1014D000808186FF12C080916902082E000C990B52
:1014E000FC01EE0FFF1F8E0F9F1FFC01EE5BFD4FF7
:1014F000808161E08F730E94020EFF91EF91BF9196
:10150000AF919F918F917F916F915F914F913F919B
:101510002F910F900FBE0F901F901895CF93DF93D0
:10152000EC010E94C60829853A854B855C85DC0163
:101530000E94AF296C507E4F8F4F9F4F28EE33E0B3
:1015400040E050E00E9485298D819E81AF81B88561
:10155000820F931FA41FB51FDF91CF910895CF93E2
:10156000DF93EC01CB010E948E0ABC01998788872A
:10157000E881F9810480F581E02DCE0109959B83F6
:101580008A83E881F981688579850084F185E02D79
:10159000CE0109959D838C83DF91CF910895CF93E0
:1015A000DF93EC01CB010E948E0A9F838E83DF9133
:1015B000CF910895CF93DF93EC01CB010E948E0A67
:1015C000BC0199878887E881F9810084F185E02D45
:1015D000CE0109959D838C83E881F98168857985A1
:1015E0000480F581E02DCE0109959B838A83DF91EC
:1015F000CF9108956F927F928F929F92AF92BF92F8
:10160000CF92DF92EF92FF920F931F93CF93DF93CE
:1016100000D000D0CDB7DEB73C01DC011F962D9184
:101620003C915097621773074CF051968D919C91A5
:1016300052979B01861797070CF49C01A901330F61
:10164000660B770BF30185819681A781B0859A019E
:10165000AB01281B390B4A0B5B0BA8EEB3E00E94D1
:10166000A429C184D284E384F4844B015C01F4EFA7
:101670008F1AF1E09F0AA108B108C701B60122E064
:1016800030E040E050E00E948529C501B401620FBE
:10169000731F841F951FA70196010E948529690168
:1016A000C30129833A834B835C830E94C6088C0163
:1016B00029813A817901E01AF10AF1F00E94930E32
:1016C0004B015C012FE0820E911CA11CB11C0E94F9
:1016D000930E681579058A059B05C8F31E141F042F
:1016E0001CF40F5F1F4F02C001501109B801C30164
:1016F0000E942E097601DFCFD30113968D919C9124
:101700001497DC01ED91FC910190F081E02DB30183
:101710000F900F900F900F90DF91CF911F910F912D
:10172000FF90EF90DF90CF90BF90AF909F908F9001
:101730007F906F9009948F929F92AF92BF92CF92B9
:10174000DF92EF92FF920F931F93CF93DF93EC0101
:10175000298130E0F901EB51FA4F8491F901E55B01
:10176000FC4F0491F901E95CFC4F14911123A1F0A5
:1017700081110E94D90DE12FF0E0EE0FFF1FE35D14
:10178000FC4FA591B491EC91E02391E080E009F445
:1017900090E0E92EF82E02C0E12CF12C61E0898165
:1017A0000E94020E83E090E00197F1F70E94930EF1
:1017B0004B015C0124E6820E911CA11CB11CC12CC2
:1017C000D12C00E010E098819E3008F09E50977078
:1017D000906490937C0080917A00806480937A007A
:1017E00080917A0086FDFCCF80917800209179006D
:1017F00090E0922B2A8130E02817390724F4C80E94
:10180000D91E0F5F1F4F0233110538F40E94930E4B
:10181000681579058A059B05B0F2EF2841F460E070
:1018200089810E94020E83E090E00197F1F7B801F0
:10183000660F771F660F771FCB01969587958C0DE6
:101840009D1D0E94D229862FDF91CF911F910F916C
:10185000FF90EF90DF90CF90BF90AF909F908F90D0
:101860000895FF920F931F93CF93DF938C01F62E71
:10187000EC01C55DDD4FCE010E94EF05B801CE0140
:101880000E94D505882371F0FF2061F09091B20588
:10189000907739F022EB35E03093670220936602AF
:1018A00001C080E0DF91CF911F910F91FF900895CB
:1018B000FF920F931F93CF93DF93CDB7DEB7A0971F
:1018C0000FB6F894DEBF0FBECDBFFB01F42E198218
:1018D0001A8220812F3239F42181211104C0642F12
:1018E0000E94310C25C08C01055D1D4F21E0AF0128
:1018F000B801CE0101960E94F8058823C9F09981AC
:101900009077A9F090E2FE013196D80101900D92F6
:101910009A95E1F7FF2061F09091B205907741F040
:1019200022EB35E0309367022093660201C080E02D
:10193000A0960FB6F894DEBF0FBECDBFDF91CF915A
:101940001F910F91FF900895FC01538D448D252F19
:1019500030E0842F90E0821B930B541710F0CF9649
:10196000089501970895FC01918D828D981761F07B
:10197000828DDF01A80FB11D5D968C91928D9F5FC6
:101980009F73928F90E008958FEF9FEF0895FC0171
:10199000918D828D981731F0828DE80FF11D858D24
:1019A00090E008958FEF9FEF0895FC01918D228DB7
:1019B000892F90E0805C9F4F821B91098F7399273C
:1019C000089584E792E00E94D50C21E0892B09F468
:1019D00020E0822F0895FC01848DDF01A80FB11D46
:1019E000A35ABF4F2C91848D90E001968F73992755
:1019F000848FA689B7892C93A089B1898C91806442
:101A00008C93938D848D981306C00288F389E02D02
:101A100080818F7D80830895EF92FF920F931F93B3
:101A2000CF93DF93EC0181E0888F9B8D8C8D981391
:101A300005C0E889F989808185FD24C0F62E0B8DCB
:101A400010E00F5F1F4F0F731127E02E8C8DE812EF
:101A50000CC00FB607FCFACFE889F989808185FFB1
:101A6000F5CFCE010E94EB0CF1CF8B8DFE01E80F7C
:101A7000F11DE35AFF4FF0820B8FEA89FB898081C9
:101A8000806207C0EE89FF896083E889F9898081D7
:101A90008064808381E090E0DF91CF911F910F916E
:101AA000FF90EF900895CF93DF93EC01888D88230A
:101AB000C9F0EA89FB89808185FD05C0A889B989BB
:101AC0008C9186FD0FC00FB607FCF5CF808185FF96
:101AD000F2CFA889B9898C9185FFEDCFCE010E9404
:101AE000EB0CE7CFDF91CF91089580E090E0892B58
:101AF00029F00E94E10C81110C94000008950E94CD
:101B0000002A1F920F920FB60F9211242F933F932A
:101B10004F935F936F937F938F939F93AF93BF93F5
:101B2000EF93FF9384E792E00E94EB0CFF91EF911B
:101B3000BF91AF919F918F917F916F915F914F91E5
:101B40003F912F910F900FBE0F901F9018951F92ED
:101B50000F920FB60F9211242F938F939F93EF93B1
:101B6000FF93E0918402F09185028081E0918A02E6
:101B7000F0918B0282FD12C0908180918D028F5F67
:101B80008F7320918E02821751F0E0918D02F0E068
:101B9000EC58FD4F958F80938D0201C08081FF919D
:101BA000EF919F918F912F910F900FBE0F901F90EB
:101BB0001895833081F028F4813099F08230A1F0BB
:101BC00008958730A9F08830B9F08430D1F480913D
:101BD00080008F7D03C0809180008F77809380008C
:101BE000089584B58F7702C084B58F7D84BD089534
:101BF0008091B0008F7703C08091B0008F7D80937B
:101C0000B00008951F93CF93DF93282F30E0F901A0
:101C1000EB51FA4F8491F901E55BFC4FD491F90146
:101C2000E95CFC4FC491CC23C9F0162F81110E94AE
:101C3000D90DEC2FF0E0EE0FFF1FE552FA4FA59102
:101C4000B4918FB7F894111105C09C91ED2FE095D8
:101C5000E92302C0EC91ED2BEC938FBFDF91CF9184
:101C60001F910895CF93DF9390E0FC01E55BFC4F5B
:101C70002491FC01E95CFC4F8491882361F190E0A0
:101C8000880F991FFC01E859FF4FC591D491FC01C1
:101C9000E552FA4FA591B491611109C09FB7F8942C
:101CA0008881209582238883EC912E230BC062309B
:101CB00061F49FB7F8943881822F809583238883BD
:101CC000EC912E2B2C939FBF06C08FB7F894E88120
:101CD0002E2B28838FBFDF91CF9108953FB7F894C3
:101CE0008091700290917102A0917202B091730282
:101CF00026B5A89B05C02F3F19F00196A11DB11D67
:101D00003FBFBA2FA92F982F8827820F911DA11DA1
:101D1000B11DBC01CD0142E0660F771F881F991FDE
:101D20004A95D1F708952FB7F89460916C0270919D
:101D30006D0280916E0290916F022FBF08951F92E5
:101D40000F920FB60F9211242F933F938F939F936F
:101D5000AF93BF9380916C0290916D02A0916E023F
:101D6000B0916F0230916B0223E0230F2D3720F4E6
:101D70000196A11DB11D05C026E8230F0296A11DE5
:101D8000B11D20936B0280936C0290936D02A0931F
:101D90006E02B0936F028091700290917102A091D7
:101DA0007202B09173020196A11DB11D8093700261
:101DB00090937102A0937202B0937302BF91AF919E
:101DC0009F918F913F912F910F900FBE0F901F9079
:101DD00018958EBD0DB407FEFDCF08958FEF8EBD13
:101DE0000DB407FEFDCF8EB50895CF93DF93FC01B0
:101DF0002581222361F0EC010380F481E02D61E074
:101E000082810E94020E8FEF0E94E90E1D82DF91F7
:101E1000CF9108950F931F93CF93DF938C01862F5B
:101E2000EA010E94E90E88818EBD8981FE01329609
:101E3000DE5F0DB407FEFDCF8EBDEC17FD0711F080
:101E40008191F7CF0DB407FEFDCF8FEF0E94E90E11
:101E50008FEF0E94E90E0E94EE0EF8018683982F04
:101E60009F71953039F087E58283C8010E94F50E95
:101E700080E001C081E0DF91CF911F910F91089523
:101E8000CF93DF93FC012581211110C0EC01038069
:101E9000F481E02D908181819CBD8DBDEB81FC8121
:101EA00060E082810E94020E81E08D83DF91CF91FC
:101EB0000895EF92FF921F93CF93DF9300D000D04D
:101EC000CDB7DEB77C01162F29833A834B835C8321
:101ED000FC018581811103C0C7010E94400F0E944F
:101EE000AD19812F80640E94E90E8C810E94E90E59
:101EF0008B810E94E90E8A810E94E90E89810E94ED
:101F0000E90E112311F087E801C085E90E94E90E6E
:101F10001C3011F40E94EE0E10E00E94EE0EF7014C
:101F2000868387FF04C01F3F11F01F5FF6CF0F901D
:101F30000F900F900F90DF91CF911F91FF90EF9036
:101F40000895CF92DF92EF92FF920F931F93CF935A
:101F5000DF93EC016A017B0189018C85823049F4B1
:101F600088859985AA85BB8584179507A607B70735
:101F700019F1E881F9810280F381E02DCE01099504
:101F80008823C9F18F81A7019601833039F089E058
:101F9000220F331F441F551F8A95D1F769E1CE01E7
:101FA0000E94590F882311F083E30BC0C886D9869D
:101FB000EA86FB8682E08C870E94AD19811103C0FE
:101FC0008AE58A8307C0A8016CEFCE010E940A0F40
:101FD000811105C0CE010E94F50E80E00CC048853D
:101FE00059856A857B854F5F5F4F6F4F7F4F48876D
:101FF00059876A877B87DF91CF911F910F91FF905F
:10200000EF90DF90CF9008951F93CF93DF93EC0173
:102010008C858130A9F41C8620E030E0A9016CE0B9
:10202000CE010E94590F882339F088E28A83CE01BD
:102030000E94F50E10E017C0CE010E94F50E12C0EE
:10204000823081F41C860E94AD19182F882321F05C
:102050008DEF0E94E90E02C086E58A83CE010E94C0
:10206000F50E01C011E0812FDF91CF911F910895EE
:10207000CF92DF92EF92FF920F931F93CF93DF9354
:10208000EC016A017B0189018C85813049F48885E6
:102090009985AA85BB85481759076A077B0741F1CF
:1020A000E881F9810280F381E02DCE010995882332
:1020B000B9F08F81A7019601833039F089E0220FB2
:1020C000331F441F551F8A95D1F762E1CE010E944C
:1020D000590F882339F081E38A83CE010E94F50EDF
:1020E00080E018C0C886D986EA86FB8681E08C87A6
:1020F000B801CE010E94731C882391F3488559854D
:102100006A857B854F5F5F4F6F4F7F4F4887598749
:102110006A877B87DF91CF911F910F91FF90EF909E
:10212000DF90CF9008950F931F93CF93DF93EC012F
:1021300089018F81833039F089E0440F551F661F74
:10214000771F8A95D1F79A01AB0168E1CE010E9411
:10215000590F882319F082E38A830CC0A8016EEF1F
:10216000CE010E940A0F182F882321F0CE010E9471
:10217000F50E04C0CE010E94F50E10E0812FDF9114
:10218000CF911F910F9108950F931F93CF93DF93DA
:10219000EC0189018F81833039F089E0440F551FAC
:1021A000661F771F8A95D1F79A01AB0161E1CE01D5
:1021B0000E94590F882319F080E38A830BC0B8016D
:1021C000CE010E94731C182F882321F0CE010E949B
:1021D000F50E04C0CE010E94F50E10E0812FDF91B4
:1021E000CF911F910F9108958F929F92AF92BF92BE
:1021F000EF92FF921F93CF93DF93DC012C9120FF8E
:1022000041C0EC017C01B7E0EB0EF11CE981FA81E1
:1022100080819181DC01ED91FC914B815C816D812C
:102220007E810480F581E02D97010995182F811199
:1022300002C010E028C0888181FD04C088818E7FA3
:10224000888321C0A981BA818D919C911197FC014D
:10225000208131811C968D909D90AD90BC901F97F0
:102260004B815C816D817E81480D591D6A1D7B1DEE
:10227000D9011496ED91FC9115979701099581115B
:10228000DDCFD7CF11E0812FDF91CF911F91FF904C
:10229000EF90BF90AF909F908F900895CF92DF9274
:1022A000EF92FF921F93CF93DF93EC016A017B01C2
:1022B000122F8B819C81AD81BE8184179507A60763
:1022C000B70719F1CE010E94F410811103C080E01C
:1022D00090E021C012FF06C01882CB82DC82ED8222
:1022E000FE8213C0E981FA8180819181DC01ED9148
:1022F000FC910190F081E02D9E01295F3F4FB701D5
:10230000A60109958111E8CFE2CF13708881182BBF
:102310001883CE010796DF91CF911F91FF90EF9028
:10232000DF90CF9008958F929F92AF92BF92CF92FD
:10233000DF92EF92FF920F931F936A017B01480196
:102340005901FC012581203251F54489558966895E
:10235000778997018601E7E03695279517950795C8
:10236000EA95D1F7400F511F621F731F23E0849637
:102370000E944E11009711F480E02DC0E894C7F838
:10238000DD24EE24FF24CC0CDD1CCC0CDD1CFC0178
:10239000EC0DFD1D80829182A282B3821BC0203190
:1023A00059F7FC0144895589668977894D0D511D7E
:1023B000611D711D23E084960E944E110097E1F289
:1023C000DD24EE24FF24CC0CDD1CFC01EC0DFD1DF6
:1023D0009182808281E01F910F91FF90EF90DF90BA
:1023E000CF90BF90AF909F908F900895CF92DF9243
:1023F000EF92FF920F931F93CF93DF93EC016A014B
:102400007B0189018D81803251F58C899D89AE894E
:10241000BF89E7E07695679557954795EA95D1F797
:10242000480F591F6A1F7B1F22E0CE0184960E942D
:102430004E11009711F48FEF40C0E894C7F8DD24E7
:10244000EE24FF24CC0CDD1CCC0CDD1CFC01EC0DBF
:10245000FD1D80819181A281B381BF701DC080313B
:1024600051F74C895D896E897F894D0D511D611D24
:10247000711D22E0CE0184960E944E110097D9F280
:10248000DD24EE24FF24CC0CDD1CFC01EC0DFD1D35
:1024900080819181A0E0B0E0488D598D6A8D7B8D5F
:1024A000481759076A077B0738F0F8018083918342
:1024B000A283B38381E001C080E0DF91CF911F91BF
:1024C0000F91FF90EF90DF90CF9008956115710507
:1024D00079F0FB0101900020E9F73197AF01461B2D
:1024E000570BDC01ED91FC910280F381E02D099402
:1024F00080E090E00895AF92BF92CF92DF92EF928A
:10250000FF920F931F93CF93DF93FB01DC010196A2
:102510002C912032D9F3B483A3839D0189010A1B36
:102520001B0BE90189919E018823C1F08F32B1F024
:102530008C3511F480E0F2C0982F977F9232D1F35E
:102540008A33C1F3982F9F7B9C33A1F392EC980FB1
:10255000923080F380528F3508F3ECCF0A0F1B1FA7
:10256000C801682F392FEC012991CE012032C9F31F
:102570002F32B9F3EA016883398398012A1B3B0B98
:102580000A171B0741F0E8018A918E018E32A9F3E8
:10259000803299F303C0A12CB12C05C059012F3F03
:1025A000310509F03CF6B282A182CF0106969F0167
:1025B0002F5E3F4F40E2EC014993CE01C217D30793
:1025C000D1F7CD01AC014A1B5B0BEC013991CE0177
:1025D0003E32C1F33032B1F39A0191E0452B09F05C
:1025E00090E0A5014150510938F0BD01640F751FFD
:1025F000EB0188818E32B1F717E060E000E070E017
:1026000088E0E82E2A153B050CF06CC06D01C20E67
:10261000D31EE6018881803209F45BC08E3229F432
:102620004217530709F055C004C08232E1F08C37DD
:10263000D1F0D6EDFD2EF80ED5E0DF1510F08D327D
:1026400091F4C6ECFC2EF80EC5E0CF1560F4D5EA87
:10265000FD2EF80ED2E0DF1530F4CFEDFC2EF80E93
:10266000CDE5CF1520F42417350781F438C02417A1
:102670003507A9F1161718F1F82ECFE9DC2ED80E80
:10268000D9E1DD1548F080527E290CC01617B8F04C
:1026900090E08FE5CFE5FC2ECFEBFC0ED9E1DF1506
:1026A00008F00E29FF24F394F60E6F01C60ED11C1C
:1026B000E6018E83D6E0DF1570F0F5820CC01A308B
:1026C00081F0421753076CF09A011AE068E0D0E1FC
:1026D000ED2E90E001C06F2D2F5F3F4F93CF1A304A
:1026E000B9F490E08681803209F424CF992329F04F
:1026F000072309F072E0708309C081E0808385813F
:10270000E80FF11D8EE7868381E3878381E006C0B1
:102710009A011AE068E0D0E1ED2EDECFDF91CF9193
:102720001F910F91FF90EF90DF90CF90BF90AF90EF
:1027300008950F931F93CF93DF93DC012C91211108
:1027400002C081E051C0EC018A8187FF35C04C890D
:102750005D896E897F898E819F8121E084960E94A8
:102760004E110097E9F1EC81FD81EF70FF2725E024
:10277000EE0FFF1F2A95E1F7DC01AE0FBF1F2C9172
:10278000253E71F1288123FF0AC0488D598D6A8D3D
:102790007B8D5C964D935D936D937C935F974C8D91
:1027A0005D8D6E8D7F8DE80FF91F538F428F758B76
:1027B000648B8A818F778A830E811F81C8018496FA
:1027C0000E94F410882361F0F80180819181DC017E
:1027D000ED91FC910280F381E02D09958111B1CF3B
:1027E00089818160898380E0DF91CF911F910F9172
:1027F00008954F925F926F927F928F929F92AF92C5
:10280000BF92CF92DF92EF92FF920F931F93CF93DD
:10281000DF93EC014A015B014C845D846E847F840C
:10282000A881AA2309F491C0488959896A897B89BA
:1028300084169506A606B70609F48DC08114910486
:10284000A104B10429F41C861D861E861F8678C04B
:10285000A3FF0BC0088D198D2A8D3B8D0815190516
:102860002A053B0508F471C014C0A5FF12C0EE8113
:10287000FF818681978125E0880F991F2A95E1F7CE
:10288000A0E0B0E088159905AA05BB0508F45DC075
:1028900057C0EE81FF81848190E009968A019B01F7
:1028A0000150110921093109082E04C036952795D8
:1028B000179507950A94D2F775016401B1E0CB1A18
:1028C000D108E108F10804C0F694E794D794C794BE
:1028D0008A95D2F7C016D106E206F30620F0452B02
:1028E000462B472B81F4A6FF05C0848D958DA68DC0
:1028F000B78D04C08C8D9D8DAE8DBF8D8C879D87CF
:10290000AE87BF8704C0C01AD10AE20AF30A8E015B
:10291000045F1F4FC114D104E104F10489F04C8518
:102920005D856E857F8598018E819F810E94F6115D
:1029300091E0C91AD108E108F10818165CF305C046
:10294000888A998AAA8ABB8A06C04C865D866E866A
:102950007F8680E001C081E0DF91CF911F910F91D0
:10296000FF90EF90DF90CF90BF90AF909F908F90AF
:102970007F906F905F904F9008952F923F924F926B
:102980005F926F927F928F929F92AF92BF92CF92FF
:10299000DF92EF92FF920F931F93CF93DF93CDB708
:1029A000DEB72D970FB6F894DEBF0FBECDBF6C011A
:1029B0007B01FA0181809280DB018C91807709F4A0
:1029C00044C0D6018C91811140C08081837009F48C
:1029D00022C3C4010C966DE070E00E94D2295524F8
:1029E0005394560E2D835F0140E050E0BA01C701B9
:1029F0000E94F9131C861D861E82412C612C712CAD
:102A00001B861501B6E02B0E311CF70180899189D8
:102A1000A289B3899C01AD0195E0569547953795FC
:102A200027959A95D1F72F83388749875A870F8141
:102A3000188561E0C7010E94CE04009741F4D701D8
:102A400011968C91882309F4A8C080E0F9C2FC019A
:102A50002081253E11F021110CC0611004C03F817E
:102A60003C8738853D87651408F46394211105C0BF
:102A700094C0651408F4D2C202C0253EF1F12E3292
:102A8000E1F1DC011B963C911B973F3009F057C0E8
:102A9000711009C026FFB9CF2F71722E1D962C918F
:102AA0002E83472C09C04A94241127C0DC011D96AF
:102AB0002C913E81321321C0442D50E041505109E8
:102AC0006DE0649F9001659F300D11242815390534
:102AD000A0F4FC0170E0753018F48181928107C088
:102AE0007B3018F48481958102C0868197812815F6
:102AF000390529F4892B09F488CF712C86CF8F3FB3
:102B0000910509F0D0F74FEB480F4A3110F0682FCC
:102B100002C060E2680FA9014F5F5F4FD5011396B5
:102B20008D919C911497DC01A20FB31F8C919FEBA8
:102B3000980F9A3108F4805E6813DFCF71C233FDBD
:102B4000DCCF7720B9F0B1E04B127FCFFC01AC01B4
:102B5000455F5F4F90E060E8969F90011124969545
:102B6000922B2191920FE417F507A9F72E8192136A
:102B70006CCF0FC04BE050E0B1010E94052A892BB9
:102B800009F043CFD5018C9180FF03C021E02B8752
:102B90003CCFBD81B7FF6FC158CF8D818274823425
:102BA00009F053CF662051F00C851D8507C060E009
:102BB000C7010E94CE04892B21F063946514B8F3F9
:102BC00015C0F7018181882389F03FCFC7010E949A
:102BD0004607882309F439CFD7011696ED91FC9169
:102BE00017978281823020F430E1630E651470F310
:102BF0002B85222309F473C0D50115964C9082E0F1
:102C0000682E712C1501B6E02B0E311C43C0F3E089
:102C1000F41510F4A3E04A2E34E0340D282F2F7061
:102C2000432F50E02A3008F053C0205DF501E40F37
:102C3000F51F2683F4E096958795FA95E1F73150D4
:102C4000431660F3F501E40DF11D2EE7268340E005
:102C500050E0BA01C7010E94F91361E0C7010E9468
:102C6000CE040097B9F1FC0120812223C1F1238514
:102C700023FDF3CF4BE050E0BC01C1010E94052AC7
:102C8000892B59F7BFEF6B1A7B0AE4E66E167104C5
:102C900009F4DBCEF50141815281C301840F951FF8
:102CA0000380F481E02D4E0F5F1FE417F50709F450
:102CB000AECF9C01B5E0220F331FBA95E1F7820F2A
:102CC000931F2191022E000C330B82279327EDCF07
:102CD000295CACCFD70111968C918111B6CEA80199
:102CE00060E070E0E5E0440F551F661F771FEA952E
:102CF000D1F7C7010E94F913882309F4A6CE7724DF
:102D00007A94750C172D5FE0652E1501F6E02F0EF5
:102D1000311C250121E1420E511C0DE0112309F463
:102D200063C060E0C7010E94CE04FC01892B09F456
:102D30008CCED70116962D913C911797D901949678
:102D40008C919497816094968C93612F171101C098
:102D50006064608363861486D10120E030E8239F9D
:102D6000C00111242695282B9D91290FA415B50586
:102D7000A9F72587138E128ED50113964D915C917C
:102D800014976F7170E061507109069F9001079F61
:102D9000300D112460E02815390540F4DA01A20F46
:102DA000B31F8C91082E000C990B0AC081E090E0B3
:102DB0002815390511F480E090E0919581959109ED
:102DC000653018F49283818307C06B3018F49583C3
:102DD000848302C0978386836F5F2F5F3F4F329655
:102DE0006D30C9F611509ACFF701008911892289F7
:102DF000338945E036952795179507954A95D1F77C
:102E000060E0C7010E94CE04009709F41ECE20E2C4
:102E1000DC011D922A95E9F7F50136962BE0DC01DD
:102E200001900D922A95E1F7F50120812871DC01CE
:102E30001C962C931C9721E238E251963C932E93DA
:102E4000509740E058E01F965C934E931E97539620
:102E50003C932E93529759963C932E93589757969E
:102E60005C934E935697D7011696ED91FC91179768
:102E700084A1816084A380E2F60111928A95E9F72A
:102E8000D7011696AD90BC901797F601B782A6822F
:102E9000158304835C968D919D910D90BC91A02D1E
:102EA00080879187A287B3870F701127F501BB96A2
:102EB00095E0000F111F9A95E1F7E00FF11F838550
:102EC00083FF03C0D6011C92C0CDD501A00FB11F56
:102ED000D6968C918771D6018C939385987111F455
:102EE00088608C93F60173828D81827319F08081E2
:102EF000817141F78D818F70D60112968C93F50107
:102F000087A190A5A1A5B2A5F601848B958BA68B70
:102F1000B78B0A0D1B1DF801FF9640805180612C74
:102F2000712CD20199278827369640805180612CD8
:102F3000712C482A592A6A2A7B2AFD81F4FF48C04D
:102F4000411451046104710409F471C09E012F5FA2
:102F50003F4FB301A201C5010E94F611F82E87FD73
:102F6000B1CF00E010E09801B301A201C5010E94B9
:102F70009311882309F4A6CFD50190964D915D91C8
:102F80006D917C91939777FD09C04F5F5F4F6F4FB5
:102F90007F4FF50140A351A362A373A3D5011896F7
:102FA0004D915D916D917C911B9744165506660677
:102FB000770628F4F501408651866286738649803B
:102FC0005A806B807C80F110C1CF811130C07ACFE4
:102FD000D6015C964D925D926D927C925F97F8015E
:102FE000E95BFF4F80819181A281B381F601808FDF
:102FF000918FA28FB38FFD81F5FF21C0D601589626
:103000004D915D916D917C915B97C6010E94F91382
:10301000811115C057CF55245394E4CC612C2FCD8A
:103020007F5F32967D3009F4F0CC9A0154CDD60101
:1030300012968C911297806812968C93DCCF81E067
:103040002D960FB6F894DEBF0FBECDBFDF91CF91A6
:103050001F910F91FF90EF90DF90CF90BF90AF90B6
:103060009F908F907F906F905F904F903F902F90A8
:1030700008952F923F924F925F926F927F928F921C
:103080009F92AF92BF92CF92DF92EF92FF920F93F7
:103090001F93CF93DF93EC015B014A01888183FF8B
:1030A0000EC08A8181FF0BC082FF0FC0488D598DF1
:1030B0006A8D7B8DCE010E94F913811106C0898132
:1030C000816089838FEF9FEF0DC1A40160E070E004
:1030D00088899989AA89BB8980959095A095B09592
:1030E00084179507A607B70750F364011E018CE00B
:1030F000280E311C088919892A893B89C114D104F9
:1031000009F4D5C08E819F81B901A80129E0769587
:103110006795579547952A95D1F7DC011396FC9052
:10312000F4221170F11034C00115110589F54C8598
:103130005D856E857F85411551056105710569F0D5
:1031400091010E94F61187FDBACF811121C0CE01F5
:103150000E947D0681111CC0B2CF8C8D9D8DAE8DDD
:10316000BF8D0097A105B10579F4CE010E947D06BF
:10317000882309F4A4CF8C859D85AE85BF858C8F6F
:103180009D8FAE8FBF8F04C08C879D87AE87BF8712
:10319000EE81FF814C855D856E857F8542505109AA
:1031A00061097109048004C0440F551F661F771F11
:1031B0000A94D2F780899189A289B389480F591F4F
:1031C0006A1F7B1F4F0D511D611D711D01151105DA
:1031D00021F4C114B2E0DB06B0F580E092E0801B80
:1031E000910B76018C159D0508F47C0101151105E4
:1031F00079F4488859886A887B88888D998DAA8D4A
:10320000BB8D481659066A067B0610F025E001C002
:1032100021E0CF0184960E944E11009709F44FCF10
:10322000A701B501800F911F0E94122A0E0D1F1DCC
:103230000115124059F58E819F8184960E94F410E9
:10324000811124C03CCF87A190A5A1A5B2A5841768
:103250009507A607B70741F414A28FEF9FEFDC0193
:1032600087A390A7A1A7B2A7EE81FF81808191815A
:10327000DC01ED91FC910480F581E02D950109952B
:10328000882309F41CCFE12C82E0F82E88899989E3
:10329000AA89BB898E0D9F1DA11DB11D888B998B9D
:1032A000AA8BBB8BAE0CBF1CCE18DF0823CF888D3A
:1032B000998DAA8DBB8D80179107A207B30738F4AB
:1032C000088F198F2A8F3B8F8A8180688A838A8131
:1032D00083FD02C0C40106C0CE010E949913811172
:1032E000F9CFEDCEDF91CF911F910F91FF90EF902D
:1032F000DF90CF90BF90AF909F908F907F906F9016
:103300005F904F903F902F900895E4E7F2E0A089FE
:10331000B18982E08C93A485B5851C92A685B7857A
:103320008FEC8C93108EA489B58986E08C93A2894A
:10333000B3898C9180618C93A289B3898C918860C8
:103340008C93A289B3898C9180688C930288F389CD
:10335000E02D80818F7D80830895CF93DF930E943D
:10336000930EEB010E94EE0E8F3F49F00E94930EE8
:103370006C1B7D0B69357240A8F380E001C081E0D1
:10338000DF91CF9108958F929F92AF92BF92CF928B
:10339000DF92EF92FF92CF93C82F10928C0381E0BF
:1033A00090E0A0E0B0E080938F0390939003A0930F
:1033B0009103B093920387E893E09093AD038093D9
:1033C000AC031092AB038FEF9FEFDC018093AE0351
:1033D0009093AF03A093B003B093B103CC2331F12A
:1033E000C53008F0E7C020E040E050E0BA018BEAC9
:1033F00093E00E944E11009709F4DCC020E1C29FC7
:10340000800D911D11244097FC01E254FE4F208154
:103410002F7709F0CFC0389680809180A280B3804A
:1034200081149104A104B10421F4C4C0812C912C15
:10343000540120E0B501A4018BEA93E00E944E11F3
:10344000FC01892B09F4B6C08385948581159240CF
:1034500009F0B0C08089823009F0ACC0468557853C
:103460004115510509F4A6C02585209389038FEFE6
:10347000820F80938A0380E091E0291751F031E0B8
:10348000380F393019F480938B0394C0990F832F30
:10349000F4CF80938B03C688D788C114D10419F068
:1034A000E12CF12C04C0C4A0D5A0E6A0F7A0C092E6
:1034B0009303D0929403E0929503F0929603D50182
:1034C000C401840F951FA11DB11D80939B03909390
:1034D0009C03A0939D03B0939E032189328930936E
:1034E0008E0320938D03CC0CDD1CEE1CFF1CC80E3C
:1034F000D91EEA1EFB1EC092A303D092A403E09241
:10350000A503F092A60355E0220F331F5A95E1F769
:1035100021503E4F232F33272695C20ED31EE11C88
:10352000F11CC0929703D0929803E0929903F09215
:103530009A03238934892115310521F0C901A0E0BE
:10354000B0E004C080A191A1A2A1B3A1B501A401E2
:103550004C195D096E097F09480F591F6A1F7B1FAF
:1035600000908B0304C076956795579547950A940C
:10357000D2F7DB01CA010196A11DB11D80939F0303
:103580009093A003A093A103B093A2038FEF9FEFAA
:10359000DC018093A7039093A803A093A903B093A1
:1035A000AA03453F8FE058076105710528F48CE0B8
:1035B00080938C0380E017C0453F5F4F6105710524
:1035C00010F480E10DC084A595A5A6A5B7A58093AC
:1035D000A3039093A403A093A503B093A60380E252
:1035E00080938C0381E0CF91FF90EF90DF90CF909C
:1035F000BF90AF909F908F9008958F929F92AF92BF
:10360000BF92CF92DF92EF92FF920E946E0E6B01FB
:103610007C0192E0892E912CA12CB12C0E946E0E7F
:10362000DC01CB018C199D09AE09BF09883E93408E
:10363000A105B10598F328EEC20E23E0D21EE11CCD
:10364000F11C8A9489288A288B2829F0812C912CB6
:1036500054018394E3CFFF90EF90DF90CF90BF9021
:10366000AF909F908F900895CF93DF93BC0184E734
:1036700092E00E94041DEC0184E792E00E94001D8C
:103680008C0F9D1FDF91CF910895CF92DF92EF9223
:10369000FF92CF93DF93AB01BC0177FF23C06A0198
:1036A0007B01E0917402F09175020190F081E02DB0
:1036B0006DE284E792E00995EC0144275527BA01B1
:1036C0004C195D096E097F092AE084E792E00E94A7
:1036D000B71C8C0F9D1FDF91CF91FF90EF90DF9073
:1036E000CF9008952AE084E792E0DF91CF91FF9098
:1036F000EF90DF90CF900C94B71CCF93DF93BC0179
:10370000990F880B990B0E94451BEC0184E792E00E
:103710000E94001D8C0F9D1FDF91CF910895BC0169
:10372000990F880B990B0C94451B0F931F930E94C4
:10373000930E60937C0270937D0280937E0290933F
:103740007F02E0917402F09175020484F585E02D0A
:1037500084E792E0099597FF1FC00E94930E0091A5
:103760007C0210917D0220917E0230917F02DC016B
:10377000CB01801B910BA20BB30B0091780210912F
:10378000790220917A0230917B0280179107A2077B
:10379000B307B8F28FEF9FEF1F910F910895CF926B
:1037A000DF92EF92FF920F931F93CF93DF936C0101
:1037B0007A018B01C0E0D0E0CE15DF0589F0D80199
:1037C0006D918D01D601ED91FC910190F081E02D7C
:1037D000C6010995892B11F47E0102C02196ECCF18
:1037E000C701DF91CF911F910F91FF90EF90DF9074
:1037F000CF900895FF920F931F93CF93DF9300D044
:1038000000D0CDB7DEB70E94951BFC0197FD11C01B
:103810008D32910591F0C0970A9778F0E09174028B
:10382000F09175020284F385E02D84E792E009951A
:10383000EACF60E070E0CB014CC020E030E0A901AD
:10384000F12CE130F105F1F0ED32F105C9F0CF01D5
:10385000C0970A97B8F4AAE0B0E00E94A4298F01AB
:10386000FF0F220B330BDC01CB01800F911FA21F36
:10387000B31F9C01AD01205331094109510902C018
:10388000FF24F394E0917402F09175020284F385B1
:10389000E02D84E792E029833A834B835C8309958A
:1038A0000E94951BFC01C09729813A814B815C8164
:1038B0000A9738F2E130F10521F2FF2041F0662746
:1038C0007727CB01621B730B840B950B02C0CA01D7
:1038D000B9010F900F900F900F90DF91CF911F9132
:1038E0000F91FF900895EF92FF920F931F93CF9344
:1038F000DF93EC017B010E94930E8B010E94EE0E80
:103900008E838F3F49F40E94930E601B710B6D32C2
:103910007140A0F385E503C08E3F39F080E58A83CE
:10392000CE010E94F50E80E01BC08FEF8EBDF70127
:10393000D701A150BE4F9FEF0DB407FEFDCF8EB54E
:103940009EBD8193EA17FB07B9F70DB407FEFDCFC3
:103950008EB58C931E820E94EE0E0E94EE0E81E0C8
:10396000DF91CF911F910F91FF90EF9008954F92AB
:103970005F926F927F92EF92FF920F931F93CF937C
:10398000DF93CDB7DEB7A1970FB6F894DEBF0FBEB9
:10399000CDBF7C01FA01CB0119A2223008F42AE044
:1039A0008E010F5D1F4F422E512C612C712CBF01D7
:1039B000A30192010E946329F901CA010150110972
:1039C0006A3014F4605D01C0695CD8016C93232BEC
:1039D000242B252B61F7B801C7010E946612A1961E
:1039E0000FB6F894DEBF0FBECDBFDF91CF911F9110
:1039F0000F91FF90EF907F906F905F904F900895A0
:103A00006FEA71E00C946612EF92FF920F931F938E
:103A1000CF93DF938C017B01C0E0D0E0F701EC0F86
:103A2000FD1F6491662361F0D801ED91FC91019036
:103A3000F081E02DC8010995892B11F02196EECF78
:103A4000CE01DF91CF911F910F91FF90EF900895DC
:103A5000CF92DF92EF92FF920F931F93E82FF92FEF
:103A600005C0015011092109310961F190819623A6
:103A70009417B9F305C0015011092109310911F159
:103A8000908196239413F7CFC12CD12CE12CF12CEB
:103A90000AC08FEFC81AD80AE80AF80A0C151D05E3
:103AA0002E053F0579F080818623841791F36C2DD4
:103AB0007D2D8E2D9F2D1F910F91FF90EF90DF9008
:103AC000CF90089560E070E080E090E01F910F914A
:103AD000FF90EF90DF90CF900895CF93DF93CDB715
:103AE000DEB7C556D1090FB6F894DEBF0FBECDBF05
:103AF000789484B5826084BD84B5816084BD85B5C9
:103B0000826085BD85B5816085BD80916E008160D4
:103B100080936E001092810080918100826080937A
:103B2000810080918100816080938100809180007C
:103B30008160809380008091B10084608093B100A7
:103B40008091B00081608093B00080917A008460A1
:103B500080937A0080917A00826080937A008091CD
:103B60007A00816080937A0080917A0080688093E7
:103B70007A001092C10010925503109256031092D1
:103B800057031092580310921303109214031092CB
:103B90001503109216030E94930E6B017C014B01DA
:103BA0005C0128EB820E2BE0921EA11CB11C0E942E
:103BB000930E6C157D058E059F0528F086169706D9
:103BC000A806B906A0F784E792E090935403809387
:103BD00053030E9485190E94930E60931303709300
:103BE0001403809315039093160360EA71E08091AB
:103BF0005303909154030E9466120E94930E6B012E
:103C00007C014B015C018AE0880E911CA11CB11C57
:103C10000E94930E6C157D058E059F0528F0861673
:103C20009706A806B906A0F781E0809327030E94B3
:103C3000851962EB71E084E792E00E94661284E7E6
:103C400092E00E94001D84E792E00E94001D88E13E
:103C50009CEFAFEFBFEF8093020790930307A09311
:103C60000407B093050781EE90E0A0E0B0E08093F8
:103C7000FE069093FF06A0930007B093010788EE1D
:103C800093E0A0E0B0E08093ED069093EE06A09361
:103C9000EF06B093F00683E89FEFAFEFBFEF80939E
:103CA000E9069093EA06A093EB06B093EC0679E858
:103CB000672E76E0772E8301D8018D919D918D013D
:103CC000FC01208130E0F901EE0FFF1F2E0F3F1F96
:103CD000F901EE5BFD4F2081DC0153966D917C91E3
:103CE000549726FD03C00E942E0902C00E94FA0AC2
:103CF000B6E001391B0701F709E816E04CE0D42EC5
:103D000052E0C52EF801E190F1908F01D7012C917E
:103D1000822F90E0FC01EE0FFF1F8E0F9F1FFC0112
:103D2000EE5BFD4F808186FD65C01D96BC902C30FA
:103D300008F055C061E08B2D0E94320EF7018081A2
:103D4000E82FF0E09F01220F331FE20FF31FEE5B1D
:103D5000FD4F9B2D9F732081207CB22EB92AB0820B
:103D6000D70111961C92119712961C926D2D0E94EC
:103D7000C629BCE08B9FB001112440E050E09A01BD
:103D8000260F371FF901EE0FFF1F2E0F3F1FF901FE
:103D9000EE5BFD4F908196FD15C04F5F5F4F4C303D
:103DA000510569F781110EC010928000C092810008
:103DB0001092850010928400B19A80916F00826009
:103DC00080936F00D701EC91F0E0CF01880F991F2D
:103DD000E80FF91FEE5BFD4F808180648083F7015F
:103DE00083819481DC01ED91FC910190F081E02DC3
:103DF000B7010995B6E001391B0709F083CF61E0EF
:103E0000809146060E94020E8E010F5F1F4F5E01D9
:103E1000E9E0AE0EB11C780199E8C92E96E0D92EE2
:103E2000502E412ED6018D919D916D010E948E0ADA
:103E3000F701819391937F01EA15FB0599F789E8D2
:103E4000C82E86E0D82ED601ED90FD906D01C701F9
:103E50000E948E0A4C01F70167857089C7010E9494
:103E6000FA0AD70151966D917C915297C7010E9431
:103E7000FA0AB401C7010E94FA0AB1E9CB16B6E00A
:103E8000DB0609F7F801619171918F01D3018D91E2
:103E90009D913D010E94FA0A0A151B0599F761E2FE
:103EA00073E084E792E00E94041D8AEF92E00E9492
:103EB000341B0E94FD1A6EEE72E084E792E00E94CD
:103EC000041D82ED92E00E94341B0E94FD1A66ECF4
:103ED00072E084E792E00E94041D1092DE051092C9
:103EE000D7051092D4051092D9058FED95E09093E7
:103EF000D6058093D5050E94930E8B01E090D505E1
:103F0000F090D6058AE0F701828361E00E94320ECC
:103F100061E0D70112968C910E94020EFFB6F894D0
:103F200080916802811127C0E1E4F3E08491E5E526
:103F3000F3E09491E82FF0E0EE0FFF1FE859FF4FF8
:103F4000A591B491EC91E92321F461E08AE00E940B
:103F5000020E61E08AE00E94320E8CB580618CBD59
:103F60008CB580648CBD61E08DE00E94320E61E012
:103F70008BE00E94320E809168028F5F809368020E
:103F8000FFBEE091D505F091D60582E580831182D0
:103F900082ED95E00E94400FE091D505F091D605A5
:103FA00061E082810E94020EAAE0FA2E8FEF0E9449
:103FB000E90EFA94F110FACFE091D505F091D6050B
:103FC00060E082810E94020E20E030E0A90160E002
:103FD00082ED95E00E94590F813049F00E94930EC6
:103FE000601B710B613D774078F380E25AC02AEA8A
:103FF00031E040E050E068E082ED95E00E94590F2A
:10400000853011F481E00CC0F4E0FF2E0E94EE0E2A
:104010008093D805FA94F110F9CF8A3A59F482E0E6
:104020008093D9058091D905823069F0C12CD12CBB
:1040300076010EC00E94930E601B710B613D7740AC
:10404000B0F285E22EC0C12CD12CE12CE0E4FE2E92
:1040500020E030E0A90167E382ED95E00E94590F6E
:10406000A701960169E282ED95E00E94590F88232D
:1040700049F00E94930E601B710B613D774040F345
:1040800083E40FC08091D905823001F520E030E053
:10409000A9016AE382ED95E00E94590F882341F05F
:1040A00087E38093D40582ED95E00E94F50E45C02C
:1040B0000E94EE0E807C803C19F483E08093D90549
:1040C0000E94EE0E0E94EE0E0E94EE0E82ED95E032
:1040D0000E94F50EE091D505F091D60580E580832C
:1040E00081E0818382ED95E090938803809387033C
:1040F00082EB95E00E94EF0581E00E94C3198823BE
:1041000049F067E873E082EB95E00E94D5058823CB
:10411000A1F006C080E00E94C3198111F2CF0DC04A
:104120008091B205807749F082EB95E09093670229
:104130008093660289EA92E002C088EB92E00E94D6
:10414000341B0E94FD1A8E010E5A1F4F8AE0E8E3CD
:10415000F2E0D80101900D928A95E1F719821A8256
:1041600021E0A80162EB75E0852D942D0E94F805F1
:10417000811136C06DE972E084E792E00E94041D6F
:1041800019A21AA2A6961FAF0EAFA69719821A827D
:104190008091B205807709F0C3C31CC06091B80557
:1041A0007091B905852D942D0E94D505882391F035
:1041B000E52CF42C70E2D72EAE014C595F4FBE01B6
:1041C0006F5B7F4FA6968EAD9FADA6970E947B1228
:1041D0008111B9C386E692E00E94341B0E94FD1A49
:1041E00061E087E893E00E94310C41E0B80187E884
:1041F00093E00E94580CC12CD12C4AE0642E712C03
:1042000088248394912C62E0A62EB12C6CE272E09B
:10421000CE0181960E94262A1EA225E6C216D1044E
:1042200009F45BC0C601E12C8A30910530F0E394BB
:10423000B3010E94D229CB01F7CFF12CA4014E1972
:104240005F0962E770E0CE018F5B9F4F0E941F29DC
:10425000F501EE19FF0981E490E08C0F9D1FE80F36
:10426000F91F1082BC0180970E941B2A4AE0BE0100
:10427000645A7F4FC6010E942E29BE01645A7F4FA7
:10428000CE0181960E941B2A62E372E0CE018196E4
:104290000E941B2A64E372E0CE0181960E941B2AD1
:1042A0009FEFC91AD90A19821A8221E0AE014F5D27
:1042B0005F4F62EB75E0852D942D0E94F80581110A
:1042C000A5CFBE016F5D7F4F852D942D0E94262ABC
:1042D00061E087E893E00E94310C6AE572E084E7D0
:1042E00092E00E94041D67E472E084E792E00E947D
:1042F000041D652D742D84E792E00E94661284E708
:1043000092E00E94001D0E94FD1A6BE372E084E7B8
:1043100092E00E94041D40E0B80187E893E00E940B
:10432000580C811103C08FE192E002C080E192E05D
:104330000E94341B0E94FD1A64E072E084E792E060
:104340000E94041D609166027091670222E4452D6F
:10435000542D87E693E00E94F805811103C087EF92
:1043600091E002C089EE91E00E94341B0E94FD1A88
:1043700067E671E083E693E00E94041D67E271E066
:1043800083E693E00E94041D62EE70E083E693E012
:104390000E94041D66EA70E083E693E00E94041D1B
:1043A0006DE770E083E693E00E94041D83E693E0EE
:1043B0000E94001D6DED71E084E792E00E94041DF3
:1043C00068EC71E084E792E00E94041D8CE593E0C4
:1043D0000E949B0B482F50E060E070E02AE084E7E9
:1043E00092E00E94B71C84E792E00E94001D0E94A8
:1043F000FD1A6CEB71E084E792E00E94041D67EA0D
:1044000071E084E792E00E94041D89E593E00E9438
:104410009B0B482F50E060E070E02AE084E792E0D8
:104420000E94B71C84E792E00E94001D0E94FD1AC2
:1044300023E0E22EF12C33E2C32ED12C84E792E06C
:104440000E94001D68E075E084E792E00E94041D70
:104450000E94FD1A89EF96E00E94C6080E948F1BF9
:1044600065E075E084E792E00E94041D0E94FD1A59
:1044700089EF96E00E948E0A0E948F1B83E095E0F0
:104480000E94341B0E94FD1A66EE74E084E792E0FD
:104490000E94041D0E94FD1A84EE96E00E94C60848
:1044A0000E948F1B63EE74E084E792E00E94041D7B
:1044B0000E94FD1A84EE96E00E948E0A0E948F1BD5
:1044C00081EE94E00E94341B0E94FD1A64EC74E0BB
:1044D00084E792E00E94041D0E94FD1A8FEC96E092
:1044E0000E94C6080E948F1B61EC74E084E792E092
:1044F0000E94041D0E94FD1A8FEC96E00E948E0A15
:104500000E948F1B8FEB94E00E94341B0E94FD1AC7
:1045100062EA74E084E792E00E94041D0E94FD1AA2
:104520008AEB96E00E94C6080E948F1B6FE974E038
:1045300084E792E00E94041D0E94FD1A8AEB96E037
:104540000E948E0A0E948F1B8DE994E00E94341B0A
:104550000E94FD1A67E874E084E792E00E94041D5F
:104560000E94FD1A0E94930E4B015C01A0E18A0E8D
:10457000A7E29A1EA11CB11C84E792E00E94D50C10
:10458000892BF1F40E94930E86169706A806B906A9
:1045900098F70E94930E4B015C01B0E18B0EB7E2DD
:1045A0009B1EA11CB11C84E792E00E94001D61E7E4
:1045B00074E084E792E00E94041D0E94FD1ADCCFA3
:1045C0000E94FA1B8B01CB010E947D1B023011055A
:1045D00071F024F401301105E1F00CC00330110535
:1045E000D9F00430110531F40AEB16E017C004EEDF
:1045F00016E014C086E694E00E94341B0E94FD1A67
:1046000084E792E00E94001D84E792E00E94530D2F
:1046100084C109EF16E002C00FEC16E00E94930E71
:104620004B015C01E0E18E0EE7E29E1EA11CB11C75
:1046300061E574E084E792E00E94041D0E94FD1A87
:1046400084E792E00E94D50C892BC1F40E94930E5E
:1046500086169706A806B90698F70E94930E4B0196
:104660005C01F0E18F0EF7E29F1EA11CB11C84E7F4
:1046700092E00E94001D68E374E0DCCF0E94FA1B08
:104680004B015C01CB010E947D1BC4010E948F1B6A
:1046900065E274E084E792E00E94041D0E94FD1A26
:1046A000B401C8010E94FA0AC8010E94C6080E940B
:1046B0008F1B83E194E00E94341B0E94FD1A6FEF70
:1046C00073E084E792E00E94041D0E94FD1A60E0FE
:1046D0008091E2050E94020EC7010197F1F761E0A7
:1046E0008091E2050E94020EC6010197F1F760E099
:1046F0008091E2050E94020E8091E4059091E5050B
:104700009927FC01E55BFC4F6491FC01E95CFC4FDF
:10471000E491F0E0EE0FFF1FE35DFC4F8591949173
:1047200003E61BE020E030E0462F0E94281D6115C3
:1047300071058105910549F0DC01CB010196A11DB0
:10474000B11DBC01CD019F7003C060E070E0CB01E2
:104750000E94451B6FEE73E084E792E00E94041D07
:104760000E94FD1A8091FC069091FD06DC01ED91FE
:10477000FC910280F381E02D09950E947D1B0E942F
:10478000FD1A6FED73E084E792E00E94041D0E9421
:10479000FD1A8091E7069091E806DC01ED91FC910D
:1047A0000280F381E02D09950E947D1B0E94FD1A75
:1047B0006FEC73E084E792E00E94041D0E94FD1AF2
:1047C0008091D2069091D306DC01ED91FC9102809C
:1047D000F381E02D09950E947D1B0E94FD1A6FEB6D
:1047E00073E084E792E00E94041D0E94FD1A80910C
:1047F000BD069091BE06DC01ED91FC910280F38133
:10480000E02D09950E947D1B0E94FD1A6FEA73E05E
:1048100084E792E00E94041D0E94FD1AE091E605E3
:10482000F091E7050280F381E02D86EE95E0099591
:104830000E947D1B0E94FD1A6FE973E084E792E0FD
:104840000E94041D0E94FD1A8091FC069091FD06B5
:10485000DC01ED91FC910680F781E02D09950E9425
:104860007D1B0E94FD1A6FE873E084E792E00E94CE
:10487000041D0E94FD1A8091E7069091E806DC0174
:10488000ED91FC910680F781E02D09950E947D1B3A
:104890000E94FD1A6FE773E084E792E00E94041D16
:1048A0000E94FD1A8091BD069091BE06DC01ED913B
:1048B000FC910680F781E02D09950E947D1B0E94E6
:1048C000FD1A6FE673E084E792E00E94041D0E94E7
:1048D000FD1AE091E605F091E7050680F781E02DED
:1048E00086EE95E009950E947D1B0E94FD1A6FE5FA
:1048F00073E084E792E00E94041D0E94FD1AE0919B
:10490000E605F091E7050284F385E02D86EE95E05B
:1049100009950E947D1B0E94FD1A0E94750D8ECD87
:10492000F80180818F3209F049C0A696EEADFFAD47
:10493000A69780818F3209F031CC3196A696FFAFD1
:10494000EEAFA697F2CFA696EEADFFADA69780810B
:10495000882331F121E0AE014F5B5F4FB701CE01FB
:1049600081960E94BD1481110BC0AE014F5B5F4F59
:10497000B701CE0181960E94CE07882309F42ACC84
:10498000FE01B196A52DB42D8D2D01900D928A9525
:10499000E1F7CE0181960E94EF05E52CF42C0CCCBA
:1049A000AE014F5B5F4FB701CE0181960E94CE07EB
:1049B000882309F40FCC80E892E00ECC82EBE82E3D
:1049C00085E0F82EF7CBAF92BF92CF92DF92EF92B5
:1049D000FF920F931F93CF93DF9310927702109261
:1049E000760288EE93E0A0E0B0E0809378029093A6
:1049F0007902A0937A02B0937B028CE291E09093CB
:104A000075028093740285EC90E09093810280930C
:104A1000800284EC90E0909383028093820280EC89
:104A200090E0909385028093840281EC90E09093D3
:104A300087028093860282EC90E0909389028093B3
:104A4000880286EC90E090938B0280938A02109209
:104A50008D0210928E0210928F021092900210928C
:104A60001703109218031092190310921A03109250
:104A70001B0310921C0310921D0310921E03109230
:104A80001F03109220031092210310922203109210
:104A90002303109224031092250310922603C4E9E5
:104AA000D1E0D0934907C09348072DE730E0309319
:104AB0004B0720934A0748E750E050934D07409337
:104AC0004C0787E890E090934F0780934E07109231
:104AD000510710925007D0935307C0935207309359
:104AE0005507209354075093570740935607309328
:104AF00059072093580710925B0710925A07D093DA
:104B00005D07C0935C074AE550E050935F07409310
:104B10005E0746E450E0509361074093600790932E
:104B20006307809362071092650710926407D09321
:104B30006707C093660742E850E0509369074093C7
:104B4000680730936B0720936A0790936D078093F3
:104B50006C0710926F0710926E07D0937107C09385
:104B60007007109273071092720726EA3FEF309396
:104B700075072093740710927707109276071092AA
:104B8000790710927807D0937B07C0937A07109229
:104B90007D0710927C0710927F0710927E079093FA
:104BA0008107809380071092830710928207D09329
:104BB0008507C09384078CE890E0909387078093E3
:104BC00086078AEB9FEF909389078093880710925E
:104BD0008B0710928A0710928D0710928C07109203
:104BE0003D0710923C0710923F0710923E0710922B
:104BF000410710924007109243071092420784E841
:104C000091E090933B0780933A0747E850E060E0DB
:104C100070E04093440750934507609346077093B4
:104C2000470710922F0710922E071092310710920B
:104C30003007109233071092320710923507109206
:104C4000340790932D0780932C078EE890E0A0E026
:104C5000B0E08093360790933707A0933807B0935E
:104C600039071092250710922407109227071092F7
:104C70002607109229071092280710922B071092EE
:104C80002A0784E791E09093230780932207FEE0B0
:104C9000EF2EF7E0FF2E10921107109210071092DE
:104CA0001307109212071092150710921407109212
:104CB00017071092160784E691E090930F078093F0
:104CC0000E07109219071092180788E290E0A0E0F2
:104CD000B0E080931A0790931B07A0931C07B09332
:104CE0001D078EE190E0A0E0B0E080931E07909356
:104CF0001F07A0932007B093210789EF96E00E9439
:104D0000B10909EF16E08AE397E09093FD068093DE
:104D1000FC0686E090E0909307078093060784EEF8
:104D200096E00E94B1098CE297E09093E8068093A8
:104D3000E70689E090E09093F2068093F1068FEC0D
:104D400096E00E94B10982E297E09093D3068093A7
:104D5000D20683E090E09093DD068093DC068AEB38
:104D600096E00E94B109F092BE06E092BD0685E091
:104D700090E09093C8068093C7061092E9051092C0
:104D8000E8051092EB051092EA051092ED051092DD
:104D9000EC051092EF051092EE0584E591E09093FA
:104DA000E7058093E6051093F1050093F00584EE86
:104DB00096E09093F3058093F2058FEC96E0909344
:104DC000F5058093F4058AEB96E09093F7058093C0
:104DD000F6058091FC069091FD069093F90580936D
:104DE000F8058091E7069091E8069093FB05809383
:104DF000FA058091D2069091D3069093FD05809399
:104E0000FC05F092FF05E092FE0580914E0790911F
:104E10004F0720914C0730914D0740914A07509120
:104E20004B07D0930106C0930006509303064093AE
:104E3000020630930506209304069093070680939C
:104E40000606109209061092080680915807909164
:104E500059072091560730915707409154075091B8
:104E60005507D0930B06C0930A0650930D06409346
:104E70000C0630930F0620930E0690931106809334
:104E800010061092130610921206809162079091FC
:104E90006307209160073091610740915E07509150
:104EA0005F07D0931506C0931406509317064093DE
:104EB0001606309319062093180690931B068093CC
:104EC0001A0610921D0610921C0680916C07909194
:104ED0006D0720916A0730916B07409168075091E8
:104EE0006907D0931F06C0931E0650932106409376
:104EF0002006309323062093220690932506809364
:104F0000240610922706109226068091760790912B
:104F1000770720917407309175074091720750917F
:104F20007307D0932906C093280650932B0640930D
:104F30002A0630932D0620932C0690932F068093FB
:104F40002E061092310610923006809180079091C3
:104F5000810720917E0730917F0740917C07509117
:104F60007D07D0933306C0933206509335064093A5
:104F70003406309337062093360690933906809393
:104F8000380610923B0610923A0680918A0790915B
:104F90008B072091880730918907409186075091AF
:104FA0008707D0933D06C0933C0650933F0640933D
:104FB0003E0630934106209340069093430680932B
:104FC0004206109245061092440688E080934606F9
:104FD00081E180934706109349060093480685E1D6
:104FE000E4EEF6E0AAE4B6E001900D928A95E1F7CE
:104FF00085E1EFECF6E0AFE5B6E001900D928A9521
:10500000E1F785E1EAEBF6E0A4E7B6E001900D9266
:105010008A95E1F710928A061092890610928C0602
:1050200010928B0610928E0610928D0610929006AA
:1050300010928F06E1E9F6E011821082138212824B
:10504000349636E0E93BF307B9F71092B90660E011
:1050500088E00E94020E61E088E00E94320E60E06B
:1050600081E10E94320E89EF96E090938A06809348
:10507000890684EE96E090938C0680938B068FECE5
:1050800096E090938E0680938D068AEB96E090933F
:10509000900680938F06A0E0B1E0C0E012964D919B
:1050A0005C9113976D917C9111972091B9062A30EC
:1050B00008F475C0CF5F1496CA3081F784E090E0A1
:1050C0009093E3058093E20587E090E09093E505F7
:1050D0008093E40561E084E00E94320E60E084E0A9
:1050E0000E94020E60E087E00E94320E10928C0354
:1050F0001092B2051092B30584E68093D405109205
:10510000D9058AE491E09093D3058093D20580E598
:105110008093DF051092E0051092670310926803F8
:1051200010926603109265038EE391E090936403FE
:105130008093630386EE95E09093600380935F0312
:1051400082EE95E0909362038093610382E1809305
:105150005C03D2E0D0935D03C0935E0361E082E024
:105160000E94320E60E082E10E94320E83E1809361
:105170005903D0935A03C0935B0361E082E00E941D
:10518000320E60E083E1DF91CF911F910F91FF908C
:10519000EF90DF90CF90BF90AF900C94320EE4E090
:1051A0002E9FC00111248A519A4FFC01E555FF4FF3
:1051B00071836083329651834083D1E0D20FD093C4
:1051C000B90645E956E0BB24B394BD1608F072CF8A
:1051D000FA01008111812281338160817181AB2CC0
:1051E0008A2D90E08150904C880F991F880F991F4D
:1051F000FC01EF56F94F7F01C080D1806C157D0511
:105200007CF48B56994FF701C080D180E280F38007
:10521000FC01C082D182E282F382AA94A110E0CF85
:105220008B0184E0A89EF0011124EF56F94F008312
:10523000118322833383B3944C5F5F4FC6CFFB014E
:10524000DC014150504048F005900D920020C9F714
:1052500001C01D9241505040E0F70895BB274A30ED
:1052600031F4992322F4BDE2909581959F4F0C94DF
:105270003A29BB27FB015527AA27880F991FAA1F88
:10528000A41710F0A41B83955051B9F7A05DAA3361
:1052900008F0A95DA193009779F7B111B19311922C
:1052A000CB010C945329DC01FC01672F719177230A
:1052B000E1F7329704C07C916D9370836291AE17D1
:1052C000BF07C8F30895A1E21A2EAA1BBB1BFD015C
:1052D0000DC0AA1FBB1FEE1FFF1FA217B307E407D5
:1052E000F50720F0A21BB30BE40BF50B661F771F2D
:1052F000881F991F1A9469F760957095809590950D
:105300009B01AC01BD01CF010895052E97FB1EF452
:1053100000940E949C2957FD07D00E94632907FC36
:1053200003D04EF40C949C295095409530952195CE
:105330003F4F4F4F5F4F08959095809570956195C1
:105340007F4F8F4F9F4F08950E94B729A59F900DC3
:10535000B49F900DA49F800D911D11240895B7FF57
:105360000C94A4290E94A429821B930B0895A29F48
:10537000B001B39FC001A39F700D811D1124911D29
:10538000B29F700D811D1124911D0895991B79E024
:1053900004C0991F961708F0961B881F7A95C9F7C5
:1053A00080950895AA1BBB1B51E107C0AA1FBB1F14
:1053B000A617B70710F0A61BB70B881F991F5A95A1
:1053C000A9F780959095BC01CD01089597FB072E14
:1053D00016F4009407D077FD09D00E94D22907FC6B
:1053E00005D03EF4909581959F4F089570956195F5
:1053F0007F4F0895EE0FFF1F0590F491E02D099463
:1054000081E090E0F8940C942D2AFB01DC0104C0AB
:105410008D910190801921F441505040C8F7881BAC
:10542000990B0895FB01DC0102C001900D924150DF
:105430005040D8F70895FB01DC010D900020E9F7FA
:10544000119701900D920020E1F70895FB01DC0116
:0E54500001900D920020E1F70895F894FFCF2F
:10545E005A005300640044006E003700780032009A
:10546E00820028008C001E0096001400A000190077
:10547E00AA001A00B4001A00000000000C0DCF1B89
:10548E00A40C530DD50CB30CC70C00000000BC04CB
:10549E00B904B304B6040000000038100410A10FC4
:1054AE00000000007803740370036C036803640348
:1054BE0000000000DA0A58035C044C03060464037F
:1054CE0000000000CF0A4903460343034003640370
:1054DE0000000000AF0A3403DE032803B4036403A4
:1054EE00000000007803740370036C036803640308
:1054FE00564D4450565F317C315F564D4450560DDB
:10550E000A00433A5C55736572735C7479626C750C
:10551E005C417070446174615C4C6F63616C5C548F
:10552E00656D705C564D4275696C64735C41757443
:10553E006F4D6F76655C537061726B46756E5F5220
:10554E006564426F6172645C44656275675C417547
:10555E00746F4D6F76652E63707020636F6D70691A
:10556E006C6564204E6F7620313420323031372016
:10557E0061742031303A31393A343000736F6E61D4
:10558E0072002E00747874002F546F706F4D61701E
:02559E00730098
:107E0000112484B714BE81FFF0D085E080938100F7
:107E100082E08093C00088E18093C10086E0809377
:107E2000C20080E18093C4008EE0C9D0259A86E02C
:107E300020E33CEF91E0309385002093840096BBD3
:107E4000B09BFECF1D9AA8958150A9F7CC24DD24C4
:107E500088248394B5E0AB2EA1E19A2EF3E0BF2EE7
:107E6000A2D0813461F49FD0082FAFD0023811F036
:107E7000013811F484E001C083E08DD089C08234E0
:107E800011F484E103C0853419F485E0A6D080C0E4
:107E9000853579F488D0E82EFF2485D0082F10E0AE
:107EA000102F00270E291F29000F111F8ED06801E7
:107EB0006FC0863521F484E090D080E0DECF843638
:107EC00009F040C070D06FD0082F6DD080E0C81688
:107ED00080E7D80618F4F601B7BEE895C0E0D1E017
:107EE00062D089930C17E1F7F0E0CF16F0E7DF06D8
:107EF00018F0F601B7BEE89568D007B600FCFDCFD4
:107F0000A601A0E0B1E02C9130E011968C91119780
:107F100090E0982F8827822B932B1296FA010C0160
:107F200087BEE89511244E5F5F4FF1E0A038BF0790
:107F300051F7F601A7BEE89507B600FCFDCF97BE46
:107F4000E89526C08437B1F42ED02DD0F82E2BD052
:107F50003CD0F601EF2C8F010F5F1F4F84911BD097
:107F6000EA94F801C1F70894C11CD11CFA94CF0C13
:107F7000D11C0EC0853739F428D08EE10CD085E9AC
:107F80000AD08FE07ACF813511F488E018D01DD067
:107F900080E101D065CF982F8091C00085FFFCCF94
:107FA0009093C60008958091C00087FFFCCF809118
:107FB000C00084FD01C0A8958091C6000895E0E648
:107FC000F0E098E1908380830895EDDF803219F02E
:107FD00088E0F5DFFFCF84E1DECF1F93182FE3DFCA
:107FE0001150E9F7F2DF1F91089580E0E8DFEE27F6
:047FF000FF270994CA
:027FFE00040479
:0400000300007E007B
:00000001FF