:100000000C945D000C9485000C9485000C94850084
:100010000C9485000C9485000C9485000C9485004C
:100020000C9485000C9485000C9485000C94F705C5
:100030000C9485000C9485000C9485000C9485002C
:100040000C94AD050C9485000C947B050C9455051F
:100050000C9485000C9485000C9485000C9485000C
:100060000C9485000C94850000000008000201003B
:100070000003040700000000000000000000000072
:10008000250028002B0000000000240027002A0083
:10009000040404040404040402020202020203032E
:1000A0000303030301020408102040800102040836
:1000B00010200102040810204D0F11241FBECFEFA5
:1000C000D8E0DEBFCDBF13E0A0E0B1E0E0E2F7E2B0
:1000D00002C005900D92A035B107D9F724E0A0E544
:1000E000B3E001C01D92AC39B207E1F710E0CDE5F5
:1000F000D0E004C02197FE010E948313CC35D107C4
:10010000C9F70E9452090C948E130C9400000895B4
:1001100080E090E00895FC01538D448D252F30E060
:10012000842F90E0821B930B541710F0CF96089504
:1001300001970895FC01918D828D981761F0828D51
:10014000DF01A80FB11D5D968C91928D9F5F9F730B
:10015000928F90E008958FEF9FEF0895FC01918DAD
:10016000828D981731F0828DE80FF11D858D90E01A
:1001700008958FEF9FEF0895FC01918D228D892FB7
:1001800090E0805C9F4F821B91098F73992708959F
:100190008AE593E00E94BC0021E0892B09F420E06D
:1001A000822F0895FC01848DDF01A80FB11DA35A91
:1001B000BF4F2C91848D90E001968F739927848F87
:1001C000A689B7892C93A089B1898C9180648C937E
:1001D000938D848D981306C00288F389E02D808169
:1001E0008F7D80830895EF92FF920F931F93CF939B
:1001F000DF93EC0181E0888F9B8D8C8D981305C077
:10020000E889F989808185FD24C0F62E0B8D10E0E8
:100210000F5F1F4F0F731127E02E8C8DE8120CC05B
:100220000FB607FCFACFE889F989808185FFF5CF01
:10023000CE010E94D200F1CF8B8DFE01E80FF11D9F
:10024000E35AFF4FF0820B8FEA89FB89808180623D
:1002500007C0EE89FF896083E889F989808180641D
:10026000808381E090E0DF91CF911F910F91FF900B
:10027000EF900895CF93DF93EC01888D8823C9F028
:10028000EA89FB89808185FD05C0A889B9898C919F
:1002900086FD0FC00FB607FCF5CF808185FFF2CF3A
:1002A000A889B9898C9185FFEDCFCE010E94D2003B
:1002B000E7CFDF91CF91089580E090E0892B29F07E
:1002C0000E94C80081110C940000089590E0FC0188
:1002D000E859FF4F3491FC01EC55FF4F2491FC018C
:1002E000E057FF4FE491EE2309F43BC0332339F18B
:1002F000333091F038F43130A9F0323001F584B563
:100300008F7D12C0373091F03830A1F03430B9F41D
:10031000809180008F7D03C0809180008F778093D3
:1003200080000DC084B58F7784BD09C08091B00076
:100330008F7703C08091B0008F7D8093B000F0E094
:10034000EE0FFF1FE458FF4FA591B4918FB7F894BB
:10035000EC91611103C020952E2301C02E2B2C930C
:100360008FBF08953FB7F894809152039091530343
:10037000A0915403B091550326B5A89B05C02F3F0B
:1003800019F00196A11DB11D3FBFBA2FA92F982FBB
:100390008827820F911DA11DB11DBC01CD0142E036
:1003A000660F771F881F991F4A95D1F708958F927E
:1003B0009F92AF92BF92CF92DF92EF92FF926B012A
:1003C0007C010E94B2014B015C01C114D104E10423
:1003D000F104F1F00E94B201DC01CB018819990906
:1003E000AA09BB09883E9340A105B10570F321E03D
:1003F000C21AD108E108F10888EE880E83E0981E41
:10040000A11CB11CC114D104E104F10419F7DDCF22
:10041000FF90EF90DF90CF90BF90AF909F908F9024
:100420000895CF92DF92EF92FF92CF93DF93EC018A
:10043000603282E078070CF03DC077FD06C0653B76
:1004400071052CF064EB70E002C060E070E089811F
:1004500028E830E06901C81AD10887FDD394CC0C94
:10046000DD1CCC0CDD1C0D2C000CEE08FF088A8175
:1004700028E532E0281B310987FD3395220F331F11
:10048000220F331FC901330FAA0BBB0B9C01AD0117
:100490002C193D094E095F09DB010E94E61124EB8E
:1004A00030E040E050E00E94BC11C20ED31EE41EBA
:1004B000F51EB60188818C3080F5998148E850E0BE
:1004C000491B510997FD5395440F551F440F551F64
:1004D0006417750784F09A8128E532E0291B3109F9
:1004E00097FD3395220F331F220F331FAB012617C1
:1004F00037070CF4A90142505109440F551F2FB77B
:10050000F89490E0FC01EE0FFF1F8E0F9F1FFC017F
:10051000E15CFB4F528341832FBFDF91CF91FF906E
:10052000EF90DF90CF9008959B01FC016585768563
:100530002617370754F0FC01678570896217730727
:100540001CF4283C31050CF0B9010C9411028F9277
:100550009F92AF92BF92CF92DF92EF92FF920F9352
:100560001F93CF93DF93EC018B018A8128E532E062
:100570006901C81AD10887FDD394CC0CDD1CCC0CC2
:10058000DD1C0D2C000CEE08FF08898128E830E006
:100590004901881A910887FD9394880C991C880C4E
:1005A000991C092C000CAA08BB0888818F3FC1F058
:1005B00090E0FC01EE0FFF1F8E0F9F1FFC01E15C1E
:1005C000FB4F2181328143E0220F331F4A95E1F72F
:1005D00054E0369527955A95E1F72E5F3F4F02C0BC
:1005E00020E030E02F5F3F4FC901330FAA0BBB0B58
:1005F0009C01AD01281939094A095B09A4EBB0E057
:100600000E94DB11A7019601281939094A095B09E3
:100610000E94BC117901C9010197833B910518F42F
:10062000690140E032C0B801CE01DF91CF911F9146
:100630000F91FF90EF90DF90CF90BF90AF909F9081
:100640008F900C949402C8018C199D09411121C00E
:1006500041E050E01816190614F040E050E0892FF0
:10066000881F8827881F481B5109C40ED51EEC140B
:10067000FD0429F1B601CE010E94940269E170E007
:1006800080E090E00E94D70141E0C016D106D9F683
:1006900016C0AC014E5F5F4F45305105C8F241E0D6
:1006A00050E01816190614F040E050E0892F881F1A
:1006B0008827881F481B5109440F551FD6CFDF914B
:1006C000CF911F910F91FF90EF90DF90CF90BF904F
:1006D000AF909F908F9008952F923F924F925F928C
:1006E0006F927F928F929F92AF92BF92CF92DF9242
:1006F000EF92FF920F931F93CF93DF93CDB7DEB7A7
:10070000CA5AD1090FB6F894DEBF0FBECDBF6C0137
:100710002DB73EB7C755DF4F39832883C95AD0401C
:1007200020E030E040E85FE3DC0155966D917D917B
:100730008D919C9158970E94FE118E010F551F4F6D
:10074000D60155962D913D914D915C9158970E94FF
:10075000121318160CF06DC0FE0131967F015F0177
:10076000F60183898E3008F08E5087708064809304
:100770007C0080917A00806480937A0080917A0076
:1007800086FDFCCF609178008091790070E0782B35
:10079000072E000C880B990B0E947D10D5016D93DC
:1007A0007D938D939D935D01A017B107C9F6CE018E
:1007B00001960E946508FE0131965F0160E070E0DD
:1007C000CB01D5012D913D914D915D915D010E942F
:1007D000FE11A016B106A9F720E030E040E252E495
:1007E0000E946A122B013C01812C912C5401F701CB
:1007F00061917191819191917F01A30192010E9478
:10080000FD119B01AC010E94DC109B01AC01C501F4
:10081000B4010E94FE114B015C01E016F10639F7AC
:1008200020E030E04CE152E40E946A120E941D1365
:1008300087CF8DB79EB7CB55DF4F99838883C55A35
:10084000D040ADB7BEB7A05AB1090FB6F894BEBF3D
:100850000FBEADBFEDB7FEB731966F012DB73EB7F6
:10086000205A31090FB6F8943EBF0FBE2DBF8F53EB
:100870009140CF55DF4F99838883C15AD040A05F04
:10088000B1090FB6F894BEBF0FBEADBFE05FF1096E
:10089000CD55DF4FF983E883C35AD040FE0131962E
:1008A0007601D60141915191619171914D935D9382
:1008B0006D937D93E017F107A9F7C6010E946508C3
:1008C000F60180819181A281B381CF55DF4FE8810C
:1008D000F981C15AD04080839183A283B38381E0A0
:1008E00090E0CD55DF4FA881B981C35AD0408D9398
:1008F0009C93F601E456FF4FC955DF4FF983E88317
:10090000C75AD040212C312CC12CD12C00E010E052
:10091000F701448055806680778020813181428153
:100920005381F4E0EF0EF11CC301B2010E94FD11EE
:100930004B015C0120E030E0A9010E94761087FFA6
:1009400004C0B7FAB094B7F8B09420E030E040E8C3
:100950005FE3C501B4010E94761087FF16C0F8015D
:10096000EE0FFF1FCD55DF4F28813981C35AD0408C
:10097000E20FF31F80819181019691838083C816D5
:10098000D9062CF518016C0122C00F5F1F4FF8012A
:10099000EE0FFF1FEE0FFF1FCF55DF4F88819981AC
:1009A000C15AD040E80FF91F40825182628273829F
:1009B000F801EE0FFF1FCD55DF4FA881B981C35A53
:1009C000D040EA0FFB1F21E030E031832083C9557E
:1009D000DF4F88819981C75AD040E816F90609F09F
:1009E00097CF92E0C916D1048CF0220C331C220C54
:1009F000331CCF55DF4FE881F981C15AD040E20D59
:100A0000F31DC080D180E280F38003C0C12CD12CC3
:100A10007601CB55DF4FA881B981C55AD0400FB6BA
:100A2000F894BEBF0FBEADBF20E030E040E251E41D
:100A3000C701B6010E94761087FD10C020E030E0AB
:100A400040E054E4C701B6010E941213181634F0B6
:100A5000C701B6010E94DC12CB0102C080E090E029
:100A6000C755DF4FE881F981C95AD0400FB6F894D5
:100A7000FEBF0FBEEDBFC655DF4F0FB6F894DEBF09
:100A80000FBECDBFDF91CF911F910F91FF90EF90DF
:100A9000DF90CF90BF90AF909F908F907F906F909E
:100AA0005F904F903F902F9008951F920F920FB636
:100AB0000F9211242F933F934F935F936F937F93E4
:100AC0008F939F93AF93BF93EF93FF938AE593E048
:100AD0000E94D200FF91EF91BF91AF919F918F91B2
:100AE0007F916F915F914F913F912F910F900FBE2A
:100AF0000F901F9018951F920F920FB60F9211240E
:100B00002F938F939F93EF93FF93E0916A03F0915C
:100B10006B038081E0917003F091710382FD12C03C
:100B20009081809173038F5F8F732091740382177C
:100B300051F0E0917303F0E0E65AFC4F958F8093FB
:100B4000730301C08081FF91EF919F918F912F914D
:100B50000F900FBE0F901F9018951F920F920FB617
:100B60000F9211242F933F938F939F93AF93BF9333
:100B70008091560390915703A0915803B091590367
:100B80003091510323E0230F2D3720F40196A11D4E
:100B9000B11D05C026E8230F0296A11DB11D2093AB
:100BA00051038093560390935703A0935803B09337
:100BB00059038091520390915303A0915403B09133
:100BC00055030196A11DB11D8093520390935303C9
:100BD000A0935403B0935503BF91AF919F918F9110
:100BE0003F912F910F900FBE0F901F9018951F925D
:100BF0000F920FB60F9211242F933F934F935F9351
:100C00006F937F938F939F93AF93BF93EF93FF93D4
:100C10008091500387FF05C01092850010928400D8
:100C20001BC020915003022E000C330B80916304F3
:100C300090E02817390784F480915003082E000CA7
:100C4000990BFC01EE0FFF1F8E0F9F1FFC01E15C53
:100C5000FB4F808186FD15C0809150038F5F80938C
:100C6000500320915003022E000C330B809163043B
:100C700090E028173907C4F4809150038C3064F158
:100C800013C080915003082E000C990BFC01EE0F4D
:100C9000FF1F8E0F9F1FFC01E15CFB4F808160E016
:100CA0008F730E946601D8CF809184009091850057
:100CB000049680349C4918F480E49CE905C0809136
:100CC0008400909185000496909389008093880019
:100CD0008FEF809350033BC02091840030918500BA
:100CE00080915003082E000C990BFC01EE0FFF1FA2
:100CF0008E0F9F1FFC01E15CFB4F81819281820F6F
:100D0000931F909389008093880080915003082E50
:100D1000000C990BFC01EE0FFF1F8E0F9F1FFC01B3
:100D2000E15CFB4F808186FF12C080915003082E4A
:100D3000000C990BFC01EE0FFF1F8E0F9F1FFC0193
:100D4000E15CFB4F808161E08F730E946601FF913F
:100D5000EF91BF91AF919F918F917F916F915F9133
:100D60004F913F912F910F900FBE0F901F901895AC
:100D7000E0915A03F0915B030190F081E02D682F20
:100D80008AE593E00994CF92DF92EF92FF920F935E
:100D90001F93CF93DF936C017A018B01C0E0D0E009
:100DA000CE15DF0589F0D8016D918D01D601ED9149
:100DB000FC910190F081E02DC6010995892B11F479
:100DC0007E0102C02196ECCFC701DF91CF911F9128
:100DD0000F91FF90EF90DF90CF9008950E948913BC
:100DE0006115710579F0FB0101900020E9F7319759
:100DF000AF01461B570BDC01ED91FC910280F381A2
:100E0000E02D099480E090E008954F925F926F92F8
:100E10007F92EF92FF920F931F93CF93DF93CDB703
:100E2000DEB7A1970FB6F894DEBF0FBECDBF7C0131
:100E3000FA01CB0119A2223008F42AE08E010F5DDD
:100E40001F4F422E512C612C712CBF01A301920126
:100E50000E949A11F901CA01015011096A3014F473
:100E6000605D01C0695CD8016C93232B242B252B7A
:100E700061F7B801C7010E94F006A1960FB6F89479
:100E8000DEBF0FBECDBFDF91CF911F910F91FF90BD
:100E9000EF907F906F905F904F900895EAE5F3E0B8
:100EA000A089B18982E08C93A485B5851C92A68522
:100EB000B7858FEC8C93108EA489B58986E08C93CE
:100EC000A289B3898C9180618C93A289B3898C911A
:100ED00088608C93A289B3898C9180688C930288F6
:100EE000F389E02D80818F7D8083089565E271E034
:100EF0008AE593E00C94F006CF93DF93BC018AE57A
:100F000093E00E94F006EC010E9476078C0F9D1F73
:100F1000DF91CF9108954F925F926F927F928F925F
:100F20009F92AF92BF92CF92DF92EF92FF926B01AE
:100F30007C01B42E9B01AC010E945D13882319F043
:100F400063E473E027C026013701E89477F82FEFB8
:100F50003FEF4FE75FE7C301B2010E945D138111CC
:100F60000DC02FEF3FEF4FE75FE7C301B2010E94D3
:100F7000761018161CF467E473E00CC02FEF3FEFF7
:100F80004FE75FE4C701B6010E941213181694F4EC
:100F90006BE473E08AE593E0FF90EF90DF90CF90F1
:100FA000BF90AF909F908F907F906F905F904F9089
:100FB0000C94F0062FEF3FEF4FE75FECC701B6014F
:100FC0000E94761087FDE4CF20E030E0A901C70140
:100FD000B6010E94761087FF09C08DE20E94B80614
:100FE0004C01F7FAF094F7F8F09402C0812C912CA0
:100FF000A12C60E070E080E09FE3AB1441F020E0C2
:1010000030E040E251E40E946A12A394F6CF9B01C3
:10101000AC01C701B6010E94FE112B013C010E94E8
:10102000E3126B017C010E947B109B01AC01C301A8
:10103000B2010E94FD112B013C012AE0B701A6017B
:101040008AE593E00E9405077C01E80CF91CBB20AF
:1010500029F08EE20E94B806E80EF91EDB2CDD2096
:1010600031F120E030E040E251E4C301B2010E94DE
:10107000DC102B013C010E94E3124B01A12CB12C8E
:101080002AE0B501A4018AE593E00E940507E80E75
:10109000F91EC501B4010E947B109B01AC01C30184
:1010A000B2010E94FD112B013C01DA94D8CFC70197
:1010B000FF90EF90DF90CF90BF90AF909F908F9078
:1010C0007F906F905F904F9008952F923F924F9234
:1010D0005F926F927F928F929F92AF92BF92CF92C8
:1010E000DF92EF92FF920F931F93CF93DF9300D085
:1010F00000D0CDB7DEB78C011801C12CD12C760100
:10110000C394812C912C54018394D1014D905D9016
:101110006D907D901D018D919D910D90BC91A02DA4
:1011200089839A83AB83BC839C01AD01C301B20167
:101130000E941213181684F4F101408251826282D7
:101140007382349789819A81AB81BC81808391833A
:10115000A283B383460157019FEFC91AD90AE90A4E
:10116000F90AA8E2CA16D104E104F10471F68A94DE
:1011700089288A288B2809F0BFCF0F900F900F90F5
:101180000F90DF91CF911F910F91FF90EF90DF9023
:10119000CF90BF90AF909F908F907F906F905F9017
:1011A0004F903F902F9008950F931F93CF93DF930D
:1011B00000D000D0CDB7DEB7AC01990F660B770B2E
:1011C00077FF1BC08DE249835A836B837C830E9427
:1011D000B8068C0149815A816B817C81709560953C
:1011E000509541955F4F6F4F7F4F2AE08AE593E01E
:1011F0000E940507080F191F06C02AE08AE593E040
:101200000E9405078C010E947607800F911F0F90A6
:101210000F900F900F90DF91CF911F910F91089534
:10122000CF93DF9342E00E948B07EC010E94760788
:101230008C0F9D1FDF91CF910895CF92DF92EF9297
:10124000FF920F931F932FB7F894C0905603D0903E
:101250005703E0905803F09059032FBFDC01CB01F6
:101260008C0D9D1DAE1DBF1D4FB7F8940091560308
:101270001091570320915803309159034FBF0C151B
:101280001D052E053F0528F080179107A207B3071B
:1012900058F71F910F91FF90EF90DF90CF90089536
:1012A0000C94F006CF93DF93CDB7DEB7C857D109C2
:1012B0000FB6F894DEBF0FBECDBF789484B58260C0
:1012C00084BD84B5816084BD85B5826085BD85B5EA
:1012D000816085BD80916E00816080936E00109268
:1012E00081008091810082608093810080918100E3
:1012F0008160809381008091800081608093800074
:101300008091B10084608093B1008091B0008160D1
:101310008093B00080917A00846080937A008091FD
:101320007A00826080937A0080917A008160809355
:101330007A0080917A00806880937A001092C100D0
:1013400010923B0410923C0410923D0410923E0413
:101350001092F9031092FA031092FB031092FC030F
:1013600068EB7BE080E090E00E941D098AE593E055
:1013700090933A04809339040E944E072FB7F89453
:101380008091560390915703A0915803B09159034F
:101390002FBF8093F9039093FA03A093FB03B093BC
:1013A000FC0366E171E08091390490913A040E9457
:1013B00050096AE070E080E090E00E941D0981E041
:1013C00080930D0460ED77E080E090E00E94D7010B
:1013D0000E944E0788E291E00E947C070E947607F7
:1013E00020E031E0A3963FAF2EAFA39765E0E62E55
:1013F000F12C7CE0D72EE2E0CE2EA396AEADBFADB1
:10140000A3970D911C91F801A384B484C8010E9494
:101410006C03BC01990F880B990B0E947D10D801B9
:1014200013962D913D914D915C9116970E94DC1081
:10143000F80127813085418552850E94FE110E9466
:10144000DC12D8011D962D913C911E9762177307EF
:1014500054F01F962D913C915097261737071CF09A
:10146000C8010E949402F80180818C3008F06FC09E
:10147000C5019927FC01EC55FF4F2491FC01E05771
:10148000FF4F8491882399F090E0880F991FFC0109
:10149000EA57FF4FA591B49184589F4FFC01859165
:1014A00094918FB7F894EC912E2B2C938FBFD80189
:1014B0008C91E82FF0E09F01220F331FE20FF31F02
:1014C000E15CFB4F9A2D9F732081207CA22EA92ADC
:1014D000A08211961C92119712961C926D2D0E945B
:1014E0007713BCE08B9FB001112440E050E09A01DB
:1014F000260F371FF901EE0FFF1F2E0F3F1FF901B7
:10150000E15CFB4F908196FD15C04F5F5F4F4C3003
:10151000510569F781110EC010928000C0928100C0
:101520001092850010928400B19A80916F008260C1
:1015300080936F00D801EC91F0E0CF01880F991FE4
:10154000E80FF91FE15CFB4F808180648083B1E08C
:10155000EB1AF10889F462EA71E08AE593E00E94EF
:1015600050098EEA91E00E947C0762E070E080E022
:1015700090E00E94D70119C06AE070E080E090E03E
:101580000E94D701A396AEADBFADA397ED91FC919C
:10159000808190E0FC01EE0FFF1F8E0F9F1FFC016A
:1015A000E15CFB4F808186FF28CF62EA71E08AE52B
:1015B00093E00E94500988EC91E00E947C0762E071
:1015C00070E080E090E00E94D701A396EEADFFAD01
:1015D000A39721903190A396FFAFEEAFA397D101CF
:1015E0001F962D913C9150971D964D915C911E97A1
:1015F0008C9190E0FC01EE0FFF1F8E0F9F1FFC01EE
:10160000E15CFB4F808186FFA9C3421753071CF0A2
:101610005A01890102C08A015901F1018389948923
:1016200097FD9CC3041715070CF498C32A153B05B6
:101630000CF494C3B801C1010E94A70264EF71E0E9
:1016400080E090E00E94D701B801110F880B990B40
:101650000E947D102B013C0169AB7AAB8BAB9CAB3C
:101660006EED71E08AE593E00E9450098CEE91E006
:101670000E947C0762E070E080E090E00E94D70169
:10168000E12CF12C00E010E0CC24C394D12CC50156
:10169000BB0CAA0BBB0BAB968CAF9DAFAEAFBFAF75
:1016A000AB979FEFE91AF90AC801880F991F880FB5
:1016B000991F21E030E02C0F3D1F280F391FD90161
:1016C000D0966D917D918D919C91D397E8962FAF97
:1016D000E897E9963FAFE9970E94DC12C1010E94AA
:1016E000A70269E170E080E090E00E94D701C101AB
:1016F0000E946C03BC01990F880B990B0E947D100E
:101700004B015C01E8962FADE897E9963FADE9976C
:10171000F901608371838283938320E030E040E2AB
:1017200051E40E941213181664F420E030E040E007
:1017300054E4C501B4010E94761087FF02C00F5F18
:101740001F4F0115110509F45AC0F8013197EE0F2A
:10175000FF1FEE0FFF1F21E030E02C0F3D1FE20FB7
:10176000F31F80A891A8A2A8B3A8A3019201C50164
:10177000B4010E9476101816A4F4AB966CAD7DAD42
:101780008EAD9FADAB970E947D109B01AC01C50152
:10179000B4010E94121387FD07C0CC24CA94DC2C2C
:1017A00003C0CC24C394D12CC801880F991F880F83
:1017B000991FA1E0B0E0AC0FBD1FA80FB91FA596FF
:1017C000BFAFAEAFA597B601660F771F6C0D7D1D3D
:1017D000072E000C880B990B0E947D109B01AC0119
:1017E000C501B4010E94FE11A596EEADFFADA5970F
:1017F00060AB71AB82AB93AB0C30110530F4F4EFFE
:10180000EF16F1E0FF0609F04CCF6EED71E08AE5CE
:1018100093E00E94500981E092E00E947C0762E020
:1018200070E080E090E00E94D70124EFE21621E012
:10183000F20621F488E192E00E947C0766E372E000
:101840008AE593E00E94500981E293E00E947C07C0
:1018500062E070E080E090E00E94D70166E372E011
:101860008AE593E00E94500982E492E00E947C079E
:1018700062E070E080E090E00E94D701CE01019626
:10188000E7969FAF8EAFE797DE01D196E596BFAFA3
:10189000AEAFE5975D014C01C12CD12C760126013C
:1018A000370100E010E0D4012D913D914D915D9103
:1018B0004D01C301B2010E94FE112B013C01F50153
:1018C00021913191419151915F01C701B6010E946F
:1018D000FE116B017C0166E372E08AE593E00E94F1
:1018E0005009C8010E94D40862E070E080E090E0F6
:1018F0000E94D70166E372E08AE593E00E945009F6
:10190000C301B2010E94100962E070E080E090E043
:101910000E94D70166E372E08AE593E00E945009D5
:10192000C701B6010E94100962E070E080E090E01B
:101930000E94D70166E372E08AE593E00E945009B5
:1019400081E293E00E947C0762E070E080E090E03A
:101950000E94D7010F5F1F4F0C30110509F0A3CF74
:1019600020E030E040E451E4C301B2010E946A1279
:10197000A7966CAF7DAF8EAF9FAFA79720E030E00A
:1019800040E451E4C701B6010E946A12AB966CAF05
:101990007DAF8EAF9FAFAB9766E372E08AE593E0D1
:1019A0000E94500964E772E08AE593E00E945009C2
:1019B000A7966CAD7DAD8EAD9FADA7970E94100927
:1019C00062E070E080E090E00E94D70166E372E0A0
:1019D0008AE593E00E94500960E872E08AE593E0AE
:1019E0000E945009AB966CAD7DAD8EAD9FADAB97AF
:1019F0000E94100962E070E080E090E00E94D70150
:101A000066E372E08AE593E00E94500981E293E088
:101A10000E947C0762E070E080E090E00E94D701C5
:101A200066E372E08AE593E00E94500981E293E068
:101A30000E947C0762E070E080E090E00E94D701A5
:101A400066E372E08AE593E00E9450098CE892E038
:101A50000E947C0762E070E080E090E00E94D70185
:101A6000812C912C54017501640100E010E0E7968F
:101A7000EEADFFADE79781919191A191B191E7967C
:101A8000FFAFEEAFE797AF968CAF9DAFAEAFBFAFF6
:101A9000AF97A7962CAD3DAD4EAD5FADA797BC01FE
:101AA000CD010E94FD112B013C01E596EEADFFAD8D
:101AB000E59781919191A191B191E596FFAFEEAF3C
:101AC000E597E3968CAF9DAFAEAFBFAFE397AB9614
:101AD0002CAD3DAD4EAD5FADAB97BC01CD010E94CD
:101AE000FD119B01AC01C301B2010E94DC109B01FE
:101AF000AC01C701B6010E94FE116B017C01A3017C
:101B00009201C301B2010E94DC109B01AC01C5012E
:101B1000B4010E94FE114B015C0166E372E08AE5AC
:101B200093E00E945009C8010E94D40862E070E06E
:101B300080E090E00E94D70166E372E08AE593E0DE
:101B40000E945009C701B6010E94100962E070E0CE
:101B500080E090E00E94D70166E372E08AE593E0BE
:101B60000E945009C501B4010E94100962E070E0B2
:101B700080E090E00E94D70166E372E08AE593E09E
:101B80000E945009AF966CAD7DAD8EAD9FADAF9705
:101B90000E94100962E070E080E090E00E94D701AE
:101BA00066E372E08AE593E00E945009E3966CAD2B
:101BB0007DAD8EAD9FADE3970E94100962E070E0AD
:101BC00080E090E00E94D70166E372E08AE593E04E
:101BD0000E94500981E293E00E947C0762E070E07D
:101BE00080E090E00E94D7010F5F1F4F0C3011057D
:101BF00009F03DCFA5019401C701B6010E946A1208
:101C00006B017C01A7962CAD3DAD4EAD5FADA797A6
:101C10000E94DC109B01AC01AB966CAD7DAD8EAD2E
:101C20009FADAB970E94FD114B015C0166E372E032
:101C30008AE593E00E9450096EEB72E08AE593E03A
:101C40000E945009C701B6010E94100962E070E0CD
:101C500080E090E00E94D70166E372E08AE593E0BD
:101C60000E9450096AEC72E08AE593E00E945009F4
:101C7000C501B4010E94100962E070E080E090E0CC
:101C80000E94D701D1011396CD92DD92ED92FC9284
:101C90001697F10187829086A186B2866EED71E07B
:101CA0008AE593E00E94500967EC72E08AE593E0D0
:101CB0000E945009C701B6010E94100962E070E05D
:101CC00080E090E00E94D7016EED71E08AE593E03C
:101CD0000E94500966ED72E08AE593E00E94500987
:101CE000D10113966D917D918D919C9116970E94D3
:101CF000100962E070E080E090E00E94D7016EED94
:101D000071E08AE593E00E94500963ED72E08AE594
:101D100093E00E945009C501B4010E94100962E0DD
:101D200070E080E090E00E94D7016EED71E08AE5FE
:101D300093E00E94500963EE72E08AE593E00E940E
:101D40005009F10167817085818592850E94100993
:101D500062E070E080E090E00E94D70162EA71E00A
:101D60008AE593E00E94500981EF92E00E947C078F
:101D700062E070E080E090E00E94D701D1015196CE
:101D80006D917C915297C1010E94A7020E94760733
:101D900061E173E08AE593E00E945009F1016381FB
:101DA00074818581968142E00E948B0766E173E031
:101DB0008AE593E00E94500920E030E0A901D101BA
:101DC00017966D917D918D919C911A970E94761036
:101DD00087FF03C06BE173E002C06FE173E08AE547
:101DE00093E00E945009F101C780D084E184F2841D
:101DF00020E030E0A901C701B6010E9412131816B5
:101E000024F0F7FAF094F7F8F09442E0C701B60135
:101E10000E948B070E94760765E070E080E090E00A
:101E20000E94D70162EA71E08AE593E00E945009BE
:101E300083E293E00E947C0762E070E080E090E043
:101E40000E94D7010E947607A3962EAD3FADA397BF
:101E50002450314009F0CACA0E94760760ED77E04D
:101E600080E090E00E94D70162EA71E08AE593E0A9
:101E70000E9450098AE393E00E947C0762E070E0D0
:101E800080E090E00E94D70168E873E180E090E094
:101E90000E94D7010E945C01E7CF10925D0310926F
:101EA0005C0388EE93E0A0E0B0E080935E03909343
:101EB0005F03A0936003B093610388E091E0909387
:101EC0005B0380935A0385EC90E0909367038093C3
:101ED000660384EC90E0909369038093680380EC40
:101EE00090E090936B0380936A0381EC90E0909371
:101EF0006D0380936C0382EC90E090936F0380936A
:101F00006E0386EC90E090937103809370031092BF
:101F1000730310927403109275031092760310925B
:101F2000FD031092FE031092FF0310920004109222
:101F300001041092020410920304109204041092FF
:101F400005041092060410920704109208041092DF
:101F5000090410920A0410920B0410920C04809150
:101F600063048C30A0F491E0980F90936304809305
:101F7000800490E0FC01EE0FFF1F8E0F9F1FFC01FD
:101F8000E15CFB4F88EB9BE09283818303C08FEF82
:101F90008093800480E090E0A8E4B2E4809395040C
:101FA00090939604A0939704B093980482E390E0F2
:101FB00090939A048093990486E090E090938C0427
:101FC00080938B0484E690E090938E0480938D043C
:101FD00086E990E09093900480938F048EE690E0E1
:101FE00090939204809391048FE090E090939404F6
:101FF000809393048DE897E9AEE0BFE38093830478
:1020000090938404A0938504B09386048CE59FE8A4
:10201000A6E4B2EC8093870490938804A09389048B
:10202000B0938A04809163048C30A0F491E0980FFF
:10203000909363048093640490E0FC01EE0FFF1F13
:102040008E0F9F1FFC01E15CFB4F88EB9BE09283AE
:10205000818303C08FEF8093640480E090E0A8E464
:10206000B2E48093790490937A04A0937B04B093B4
:102070007C0482E390E090937E0480937D0489E069
:1020800090E09093700480936F0486E490E09093C6
:1020900072048093710483E790E0909374048093BA
:1020A000730480E590E090937604809375048EE04D
:1020B00090E0909378048093770489EC96E7AEE8FB
:1020C000BFE38093670490936804A0936904B0937E
:1020D0006A048AE999E1A3E1B3EC80936B049093DD
:1020E0006C04A0936D04B0936E0408950E94B81020
:1020F00008F481E00895E89409C097FB3EF49095B8
:102100008095709561957F4F8F4F9F4F9923A9F0D0
:10211000F92F96E9BB279395F6958795779567955F
:10212000B795F111F8CFFAF4BB0F11F460FF1BC0A3
:102130006F5F7F4F8F4F9F4F16C0882311F096E936
:1021400011C0772321F09EE8872F762F05C06623E4
:1021500071F096E8862F70E060E02AF09A95660F9D
:10216000771F881FDAF7880F9695879597F9089556
:10217000990F0008550FAA0BE0E8FEEF1616170698
:10218000E807F907C0F012161306E407F50798F000
:10219000621B730B840B950B39F40A2661F0232B19
:1021A000242B252B21F408950A2609F4A140A69595
:1021B0008FEF811D811D08950E94EF100C94601116
:1021C0000E94521138F00E94591120F0952311F00D
:1021D0000C9449110C944F1111240C9494110E94E9
:1021E000711170F3959FC1F3950F50E0551F629FD9
:1021F000F001729FBB27F00DB11D639FAA27F00D60
:10220000B11DAA1F649F6627B00DA11D661F829F86
:102210002227B00DA11D621F739FB00DA11D621F6B
:10222000839FA00D611D221F749F3327A00D611D88
:10223000231F849F600D211D822F762F6A2F11246A
:102240009F5750409AF0F1F088234AF0EE0FFF1F9D
:10225000BB1F661F771F881F91505040A9F79E3FF4
:10226000510580F00C9449110C9494115F3FE4F3F4
:10227000983ED4F3869577956795B795F795E7954A
:102280009F5FC1F7FE2B880F911D9695879597F953
:10229000089597F99F6780E870E060E008959FEFE8
:1022A00080EC089500240A941616170618060906ED
:1022B000089500240A9412161306140605060895BC
:1022C000092E0394000C11F4882352F0BB0F40F444
:1022D000BF2B11F460FF04C06F5F7F4F8F4F9F4F84
:1022E000089557FD9058440F551F59F05F3F71F006
:1022F0004795880F97FB991F61F09F3F79F087956D
:102300000895121613061406551FF2CF4695F1DFF5
:1023100008C0161617061806991FF1CF8695710585
:10232000610508940895E894BB2766277727CB01B9
:1023300097F90895A1E21A2EAA1BBB1BFD010DC03F
:10234000AA1FBB1FEE1FFF1FA217B307E407F50765
:1023500020F0A21BB30BE40BF50B661F771F881F41
:10236000991F1A9469F760957095809590959B01D7
:10237000AC01BD01CF010895052E97FB1EF400941A
:102380000E94D31157FD07D00E949A1107FC03D079
:102390004EF40C94D31150954095309521953F4FB4
:1023A0004F4F5F4F089590958095709561957F4F41
:1023B0008F4F9F4F08950E94EE11A59F900DB49FDF
:1023C000900DA49F800D911D11240895B7FF0C94CA
:1023D000DB110E94DB11821B930B0895A29FB001B9
:1023E000B39FC001A39F700D811D1124911DB29F49
:1023F000700D811D1124911D08955058BB27AA27E7
:102400000E9415120C9460110E94521138F00E9423
:10241000591120F039F49F3F19F426F40C944F1110
:102420000EF4E095E7FB0C944911E92F0E9471111D
:1024300058F3BA17620773078407950720F079F4F9
:10244000A6F50C9493110EF4E0950B2EBA2FA02D47
:102450000B01B90190010C01CA01A0011124FF2751
:10246000591B99F0593F50F4503E68F11A16F0404C
:10247000A22F232F342F4427585FF3CF469537954B
:102480002795A795F0405395C9F77EF41F16BA0B10
:10249000620B730B840BBAF09150A1F0FF0FBB1FBE
:1024A000661F771F881FC2F70EC0BA0F621F731F07
:1024B000841F48F4879577956795B795F7959E3F64
:1024C00008F0B0CF9395880F08F09927EE0F9795F5
:1024D000879508950E947E120C9460110E945911F4
:1024E00058F00E94521140F029F45F3F29F00C94FB
:1024F000491151110C9494110C944F110E947111B7
:1025000068F39923B1F3552391F3951B550BBB2722
:10251000AA2762177307840738F09F5F5F4F220F67
:10252000331F441FAA1FA9F335D00E2E3AF0E0E85E
:1025300032D091505040E695001CCAF72BD0FE2FA8
:1025400029D0660F771F881FBB1F2617370748073C
:10255000AB07B0E809F0BB0B802DBF01FF279358F4
:102560005F4F3AF09E3F510578F00C9449110C945E
:1025700094115F3FE4F3983ED4F386957795679581
:10258000B795F7959F5FC9F7880F911D9695879529
:1025900097F90895E1E0660F771F881FBB1F621748
:1025A00073078407BA0720F0621B730B840BBA0B06
:1025B000EE1F88F7E09508950E94E3126894B11128
:1025C0000C94941108950E94791188F09F5798F007
:1025D000B92F9927B751B0F0E1F0660F771F881F28
:1025E000991F1AF0BA95C9F714C0B13091F00E9442
:1025F0009311B1E008950C949311672F782F8827D9
:10260000B85F39F0B93FCCF3869577956795B39568
:10261000D9F73EF490958095709561957F4F8F4FD7
:102620009F4F08950E94B81008F48FEF089519F491
:1026300016F40C944F110C9462130E947911B8F3A4
:102640009923C9F3B6F39F57550B87FF0E94701368
:102650000024A0E640EA900180585695979528F40A
:10266000805C660F771F881F20F026173707480702
:1026700030F4621B730B840B202931294A2BA69559
:1026800017940794202531254A2758F7660F771F9E
:10269000881F20F026173707480730F4620B730BAA
:1026A000840B200D311D411DA09581F7B901842FA8
:1026B0009158880F9695879508950E94B810880BB9
:1026C000990B08959F3F31F0915020F487957795AD
:1026D0006795B795880F911D9695879597F90895F9
:1026E00091505040660F771F881FD2F70895991BAD
:1026F00079E004C0991F961708F0961B881F7A95F9
:10270000C9F780950895EE0FFF1F0590F491E02D15
:10271000099481E090E0F8940C948E13F894FFCF24
:102720008004640400000000F300C3068B003A013B
:10273000BC009A00AE00564D4450565F317C315F6C
:10274000564D4450560D0A00433A5C5573657273FA
:102750005C7479626C755C417070446174615C4C4E
:102760006F63616C5C54656D705C564D4275696C4D
:1027700064735C4175746F4D6F76655C5370617204
:102780006B46756E5F526564426F6172645C44654E
:102790006275675C4175746F4D6F76652E637070FE
:1027A00020636F6D70696C6564204F6374203235EF
:1027B00020323031372061742031373A34393A359C
:1027C00033004175746F4D6F7665203A2000436F7A
:1027D000756C64206E6F742061747461636820612D
:1027E00020736572766F2E0043616C69627261744A
:1027F000696E672053656E736F722E2E2E005479AA
:10280000626C75536572766F203A20007374617242
:1028100074696E6720646F2D7768696C652E2E2E43
:102820000066696E697368656420646F2D776869F6
:102830006C65206C6F6F700043414C49425F4D41A5
:10284000585F495445524154494F4E532072656177
:102850006368656421005479626C754C7371203A29
:102860002000417665726167696E67207820616E2D
:10287000642079202D207072696E74696E672069FA
:102880002C20786261722C20796261722028737525
:102890006D73290066696E616C20786261723D001B
:1028A00066696E616C20796261723D00436F6D7084
:1028B0007574696E672042657461202D207072699D
:1028C0006E74696E6720692C20746F702C20626FA3
:1028D000742C20785B695D2C20795B695D00793D03
:1028E000612A782B622C20613D00793D612A782B8A
:1028F000622C20623D0073656E736F72536C6F7053
:10290000653D0073656E736F724F66667365743DE7
:10291000002046696E69736865642063616C696252
:10292000726174696E67206120736572766F2E2004
:102930000079203D2000202A207800202D20002032
:102940002B20004E65787420736572766F2028699D
:102950006620616E79292E2E2E004D6164652069F6
:102960007421006E616E00696E66006F766600000D
:107E0000112484B714BE81FFF0D085E080938100F7
:107E100082E08093C00088E18093C10086E0809377
:107E2000C20080E18093C4008EE0C9D0259A86E02C
:107E300020E33CEF91E0309385002093840096BBD3
:107E4000B09BFECF1D9AA8958150A9F7CC24DD24C4
:107E500088248394B5E0AB2EA1E19A2EF3E0BF2EE7
:107E6000A2D0813461F49FD0082FAFD0023811F036
:107E7000013811F484E001C083E08DD089C08234E0
:107E800011F484E103C0853419F485E0A6D080C0E4
:107E9000853579F488D0E82EFF2485D0082F10E0AE
:107EA000102F00270E291F29000F111F8ED06801E7
:107EB0006FC0863521F484E090D080E0DECF843638
:107EC00009F040C070D06FD0082F6DD080E0C81688
:107ED00080E7D80618F4F601B7BEE895C0E0D1E017
:107EE00062D089930C17E1F7F0E0CF16F0E7DF06D8
:107EF00018F0F601B7BEE89568D007B600FCFDCFD4
:107F0000A601A0E0B1E02C9130E011968C91119780
:107F100090E0982F8827822B932B1296FA010C0160
:107F200087BEE89511244E5F5F4FF1E0A038BF0790
:107F300051F7F601A7BEE89507B600FCFDCF97BE46
:107F4000E89526C08437B1F42ED02DD0F82E2BD052
:107F50003CD0F601EF2C8F010F5F1F4F84911BD097
:107F6000EA94F801C1F70894C11CD11CFA94CF0C13
:107F7000D11C0EC0853739F428D08EE10CD085E9AC
:107F80000AD08FE07ACF813511F488E018D01DD067
:107F900080E101D065CF982F8091C00085FFFCCF94
:107FA0009093C60008958091C00087FFFCCF809118
:107FB000C00084FD01C0A8958091C6000895E0E648
:107FC000F0E098E1908380830895EDDF803219F02E
:107FD00088E0F5DFFFCF84E1DECF1F93182FE3DFCA
:107FE0001150E9F7F2DF1F91089580E0E8DFEE27F6
:047FF000FF270994CA
:027FFE00040479
:0400000300007E007B
:00000001FF