:100000000C947E030C94A6030C94A6030C94A603F4
:100010000C94A6030C94A6030C94A6030C94A603BC
:100020000C94A6030C94A6030C94A6030C94250828
:100030000C94A6030C94A6030C94A6030C94A6039C
:100040000C9449150C94A6030C943C140C941614AF
:100050000C94A6030C94A6030C94A6030C94A6037C
:100060000C94A6030C94A6030000000024002700B3
:100070002A00303030303030303030300068656940
:100080006768742C207261646975732C20746865CC
:1000900074612C20736F6E6172206D65617375726F
:1000A000656D656E7400636C617720736572766F41
:1000B00020616E676C652C20636C61772061646AD7
:1000C00020616E676C652C20636C617720686569C0
:1000D0006768742C20636C61772072616469757342
:1000E0002C0074757272656E7420736572766F2061
:1000F000616E676C652C2074757272657420616422
:100100006A20616E676C652C20747572726574204C
:100110006865696768742C207475727265742072E2
:1001200061646975732C00626F6F6D322073657244
:10013000766F20616E676C652C20626F6F6D322068
:1001400061646A20616E676C652C20626F6F6D322E
:10015000206865696768742C20626F6F6D32207249
:1001600061646975732C00626F6F6D312073657205
:10017000766F20616E676C652C20626F6F6D312029
:1001800061646A20616E676C652C20626F6F6D31EF
:10019000206865696768742C20626F6F6D3120720A
:1001A00061646975732C005248532073656E736FD8
:1001B000722072656164696E673A20004175746FE0
:1001C0004D6F7665203A20004C48532073656E735E
:1001D0006F722072656164696E673A2000417574C0
:1001E0006F4D6F7665203A20004F70656E207375F5
:1001F00063636573732E004F70656E206661696C72
:1002000065642E004175746F4D6F7665203A20004D
:10021000636864697220737563636573732E00632A
:100220006864697220746F2022546F706F4D617022
:100230007322206661696C65642E004175746F4D90
:100240006F7665203A2000556E6971756520666984
:100250006C65206E616D653A20004175746F4D6F5D
:100260007665203A20004372656174652022546FE0
:10027000706F4D61707322206661696C65642E0039
:100280004372656174652022546F706F4D617073A5
:1002900022207375636365656465642E004175741F
:1002A0006F4D6F7665203A2000626567696E207336
:1002B0007563636573732E00626567696E2066619E
:1002C000696C65642E004175746F4D6F7665203AD8
:1002D00020005374617274696E6720535049205333
:1002E0004420636172642073747566662E004175E4
:1002F000746F4D6F7665203A200046696E697368A9
:10030000656420706F776572696E6720616E642026
:10031000776967676C696E6720736572766F732E95
:10032000004175746F4D6F7665203A20004D6F76F1
:10033000656420746F200064656C74613D004261E7
:100340006420616E676C6520696E7075743A200078
:100350000000000023002600290004040404040413
:100360000404020202020202030303030303010264
:100370000408102040800102040810200102040833
:1003800010203A20636C6177206865696768743A69
:10039000202000526F626F7441726D5374617465F6
:1003A000203A20003A20626F6F6D322068656967DD
:1003B00068743A2000526F626F7441726D537461B9
:1003C0007465203A20003A20626F6F6D31206865B5
:1003D000696768743A2000526F626F7441726D539E
:1003E00074617465203A20003A20636C6177207252
:1003F00061646975733A202000526F626F744172B4
:100400006D5374617465203A20003A20626F6F6DFD
:1004100032207261646975733A2000526F626F74A2
:1004200041726D5374617465203A20003A20626F06
:100430006F6D31207261646975733A2000526F628A
:100440006F7441726D5374617465203A2000546872
:1004500065746120203D2000526164697573203D00
:100460002000486569676874203D2000536F6E6105
:1004700072206D6561737572656D656E743A2000EA
:100480002064656772656573207772697474656E40
:100490002E00206465677265657320656E746572F1
:1004A00065642E2000456E74657220746172676504
:1004B0007420616E676C653A200054727920616720
:1004C00061696E2E00456E746572206D656D6265A2
:1004D00072206E756D6265723A20002E20202020F9
:1004E000202020202020202020205B345D20636CF1
:1004F00061772020203A20002E202020202020205C
:10050000202020202020205B335D207475727265CE
:1005100074203A20002E202020202020202020207F
:10052000202020205B325D20626F6F6D3220203AE8
:10053000200053656C656374206D656D6265723A69
:10054000205B315D20626F6F6D3120203A200057B3
:1005500041524E494E473A2053455454494E472044
:10056000414C4C20534552564F204C494D49545311
:1005700020544F204D4158494D554D205B302D3171
:1005800038305D2E0028526573756C74202A2D3129
:1005900020696620616E676C65203C20302E290042
:1005A000496E746567657247656F6D657472793AF7
:1005B000200062696753696E28616E676C65292047
:1005C000726573756C743D2000496E746567657261
:1005D00047656F6D657472793A2000626967536987
:1005E0006E28616E676C652920616E676C65203DC1
:1005F0002000496E746567657247656F6D6574723A
:10060000793A200000001100230034004600570012
:1006100069007A008B009C00AE00BF00D000E100B2
:10062000F20003011401240135014601560166015F
:10063000770187019701A701B601C601D501E50140
:10064000F4010302120221022F023E024C025A025E
:1006500068027502830290029D02AA02B702C302D9
:10066000CF02DB02E702F302FE02090314031F03B9
:10067000290333033D0347035003590362036B030C
:1006800073037B0383038A03920399039F03A603E7
:10069000AC03B203B703BC03C103C603CA03CE0352
:1006A000D203D603D903DC03DE03E103E303E4034F
:1006B000E603E703E703E803E803746869732D3E84
:1006C0006C656E677468203D2000746869732D3E08
:1006D0006C656E677468203D2000000000002500F6
:1006E00028002B000000000800020100000304079E
:1006F00000000000000000004626452611241FBE11
:10070000CFEFD8E0DEBFCDBF11E0A0E0B1E0ECE775
:10071000F5E502C005900D92AC3DB107D9F726E092
:10072000ACEDB1E001C01D92AB3FB207E1F713E0C1
:10073000CDE7D3E004C02197FE010E947E2ACC378A
:10074000D107C9F70E94111D0C94B12A0C94000026
:10075000CF92DF92EF92FF92CF93DF93EC01603262
:1007600082E078070CF03DC077FD06C0653B71055F
:100770002CF064EB70E002C060E070E0898128E852
:1007800030E06901C81AD10887FDD394CC0CDD1C78
:10079000CC0CDD1C0D2C000CEE08FF088A8128E52E
:1007A00032E0281B310987FD3395220F331F220FBA
:1007B000331FC901330FAA0BBB0B9C01AD012C19D0
:1007C0003D094E095F09DB010E94332A24EB30E02A
:1007D00040E050E00E94092AC20ED31EE41EF51E1E
:1007E000B60188818C3080F5998148E850E0491B3A
:1007F000510997FD5395440F551F440F551F64171A
:10080000750784F09A8128E532E0291B310997FDAC
:100810003395220F331F220F331FAB0126173707E3
:100820000CF4A90142505109440F551F2FB7F894F9
:1008300090E0FC01EE0FFF1F8E0F9F1FFC01E452A2
:10084000FE4F528341832FBFDF91CF91FF90EF90F6
:10085000DF90CF90089581E00895089580E090E0C2
:10086000089504960C94280D0F931F93CF93DF9354
:10087000EC01E4EBF0E0BF010E946A2A9C01265AD9
:100880003F4F253B310510F4FE0102C0E81BF90B78
:10089000EE0FFF1FEC5FF94F0591149162EF75E0C9
:1008A0008EE092E00E946B1C6BED75E08EE092E0B2
:1008B0000E946B1CBE018EE092E00E94551C62E01B
:1008C00070E080E090E00E94031569EC75E08EE036
:1008D00092E00E946B1C62EB75E08EE092E00E9459
:1008E0006B1CB8018EE092E00E94551C62E070E043
:1008F00080E090E00E94031560EA75E08EE092E0EF
:100900000E946B1C65E875E08EE092E00E948F1CEF
:1009100062E070E080E090E00E940315D7FF05C020
:1009200088279927801B910B01C0C801DF91CF91C7
:100930001F910F91089504960C94C811CF93DF93E3
:100940001F92CDB7DEB7698341E050E0BE016F5F13
:100950007F4F04960E94C8110F90DF91CF910895A8
:10096000FC018081811114C080E2DF01982F1D926B
:100970009A95E9F777836683DB0115969C91903110
:1009800019F0903229F480E4808381E08283089515
:1009900080E00895CF93DF93EC010E94280D188228
:1009A000DF91CF910895CF92DF92EF92FF920F9354
:1009B0001F93CF93DF93CDB7DEB7E3970FB6F894CD
:1009C000DEBF0FBECDBF7C018B015BAB4AABD22E2D
:1009D00019821A82FC018081882311F080E059C0BD
:1009E000FB0180818077D1F3EAA9FBA980818F3256
:1009F000D9F4EAA9FBA980818F3221F43196FBABAF
:100A0000EAABF7CFF80166817781811104C0C70195
:100A10000E94B0043EC0CE0101960E94B00488231B
:100A2000E9F28E010F5F1F4F80E2C82EAE014E5CCF
:100A30005F4FBE016F5D7F4F8AA99BA90E940A0C80
:100A4000882361F2EAA9FBA980818823D1F021E003
:100A5000AE014F5D5F4FB801C7010E944C0E882365
:100A600009F4BCCFF701DE0111968C2D01900D9297
:100A70008A95E1F7C7010E94CA048E010F5F1F4FDC
:100A8000D5CF2D2DAE014F5D5F4FB801C7010E943C
:100A90004C0EE3960FB6F894DEBF0FBECDBFDF91CC
:100AA000CF911F910F91FF90EF90DF90CF9008951D
:100AB0003F924F925F926F927F928F929F92AF92EE
:100AC000BF92CF92DF92EF92FF920F931F93CF933B
:100AD000DF93CDB7DEB728970FB6F894DEBF0FBE11
:100AE000CDBF4C01DC0112968C9112978068129652
:100AF0008C9312971C964D905D906D907C901F97F3
:100B00001696AD90BC90179741145104610471047E
:100B100061F4D50118968D919D910D90BC91A02DF9
:100B20008D839E83AF83B88704C04D825E826F82BF
:100B30007886CD80DE80EF80F884BFEFCB1ADB0AA9
:100B4000EB0AFB0AF501808D918DA28DB38D8C157A
:100B50009D05AE05BF0528F482E0C82ED12CE12CFE
:100B6000F12C9E012F5F3F4FB701A601C5010E94E6
:100B7000A01887FD20C0882341F089819A81AB812C
:100B8000BC81892B8A2B8B2B51F08D819E81AF816B
:100B9000B885C816D906EA06FB0679F60CC00FEF31
:100BA0001FEF2FEF3FE0B701A601C5010E943D18DE
:100BB000382E811102C0312C2BC041145104610424
:100BC000710451F097018601B301A201C5010E9491
:100BD0003D18811108C0EFCFD5011896CD92DD9256
:100BE000ED92FC921B97F50180A191A1A2A1B3A166
:100BF000B7FD07C00197A109B10980A391A3A2A3E2
:100C0000B3A3D4011C96CD92DD92ED92FC921F9776
:100C1000832D28960FB6F894DEBF0FBECDBFDF91AF
:100C2000CF911F910F91FF90EF90DF90CF90BF90E9
:100C3000AF909F908F907F906F905F904F903F907C
:100C400008958F929F92AF92BF92EF92FF920F936F
:100C50001F93CF93DF93EC01888185FF02C010E0E2
:100C60006CC088899989AA89BB8981159E4FAF413B
:100C7000B105A8F7CE010E945805182F882379F3F3
:100C8000EE81FF814C855D856E857F8542505109DF
:100C900061097109048004C0440F551F661F771F46
:100CA0000A94D2F780889188A288B388840E951E12
:100CB000A61EB71E25E0B501A401CF0184960E94AF
:100CC000F8177C01892B59F280E092E0D701FC01F2
:100CD0001D923197E9F701E0EE81FF8192810917BA
:100CE000A8F480819181DC01ED91FC910480F58173
:100CF000E02D9701B501A401400F511D611D711D2B
:100D00000995882309F4ABCF0F5FE6CF492F50E058
:100D100060E070E089E0440F551F661F771F8A95D9
:100D2000D1F788899989AA89BB89480F591F6A1FF9
:100D30007B1F488B598B6A8B7B8B812FDF91CF91E7
:100D40001F910F91FF90EF90BF90AF909F908F9069
:100D50000895AF92BF92CF92DF92EF92FF920F93DE
:100D60001F93CF93DF93CDB7DEB7A0970FB6F8945C
:100D7000DEBF0FBECDBF8C01DB019C91907709F4E3
:100D8000CEC07B0123ECC8010E944C0E882309F4DD
:100D9000C6C081E0F801828350E1D52ED082C8011F
:100DA0000E942106882309F4BAC0F801848595853C
:100DB000A685B785848F958FA68FB78F40E050E0CA
:100DC000BA01C8010E94880DC8010E94280D88231D
:100DD00009F4A5C0D80154964D915D916D917C9117
:100DE000579716968D919C91179721E084960E94B3
:100DF000F817009709F493C0F801248135812F700A
:100E0000332745E0220F331F4A95E1F7820F931FE6
:100E1000DC011B96DC9220E2FC01DE0111960190C0
:100E20000D922A95E1F7FC01A488B588C28CD38C79
:100E30008EE28983FE013296CE010C9620E2219348
:100E4000E817F907E1F7D8011696ED91FC9117978D
:100E50005C964D915D916D917C915F9742505109E7
:100E600061097109048004C0440F551F661F771F74
:100E70000A94D2F780899189A289B389480F591FB2
:100E80006A1F7B1F21E0CF0184960E94F81700970C
:100E900009F445C0BE8AAD8ADC8ECB8E20E2FE010D
:100EA0003196DC0101900D922A95E1F72EE22A831A
:100EB000F701448D558D668D778D7E8B6D8B5C8FA4
:100EC0004B8F20E2FE013196DC01909601900D924D
:100ED0002A95E1F7D80116960D911C911797C80134
:100EE00084960E949E178823D1F0F8018081918119
:100EF000DC01ED91FC910280F381E02DA0960FB60C
:100F0000F894DEBF0FBECDBFDF91CF911F910F913F
:100F1000FF90EF90DF90CF90BF90AF90099480E06A
:100F2000A0960FB6F894DEBF0FBECDBFDF91CF9174
:100F30001F910F91FF90EF90DF90CF90BF90AF90F7
:100F400008958F929F92AF92BF92CF92DF92EF92CD
:100F5000FF92FC01828128E532E06901C81AD108BC
:100F600087FDD394CC0CDD1CCC0CDD1C0D2C000CAF
:100F7000EE08FF08818128E830E04901881A9108CD
:100F800087FD9394880C991C880C991C092C000CE3
:100F9000AA08BB0880818F3FC1F090E0FC01EE0FF2
:100FA000FF1F8E0F9F1FFC01E452FE4F21813281F3
:100FB00043E0220F331F4A95E1F754E03695279519
:100FC0005A95E1F72E5F3F4F02C020E030E02F5FDF
:100FD0003F4FC901330FAA0BBB0B9C01AD01281970
:100FE00039094A095B09A4EBB0E00E94282AA7014D
:100FF0009601281939094A095B090E94092AC90181
:10100000FF90EF90DF90CF90BF90AF909F908F9028
:101010000895FC01909104029C30A0F481E0890FB6
:10102000809304029083892F90E0FC01EE0FFF1F54
:101030008E0F9F1FFC01E452FE4F88EB9BE09283D2
:10104000818308958FEF808308951F920F920FB6CA
:101050000F9211242F933F934F935F936F937F933E
:101060008F939F93AF93BF93EF93FF93809103026E
:1010700087FF05C010928500109284001BC020914C
:101080000302022E000C330B8091040290E028171B
:10109000390784F480910302082E000C990BFC019F
:1010A000EE0FFF1F8E0F9F1FFC01E452FE4F808149
:1010B00086FD15C0809103028F5F8093030220910B
:1010C0000302022E000C330B8091040290E02817DB
:1010D0003907C4F4809103028C3064F113C080910D
:1010E0000302082E000C990BFC01EE0FFF1F8E0F60
:1010F0009F1FFC01E452FE4F808160E08F730E94CD
:101100009714D8CF80918400909185000496803404
:101110009C4918F480E49CE905C08091840090917A
:101120008500049690938900809388008FEF8093C8
:1011300003023BC02091840030918500809103021E
:10114000082E000C990BFC01EE0FFF1F8E0F9F1F46
:10115000FC01E452FE4F81819281820F931F909394
:1011600089008093880080910302082E000C990B5F
:10117000FC01EE0FFF1F8E0F9F1FFC01E452FE4F7C
:10118000808186FF12C080910302082E000C990B0B
:10119000FC01EE0FFF1F8E0F9F1FFC01E452FE4F5C
:1011A000808161E08F730E949714FF91EF91BF914E
:1011B000AF919F918F917F916F915F914F913F91EF
:1011C0002F910F900FBE0F901F9018959B01FC015F
:1011D000638974892617370754F0FC01658976897D
:1011E000621773071CF4283C31050CF0B9010C940C
:1011F000A8038F929F92AF92BF92CF92DF92EF920D
:10120000FF920F931F93CF93DF936C018B010E948A
:10121000A1077C010197833B910580F0B801C601CD
:10122000DF91CF911F910F91FF90EF90DF90CF90C2
:10123000BF90AF909F908F900C94E6080E943D1550
:101240004B015C0128EE820E23E0921EA11CB11C12
:10125000E70120E0C017D10709F441C0C8018C1B89
:101260009D0B222331F09C012E5F3F4F253031052D
:1012700070F421E030E01816190614F020E030E098
:10128000892F881F8827881F281B31090FC021E05C
:1012900030E01816190614F020E030E0892F881F7E
:1012A0008827881F281B3109220F331FC20FD31F25
:1012B000EC16FD06A1F0BE01C6010E94E60869E138
:1012C00070E080E090E00E9403150E943D1521E04F
:1012D00086169706A806B90608F0BCCF9FCFDF9107
:1012E000CF911F910F91FF90EF90DF90CF90BF9023
:1012F000AF909F908F9008950F931F93CF93DF939C
:10130000EC0160EC71E08EE092E00E9410196AEC52
:1013100076E08EE092E00E946B1C6D857E858EE00B
:1013200092E00E943F1C62E070E080E090E00E944A
:1013300003150D851E85CE010E94A1072F853889D2
:10134000820F931F64EB70E00E946A2A2AE530E066
:10135000A901481B590BCA010E9434049C01209F1B
:10136000C001219F900D309F900D112468EE73E015
:101370000E94562ACB01DF91CF911F910F910895C2
:101380000F931F93CF93DF93EC0160EC71E08EE03D
:1013900092E00E9410196AEB76E08EE092E00E94E3
:1013A0006B1C6D857E858EE092E00E943F1C62E0A2
:1013B00070E080E090E00E9403150D851E85CE014F
:1013C0000E94A1072F853889820F931F0E94340441
:1013D0009C01209FC001219F900D309F900D1124F2
:1013E00068EE73E00E94562ACB01DF91CF911F91E6
:1013F0000F9108958F929F92AF92BF92CF92DF92FA
:10140000EF92FF920F931F93CF93DF93EC0129810B
:1014100030E0F901EC51F94F8491F901E259FC4FA8
:101420000491F901E65AFC4F14911123A1F08111A6
:101430000E946E14E12FF0E0EE0FFF1FE05BFC4F07
:10144000A591B491EC91E02391E080E009F490E063
:10145000E92EF82E02C0E12CF12C61E089810E9476
:10146000971483E090E00197F1F70E943D154B013E
:101470005C0124E6820E911CA11CB11CC12CD12C54
:1014800000E010E098819E3008F09E5097709064C4
:1014900090937C0080917A00806480937A008091A0
:1014A0007A0086FDFCCF809178002091790090E051
:1014B000922B2A8130E02817390724F4C80ED91E50
:1014C0000F5F1F4F0233110538F40E943D15681558
:1014D00079058A059B05B0F2EF2841F460E0898127
:1014E0000E94971483E090E00197F1F7B801660F2E
:1014F000771F660F771FCB01969587958C0D9D1DE5
:101500000E94562A862FDF91CF911F910F91FF9055
:10151000EF90DF90CF90BF90AF909F908F90089505
:10152000FF920F931F93CF93DF938C01F62EEC0164
:10153000C55DDD4FCE010E94CA04B801CE010E94F4
:10154000B004882371F0FF2061F090914C059077F2
:1015500039F02CE435E0309301022093000201C001
:1015600080E0DF91CF911F910F91FF900895FF923E
:101570000F931F93CF93DF93CDB7DEB7A0970FB62E
:10158000F894DEBF0FBECDBFFB01F42E19821A8284
:1015900020812F3239F42181211104C0642F0E944F
:1015A000900A25C08C01055D1D4F21E0AF01B801F7
:1015B000CE0101960E94D3048823C9F099819077C7
:1015C000A9F090E2FE013196D80101900D929A9512
:1015D000E1F7FF2061F090914C05907741F02CE409
:1015E00035E0309301022093000201C080E0A09614
:1015F0000FB6F894DEBF0FBECDBFDF91CF911F9124
:101600000F91FF900895CF92DF92EF92FF920F9388
:101610001F93CF93DF93EC01862F488959896A89FC
:101620007B898A019B01E5E03695279517950795FB
:10163000EA95D1F7102F1F7011F0811151C09881D8
:101640009923D9F18A8180FF38C093FF63C0C88C89
:10165000D98CEA8CFB8CC41AD50AE60AF70A22E078
:10166000C216D104E104F10408F44EC09A013170AD
:1016700095FD61C0EE81FF8103816A017B0189E0F4
:10168000F694E794D794C7948A95D1F70C21232B2D
:1016900009F07EC001117CC0452B462B472B09F475
:1016A0005CC04C855D856E857F859E01245F3F4FC4
:1016B000CF010E94A01887FF60C089818260898362
:1016C0008FEF9FEF0197E9F488899989AA89BB89EF
:1016D0004F96A11DB11D888B998BAA8BBB8B08C01F
:1016E000405E5F4F6F4F7F4F488B598B6A8B7B8B70
:1016F0008E819F818B9620E2129F800D911D112477
:1017000080C080E090E07DC0CD28CE28CF2809F0B1
:10171000ADCF0EC095FFAACFEE81FF818681978164
:1017200025E0880F991F2A95E1F78417950719F48A
:1017300080E090E061C099E0769567955795479570
:101740009A95D1F7EE81FF81848D958DA68DB78D09
:10175000480F591F6A1F7B1F39C096FF05C0848D33
:10176000958DA68DB78D04C08C8D9D8DAE8DBF8D52
:101770008C879D87AE87BF870BC0811109C0888188
:10178000807709F49ACF81E090E021E030E036C024
:10179000EE81FF814C855D856E857F8542505109C4
:1017A00061097109048004C0440F551F661F771F2B
:1017B0000A94D2F780899189A289B389480F591F69
:1017C0006A1F7B1F400F511D611D711D8E819F81FE
:1017D00020E084960E94F817892B09F46ECF88893F
:1017E0009989AA89BB890196A11DB11D888B998B06
:1017F000AA8BBB8B81E090E020E030E0821B930B52
:1018000061CFDF91CF911F910F91FF90EF90DF900B
:10181000CF900895AF92BF92CF92DF92EF92FF9256
:101820000F931F93CF93DF93FB01DC0101962C9163
:101830002032D9F3B483A3839D0189010A1B1B0BBA
:10184000E90189919E018823C1F08F32B1F08C3576
:1018500011F480E0F2C0982F977F9232D1F38A334F
:10186000C1F3982F9F7B9C33A1F392EC980F923099
:1018700080F380528F3508F3ECCF0A0F1B1FC8018D
:10188000682F392FEC012991CE012032C9F32F3274
:10189000B9F3EA016883398398012A1B3B0B0A17C5
:1018A0001B0741F0E8018A918E018E32A9F3803244
:1018B00099F303C0A12CB12C05C059012F3F31056C
:1018C00009F03CF6B282A182CF0106969F012F5EFD
:1018D0003F4F40E2EC014993CE01C217D307D1F745
:1018E000CD01AC014A1B5B0BEC013991CE013E32BC
:1018F000C1F33032B1F39A0191E0452B09F090E049
:10190000A5014150510938F0BD01640F751FEB016D
:1019100088818E32B1F717E060E000E070E088E087
:10192000E82E2A153B050CF06CC06D01C20ED31ECB
:10193000E6018881803209F45BC08E3229F44217B7
:10194000530709F055C004C08232E1F08C37D1F062
:10195000D6EDFD2EF80ED5E0DF1510F08D3291F4A6
:10196000C6ECFC2EF80EC5E0CF1560F4D5EAFD2ECE
:10197000F80ED2E0DF1530F4CFEDFC2EF80ECDE5F9
:10198000CF1520F42417350781F438C02417350704
:10199000A9F1161718F1F82ECFE9DC2ED80ED9E1EF
:1019A000DD1548F080527E290CC01617B8F090E083
:1019B0008FE5CFE5FC2ECFEBFC0ED9E1DF1508F06B
:1019C0000E29FF24F394F60E6F01C60ED11CE6011A
:1019D0008E83D6E0DF1570F0F5820CC01A3081F0EE
:1019E000421753076CF09A011AE068E0D0E1ED2E3F
:1019F00090E001C06F2D2F5F3F4F93CF1A30B9F4A5
:101A000090E08681803209F424CF992329F00723BE
:101A100009F072E0708309C081E080838581E80F5E
:101A2000F11D8EE7868381E3878381E006C09A01FA
:101A30001AE068E0D0E1ED2EDECFDF91CF911F916B
:101A40000F91FF90EF90DF90CF90BF90AF900895EF
:101A50000F931F93CF93DF93DC012C91211102C0D0
:101A600081E051C0EC018A8187FF35C04C895D89D6
:101A70006E897F898E819F8121E084960E94F8176C
:101A80000097E9F1EC81FD81EF70FF2725E0EE0F73
:101A9000FF1F2A95E1F7DC01AE0FBF1F2C91253EF9
:101AA00071F1288123FF0AC0488D598D6A8D7B8D85
:101AB0005C964D935D936D937C935F974C8D5D8D9C
:101AC0006E8D7F8DE80FF91F538F428F758B648B5E
:101AD0008A818F778A830E811F81C80184960E9434
:101AE0009E17882361F0F80180819181DC01ED91DE
:101AF000FC910280F381E02D09958111B1CF89819C
:101B00008160898380E0DF91CF911F910F910895CB
:101B10004F925F926F927F928F929F92AF92BF92FD
:101B2000CF92DF92EF92FF920F931F93CF93DF93A9
:101B3000EC014A015B014C845D846E847F84A88142
:101B4000AA2309F491C0488959896A897B89841636
:101B50009506A606B70609F48DC081149104A10468
:101B6000B10429F41C861D861E861F8678C0A3FF3B
:101B70000BC0088D198D2A8D3B8D081519052A0576
:101B80003B0508F471C014C0A5FF12C0EE81FF81AF
:101B90008681978125E0880F991F2A95E1F7A0E0BB
:101BA000B0E088159905AA05BB0508F45DC057C0CB
:101BB000EE81FF81848190E009968A019B010150AA
:101BC000110921093109082E04C03695279517956A
:101BD00007950A94D2F775016401B1E0CB1AD108D8
:101BE000E108F10804C0F694E794D794C7948A9565
:101BF000D2F7C016D106E206F30620F0452B462B9D
:101C0000472B81F4A6FF05C0848D958DA68DB78DD9
:101C100004C08C8D9D8DAE8DBF8D8C879D87AE87CA
:101C2000BF8704C0C01AD10AE20AF30A8E01045F1A
:101C30001F4FC114D104E104F10489F04C855D8586
:101C40006E857F8598018E819F810E94A01891E00A
:101C5000C91AD108E108F10818165CF305C0888A92
:101C6000998AAA8ABB8A06C04C865D866E867F8664
:101C700080E001C081E0DF91CF911F910F91FF9033
:101C8000EF90DF90CF90BF90AF909F908F907F901C
:101C90006F905F904F9008952F923F924F925F9276
:101CA0006F927F928F929F92AF92BF92CF92DF926C
:101CB000EF92FF920F931F93CF93DF93CDB7DEB7D1
:101CC0002D970FB6F894DEBF0FBECDBF6C017B0120
:101CD000FA0181809280DB018C91807709F444C005
:101CE000D6018C91811140C08081837009F422C398
:101CF000C4010C966DE070E00E94562A552453945E
:101D0000560E2D835F0140E050E0BA01C7010E94EA
:101D1000880D1C861D861E82412C612C712C1B8611
:101D20001501B6E02B0E311CF70180899189A2893B
:101D3000B3899C01AD0195E0569547953795279558
:101D40009A95D1F72F83388749875A870F8118854D
:101D500061E0C7010E94030B009741F4D70111967F
:101D60008C91882309F4A8C080E0F9C2FC0120818D
:101D7000253E11F021110CC0611004C03F813C8749
:101D800038853D87651408F46394211105C094C01B
:101D9000651408F4D2C202C0253EF1F12E32E1F101
:101DA000DC011B963C911B973F3009F057C0711026
:101DB00009C026FFB9CF2F71722E1D962C912E834C
:101DC000472C09C04A94241127C0DC011D962C9190
:101DD0003E81321321C0442D50E0415051096DE045
:101DE000649F9001659F300D112428153905A0F4DA
:101DF000FC0170E0753018F48181928107C07B305E
:101E000018F48481958102C086819781281539054F
:101E100029F4892B09F488CF712C86CF8F3F910547
:101E200009F0D0F74FEB480F4A3110F0682F02C08D
:101E300060E2680FA9014F5F5F4FD50113968D9146
:101E40009C911497DC01A20FB31F8C919FEB980F0C
:101E50009A3108F4805E6813DFCF71C233FDDCCFA6
:101E60007720B9F0B1E04B127FCFFC01AC01455FA8
:101E70005F4F90E060E8969F900111249695922B19
:101E80002191920FE417F507A9F72E8192136CCFD9
:101E90000FC04BE050E0B1010E94892A892B09F064
:101EA00043CFD5018C9180FF03C021E02B873CCF2D
:101EB000BD81B7FF6FC158CF8D818274823409F024
:101EC00053CF662051F00C851D8507C060E0C70127
:101ED0000E94030B892B21F063946514B8F315C09D
:101EE000F7018181882389F03FCFC7010E94210635
:101EF000882309F439CFD7011696ED91FC911797F5
:101F00008281823020F430E1630E651470F32B85FA
:101F1000222309F473C0D50115964C9082E0682EF7
:101F2000712C1501B6E02B0E311C43C0F3E0F41503
:101F300010F4A3E04A2E34E0340D282F2F70432FE5
:101F400050E02A3008F053C0205DF501E40FF51F82
:101F50002683F4E096958795FA95E1F7315043167C
:101F600060F3F501E40DF11D2EE7268340E050E01B
:101F7000BA01C7010E94880D61E0C7010E94030BEE
:101F80000097B9F1FC0120812223C1F1238523FDB3
:101F9000F3CF4BE050E0BC01C1010E94892A892B9C
:101FA00059F7BFEF6B1A7B0AE4E66E16710409F469
:101FB000DBCEF50141815281C301840F951F03805F
:101FC000F481E02D4E0F5F1FE417F50709F4AECF43
:101FD0009C01B5E0220F331FBA95E1F7820F931FE2
:101FE0002191022E000C330B82279327EDCF295C21
:101FF000ACCFD70111968C918111B6CEA80160E0CB
:1020000070E0E5E0440F551F661F771FEA95D1F792
:10201000C7010E94880D882309F4A6CE77247A94FC
:10202000750C172D5FE0652E1501F6E02F0E311CA3
:10203000250121E1420E511C0DE0112309F463C07A
:1020400060E0C7010E94030BFC01892B09F48CCED0
:10205000D70116962D913C911797D90194968C91A2
:102060009497816094968C93612F171101C06064DE
:10207000608363861486D10120E030E8239FC0018D
:1020800011242695282B9D91290FA415B505A9F794
:102090002587138E128ED50113964D915C9114975E
:1020A0006F7170E061507109069F9001079F300DBC
:1020B000112460E02815390540F4DA01A20FB31F9E
:1020C0008C91082E000C990B0AC081E090E0281535
:1020D000390511F480E090E0919581959109653082
:1020E00018F49283818307C06B3018F4958384833E
:1020F00002C0978386836F5F2F5F3F4F32966D30AC
:10210000C9F611509ACFF7010089118922893389C4
:1021100045E036952795179507954A95D1F760E0E4
:10212000C7010E94030B009709F41ECE20E2DC01D8
:102130001D922A95E9F7F50136962BE0DC01019016
:102140000D922A95E1F7F50120812871DC011C969A
:102150002C931C9721E238E251963C932E93509792
:1021600040E058E01F965C934E931E9753963C9325
:102170002E93529759963C932E93589757965C936B
:102180004E935697D7011696ED91FC91179784A11F
:10219000816084A380E2F60111928A95E9F7D70164
:1021A0001696AD90BC901797F601B782A68215835C
:1021B00004835C968D919D910D90BC91A02D80879C
:1021C0009187A287B3870F701127F501BB9695E021
:1021D000000F111F9A95E1F7E00FF11F838583FF30
:1021E00003C0D6011C92C0CDD501A00FB11FD69659
:1021F0008C918771D6018C939385987111F48860C6
:102200008C93F60173828D81827319F080818171C4
:1022100041F78D818F70D60112968C93F50187A1BD
:1022200090A5A1A5B2A5F601848B958BA68BB78B43
:102230000A0D1B1DF801FF9640805180612C712C06
:10224000D20199278827369640805180612C712CC5
:10225000482A592A6A2A7B2AFD81F4FF48C0411482
:1022600051046104710409F471C09E012F5F3F4F56
:10227000B301A201C5010E94A018F82E87FDB1CFBD
:1022800000E010E09801B301A201C5010E943D18D1
:10229000882309F4A6CFD50190964D915D916D915B
:1022A0007C91939777FD09C04F5F5F4F6F4F7F4FD2
:1022B000F50140A351A362A373A3D50118964D91D4
:1022C0005D916D917C911B974416550666067706C5
:1022D00028F4F501408651866286738649805A80CB
:1022E0006B807C80F110C1CF811130C07ACFD601D4
:1022F0005C964D925D926D927C925F97F801E95BDE
:10230000FF4F80819181A281B381F601808F918FEF
:10231000A28FB38FFD81F5FF21C0D60158964D9154
:102320005D916D917C915B97C6010E94880D811132
:1023300015C057CF55245394E4CC612C2FCD7F5F2B
:1023400032967D3009F4F0CC9A0154CDD601129624
:102350008C911297806812968C93DCCF81E02D9639
:102360000FB6F894DEBF0FBECDBFDF91CF911F91A6
:102370000F91FF90EF90DF90CF90BF90AF909F9024
:102380008F907F906F905F904F903F902F90089527
:102390002F923F924F925F926F927F928F929F9275
:1023A000AF92BF92CF92DF92EF92FF920F931F9363
:1023B000CF93DF93EC015B014A01888183FF0EC05C
:1023C0008A8181FF0BC082FF0FC0488D598D6A8DB5
:1023D0007B8DCE010E94880D811106C089818160AC
:1023E00089838FEF9FEF0DC1A40160E070E08889C1
:1023F0009989AA89BB8980959095A095B0958417F5
:102400009507A607B70750F364011E018CE0280E5C
:10241000311C088919892A893B89C114D10409F41E
:10242000D5C08E819F81B901A80129E07695679575
:10243000579547952A95D1F7DC011396FC90F42225
:102440001170F11034C00115110589F54C855D85B9
:102450006E857F85411551056105710569F0910112
:102460000E94A01887FDBACF811121C0CE010E9421
:10247000580581111CC0B2CF8C8D9D8DAE8DBF8D46
:102480000097A105B10579F4CE010E945805882373
:1024900009F4A4CF8C859D85AE85BF858C8F9D8FDB
:1024A000AE8FBF8F04C08C879D87AE87BF87EE81BC
:1024B000FF814C855D856E857F854250510961099C
:1024C0007109048004C0440F551F661F771F0A94CA
:1024D000D2F780899189A289B389480F591F6A1F51
:1024E0007B1F4F0D511D611D711D0115110521F43B
:1024F000C114B2E0DB06B0F580E092E0801B910BE6
:1025000076018C159D0508F47C010115110579F4FF
:10251000488859886A887B88888D998DAA8DBB8D5B
:10252000481659066A067B0610F025E001C021E036
:10253000CF0184960E94F817009709F44FCFA701A6
:10254000B501800F911F0E94962A0E0D1F1D0115C7
:10255000124059F58E819F8184960E949E178111A9
:1025600024C03CCF87A190A5A1A5B2A5841795074B
:10257000A607B70741F414A28FEF9FEFDC0187A3F2
:1025800090A7A1A7B2A7EE81FF8180819181DC0194
:10259000ED91FC910480F581E02D9501099588234A
:1025A00009F41CCFE12C82E0F82E88899989AA8948
:1025B000BB898E0D9F1DA11DB11D888B998BAA8B88
:1025C000BB8BAE0CBF1CCE18DF0823CF888D998D36
:1025D000AA8DBB8D80179107A207B30738F4088F27
:1025E000198F2A8F3B8F8A8180688A838A8183FD35
:1025F00002C0C40106C0CE010E94280D8111F9CF8E
:10260000EDCEDF91CF911F910F91FF90EF90DF9072
:10261000CF90BF90AF909F908F907F906F905F9082
:102620004F903F902F900895FC01538D448D252F9E
:1026300030E0842F90E0821B930B541710F0CF965C
:10264000089501970895FC01918D828D981761F08E
:10265000828DDF01A80FB11D5D968C91928D9F5FD9
:102660009F73928F90E008958FEF9FEF0895FC0184
:10267000918D828D981731F0828DE80FF11D858D37
:1026800090E008958FEF9FEF0895FC01918D228DCA
:10269000892F90E0805C9F4F821B91098F7399274F
:1026A00008958EE092E00E94451321E0892B09F401
:1026B00020E0822F0895FC01848DDF01A80FB11D59
:1026C000A35ABF4F2C91848D90E001968F73992768
:1026D000848FA689B7892C93A089B1898C91806455
:1026E0008C93938D848D981306C00288F389E02D16
:1026F00080818F7D80830895EF92FF920F931F93C7
:10270000CF93DF93EC0181E0888F9B8D8C8D9813A4
:1027100005C0E889F989808185FD24C0F62E0B8DDE
:1027200010E00F5F1F4F0F731127E02E8C8DE81202
:102730000CC00FB607FCFACFE889F989808185FFC4
:10274000F5CFCE010E945B13F1CF8B8DFE01E80F18
:10275000F11DE35AFF4FF0820B8FEA89FB898081DC
:10276000806207C0EE89FF896083E889F9898081EA
:102770008064808381E090E0DF91CF911F910F9181
:10278000FF90EF900895CF93DF93EC01888D88231D
:10279000C9F0EA89FB89808185FD05C0A889B989CE
:1027A0008C9186FD0FC00FB607FCF5CF808185FFA9
:1027B000F2CFA889B9898C9185FFEDCFCE010E9417
:1027C0005B13E7CFDF91CF91089580E090E0892BF4
:1027D00029F00E94511381110C94000008953FB715
:1027E000F89480910A0290910B02A0910C02B09192
:1027F0000D0226B5A89B05C02F3F19F00196A11D1B
:10280000B11D3FBFBA2FA92F982F8827820F911D86
:10281000A11DB11DBC01CD0142E0660F771F881FCD
:10282000991F4A95D1F708950E94842A1F920F920A
:102830000FB60F9211242F933F934F935F936F9393
:102840007F938F939F93AF93BF93EF93FF938EE00C
:1028500092E00E945B13FF91EF91BF91AF919F9126
:102860008F917F916F915F914F913F912F910F9039
:102870000FBE0F901F9018951F920F920FB60F92D8
:1028800011242F938F939F93EF93FF93E0911E0258
:10289000F0911F028081E0912402F091250282FDD7
:1028A00012C09081809127028F5F8F732091280240
:1028B000821751F0E0912702F0E0E25FFD4F958F23
:1028C0008093270201C08081FF91EF919F918F91AA
:1028D0002F910F900FBE0F901F901895833081F0AD
:1028E00028F4813099F08230A1F008958730A9F062
:1028F0008830B9F08430D1F4809180008F7D03C09E
:10290000809180008F7780938000089584B58F77C1
:1029100002C084B58F7D84BD08958091B0008F770B
:1029200003C08091B0008F7D8093B00008951F9305
:10293000CF93DF93282F30E0F901EC51F94F8491C8
:10294000F901E259FC4FD491F901E65AFC4FC491C8
:10295000CC23C9F0162F81110E946E14EC2FF0E0E9
:10296000EE0FFF1FE652F94FA591B4918FB7F8947F
:10297000111105C09C91ED2FE095E92302C0EC9167
:10298000ED2BEC938FBFDF91CF911F910895CF93E3
:10299000DF9390E0FC01E259FC4F2491FC01E65AE0
:1029A000FC4F8491882361F190E0880F991FFC010E
:1029B000E859FF4FC591D491FC01E652F94FA5911A
:1029C000B491611109C09FB7F89488812095822342
:1029D0008883EC912E230BC0623061F49FB7F8948A
:1029E0003881822F809583238883EC912E2B2C9322
:1029F0009FBF06C08FB7F894E8812E2B28838FBF26
:102A0000DF91CF9108958F929F92AF92BF92CF9214
:102A1000DF92EF92FF926B017C010E94EF134B015A
:102A20005C01C114D104E104F104F1F00E94EF1340
:102A3000DC01CB0188199909AA09BB09883E93409A
:102A4000A105B10570F321E0C21AD108E108F1082F
:102A500088EE880E83E0981EA11CB11CC114D1041D
:102A6000E104F10419F7DDCFFF90EF90DF90CF90F4
:102A7000BF90AF909F908F9008952FB7F89460917A
:102A800006027091070280910802909109022FBFFF
:102A900008951F920F920FB60F9211242F933F9318
:102AA0008F939F93AF93BF938091060290910702FB
:102AB000A0910802B09109023091050223E0230F92
:102AC0002D3720F40196A11DB11D05C026E8230F66
:102AD0000296A11DB11D20930502809306029093DA
:102AE0000702A0930802B093090280910A02909114
:102AF0000B02A0910C02B0910D020196A11DB11D17
:102B000080930A0290930B02A0930C02B0930D02E3
:102B1000BF91AF919F918F913F912F910F900FBED9
:102B20000F901F9018958EBD0DB407FEFDCF089530
:102B30008FEF8EBD0DB407FEFDCF8EB50895CF93F8
:102B4000DF93FC012581222361F0EC010380F481F5
:102B5000E02D61E082810E9497148FEF0E9493150F
:102B60001D82DF91CF9108950F931F93CF93DF9331
:102B70008C01862FEA010E94931588818EBD898180
:102B8000FE013296DE5F0DB407FEFDCF8EBDEC1761
:102B9000FD0711F08191F7CF0DB407FEFDCF8FEF48
:102BA0000E9493158FEF0E9493150E949815F801CB
:102BB0008683982F9F71953039F087E58283C8010D
:102BC0000E949F1580E001C081E0DF91CF911F91AD
:102BD0000F910895CF93DF93FC012581211110C03F
:102BE000EC010380F481E02D908181819CBD8DBD3D
:102BF000EB81FC8160E082810E94971481E08D83EB
:102C0000DF91CF910895EF92FF921F93CF93DF93BF
:102C100000D000D0CDB7DEB77C01162F29833A83D0
:102C20004B835C83FC018581811103C0C7010E9435
:102C3000EA150E94AF19812F80640E9493158C8140
:102C40000E9493158B810E9493158A810E9493158F
:102C500089810E949315112311F087E801C085E94D
:102C60000E9493151C3011F40E94981510E00E94E8
:102C70009815F701868387FF04C01F3F11F01F5F7F
:102C8000F6CF0F900F900F900F90DF91CF911F9183
:102C9000FF90EF900895CF92DF92EF92FF920F9303
:102CA0001F93CF93DF93EC016A017B0189018C852F
:102CB000823049F488859985AA85BB858417950754
:102CC000A607B70719F1E881F9810280F381E02DA9
:102CD000CE0109958823C9F18F81A7019601833020
:102CE00039F089E0220F331F441F551F8A95D1F711
:102CF00069E1CE010E940316882311F083E30BC023
:102D0000C886D986EA86FB8682E08C870E94AF1946
:102D1000811103C08AE58A8307C0A8016CEFCE0148
:102D20000E94B415811105C0CE010E949F1580E05C
:102D30000CC0488559856A857B854F5F5F4F6F4F13
:102D40007F4F488759876A877B87DF91CF911F9193
:102D50000F91FF90EF90DF90CF9008951F93CF9346
:102D6000DF93EC018C858130A9F41C8620E030E0F3
:102D7000A9016CE0CE010E940316882339F088E295
:102D80008A83CE010E949F1510E017C0CE010E94D9
:102D90009F1512C0823081F41C860E94AF19182F33
:102DA000882321F08DEF0E94931502C086E58A8367
:102DB000CE010E949F1501C011E0812FDF91CF91BC
:102DC0001F910895CF92DF92EF92FF920F931F937E
:102DD000CF93DF93EC016A017B0189018C858130FF
:102DE00049F488859985AA85BB85481759076A07DC
:102DF0007B0741F1E881F9810280F381E02DCE016A
:102E000009958823B9F08F81A7019601833039F0A5
:102E100089E0220F331F441F551F8A95D1F762E1C5
:102E2000CE010E940316882339F081E38A83CE0104
:102E30000E949F1580E018C0C886D986EA86FB8666
:102E400081E08C87B801CE010E94781B882391F322
:102E5000488559856A857B854F5F5F4F6F4F7F4FF0
:102E6000488759876A877B87DF91CF911F910F91A0
:102E7000FF90EF90DF90CF9008950F931F93CF9323
:102E8000DF93EC0189018F81833039F089E0440FB1
:102E9000551F661F771F8A95D1F79A01AB0168E12C
:102EA000CE010E940316882319F082E38A830CC0A6
:102EB000A8016EEFCE010E94B415182F882321F0CF
:102EC000CE010E949F1504C0CE010E949F1510E004
:102ED000812FDF91CF911F910F9108950F931F9331
:102EE000CF93DF93EC0189018F81833039F089E042
:102EF000440F551F661F771F8A95D1F79A01AB01C2
:102F000061E1CE010E940316882319F080E38A83D1
:102F10000BC0B801CE010E94781B182F882321F026
:102F2000CE010E949F1504C0CE010E949F1510E0A3
:102F3000812FDF91CF911F910F9108958F929F92D2
:102F4000AF92BF92EF92FF921F93CF93DF93DC017A
:102F50002C9120FF41C0EC017C01B7E0EB0EF11C8D
:102F6000E981FA8180819181DC01ED91FC914B81B5
:102F70005C816D817E810480F581E02D970109954A
:102F8000182F811102C010E028C0888181FD04C083
:102F900088818E7F888321C0A981BA818D919C917F
:102FA0001197FC01208131811C968D909D90AD90F0
:102FB000BC901F974B815C816D817E81480D591DAE
:102FC0006A1D7B1DD9011496ED91FC91159797010F
:102FD00009958111DDCFD7CF11E0812FDF91CF91FE
:102FE0001F91FF90EF90BF90AF909F908F900895AA
:102FF000CF92DF92EF92FF921F93CF93DF93EC017A
:103000006A017B01122F8B819C81AD81BE81841767
:103010009507A607B70719F1CE010E949E178111E7
:1030200003C080E090E021C012FF06C01882CB826E
:10303000DC82ED82FE8213C0E981FA818081918178
:10304000DC01ED91FC910190F081E02D9E01295F62
:103050003F4FB701A60109958111E8CFE2CF137068
:103060008881182B1883CE010796DF91CF911F918D
:10307000FF90EF90DF90CF9008958F929F92AF9244
:10308000BF92CF92DF92EF92FF920F931F936A014C
:103090007B0148015901FC012581203251F5448909
:1030A00055896689778997018601E7E036952795E6
:1030B00017950795EA95D1F7400F511F621F731FAF
:1030C00023E084960E94F817009711F480E02DC049
:1030D000E894C7F8DD24EE24FF24CC0CDD1CCC0CD6
:1030E000DD1CFC01EC0DFD1D80829182A282B38269
:1030F0001BC0203159F7FC014489558966897789BD
:103100004D0D511D611D711D23E084960E94F8171D
:103110000097E1F2DD24EE24FF24CC0CDD1CFC0141
:10312000EC0DFD1D9182808281E01F910F91FF9037
:10313000EF90DF90CF90BF90AF909F908F900895C9
:10314000CF92DF92EF92FF920F931F93CF93DF9373
:10315000EC016A017B0189018D81803251F58C89F6
:103160009D89AE89BF89E7E0769567955795479524
:10317000EA95D1F7480F591F6A1F7B1F22E0CE0145
:1031800084960E94F817009711F48FEF40C0E894DE
:10319000C7F8DD24EE24FF24CC0CDD1CCC0CDD1C98
:1031A000FC01EC0DFD1D80819181A281B381BF7076
:1031B0001DC0803151F74C895D896E897F894D0D25
:1031C000511D611D711D22E0CE0184960E94F817E9
:1031D0000097D9F2DD24EE24FF24CC0CDD1CFC0189
:1031E000EC0DFD1D80819181A0E0B0E0488D598DEE
:1031F0006A8D7B8D481759076A077B0738F0F801FD
:1032000080839183A283B38381E001C080E0DF915A
:10321000CF911F910F91FF90EF90DF90CF90089585
:103220006115710579F0FB0101900020E9F73197F4
:10323000AF01461B570BDC01ED91FC910280F3813D
:10324000E02D099480E090E008950F931F930E9471
:103250003D156093160270931702809318029093A5
:103260001902E0910E02F0910F020484F585E02D21
:103270008EE092E0099597FF1FC00E943D150091D6
:103280001602109117022091180230911902DC01E8
:10329000CB01801B910BA20BB30B0091120210917A
:1032A0001302209114023091150280179107A20792
:1032B000B307B8F28FEF9FEF1F910F910895EEE0E3
:1032C000F2E0A089B18982E08C93A485B5851C9237
:1032D000A685B7858FEC8C93108EA489B58986E07E
:1032E0008C93A289B3898C9180618C93A289B389D4
:1032F0008C9188608C93A289B3898C9180688C931F
:103300000288F389E02D80818F7D808308959091DC
:10331000A9058091A805813061F0D0F0823081F05C
:103320008330A9F48093A8059093A90583E090E0E9
:1033300008958093A8059093A90581E090E00895F1
:103340008093A8059093A90582E090E0089591E00C
:103350001092A8059093A90580E090E00895CF937E
:10336000DF930E943D15EB010E9498158F3F49F0B5
:103370000E943D156C1B7D0B69357240A8F380E0FF
:1033800001C081E0DF91CF9108958F929F92AF921B
:10339000BF92CF92DF92EF92FF92CF93C82F1092FD
:1033A000260381E090E0A0E0B0E0809329039093B1
:1033B0002A03A0932B03B0932C0381E293E0909314
:1033C000470380934603109245038FEF9FEFDC0184
:1033D0008093480390934903A0934A03B0934B030F
:1033E000CC2331F1C53008F0E7C020E040E050E0E8
:1033F000BA0185E493E00E94F817009709F4DCC055
:1034000020E1C29F800D911D11244097FC01E254E0
:10341000FE4F20812F7709F0CFC0389680809180B1
:10342000A280B38081149104A104B10421F4C4C02A
:10343000812C912C540120E0B501A40185E493E096
:103440000E94F817FC01892B09F4B6C08385948586
:103450008115924009F0B0C08089823009F0ACC07B
:10346000468557854115510509F4A6C02585209349
:1034700023038FEF820F8093240380E091E02917CC
:1034800051F031E0380F393019F48093250394C09E
:10349000990F832FF4CF80932503C688D788C11452
:1034A000D10419F0E12CF12C04C0C4A0D5A0E6A0F1
:1034B000F7A0C0922D03D0922E03E0922F03F0923A
:1034C0003003D501C401840F951FA11DB11D809348
:1034D000350390933603A0933703B09338032189C3
:1034E00032893093280320932703CC0CDD1CEE1C7B
:1034F000FF1CC80ED91EEA1EFB1EC0923D03D092CF
:103500003E03E0923F03F092400355E0220F331F49
:103510005A95E1F721503E4F232F33272695C20EAF
:10352000D31EE11CF11CC0923103D0923203E09211
:103530003303F0923403238934892115310521F0B6
:10354000C901A0E0B0E004C080A191A1A2A1B3A1F3
:10355000B501A4014C195D096E097F09480F591F77
:103560006A1F7B1F0090250304C0769567955795C9
:1035700047950A94D2F7DB01CA010196A11DB11D3E
:103580008093390390933A03A0933B03B0933C0399
:103590008FEF9FEFDC018093410390934203A09350
:1035A0004303B0934403453F8FE05807610571051D
:1035B00028F48CE08093260380E017C0453F5F4FDE
:1035C0006105710510F480E10DC084A595A5A6A53F
:1035D000B7A580933D0390933E03A0933F03B09320
:1035E000400380E28093260381E0CF91FF90EF902B
:1035F000DF90CF90BF90AF909F908F900895FF92F3
:103600000F931F93CF93DF9300D000D0CDB7DEB7D9
:103610000E942519FC0197FD11C08D32910591F092
:10362000C0970A9778F0E0910E02F0910F020284A1
:10363000F385E02D8EE092E00995EACF60E070E03E
:10364000CB014CC020E030E0A901F12CE130F105C4
:10365000F1F0ED32F105C9F0CF01C0970A97B8F447
:10366000AAE0B0E00E94282A8F01FF0F220B330B43
:10367000DC01CB01800F911FA21FB31F9C01AD0184
:10368000205331094109510902C0FF24F394E0910C
:103690000E02F0910F020284F385E02D8EE092E09D
:1036A00029833A834B835C8309950E942519FC0189
:1036B000C09729813A814B815C810A9738F2E130C9
:1036C000F10521F2FF2041F066277727CB01621B2D
:1036D000730B840B950B02C0CA01B9010F900F90B8
:1036E0000F900F90DF91CF911F910F91FF90089550
:1036F000EF92FF920F931F93CF93DF93EC017B0127
:103700000E943D158B010E9498158E838F3F49F4CE
:103710000E943D15601B710B6D327140A0F385E571
:1037200003C08E3F39F080E58A83CE010E949F1549
:1037300080E01BC08FEF8EBDF701D701A150BE4FB7
:103740009FEF0DB407FEFDCF8EB59EBD8193EA17A6
:10375000FB07B9F70DB407FEFDCF8EB58C931E8223
:103760000E9498150E94981581E0DF91CF911F91DA
:103770000F91FF90EF9008954F925F926F927F921A
:10378000EF92FF920F931F93CF93DF93CDB7DEB7E6
:10379000A1970FB6F894DEBF0FBECDBF7C01FA0132
:1037A000CB0119A2223008F42AE08E010F5D1F4FD1
:1037B000422E512C612C712CBF01A30192010E9459
:1037C000E729F901CA01015011096A3014F4605D5A
:1037D00001C0695CD8016C93232B242B252B61F746
:1037E000B801C7010E941019A1960FB6F894DEBF68
:1037F0000FBECDBFDF91CF911F910F91FF90EF9042
:103800007F906F905F904F900895CF92DF92EF92EC
:10381000FF920F931F93CF93DF9377FF21C06A012D
:103820007B01EC01E881F9810190F081E02D6DE2EE
:1038300009958C0144275527BA014C195D096E0979
:103840007F092AE0CE010E94BC1B800F911FDF91EF
:10385000CF911F910F91FF90EF90DF90CF9008953F
:103860002AE0DF91CF911F910F91FF90EF90DF90B1
:10387000CF900C94BC1B67E371E00C9410190F936C
:103880001F93CF93DF93EC01AB0160E070E02AE07F
:103890000E94BC1B8C01CE010E943B1C800F911F1B
:1038A000DF91CF911F910F9108950F931F93CF93A5
:1038B000DF93EC01AB01770F660B770B0E94051CC1
:1038C0008C01CE010E943B1C800F911FDF91CF9194
:1038D0001F910F910895EF92FF920F931F93CF9333
:1038E000DF938C017B01C0E0D0E0F701EC0FFD1FFE
:1038F0006491662361F0D801ED91FC910190F08113
:10390000E02DC8010995892B11F02196EECFCE014B
:10391000DF91CF911F910F91FF90EF9008950F933A
:103920001F93CF93DF93EC010E946B1C8C01CE019F
:103930000E943B1C800F911FDF91CF911F910F912F
:103940000895CF92DF92EF92FF920F931F93CF9340
:10395000DF936C017A018B01C0E0D0E0CE15DF056A
:1039600089F0D8016D918D01D601ED91FC91019006
:10397000F081E02DC6010995892B11F47E0102C06A
:103980002196ECCFC701DF91CF911F910F91FF904E
:10399000EF90DF90CF900895CF92DF92EF92FF9259
:1039A0000F931F93E82FF92F05C00150110921092A
:1039B000310961F1908196239417B9F305C0015044
:1039C00011092109310911F1908196239413F7CF40
:1039D000C12CD12CE12CF12C0AC08FEFC81AD80AC7
:1039E000E80AF80A0C151D052E053F0579F08081BF
:1039F0008623841791F36C2D7D2D8E2D9F2D1F9185
:103A00000F91FF90EF90DF90CF90089560E070E00D
:103A100080E090E01F910F91FF90EF90DF90CF90AA
:103A20000895CF93DF93CDB7DEB7C756D1090FB650
:103A3000F894DEBF0FBECDBF789484B5826084BD9C
:103A400084B5816084BD85B5826085BD85B58160A2
:103A500085BD80916E00816080936E001092810020
:103A600080918100826080938100809181008160DB
:103A7000809381008091800081608093800080919C
:103A8000B10084608093B1008091B0008160809328
:103A9000B00080917A00846080937A0080917A00EF
:103AA000826080937A0080917A00816080937A00AE
:103AB00080917A00806880937A001092C100109201
:103AC000EF021092F0021092F1021092F2021092A4
:103AD000AD021092AE021092AF021092B0020E949C
:103AE0003D156B017C012B013C0128EB420E2BE0C4
:103AF000521E611C711C0E943D156C157D058E05C2
:103B00009F0528F04616570668067906A0F78EE04E
:103B100092E09093EE028093ED020E945F190E9462
:103B20003D156093AD027093AE028093AF02909307
:103B3000B00268E271E08091ED029091EE020E9485
:103B400010190E943D156B017C012B013C013AE0EC
:103B5000430E511C611C711C0E943D156C157D05A6
:103B60008E059F0528F04616570668067906A0F7C9
:103B700081E08093C1020E945F196AE371E08EE0E8
:103B800092E00E9410198EE092E00E943B1C8EE0B1
:103B900092E00E943B1CE0E8F5E0428153816081A5
:103BA0007181209146062A3008F449C0349645E0D8
:103BB000E83AF40791F76DE770E070934806609378
:103BC000470648E750E050934A064093490627E8E5
:103BD00030E030934C0620934B068AE590E09093BA
:103BE0004E0680934D067093500660934F06509397
:103BF00052064093510630935406209353069093F7
:103C0000560680935506909358068093570646E4CF
:103C100050E050935A064093590630935C06209327
:103C20005B0690935E0680935D0606E1E02E06E05B
:103C3000F02E67018CE0682E92E0792E63C0A4E03C
:103C40002A9FC001112488559A4FDC01AA58BF4F02
:103C500011967C936E9312964D935C937724739494
:103C6000720E7092460622E236E0A8963FAF2EAF63
:103C7000A89791E0971508F099CFA896AEADBFAD83
:103C8000A897CD90DD90ED90FC9013974D915C91AD
:103C9000892F282F30E02150304C220F331F220F64
:103CA000331FB901625E794FDB010D911C91401702
:103CB00051077CF42E5D394FDB012D903D904D90E6
:103CC0005C90D9012D923D924D925C921397815058
:103CD00001F76A01B4E08B9F90011124225E394FF5
:103CE000D901CD92DD92ED92FC9213979F5FA89639
:103CF0002EAD3FADA8972C5F3F4FA8963FAF2EAF9C
:103D0000A897B8CFD6018D919C91FC01208130E01D
:103D1000F901EE0FFF1F2E0F3F1FF901E452FE4F76
:103D20002081DC0157966D917C91589726FD62C0E9
:103D30000E94E608F60100811181D80151965C903D
:103D400051978C918C3008F057C061E0852D0E940E
:103D5000C714F8018081E82FF0E09F01220F331F84
:103D6000E20FF31FE452FE4F952D9F732081207CBC
:103D7000522E592A5082D80111961C9211971296F0
:103D80001C92662D0E944A2ABCE08B9FB001112430
:103D900040E050E09A01260F371FF901EE0FFF1F98
:103DA000E20FF31FE452FE4F908196FD15C04F5F66
:103DB0005F4F4C30510571F781110EC01092800099
:103DC000709281001092850010928400B19A8091C7
:103DD0006F00826080936F00D801EC91F0E0CF011A
:103DE000880F991FE80FF91FE452FE4F808180640D
:103DF000808302C00E94F908B2E0CB0ED11CEEE134
:103E0000CE16E6E0DE0609F07DCF61E08091AC05DC
:103E10000E9497148091AE059091AF050E94A10772
:103E20009A83898380EB95E00E94A1079C838B8312
:103E300082ED95E00E94A1079E838D8384EF95E03B
:103E40000E94A10798878F8306E116E0D8018D9123
:103E50009D918D01FC016789708D0E94F908F6E043
:103E60000E311F0799F766E1C62E66E0D62ED60101
:103E70000D911D916D01C8010E94A1073C01F8013F
:103E800063897489C8010E94F908D80155966D911B
:103E90007C915697C8010E94F908B301C8010E949D
:103EA000F908BEE1CB16B6E0DB0609F78E010F5F1D
:103EB0001F4F6E01E9E0CE0ED11C302E212ED8010D
:103EC0006D917D918D01F701819191917F010E940A
:103ED000F9080C151D0599F761E273E08EE092E098
:103EE0000E946B1C6AEF72E08EE092E00E948F1CD1
:103EF00062E070E080E090E00E9403156EEE72E0F8
:103F00008EE092E00E946B1C62ED72E08EE092E027
:103F10000E948F1C62E070E080E090E00E94031538
:103F200066EC72E08EE092E00E946B1C10927805C5
:103F30001092710510926E051092730589E795E055
:103F40009093700580936F050E943D158B01E09062
:103F50006F05F09070058AE0D70112968C9361E0AE
:103F60000E94C71461E0F70182810E949714FFB696
:103F7000F89480910202811127C0E4E6F3E0849175
:103F8000E8E7F3E09491E82FF0E0EE0FFF1FE85927
:103F9000FF4FA591B491EC91E92321F461E08AE00F
:103FA0000E94971461E08AE00E94C7148CB580617A
:103FB0008CBD8CB580648CBD61E08DE00E94C7141F
:103FC00061E08BE00E94C714809102028F5F8093B2
:103FD0000202FFBEE0916F05F091700582E58083DB
:103FE00011828CE695E00E94EA15E0916F05F09150
:103FF000700561E082810E9497144AE0F42E8FEFF1
:104000000E949315FA94F110FACFE0916F05F091A8
:10401000700560E082810E94971420E030E0A901E1
:1040200060E08CE695E00E940316813049F00E9422
:104030003D15601B710B613D774078F380E25AC0FB
:104040002AEA31E040E050E068E08CE695E00E942A
:104050000316853011F481E00CC034E0F32E0E9489
:10406000981580937205FA94F110F9CF8A3A59F4B1
:1040700082E08093730580917305823069F0C12CD2
:10408000D12C76010EC00E943D15601B710B613D65
:104090007740B0F285E22EC0C12CD12CE12C20E477
:1040A000F22E20E030E0A90167E38CE695E00E9463
:1040B0000316A701960169E28CE695E00E940316BB
:1040C000882349F00E943D15601B710B613D7740CC
:1040D00040F383E40FC080917305823001F520E046
:1040E00030E0A9016AE38CE695E00E94031688237C
:1040F00041F087E380936E058CE695E00E949F1562
:1041000045C00E949815807C803C19F483E0809320
:1041100073050E9498150E9498150E9498158CE6C8
:1041200095E00E949F15E0916F05F091700580E584
:10413000808381E081838CE695E0909322038093D5
:1041400021038CE495E00E94CA0481E00E94C51915
:10415000882349F061E273E08CE495E00E94B004AA
:104160008823A1F006C080E00E94C5198111F2CF1A
:104170000DC080914C05807749F08CE495E09093D8
:1041800001028093000269EA72E002C068EB72E00B
:104190008EE092E00E948F1C62E070E080E090E090
:1041A0000E9403158E010E5A1F4F8AE0E2EDF1E0E6
:1041B000D80101900D928A95E1F719821A8221E0C7
:1041C000A8016CE475E0832D922D0E94D304811127
:1041D0003CC06DE972E08EE092E00E946B1C19A277
:1041E0001AA2A6961FAF0EAFA69719821A828091C7
:1041F0004C05807709F0F6C41CC06091520570919F
:104200005305832D922D0E94B004882391F0E32C56
:10421000F22C90E2D92EAE014C595F4FBE016F5B7C
:104220007F4FA6968EAD9FADA6970E940A0C811176
:10423000ECC466E672E08EE092E00E948F1C62E0C1
:1042400070E080E090E00E94031561E081E293E07D
:104250000E94900A41E0B80181E293E00E94B70A0F
:10426000C12CD12CBAE06B2E712C44244394512CD8
:1042700064EB71E0CE0181960E94AA2A1EA245E657
:10428000C416D10409F45CC0C601E12C8A30910542
:1042900030F0E394B3010E94562ACB01F7CFF12C02
:1042A000A2014E195F0962E770E0CE018F5B9F4F5C
:1042B0000E94A329E2E0F0E0EE19FF0981E490E01A
:1042C0008C0F9D1FE80FF91F1082BC0180970E9480
:1042D0009F2A4AE0BE01645A7F4FC6010E94B2295C
:1042E000BE01645A7F4FCE0181960E949F2A6AEBDD
:1042F00071E0CE0181960E949F2A6CEB71E0CE01A5
:1043000081960E949F2A9FEFC91AD90A19821A82A0
:1043100021E0AE014F5D5F4F6CE475E0832D922D7F
:104320000E94D3048111A4CFBE016F5D7F4F832D06
:10433000922D0E94AA2A61E081E293E00E94900AF5
:104340006AE572E08EE092E00E946B1C67E472E026
:104350008EE092E00E946B1C632D722D8EE092E045
:104360000E9410198EE092E00E943B1C62E070E017
:1043700080E090E00E9403156BE372E08EE092E033
:104380000E946B1C40E0B80181E293E00E94B70AF2
:10439000811103C06FE172E002C060E172E08EE063
:1043A00092E00E948F1C62E070E080E090E00E944A
:1043B000031564E072E08EE092E00E946B1C609155
:1043C00000027091010222E4432D522D81E093E01E
:1043D0000E94D304811103C067EF71E002C069EE4F
:1043E00071E08EE092E00E948F1C62E070E080E05D
:1043F00090E00E94031567E671E08DEF92E00E9465
:104400006B1C67E271E08DEF92E00E946B1C62EE24
:1044100070E08DEF92E00E946B1C66EA70E08DEF19
:1044200092E00E946B1C6DE770E08DEF92E00E94BD
:104430006B1C8DEF92E00E943B1C6DED71E08EE0F5
:1044400092E00E946B1C68EC71E08EE092E00E94AA
:104450006B1C86EF92E00E94FA09482F50E060E062
:1044600070E02AE08EE092E00E94BC1B8EE092E0B9
:104470000E943B1C62E070E080E090E00E94031527
:104480006CEB71E08EE092E00E946B1C67EA71E0D9
:104490008EE092E00E946B1C83EF92E00E94FA098A
:1044A000482F50E060E070E02AE08EE092E00E9449
:1044B000BC1B8EE092E00E943B1C62E070E080E05A
:1044C00090E00E9403158091A905811106C06FE458
:1044D00075E08EE092E00E948F1C62E070E080E068
:1044E00090E00E9403158091A905811154C00E949B
:1044F000871981309105B9F03CF4892BC1F4809083
:10450000AE059090AF0513C08230910539F0039746
:1045100071F4F4EF8F2EF5E09F2E09C0A2ED8A2EE4
:10452000A5E09A2E04C0E0EB8E2EE5E09E2ED4018D
:1045300054961C921E9253970E94871981309105C0
:10454000B9F03CF4892BC1F4A090AE05B090AF0552
:1045500013C08230910539F0039771F464EFA62EF1
:1045600065E0B62E09C072EDA72E75E0B72E04C027
:1045700050EBA52E55E0B52E24EB30E0F501368B3F
:10458000258B8091A8058F5F8093A8051092A905BF
:104590000E948719A8CF8EE092E00E943B1C62E344
:1045A00075E08EE092E00E946B1C62E070E080E0BB
:1045B00090E00E9403158DEC96E00E94A107BC01DB
:1045C0008EE092E00E94551C62E070E080E090E096
:1045D0000E94031565E175E08EE092E00E946B1C7D
:1045E00062E070E080E090E00E9403158BEA96E0C4
:1045F0000E94A107BC018EE092E00E94551C62E07F
:1046000070E080E090E00E94031568EF74E08EE0B7
:1046100092E00E946B1C62E070E080E090E00E94FB
:10462000031589E896E00E94A107BC018EE092E0A4
:104630000E94551C62E070E080E090E00E9403154B
:104640006BED74E08EE092E00E946B1C62E070E023
:1046500080E090E00E94031587E696E00E94A107A3
:10466000BC018EE092E00E94551C62E070E080E0A8
:1046700090E00E9403150E943D156B017C018EE0C5
:1046800092E00E944513892B11F50E943D15C61634
:10469000D706E806F90698F70E943D156B017C01E4
:1046A00030E1C30E37E2D31EE11CF11C8EE092E034
:1046B0000E943B1C65EC74E08EE092E00E946B1C53
:1046C00062E070E080E090E00E940315D8CF0E9485
:1046D000FF1A8B018EE092E00E94551C02301105FA
:1046E00051F144F40130110589F4C090AE05D09029
:1046F000AF052AC00330110521F00430110501F186
:1047000005C042EDC42E45E0D42E1EC06AEB74E015
:104710008EE092E00E948F1C62E070E080E090E00A
:104720000E9403158EE092E00E943B1C8EE092E016
:104730000E94C31354C230EBC32E35E0D32E04C005
:1047400024EFC22E25E0D22E0E943D152B013C0104
:104750008EE092E00E944513892B11F50E943D15D1
:10476000461657066806790698F70E943D152B01F4
:104770003C0140E1440E47E2541E611C711C8EE076
:1047800092E00E943B1C65EA74E08EE092E00E9499
:104790006B1C62E070E080E090E00E940315D8CFCF
:1047A0000E94FF1A1B012C013B018EE092E00E9447
:1047B000551CA101032C000C660B770B8EE092E0D8
:1047C0000E94051C62E974E08EE092E00E946B1C7E
:1047D00062E070E080E090E00E94031585EB28160F
:1047E0003104C0F060EC71E08EE092E00E9410199C
:1047F0006EE373E08EE092E00E946B1CB1018EE0EC
:1048000092E00E94551C62E070E080E090E00E941F
:10481000031558C0C6010E94A1077C018101081B35
:10482000190B60EC71E08EE092E00E94101967E3D2
:1048300073E08EE092E00E946B1CB8018EE092E083
:104840000E94551C62E070E080E090E00E94031539
:1048500001151105B9F124F09FEFE91AF90A03C017
:10486000A1E0EA1AF108B701C6010E94E608830137
:104870000E191F0960EC71E08EE092E00E941019A1
:104880006DE273E08EE092E00E946B1CB7018EE057
:1048900092E00E94551C62E070E080E090E00E948F
:1048A00003150E943D151B012C01BFE02B0E311C8E
:1048B000411C511C0E943D15621573058405950528
:1048C000C8F3C6CFC6010E94A107AC01990F660BC1
:1048D000770B8EE092E00E94051C60E874E08EE0A9
:1048E00092E00E948F1C62E070E080E090E00E9405
:1048F00003156CE674E08EE092E00E946B1C62E0AF
:1049000070E080E090E00E94031560E080917C05FB
:104910000E94971483E090E00197F1F761E08091A5
:104920007C050E94971483E290E00197F1F760E024
:1049300080917C050E94971480917E0590917F055F
:104940009927FC01E259FC4F6491FC01E65AFC4FA7
:10495000E491F0E0EE0FFF1FE05BFC4F8591949136
:1049600003E61BE020E030E0462F0E94CC1C6115DE
:1049700071058105910541F0AB01BC014F5F5F4FAF
:104980006F4F7F4F7F7003C040E050E0BA018EE070
:1049900092E00E94051C8EE092E00E943B1C62E0C7
:1049A00070E080E090E00E94031562E674E08EE023
:1049B00092E00E946B1C62E070E080E090E00E9458
:1049C000031567ED73E08EE092E00E946B1C66ECCD
:1049D00073E08EE092E00E946B1C8091AE05909196
:1049E000AF050E94C009BC018EE092E00E94551CF8
:1049F00062E070E080E090E00E94031565EB73E0F8
:104A00008EE092E00E946B1C64EA73E08EE092E01C
:104A10000E946B1C80EB95E00E94C009BC018EE0F7
:104A200092E00E94551C62E070E080E090E00E94FD
:104A3000031563E973E08EE092E00E946B1C62E86C
:104A400073E08EE092E00E946B1C84EF95E00E9480
:104A5000C009BC018EE092E00E94551C62E070E04B
:104A600080E090E00E9403158091AE059091AF0523
:104A70000E94C0098C0180EB95E00E94C009080FDC
:104A8000191F84EF95E00E94C009B801680F791FD3
:104A90008EE092E00E943F1C62E070E080E090E0D7
:104AA0000E94031568E574E08EE092E00E946B1CA2
:104AB00062E070E080E090E00E9403156DE374E036
:104AC0008EE092E00E946B1C6CE274E08EE092E05B
:104AD0000E946B1C8091AE059091AF050E947C09ED
:104AE000BC018EE092E00E94551C62E070E080E024
:104AF00090E00E9403156BE174E08EE092E00E946A
:104B00006B1C6AE074E08EE092E00E946B1C80EB0C
:104B100095E00E947C09BC018EE092E00E94551C49
:104B200062E070E080E090E00E94031569EF73E0BE
:104B30008EE092E00E946B1C68EE73E08EE092E0E3
:104B40000E946B1C84EF95E00E947C09BC018EE002
:104B500092E00E94551C62E070E080E090E00E94CC
:104B600003158091AE059091AF050E947C098C01E0
:104B700080EB95E00E947C09080F191F84EF95E0F7
:104B80000E947C09B801680F791F8EE092E00E94B4
:104B90003F1C62E070E080E090E00E9403156EE44C
:104BA00074E08EE092E00E946B1C62E070E080E0B6
:104BB00090E00E94031582ED95E00E94A1076091AC
:104BC000E1057091E205680F791F8EE092E00E9486
:104BD0003F1C62E070E080E090E00E9403150E94BC
:104BE000E51371CCF80180818F3209F049C0A69697
:104BF000EEADFFADA69780818F3209F0FECA3196E7
:104C0000A696FFAFEEAFA697F2CFA696EEADFFAD9C
:104C1000A6978081882331F121E0AE014F5B5F4F81
:104C2000B701CE0181960E944C0E81110BC0AE01DE
:104C30004F5B5F4FB701CE0181960E94A906882382
:104C400009F4F7CAFE01B196A32DB22D8D2D019066
:104C50000D928A95E1F7CE0181960E94CA04E32C59
:104C6000F22CD9CAAE014F5B5F4FB701CE018196DE
:104C70000E94A906882309F4DCCA60E872E0DBCA56
:104C80008CE4E82E85E0F82EC4CA08952F923F9256
:104C90004F925F926F927F928F929F92AF92BF924C
:104CA000CF92DF92EF92FF920F931F93CF93DF93F8
:104CB00000D000D0CDB7DEB71092110210921002D2
:104CC00088EE93E0A0E0B0E080931202909313028C
:104CD000A0931402B093150284E091E090930F0228
:104CE00080930E0285EC90E090931B0280931A0251
:104CF00084EC90E090931D0280931C0280EC90E085
:104D000090931F0280931E0281EC90E09093210209
:104D10008093200282EC90E0909323028093220201
:104D200086EC90E090932502809324021092270253
:104D3000109228021092290210922A021092B102B7
:104D40001092B2021092B3021092B4021092B50205
:104D50001092B6021092B7021092B8021092B902E5
:104D60001092BA021092BB021092BC021092BD02C5
:104D70001092BE021092BF021092C0028FEF9FE706
:104D80009093F4068093F3069093F6068093F506CD
:104D90009093F8068093F7069093FA068093F906AD
:104DA0009093F0068093EF069093F2068093F106BD
:104DB0008DEC96E00E9409084DE857E96EE07FE32C
:104DC0004093D0065093D1066093D2067093D306D9
:104DD0008CE59FE8A6E4B2EC8093D4069093D506C8
:104DE000A093D606B093D7061092D9061092D80693
:104DF00087E8E82EF12CF092DB06E092DA0684ECEC
:104E00009FEF9093DD068093DC0686E090E0909320
:104E1000DF068093DE060AE510E01093E1060093BA
:104E2000E00694EB892E912C9092E3068092E206A4
:104E3000F092E506E092E4068FE090E09093E706BA
:104E40008093E606412C512C28E4622E22E4722E37
:104E50004092E8065092E9066092EA067092EB06EC
:104E600032E3232E312C3092ED062092EC068BEAB1
:104E700096E049835A836B837C830E94090889ECFE
:104E800096E7AEE8BFE38093AE069093AF06A0939B
:104E9000B006B093B1068AE999E1A3E1B3EC80933F
:104EA000B2069093B306A093B406B093B506CC2493
:104EB000C394D12CD092B706C092B6068EE890E08B
:104EC0009093B9068093B80686EA9FEF9093BB064D
:104ED0008093BA0689E090E09093BD068093BC066B
:104EE00084E190E09093BF068093BE0681E990E054
:104EF0009093C1068093C0068FE590E09093C3061F
:104F00008093C2068EE090E09093C5068093C4061D
:104F10004092C6065092C7066092C8067092C906B3
:104F20003092CB062092CA0689E896E00E940908D2
:104F300080E090E0A0E8BFE380938C0690938D061C
:104F4000A0938E06B0938F0680E090E0A0E8BFEBC0
:104F50008093900690939106A0939206B093930647
:104F600082E090E0909395068093940610929706C5
:104F700010929606109299061092980653E0A52E6C
:104F8000B12CB0929B06A0929A0610929D061092A8
:104F90009C0690929F0680929E06F092A106E09257
:104FA000A00683E690E09093A3068093A206409229
:104FB000A4065092A5066092A6067092A7063092AB
:104FC000A9062092A80687E696E00E940908498172
:104FD0005A816B817C8140936A0650936B06609383
:104FE0006C0670936D0688EB9EE1A5E7B2EC8093AA
:104FF0006E0690936F06A0937006B0937106B09200
:105000007306A092720610927506109274061092A2
:1050100077061092760685E090E09093790680936B
:10502000780610937B0600937A068CE890E09093C4
:105030007D0680937C0610937F0600937E0680E1B8
:1050400090E0909381068093800640928206509271
:1050500083066092840670928506309287062092BD
:1050600086061092A8051092A905D092AB05C092B1
:10507000AA0588E08093AC0581E18093AD058DECB5
:1050800096E09093AF058093AE0582E2EBEAF6E0FE
:10509000A0EBB5E001900D928A95E1F782E2E9E894
:1050A000F6E0A2EDB5E001900D928A95E1F782E27B
:1050B000E7E6F6E0A4EFB5E001900D928A95E1F7FE
:1050C000EEE1F6E08FEF9FE7918380839383828305
:1050D000349626E0E634F207B9F71092460688E0E7
:1050E000E7E4F6E0DF01282F1D922A95E9F7EFE4C7
:1050F000F6E0DF01282F1D922A95E9F7E7E5F6E0B3
:10510000DF01282F1D922A95E9F7EFE5F6E0DF0190
:105110001D928A95E9F760E088E00E94971461E0AB
:1051200088E00E94C71460E081E10E94C7148DEC02
:1051300096E090931706809316068BEA96E090937C
:1051400019068093180689E896E090931B068093D1
:105150001A0687E696E090931D0680931C068AE562
:1051600090E0909381058093800583E590E0909393
:1051700083058093820584E690E090938505809373
:10518000840584E490E090938705809386058EE6FD
:1051900090E0909389058093880587E390E0909351
:1051A0008B0580938A0588E790E090938D05809326
:1051B0008C0582E390E090938F0580938E0582E8C2
:1051C00090E0909391058093900588E290E0909311
:1051D0009305809392058CE890E0909395058093D9
:1051E00094058EE190E0909397058093960586E96B
:1051F00090E0909399058093980584E190E09093D6
:105200009B0580939A0580EA90E090939D0580939A
:105210009C0589E190E090939F0580939E058AEA22
:1052200090E09093A1058093A0058AE190E090938F
:10523000A3058093A20524EB30E03093A5052093CD
:10524000A4059093A7058093A60584E090E0909331
:105250007D0580937C0587E090E090937F058093A7
:105260007E0561E084E00E94C71460E084E00E9453
:10527000971460E087E00E94C714109226031092F2
:105280004C0510924D0584E680936E0510927305CF
:1052900082E291E090936D0580936C0580E58093A8
:1052A000790510927A051092010310920203109270
:1052B00000031092FF0286E191E09093FE0280933A
:1052C000FD0288EA95E09093FA028093F9028CE758
:1052D00095E09093FC028093FB0282E18093F602BA
:1052E00012E01093F7020AE00093F80261E082E016
:1052F0000E94C71460E082E10E94C71483E180939A
:10530000F3021093F4020093F50261E082E00E9440
:10531000C71460E083E10F900F900F900F90DF9122
:10532000CF911F910F91FF90EF90DF90CF90BF90A2
:10533000AF909F908F907F906F905F904F903F9035
:105340002F900C94C714FB01DC014150504048F0F1
:1053500005900D920020C9F701C01D9241505040A8
:10536000E0F70895BB274A3031F4992322F4BDE2D7
:10537000909581959F4F0C94BE29BB27FB01552723
:10538000AA27880F991FAA1FA41710F0A41B8395A2
:105390005051B9F7A05DAA3308F0A95DA193009719
:1053A00079F7B111B1931192CB010C94D729DC019B
:1053B000FC01672F71917723E1F7329704C07C914C
:1053C0006D9370836291AE17BF07C8F30895A1E291
:1053D0001A2EAA1BBB1BFD010DC0AA1FBB1FEE1F6F
:1053E000FF1FA217B307E407F50720F0A21BB30BBA
:1053F000E40BF50B661F771F881F991F1A9469F736
:1054000060957095809590959B01AC01BD01CF0191
:105410000895052E97FB1EF400940E94202A57FD44
:1054200007D00E94E72907FC03D04EF40C94202AF1
:1054300050954095309521953F4F4F4F5F4F0895C0
:1054400090958095709561957F4F8F4F9F4F0895F0
:105450000E943B2AA59F900DB49F900DA49F800DA4
:10546000911D11240895B7FF0C94282A0E94282A20
:10547000821B930B0895A29FB001B39FC001A39F0D
:10548000700D811D1124911DB29F700D811D11247D
:10549000911D0895991B79E004C0991F961708F093
:1054A000961B881F7A95C9F780950895AA1BBB1B88
:1054B00051E107C0AA1FBB1FA617B70710F0A61B14
:1054C000B70B881F991F5A95A9F780959095BC0135
:1054D000CD01089597FB072E16F4009407D077FDB1
:1054E00009D00E94562A07FC05D03EF4909581957C
:1054F0009F4F0895709561957F4F0895EE0FFF1FA0
:105500000590F491E02D099481E090E0F8940C94DA
:10551000B12AFB01DC0104C08D910190801921F4B6
:1055200041505040C8F7881B990B0895FB01DC01DE
:1055300002C001900D9241505040D8F70895FB01F0
:10554000DC010D900020E9F7119701900D920020E9
:10555000E1F70895FB01DC0101900D920020E1F7D5
:10556000089513E0CDE7D3E004C0FE010E947E2A37
:0C5570002196CE37D107C9F7F894FFCF81
:10557C00000000007C13A11C1413C3134513231348
:10558C003713000000009E049B042E04310400001D
:10559C000000E216AE164B16564D4450565F317C49
:1055AC00315F564D4450560D0A00433A5C557365B5
:1055BC0072735C7479626C755C4170704461746177
:1055CC005C4C6F63616C5C54656D705C564D4275E0
:1055DC00696C64735C4175746F4D6F76655C537068
:1055EC0061726B46756E5F526564426F6172645C8A
:1055FC0044656275675C4175746F4D6F76652E639B
:10560C00707020636F6D70696C6564204E6F7620CE
:10561C00203520323031372061742031373A303424
:10562C003A323800736F6E6172002E007478740019
:10563C00526F626F7441726D4D656D626572203A86
:0C564C0020002F546F706F4D61707300D0
:00000001FF
