:100000000C946C010C9494010C9494010C94940144
:100010000C9494010C9494010C9494010C9494010C
:100020000C9494010C9494010C9494010C94951BE1
:100030000C9494010C9494010C9494010C949401EC
:100040000C94B00B0C9494010C948B0A0C94650ADC
:100050000C9494010C9494010C9494010C949401CC
:100060000C9494010C94940148656164657220704D
:1000700072696E74656420746F20534420636172EA
:10008000642E2E2E2049207468696E6B2E004175F7
:10009000746F4D6F7665203A2000626F6F6D312C62
:1000A000626F6F6D322C7475727265742C636C6143
:1000B000772C736F6E6172004F70656E2066696C8D
:1000C00065206661696C65643A20004175746F4D06
:1000D0006F7665203A20004368616E676520646929
:1000E000726563746F727920746F2022546F706F21
:1000F0004D61707322206661696C65642E004175E4
:10010000746F4D6F7665203A2000556E6971756584
:100110002073686F72742066696C65206E616D650E
:100120003A20004175746F4D6F7665203A20004388
:1001300072656174652022546F706F4D6170732217
:10014000206661696C65642E004372656174652088
:1001500022546F706F4D61707322207375636365F5
:10016000656465642E004175746F4D6F7665203A45
:100170002000534420696E6974207375636365734E
:10018000732E00534420696E6974206661696C6542
:10019000642E004175746F4D6F7665203A200053D0
:1001A00074617274696E6720535049205344206310
:1001B0006172642073747566662E004175746F4DAC
:1001C0006F7665203A200046696E69736865642021
:1001D000776967676C696E67206120736572766FF7
:1001E0002E004175746F4D6F7665203A200053657F
:1001F00072766F206661696C656420746F2061742B
:10020000746163682E00536572766F206174746147
:10021000636865642E004175746F4D6F7665203A92
:10022000200000000000240027002A000000000039
:10023000250028002B000000000800020100000338
:100240000407000000000000000000000000230080
:100250002600290004040404040404040202020227
:100260000202030303030303010204081020408079
:10027000010204081020010204081020577269745A
:100280006520737563636573732E005772697465B7
:10029000206572726F722E004175746F4D6F7665B6
:1002A000203A200044617461207261746520676F98
:1002B0006F642E0044617461207261746520746FF4
:1002C0006F20686967682E004175746F4D6F7665A1
:1002D000203A2000DA21AC2011241FBECFEFD8E055
:1002E000DEBFCDBF11E0A0E0B1E0E2EBF2E502C07D
:1002F00005900D92A23DB107D9F725E0A2EDB1E03E
:1003000001C01D92A63EB207E1F711E0CBE6D1E0B5
:1003100004C02197FE010E941E27CA36D107C9F7E3
:100320000E94AD200C944C290C94000081E00895AB
:10033000089580E090E0089504960C942614CF93DD
:10034000DF931F92CDB7DEB7698341E050E0BE0175
:100350006F5F7F4F04960E9426140F90DF91CF911C
:10036000089504960C9472159B01FC0165857685B1
:100370002617370754F0FC016785708962177307E9
:100380001CF4283C31050CF0B9010C94F61AFF92CC
:100390000F931F93CF93DF938C01F62EEC01C55D75
:1003A000DD4FCE010E94B717B801CE010E949D1704
:1003B000882371F0FF2061F090913C05907739F02F
:1003C0002CE335E0309307022093060201C080E061
:1003D000DF91CF911F910F91FF9008952F923F923F
:1003E0004F925F926F927F928F929F92AF92BF9245
:1003F000CF92DF92EF92FF920F931F93CF93DF93F1
:10040000CDB7DEB7C85ED1090FB6F894DEBF0FBE18
:10041000CDBF8DB79EB7C951DF4F99838883C75E23
:10042000D0401092E9021092EA021092EB02109270
:10043000EC021092A7021092A8021092A902109248
:10044000AA020E94A40B6B017C014B015C0198EB9A
:10045000890E9BE0991EA11CB11C0E94A40B6C1577
:100460007D058E059F0528F086169706A806B90615
:10047000A0F788E092E09093E8028093E7020E9460
:10048000BC1C0E94A40B6093A7027093A8028093E7
:10049000A9029093AA026EE271E08091E702909126
:1004A000E8020E94770F0E94A40B6B017C014B01B4
:1004B0005C01AAE08A0E911CA11CB11C0E94A40B35
:1004C0006C157D058E059F0528F086169706A806F3
:1004D000B906A0F781E08093BB020E94BC1C80E4B7
:1004E00091E00E94212088E092E00E941D208E0170
:1004F0000F551F4F22242394312C8091E105811147
:1005000074C2C8010E94761EF80161897289C8010F
:100510000E94B401D8011B96BC91CE51DF4FB88325
:10052000C25ED04020E030E040E85FE3F80165893A
:1005300076898789908D0E948A25D80155962D91BC
:100540003D914D915C9158970E949E2618160CF093
:100550006EC0FE0131966F015F01D80153968C91F8
:100560008E3008F08E508770806480937C0080917C
:100570007A00806480937A0080917A0086FDFCCFB7
:10058000609178008091790070E0782B072E000C44
:10059000880B990B0E94C223F5016193719381939B
:1005A00091935F01E017F107C1F6CE0101960E9419
:1005B000AE1ECE0101965C0160E070E0CB01D5017A
:1005C0002D913D914D915D915D010E948A25A0166E
:1005D000B106A9F720E030E040E252E40E94F6259F
:1005E0002B013C01812C912C5401F60161917191F8
:1005F000819191916F01A30192010E9489259B0134
:10060000AC010E9421249B01AC01C501B4010E94F0
:100610008A254B015C01C016D10639F720E030E095
:100620004CE152E40E94F6250E94A92686CFADB780
:10063000BEB7CD51DF4FB983A883C35ED040EDB7BD
:10064000FEB7E05AF1090FB6F894FEBF0FBEEDBF3A
:100650008DB79EB701966C01A054B1400FB6F894C7
:10066000BEBF0FBEADBFEF59F109C652DF4FF983D0
:10067000E883CA5DD040815F91090FB6F8949EBFB0
:100680000FBE8DBFAF54B109C452DF4FB983A883E9
:10069000CC5DD040FE0131965601D6014191519179
:1006A000619171914D935D936D937D93E017F10787
:1006B000A9F7C6010E94AE1EF60180819181A28138
:1006C000B381C652DF4FE881F981CA5DD040808393
:1006D0009183A283B383C452DF4FA881B981CC5DDB
:1006E000D0402D923C92F601E456FF4FCB51DF4FA4
:1006F000F983E883C55ED040E12CF12C812C912C4C
:10070000C12CD12CF50184819581A681B781C2527B
:10071000DF4F88839983AA83BB83CE5DD04020813D
:10072000318142815381B4E0AB0EB11CC252DF4F24
:10073000688179818A819B81CE5DD0400E94892524
:100740002B013C0120E030E0A9010E94BB2387FF80
:1007500004C077FA709477F8709420E030E040E8B5
:100760005FE3C301B2010E94BB2387FF16C0F601FD
:10077000EE0FFF1FC452DF4F88819981CC5DD040BE
:10078000E80FF91F808191810196918380838816FB
:10079000990664F576014C0129C09FEFC91AD90A60
:1007A000F601EE0FFF1FEE0FFF1FC652DF4FA881AD
:1007B000B981CA5DD040EA0FFB1FC252DF4F88816A
:1007C0009981AA81BB81CE5DD04080839183A28331
:1007D000B383F601EE0FFF1FC452DF4FA881B9812A
:1007E000CC5DD040EA0FFB1F31822082CB51DF4F1E
:1007F000E881F981C55ED040AE16BF0609F082CF10
:10080000F2E08F16910494F0F701EE0FFF1FEE0F48
:10081000FF1FC652DF4F88819981CA5DD040E80F23
:10082000F91F80809180A280B38003C0812C912C1D
:100830005401CD51DF4FA881B981C35ED0400FB6BE
:10084000F894BEBF0FBEADBF20E030E040E251E4FF
:10085000C501B4010E94BB2387FD0FC020E030E03A
:1008600040E054E4C501B4010E949E2618162CF005
:10087000C501B4010E94682602C060E070E0072E46
:10088000000C880B990B0E94C223F801238134814C
:10089000458156810E942124D80117962D913D91C2
:1008A0004D915C911A970E948A250E946826F80152
:1008B000458556856417750744F047855089461766
:1008C00057071CF0C8010E94B401D8018C918C30EC
:1008D00008F05EC061E0CE51DF4F8881C25ED0403B
:1008E0000E94090BF8018081E82FF0E09F01220FA0
:1008F000331FE20FF31FE052FE4FCE51DF4F9881BE
:10090000C25ED0409F732081207CF22EF92AF082B3
:10091000D80111961C92119712961C926CE00E94BD
:10092000FE26BCE08B9FB001112440E050E09A010C
:10093000260F371FF901EE0FFF1F2E0F3F1FF90182
:10094000E052FE4F908196FD16C04F5F5F4F4C30D6
:10095000510569F781110FC010928000E2E0E09329
:1009600081001092850010928400B19A80916F00EE
:10097000826080936F00D801EC91F0E0CF01880F86
:10098000991FE80FF91FE052FE4F80818064808339
:1009900066E172E088E092E00E943220F8018081F6
:1009A00090E0FC01EE0FFF1F8E0F9F1FFC01E05235
:1009B000FE4F808186FF03C086E092E002C08EEE8B
:1009C00091E00E94562062E070E080E090E00E949A
:1009D0006A0B8091E0058F5F8093E0051092E1053E
:1009E000CE0101960E94761E88CD1092E1051092EC
:1009F000E0058091E105811133C0CE0101960E948E
:100A0000761E6E857F85CE0101960E94561C6889F0
:100A10007989CE0101960E94561C6A897B89CE0194
:100A200001960E94561C62EE71E088E092E00E94FE
:100A3000322087EC91E00E94562062E070E080E076
:100A400090E00E946A0B8091E0058F5F8093E00543
:100A50001092E105CE018F559F4F0E94761EC9CF9F
:100A60006BEB71E088E092E00E9432208FE991E028
:100A70000E94562062E070E080E090E00E946A0BE5
:100A800063E971E088E092E00E94322010926805EC
:100A90001092610510925E051092630589E695E05B
:100AA0009093600580935F050E94A40B8B01E090FA
:100AB0005F05F09060058AE0D70112968C9361E0A3
:100AC0000E94090B61E0F70182810E94BD0AFFB616
:100AD000F8948091D201811127C0EEE5F2E0849173
:100AE000E2E7F2E09491E82FF0E0EE0FFF1FEE5DF9
:100AF000FD4FA591B491EC91E92321F461E08AE0E6
:100B00000E94BD0A61E08AE00E94090B8CB58061F9
:100B10008CBD8CB580648CBD61E08DE00E94090BBA
:100B200061E08BE00E94090B8091D2018F5F80937E
:100B3000D201FFBEE0915F05F091600582E5808300
:100B400011828CE595E00E94740DE0915F05F091B3
:100B5000600561E082810E94BD0A4AE0F42E8FEFB9
:100B60000E94FA0BFA94F110FACFE0915F05F09130
:100B7000600560E082810E94BD0A20E030E0A901AA
:100B800060E08CE595E00E948D0D813049F00E9477
:100B9000A40B601B710B613D774078F380E25AC073
:100BA0002AEA31E040E050E068E08CE595E00E9400
:100BB0008D0D853011F481E00CC034E0F32E0E94DD
:100BC000FF0B80936205FA94F110F9CF8A3A59F439
:100BD00082E08093630580916305823069F0C12CC7
:100BE000D12C76010EC00E94A40B601B710B613DDD
:100BF0007740B0F285E22EC0C12CD12CE12C20E44C
:100C0000F22E20E030E0A90167E38CE595E00E9438
:100C10008D0DA701960169E28CE595E00E948D0D8E
:100C2000882349F00E94A40B601B710B613D774043
:100C300040F383E40FC080916305823001F520E02A
:100C400030E0A9016AE38CE595E00E948D0D8823D0
:100C500041F087E380935E058CE595E00E94060CE9
:100C600045C00E94FF0B807C803C19F483E0809398
:100C700063050E94FF0B0E94FF0B0E94FF0B8CE597
:100C800095E00E94060CE0915F05F091600580E51B
:100C9000808381E081838CE595E0909312038093BB
:100CA00011038CE395E00E94B71781E00E94FA1CC3
:100CB000882349F061E173E08CE395E00E949D1781
:100CC0008823A1F006C080E00E94FA1C8111F2CFB7
:100CD0000DC080913C05807749F08CE395E09093BE
:100CE00007028093060282E791E002C083E891E068
:100CF0000E94562062E070E080E090E00E946A0B63
:100D000019821A8221E048EC51E06CE375E0CE01D3
:100D100001960E94C01781117FC066E671E088E0ED
:100D200092E00E943220CF55DF4F1882C15AD04046
:100D3000CE55DF4F1882C25AD04088EC91E0C8529D
:100D4000DF4F99838883C85DD04019821A828091D1
:100D50003C05807709F456C00CE315E090E2F92ECB
:100D6000AE0148525F4FBE016F537F4FC852DF4FF5
:100D700088819981C85DD0400E940813882309F4B6
:100D800041C0C852DF4FE881F981C85DD040808101
:100D9000882351F121E0AE014F535F4FB801CE01DE
:100DA0008F559F4F0E948C0F81110BC0AE014F5386
:100DB0005F4FB801CE018F559F4F0E94961988232F
:100DC00009F1FE01EF55FF4FDE0111968F2D0190C5
:100DD0000D928A95E1F7CE018F559F4F0E94B7176C
:100DE0008E010F5F1F4FBCCFAE014F535F4FB80155
:100DF000CE018F559F4F0E949619882319F089E4E0
:100E000091E002C08FE291E00E94562062E070E023
:100E100080E090E00E946A0BCE52DF4F1982188268
:100E2000C25DD040CC52DF4F19821882C45DD040E1
:100E3000CA52DF4F19821882C65DD0402AE0AE0147
:100E40004F5F5F4F6FEF7FEFCB010E948923BE01A1
:100E50006F5F7F4FCE018E529F4F0E94B31F61E0A4
:100E600081E193E00E94C70161E081E193E00E948B
:100E7000341E8EE2F82ECA52DF4FC880D980C65D7C
:100E8000D0401A8219821C821B821E821D8248E079
:100E900050E06AEB71E0CE0101960E94881F8D81BF
:100EA0009E81C81AD90ACA52DF4F08811981C65DCE
:100EB000D0400C151D0528F49C2D8D2D6801092F9F
:100EC000182FCF53DF4F19821882C15CD040CD5309
:100ED000DF4F19821882C35CD040CB53DF4F198299
:100EE0001882C55CD04040E050E06FE371E0CE0175
:100EF0008F539F4F0E94881FCA52DF4F888199816C
:100F0000C65DD040C816D90620F58017910708F4B1
:100F10008C01CE52DF4FE881F981C25DD040E00FF5
:100F2000F11FE0801082CE52DF4F68817981C25D6F
:100F3000D0406C0D7D1DCE018F539F4F0E94B31F7B
:100F4000CE52DF4FE881F981C25DD040E00FF11F42
:100F5000E082CE52DF4F88819981C25DD0400097F8
:100F600049F1CF53DF4F68817981C15CD040611571
:100F70007105F1F0CC52DF4F48815981C45DD040FA
:100F8000CB53DF4F28813981C55CD04042175307CE
:100F900078F00E943629CB53DF4F88819981C55C58
:100FA000D040CA52DF4F99838883C65DD04032C09B
:100FB0000E94B927CF53DF4F88819981C15CD0400F
:100FC000CE52DF4F99838883C25DD040CD53DF4F2F
:100FD00088819981C35CD040CC52DF4F998388834C
:100FE000C45DD040CB53DF4F88819981C55CD04030
:100FF000CA52DF4F99838883C65DD040CF53DF4FFD
:1010000019821882C15CD040CD53DF4F19821882FB
:10101000C35CD040CB53DF4F19821882C55CD040EF
:10102000CF53DF4F88819981C15CD0400E94B9279E
:1010300089819A810E94B927F9821A82CA52DF4FA8
:1010400008811981C65DD0400F5F1F4FB801CE01E6
:101050008E529F4F0E94611F8823C9F0CE52DF4FEE
:1010600028813981C25DD040CA52DF4F8881998181
:10107000C65DD040BE016F5F7F4F820F931F0E94FD
:101080003629CA52DF4F19830883C65DD040CA5241
:10109000DF4F08811981C65DD0400D5F1F4FB80139
:1010A000CE018E529F4F0E94611F8823C1F0CE5205
:1010B000DF4F28813981C25DD040CA52DF4F88811D
:1010C0009981C65DD04063EC71E0820F931F0E944E
:1010D0003629CA52DF4F19830883C65DD040CA52F1
:1010E000DF4F08811981C65DD0400115110531F42B
:1010F000CF55DF4F1882C15AD04018C00C301105AF
:1011000010F00CE010E0CE52DF4F68817981C25DB3
:10111000D040A801CE018F559F4F0E943D29E1EAA2
:10112000F0E0EC0FFD1FE00FF11F108219821A8210
:1011300021E0AE014F555F4F6CE375E0CE010196A3
:101140000E94C017811197CE61E081E193E00E9477
:10115000C701CE52DF4F88819981C25DD0400E9485
:10116000B92763E271E088E092E00E9432206AE0F1
:1011700071E088E092E00E943220CE018F559F4FAF
:101180000E94212062E070E080E090E00E946A0B03
:1011900060E081E193E00E94341E811110C06EEF87
:1011A00070E088E092E00E94322087ED90E00E949B
:1011B000562062E070E080E090E00E946A0B60914F
:1011C00006027091070222E4AE014F555F4F81EF96
:1011D00092E00E94C017811117C06BEC70E088E0AC
:1011E00092E00E94322068EB70E088E092E00E947A
:1011F0003220CE018F559F4F0E94212062E070E087
:1012000080E090E00E946A0B6AE970E08DEE92E067
:101210000E9432208DEE92E00E941D206EE870E068
:1012200088E092E00E94322088E690E00E945620FA
:1012300062E070E080E090E00E946A0B0E94450B43
:1012400020E231EA47E050E00E94EF242F5F3F4F59
:101250004F4F5F4F60E271EA87E090E00E94DF2429
:101260006093D3017093D4018093D5019093D601FC
:10127000C951DF4FA881B981C75ED0400FB6F8943D
:10128000BEBF0FBEADBFC851DF4F0FB6F894DEBF73
:101290000FBECDBFDF91CF911F910F91FF90EF90C7
:1012A000DF90CF90BF90AF909F908F907F906F9086
:1012B0005F904F903F902F900895CF92DF92EF92E2
:1012C000FF920F931F93CF93DF936C017A018B01F1
:1012D000C0E0D0E0CE15DF0589F0D8016D918D0119
:1012E000D601ED91FC910190F081E02DC6010995A8
:1012F000892B11F47E0102C02196ECCFC701DF914A
:10130000CF911F910F91FF90EF90DF90CF900895B4
:10131000FC01538D448D252F30E0842F90E0821BFB
:10132000930B541710F0CF96089501970895FC0180
:10133000918D828D981761F0828DDF01A80FB11D0C
:101340005D968C91928D9F5F9F73928F90E0089530
:101350008FEF9FEF0895FC01918D828D981731F0EA
:10136000828DE80FF11D858D90E008958FEF9FEF3E
:101370000895FC01918D228D892F90E0805C9F4F14
:10138000821B91098F739927089588E092E00E944B
:10139000B90921E0892B09F420E0822F0895FC018E
:1013A000848DDF01A80FB11DA35ABF4F2C91848DEE
:1013B00090E001968F739927848FA689B7892C9323
:1013C000A089B1898C9180648C93938D848D9813BE
:1013D00006C00288F389E02D80818F7D8083089587
:1013E000EF92FF920F931F93CF93DF93EC0181E075
:1013F000888F9B8D8C8D981305C0E889F989808131
:1014000085FD24C0F62E0B8D10E00F5F1F4F0F736C
:101410001127E02E8C8DE8120CC00FB607FCFACF16
:10142000E889F989808185FFF5CFCE010E94CF0937
:10143000F1CF8B8DFE01E80FF11DE35AFF4FF082D3
:101440000B8FEA89FB898081806207C0EE89FF8962
:101450006083E889F98980818064808381E090E0FD
:10146000DF91CF911F910F91FF90EF900895CF934F
:10147000DF93EC01888D8823C9F0EA89FB8980819C
:1014800085FD05C0A889B9898C9186FD0FC00FB66E
:1014900007FCF5CF808185FFF2CFA889B9898C91AF
:1014A00085FFEDCFCE010E94CF09E7CFDF91CF912D
:1014B000089580E090E0892B29F00E94C5098111F0
:1014C0000C94000008950E941B291F920F920FB6E2
:1014D0000F9211242F933F934F935F936F937F93BA
:1014E0008F939F93AF93BF93EF93FF9388E092E026
:1014F0000E94CF09FF91EF91BF91AF919F918F9182
:101500007F916F915F914F913F912F910F900FBEFF
:101510000F901F9018951F920F920FB60F921124E3
:101520002F938F939F93EF93FF93E0911802F09185
:1015300019028081E0911E02F0911F0282FD12C00B
:101540009081809121028F5F8F73209122028217F8
:1015500051F0E0912102F0E0E85FFD4F958F80931C
:10156000210201C08081FF91EF919F918F912F9176
:101570000F900FBE0F901F90189590E0FC01EA5C51
:10158000FD4F3491FC01E859FD4F2491FC01EC5AC8
:10159000FD4FE491EE2309F43BC0332339F133309E
:1015A00091F038F43130A9F0323001F584B58F7DF7
:1015B00012C0373091F03830A1F03430B9F4809156
:1015C00080008F7D03C0809180008F7780938000A2
:1015D0000DC084B58F7784BD09C08091B0008F772E
:1015E00003C08091B0008F7D8093B000F0E0EE0FDB
:1015F000FF1FE45DFD4FA591B4918FB7F894EC9176
:10160000611103C020952E2301C02E2B2C938FBF78
:101610000895CF93DF9390E0FC01E859FD4F2491AA
:10162000FC01EC5AFD4F8491882361F190E0880F12
:10163000991FFC01EE5DFD4FC591D491FC01E45D65
:10164000FD4FA591B491611109C09FB7F8948881AD
:10165000209582238883EC912E230BC0623061F4A5
:101660009FB7F8943881822F809583238883EC91EB
:101670002E2B2C939FBF06C08FB7F894E8812E2B9A
:1016800028838FBFDF91CF9108953FB7F894809161
:10169000DC019091DD01A091DE01B091DF0126B562
:1016A000A89B05C02F3F19F00196A11DB11D3FBF9A
:1016B000BA2FA92F982F8827820F911DA11DB11D28
:1016C000BC01CD0142E0660F771F881F991F4A9524
:1016D000D1F708958F929F92AF92BF92CF92DF92EF
:1016E000EF92FF926B017C010E94450B4B015C0164
:1016F000C114D104E104F104F1F00E94450BDC01B6
:10170000CB0188199909AA09BB09883E9340A10514
:10171000B10570F321E0C21AD108E108F10888EEA2
:10172000880E83E0981EA11CB11CC114D104E104F1
:10173000F10419F7DDCFFF90EF90DF90CF90BF90CD
:10174000AF909F908F9008952FB7F8946091D80133
:101750007091D9018091DA019091DB012FBF08953A
:101760001F920F920FB60F9211242F933F938F93D6
:101770009F93AF93BF938091D8019091D901A0918D
:10178000DA01B091DB013091D70123E0230F2D372F
:1017900020F40196A11DB11D05C026E8230F029675
:1017A000A11DB11D2093D7018093D8019093D90139
:1017B000A093DA01B093DB018091DC019091DD010F
:1017C000A091DE01B091DF010196A11DB11D8093B2
:1017D000DC019093DD01A093DE01B093DF01BF91A6
:1017E000AF919F918F913F912F910F900FBE0F90CE
:1017F0001F9018958EBD0DB407FEFDCF08958FEF95
:101800008EBD0DB407FEFDCF8EB50895CF93DF9347
:10181000FC012581222361F0EC010380F481E02D9D
:1018200061E082810E94BD0A8FEF0E94FA0B1D8247
:10183000DF91CF9108951F93CF93DF93EC018C85B7
:101840008130A9F41C8620E030E0A9016CE0CE01D3
:101850000E948D0D882339F088E28A83CE010E9490
:10186000060C10E017C0CE010E94060C12C0823098
:1018700081F41C860E94E41C182F882321F08DEF30
:101880000E94FA0B02C086E58A83CE010E94060CF4
:1018900001C011E0812FDF91CF911F910895CF9268
:1018A000DF92EF92FF920F931F93CF93DF93EC01A0
:1018B0006A017B0189018C85813049F4888599858D
:1018C000AA85BB85481759076A077B0741F1E8815C
:1018D000F9810280F381E02DCE0109958823B9F0CA
:1018E0008F81A7019601833039F089E0220F331FE1
:1018F000441F551F8A95D1F762E1CE010E948D0DDC
:10190000882339F081E38A83CE010E94060C80E0AF
:1019100018C0C886D986EA86FB8681E08C87B80124
:10192000CE010E941D1F882391F3488559856A8541
:101930007B854F5F5F4F6F4F7F4F488759876A871F
:101940007B87DF91CF911F910F91FF90EF90DF90F8
:10195000CF9008950F931F93CF93DF938C01862F21
:10196000EA010E94FA0B88818EBD8981FE013296C0
:10197000DE5F0DB407FEFDCF8EBDEC17FD0711F045
:101980008191F7CF0DB407FEFDCF8FEF0E94FA0BC8
:101990008FEF0E94FA0B0E94FF0BF8018683982FAD
:1019A0009F71953039F087E58283C8010E94060C4B
:1019B00080E001C081E0DF91CF911F910F910895E8
:1019C000CF92DF92EF92FF920F931F93CF93DF930B
:1019D000EC016A017B0189018C85823049F488859C
:1019E0009985AA85BB8584179507A607B70719F1BE
:1019F000E881F9810280F381E02DCE0109958823E9
:101A0000C9F18F81A7019601833039F089E0220F57
:101A1000331F441F551F8A95D1F769E1CE010E94FB
:101A20008D0D882311F083E30BC0C886D986EA8622
:101A3000FB8682E08C870E94E41C811103C08AE54A
:101A40008A8307C0A8016CEFCE010E94AA0C811105
:101A500005C0CE010E94060C80E00CC04885598567
:101A60006A857B854F5F5F4F6F4F7F4F48875987F0
:101A70006A877B87DF91CF911F910F91FF90EF9045
:101A8000DF90CF9008950F931F93CF93DF93EC01D6
:101A900089018F81833039F089E0440F551F661F1B
:101AA000771F8A95D1F79A01AB0168E1CE010E94B8
:101AB0008D0D882319F082E38A830CC0A8016EEF94
:101AC000CE010E94AA0C182F882321F0CE010E947B
:101AD000060C04C0CE010E94060C10E0812FDF919D
:101AE000CF911F910F910895CF93DF93FC01258132
:101AF000211110C0EC010380F481E02D90818181DF
:101B00009CBD8DBDEB81FC8160E082810E94BD0A9D
:101B100081E08D83DF91CF910895EF92FF921F9323
:101B2000CF93DF9300D000D0CDB7DEB77C01162F66
:101B300029833A834B835C83FC018581811103C037
:101B4000C7010E94740D0E94E41C812F80640E94D2
:101B5000FA0B8C810E94FA0B8B810E94FA0B8A810E
:101B60000E94FA0B89810E94FA0B112311F087E879
:101B700001C085E90E94FA0B1C3011F40E94FF0B92
:101B800010E00E94FF0BF701868387FF04C01F3F10
:101B900011F01F5FF6CF0F900F900F900F90DF9115
:101BA000CF911F91FF90EF9008950F931F93CF93C4
:101BB000DF93EC0189018F81833039F089E0440F94
:101BC000551F661F771F8A95D1F79A01AB0161E116
:101BD000CE010E948D0D882319F080E38A830BC00B
:101BE000B801CE010E941D1F182F882321F0CE01BD
:101BF0000E94060C04C0CE010E94060C10E0812F4A
:101C0000DF91CF911F910F9108958F929F92AF9284
:101C1000BF92EF92FF921F93CF93DF93DC012C9141
:101C200020FF41C0EC017C01B7E0EB0EF11CE98123
:101C3000FA8180819181DC01ED91FC914B815C8185
:101C40006D817E810480F581E02D97010995182F23
:101C5000811102C010E028C0888181FD04C0888104
:101C60008E7F888321C0A981BA818D919C91119723
:101C7000FC01208131811C968D909D90AD90BC908F
:101C80001F974B815C816D817E81480D591D6A1DB6
:101C90007B1DD9011496ED91FC911597970109953B
:101CA0008111DDCFD7CF11E0812FDF91CF911F912F
:101CB000FF90EF90BF90AF909F908F900895CF923C
:101CC000DF92EF92FF921F93CF93DF93EC016A01B3
:101CD0007B01122F8B819C81AD81BE81841795077A
:101CE000A607B70719F1CE010E94050E811103C0A6
:101CF00080E090E021C012FF06C01882CB82DC8217
:101D0000ED82FE8213C0E981FA8180819181DC013C
:101D1000ED91FC910190F081E02D9E01295F3F4FF4
:101D2000B701A60109958111E8CFE2CF1370888130
:101D3000182B1883CE010796DF91CF911F91FF904A
:101D4000EF90DF90CF9008958F929F92AF92BF92C5
:101D5000CF92DF92EF92FF920F931F936A017B0164
:101D600048015901FC012581203251F544895589EA
:101D70006689778997018601E7E03695279517955B
:101D80000795EA95D1F7400F511F621F731F23E09B
:101D900084960E945F0E009711F480E02DC0E894B5
:101DA000C7F8DD24EE24FF24CC0CDD1CCC0CDD1C9C
:101DB000FC01EC0DFD1D80829182A282B3821BC0CA
:101DC000203159F7FC0144895589668977894D0D81
:101DD000511D611D711D23E084960E945F0E0097C6
:101DE000E1F2DD24EE24FF24CC0CDD1CFC01EC0D23
:101DF000FD1D9182808281E01F910F91FF90EF90F5
:101E0000DF90CF90BF90AF909F908F900895CF922A
:101E1000DF92EF92FF920F931F93CF93DF93EC012A
:101E20006A017B0189018D81803251F58C899D8900
:101E3000AE89BF89E7E07695679557954795EA950E
:101E4000D1F7480F591F6A1F7B1F22E0CE018496ED
:101E50000E945F0E009711F48FEF40C0E894C7F81E
:101E6000DD24EE24FF24CC0CDD1CCC0CDD1CFC019D
:101E7000EC0DFD1D80819181A281B381BF701DC0D9
:101E8000803151F74C895D896E897F894D0D511DD7
:101E9000611D711D22E0CE0184960E945F0E0097A5
:101EA000D9F2DD24EE24FF24CC0CDD1CFC01EC0D6A
:101EB000FD1D80819181A0E0B0E0488D598D6A8D33
:101EC0007B8D481759076A077B0738F0F801808334
:101ED0009183A283B38381E001C080E0DF91CF9141
:101EE0001F910F91FF90EF90DF90CF9008956115B3
:101EF000710579F0FB0101900020E9F73197AF01FE
:101F0000461B570BDC01ED91FC910280F381E02D23
:101F1000099480E090E008952F923F924F925F9253
:101F20006F927F928F929F92AF92BF92CF92DF92E9
:101F3000EF92FF920F931F93CF93DF93CDB7DEB74E
:101F40002D970FB6F894DEBF0FBECDBF6C017B019D
:101F5000FA0181809280DB018C91807709F444C082
:101F6000D6018C91811140C08081837009F422C315
:101F7000C4010C966DE070E00E940A27552453942A
:101F8000560E2D835F0140E050E0BA01C7010E9468
:101F9000D2151C861D861E82412C612C712C1B863D
:101FA0001501B6E02B0E311CF70180899189A289B9
:101FB000B3899C01AD0195E05695479537952795D6
:101FC0009A95D1F72F83388749875A870F811885CB
:101FD00061E0C7010E949616009741F4D70111965F
:101FE0008C91882309F4A8C080E0F9C2FC0120810B
:101FF000253E11F021110CC0611004C03F813C87C7
:1020000038853D87651408F46394211105C094C098
:10201000651408F4D2C202C0253EF1F12E32E1F17E
:10202000DC011B963C911B973F3009F057C07110A3
:1020300009C026FFB9CF2F71722E1D962C912E83C9
:10204000472C09C04A94241127C0DC011D962C910D
:102050003E81321321C0442D50E0415051096DE0C2
:10206000649F9001659F300D112428153905A0F457
:10207000FC0170E0753018F48181928107C07B30DB
:1020800018F48481958102C08681978128153905CD
:1020900029F4892B09F488CF712C86CF8F3F9105C5
:1020A00009F0D0F74FEB480F4A3110F0682F02C00B
:1020B00060E2680FA9014F5F5F4FD50113968D91C4
:1020C0009C911497DC01A20FB31F8C919FEB980F8A
:1020D0009A3108F4805E6813DFCF71C233FDDCCF24
:1020E0007720B9F0B1E04B127FCFFC01AC01455F26
:1020F0005F4F90E060E8969F900111249695922B97
:102100002191920FE417F507A9F72E8192136CCF56
:102110000FC04BE050E0B1010E942029892B09F04B
:1021200043CFD5018C9180FF03C021E02B873CCFAA
:10213000BD81B7FF6FC158CF8D818274823409F0A1
:1021400053CF662051F00C851D8507C060E0C701A4
:102150000E949616892B21F063946514B8F315C07C
:10216000F7018181882389F03FCFC7010E940E19B2
:10217000882309F439CFD7011696ED91FC91179772
:102180008281823020F430E1630E651470F32B8578
:10219000222309F473C0D50115964C9082E0682E75
:1021A000712C1501B6E02B0E311C43C0F3E0F41581
:1021B00010F4A3E04A2E34E0340D282F2F70432F63
:1021C00050E02A3008F053C0205DF501E40FF51F00
:1021D0002683F4E096958795FA95E1F731504316FA
:1021E00060F3F501E40DF11D2EE7268340E050E099
:1021F000BA01C7010E94D21561E0C7010E9496167C
:102200000097B9F1FC0120812223C1F1238523FD30
:10221000F3CF4BE050E0BC01C1010E942029892B83
:1022200059F7BFEF6B1A7B0AE4E66E16710409F4E6
:10223000DBCEF50141815281C301840F951F0380DC
:10224000F481E02D4E0F5F1FE417F50709F4AECFC0
:102250009C01B5E0220F331FBA95E1F7820F931F5F
:102260002191022E000C330B82279327EDCF295C9E
:10227000ACCFD70111968C918111B6CEA80160E048
:1022800070E0E5E0440F551F661F771FEA95D1F710
:10229000C7010E94D215882309F4A6CE77247A9428
:1022A000750C172D5FE0652E1501F6E02F0E311C21
:1022B000250121E1420E511C0DE0112309F463C0F8
:1022C00060E0C7010E949616FC01892B09F48CCEB0
:1022D000D70116962D913C911797D90194968C9120
:1022E0009497816094968C93612F171101C060645C
:1022F000608363861486D10120E030E8239FC0010B
:1023000011242695282B9D91290FA415B505A9F711
:102310002587138E128ED50113964D915C911497DB
:102320006F7170E061507109069F9001079F300D39
:10233000112460E02815390540F4DA01A20FB31F1B
:102340008C91082E000C990B0AC081E090E02815B2
:10235000390511F480E090E09195819591096530FF
:1023600018F49283818307C06B3018F495838483BB
:1023700002C0978386836F5F2F5F3F4F32966D3029
:10238000C9F611509ACFF701008911892289338942
:1023900045E036952795179507954A95D1F760E062
:1023A000C7010E949616009709F41ECE20E2DC01B8
:1023B0001D922A95E9F7F50136962BE0DC01019094
:1023C0000D922A95E1F7F50120812871DC011C9618
:1023D0002C931C9721E238E251963C932E93509710
:1023E00040E058E01F965C934E931E9753963C93A3
:1023F0002E93529759963C932E93589757965C93E9
:102400004E935697D7011696ED91FC91179784A19C
:10241000816084A380E2F60111928A95E9F7D701E1
:102420001696AD90BC901797F601B782A6821583D9
:1024300004835C968D919D910D90BC91A02D808719
:102440009187A287B3870F701127F501BB9695E09E
:10245000000F111F9A95E1F7E00FF11F838583FFAD
:1024600003C0D6011C92C0CDD501A00FB11FD696D6
:102470008C918771D6018C939385987111F4886043
:102480008C93F60173828D81827319F08081817142
:1024900041F78D818F70D60112968C93F50187A13B
:1024A00090A5A1A5B2A5F601848B958BA68BB78BC1
:1024B0000A0D1B1DF801FF9640805180612C712C84
:1024C000D20199278827369640805180612C712C43
:1024D000482A592A6A2A7B2AFD81F4FF48C0411400
:1024E00051046104710409F471C09E012F5F3F4FD4
:1024F000B301A201C5010E94070FF82E87FDB1CFDD
:1025000000E010E09801B301A201C5010E94A40EF1
:10251000882309F4A6CFD50190964D915D916D91D8
:102520007C91939777FD09C04F5F5F4F6F4F7F4F4F
:10253000F50140A351A362A373A3D50118964D9151
:102540005D916D917C911B97441655066606770642
:1025500028F4F501408651866286738649805A8048
:102560006B807C80F110C1CF811130C07ACFD60151
:102570005C964D925D926D927C925F97F801E95B5B
:10258000FF4F80819181A281B381F601808F918F6D
:10259000A28FB38FFD81F5FF21C0D60158964D91D2
:1025A0005D916D917C915B97C6010E94D21581115E
:1025B00015C057CF55245394E4CC612C2FCD7F5FA9
:1025C00032967D3009F4F0CC9A0154CDD6011296A2
:1025D0008C911297806812968C93DCCF81E02D96B7
:1025E0000FB6F894DEBF0FBECDBFDF91CF911F9124
:1025F0000F91FF90EF90DF90CF90BF90AF909F90A2
:102600008F907F906F905F904F903F902F900895A4
:10261000AF92BF92CF92DF92EF92FF920F931F93F0
:10262000CF93DF93FB01DC0101962C912032D9F38B
:10263000B483A3839D0189010A1B1B0BE9018991C6
:102640009E018823C1F08F32B1F08C3511F480E007
:10265000F2C0982F977F9232D1F38A33C1F3982F2B
:102660009F7B9C33A1F392EC980F923080F38052C1
:102670008F3508F3ECCF0A0F1B1FC801682F392FC5
:10268000EC012991CE012032C9F32F32B9F3EA01CE
:102690006883398398012A1B3B0B0A171B0741F0FB
:1026A000E8018A918E018E32A9F3803299F303C03A
:1026B000A12CB12C05C059012F3F310509F03CF682
:1026C000B282A182CF0106969F012F5E3F4F40E26A
:1026D000EC014993CE01C217D307D1F7CD01AC016C
:1026E0004A1B5B0BEC013991CE013E32C1F3303213
:1026F000B1F39A0191E0452B09F090E0A50141501A
:10270000510938F0BD01640F751FEB0188818E32CD
:10271000B1F717E060E000E070E088E0E82E2A15ED
:102720003B050CF06CC06D01C20ED31EE601888122
:10273000803209F45BC08E3229F44217530709F046
:1027400055C004C08232E1F08C37D1F0D6EDFD2EB9
:10275000F80ED5E0DF1510F08D3291F4C6ECFC2EAA
:10276000F80EC5E0CF1560F4D5EAFD2EF80ED2E0E4
:10277000DF1530F4CFEDFC2EF80ECDE5CF1520F4AB
:102780002417350781F438C024173507A9F1161727
:1027900018F1F82ECFE9DC2ED80ED9E1DD1548F07E
:1027A00080527E290CC01617B8F090E08FE5CFE577
:1027B000FC2ECFEBFC0ED9E1DF1508F00E29FF242B
:1027C000F394F60E6F01C60ED11CE6018E83D6E09F
:1027D000DF1570F0F5820CC01A3081F042175307F4
:1027E0006CF09A011AE068E0D0E1ED2E90E001C0B3
:1027F0006F2D2F5F3F4F93CF1A30B9F490E0868151
:10280000803209F424CF992329F0072309F072E0DC
:10281000708309C081E080838581E80FF11D8EE718
:10282000868381E3878381E006C09A011AE068E02D
:10283000D0E1ED2EDECFDF91CF911F910F91FF9070
:10284000EF90DF90CF90BF90AF9008952F923F927E
:102850004F925F926F927F928F929F92AF92BF92B0
:10286000CF92DF92EF92FF920F931F93CF93DF935C
:10287000EC015B014A01888183FF0EC08A8181FFE0
:102880000BC082FF0FC0488D598D6A8D7B8DCE01A4
:102890000E94D215811106C08981816089838FEFE2
:1028A0009FEF0DC1A40160E070E088899989AA8931
:1028B000BB8980959095A095B09584179507A6073C
:1028C000B70750F364011E018CE0280E311C088903
:1028D00019892A893B89C114D10409F4D5C08E8194
:1028E0009F81B901A80129E076956795579547958D
:1028F0002A95D1F7DC011396FC90F4221170F110A7
:1029000034C00115110589F54C855D856E857F857F
:10291000411551056105710569F091010E94070F8C
:1029200087FDBACF811121C0CE010E9445188111C7
:102930001CC0B2CF8C8D9D8DAE8DBF8D0097A10533
:10294000B10579F4CE010E944518882309F4A4CF7B
:102950008C859D85AE85BF858C8F9D8FAE8FBF8FFB
:1029600004C08C879D87AE87BF87EE81FF814C8531
:102970005D856E857F85425051096109710904802A
:1029800004C0440F551F661F771F0A94D2F7808931
:102990009189A289B389480F591F6A1F7B1F4F0D68
:1029A000511D611D711D0115110521F4C114B2E005
:1029B000DB06B0F580E092E0801B910B76018C1570
:1029C0009D0508F47C010115110579F448885988A2
:1029D0006A887B88888D998DAA8DBB8D481659068B
:1029E0006A067B0610F025E001C021E0CF01849645
:1029F0000E945F0E009709F44FCFA701B501800F29
:102A0000911F0E942D290E0D1F1D0115124059F511
:102A10008E819F8184960E94050E811124C03CCF37
:102A200087A190A5A1A5B2A584179507A607B7070A
:102A300041F414A28FEF9FEFDC0187A390A7A1A719
:102A4000B2A7EE81FF8180819181DC01ED91FC9143
:102A50000480F581E02D95010995882309F41CCFA8
:102A6000E12C82E0F82E88899989AA89BB898E0D8C
:102A70009F1DA11DB11D888B998BAA8BBB8BAE0CA2
:102A8000BF1CCE18DF0823CF888D998DAA8DBB8DF2
:102A900080179107A207B30738F4088F198F2A8F80
:102AA0003B8F8A8180688A838A8183FD02C0C4014A
:102AB00006C0CE010E9472158111F9CFEDCEDF91D3
:102AC000CF911F910F91FF90EF90DF90CF90BF902B
:102AD000AF909F908F907F906F905F904F903F90BE
:102AE0002F9008950F931F93CF93DF93DC012C91C8
:102AF000211102C081E051C0EC018A8187FF35C0FD
:102B00004C895D896E897F898E819F8121E08496C1
:102B10000E945F0E0097E9F1EC81FD81EF70FF27C5
:102B200025E0EE0FFF1F2A95E1F7DC01AE0FBF1F76
:102B30002C91253E71F1288123FF0AC0488D598DC3
:102B40006A8D7B8D5C964D935D936D937C935F97BF
:102B50004C8D5D8D6E8D7F8DE80FF91F538F428FE9
:102B6000758B648B8A818F778A830E811F81C80160
:102B700084960E94050E882361F0F801808191817E
:102B8000DC01ED91FC910280F381E02D099581112A
:102B9000B1CF89818160898380E0DF91CF911F91DE
:102BA0000F9108954F925F926F927F928F929F92B2
:102BB000AF92BF92CF92DF92EF92FF920F931F934B
:102BC000CF93DF93EC014A015B014C845D846E84FA
:102BD0007F84A881AA2309F491C0488959896A8908
:102BE0007B8984169506A606B70609F48DC0811464
:102BF0009104A104B10429F41C861D861E861F863B
:102C000078C0A3FF0BC0088D198D2A8D3B8D081548
:102C100019052A053B0508F471C014C0A5FF12C0B0
:102C2000EE81FF818681978125E0880F991F2A9583
:102C3000E1F7A0E0B0E088159905AA05BB0508F406
:102C40005DC057C0EE81FF81848190E009968A01C2
:102C50009B010150110921093109082E04C0369544
:102C60002795179507950A94D2F775016401B1E08D
:102C7000CB1AD108E108F10804C0F694E794D79480
:102C8000C7948A95D2F7C016D106E206F30620F063
:102C9000452B462B472B81F4A6FF05C0848D958DCF
:102CA000A68DB78D04C08C8D9D8DAE8DBF8D8C870C
:102CB0009D87AE87BF8704C0C01AD10AE20AF30A13
:102CC0008E01045F1F4FC114D104E104F10489F0A7
:102CD0004C855D856E857F8598018E819F810E94E0
:102CE000070F91E0C91AD108E108F10818165CF342
:102CF00005C0888A998AAA8ABB8A06C04C865D86E6
:102D00006E867F8680E001C081E0DF91CF911F91C8
:102D10000F91FF90EF90DF90CF90BF90AF909F907A
:102D20008F907F906F905F904F900895CF92DF9239
:102D3000EF92FF920F931F93CF93DF93EC01862FB7
:102D4000488959896A897B898A019B01E5E0369522
:102D5000279517950795EA95D1F7102F1F7011F059
:102D6000811151C098819923D9F18A8180FF38C09F
:102D700093FF63C0C88CD98CEA8CFB8CC41AD50A2B
:102D8000E60AF70A22E0C216D104E104F10408F4CD
:102D90004EC09A01317095FD61C0EE81FF810381C3
:102DA0006A017B0189E0F694E794D794C7948A95E9
:102DB000D1F70C21232B09F07EC001117CC0452BDB
:102DC000462B472B09F45CC04C855D856E857F855D
:102DD0009E01245F3F4FCF010E94070F87FF60C015
:102DE0008981826089838FEF9FEF0197E9F4888959
:102DF0009989AA89BB894F96A11DB11D888B998B92
:102E0000AA8BBB8B08C0405E5F4F6F4F7F4F488BD4
:102E1000598B6A8B7B8B8E819F818B9620E2129FD0
:102E2000800D911D112480C080E090E07DC0CD28F0
:102E3000CE28CF2809F0ADCF0EC095FFAACFEE81E6
:102E4000FF818681978125E0880F991F2A95E1F7F8
:102E50008417950719F480E090E061C099E07695B9
:102E60006795579547959A95D1F7EE81FF81848DA7
:102E7000958DA68DB78D480F591F6A1F7B1F39C0CE
:102E800096FF05C0848D958DA68DB78D04C08C8D61
:102E90009D8DAE8DBF8D8C879D87AE87BF870BC004
:102EA000811109C08881807709F49ACF81E090E090
:102EB00021E030E036C0EE81FF814C855D856E8576
:102EC0007F854250510961097109048004C0440F93
:102ED000551F661F771F0A94D2F780899189A289AE
:102EE000B389480F591F6A1F7B1F400F511D611D79
:102EF000711D8E819F8120E084960E945F0E892B38
:102F000009F46ECF88899989AA89BB890196A11D88
:102F1000B11D888B998BAA8BBB8B81E090E020E060
:102F200030E0821B930B61CFDF91CF911F910F9106
:102F3000FF90EF90DF90CF900895FC018081811188
:102F400014C080E2DF01982F1D929A95E9F77783EC
:102F50006683DB0115969C91903119F0903229F42B
:102F600080E4808381E08283089580E00895CF9398
:102F7000DF93EC010E9472151882DF91CF910895C2
:102F8000CF92DF92EF92FF920F931F93CF93DF9335
:102F9000CDB7DEB7E3970FB6F894DEBF0FBECDBF57
:102FA0007C018B015BAB4AABD22E19821A82FC01E9
:102FB0008081882311F080E059C0FB0180818077F7
:102FC000D1F3EAA9FBA980818F32D9F4EAA9FBA940
:102FD00080818F3221F43196FBABEAABF7CFF80159
:102FE00066817781811104C0C7010E949D173EC090
:102FF000CE0101960E949D178823E9F28E010F5F92
:103000001F4F80E2C82EAE014E5C5F4FBE016F5D68
:103010007F4F8AA99BA90E940813882361F2EAA91D
:10302000FBA980818823D1F021E0AE014F5D5F4F85
:10303000B801C7010E948C0F882309F4BCCFF701A7
:10304000DE0111968C2D01900D928A95E1F7C70152
:103050000E94B7178E010F5F1F4FD5CF2D2DAE01E8
:103060004F5D5F4FB801C7010E948C0FE3960FB60A
:10307000F894DEBF0FBECDBFDF91CF911F910F91AE
:10308000FF90EF90DF90CF9008953F924F925F9224
:103090006F927F928F929F92AF92BF92CF92DF9268
:1030A000EF92FF920F931F93CF93DF93CDB7DEB7CD
:1030B00028970FB6F894DEBF0FBECDBF4C01DC01E0
:1030C00012968C911297806812968C9312971C9688
:1030D0004D905D906D907C901F971696AD90BC9032
:1030E0001797411451046104710461F4D5011896D5
:1030F0008D919D910D90BC91A02D8D839E83AF836A
:10310000B88704C04D825E826F827886CD80DE8073
:10311000EF80F884BFEFCB1ADB0AEB0AFB0AF5015C
:10312000808D918DA28DB38D8C159D05AE05BF054B
:1031300028F482E0C82ED12CE12CF12C9E012F5FC7
:103140003F4FB701A601C5010E94070F87FD20C0B0
:10315000882341F089819A81AB81BC81892B8A2B9C
:103160008B2B51F08D819E81AF81B885C816D90611
:10317000EA06FB0679F60CC00FEF1FEF2FEF3FE0DA
:10318000B701A601C5010E94A40E382E811102C00C
:10319000312C2BC0411451046104710451F097018A
:1031A0008601B301A201C5010E94A40E811108C0CD
:1031B000EFCFD5011896CD92DD92ED92FC921B9740
:1031C000F50180A191A1A2A1B3A1B7FD07C001970C
:1031D000A109B10980A391A3A2A3B3A3D4011C9612
:1031E000CD92DD92ED92FC921F97832D28960FB61B
:1031F000F894DEBF0FBECDBFDF91CF911F910F912D
:10320000FF90EF90DF90CF90BF90AF909F908F9006
:103210007F906F905F904F903F9008958F929F9214
:10322000AF92BF92EF92FF920F931F93CF93DF93D2
:10323000EC01888185FF02C010E06CC08889998903
:10324000AA89BB8981159E4FAF41B105A8F7CE0170
:103250000E944518182F882379F3EE81FF814C8551
:103260005D856E857F854250510961097109048031
:1032700004C0440F551F661F771F0A94D2F7808839
:103280009188A288B388840E951EA61EB71E25E0DD
:10329000B501A401CF0184960E945F0E7C01892BA9
:1032A00059F280E092E0D701FC011D923197E9F7D5
:1032B00001E0EE81FF8192810917A8F4808191815C
:1032C000DC01ED91FC910480F581E02D9701B501C1
:1032D000A401400F511D611D711D0995882309F43A
:1032E000ABCF0F5FE6CF492F50E060E070E089E0A0
:1032F000440F551F661F771F8A95D1F788899989D2
:10330000AA89BB89480F591F6A1F7B1F488B598B9D
:103310006A8B7B8B812FDF91CF911F910F91FF9053
:10332000EF90BF90AF909F908F900895AF92BF9213
:10333000CF92DF92EF92FF920F931F93CF93DF9381
:10334000CDB7DEB7A0970FB6F894DEBF0FBECDBFE6
:103350008C01DB019C91907709F4CEC07B0123ECBA
:10336000C8010E948C0F882309F4C6C081E0F801CF
:10337000828350E1D52ED082C8010E940E19882385
:1033800009F4BAC0F80184859585A685B785848F30
:10339000958FA68FB78F40E050E0BA01C8010E9418
:1033A000D215C8010E947215882309F4A5C0D8015E
:1033B00054964D915D916D917C91579716968D9194
:1033C0009C91179721E084960E945F0E009709F464
:1033D00093C0F801248135812F70332745E0220FF7
:1033E000331F4A95E1F7820F931FDC011B96DC9295
:1033F00020E2FC01DE01119601900D922A95E1F781
:10340000FC01A488B588C28CD38C8EE28983FE012E
:103410003296CE010C9620E22193E817F907E1F7E6
:10342000D8011696ED91FC9117975C964D915D91A0
:103430006D917C915F974250510961097109048037
:1034400004C0440F551F661F771F0A94D2F7808966
:103450009189A289B389480F591F6A1F7B1F21E0F8
:10346000CF0184960E945F0E009709F445C0BE8A82
:10347000AD8ADC8ECB8E20E2FE013196DC0101901C
:103480000D922A95E1F72EE22A83F701448D558D9E
:10349000668D778D7E8B6D8B5C8F4B8F20E2FE016E
:1034A0003196DC01909601900D922A95E1F7D801B2
:1034B00016960D911C911797C80184960E94050ECF
:1034C0008823D1F0F80180819181DC01ED91FC919C
:1034D0000280F381E02DA0960FB6F894DEBF0FBEF8
:1034E000CDBFDF91CF911F910F91FF90EF90DF90B3
:1034F000CF90BF90AF90099480E0A0960FB6F8945B
:10350000DEBF0FBECDBFDF91CF911F910F91FF9016
:10351000EF90DF90CF90BF90AF9008958F929F92E1
:10352000AF92BF92CF92DF92EF92FF92FC01828125
:1035300028E532E06901C81AD10887FDD394CC0C84
:10354000DD1CCC0CDD1C0D2C000CEE08FF0881816D
:1035500028E830E04901881A910887FD9394880C87
:10356000991C880C991C092C000CAA08BB088081A6
:103570008F3FC1F090E0FC01EE0FFF1F8E0F9F1FE9
:10358000FC01E052FE4F2181328143E0220F331FC4
:103590004A95E1F754E0369527955A95E1F72E5F65
:1035A0003F4F02C020E030E02F5F3F4FC901330F93
:1035B000AA0BBB0B9C01AD01281939094A095B090B
:1035C000A4EBB0E00E943025A70196012819390923
:1035D0004A095B090E941125C901FF90EF90DF9015
:1035E000CF90BF90AF909F908F900895CF92DF9231
:1035F000EF92FF92CF93DF93EC01603282E0780785
:103600000CF03DC077FD06C0653B71052CF064EB06
:1036100070E002C060E070E0898128E830E0690174
:10362000C81AD10887FDD394CC0CDD1CCC0CDD1C52
:103630000D2C000CEE08FF088A8128E532E0281BDB
:10364000310987FD3395220F331F220F331FC90124
:10365000330FAA0BBB0B9C01AD012C193D094E0980
:103660005F09DB010E943B2524EB30E040E050E0A5
:103670000E941125C20ED31EE41EF51EB6018881DC
:103680008C3080F5998148E850E0491B510997FD3D
:103690005395440F551F440F551F6417750784F049
:1036A0009A8128E532E0291B310997FD3395220FD5
:1036B000331F220F331FAB01261737070CF4A90164
:1036C00042505109440F551F2FB7F89490E0FC0168
:1036D000EE0FFF1F8E0F9F1FFC01E052FE4F528323
:1036E00041832FBFDF91CF91FF90EF90DF90CF907C
:1036F0000895FC01909105029C30A0F481E0890FAF
:10370000809305029083892F90E0FC01EE0FFF1F4C
:103710008E0F9F1FFC01E052FE4F88EB9BE09283CF
:10372000818308958FEF808308951F920F920FB6C3
:103730000F9211242F933F934F935F936F937F9337
:103740008F939F93AF93BF93EF93FF938091040266
:1037500087FF05C010928500109284001BC0209145
:103760000402022E000C330B8091050290E0281712
:10377000390784F480910402082E000C990BFC0197
:10378000EE0FFF1F8E0F9F1FFC01E052FE4F808146
:1037900086FD15C0809104028F5F80930402209102
:1037A0000402022E000C330B8091050290E02817D2
:1037B0003907C4F4809104028C3064F113C0809105
:1037C0000402082E000C990BFC01EE0FFF1F8E0F58
:1037D0009F1FFC01E052FE4F808160E08F730E94CA
:1037E000BD0AD8CF809184009091850004968034E2
:1037F0009C4918F480E49CE905C080918400909174
:103800008500049690938900809388008FEF8093C1
:1038100004023BC020918400309185008091040215
:10382000082E000C990BFC01EE0FFF1F8E0F9F1F3F
:10383000FC01E052FE4F81819281820F931F909391
:1038400089008093880080910402082E000C990B57
:10385000FC01EE0FFF1F8E0F9F1FFC01E052FE4F79
:10386000808186FF12C080910402082E000C990B03
:10387000FC01EE0FFF1F8E0F9F1FFC01E052FE4F59
:10388000808161E08F730E94BD0AFF91EF91BF912B
:10389000AF919F918F917F916F915F914F913F91E8
:1038A0002F910F900FBE0F901F901895CF92DF921F
:1038B000EF92FF920F931F93CF93DF937C018B01C5
:1038C0000E948E1A6C010197833B910518F4E60162
:1038D00020E02EC0B801C701DF91CF911F910F9159
:1038E000FF90EF90DF90CF900C94B401C8018C1B37
:1038F0009D0B211121C021E030E01816190614F0AB
:1039000020E030E0892F881F8827881F281B310975
:10391000C20FD31FCC16DD0629F1BE01C7010E94DC
:10392000B40169E170E080E090E00E946A0B21E060
:10393000C017D107D9F616C09C012E5F3F4F253026
:103940003105C8F221E030E01816190614F020E025
:1039500030E0892F881F8827881F281B3109220FF4
:10396000331FD6CFDF91CF911F910F91FF90EF9032
:10397000DF90CF9008950895E8E0F2E0A089B18942
:1039800082E08C93A485B5851C92A685B7858FECC3
:103990008C93108EA489B58986E08C93A289B38913
:1039A0008C9180618C93A289B3898C9188608C936F
:1039B000A289B3898C9180688C930288F389E02D69
:1039C00080818F7D80830895CF93DF930E94A40B25
:1039D000EB010E94FF0B8F3F49F00E94A40B6C1B70
:1039E0007D0B69357240A8F380E001C081E0DF9172
:1039F000CF9108958F929F92AF92BF92CF92DF9214
:103A0000EF92FF92CF93C82F1092160381E090E0BF
:103A1000A0E0B0E08093190390931A03A0931B03D6
:103A2000B0931C0381E193E09093370380933603B6
:103A3000109235038FEF9FEFDC0180933803909352
:103A40003903A0933A03B0933B03CC2331F1C53043
:103A500008F0E7C020E040E050E0BA0185E393E0E1
:103A60000E945F0E009709F4DCC020E1C29F800D28
:103A7000911D11244097FC01E254FE4F20812F77C5
:103A800009F0CFC0389680809180A280B3808114E5
:103A90009104A104B10421F4C4C0812C912C5401DF
:103AA00020E0B501A40185E393E00E945F0EFC01D4
:103AB000892B09F4B6C0838594858115924009F05D
:103AC000B0C08089823009F0ACC046855785411569
:103AD000510509F4A6C02585209313038FEF820FAB
:103AE0008093140380E091E0291751F031E0380F02
:103AF000393019F48093150394C0990F832FF4CFB4
:103B000080931503C688D788C114D10419F0E12C1D
:103B1000F12C04C0C4A0D5A0E6A0F7A0C0921D035C
:103B2000D0921E03E0921F03F0922003D501C4013E
:103B3000840F951FA11DB11D80932503909326032B
:103B4000A0932703B0932803218932893093180367
:103B500020931703CC0CDD1CEE1CFF1CC80ED91ED5
:103B6000EA1EFB1EC0922D03D0922E03E0922F037B
:103B7000F092300355E0220F331F5A95E1F72150A0
:103B80003E4F232F33272695C20ED31EE11CF11C76
:103B9000C0922103D0922203E0922303F0922403E7
:103BA000238934892115310521F0C901A0E0B0E055
:103BB00004C080A191A1A2A1B3A1B501A4014C1997
:103BC0005D096E097F09480F591F6A1F7B1F00900E
:103BD000150304C076956795579547950A94D2F7D3
:103BE000DB01CA010196A11DB11D809329039093A9
:103BF0002A03A0932B03B0932C038FEF9FEFDC01DC
:103C00008093310390933203A0933303B093340332
:103C1000453F8FE058076105710528F48CE08093DB
:103C2000160380E017C0453F5F4F6105710510F432
:103C300080E10DC084A595A5A6A5B7A580932D0309
:103C400090932E03A0932F03B093300380E28093D0
:103C5000160381E0CF91FF90EF90DF90CF90BF905F
:103C6000AF909F908F900895FF920F931F93CF93E3
:103C7000DF93CDB7DEB7A0970FB6F894DEBF0FBEC7
:103C8000CDBFF62E19821A828C01055D1D4F21E0F1
:103C900047EC51E0B801CE0101960E94C01788237D
:103CA000C9F099819077A9F090E2FE013196D80190
:103CB00001900D929A95E1F7FF2061F090913C05FB
:103CC000907741F02CE335E0309307022093060211
:103CD00001C080E0A0960FB6F894DEBF0FBECDBF46
:103CE000DF91CF911F910F91FF900895CF93DF93B4
:103CF000EC018091E005813069F040F0823071F094
:103D00008330A9F48CE1E4ECF5E00BC08CE1E0E752
:103D1000F5E007C08CE1ECE8F5E003C08CE1E8EAEF
:103D2000F5E0DE0101900D928A95E1F708C010924E
:103D3000E00581E08093E105CE010E94761ECE0170
:103D4000DF91CF910895E091ED02F091EE020190A4
:103D5000F081E02D682F8DEE92E009942F923F9232
:103D60004F925F926F927F928F929F92AF92BF928B
:103D7000CF92DF92EF92FF920F931F93CF93DF9337
:103D800000D000D0CDB7DEB78C011801C12CD12CEA
:103D90007601C394812C912C54018394D1014D90D0
:103DA0005D906D907D901D018D919D910D90BC91C8
:103DB000A02D89839A83AB83BC839C01AD01C30191
:103DC000B2010E949E26181684F4F10140825182AD
:103DD00062827382349789819A81AB81BC818083AE
:103DE0009183A283B383460157019FEFC91AD90A71
:103DF000E90AF90AA8E2CA16D104E104F10471F64D
:103E00008A9489288A288B2809F0BFCF0F900F90B9
:103E10000F900F90DF91CF911F910F91FF90EF9036
:103E2000DF90CF90BF90AF909F908F907F906F90DA
:103E30005F904F903F902F900895EF92FF920F93D5
:103E40001F93CF93DF93EC017B010E94A40B8B01A6
:103E50000E94FF0B8E838F3F49F40E94A40B601BCE
:103E6000710B6D327140A0F385E503C08E3F39F0D0
:103E700080E58A83CE010E94060C80E01BC08FEF94
:103E80008EBDF701D701A150BE4F9FEF0DB407FEC5
:103E9000FDCF8EB59EBD8193EA17FB07B9F70DB430
:103EA00007FEFDCF8EB58C931E820E94FF0B0E94F1
:103EB000FF0B81E0DF91CF911F910F91FF90EF9069
:103EC00008950F931F93CF93DF93EC01888199811D
:103ED000009729F02A813B812617370788F48B0148
:103EE0006F5F7F4F0E945128009761F0998388830C
:103EF0001B830A832C813D81232B11F4FC0110824A
:103F000081E001C080E0DF91CF911F910F91089572
:103F1000EF92FF920F931F93CF93DF93EC017B01FE
:103F20008A01BA010E94611F2881398181110DC067
:103F30002115310519F0C9010E94B927198218828B
:103F40001D821C821B821A8206C01D830C83B7014E
:103F5000C9010E943629CE01DF91CF911F910F91A7
:103F6000FF90EF900895CF93DF93EC0161157105F9
:103F700059F0FB0101900020E9F73197AF01461B92
:103F8000570B0E94881F0CC088819981009711F0FF
:103F90000E94B927198218821D821C821B821A82F4
:103FA000CE01DF91CF9108954F925F926F927F92F1
:103FB000EF92FF920F931F93CF93DF93CDB7DEB7AE
:103FC000A1970FB6F894DEBF0FBECDBF7C01FA01FA
:103FD000CB0119A2223008F42AE08E010F5D1F4F99
:103FE000422E512C612C712CBF01A30192010E9421
:103FF000EF24F901CA01015011096A3014F4605D1F
:1040000001C0695CD8016C93232B242B252B61F70D
:10401000B801C7010E94770FA1960FB6F894DEBFD2
:104020000FBECDBFDF91CF911F910F91FF90EF9009
:104030007F906F905F904F9008956DE371E00C94C6
:10404000770FCF93DF93BC0188E092E00E94770F57
:10405000EC0188E092E00E941D208C0F9D1FDF91F3
:10406000CF910895EF92FF920F931F93CF93DF9319
:104070008C017B01C0E0D0E0F701EC0FFD1F6491E3
:10408000662361F0D801ED91FC910190F081E02D63
:10409000C8010995892B11F02196EECFCE01DF9151
:1040A000CF911F910F91FF90EF900895CF93DF93E1
:1040B000BC0188E092E00E943220EC0188E092E0AE
:1040C0000E941D208C0F9D1FDF91CF910895CF92EC
:1040D000DF92EF92FF920F931F93E82FF92F05C005
:1040E000015011092109310961F19081962394173A
:1040F000B9F305C0015011092109310911F190816D
:1041000096239413F7CFC12CD12CE12CF12C0AC0AB
:104110008FEFC81AD80AE80AF80A0C151D052E05F3
:104120003F0579F080818623841791F36C2D7D2DD6
:104130008E2D9F2D1F910F91FF90EF90DF90CF90CC
:10414000089560E070E080E090E01F910F91FF9093
:10415000EF90DF90CF9008950895789484B58260B1
:1041600084BD84B5816084BD85B5826085BD85B51B
:10417000816085BD80916E00816080936E00109299
:104180008100809181008260809381008091810014
:1041900081608093810080918000816080938000A5
:1041A0008091B10084608093B1008091B000816003
:1041B0008093B00080917A00846080937A0080912F
:1041C0007A00826080937A0080917A008160809387
:1041D0007A0080917A00806880937A001092C10002
:1041E0000E94EE01C3E0D0E093E2E92EF12C409072
:1041F000D3015090D4016090D5017090D60180E237
:10420000480E81EA581E87E0681E711C4092D30157
:104210005092D4016092D5017092D6010E94450B54
:104220004B015C0184189508A608B708B7FCF6CFC7
:1042300068EC72E088E092E00E9432208BE0881601
:104240009104A104B1041CF084EB92E002C084EA62
:1042500092E00E94562062E070E080E090E00E94D0
:104260006A0B80E795E00E948E1A2C018CE895E09D
:104270000E948E1A3C0188EA95E00E948E1A4C0139
:1042800084EC95E00E948E1A5C01A20160E070E06F
:104290002AE08DEE92E00E94D41F8CE20E94A31EC1
:1042A000A30160E070E02AE08DEE92E00E94D41F4E
:1042B0008CE20E94A31EA40160E070E02AE08DEE73
:1042C00092E00E94D41F8CE20E94A31EA50160E030
:1042D00070E02AE08DEE92E00E94D41F8CE20E94F2
:1042E000A31E60E080916C050E94BD0ACE0101977B
:1042F000F1F761E080916C050E94BD0AC70101974A
:10430000F1F760E080916C050E94BD0A80916E0516
:1043100090916F059927FC01E859FD4F6491FC01CC
:10432000EC5AFD4FE491F0E0EE0FFF1FE65BFD4F0E
:104330008591949103E61BE020E030E0462F0E9437
:104340006720611571058105910541F0AB01BC0144
:104350004F5F5F4F6F4F7F4F7F7003C040E050E073
:10436000BA012AE08DEE92E00E94D41F8DEE92E019
:104370000E941D2068E972E088E092E00E943220ED
:1043800081EF92E00E947215882321F08091F20261
:1043900080FF03C08BE892E002C08CE792E00E94AD
:1043A000562062E070E080E090E00E946A0B0E947C
:1043B000590A1DCF4F925F926F927F928F929F9278
:1043C000AF92BF92CF92DF92EF92FF920F931F9323
:1043D000CF93DF93CDB7DEB7C057D1090FB6F894AE
:1043E000DEBF0FBECDBFE8E0F2E01382128288EE9E
:1043F00093E0A0E0B0E084839583A683B7838AE04E
:1044000091E09183808385EC90E09587848784ECAC
:1044100090E09787868780EC90E0918B808B81EC91
:1044200090E0938B828B82EC90E0958B848B86EC72
:1044300090E0978B868B118E128E138E148EE5EA88
:10444000F2E0168217821086118612861386148671
:10445000158616861786108A118A128A138A148A7C
:10446000158ACE018B5A9F4F0E94791BC12CD12CEB
:1044700088E4E82E82E4F82EAE96CCAEDDAEEEAE49
:10448000FFAEAE9702E310E0E0961FAF0EAFE097ED
:1044900085E090E0A2969FAF8EAFA2978CE390E06C
:1044A000A4969FAF8EAFA49782E890E0A6969FAFA8
:1044B0008EAFA69794E6892E912CA8969FAE8EAECD
:1044C000A89780E190E0AA969FAF8EAFAA972DE8BB
:1044D000422E27E9522E2EE0622E2FE3722E6C968A
:1044E0004CAE5DAE6EAE7FAE6C978FE195E8A5E702
:1044F000B2ECA0968CAF9DAFAEAFBFAFA097CE0190
:10450000C9960E94791B8AE590E02C969FAF8EAFEA
:104510002C976296CCAEDDAEEEAEFFAE629764969F
:104520001FAF0EAF649783E090E026969FAF8EAFEB
:1045300026978EE190E028969FAF8EAF289736E9B8
:10454000A32EB12C2A96BFAEAEAE2A9781E190E0A1
:104550002E969FAF8EAF2E9780E090E0A0E8BFE34D
:104560008CAF9DAFAEAFBFAF80E090E0A0E8BFEBF7
:1045700024968CAF9DAFAEAFBFAF2497CE014D96C2
:104580000E94791BCAAADBAAECAAFDAA1FAB0EAB3C
:1045900089E090E099A788A786E490E09BA78AA786
:1045A00083E790E09DA78CA780E590E09FA78EA76A
:1045B0008EE090E099AB88AB89EC96E7AEE8BFE37C
:1045C00088A399A3AAA3BBA38AE999E1A3E1B3ECC9
:1045D0008CA39DA3AEA3BFA3CE0101960E94791B1D
:1045E000CE8ADF8AE88EF98E1B8F0A8F86E090E0F4
:1045F0009D878C879F868E86B98AA88A8EE690E0F2
:104600009B8B8A8B8FE090E09D8B8C8B4C825D82A4
:104610006E827F828CE59FE8A6E4B2EC888799875A
:10462000AA87BB878CE1FE013196A0E7B5E0019037
:104630000D928A95E1F78CE1FE017D96ACE8B5E03C
:1046400001900D928A95E1F78CE1FE01F996A8EAB6
:10465000B5E001900D928A95E1F78CE1FE01EB5AED
:10466000FF4FA4ECB5E001900D928A95E1F710920E
:10467000E0051092E105ECE6F5E084E090E091833E
:10468000808387E090E09383828361E084E00E94EE
:10469000090B60E084E00E94BD0A60E087E00E94B0
:1046A000090B1092160310923C0510923D0584E60A
:1046B00080935E051092630588E291E090935D051A
:1046C00080935C0580E58093690510926A05EDEEA4
:1046D000F2E014821582138212828CE191E09183C0
:1046E0008083C059DF4F0FB6F894DEBF0FBECDBF39
:1046F000DF91CF911F910F91FF90EF90DF90CF90BE
:10470000BF90AF909F908F907F906F905F904F90F1
:104710000895BB27FA01A62F62177105810591053F
:10472000330B30FB66F0AA27660F771F881F991F8F
:10473000AA1FA21710F0A21B63953850A9F7A05D1D
:10474000AA3308F0A95DA19336F7B111B193108295
:10475000CA010C94AB23DC01FC01672F7191772314
:10476000E1F7329704C07C916D9370836291AE172C
:10477000BF07C8F308950E94FD2308F481E008955F
:10478000E89409C097FB3EF49095809570956195EB
:104790007F4F8F4F9F4F9923A9F0F92F96E9BB27A1
:1047A0009395F695879577956795B795F111F8CF1D
:1047B000FAF4BB0F11F460FF1BC06F5F7F4F8F4F88
:1047C0009F4F16C0882311F096E911C0772321F07E
:1047D0009EE8872F762F05C0662371F096E8862F16
:1047E00070E060E02AF09A95660F771F881FDAF76D
:1047F000880F9695879597F90895990F0008550F9A
:10480000AA0BE0E8FEEF16161706E807F907C0F056
:1048100012161306E407F50798F0621B730B840B5E
:10482000950B39F40A2661F0232B242B252B21F438
:1048300008950A2609F4A140A6958FEF811D811DD8
:1048400008950E9434240C94A5240E94972438F0E3
:104850000E949E2420F0952311F00C948E240C9439
:10486000942411240C94D9240E94B62470F3959FAB
:10487000C1F3950F50E0551F629FF001729FBB2757
:10488000F00DB11D639FAA27F00DB11DAA1F649FF3
:104890006627B00DA11D661F829F2227B00DA11DA6
:1048A000621F739FB00DA11D621F839FA00D611D2C
:1048B000221F749F3327A00D611D231F849F600D4D
:1048C000211D822F762F6A2F11249F5750409AF076
:1048D000F1F088234AF0EE0FFF1FBB1F661F771F02
:1048E000881F91505040A9F79E3F510580F00C94CD
:1048F0008E240C94D9245F3FE4F3983ED4F386953C
:1049000077956795B795F795E7959F5FC1F7FE2B6C
:10491000880F911D9695879597F9089597F99F6748
:1049200080E870E060E008959FEF80EC0895002437
:104930000A941616170618060906089500240A9404
:1049400012161306140605060895092E0394000C8A
:1049500011F4882352F0BB0F40F4BF2B11F460FF19
:1049600004C06F5F7F4F8F4F9F4F089557FD905842
:10497000440F551F59F05F3F71F04795880F97FB23
:10498000991F61F09F3F79F08795089512161306DD
:104990001406551FF2CF4695F1DF08C0161617060C
:1049A0001806991FF1CF8695710561050894089541
:1049B000E894BB2766277727CB0197F90895DB0199
:1049C0008F939F930E943025BF91AF91A29F800D3E
:1049D000911DA39F900DB29F900D11240895A1E207
:1049E0001A2EAA1BBB1BFD010DC0AA1FBB1FEE1F69
:1049F000FF1FA217B307E407F50720F0A21BB30BB4
:104A0000E40BF50B661F771F881F991F1A9469F72F
:104A100060957095809590959B01AC01BD01CF018B
:104A20000895052E97FB1EF400940E94282557FD3B
:104A300007D00E94EF2407FC03D04EF40C942825E5
:104A400050954095309521953F4F4F4F5F4F0895BA
:104A500090958095709561957F4F8F4F9F4F0895EA
:104A60000E947A25A59F900DB49F900DA49F800D64
:104A7000911D11240895B7FF0C9430250E94302514
:104A8000821B930B08952F923F924F925F926F92E9
:104A90007F928F929F92AF92BF92CF92DF92EF92CE
:104AA000FF920F931F93CF93DF93CDB7DEB7CA1B4F
:104AB000DB0B0FB6F894DEBF0FBECDBF09942A887A
:104AC000398848885F846E847D848C849B84AA8422
:104AD000B984C884DF80EE80FD800C811B81AA81AF
:104AE000B981CE0FD11D0FB6F894DEBF0FBECDBF7A
:104AF000ED010895A29FB001B39FC001A39F700D67
:104B0000811D1124911DB29F700D811D1124911DD5
:104B100008955058BB27AA270E94A1250C94A524CC
:104B20000E94972438F00E949E2420F039F49F3F81
:104B300019F426F40C9494240EF4E095E7FB0C94FD
:104B40008E24E92F0E94B62458F3BA176207730720
:104B50008407950720F079F4A6F50C94D8240EF478
:104B6000E0950B2EBA2FA02D0B01B90190010C017D
:104B7000CA01A0011124FF27591B99F0593F50F495
:104B8000503E68F11A16F040A22F232F342F4427ED
:104B9000585FF3CF469537952795A795F0405395E5
:104BA000C9F77EF41F16BA0B620B730B840BBAF0B5
:104BB0009150A1F0FF0FBB1F661F771F881FC2F720
:104BC0000EC0BA0F621F731F841F48F48795779534
:104BD0006795B795F7959E3F08F0B0CF9395880FEE
:104BE00008F09927EE0F9795879508950E940A2659
:104BF0000C94A5240E949E2458F00E94972440F013
:104C000029F45F3F29F00C948E2451110C94D9247F
:104C10000C9494240E94B62468F39923B1F355238D
:104C200091F3951B550BBB27AA27621773078407BF
:104C300038F09F5F5F4F220F331F441FAA1FA9F355
:104C400035D00E2E3AF0E0E832D091505040E69543
:104C5000001CCAF72BD0FE2F29D0660F771F881FA4
:104C6000BB1F261737074807AB07B0E809F0BB0B97
:104C7000802DBF01FF2793585F4F3AF09E3F5105AB
:104C800078F00C948E240C94D9245F3FE4F3983E82
:104C9000D4F3869577956795B795F7959F5FC9F794
:104CA000880F911D9695879597F90895E1E0660F15
:104CB000771F881FBB1F621773078407BA0720F08E
:104CC000621B730B840BBA0BEE1F88F7E0950895F7
:104CD0000E946F266894B1110C94D92408950E9403
:104CE000BE2488F09F5798F0B92F9927B751B0F09C
:104CF000E1F0660F771F881F991F1AF0BA95C9F760
:104D000014C0B13091F00E94D824B1E008950C9401
:104D1000D824672F782F8827B85F39F0B93FCCF3B4
:104D2000869577956795B395D9F73EF490958095DC
:104D3000709561957F4F8F4F9F4F08950E94FD237F
:104D400008F48FEF089519F416F40C9494240C943D
:104D5000E9260E94BE24B8F39923C9F3B6F39F57FE
:104D6000550B87FF0E94F7260024A0E640EA900139
:104D700080585695979528F4805C660F771F881F9A
:104D800020F026173707480730F4621B730B840B9B
:104D9000202931294A2BA6951794079420253125DF
:104DA0004A2758F7660F771F881F20F02617370706
:104DB000480730F4620B730B840B200D311D411D2D
:104DC000A09581F7B901842F9158880F9695879502
:104DD00008959F3F31F0915020F48795779567951E
:104DE000B795880F911D9695879597F908959150DD
:104DF0005040660F771F881FD2F70895991B79E0FE
:104E000004C0991F961708F0961B881F7A95C9F75A
:104E100080950895AA1BBB1B51E107C0AA1FBB1FA9
:104E2000A617B70710F0A61BB70B881F991F5A9536
:104E3000A9F780959095BC01CD010895EE0FFF1F55
:104E40000590F491E02D0994CF93DF938230910582
:104E500010F482E090E0E091E405F091E50520E0B7
:104E600030E0C0E0D0E0309711F140815181481727
:104E70005907C0F04817590761F482819381209740
:104E800019F09B838A832BC09093E5058093E405FA
:104E900026C02115310519F04217530718F49A015D
:104EA000BE01DF01EF010280F381E02DDCCF21158F
:104EB000310509F1281B390B2430310590F4129685
:104EC0008D919C9113976115710521F0FB019383DE
:104ED000828304C09093E5058093E405FD0132963A
:104EE00044C0FD01E20FF31F8193919322503109D9
:104EF0002D933C933AC02091E2053091E305232B9A
:104F000041F420910201309103013093E305209395
:104F1000E20520910001309101012115310541F494
:104F20002DB73EB74091040150910501241B350B6C
:104F3000E091E205F091E305E217F307A0F42E1BE0
:104F40003F0B2817390778F0AC014E5F5F4F2417ED
:104F5000350748F04E0F5F1F5093E3054093E2057D
:104F60008193919302C0E0E0F0E0CF01DF91CF9117
:104F700008950F931F93CF93DF93009709F48CC08C
:104F8000FC013297138212820091E4051091E5052D
:104F90000115110581F420813181820F931F209129
:104FA000E2053091E3052817390779F5F093E30519
:104FB000E093E20571C0D80140E050E0AE17BF07B2
:104FC00050F412962D913C911397AD0121153105A6
:104FD00009F1D901F3CF9D01DA0133832283608186
:104FE0007181860F971F8217930769F4EC0128815E
:104FF0003981260F371F2E5F3F4F318320838A81EF
:105000009B8193838283452B29F4F093E505E093FC
:10501000E40542C01396FC93EE931297ED0149917B
:1050200059919E01240F351FE217F30771F4808117
:105030009181840F951F029611969C938E93828185
:10504000938113969C938E931297E0E0F0E0D80141
:1050500012968D919C911397009719F0F8018C018D
:10506000F6CF8D919C9198012E5F3F4F820F931F39
:105070002091E2053091E3052817390769F430974C
:1050800029F41092E5051092E40502C01382128201
:105090001093E3050093E205DF91CF911F910F91EB
:1050A0000895A0E0B0E0E7E5F8E20C944725EC01B4
:1050B000009721F4CB010E942427B8C0FC01E60F21
:1050C000F71F9C0122503109E217F30708F4ACC026
:1050D000D9010D911C91119706171707B0F00530F3
:1050E000110508F49FC0C80104978617970708F4B4
:1050F00099C002501109061B170B019311936D9370
:105100007C93CF010E94B9278DC05B01A01AB10A20
:105110004C01800E911EA091E405B091E50540E0A0
:1051200050E0E12CF12C109709F44AC0A815B905FC
:10513000D1F56D907C901197630182E0C80ED11C6F
:10514000CA14DB0480F1A3014A195B096A0182E0F9
:10515000C80ED11C1296BC9012971396AC91B5E074
:10516000CB16D10440F0B282A38351834083D9018E
:105170006D937C930AC00E5F1F4FC301800F911F78
:10518000F90191838083EB2DFA2FE114F10431F0C2
:10519000D7011396FC93EE93129744C0F093E50564
:1051A000E093E4053FC08D919C91119748175907F2
:1051B00008F4AC017D0112960D90BC91A02DB3CFE7
:1051C0008091E2059091E30588159905E1F4461771
:1051D0005707C8F48091000190910101009741F4B4
:1051E0008DB79EB74091040150910501841B950B2A
:1051F000E817F907C8F4F093E305E093E205F90135
:10520000718360830FC0CB010E9424277C0100972B
:1052100059F0A801BE010E942D29CE010E94B92794
:10522000C70104C0CE0102C080E090E0CDB7DEB778
:10523000EEE00C94632581E090E0F8940C944C2906
:10524000FB01DC0104C08D910190801921F44150D3
:105250005040C8F7881B990B0895FB01DC0102C080
:1052600001900D9241505040D8F70895FB01DC01A8
:1052700001900D920020E1F70895FB01DC014150FF
:10528000504048F001900D920020C9F701C01D92D6
:1052900041505040E0F7089511E0CBE6D1E004C062
:1052A000FE010E941E272196CC36D107C9F7F8943B
:0252B000FFCF2E
:1052B2000000E605800000000000F0095D09880991
:1052C200370AB9099709AB09000000009F019C0148
:1052D2009901B101000000004F0C1B0CE00C564D6F
:1052E2004450565F317C315F564D4450560D0A0092
:1052F200433A5C55736572735C7479626C755C4198
:105302007070446174615C4C6F63616C5C54656D78
:10531200705C564D4275696C64735C4175746F4D77
:105322006F76655C537061726B46756E5F52656431
:10533200426F6172645C44656275675C4175746F4B
:105342004D6F76652E63707020636F6D70696C654A
:1053520064204F6374203237203230313720617439
:105362002032313A34393A34330030313233343541
:10537200363700747874002F546F706F4D617073FC
:02538200000029
:00000001FF
