:100000000C94F9010C9421020C9421020C9421020D
:100010000C9421020C9421020C9421020C942102D4
:100020000C9421020C9421020C9421020C9464077C
:100030000C9421020C9421020C9421020C942102B4
:100040000C94560B0C9421020C94310A0C940B0A5C
:100050000C9421020C9421020C9421020C94210294
:100060000C9421020C9421020000000024002700BF
:100070002A00486561646572202865766572797426
:1000800068696E6729207072696E74656420746F88
:1000900020534420636172642E2E2E204920746800
:1000A000696E6B2E004175746F4D6F7665203A2036
:1000B000006865696768742C207261646975732CC7
:1000C0002074686574612C20736F6E6172206D6599
:1000D00061737572656D656E7400636C6177207312
:1000E0006572766F20616E676C652C20636C61773A
:1000F0002061646A20616E676C652C20636C617797
:10010000206865696768742C20636C617720726170
:10011000646975732C0074757272656E74207365F2
:1001200072766F20616E676C652C207475727265D3
:10013000742061646A20616E676C652C207475722E
:10014000726574206865696768742C2074757272B2
:100150006574207261646975732C00626F6F6D3213
:1001600020736572766F20616E676C652C20626FFC
:100170006F6D322061646A20616E676C652C20624D
:100180006F6F6D32206865696768742C20626F6FCD
:100190006D32207261646975732C00626F6F6D310E
:1001A00020736572766F20616E676C652C20626FBC
:1001B0006F6D312061646A20616E676C652C20620E
:1001C0006F6F6D31206865696768742C20626F6F8E
:1001D0006D31207261646975732C004F70656E20FB
:1001E00066696C65206661696C65643A20004175DA
:1001F000746F4D6F7665203A20004368616E6765C5
:10020000206469726563746F727920746F20225460
:100210006F706F4D61707322206661696C65642E2A
:10022000004175746F4D6F7665203A2000556E69F8
:100230007175652073686F72742066696C65206ED5
:10024000616D653A20004175746F4D6F7665203A97
:1002500020004372656174652022546F706F4D6198
:10026000707322206661696C65642E00437265615B
:1002700074652022546F706F4D6170732220737506
:10028000636365656465642E004175746F4D6F76B8
:1002900065203A2000534420696E697420737563A9
:1002A000636573732E00534420696E697420666120
:1002B000696C65642E004175746F4D6F7665203AE8
:1002C00020005374617274696E6720535049205343
:1002D0004420636172642073747566662E004175F4
:1002E000746F4D6F7665203A200046696E697368B9
:1002F000656420776967676C696E67206120736544
:1003000072766F2E004175746F4D6F7665203A20BE
:1003100000536572766F206661696C656420746F46
:10032000206174746163682E00536572766F20617A
:10033000747461636865642E004175746F4D6F76E7
:1003400065203A2000000000002300260029000458
:10035000040404040404040202020202020303036C
:100360000303030102040810204080010204081066
:1003700020010204081020577269746520737563A8
:10038000636573732E005772697465206572726FAE
:10039000722E004175746F4D6F7665203A200044CF
:1003A000617461207261746520676F6F642E004410
:1003B000617461207261746520746F6F2068696771
:1003C000682E004175746F4D6F7665203A200000ED
:1003D000000000250028002B00000000080002019A
:1003E00000000304070000000000000000003A21A4
:1003F000392111241FBECFEFD8E0DEBFCDBF12E000
:10040000A0E0B1E0E8E7FCE402C005900D92A83856
:10041000B107D9F727E0A8E8B2E001C01D92AE31DC
:10042000B207E1F711E0C8EFD1E004C02197FE0167
:100430000E940124C73FD107C9F70E94111A0C94EA
:100440002F260C940000CF92DF92EF92FF92CF9371
:10045000DF93EC01603282E078070CF03DC077FD5D
:1004600006C0653B71052CF064EB70E002C060E0F3
:1004700070E0898128E830E06901C81AD10887FD59
:10048000D394CC0CDD1CCC0CDD1C0D2C000CEE0828
:10049000FF088A8128E532E0281B310987FD339562
:1004A000220F331F220F331FC901330FAA0BBB0BBF
:1004B0009C01AD012C193D094E095F09DB010E9429
:1004C0007F2324EB30E040E050E00E945523C20E31
:1004D000D31EE41EF51EB60188818C3080F599810B
:1004E00048E850E0491B510997FD5395440F551FAB
:1004F000440F551F6417750784F09A8128E532E090
:10050000291B310997FD3395220F331F220F331F0B
:10051000AB01261737070CF4A90142505109440FCB
:10052000551F2FB7F89490E0FC01EE0FFF1F8E0FC0
:100530009F1FFC01E857FD4F528341832FBFDF917E
:10054000CF91FF90EF90DF90CF900895CF93DF93FE
:10055000EC0124EB30E0B9010E94ED23AC01465AD6
:100560005F4F453B510510F4FE0103C0F901E81B44
:10057000F90BEE0FFF1FEA5FFE4F20813181D7FF9D
:1005800005C088279927821B930B01C0C901DF9101
:10059000CF91089581E00895089580E090E0089556
:1005A00004960C94501004960C94F014CF93DF939F
:1005B0001F92CDB7DEB7698341E050E0BE016F5FA7
:1005C0007F4F04960E94F0140F90DF91CF91089511
:1005D000CF92DF92EF92FF920F931F93CF93DF930F
:1005E000EC01862F488959896A897B898A019B0198
:1005F000E5E03695279517950795EA95D1F7102FE1
:100600001F7011F0811151C098819923D9F18A810D
:1006100080FF38C093FF63C0C88CD98CEA8CFB8CF8
:10062000C41AD50AE60AF70A22E0C216D104E10488
:10063000F10408F44EC09A01317095FD61C0EE815D
:10064000FF8103816A017B0189E0F694E794D794E6
:10065000C7948A95D1F70C21232B09F07EC0011194
:100660007CC0452B462B472B09F45CC04C855D852F
:100670006E857F859E01245F3F4FCF010E94AD0EA6
:1006800087FF60C08981826089838FEF9FEF019728
:10069000E9F488899989AA89BB894F96A11DB11D62
:1006A000888B998BAA8BBB8B08C0405E5F4F6F4FC6
:1006B0007F4F488B598B6A8B7B8B8E819F818B966A
:1006C00020E2129F800D911D112480C080E090E0F7
:1006D0007DC0CD28CE28CF2809F0ADCF0EC095FF24
:1006E000AACFEE81FF818681978125E0880F991F2F
:1006F0002A95E1F78417950719F480E090E061C02E
:1007000099E076956795579547959A95D1F7EE813B
:10071000FF81848D958DA68DB78D480F591F6A1F57
:100720007B1F39C096FF05C0848D958DA68DB78D32
:1007300004C08C8D9D8DAE8DBF8D8C879D87AE87BF
:10074000BF870BC0811109C08881807709F49ACFD7
:1007500081E090E021E030E036C0EE81FF814C8501
:100760005D856E857F85425051096109710904805C
:1007700004C0440F551F661F771F0A94D2F7808963
:100780009189A289B389480F591F6A1F7B1F400FA7
:10079000511D611D711D8E819F8120E084960E94F4
:1007A000050E892B09F46ECF88899989AA89BB899E
:1007B0000196A11DB11D888B998BAA8BBB8B81E003
:1007C00090E020E030E0821B930B61CFDF91CF916E
:1007D0001F910F91FF90EF90DF90CF900895FC0153
:1007E0008081811114C080E2DF01982F1D929A95BB
:1007F000E9F777836683DB0115969C91903119F0B8
:10080000903229F480E4808381E08283089580E03F
:100810000895CF93DF93EC010E9450101882DF916E
:10082000CF910895CF92DF92EF92FF920F931F9393
:10083000CF93DF93CDB7DEB7E3970FB6F894DEBF63
:100840000FBECDBF7C018B015BAB4AABD22E1982B0
:100850001A82FC018081882311F080E059C0FB01DD
:1008600080818077D1F3EAA9FBA980818F32D9F406
:10087000EAA9FBA980818F3221F43196FBABEAAB68
:10088000F7CFF80166817781811104C0C7010E940A
:10089000EF033EC0CE0101960E94EF038823E9F2E8
:1008A0008E010F5F1F4F80E2C82EAE014E5C5F4F7E
:1008B000BE016F5D7F4F8AA99BA90E94320F8823DA
:1008C00061F2EAA9FBA980818823D1F021E0AE0181
:1008D0004F5D5F4FB801C7010E947411882309F46E
:1008E000BCCFF701DE0111968C2D01900D928A95F7
:1008F000E1F7C7010E9409048E010F5F1F4FD5CF9A
:100900002D2DAE014F5D5F4FB801C7010E947411DC
:10091000E3960FB6F894DEBF0FBECDBFDF91CF9147
:100920001F910F91FF90EF90DF90CF9008953F922D
:100930004F925F926F927F928F929F92AF92BF92EF
:10094000CF92DF92EF92FF920F931F93CF93DF939B
:10095000CDB7DEB728970FB6F894DEBF0FBECDBF78
:100960004C01DC0112968C911297806812968C9340
:1009700012971C964D905D906D907C901F971696E7
:10098000AD90BC901797411451046104710461F457
:10099000D50118968D919D910D90BC91A02D8D83C0
:1009A0009E83AF83B88704C04D825E826F82788653
:1009B000CD80DE80EF80F884BFEFCB1ADB0AEB0A34
:1009C000FB0AF501808D918DA28DB38D8C159D054F
:1009D000AE05BF0528F482E0C82ED12CE12CF12C05
:1009E0009E012F5F3F4FB701A601C5010E94AD0ECA
:1009F00087FD20C0882341F089819A81AB81BC8129
:100A0000892B8A2B8B2B51F08D819E81AF81B885EC
:100A1000C816D906EA06FB0679F60CC00FEF1FEFE1
:100A20002FEF3FE0B701A601C5010E944A0E382E04
:100A3000811102C0312C2BC0411451046104710496
:100A400051F097018601B301A201C5010E944A0E2F
:100A5000811108C0EFCFD5011896CD92DD92ED92AD
:100A6000FC921B97F50180A191A1A2A1B3A1B7FDB2
:100A700007C00197A109B10980A391A3A2A3B3A3C1
:100A8000D4011C96CD92DD92ED92FC921F97832D9E
:100A900028960FB6F894DEBF0FBECDBFDF91CF9181
:100AA0001F910F91FF90EF90DF90CF90BF90AF908C
:100AB0009F908F907F906F905F904F903F900895A0
:100AC0008F929F92AF92BF92EF92FF920F931F93DC
:100AD000CF93DF93EC01888185FF02C010E06CC0EA
:100AE00088899989AA89BB8981159E4FAF41B10533
:100AF000A8F7CE010E949704182F882379F3EE817E
:100B0000FF814C855D856E857F8542505109610965
:100B10007109048004C0440F551F661F771F0A9493
:100B2000D2F780889188A288B388840E951EA61E6D
:100B3000B71E25E0B501A401CF0184960E94050EE1
:100B40007C01892B59F280E092E0D701FC011D92D3
:100B50003197E9F701E0EE81FF8192810917A8F44E
:100B600080819181DC01ED91FC910480F581E02D83
:100B70009701B501A401400F511D611D711D09951B
:100B8000882309F4ABCF0F5FE6CF492F50E060E038
:100B900070E089E0440F551F661F771F8A95D1F7D3
:100BA00088899989AA89BB89480F591F6A1F7B1FA9
:100BB000488B598B6A8B7B8B812FDF91CF911F9153
:100BC0000F91FF90EF90BF90AF909F908F900895FE
:100BD000AF92BF92CF92DF92EF92FF920F931F934B
:100BE000CF93DF93CDB7DEB7A0970FB6F894DEBFF3
:100BF0000FBECDBF8C01DB019C91907709F4CEC074
:100C00007B0123ECC8010E947411882309F4C6C03B
:100C100081E0F801828350E1D52ED082C8010E9484
:100C20006005882309F4BAC0F80184859585A685F6
:100C3000B785848F958FA68FB78F40E050E0BA01BB
:100C4000C8010E94B010C8010E945010882309F406
:100C5000A5C0D80154964D915D916D917C915797A7
:100C600016968D919C91179721E084960E94050E0F
:100C7000009709F493C0F801248135812F70332740
:100C800045E0220F331F4A95E1F7820F931FDC01E5
:100C90001B96DC9220E2FC01DE01119601900D9280
:100CA0002A95E1F7FC01A488B588C28CD38C8EE22A
:100CB0008983FE013296CE010C9620E22193E8173B
:100CC000F907E1F7D8011696ED91FC9117975C961C
:100CD0004D915D916D917C915F97425051096109F1
:100CE0007109048004C0440F551F661F771F0A94C2
:100CF000D2F780899189A289B389480F591F6A1F49
:100D00007B1F21E0CF0184960E94050E009709F415
:100D100045C0BE8AAD8ADC8ECB8E20E2FE013196C4
:100D2000DC0101900D922A95E1F72EE22A83F7016A
:100D3000448D558D668D778D7E8B6D8B5C8F4B8F43
:100D400020E2FE013196DC01909601900D922A95E9
:100D5000E1F7D80116960D911C911797C80184965A
:100D60000E94AB0D8823D1F0F80180819181DC01D4
:100D7000ED91FC910280F381E02DA0960FB6F894DE
:100D8000DEBF0FBECDBFDF91CF911F910F91FF90BE
:100D9000EF90DF90CF90BF90AF90099480E0A09645
:100DA0000FB6F894DEBF0FBECDBFDF91CF911F917C
:100DB0000F91FF90EF90DF90CF90BF90AF9008958C
:100DC0008F929F92AF92BF92CF92DF92EF92FF925B
:100DD000FC01828128E532E06901C81AD10887FD4B
:100DE000D394CC0CDD1CCC0CDD1C0D2C000CEE08BF
:100DF000FF08818128E830E04901881A910887FDC1
:100E00009394880C991C880C991C092C000CAA0836
:100E1000BB0880818F3FC1F090E0FC01EE0FFF1F07
:100E20008E0F9F1FFC01E857FD4F2181328143E067
:100E3000220F331F4A95E1F754E0369527955A95CE
:100E4000E1F72E5F3F4F02C020E030E02F5F3F4FC1
:100E5000C901330FAA0BBB0B9C01AD01281939093D
:100E60004A095B09A4EBB0E00E947423A701960134
:100E7000281939094A095B090E945523C901FF90C5
:100E8000EF90DF90CF90BF90AF909F908F9008959C
:100E9000FC019091B2029C30A0F481E0890F809314
:100EA000B2029083892F90E0FC01EE0FFF1F8E0F9E
:100EB0009F1FFC01E857FD4F88EB9BE092838183E5
:100EC00008958FEF808308951F920F920FB60F92AF
:100ED00011242F933F934F935F936F937F938F933F
:100EE0009F93AF93BF93EF93FF938091B10287FFDE
:100EF00005C010928500109284001BC02091B102A1
:100F0000022E000C330B8091B20290E028173907B3
:100F100084F48091B102082E000C990BFC01EE0FB5
:100F2000FF1F8E0F9F1FFC01E857FD4F808186FD3C
:100F300015C08091B1028F5F8093B1022091B10200
:100F4000022E000C330B8091B20290E02817390773
:100F5000C4F48091B1028C3064F113C08091B1026D
:100F6000082E000C990BFC01EE0FFF1F8E0F9F1F28
:100F7000FC01E857FD4F808160E08F730E94630A97
:100F8000D8CF8091840090918500049680349C494C
:100F900018F480E49CE905C080918400909185005C
:100FA000049690938900809388008FEF8093B1021C
:100FB0003BC020918400309185008091B102082EC1
:100FC000000C990BFC01EE0FFF1F8E0F9F1FFC0101
:100FD000E857FD4F81819281820F931F9093890082
:100FE000809388008091B102082E000C990BFC01BF
:100FF000EE0FFF1F8E0F9F1FFC01E857FD4F8081F2
:1010000086FF12C08091B102082E000C990BFC01E2
:10101000EE0FFF1F8E0F9F1FFC01E857FD4F8081D1
:1010200061E08F730E94630AFF91EF91BF91AF91CE
:101030009F918F917F916F915F914F913F912F91F0
:101040000F900FBE0F901F9018959B01FC016389B4
:1010500074892617370754F0FC0165897689621771
:1010600073071CF4283C31050CF0B9010C942302E1
:101070008F929F92AF92BF92CF92DF92EF92FF92A8
:101080000F931F93CF93DF936C018B010E94E006B7
:101090007C010197833B910580F0B801C601DF9187
:1010A000CF911F910F91FF90EF90DF90CF90BF9065
:1010B000AF909F908F900C9425080E944A0B4B0193
:1010C0005C0124EF820E21E0921EA11CB11CE701FD
:1010D00020E0C017D10709F441C0C8018C1B9D0B4B
:1010E000222331F09C012E5F3F4F2530310570F4F3
:1010F00021E030E01816190614F020E030E0892FC6
:10110000881F8827881F281B31090FC021E030E085
:101110001816190614F020E030E0892F881F882760
:10112000881F281B3109220F331FC20FD31FEC1653
:10113000FD06A1F0BE01C6010E94250869E170E02C
:1011400080E090E00E94100B0E944A0B21E086167E
:101150009706A806B90608F0BCCF9FCFDF91CF91C4
:101160001F910F91FF90EF90DF90CF90BF90AF90C5
:101170009F908F900895CF93DF93EC010E94E0063B
:101180002F853889820F931FDF91CF910895CF93D8
:10119000DF93FC01C585D6850E94BB0864EB70E037
:1011A0000E94ED232AE530E0A901481B590BCA0132
:1011B0000E94A602FC01EC9FC001ED9F900DFC9FD8
:1011C000900D11248C509E4F68EE73E00E94ED2329
:1011D000CB01DF91CF910895CF93DF93FC01C585BB
:1011E000D6850E94BB080E94A6029C012C9FC001CC
:1011F0002D9F900D3C9F900D11248C509E4F68EEBA
:1012000073E00E94ED23CB01DF91CF910895FF920F
:101210000F931F93CF93DF938C01F62EEC01C55DE6
:10122000DD4FCE010E940904B801CE010E94EF03F8
:10123000882371F0FF2061F09091F205907739F0EA
:1012400022EF35E03093BD022093BC0201C080E064
:10125000DF91CF911F910F91FF900895FC01538D65
:10126000448D252F30E0842F90E0821B930B541780
:1012700010F0CF96089501970895FC01918D828D0D
:10128000981761F0828DDF01A80FB11D5D968C91DA
:10129000928D9F5F9F73928F90E008958FEF9FEFE5
:1012A0000895FC01918D828D981731F0828DE80FA1
:1012B000F11D858D90E008958FEF9FEF0895FC015B
:1012C000918D228D892F90E0805C9F4F821B910928
:1012D0008F73992708958EEB92E00E945F0921E0B9
:1012E000892B09F420E0822F0895FC01848DDF0111
:1012F000A80FB11DA35ABF4F2C91848D90E0019689
:101300008F739927848FA689B7892C93A089B18977
:101310008C9180648C93938D848D981306C0028881
:10132000F389E02D80818F7D80830895EF92FF9275
:101330000F931F93CF93DF93EC0181E0888F9B8DF8
:101340008C8D981305C0E889F989808185FD24C0BA
:10135000F62E0B8D10E00F5F1F4F0F731127E02E3D
:101360008C8DE8120CC00FB607FCFACFE889F9891A
:10137000808185FFF5CFCE010E947509F1CF8B8D5D
:10138000FE01E80FF11DE35AFF4FF0820B8FEA894F
:10139000FB898081806207C0EE89FF896083E889CC
:1013A000F98980818064808381E090E0DF91CF9132
:1013B0001F910F91FF90EF900895CF93DF93EC0171
:1013C000888D8823C9F0EA89FB89808185FD05C065
:1013D000A889B9898C9186FD0FC00FB607FCF5CF9F
:1013E000808185FFF2CFA889B9898C9185FFEDCFE7
:1013F000CE010E947509E7CFDF91CF91089580E07B
:1014000090E0892B29F00E946B0981110C94000057
:1014100008950E94FE251F920F920FB60F9211247D
:101420002F933F934F935F936F937F938F939F93EC
:10143000AF93BF93EF93FF938EEB92E00E947509F9
:10144000FF91EF91BF91AF919F918F917F916F919C
:101450005F914F913F912F910F900FBE0F901F9072
:1014600018951F920F920FB60F9211242F938F93FE
:101470009F93EF93FF93E091CE02F091CF02808192
:10148000E091D402F091D50282FD12C0908180914A
:10149000D7028F5F8F732091D802821751F0E091AD
:1014A000D702F0E0E254FD4F958F8093D70201C040
:1014B0008081FF91EF919F918F912F910F900FBE9F
:1014C0000F901F90189590E0FC01E752FC4F34916B
:1014D000FC01ED59FC4F2491FC01E15BFC4FE491D0
:1014E000EE2309F43BC0332339F1333091F038F463
:1014F0003130A9F0323001F584B58F7D12C037301C
:1015000091F03830A1F03430B9F4809180008F7DB3
:1015100003C0809180008F77809380000DC084B5D8
:101520008F7784BD09C08091B0008F7703C0809110
:10153000B0008F7D8093B000F0E0EE0FFF1FE1530D
:10154000FC4FA591B4918FB7F894EC91611103C051
:1015500020952E2301C02E2B2C938FBF0895CF935F
:10156000DF9390E0FC01ED59FC4F2491FC01E15B1D
:10157000FC4F8491882361F190E0880F991FFC0152
:10158000E859FF4FC591D491FC01E153FC4FA5915F
:10159000B491611109C09FB7F89488812095822386
:1015A0008883EC912E230BC0623061F49FB7F894CE
:1015B0003881822F809583238883EC912E2B2C9366
:1015C0009FBF06C08FB7F894E8812E2B28838FBF6A
:1015D000DF91CF9108953FB7F8948091B802909130
:1015E000B902A091BA02B091BB0226B5A89B05C072
:1015F0002F3F19F00196A11DB11D3FBFBA2FA92F92
:10160000982F8827820F911DA11DB11DBC01CD010E
:1016100042E0660F771F881F991F4A95D1F70895FA
:101620008F929F92AF92BF92CF92DF92EF92FF92F2
:101630006B017C010E94EB0A4B015C01C114D104D7
:10164000E104F104F1F00E94EB0ADC01CB018819FE
:101650009909AA09BB09883E9340A105B10570F319
:1016600021E0C21AD108E108F10888EE880E83E073
:10167000981EA11CB11CC114D104E104F10419F796
:10168000DDCFFF90EF90DF90CF90BF90AF909F9015
:101690008F9008952FB7F8946091B4027091B502BD
:1016A0008091B6029091B7022FBF08951F920F92BA
:1016B0000FB60F9211242F933F938F939F93AF9365
:1016C000BF938091B4029091B502A091B602B091FF
:1016D000B7023091B30223E0230F2D3720F4019697
:1016E000A11DB11D05C026E8230F0296A11DB11D45
:1016F0002093B3028093B4029093B502A093B602F4
:10170000B093B7028091B8029091B902A091BA0249
:10171000B091BB020196A11DB11D8093B8029093B8
:10172000B902A093BA02B093BB02BF91AF919F914F
:101730008F913F912F910F900FBE0F901F90189592
:101740008EBD0DB407FEFDCF08958FEF8EBD0DB495
:1017500007FEFDCF8EB50895CF93DF93FC01258161
:10176000222361F0EC010380F481E02D61E08281AD
:101770000E94630A8FEF0E94A00B1D82DF91CF9120
:1017800008950F931F93CF93DF938C01862FEA0167
:101790000E94A00B88818EBD8981FE013296DE5F9A
:1017A0000DB407FEFDCF8EBDEC17FD0711F0819142
:1017B000F7CF0DB407FEFDCF8FEF0E94A00B8FEF88
:1017C0000E94A00B0E94A50BF8018683982F9F71A1
:1017D000953039F087E58283C8010E94AC0B80E028
:1017E00001C081E0DF91CF911F910F910895CF93B8
:1017F000DF93FC012581211110C0EC010380F481ED
:10180000E02D908181819CBD8DBDEB81FC8160E0EC
:1018100082810E94630A81E08D83DF91CF910895D8
:10182000EF92FF921F93CF93DF9300D000D0CDB7FC
:10183000DEB77C01162F29833A834B835C83FC013E
:101840008581811103C0C7010E94F70B0E948D168C
:10185000812F80640E94A00B8C810E94A00B8B8141
:101860000E94A00B8A810E94A00B89810E94A00B7C
:10187000112311F087E801C085E90E94A00B1C30FC
:1018800011F40E94A50B10E00E94A50BF7018683BE
:1018900087FF04C01F3F11F01F5FF6CF0F900F901E
:1018A0000F900F90DF91CF911F91FF90EF900895CF
:1018B000CF92DF92EF92FF920F931F93CF93DF931C
:1018C000EC016A017B0189018C85823049F48885AD
:1018D0009985AA85BB8584179507A607B70719F1CF
:1018E000E881F9810280F381E02DCE0109958823FA
:1018F000C9F18F81A7019601833039F089E0220F69
:10190000331F441F551F8A95D1F769E1CE010E940C
:10191000100C882311F083E30BC0C886D986EA86B1
:10192000FB8682E08C870E948D16811103C08AE5B8
:101930008A8307C0A8016CEFCE010E94C10B811100
:1019400005C0CE010E94AC0B80E00CC048855985D3
:101950006A857B854F5F5F4F6F4F7F4F4887598701
:101960006A877B87DF91CF911F910F91FF90EF9056
:10197000DF90CF9008951F93CF93DF93EC018C8578
:101980008130A9F41C8620E030E0A9016CE0CE0192
:101990000E94100C882339F088E28A83CE010E94CD
:1019A000AC0B10E017C0CE010E94AC0B12C082300D
:1019B00081F41C860E948D16182F882321F08DEF4C
:1019C0000E94A00B02C086E58A83CE010E94AC0B68
:1019D00001C011E0812FDF91CF911F910895CF9227
:1019E000DF92EF92FF920F931F93CF93DF93EC015F
:1019F0006A017B0189018C85813049F4888599854C
:101A0000AA85BB85481759076A077B0741F1E8811A
:101A1000F9810280F381E02DCE0109958823B9F088
:101A20008F81A7019601833039F089E0220F331F9F
:101A3000441F551F8A95D1F762E1CE010E94100C18
:101A4000882339F081E38A83CE010E94AC0B80E0C9
:101A500018C0C886D986EA86FB8681E08C87B801E3
:101A6000CE010E941F18882391F3488559856A8505
:101A70007B854F5F5F4F6F4F7F4F488759876A87DE
:101A80007B87DF91CF911F910F91FF90EF90DF90B7
:101A9000CF9008950F931F93CF93DF93EC018901AB
:101AA0008F81833039F089E0440F551F661F771FFF
:101AB0008A95D1F79A01AB0168E1CE010E94100C22
:101AC000882319F082E38A830CC0A8016EEFCE014F
:101AD0000E94C10B182F882321F0CE010E94AC0B6D
:101AE00004C0CE010E94AC0B10E0812FDF91CF919A
:101AF0001F910F9108950F931F93CF93DF93EC01E4
:101B000089018F81833039F089E0440F551F661FAA
:101B1000771F8A95D1F79A01AB0161E1CE010E944E
:101B2000100C882319F080E38A830BC0B801CE0122
:101B30000E941F18182F882321F0CE010E94AC0BA1
:101B400004C0CE010E94AC0B10E0812FDF91CF9139
:101B50001F910F9108958F929F92AF92BF92EF9233
:101B6000FF921F93CF93DF93DC012C9120FF41C0A4
:101B7000EC017C01B7E0EB0EF11CE981FA81808178
:101B80009181DC01ED91FC914B815C816D817E81C5
:101B90000480F581E02D97010995182F811102C06D
:101BA00010E028C0888181FD04C088818E7F8883F1
:101BB00021C0A981BA818D919C911197FC0120814E
:101BC00031811C968D909D90AD90BC901F974B815C
:101BD0005C816D817E81480D591D6A1D7B1DD90177
:101BE0001496ED91FC911597970109958111DDCF20
:101BF000D7CF11E0812FDF91CF911F91FF90EF9010
:101C0000BF90AF909F908F900895CF92DF92EF9208
:101C1000FF921F93CF93DF93EC016A017B01122F98
:101C20008B819C81AD81BE8184179507A607B7077C
:101C300019F1CE010E94AB0D811103C080E090E04C
:101C400021C012FF06C01882CB82DC82ED82FE82A8
:101C500013C0E981FA8180819181DC01ED91FC91D1
:101C60000190F081E02D9E01295F3F4FB701A60151
:101C700009958111E8CFE2CF13708881182B188362
:101C8000CE010796DF91CF911F91FF90EF90DF90EB
:101C9000CF9008958F929F92AF92BF92CF92DF9292
:101CA000EF92FF920F931F936A017B014801590144
:101CB000FC012581203251F544895589668977894F
:101CC00097018601E7E03695279517950795EA95E0
:101CD000D1F7400F511F621F731F23E084960E94AB
:101CE000050E009711F480E02DC0E894C7F8DD24BC
:101CF000EE24FF24CC0CDD1CCC0CDD1CFC01EC0D17
:101D0000FD1D80829182A282B3821BC0203159F7CF
:101D1000FC0144895589668977894D0D511D611DE6
:101D2000711D23E084960E94050E0097E1F2DD24E8
:101D3000EE24FF24CC0CDD1CFC01EC0DFD1D91827A
:101D4000808281E01F910F91FF90EF90DF90CF9004
:101D5000BF90AF909F908F900895CF92DF92EF92B7
:101D6000FF920F931F93CF93DF93EC016A017B01E6
:101D700089018D81803251F58C899D89AE89BF8919
:101D8000E7E07695679557954795EA95D1F7480F1F
:101D9000591F6A1F7B1F22E0CE0184960E94050E08
:101DA000009711F48FEF40C0E894C7F8DD24EE24CB
:101DB000FF24CC0CDD1CCC0CDD1CFC01EC0DFD1D4E
:101DC00080819181A281B381BF701DC0803151F7A4
:101DD0004C895D896E897F894D0D511D611D711D75
:101DE00022E0CE0184960E94050E0097D9F2DD24F0
:101DF000EE24FF24CC0CDD1CFC01EC0DFD1D8081CC
:101E00009181A0E0B0E0488D598D6A8D7B8D481797
:101E100059076A077B0738F0F80180839183A28312
:101E2000B38381E001C080E0DF91CF911F910F91DA
:101E3000FF90EF90DF90CF9008956115710579F0D4
:101E4000FB0101900020E9F73197AF01461B570BCA
:101E5000DC01ED91FC910280F381E02D099480E09A
:101E600090E00895AF92BF92CF92DF92EF92FF92EF
:101E70000F931F93CF93DF93FB01DC0101962C910D
:101E80002032D9F3B483A3839D0189010A1B1B0B64
:101E9000E90189919E018823C1F08F32B1F08C3520
:101EA00011F480E0F2C0982F977F9232D1F38A33F9
:101EB000C1F3982F9F7B9C33A1F392EC980F923043
:101EC00080F380528F3508F3ECCF0A0F1B1FC80137
:101ED000682F392FEC012991CE012032C9F32F321E
:101EE000B9F3EA016883398398012A1B3B0B0A176F
:101EF0001B0741F0E8018A918E018E32A9F38032EE
:101F000099F303C0A12CB12C05C059012F3F310515
:101F100009F03CF6B282A182CF0106969F012F5EA6
:101F20003F4F40E2EC014993CE01C217D307D1F7EE
:101F3000CD01AC014A1B5B0BEC013991CE013E3265
:101F4000C1F33032B1F39A0191E0452B09F090E0F2
:101F5000A5014150510938F0BD01640F751FEB0117
:101F600088818E32B1F717E060E000E070E088E031
:101F7000E82E2A153B050CF06CC06D01C20ED31E75
:101F8000E6018881803209F45BC08E3229F4421761
:101F9000530709F055C004C08232E1F08C37D1F00C
:101FA000D6EDFD2EF80ED5E0DF1510F08D3291F450
:101FB000C6ECFC2EF80EC5E0CF1560F4D5EAFD2E78
:101FC000F80ED2E0DF1530F4CFEDFC2EF80ECDE5A3
:101FD000CF1520F42417350781F438C024173507AE
:101FE000A9F1161718F1F82ECFE9DC2ED80ED9E199
:101FF000DD1548F080527E290CC01617B8F090E02D
:102000008FE5CFE5FC2ECFEBFC0ED9E1DF1508F014
:102010000E29FF24F394F60E6F01C60ED11CE601C3
:102020008E83D6E0DF1570F0F5820CC01A3081F097
:10203000421753076CF09A011AE068E0D0E1ED2EE8
:1020400090E001C06F2D2F5F3F4F93CF1A30B9F44E
:1020500090E08681803209F424CF992329F0072368
:1020600009F072E0708309C081E080838581E80F08
:10207000F11D8EE7868381E3878381E006C09A01A4
:102080001AE068E0D0E1ED2EDECFDF91CF911F9115
:102090000F91FF90EF90DF90CF90BF90AF90089599
:1020A0000F931F93CF93DF93DC012C91211102C07A
:1020B00081E051C0EC018A8187FF35C04C895D8980
:1020C0006E897F898E819F8121E084960E94050E12
:1020D0000097E9F1EC81FD81EF70FF2725E0EE0F1D
:1020E000FF1F2A95E1F7DC01AE0FBF1F2C91253EA3
:1020F00071F1288123FF0AC0488D598D6A8D7B8D2F
:102100005C964D935D936D937C935F974C8D5D8D45
:102110006E8D7F8DE80FF91F538F428F758B648B07
:102120008A818F778A830E811F81C80184960E94DD
:10213000AB0D882361F0F80180819181DC01ED9184
:10214000FC910280F381E02D09958111B1CF898145
:102150008160898380E0DF91CF911F910F91089575
:102160004F925F926F927F928F929F92AF92BF92A7
:10217000CF92DF92EF92FF920F931F93CF93DF9353
:10218000EC014A015B014C845D846E847F84A881EC
:10219000AA2309F491C0488959896A897B898416E0
:1021A0009506A606B70609F48DC081149104A10412
:1021B000B10429F41C861D861E861F8678C0A3FFE5
:1021C0000BC0088D198D2A8D3B8D081519052A0520
:1021D0003B0508F471C014C0A5FF12C0EE81FF8159
:1021E0008681978125E0880F991F2A95E1F7A0E065
:1021F000B0E088159905AA05BB0508F45DC057C075
:10220000EE81FF81848190E009968A019B01015053
:10221000110921093109082E04C036952795179513
:1022200007950A94D2F775016401B1E0CB1AD10881
:10223000E108F10804C0F694E794D794C7948A950E
:10224000D2F7C016D106E206F30620F0452B462B46
:10225000472B81F4A6FF05C0848D958DA68DB78D83
:1022600004C08C8D9D8DAE8DBF8D8C879D87AE8774
:10227000BF8704C0C01AD10AE20AF30A8E01045FC4
:102280001F4FC114D104E104F10489F04C855D8530
:102290006E857F8598018E819F810E94AD0E91E0B1
:1022A000C91AD108E108F10818165CF305C0888A3C
:1022B000998AAA8ABB8A06C04C865D866E867F860E
:1022C00080E001C081E0DF91CF911F910F91FF90DD
:1022D000EF90DF90CF90BF90AF909F908F907F90C6
:1022E0006F905F904F9008952F923F924F925F9220
:1022F0006F927F928F929F92AF92BF92CF92DF9216
:10230000EF92FF920F931F93CF93DF93CDB7DEB77A
:102310002D970FB6F894DEBF0FBECDBF6C017B01C9
:10232000FA0181809280DB018C91807709F444C0AE
:10233000D6018C91811140C08081837009F422C341
:10234000C4010C966DE070E00E94D923552453948B
:10235000560E2D835F0140E050E0BA01C7010E9494
:10236000B0101C861D861E82412C612C712C1B8690
:102370001501B6E02B0E311CF70180899189A289E5
:10238000B3899C01AD0195E0569547953795279502
:102390009A95D1F72F83388749875A870F811885F7
:1023A00061E0C7010E94E802009741F4D70111964D
:1023B0008C91882309F4A8C080E0F9C2FC01208137
:1023C000253E11F021110CC0611004C03F813C87F3
:1023D00038853D87651408F46394211105C094C0C5
:1023E000651408F4D2C202C0253EF1F12E32E1F1AB
:1023F000DC011B963C911B973F3009F057C07110D0
:1024000009C026FFB9CF2F71722E1D962C912E83F5
:10241000472C09C04A94241127C0DC011D962C9139
:102420003E81321321C0442D50E0415051096DE0EE
:10243000649F9001659F300D112428153905A0F483
:10244000FC0170E0753018F48181928107C07B3007
:1024500018F48481958102C08681978128153905F9
:1024600029F4892B09F488CF712C86CF8F3F9105F1
:1024700009F0D0F74FEB480F4A3110F0682F02C037
:1024800060E2680FA9014F5F5F4FD50113968D91F0
:102490009C911497DC01A20FB31F8C919FEB980FB6
:1024A0009A3108F4805E6813DFCF71C233FDDCCF50
:1024B0007720B9F0B1E04B127FCFFC01AC01455F52
:1024C0005F4F90E060E8969F900111249695922BC3
:1024D0002191920FE417F507A9F72E8192136CCF83
:1024E0000FC04BE050E0B1010E940326892B09F098
:1024F00043CFD5018C9180FF03C021E02B873CCFD7
:10250000BD81B7FF6FC158CF8D818274823409F0CD
:1025100053CF662051F00C851D8507C060E0C701D0
:102520000E94E802892B21F063946514B8F315C06A
:10253000F7018181882389F03FCFC7010E946005A0
:10254000882309F439CFD7011696ED91FC9117979E
:102550008281823020F430E1630E651470F32B85A4
:10256000222309F473C0D50115964C9082E0682EA1
:10257000712C1501B6E02B0E311C43C0F3E0F415AD
:1025800010F4A3E04A2E34E0340D282F2F70432F8F
:1025900050E02A3008F053C0205DF501E40FF51F2C
:1025A0002683F4E096958795FA95E1F73150431626
:1025B00060F3F501E40DF11D2EE7268340E050E0C5
:1025C000BA01C7010E94B01061E0C7010E94E80291
:1025D0000097B9F1FC0120812223C1F1238523FD5D
:1025E000F3CF4BE050E0BC01C1010E940326892BD0
:1025F00059F7BFEF6B1A7B0AE4E66E16710409F413
:10260000DBCEF50141815281C301840F951F038008
:10261000F481E02D4E0F5F1FE417F50709F4AECFEC
:102620009C01B5E0220F331FBA95E1F7820F931F8B
:102630002191022E000C330B82279327EDCF295CCA
:10264000ACCFD70111968C918111B6CEA80160E074
:1026500070E0E5E0440F551F661F771FEA95D1F73C
:10266000C7010E94B010882309F4A6CE77247A947B
:10267000750C172D5FE0652E1501F6E02F0E311C4D
:10268000250121E1420E511C0DE0112309F463C024
:1026900060E0C7010E94E802FC01892B09F48CCE9E
:1026A000D70116962D913C911797D90194968C914C
:1026B0009497816094968C93612F171101C0606488
:1026C000608363861486D10120E030E8239FC00137
:1026D00011242695282B9D91290FA415B505A9F73E
:1026E0002587138E128ED50113964D915C91149708
:1026F0006F7170E061507109069F9001079F300D66
:10270000112460E02815390540F4DA01A20FB31F47
:102710008C91082E000C990B0AC081E090E02815DE
:10272000390511F480E090E091958195910965302B
:1027300018F49283818307C06B3018F495838483E7
:1027400002C0978386836F5F2F5F3F4F32966D3055
:10275000C9F611509ACFF70100891189228933896E
:1027600045E036952795179507954A95D1F760E08E
:10277000C7010E94E802009709F41ECE20E2DC01A6
:102780001D922A95E9F7F50136962BE0DC010190C0
:102790000D922A95E1F7F50120812871DC011C9644
:1027A0002C931C9721E238E251963C932E9350973C
:1027B00040E058E01F965C934E931E9753963C93CF
:1027C0002E93529759963C932E93589757965C9315
:1027D0004E935697D7011696ED91FC91179784A1C9
:1027E000816084A380E2F60111928A95E9F7D7010E
:1027F0001696AD90BC901797F601B782A682158306
:1028000004835C968D919D910D90BC91A02D808745
:102810009187A287B3870F701127F501BB9695E0CA
:10282000000F111F9A95E1F7E00FF11F838583FFD9
:1028300003C0D6011C92C0CDD501A00FB11FD69602
:102840008C918771D6018C939385987111F488606F
:102850008C93F60173828D81827319F0808181716E
:1028600041F78D818F70D60112968C93F50187A167
:1028700090A5A1A5B2A5F601848B958BA68BB78BED
:102880000A0D1B1DF801FF9640805180612C712CB0
:10289000D20199278827369640805180612C712C6F
:1028A000482A592A6A2A7B2AFD81F4FF48C041142C
:1028B00051046104710409F471C09E012F5F3F4F00
:1028C000B301A201C5010E94AD0EF82E87FDB1CF64
:1028D00000E010E09801B301A201C5010E944A0E78
:1028E000882309F4A6CFD50190964D915D916D9105
:1028F0007C91939777FD09C04F5F5F4F6F4F7F4F7C
:10290000F50140A351A362A373A3D50118964D917D
:102910005D916D917C911B9744165506660677066E
:1029200028F4F501408651866286738649805A8074
:102930006B807C80F110C1CF811130C07ACFD6017D
:102940005C964D925D926D927C925F97F801E95B87
:10295000FF4F80819181A281B381F601808F918F99
:10296000A28FB38FFD81F5FF21C0D60158964D91FE
:102970005D916D917C915B97C6010E94B0108111B1
:1029800015C057CF55245394E4CC612C2FCD7F5FD5
:1029900032967D3009F4F0CC9A0154CDD6011296CE
:1029A0008C911297806812968C93DCCF81E02D96E3
:1029B0000FB6F894DEBF0FBECDBFDF91CF911F9150
:1029C0000F91FF90EF90DF90CF90BF90AF909F90CE
:1029D0008F907F906F905F904F903F902F900895D1
:1029E0002F923F924F925F926F927F928F929F921F
:1029F000AF92BF92CF92DF92EF92FF920F931F930D
:102A0000CF93DF93EC015B014A01888183FF0EC005
:102A10008A8181FF0BC082FF0FC0488D598D6A8D5E
:102A20007B8DCE010E94B010811106C0898181602A
:102A300089838FEF9FEF0DC1A40160E070E088896A
:102A40009989AA89BB8980959095A095B09584179E
:102A50009507A607B70750F364011E018CE0280E06
:102A6000311C088919892A893B89C114D10409F4C8
:102A7000D5C08E819F81B901A80129E0769567951F
:102A8000579547952A95D1F7DC011396FC90F422CF
:102A90001170F11034C00115110589F54C855D8563
:102AA0006E857F85411551056105710569F09101BC
:102AB0000E94AD0E87FDBACF811121C0CE010E94C8
:102AC000970481111CC0B2CF8C8D9D8DAE8DBF8DB2
:102AD0000097A105B10579F4CE010E9497048823DF
:102AE00009F4A4CF8C859D85AE85BF858C8F9D8F85
:102AF000AE8FBF8F04C08C879D87AE87BF87EE8166
:102B0000FF814C855D856E857F8542505109610945
:102B10007109048004C0440F551F661F771F0A9473
:102B2000D2F780899189A289B389480F591F6A1FFA
:102B30007B1F4F0D511D611D711D0115110521F4E4
:102B4000C114B2E0DB06B0F580E092E0801B910B8F
:102B500076018C159D0508F47C010115110579F4A9
:102B6000488859886A887B88888D998DAA8DBB8D05
:102B7000481659066A067B0610F025E001C021E0E0
:102B8000CF0184960E94050E009709F44FCFA7014C
:102B9000B501800F911F0E9410260E0D1F1D0115FB
:102BA000124059F58E819F8184960E94AB0D811150
:102BB00024C03CCF87A190A5A1A5B2A584179507F5
:102BC000A607B70741F414A28FEF9FEFDC0187A39C
:102BD00090A7A1A7B2A7EE81FF8180819181DC013E
:102BE000ED91FC910480F581E02D950109958823F4
:102BF00009F41CCFE12C82E0F82E88899989AA89F2
:102C0000BB898E0D9F1DA11DB11D888B998BAA8B31
:102C1000BB8BAE0CBF1CCE18DF0823CF888D998DDF
:102C2000AA8DBB8D80179107A207B30738F4088FD0
:102C3000198F2A8F3B8F8A8180688A838A8183FDDE
:102C400002C0C40106C0CE010E9450108111F9CF0C
:102C5000EDCEDF91CF911F910F91FF90EF90DF901C
:102C6000CF90BF90AF909F908F907F906F905F902C
:102C70004F903F902F9008950895EEEBF2E0A089D9
:102C8000B18982E08C93A485B5851C92A685B78511
:102C90008FEC8C93108EA489B58986E08C93A289E1
:102CA000B3898C9180618C93A289B3898C9188605F
:102CB0008C93A289B3898C9180688C930288F38964
:102CC000E02D80818F7D80830895909127068091EB
:102CD0002606813061F0D0F0823081F08330A9F493
:102CE000809326069093270683E090E008958093D2
:102CF00026069093270681E090E0089580932606AB
:102D00009093270682E090E0089591E010922606C5
:102D10009093270680E090E00895CF93DF930E9480
:102D20004A0BEB010E94A50B8F3F49F00E944A0B12
:102D30006C1B7D0B69357240A8F380E001C081E017
:102D4000DF91CF9108958F929F92AF92BF92CF92D1
:102D5000DF92EF92FF92CF93C82F1092CC0381E0C5
:102D600090E0A0E0B0E08093CF039093D003A093D5
:102D7000D103B093D20387EC93E09093ED0380935B
:102D8000EC031092EB038FEF9FEFDC018093EE03D7
:102D90009093EF03A093F003B093F103CC2331F1B0
:102DA000C53008F0E7C020E040E050E0BA018BEE0B
:102DB00093E00E94050E009709F4DCC020E1C29F59
:102DC000800D911D11244097FC01E254FE4F20819B
:102DD0002F7709F0CFC0389680809180A280B38091
:102DE00081149104A104B10421F4C4C0812C912C5C
:102DF000540120E0B501A4018BEE93E00E94050E82
:102E0000FC01892B09F4B6C0838594858115924015
:102E100009F0B0C08089823009F0ACC04685578582
:102E20004115510509F4A6C025852093C9038FEFEC
:102E3000820F8093CA0380E091E0291751F031E0BE
:102E4000380F393019F48093CB0394C0990F832F36
:102E5000F4CF8093CB03C688D788C114D10419F06E
:102E6000E12CF12C04C0C4A0D5A0E6A0F7A0C0922C
:102E7000D303D092D403E092D503F092D603D501C8
:102E8000C401840F951FA11DB11D8093DB03909396
:102E9000DC03A093DD03B093DE03218932893093F4
:102EA000CE032093CD03CC0CDD1CEE1CFF1CC80E02
:102EB000D91EEA1EFB1EC092E303D092E403E09207
:102EC000E503F092E60355E0220F331F5A95E1F730
:102ED00021503E4F232F33272695C20ED31EE11CCF
:102EE000F11CC092D703D092D803E092D903F0929C
:102EF000DA03238934892115310521F0C901A0E0C5
:102F0000B0E004C080A191A1A2A1B3A1B501A40128
:102F10004C195D096E097F09480F591F6A1F7B1FF5
:102F20000090CB0304C076956795579547950A9412
:102F3000D2F7DB01CA010196A11DB11D8093DF0309
:102F40009093E003A093E103B093E2038FEF9FEF30
:102F5000DC018093E7039093E803A093E903B09327
:102F6000EA03453F8FE058076105710528F48CE0BE
:102F70008093CC0380E017C0453F5F4F610571052A
:102F800010F480E10DC084A595A5A6A5B7A58093F2
:102F9000E3039093E403A093E503B093E60380E298
:102FA0008093CC0381E0CF91FF90EF90DF90CF90A2
:102FB000BF90AF909F908F900895FF920F931F93B3
:102FC000CF93DF93CDB7DEB7A0970FB6F894DEBFEF
:102FD0000FBECDBFF62E19821A828C01055D1D4FE2
:102FE00021E04DE752E0B801CE0101960E941204A3
:102FF0008823C9F099819077A9F090E2FE0131967B
:10300000D80101900D929A95E1F7FF2061F090911F
:10301000F205907741F022EF35E03093BD02209326
:10302000BC0201C080E0A0960FB6F894DEBF0FBED0
:10303000CDBFDF91CF911F910F91FF900895EF9237
:10304000FF920F931F93CF93DF93EC017B010E94BC
:103050004A0B8B010E94A50B8E838F3F49F40E947F
:103060004A0B601B710B6D327140A0F385E503C004
:103070008E3F39F080E58A83CE010E94AC0B80E060
:103080001BC08FEF8EBDF701D701A150BE4F9FEF40
:103090000DB407FEFDCF8EB59EBD8193EA17FB07E9
:1030A000B9F70DB407FEFDCF8EB58C931E820E943A
:1030B000A50B0E94A50B81E0DF91CF911F910F918D
:1030C000FF90EF9008950F931F93CF93DF93EC0140
:1030D00088819981009729F02A813B81261737073B
:1030E00088F48B016F5F7F4F0E943425009761F059
:1030F000998388831B830A832C813D81232B11F4C0
:10310000FC01108281E001C080E0DF91CF911F912E
:103110000F910895EF92FF920F931F93CF93DF9338
:10312000EC017B018A01BA010E9463182881398170
:1031300081110DC02115310519F0C9010E949C248F
:10314000198218821D821C821B821A8206C01D836E
:103150000C83B701C9010E941926CE01DF91CF91DE
:103160001F910F91FF90EF900895CF93DF93EC01A3
:103170006115710559F0FB0101900020E9F73197C5
:10318000AF01461B570B0E948A180CC08881998199
:10319000009711F00E949C24198218821D821C82C3
:1031A0001B821A82CE01DF91CF9108954F925F92D8
:1031B0006F927F92EF92FF920F931F93CF93DF93C3
:1031C000CDB7DEB7A1970FB6F894DEBF0FBECDBF67
:1031D0007C01FA01CB0119A2223008F42AE08E0109
:1031E0000F5D1F4F422E512C612C712CBF01A3018A
:1031F00092010E943323F901CA01015011096A307A
:1032000014F4605D01C0695CD8016C93232B242BFE
:10321000252B61F7B801C7010E941D0FA1960FB6BB
:10322000F894DEBF0FBECDBFDF91CF911F910F91FC
:10323000FF90EF907F906F905F904F900895CF92A6
:10324000DF92EF92FF92CF93DF936B017C01E091CD
:10325000A303F091A4030190F081E02D6DE283EAD5
:1032600093E00995EC0144275527BA014C195D09F3
:103270006E097F092AE083EA93E00E94D6188C0F3A
:103280009D1FDF91CF91FF90EF90DF90CF90089539
:10329000AC01990F660B770B77FF04C0CB01BA0125
:1032A0000C941F192AE083EA93E00C94D61863EF7C
:1032B00071E00C941D0FCF93DF93BC018EEB92E075
:1032C0000E941D0FEC018EEB92E00E9457198C0FAB
:1032D0009D1FDF91CF910895EF92FF920F931F935F
:1032E000CF93DF938C017B01C0E0D0E0F701EC0FBE
:1032F000FD1F6491662361F0D801ED91FC9101906E
:10330000F081E02DC8010995892B11F02196EECFAF
:10331000CE01DF91CF911F910F91FF90EF90089513
:10332000CF93DF93BC018EEB92E00E946C19EC010D
:103330008EEB92E00E9457198C0F9D1FDF91CF9169
:103340000895CF92DF92EF92FF920F931F93CF9346
:10335000DF936C017A018B01C0E0D0E0CE15DF0570
:1033600089F0D8016D918D01D601ED91FC9101900C
:10337000F081E02DC6010995892B11F47E0102C070
:103380002196ECCFC701DF91CF911F910F91FF9054
:10339000EF90DF90CF900895CF92DF92EF92FF925F
:1033A0000F931F93E82FF92F05C001501109210930
:1033B000310961F1908196239417B9F305C001504A
:1033C00011092109310911F1908196239413F7CF46
:1033D000C12CD12CE12CF12C0AC08FEFC81AD80ACD
:1033E000E80AF80A0C151D052E053F0579F08081C5
:1033F0008623841791F36C2D7D2D8E2D9F2D1F918B
:103400000F91FF90EF90DF90CF90089560E070E013
:1034100080E090E01F910F91FF90EF90DF90CF90B0
:103420000895CF93DF93CDB7DEB7CB55D1090FB653
:10343000F894DEBF0FBECDBF789484B5826084BDA2
:1034400084B5816084BD85B5826085BD85B58160A8
:1034500085BD80916E00816080936E001092810026
:1034600080918100826080938100809181008160E1
:1034700080938100809180008160809380008091A2
:10348000B10084608093B1008091B000816080932E
:10349000B00080917A00846080937A0080917A00F5
:1034A000826080937A0080917A00816080937A00B4
:1034B00080917A00806880937A001092C100109207
:1034C0009F031092A0031092A1031092A2031092E6
:1034D0005D0310925E0310925F03109260030E94DE
:1034E0004A0B4B015C012B013C0128EB420E2BE007
:1034F000521E611C711C0E944A0B681579058A05D1
:103500009B0528F04616570668067906A0F78EEB4D
:1035100092E090939E0380939D030E943D160E942B
:103520004A0B60935D0370935E0380935F039093F7
:10353000600364EE71E080919D0390919E030E9470
:103540001D0F0E944A0B4B015C012B013C013AE02C
:10355000430E511C611C711C0E944A0B68157905B1
:103560008A059B0528F04616570668067906A0F7D7
:1035700081E0809371030E943D1686EF91E00E94E6
:103580005B198EEB92E00E94571960E088E00E9480
:10359000630A61E088E00E94AF0A82E2D82E9CE0D4
:1035A000C92E22E0B22E809127068111A6C00E946A
:1035B00065168130910599F03CF4892B91F40091C6
:1035C0002A0610912B060DC08230910529F0039731
:1035D00041F400E716E005C00EE416E002C00CE27C
:1035E00016E0F801DE0111968D2D01900D928A955D
:1035F000E1F7688D798DCE0101960E942508AA8891
:1036000089818C3008F04FC061E08A2D0E94AF0A9A
:103610008981E82FF0E09F01220F331FE20FF31F93
:10362000E857FD4F9A2D9F732081207CA22EA92A56
:10363000A0821A821B826C2D0E94CD239CE0899F60
:10364000B001112440E050E09A01260F371FF90124
:10365000EE0FFF1F2E0F3F1FF901E857FD4F90811E
:1036600096FD15C04F5F5F4F4C30510569F78111D2
:103670000EC010928000B0928100109285001092CE
:103680008400B19A80916F00826080936F00A9815D
:10369000B0E0CD01880F991FA80FB91FA857BD4FE3
:1036A0008C9180648C9369E373E08EEB92E00E94CE
:1036B0006C19898190E0FC01EE0FFF1F8E0F9F1F98
:1036C000FC01E857FD4F808186FF03C089E293E04B
:1036D00002C081E193E00E94901962E070E080E016
:1036E00090E00E94100B809126068F5F8093260643
:1036F000109227060E94651656CF61E088E00E946E
:10370000630A109226061092270612E2809127067D
:10371000811154C00E94651681309105B9F03CF4C6
:10372000892BC1F4E0902A06F0902B0613C082305A
:10373000910539F0039771F4E0E7EE2EE6E0FE2EF6
:1037400009C0FEE4EF2EF6E0FF2E04C07CE2E72E77
:1037500076E0F72EF701DE011196812F01900D9290
:103760008A95E1F76C897D89CE0101960E9438081F
:103770006E897F89CE0101960E943808688D798D07
:10378000CE0101960E94380865E073E08EEB92E06E
:103790000E946C198AEE92E00E94901962E070E03B
:1037A00080E090E00E94100B809126068F5F80934E
:1037B0002606109227060E946516A8CF6EED72E0CD
:1037C0008EEB92E00E946C1982EC92E00E949019BC
:1037D00062E070E080E090E00E94100B66EB72E027
:1037E0008EEB92E00E946C1910921E061092170642
:1037F00010921406109219068FE196E09093160627
:10380000809315060E944A0B7B01009115061091CA
:1038100016068AE0F801828361E00E94AF0A61E047
:10382000F80182810E94630A1FB7F8948091AC026C
:10383000811127C0E9E5F3E08491EDE6F3E094918E
:10384000E82FF0E0EE0FFF1FE859FF4FA591B4916C
:10385000EC91E92321F461E08AE00E94630A61E0CF
:103860008AE00E94AF0A8CB580618CBD8CB5806403
:103870008CBD61E08DE00E94AF0A61E08BE00E94A8
:10388000AF0A8091AC028F5F8093AC021FBFE091C2
:103890001506F091160682E58083118282E196E09A
:1038A0000E94F70BE0911506F091160661E0828107
:1038B0000E94630A1AE08FEF0E94A00B1150D9F703
:1038C000E0911506F091160660E082810E94630A7D
:1038D00020E030E0A90160E082E196E00E94100C57
:1038E000813049F00E944A0B6E197F09613D774093
:1038F00078F380E258C02AEA31E040E050E068E026
:1039000082E196E00E94100C853011F481E00AC03B
:1039100014E00E94A50B809318061150D1F78A3A43
:1039200059F482E08093190680911906823069F07B
:10393000812C912C54010EC00E944A0B6E197F09F4
:10394000613D7740C0F285E22EC0812C912CA12CE4
:1039500050E4B52E20E030E0A90167E382E196E073
:103960000E94100CA501940169E282E196E00E9498
:10397000100C882349F00E944A0B6E197F09613DA3
:10398000774040F383E40FC080911906823001F53F
:1039900020E030E0A9016AE382E196E00E94100C89
:1039A000882341F087E38093140682E196E00E9429
:1039B000AC0B45C00E94A50B807C803C19F483E0D1
:1039C000809319060E94A50B0E94A50B0E94A50BCF
:1039D00082E196E00E94AC0BE0911506F09116068C
:1039E00080E5808381E0818382E196E09093C80343
:1039F0008093C70382EF95E00E94090481E00E9452
:103A0000A316882349F067EC73E082EF95E00E94EB
:103A1000EF038823A1F006C080E00E94A316811165
:103A2000F2CF0DC08091F205807749F082EF95E0EA
:103A30009093BD028093BC0285E992E002C086EAC1
:103A400092E00E94901962E070E080E090E00E94B5
:103A5000100B19821A8221E04EE752E062EF75E006
:103A6000CE0101960E941204FE01B3967F018111DE
:103A700069C069E872E08EEB92E00E946C191BA2AB
:103A80001CA28EE792E06C969FAF8EAF6C97198266
:103A90001A828091F205807709F44AC002EF15E09E
:103AA00040E2D42EBE2CCF2CAE01465A5F4FBE0151
:103AB0006D5B7F4F6C968EAD9FAD6C970E94320F01
:103AC0008823B1F16C96EEADFFAD6C9780818823B1
:103AD00019F121E0AE014D5B5F4FB801C7010E94B3
:103AE0007411811109C0AE014D5B5F4FB801C70170
:103AF0000E94E8058823E1F0EB2DFC2DDE011196F4
:103B00008D2D01900D928A95E1F7C7010E9409045D
:103B10008E010F5F1F4FC8CFAE014D5B5F4FB801E5
:103B2000C7010E94E805882319F08CE692E002C0E4
:103B300082E592E00E94901962E070E080E090E0FF
:103B40000E94100B66961FAE1EAE669768961FAE5B
:103B50001EAE68976A961FAE1EAE6A972AE0AE0147
:103B60004F5F5F4F6FEF7FEFCB010E94F122BE01ED
:103B70006F5F7F4FCE018C5A9F4F0E94B51861E056
:103B800087EC93E00E94070961E087EC93E00E94D4
:103B9000DD173EE2D32E6A96AEACBFAC6A971A82AE
:103BA00019821C821B821E821D8248E050E060E761
:103BB00072E0CE0101960E948A188D819E81A81A1A
:103BC000B90A6A960EAD1FAD6A970A151B0528F44F
:103BD0009A2D8B2D5801092F182F25961FAE1EAE3A
:103BE000259727961FAE1EAE279729961FAE1EAEAD
:103BF000299740E050E065EF71E0CE018D5B9F4F6B
:103C00000E948A186A968EAD9FAD6A97A816B9066B
:103C1000F0F48017910708F48C016696EEADFFADC5
:103C20006697E00FF11FC080108266966EAD7FAD83
:103C300066976A0D7B1DCE018D5B9F4F0E94B51864
:103C40006696EEADFFAD6697E00FF11FC0826696F7
:103C50008EAD9FAD66970097F9F025966EAD7FAD5E
:103C6000259761157105B1F068964EAD5FAD689707
:103C700029962EAD3FAD29974217530758F00E9461
:103C8000192629968EAD9FAD29976A969FAF8EAF64
:103C90006A9722C00E949C2425968EAD9FAD2597E1
:103CA00066969FAF8EAF669727968EAD9FAD27978E
:103CB00068969FAF8EAF689729968EAD9FAD299776
:103CC0006A969FAF8EAF6A9725961FAE1EAE259758
:103CD00027961FAE1EAE279729961FAE1EAE2997B8
:103CE00025968EAD9FAD25970E949C2489819A814F
:103CF0000E949C24D9821A826A960EAD1FAD6A97E3
:103D00000F5F1F4FB801CE018C5A9F4F0E9463185E
:103D1000882399F066962EAD3FAD66976A968EAD74
:103D20009FAD6A97BE016F5F7F4F820F931F0E9406
:103D300019266A961FAF0EAF6A976A960EAD1FAD31
:103D40006A970D5F1F4FB801CE018C5A9F4F0E949A
:103D50006318882391F066962EAD3FAD66976A96FC
:103D60008EAD9FAD6A9769E772E0820F931F0E9444
:103D700019266A961FAF0EAF6A976A960EAD1FADF1
:103D80006A970115110511F41BA211C00C30110521
:103D900010F00CE010E066966EAD7FAD6697A8015E
:103DA000C7010E942026F701E00FF11F108219823F
:103DB0001A8221E0A70162EF75E0CE0101960E9410
:103DC00012048111E8CE61E087EC93E00E940709BC
:103DD00066968EAD9FAD66970E949C2466E472E065
:103DE0008EEB92E00E946C196DE272E08EEB92E035
:103DF0000E946C19C7010E945B1962E070E080E0CC
:103E000090E00E94100B60E087EC93E00E94DD17C9
:103E1000811110C061E272E08EEB92E00E946C1999
:103E20008AEF91E00E94901962E070E080E090E0FB
:103E30000E94100B6091BC027091BD0222E4A701A8
:103E400087EA93E00E941204811115C06EEE71E0C2
:103E50008EEB92E00E946C196BED71E08EEB92E0BC
:103E60000E946C19C7010E945B1962E070E080E05B
:103E700090E00E94100B6BE971E083EA93E00E94EE
:103E80006C196BE571E083EA93E00E946C1966E1BE
:103E900071E083EA93E00E946C196AED70E083EAB6
:103EA00093E00E946C1961EB70E083EA93E00E945A
:103EB0006C1983EA93E00E94571965EA70E08EEB73
:103EC00092E00E946C1982E790E00E94901962E0F3
:103ED00070E080E090E00E94100B0E94EB0A20E26C
:103EE00031EA47E050E00E9433232F5F3F4F4F4FAE
:103EF0005F4F60E271EA87E090E00E9423236093C5
:103F0000AD027093AE028093AF029093B00293E043
:103F1000E92EF12C23E2C22ED12C4090AD0250901C
:103F2000AE026090AF027090B002F0E24F0EF1EA84
:103F30005F1EF7E06F1E711C4092AD025092AE0200
:103F40006092AF027092B0020E94EB0A4B015C01DA
:103F500084189508A608B708B7FCF6CF63EC73E0A1
:103F60008EEB92E00E946C192BE082169104A10462
:103F7000B1041CF08FEA93E002C08FE993E00E9445
:103F8000901962E070E080E090E00E94100B809158
:103F90002A0690912B060E94E0060E9448196CE2C6
:103FA00083EA93E00E94D60280912A0690912B0624
:103FB0000E94BB080E9448196CE283EA93E00E94C9
:103FC000D60280912A0690912B060E94EC080E944E
:103FD00048196CE283EA93E00E94D60280912A0697
:103FE00090912B060E94C7080E9448196CE283EA50
:103FF00093E00E94D6028CE296E00E94E0060E94C6
:1040000048196CE283EA93E00E94D6028CE296E0C3
:104010000E94BB080E9448196CE283EA93E00E9468
:10402000D6028CE296E00E94EC080E9448196CE2ED
:1040300083EA93E00E94D6028CE296E00E94C708D1
:104040000E9448196CE283EA93E00E94D6028EE453
:1040500096E00E94E0060E9448196CE283EA93E031
:104060000E94D6028EE496E00E94BB080E94481986
:104070006CE283EA93E00E94D6028EE496E00E940E
:10408000EC080E9448196CE283EA93E00E94D60291
:104090008EE496E00E94C7080E9448196CE283EA09
:1040A00093E00E94D60280E796E00E94E0060E941C
:1040B00048196CE283EA93E00E94D60280E796E01A
:1040C0000E94BB080E9448196CE283EA93E00E94B8
:1040D000D60280E796E00E94EC080E9448196CE244
:1040E00083EA93E00E94D60280E796E00E94C70828
:1040F0000E9448196CE283EA93E00E94D602809104
:104100002A0690912B060E94EC088C018CE296E026
:104110000E94EC08080F191F80E796E00E94EC0847
:10412000800F911FAC0160E070E02AE083EA93E029
:104130000E94D6186CE283EA93E00E94D602809136
:104140002A0690912B060E94C7088C018CE296E00B
:104150000E94C708080F191F80E796E00E94C70851
:10416000800F911FAC0160E070E02AE083EA93E0E9
:104170000E94D6186CE283EA93E00E94D6028EE495
:1041800096E00E94BB08AC0160E070E02AE083EAA0
:1041900093E00E94D6186CE283EA93E00E94D60274
:1041A00060E0809122060E94630AC7010197F1F73F
:1041B00061E0809122060E94630AC6010197F1F72F
:1041C00060E0809122060E94630A8091240690910B
:1041D00025069927FC01ED59FC4F6491FC01E15B38
:1041E000FC4FE491F0E0EE0FFF1FEB5BFC4F85917D
:1041F000949103E61BE020E030E0462F0E94CC19AA
:10420000611571058105910541F0AB01BC014F5F5E
:104210005F4F6F4F7F4F7F7003C040E050E0BA01A7
:104220002AE083EA93E00E94D61883EA93E00E9492
:10423000571963E973E08EEB92E00E946C1987EAEC
:1042400093E00E945010882321F08091A80380FF02
:1042500003C086E893E002C087E793E00E949019CC
:1042600062E070E080E090E00E94100B0E94FF0985
:1042700054CE08952F923F924F925F926F927F9209
:104280008F929F92AF92BF92CF92DF92EF92FF9266
:104290000F931F93CF93DF9300D000D0CDB7DEB73D
:1042A000EEEBF2E01382128288EE93E0A0E0B0E041
:1042B00084839583A683B78380EC91E09183808388
:1042C00085EC90E09587848784EC90E097878687DB
:1042D00080EC90E0918B808B81EC90E0938B828BD3
:1042E00082EC90E0958B848B86EC90E0978B868BAC
:1042F000118E128E138E148EEBE5F3E01682178268
:1043000010861186128613861486158616861786E1
:10431000108A118A128A138A148A158A88EF96E005
:104320000E94480788EF282E86E0382E4DE857E98E
:104330006EE07FE3F10143835483658376838CE5EC
:104340009FE8A6E4B2EC87839087A187B2871486A2
:10435000138687E890E09687858784EC9FEF908BA3
:10436000878786E090E0928B818B94E6E92EF12C92
:10437000F48AE38A26E9A22EB12CB68AA58A8EE6B3
:1043800090E0908F878B8FE090E0928F818F412C0F
:10439000512C38E4632E32E4732E438E548E658E96
:1043A000768E02E310E010A3078F86ED96E0498336
:1043B0005A836B837C830E944807E6EDF6E089EC24
:1043C00096E7AEE8BFE383839483A583B6838AE947
:1043D00099E1A3E1B3EC87839087A187B287882412
:1043E0008394912C948683868EE890E096878587C7
:1043F00086EA9FEF908B878789E090E0928B818B94
:1044000086E490E0948B838B83E790E0968B858B9A
:1044100080E590E0908F878B8EE090E0928F818F87
:10442000438E548E658E768E10A3078F84EB96E0B4
:104430000E944807E4EBF6E080E090E0A0E8BFE3EC
:1044400083839483A583B68380E090E0A0E8BFEBEC
:1044500087839087A187B28782E090E094878387E3
:1044600016861586108A178653E0C52ED12CD28A5F
:10447000C18A8EE190E0948B838BB68AA58A8AE507
:1044800090E0908F878B81E190E0928F818F438EB7
:10449000548E658E768E10A3078F82E996E00E9477
:1044A0004807E2E9F6E049815A816B817C814383C8
:1044B00054836583768388EB9EE1A5E7B2EC87831E
:1044C0009087A187B287D486C38616861586108A00
:1044D000178685E090E0928B818B8CE390E0948B43
:1044E000838B82E890E0968B858BF08EE78A80E163
:1044F00090E0928F818F438E548E658E768E10A3BE
:10450000078FE6E2F6E01082118293828282358282
:10451000248282E2E6EDF6E0ACE2B6E001900D9294
:104520008A95E1F782E2E4EBF6E0AEE4B6E00190D2
:104530000D928A95E1F782E2E2E9F6E0A0E7B6E0C3
:1045400001900D928A95E1F7E2E2F6E084E090E0D6
:104550009183808387E090E09383828361E084E0AD
:104560000E94AF0A60E084E00E94630A60E087E096
:104570000E94AF0A1092CC031092F2051092F3053C
:1045800084E680931406109219068EED91E09093C4
:1045900013068093120680E580931F061092200672
:1045A000E3EAF3E0148215821382128282ED91E035
:1045B000918380830F900F900F900F90DF91CF9198
:1045C0001F910F91FF90EF90DF90CF90BF90AF9031
:1045D0009F908F907F906F905F904F903F902F9023
:1045E0000895BB27FA01A62F621771058105910571
:1045F000330B30FB66F0AA27660F771F881F991FC1
:10460000AA1FA21710F0A21B63953850A9F7A05D4E
:10461000AA3308F0A95DA19336F7B111B1931082C6
:10462000CA010C941323DC01FC01672F71917723DD
:10463000E1F7329704C07C916D9370836291AE175D
:10464000BF07C8F30895DB018F939F930E947423E3
:10465000BF91AF91A29F800D911DA39F900DB29F1E
:10466000900D11240895A1E21A2EAA1BBB1BFD0177
:104670000DC0AA1FBB1FEE1FFF1FA217B307E40741
:10468000F50720F0A21BB30BE40BF50B661F771F99
:10469000881F991F1A9469F7609570958095909579
:1046A0009B01AC01BD01CF010895052E97FB1EF4BF
:1046B00000940E946C2357FD07D00E94332307FC0F
:1046C00003D04EF40C946C23509540953095219571
:1046D0003F4F4F4F5F4F089590958095709561952E
:1046E0007F4F8F4F9F4F08950E94BE23A59F900D2F
:1046F000B49F900DA49F800D911D11240895B7FFC4
:104700000C9474230E947423821B930B08952F92A0
:104710003F924F925F926F927F928F929F92AF9251
:10472000BF92CF92DF92EF92FF920F931F93CF939E
:10473000DF93CDB7DEB7CA1BDB0B0FB6F894DEBF35
:104740000FBECDBF09942A88398848885F846E845B
:104750007D848C849B84AA84B984C884DF80EE80A5
:10476000FD800C811B81AA81B981CE0FD11D0FB6AE
:10477000F894DEBF0FBECDBFED010895A29FB0013A
:10478000B39FC001A39F700D811D1124911DB29F85
:10479000700D811D1124911D0895991B79E004C0AD
:1047A000991F961708F0961B881F7A95C9F7809570
:1047B0000895AA1BBB1B51E107C0AA1FBB1FA61768
:1047C000B70710F0A61BB70B881F991F5A95A9F7BA
:1047D00080959095BC01CD01089597FB072E16F4A6
:1047E000009407D077FD09D00E94D92307FC05D09B
:1047F0003EF4909581959F4F0895709561957F4FF8
:104800000895EE0FFF1F0590F491E02D0994CF93CA
:10481000DF938230910510F482E090E0E0911C0774
:10482000F0911D0720E030E0C0E0D0E0309711F1BA
:104830004081518148175907C0F04817590761F462
:1048400082819381209719F09B838A832BC0909358
:104850001D0780931C0726C02115310519F042174A
:10486000530718F49A01BE01DF01EF010280F381C2
:10487000E02DDCCF2115310509F1281B390B24303F
:10488000310590F412968D919C91139761157105E5
:1048900021F0FB019383828304C090931D078093D2
:1048A0001C07FD01329644C0FD01E20FF31F819306
:1048B0009193225031092D933C933AC020911A07CD
:1048C00030911B07232B41F4209102013091030109
:1048D00030931B0720931A072091000130910101AA
:1048E0002115310541F42DB73EB740910401509197
:1048F0000501241B350BE0911A07F0911B07E21705
:10490000F307A0F42E1B3F0B2817390778F0AC01F2
:104910004E5F5F4F2417350748F04E0F5F1F5093CF
:104920001B0740931A078193919302C0E0E0F0E0E7
:10493000CF01DF91CF9108950F931F93CF93DF9312
:10494000009709F48CC0FC01329713821282009107
:104950001C0710911D070115110581F4208131817B
:10496000820F931F20911A0730911B0728173907D0
:1049700079F5F0931B07E0931A0771C0D80140E066
:1049800050E0AE17BF0750F412962D913C9113974B
:10499000AD012115310509F1D901F3CF9D01DA01EE
:1049A0003383228360817181860F971F821793075B
:1049B00069F4EC0128813981260F371F2E5F3F4FA4
:1049C000318320838A819B8193838283452B29F4C1
:1049D000F0931D07E0931C0742C01396FC93EE93DF
:1049E0001297ED01499159919E01240F351FE2174D
:1049F000F30771F480819181840F951F02961196BF
:104A00009C938E938281938113969C938E9312979D
:104A1000E0E0F0E0D80112968D919C9113970097F9
:104A200019F0F8018C01F6CF8D919C9198012E5FC1
:104A30003F4F820F931F20911A0730911B072817B1
:104A4000390769F4309729F410921D0710921C075A
:104A500002C01382128210931B0700931A07DF9182
:104A6000CF911F910F910895A0E0B0E0EAE3F5E245
:104A70000C948B23EC01009721F4CB010E940724B6
:104A8000B8C0FC01E60FF71F9C0122503109E21764
:104A9000F30708F4ACC0D9010D911C9111970617CA
:104AA0001707B0F00530110508F49FC0C80104973E
:104AB0008617970708F499C002501109061B170BB7
:104AC000019311936D937C93CF010E949C248DC020
:104AD0005B01A01AB10A4C01800E911EA0911C0727
:104AE000B0911D0740E050E0E12CF12C109709F443
:104AF0004AC0A815B905D1F56D907C901197630156
:104B000082E0C80ED11CCA14DB0480F1A3014A194B
:104B10005B096A0182E0C80ED11C1296BC90129704
:104B20001396AC91B5E0CB16D10440F0B282A383CA
:104B300051834083D9016D937C930AC00E5F1F4F50
:104B4000C301800F911FF90191838083EB2DFA2F10
:104B5000E114F10431F0D7011396FC93EE93129710
:104B600044C0F0931D07E0931C073FC08D919C91BA
:104B700011974817590708F4AC017D0112960D9062
:104B8000BC91A02DB3CF80911A0790911B07881577
:104B90009905E1F446175707C8F4809100019091F8
:104BA0000101009741F48DB79EB7409104015091E7
:104BB0000501841B950BE817F907C8F4F0931B0750
:104BC000E0931A07F901718360830FC0CB010E9443
:104BD00007247C01009759F0A801BE010E9410260D
:104BE000CE010E949C24C70104C0CE0102C080E017
:104BF00090E0CDB7DEB7EEE00C94A72381E090E023
:104C0000F8940C942F26FB01DC0104C08D910190D7
:104C1000801921F441505040C8F7881B990B089522
:104C2000FB01DC0102C001900D9241505040D8F7C9
:104C30000895FB01DC0101900D920020E1F7089539
:104C4000FB01DC014150504048F001900D920020E2
:104C5000C9F701C01D9241505040E0F7089511E09E
:104C6000C8EFD1E004C0FE010E9401242196C93F93
:084C7000D107C9F7F894FFCF4A
:104C780000001E07800000001100230034004600D9
:104C8800570069007A008B009C00AE00BF00D0007E
:104C9800E100F20003011401240135014601560127
:104CA8006601770187019701A701B601C601D50101
:104CB800E501F4010302120221022F023E024C0216
:104CC8005A0268027502830290029D02AA02B70284
:104CD800C302CF02DB02E702F302FE020903140358
:104CE8001F03290333033D0347035003590362039A
:104CF8006B0373037B0383038A03920399039F0364
:104D0800A603AC03B203B703BC03C103C603CA03BB
:104D1800CE03D203D603D903DC03DE03E103E303A6
:104D2800E403E603E703E703E803E8030000000001
:104D38009609A1192E09DD095F093D0951090000ED
:104D48000000D602D302CD02D00200000000EF0C12
:104D5800BB0C580C564D4450565F317C315F564D54
:104D68004450560D0A00433A5C55736572735C747F
:104D780079626C755C417070446174615C4C6F63FE
:104D8800616C5C54656D705C564D4275696C6473FA
:104D98005C4175746F4D6F76655C537061726B46DC
:104DA800756E5F526564426F6172645C44656275DA
:104DB800675C4175746F4D6F76652E637070206304
:104DC8006F6D70696C6564204E6F762020312032DB
:104DD8003031372061742031353A32303A31300081
:104DE800303132333435363700747874002F546FCD
:084DF800706F4D617073000043
:00000001FF
