:100000000C94FF010C9427020C9427020C942702F5
:100010000C9427020C9427020C9427020C942702BC
:100020000C9427020C9427020C9427020C942E089F
:100030000C9427020C9427020C9427020C9427029C
:100040000C942D0C0C9427020C94FB0A0C94D50AEA
:100050000C9427020C9427020C9427020C9427027C
:100060000C9427020C9427020000000800020100F3
:100070000003040700000000000000000000000072
:10008000240027002A00486561646572202865768F
:100090006572797468696E6729207072696E74651B
:1000A0006420746F20534420636172642E2E2E20CE
:1000B00049207468696E6B2E004175746F4D6F76C0
:1000C00065203A20006865696768742C2072616455
:1000D0006975732C2074686574612C20736F6E6170
:1000E00072206D6561737572656D656E7400636C09
:1000F000617720736572766F20616E676C652C2066
:10010000636C61772061646A20616E676C652C2086
:10011000636C6177206865696768742C20636C6123
:1001200077207261646975732C0074757272656EE4
:100130007420736572766F20616E676C652C207415
:1001400075727265742061646A20616E676C652CDB
:1001500020747572726574206865696768742C20F4
:10016000747572726574207261646975732C0062B3
:100170006F6F6D3220736572766F20616E676C658C
:100180002C20626F6F6D322061646A20616E676C33
:10019000652C20626F6F6D32206865696768742C0A
:1001A00020626F6F6D32207261646975732C00621A
:1001B0006F6F6D3120736572766F20616E676C654D
:1001C0002C20626F6F6D312061646A20616E676CF4
:1001D000652C20626F6F6D31206865696768742CCB
:1001E00020626F6F6D31207261646975732C004FEE
:1001F00070656E2066696C65206661696C65643A3D
:1002000020004175746F4D6F7665203A2000436879
:10021000616E6765206469726563746F72792074BA
:100220006F2022546F706F4D617073222066616978
:100230006C65642E004175746F4D6F7665203A20B1
:1002400000556E697175652073686F7274206669F8
:100250006C65206E616D653A20004175746F4D6F5D
:100260007665203A20004372656174652022546FE0
:10027000706F4D61707322206661696C65642E0039
:100280004372656174652022546F706F4D617073A5
:1002900022207375636365656465642E004175741F
:1002A0006F4D6F7665203A2000534420696E697463
:1002B00020737563636573732E00534420696E6900
:1002C00074206661696C65642E004175746F4D6FB2
:1002D0007665203A20005374617274696E6720530A
:1002E00050492053442063617264207374756666BC
:1002F0002E004175746F4D6F7665203A2000466977
:100300006E697368656420776967676C696E6720DA
:100310006120736572766F2E004175746F4D6F7634
:1003200065203A2000536572766F206661696C65BE
:100330006420746F206174746163682E0053657269
:10034000766F2061747461636865642E0041757412
:100350006F4D6F7665203A20004175746F4D6F7652
:1003600065203A2000000000002300260029000438
:10037000040404040404040202020202020303034C
:100380000303030102040810204080010204081046
:100390002001020408102057726974652073756388
:1003A000636573732E005772697465206572726F8E
:1003B000722E004175746F4D6F7665203A200044AF
:1003C000617461207261746520676F6F642E0044F0
:1003D000617461207261746520746F6F2068696751
:1003E000682E004175746F4D6F7665203A200000CD
:1003F000000000250028002B000084248324112401
:100400001FBECFEFD8E0DEBFCDBF12E0A0E0B1E06D
:10041000EEE3F8E502C005900D92AC3AB107D9F7CA
:1004200027E0ACEAB2E001C01D92A234B207E1F7C6
:1004300011E0CEEFD1E004C02197FE010E94E42933
:10044000CD3FD107C9F70E94931A0C94122C0C943B
:100450000000CF92DF92EF92FF92CF93DF93EC01F7
:10046000603282E078070CF03DC077FD06C0653B46
:1004700071052CF064EB70E002C060E070E08981EF
:1004800028E830E06901C81AD10887FDD394CC0C64
:10049000DD1CCC0CDD1C0D2C000CEE08FF088A8145
:1004A00028E532E0281B310987FD3395220F331FE1
:1004B000220F331FC901330FAA0BBB0B9C01AD01E7
:1004C0002C193D094E095F09DB010E94ED2724EB41
:1004D00030E040E050E00E94C327C20ED31EE41E6D
:1004E000F51EB60188818C3080F5998148E850E08E
:1004F000491B510997FD5395440F551F440F551F34
:100500006417750784F09A8128E532E0291B3109C8
:1005100097FD3395220F331F220F331FAB01261790
:1005200037070CF4A90142505109440F551F2FB74A
:10053000F89490E0FC01EE0FFF1F8E0F9F1FFC014F
:10054000E455FD4F528341832FBFDF91CF91FF9040
:10055000EF90DF90CF900895CF93DF93EC0124EBE1
:1005600030E0B9010E94D029AC01465A5F4F453BAB
:10057000510510F4FE0103C0F901E81BF90BEE0F61
:10058000FF1FEA5FFE4F20813181D7FF05C088271A
:100590009927821B930B01C0C901DF91CF91089568
:1005A00081E00895089580E090E0089504960C9409
:1005B000A31404960C940315CF93DF931F92CDB729
:1005C000DEB7698341E050E0BE016F5F7F4F049664
:1005D0000E9403150F90DF91CF9108954F925F9283
:1005E0006F927F928F929F92AF92BF92CF92DF9243
:1005F000EF92FF920F931F93CF93DF93EC014A0189
:100600005B014C845D846E847F84A881AA2309F4F5
:1006100091C0488959896A897B8984169506A606FE
:10062000B70609F48DC081149104A104B10429F422
:100630001C861D861E861F8678C0A3FF0BC0088DF2
:10064000198D2A8D3B8D081519052A053B0508F4DF
:1006500071C014C0A5FF12C0EE81FF818681978111
:1006600025E0880F991F2A95E1F7A0E0B0E08815F2
:100670009905AA05BB0508F45DC057C0EE81FF814E
:10068000848190E009968A019B010150110921099A
:100690003109082E04C036952795179507950A94B9
:1006A000D2F775016401B1E0CB1AD108E108F10875
:1006B00004C0F694E794D794C7948A95D2F7C016ED
:1006C000D106E206F30620F0452B462B472B81F49A
:1006D000A6FF05C0848D958DA68DB78D04C08C8D29
:1006E0009D8DAE8DBF8D8C879D87AE87BF8704C0E3
:1006F000C01AD10AE20AF30A8E01045F1F4FC11427
:10070000D104E104F10489F04C855D856E857F8517
:1007100098018E819F810E94840F91E0C91AD108AF
:10072000E108F10818165CF305C0888A998AAA8A3C
:10073000BB8A06C04C865D866E867F8680E001C0DF
:1007400081E0DF91CF911F910F91FF90EF90DF90AB
:10075000CF90BF90AF909F908F907F906F905F9061
:100760004F900895CF92DF92EF92FF920F931F93D5
:10077000CF93DF93EC01862F488959896A897B8959
:100780008A019B01E5E03695279517950795EA952F
:10079000D1F7102F1F7011F0811151C0988199234A
:1007A000D9F18A8180FF38C093FF63C0C88CD98C8F
:1007B000EA8CFB8CC41AD50AE60AF70A22E0C216B4
:1007C000D104E104F10408F44EC09A01317095FDA2
:1007D00061C0EE81FF8103816A017B0189E0F694AB
:1007E000E794D794C7948A95D1F70C21232B09F06D
:1007F0007EC001117CC0452B462B472B09F45CC001
:100800004C855D856E857F859E01245F3F4FCF01BE
:100810000E94840F87FF60C08981826089838FEF87
:100820009FEF0197E9F488899989AA89BB894F9636
:10083000A11DB11D888B998BAA8BBB8B08C0405E14
:100840005F4F6F4F7F4F488B598B6A8B7B8B8E81AD
:100850009F818B9620E2129F800D911D112480C0F4
:1008600080E090E07DC0CD28CE28CF2809F0ADCF24
:100870000EC095FFAACFEE81FF818681978125E08A
:10088000880F991F2A95E1F78417950719F480E0DE
:1008900090E061C099E076956795579547959A9550
:1008A000D1F7EE81FF81848D958DA68DB78D480F90
:1008B000591F6A1F7B1F39C096FF05C0848D958D17
:1008C000A68DB78D04C08C8D9D8DAE8DBF8D8C8710
:1008D0009D87AE87BF870BC0811109C08881807753
:1008E00009F49ACF81E090E021E030E036C0EE815B
:1008F000FF814C855D856E857F8542505109610978
:100900007109048004C0440F551F661F771F0A94A5
:10091000D2F780899189A289B389480F591F6A1F2C
:100920007B1F400F511D611D711D8E819F8120E035
:1009300084960E94DC0E892B09F46ECF88899989F0
:10094000AA89BB890196A11DB11D888B998BAA8BA1
:10095000BB8B81E090E020E030E0821B930B61CF05
:10096000DF91CF911F910F91FF90EF90DF90CF908B
:100970000895FC018081811114C080E2DF01982F6D
:100980001D929A95E9F777836683DB0115969C9112
:10099000903119F0903229F480E4808381E08283E1
:1009A000089580E00895CF93DF93EC010E94A31493
:1009B0001882DF91CF910895CF92DF92EF92FF924C
:1009C0000F931F93CF93DF93CDB7DEB7E3970FB6A7
:1009D000F894DEBF0FBECDBF7C018B015BAB4AAB91
:1009E000D22E19821A82FC018081882311F080E0C6
:1009F00059C0FB0180818077D1F3EAA9FBA98081EE
:100A00008F32D9F4EAA9FBA980818F3221F4319683
:100A1000FBABEAABF7CFF80166817781811104C0A7
:100A2000C7010E94B9043EC0CE0101960E94B904DC
:100A30008823E9F28E010F5F1F4F80E2C82EAE01BE
:100A40004E5C5F4FBE016F5D7F4F8AA99BA90E94DC
:100A50008513882361F2EAA9FBA980818823D1F05C
:100A600021E0AE014F5D5F4FB801C7010E94091040
:100A7000882309F4BCCFF701DE0111968C2D01907B
:100A80000D928A95E1F7C7010E94D3048E010F5F92
:100A90001F4FD5CF2D2DAE014F5D5F4FB801C70160
:100AA0000E940910E3960FB6F894DEBF0FBECDBFCB
:100AB000DF91CF911F910F91FF90EF90DF90CF903A
:100AC00008953F924F925F926F927F928F929F9282
:100AD000AF92BF92CF92DF92EF92FF920F931F934C
:100AE000CF93DF93CDB7DEB728970FB6F894DEBF6C
:100AF0000FBECDBF4C01DC0112968C91129780681D
:100B000012968C9312971C964D905D906D907C90F0
:100B10001F971696AD90BC9017974114510461042D
:100B2000710461F4D50118968D919D910D90BC9141
:100B3000A02D8D839E83AF83B88704C04D825E82D3
:100B40006F827886CD80DE80EF80F884BFEFCB1A8D
:100B5000DB0AEB0AFB0AF501808D918DA28DB38D26
:100B60008C159D05AE05BF0528F482E0C82ED12C5A
:100B7000E12CF12C9E012F5F3F4FB701A601C5016B
:100B80000E94840F87FD20C0882341F089819A81CB
:100B9000AB81BC81892B8A2B8B2B51F08D819E815F
:100BA000AF81B885C816D906EA06FB0679F60CC0EF
:100BB0000FEF1FEF2FEF3FE0B701A601C5010E9425
:100BC000210F382E811102C0312C2BC04114510449
:100BD0006104710451F097018601B301A201C501BE
:100BE0000E94210F811108C0EFCFD5011896CD9238
:100BF000DD92ED92FC921B97F50180A191A1A2A13B
:100C0000B3A1B7FD07C00197A109B10980A391A3C2
:100C1000A2A3B3A3D4011C96CD92DD92ED92FC92D7
:100C20001F97832D28960FB6F894DEBF0FBECDBF59
:100C3000DF91CF911F910F91FF90EF90DF90CF90B8
:100C4000BF90AF909F908F907F906F905F904F90EC
:100C50003F9008958F929F92AF92BF92EF92FF9232
:100C60000F931F93CF93DF93EC01888185FF02C020
:100C700010E06CC088899989AA89BB8981159E4F2B
:100C8000AF41B105A8F7CE010E946105182F882356
:100C900079F3EE81FF814C855D856E857F854250BD
:100CA000510961097109048004C0440F551F661F72
:100CB000771F0A94D2F780889188A288B388840E1F
:100CC000951EA61EB71E25E0B501A401CF0184968E
:100CD0000E94DC0E7C01892B59F280E092E0D70162
:100CE000FC011D923197E9F701E0EE81FF819281CD
:100CF0000917A8F480819181DC01ED91FC910480B9
:100D0000F581E02D9701B501A401400F511D611D32
:100D1000711D0995882309F4ABCF0F5FE6CF492FEA
:100D200050E060E070E089E0440F551F661F771FB8
:100D30008A95D1F788899989AA89BB89480F591F53
:100D40006A1F7B1F488B598B6A8B7B8B812FDF91AE
:100D5000CF911F910F91FF90EF90BF90AF909F9018
:100D60008F900895AF92BF92CF92DF92EF92FF9251
:100D70000F931F93CF93DF93CDB7DEB7A0970FB636
:100D8000F894DEBF0FBECDBF8C01DB019C91907744
:100D900009F4CEC07B0123ECC8010E94091088230E
:100DA00009F4C6C081E0F801828350E1D52ED082DB
:100DB000C8010E942A06882309F4BAC0F801848574
:100DC0009585A685B785848F958FA68FB78F40E0D0
:100DD00050E0BA01C8010E94EE02C8010E94A314AB
:100DE000882309F4A5C0D80154964D915D916D9169
:100DF0007C91579716968D919C91179721E0849638
:100E00000E94DC0E009709F493C0F801248135811B
:100E10002F70332745E0220F331F4A95E1F7820FE9
:100E2000931FDC011B96DC9220E2FC01DE0111968F
:100E300001900D922A95E1F7FC01A488B588C28C37
:100E4000D38C8EE28983FE013296CE010C9620E28D
:100E50002193E817F907E1F7D8011696ED91FC9177
:100E600017975C964D915D916D917C915F97425083
:100E7000510961097109048004C0440F551F661FA0
:100E8000771F0A94D2F780899189A289B389480F84
:100E9000591F6A1F7B1F21E0CF0184960E94DC0E40
:100EA000009709F445C0BE8AAD8ADC8ECB8E20E265
:100EB000FE013196DC0101900D922A95E1F72EE2B8
:100EC0002A83F701448D558D668D778D7E8B6D8BD2
:100ED0005C8F4B8F20E2FE013196DC0190960190F1
:100EE0000D922A95E1F7D80116960D911C9117974E
:100EF000C80184960E94820E8823D1F0F801808177
:100F00009181DC01ED91FC910280F381E02DA096AE
:100F10000FB6F894DEBF0FBECDBFDF91CF911F910A
:100F20000F91FF90EF90DF90CF90BF90AF9009941A
:100F300080E0A0960FB6F894DEBF0FBECDBFDF9164
:100F4000CF911F910F91FF90EF90DF90CF90BF90C6
:100F5000AF9008958F929F92AF92BF92CF92DF92FF
:100F6000EF92FF92FC01828128E532E06901C81A04
:100F7000D10887FDD394CC0CDD1CCC0CDD1C0D2CD2
:100F8000000CEE08FF08818128E830E04901881A4A
:100F9000910887FD9394880C991C880C991C092C46
:100FA000000CAA08BB0880818F3FC1F090E0FC01D3
:100FB000EE0FFF1F8E0F9F1FFC01E455FD4F218197
:100FC000328143E0220F331F4A95E1F754E0369512
:100FD00027955A95E1F72E5F3F4F02C020E030E0A1
:100FE0002F5F3F4FC901330FAA0BBB0B9C01AD0113
:100FF000281939094A095B09A4EBB0E00E94E227ED
:10100000A7019601281939094A095B090E94C327DB
:10101000C901FF90EF90DF90CF90BF90AF909F906D
:101020008F900895FC019091D6029C30A0F481E04D
:10103000890F8093D6029083892F90E0FC01EE0FF8
:10104000FF1F8E0F9F1FFC01E455FD4F88EB9BE0B7
:101050009283818308958FEF808308951F920F926A
:101060000FB60F9211242F933F934F935F936F937B
:101070007F938F939F93AF93BF93EF93FF93809151
:10108000D50287FF05C010928500109284001BC016
:101090002091D502022E000C330B8091D60290E0F5
:1010A0002817390784F48091D502082E000C990B7B
:1010B000FC01EE0FFF1F8E0F9F1FFC01E455FD4F3B
:1010C000808186FD15C08091D5028F5F8093D50207
:1010D0002091D502022E000C330B8091D60290E0B5
:1010E00028173907C4F48091D5028C3064F113C0FD
:1010F0008091D502082E000C990BFC01EE0FFF1F0A
:101100008E0F9F1FFC01E455FD4F808160E08F73BF
:101110000E94560BD8CF8091840090918500049650
:1011200080349C4918F480E49CE905C080918400D7
:1011300090918500049690938900809388008FEFAA
:101140008093D5023BC0209184003091850080912E
:10115000D502082E000C990BFC01EE0FFF1F8E0F1D
:101160009F1FFC01E455FD4F81819281820F931FE7
:1011700090938900809388008091D502082E000CFE
:10118000990BFC01EE0FFF1F8E0F9F1FFC01E45512
:10119000FD4F808186FF12C08091D502082E000C81
:1011A000990BFC01EE0FFF1F8E0F9F1FFC01E455F2
:1011B000FD4F808161E08F730E94560BFF91EF918C
:1011C000BF91AF919F918F917F916F915F914F915F
:1011D0003F912F910F900FBE0F901F9018959B017C
:1011E000FC01638974892617370754F0FC0165896F
:1011F0007689621773071CF4283C31050CF0B9019D
:101200000C9429028F929F92AF92BF92CF92DF925D
:10121000EF92FF920F931F93CF93DF936C018B019B
:101220000E94AA077C010197833B910580F0B801D9
:10123000C601DF91CF911F910F91FF90EF90DF904A
:10124000CF90BF90AF909F908F900C94EF080E942A
:10125000210C4B015C0124EF820E21E0921EA11CA7
:10126000B11CE70120E0C017D10709F441C0C80153
:101270008C1B9D0B222331F09C012E5F3F4F2530AC
:10128000310570F421E030E01816190614F020E062
:1012900030E0892F881F8827881F281B31090FC03D
:1012A00021E030E01816190614F020E030E0892F14
:1012B000881F8827881F281B3109220F331FC20F60
:1012C000D31FEC16FD06A1F0BE01C6010E94EF0877
:1012D00069E170E080E090E00E94E70B0E94210C41
:1012E00021E086169706A806B90608F0BCCF9FCF66
:1012F000DF91CF911F910F91FF90EF90DF90CF90F2
:10130000BF90AF909F908F900895CF93DF93EC01A3
:101310000E94AA072F853889820F931FDF91CF91F2
:101320000895CF93DF93FC01C585D6850E9485097A
:1013300064EB70E00E94D0292AE530E0A901481B47
:10134000590BCA010E94AC02FC01EC9FC001ED9F49
:10135000900DFC9F900D11248C509E4F68EE73E011
:101360000E94D029CB01DF91CF910895CF93DF93D5
:10137000FC01C585D6850E9485090E94AC029C01AE
:101380002C9FC0012D9F900D3C9F900D11248C50DF
:101390009E4F68EE73E00E94D029CB01DF91CF9180
:1013A0000895FF920F931F93CF93DF938C01F62E36
:1013B000EC01C55DDD4FCE010E94D304B801CE0122
:1013C0000E94B904882371F0FF2061F09091160605
:1013D000907739F026E136E03093E1022093E00285
:1013E00001C080E0DF91CF911F910F91FF90089590
:1013F000FC01538D448D252F30E0842F90E0821B1B
:10140000930B541710F0CF96089501970895FC019F
:10141000918D828D981761F0828DDF01A80FB11D2B
:101420005D968C91928D9F5F9F73928F90E008954F
:101430008FEF9FEF0895FC01918D828D981731F009
:10144000828DE80FF11D858D90E008958FEF9FEF5D
:101450000895FC01918D228D892F90E0805C9F4F33
:10146000821B91098F739927089582EE92E00E9462
:10147000290A21E0892B09F420E0822F0895FC013C
:10148000848DDF01A80FB11DA35ABF4F2C91848D0D
:1014900090E001968F739927848FA689B7892C9342
:1014A000A089B1898C9180648C93938D848D9813DD
:1014B00006C00288F389E02D80818F7D80830895A6
:1014C000EF92FF920F931F93CF93DF93EC0181E094
:1014D000888F9B8D8C8D981305C0E889F989808150
:1014E00085FD24C0F62E0B8D10E00F5F1F4F0F738C
:1014F0001127E02E8C8DE8120CC00FB607FCFACF36
:10150000E889F989808185FFF5CFCE010E943F0AE5
:10151000F1CF8B8DFE01E80FF11DE35AFF4FF082F2
:101520000B8FEA89FB898081806207C0EE89FF8981
:101530006083E889F98980818064808381E090E01C
:10154000DF91CF911F910F91FF90EF900895CF936E
:10155000DF93EC01888D8823C9F0EA89FB898081BB
:1015600085FD05C0A889B9898C9186FD0FC00FB68D
:1015700007FCF5CF808185FFF2CFA889B9898C91CE
:1015800085FFEDCFCE010E943F0AE7CFDF91CF91DB
:10159000089580E090E0892B29F00E94350A81119E
:1015A0000C94000008950E94E12B1F920F920FB639
:1015B0000F9211242F933F934F935F936F937F93D9
:1015C0008F939F93AF93BF93EF93FF9382EE92E03D
:1015D0000E943F0AFF91EF91BF91AF919F918F9130
:1015E0007F916F915F914F913F912F910F900FBE1F
:1015F0000F901F9018951F920F920FB60F92112403
:101600002F938F939F93EF93FF93E091F202F091CA
:10161000F3028081E091F802F091F90282FD12C09C
:1016200090818091FB028F5F8F732091FC02821763
:1016300051F0E091FB02F0E0EE51FD4F958F809369
:10164000FB0201C08081FF91EF919F918F912F91BB
:101650000F900FBE0F901F901895833081F028F4E3
:10166000813099F08230A1F008958730A9F0883058
:10167000B9F08430D1F4809180008F7D03C08091D7
:1016800080008F7780938000089584B58F7702C0A3
:1016900084B58F7D84BD08958091B0008F7703C09D
:1016A0008091B0008F7D8093B00008951F93CF93F9
:1016B000DF93282F30E0F901E859FF4F8491F901B9
:1016C000ED57FC4FD491F901E159FC4FC491CC2363
:1016D000C9F0162F81110E942D0BEC2FF0E0EE0FB8
:1016E000FF1FE151FC4FA591B4918FB7F8941111F0
:1016F00005C09C91ED2FE095E92302C0EC91ED2B04
:10170000EC938FBFDF91CF911F910895CF93DF931B
:1017100090E0FC01ED57FC4F2491FC01E159FC4F96
:101720008491882361F190E0880F991FFC01E458AF
:10173000FF4FC591D491FC01E151FC4FA591B491AB
:10174000611109C09FB7F89488812095822388830E
:10175000EC912E230BC0623061F49FB7F89438816E
:10176000822F809583238883EC912E2B2C939FBF0F
:1017700006C08FB7F894E8812E2B28838FBFDF91A6
:10178000CF9108953FB7F8948091DC029091DD02EB
:10179000A091DE02B091DF0226B5A89B05C02F3FC5
:1017A00019F00196A11DB11D3FBFBA2FA92F982F87
:1017B0008827820F911DA11DB11DBC01CD0142E002
:1017C000660F771F881F991F4A95D1F708958F924A
:1017D0009F92AF92BF92CF92DF92EF92FF926B01F6
:1017E0007C010E94C20B4B015C01C114D104E104D5
:1017F000F104F1F00E94C20BDC01CB0188199909B8
:10180000AA09BB09883E9340A105B10570F321E008
:10181000C21AD108E108F10888EE880E83E0981E0C
:10182000A11CB11CC114D104E104F10419F7DDCFEE
:10183000FF90EF90DF90CF90BF90AF909F908F90F0
:1018400008952FB7F8946091D8027091D9028091D1
:10185000DA029091DB022FBF08951F920F920FB60C
:101860000F9211242F933F938F939F93AF93BF9326
:101870008091D8029091D902A091DA02B091DB0256
:101880003091D70223E0230F2D3720F40196A11DBC
:10189000B11D05C026E8230F0296A11DB11D20939E
:1018A000D7028093D8029093D902A093DA02B09322
:1018B000DB028091DC029091DD02A091DE02B0910A
:1018C000DF020196A11DB11D8093DC029093DD0221
:1018D000A093DE02B093DF02BF91AF919F918F91F1
:1018E0003F912F910F900FBE0F901F9018958EBDB6
:1018F0000DB407FEFDCF08958FEF8EBD0DB407FE2A
:10190000FDCF8EB50895CF93DF93FC01258122236F
:1019100061F0EC010380F481E02D61E082810E949E
:10192000560B8FEF0E94770C1D82DF91CF910895A7
:101930000F931F93CF93DF938C01862FEA010E94B0
:10194000770C88818EBD8981FE013296DE5F0DB4F1
:1019500007FEFDCF8EBDEC17FD0711F08191F7CF8B
:101960000DB407FEFDCF8FEF0E94770C8FEF0E9422
:10197000770C0E947C0CF8018683982F9F7195301C
:1019800039F087E58283C8010E94830C80E001C0A2
:1019900081E0DF91CF911F910F910895CF93DF9355
:1019A000FC012581211110C0EC010380F481E02DA0
:1019B000908181819CBD8DBDEB81FC8160E0828145
:1019C0000E94560B81E08D83DF91CF910895EF92B5
:1019D000FF921F93CF93DF9300D000D0CDB7DEB737
:1019E0007C01162F29833A834B835C83FC0185811C
:1019F000811103C0C7010E94CE0C0E94A016812F46
:101A000080640E94770C8C810E94770C8B810E94ED
:101A1000770C8A810E94770C89810E94770C1123B0
:101A200011F087E801C085E90E94770C1C3011F4A1
:101A30000E947C0C10E00E947C0CF701868387FFDB
:101A400004C01F3F11F01F5FF6CF0F900F900F9053
:101A50000F90DF91CF911F91FF90EF900895CF925B
:101A6000DF92EF92FF920F931F93CF93DF93EC01DE
:101A70006A017B0189018C85823049F488859985CA
:101A8000AA85BB8584179507A607B70719F1E881D2
:101A9000F9810280F381E02DCE0109958823C9F1F7
:101AA0008F81A7019601833039F089E0220F331F1F
:101AB000441F551F8A95D1F769E1CE010E94E70CBA
:101AC000882311F083E30BC0C886D986EA86FB869B
:101AD00082E08C870E94A016811103C08AE58A8368
:101AE00007C0A8016CEFCE010E94980C811105C0BF
:101AF000CE010E94830C80E00CC0488559856A8520
:101B00007B854F5F5F4F6F4F7F4F488759876A874D
:101B10007B87DF91CF911F910F91FF90EF90DF9026
:101B2000CF9008951F93CF93DF93EC018C85813084
:101B3000A9F41C8620E030E0A9016CE0CE010E94EF
:101B4000E70C882339F088E28A83CE010E94830C57
:101B500010E017C0CE010E94830C12C0823081F4C5
:101B60001C860E94A016182F882321F08DEF0E945A
:101B7000770C02C086E58A83CE010E94830C01C0E7
:101B800011E0812FDF91CF911F910895CF92DF92C5
:101B9000EF92FF920F931F93CF93DF93EC016A01B3
:101BA0007B0189018C85813049F488859985AA85D6
:101BB000BB85481759076A077B0741F1E881F9811E
:101BC0000280F381E02DCE0109958823B9F08F8141
:101BD000A7019601833039F089E0220F331F441F9B
:101BE000551F8A95D1F762E1CE010E94E70C882348
:101BF00039F081E38A83CE010E94830C80E018C013
:101C0000C886D986EA86FB8681E08C87B801CE013A
:101C10000E94A118882391F3488559856A857B85A0
:101C20004F5F5F4F6F4F7F4F488759876A877B872A
:101C3000DF91CF911F910F91FF90EF90DF90CF90A8
:101C400008950F931F93CF93DF93EC0189018F8148
:101C5000833039F089E0440F551F661F771F8A953E
:101C6000D1F79A01AB0168E1CE010E94E70C88230D
:101C700019F082E38A830CC0A8016EEFCE010E94A6
:101C8000980C182F882321F0CE010E94830C04C0E9
:101C9000CE010E94830C10E0812FDF91CF911F9124
:101CA0000F9108950F931F93CF93DF93EC01890158
:101CB0008F81833039F089E0440F551F661F771FED
:101CC0008A95D1F79A01AB0161E1CE010E94E70C40
:101CD000882319F080E38A830BC0B801CE010E94EB
:101CE000A118182F882321F0CE010E94830C04C074
:101CF000CE010E94830C10E0812FDF91CF911F91C4
:101D00000F9108958F929F92AF92BF92EF92FF92A0
:101D10001F93CF93DF93DC012C9120FF41C0EC0196
:101D20007C01B7E0EB0EF11CE981FA8180819181A1
:101D3000DC01ED91FC914B815C816D817E810480A1
:101D4000F581E02D97010995182F811102C010E04F
:101D500028C0888181FD04C088818E7F888321C04E
:101D6000A981BA818D919C911197FC0120813181CB
:101D70001C968D909D90AD90BC901F974B815C817F
:101D80006D817E81480D591D6A1D7B1DD9011496F8
:101D9000ED91FC911597970109958111DDCFD7CF72
:101DA00011E0812FDF91CF911F91FF90EF90BF90B5
:101DB000AF909F908F900895CF92DF92EF92FF9215
:101DC0001F93CF93DF93EC016A017B01122F8B816C
:101DD0009C81AD81BE8184179507A607B70719F1CD
:101DE000CE010E94820E811103C080E090E021C0EC
:101DF00012FF06C01882CB82DC82ED82FE8213C005
:101E0000E981FA8180819181DC01ED91FC91019061
:101E1000F081E02D9E01295F3F4FB701A601099592
:101E20008111E8CFE2CF13708881182B1883CE017F
:101E30000796DF91CF911F91FF90EF90DF90CF90A9
:101E400008958F929F92AF92BF92CF92DF92EF92BE
:101E5000FF920F931F936A017B0148015901FC0116
:101E60002581203251F54489558966897789970102
:101E70008601E7E03695279517950795EA95D1F7FE
:101E8000400F511F621F731F23E084960E94DC0ED7
:101E9000009711F480E02DC0E894C7F8DD24EE240B
:101EA000FF24CC0CDD1CCC0CDD1CFC01EC0DFD1D5D
:101EB00080829182A282B3821BC0203159F7FC013B
:101EC00044895589668977894D0D511D611D711DA4
:101ED00023E084960E94DC0E0097E1F2DD24EE24DC
:101EE000FF24CC0CDD1CFC01EC0DFD1D91828082D9
:101EF00081E01F910F91FF90EF90DF90CF90BF9006
:101F0000AF909F908F900895CF92DF92EF92FF92C3
:101F10000F931F93CF93DF93EC016A017B0189013B
:101F20008D81803251F58C899D89AE89BF89E7E02A
:101F30007695679557954795EA95D1F7480F591FBC
:101F40006A1F7B1F22E0CE0184960E94DC0E009760
:101F500011F48FEF40C0E894C7F8DD24EE24FF248D
:101F6000CC0CDD1CCC0CDD1CFC01EC0DFD1D8081BE
:101F70009181A281B381BF701DC0803151F74C891E
:101F80005D896E897F894D0D511D611D711D22E096
:101F9000CE0184960E94DC0E0097D9F2DD24EE2457
:101FA000FF24CC0CDD1CFC01EC0DFD1D808191811A
:101FB000A0E0B0E0488D598D6A8D7B8D4817590798
:101FC0006A077B0738F0F80180839183A283B3838B
:101FD00081E001C080E0DF91CF911F910F91FF90D0
:101FE000EF90DF90CF9008956115710579F0FB01B6
:101FF00001900020E9F73197AF01461B570BDC0138
:10200000ED91FC910280F381E02D099480E090E055
:1020100008952F923F924F925F926F927F928F928C
:102020009F92AF92BF92CF92DF92EF92FF920F9367
:102030001F93CF93DF93CDB7DEB72D970FB6F894EC
:10204000DEBF0FBECDBF6C017B01FA0181809280A3
:10205000DB018C91807709F444C0D6018C91811109
:1020600040C08081837009F422C3C4010C966DE0E6
:1020700070E00E94BC2955245394560E2D835F01B5
:1020800040E050E0BA01C7010E94EE021C861D86A6
:102090001E82412C612C712C1B861501B6E02B0E83
:1020A000311CF70180899189A289B3899C01AD0116
:1020B00095E056954795379527959A95D1F72F83B3
:1020C000388749875A870F81188561E0C7010E94C8
:1020D000B203009741F4D70111968C91882309F43B
:1020E000A8C080E0F9C2FC012081253E11F0211139
:1020F0000CC0611004C03F813C8738853D87651462
:1021000008F46394211105C094C0651408F4D2C288
:1021100002C0253EF1F12E32E1F1DC011B963C912B
:102120001B973F3009F057C0711009C026FFB9CF87
:102130002F71722E1D962C912E83472C09C04A9424
:10214000241127C0DC011D962C913E81321321C041
:10215000442D50E0415051096DE0649F9001659F0E
:10216000300D112428153905A0F4FC0170E07530FC
:1021700018F48181928107C07B3018F484819581A5
:1021800002C0868197812815390529F4892B09F425
:1021900088CF712C86CF8F3F910509F0D0F74FEB98
:1021A000480F4A3110F0682F02C060E2680FA901A1
:1021B0004F5F5F4FD50113968D919C911497DC0171
:1021C000A20FB31F8C919FEB980F9A3108F4805E99
:1021D0006813DFCF71C233FDDCCF7720B9F0B1E0F7
:1021E0004B127FCFFC01AC01455F5F4F90E060E890
:1021F000969F900111249695922B2191920FE417AE
:10220000F507A9F72E8192136CCF0FC04BE050E079
:10221000B1010E94E62B892B09F043CFD5018C91A7
:1022200080FF03C021E02B873CCFBD81B7FF6FC18A
:1022300058CF8D818274823409F053CF662051F0DB
:102240000C851D8507C060E0C7010E94B203892B81
:1022500021F063946514B8F315C0F70181818823D8
:1022600089F03FCFC7010E942A06882309F439CF9D
:10227000D7011696ED91FC9117978281823020F458
:1022800030E1630E651470F32B85222309F473C0CB
:10229000D50115964C9082E0682E712C1501B6E0A0
:1022A0002B0E311C43C0F3E0F41510F4A3E04A2ECA
:1022B00034E0340D282F2F70432F50E02A3008F0DF
:1022C00053C0205DF501E40FF51F2683F4E09695D9
:1022D0008795FA95E1F73150431660F3F501E40D67
:1022E000F11D2EE7268340E050E0BA01C7010E94AD
:1022F000EE0261E0C7010E94B2030097B9F1FC0150
:1023000020812223C1F1238523FDF3CF4BE050E050
:10231000BC01C1010E94E62B892B59F7BFEF6B1A54
:102320007B0AE4E66E16710409F4DBCEF501418107
:102330005281C301840F951F0380F481E02D4E0F5D
:102340005F1FE417F50709F4AECF9C01B5E0220F3B
:10235000331FBA95E1F7820F931F2191022E000CD3
:10236000330B82279327EDCF295CACCFD701119691
:102370008C918111B6CEA80160E070E0E5E0440FD9
:10238000551F661F771FEA95D1F7C7010E94EE021D
:10239000882309F4A6CE77247A94750C172D5FE074
:1023A000652E1501F6E02F0E311C250121E1420EAC
:1023B000511C0DE0112309F463C060E0C7010E94C5
:1023C000B203FC01892B09F48CCED70116962D910E
:1023D0003C911797D90194968C919497816094962B
:1023E0008C93612F171101C060646083638614862B
:1023F000D10120E030E8239FC00111242695282B2D
:102400009D91290FA415B505A9F72587138E128E66
:10241000D50113964D915C9114976F7170E06150E6
:102420007109069F9001079F300D112460E0281567
:10243000390540F4DA01A20FB31F8C91082E000C6D
:10244000990B0AC081E090E02815390511F480E06D
:1024500090E0919581959109653018F4928381837C
:1024600007C06B3018F49583848302C097838683FA
:102470006F5F2F5F3F4F32966D30C9F611509ACF84
:10248000F701008911892289338945E0369527951E
:10249000179507954A95D1F760E0C7010E94B203EE
:1024A000009709F41ECE20E2DC011D922A95E9F77F
:1024B000F50136962BE0DC0101900D922A95E1F7AB
:1024C000F50120812871DC011C962C931C9721E2D8
:1024D00038E251963C932E93509740E058E01F9677
:1024E0005C934E931E9753963C932E935297599616
:1024F0003C932E93589757965C934E935697D701DB
:102500001696ED91FC91179784A1816084A380E2D7
:10251000F60111928A95E9F7D7011696AD90BC9015
:102520001797F601B782A682158304835C968D9176
:102530009D910D90BC91A02D80879187A287B38734
:102540000F701127F501BB9695E0000F111F9A95AA
:10255000E1F7E00FF11F838583FF03C0D6011C92D2
:10256000C0CDD501A00FB11FD6968C918771D60131
:102570008C939385987111F488608C93F601738223
:102580008D81827319F08081817141F78D818F7007
:10259000D60112968C93F50187A190A5A1A5B2A5AD
:1025A000F601848B958BA68BB78B0A0D1B1DF8014A
:1025B000FF9640805180612C712CD2019927882789
:1025C000369640805180612C712C482A592A6A2AFB
:1025D0007B2AFD81F4FF48C0411451046104710459
:1025E00009F471C09E012F5F3F4FB301A201C501E5
:1025F0000E94840FF82E87FDB1CF00E010E0980113
:10260000B301A201C5010E94210F882309F4A6CFBE
:10261000D50190964D915D916D917C91939777FD49
:1026200009C04F5F5F4F6F4F7F4FF50140A351A32C
:1026300062A373A3D50118964D915D916D917C9124
:102640001B97441655066606770628F4F501408662
:1026500051866286738649805A806B807C80F11037
:10266000C1CF811130C07ACFD6015C964D925D9278
:102670006D927C925F97F801E95BFF4F80819181B9
:10268000A281B381F601808F918FA28FB38FFD81DC
:10269000F5FF21C0D60158964D915D916D917C91C9
:1026A0005B97C6010E94EE02811115C057CF5524D9
:1026B0005394E4CC612C2FCD7F5F32967D3009F4AA
:1026C000F0CC9A0154CDD60112968C911297806865
:1026D00012968C93DCCF81E02D960FB6F894DEBF76
:1026E0000FBECDBFDF91CF911F910F91FF90EF9063
:1026F000DF90CF90BF90AF909F908F907F906F9022
:102700005F904F903F902F900895AF92BF92CF92DD
:10271000DF92EF92FF920F931F93CF93DF93FB0112
:10272000DC0101962C912032D9F3B483A3839D015F
:1027300089010A1B1B0BE90189919E018823C1F0C5
:102740008F32B1F08C3511F480E0F2C0982F977F72
:102750009232D1F38A33C1F3982F9F7B9C33A1F33C
:1027600092EC980F923080F380528F3508F3ECCFC3
:102770000A0F1B1FC801682F392FEC012991CE01C8
:102780002032C9F32F32B9F3EA0168833983980103
:102790002A1B3B0B0A171B0741F0E8018A918E01A7
:1027A0008E32A9F3803299F303C0A12CB12C05C05D
:1027B00059012F3F310509F03CF6B282A182CF01C9
:1027C00006969F012F5E3F4F40E2EC014993CE01F8
:1027D000C217D307D1F7CD01AC014A1B5B0BEC014B
:1027E0003991CE013E32C1F33032B1F39A0191E01A
:1027F000452B09F090E0A5014150510938F0BD0189
:10280000640F751FEB0188818E32B1F717E060E02D
:1028100000E070E088E0E82E2A153B050CF06CC063
:102820006D01C20ED31EE6018881803209F45BC0BF
:102830008E3229F44217530709F055C004C0823282
:10284000E1F08C37D1F0D6EDFD2EF80ED5E0DF1596
:1028500010F08D3291F4C6ECFC2EF80EC5E0CF15C9
:1028600060F4D5EAFD2EF80ED2E0DF1530F4CFED9E
:10287000FC2EF80ECDE5CF1520F42417350781F492
:1028800038C024173507A9F1161718F1F82ECFE92B
:10289000DC2ED80ED9E1DD1548F080527E290CC01F
:1028A0001617B8F090E08FE5CFE5FC2ECFEBFC0ECD
:1028B000D9E1DF1508F00E29FF24F394F60E6F011D
:1028C000C60ED11CE6018E83D6E0DF1570F0F582CE
:1028D0000CC01A3081F0421753076CF09A011AE0CD
:1028E00068E0D0E1ED2E90E001C06F2D2F5F3F4FEB
:1028F00093CF1A30B9F490E08681803209F424CF66
:10290000992329F0072309F072E0708309C081E060
:1029100080838581E80FF11D8EE7868381E38783BD
:1029200081E006C09A011AE068E0D0E1ED2EDECF2A
:10293000DF91CF911F910F91FF90EF90DF90CF909B
:10294000BF90AF9008950F931F93CF93DF93DC0157
:102950002C91211102C081E051C0EC018A8187FFD6
:1029600035C04C895D896E897F898E819F8121E088
:1029700084960E94DC0E0097E9F1EC81FD81EF70F6
:10298000FF2725E0EE0FFF1F2A95E1F7DC01AE0FD0
:10299000BF1F2C91253E71F1288123FF0AC0488D6D
:1029A000598D6A8D7B8D5C964D935D936D937C9371
:1029B0005F974C8D5D8D6E8D7F8DE80FF91F538F66
:1029C000428F758B648B8A818F778A830E811F81FA
:1029D000C80184960E94820E882361F0F8018081EC
:1029E0009181DC01ED91FC910280F381E02D09954C
:1029F0008111B1CF89818160898380E0DF91CF919E
:102A00001F910F9108952F923F924F925F926F9274
:102A10007F928F929F92AF92BF92CF92DF92EF926E
:102A2000FF920F931F93CF93DF93EC015B014A0159
:102A3000888183FF0EC08A8181FF0BC082FF0FC097
:102A4000488D598D6A8D7B8DCE010E94EE028111D9
:102A500006C08981816089838FEF9FEF0DC1A4013A
:102A600060E070E088899989AA89BB8980959095F2
:102A7000A095B09584179507A607B70750F3640192
:102A80001E018CE0280E311C088919892A893B898E
:102A9000C114D10409F4D5C08E819F81B901A80168
:102AA00029E076956795579547952A95D1F7DC01EA
:102AB0001396FC90F4221170F11034C00115110529
:102AC00089F54C855D856E857F85411551056105CC
:102AD000710569F091010E94840F87FDBACF8111C1
:102AE00021C0CE010E94610581111CC0B2CF8C8D26
:102AF0009D8DAE8DBF8D0097A105B10579F4CE01F6
:102B00000E946105882309F4A4CF8C859D85AE853C
:102B1000BF858C8F9D8FAE8FBF8F04C08C879D87A4
:102B2000AE87BF87EE81FF814C855D856E857F8591
:102B30004250510961097109048004C0440F551FB6
:102B4000661F771F0A94D2F780899189A289B38979
:102B5000480F591F6A1F7B1F4F0D511D611D711DAD
:102B60000115110521F4C114B2E0DB06B0F580E0D7
:102B700092E0801B910B76018C159D0508F47C0179
:102B80000115110579F4488859886A887B88888DF1
:102B9000998DAA8DBB8D481659066A067B0610F0E2
:102BA00025E001C021E0CF0184960E94DC0E009751
:102BB00009F44FCFA701B501800F911F0E94F32B9D
:102BC0000E0D1F1D0115124059F58E819F818496AF
:102BD0000E94820E811124C03CCF87A190A5A1A59F
:102BE000B2A584179507A607B70741F414A28FEF83
:102BF0009FEFDC0187A390A7A1A7B2A7EE81FF8179
:102C000080819181DC01ED91FC910480F581E02DC2
:102C100095010995882309F41CCFE12C82E0F82E58
:102C200088899989AA89BB898E0D9F1DA11DB11D17
:102C3000888B998BAA8BBB8BAE0CBF1CCE18DF0880
:102C400023CF888D998DAA8DBB8D80179107A20700
:102C5000B30738F4088F198F2A8F3B8F8A818068D9
:102C60008A838A8183FD02C0C40106C0CE010E940E
:102C7000A3148111F9CFEDCEDF91CF911F910F9168
:102C8000FF90EF90DF90CF90BF90AF909F908F908C
:102C90007F906F905F904F903F902F900895089590
:102CA000E2EEF2E0A089B18982E08C93A485B5853B
:102CB0001C92A685B7858FEC8C93108EA489B5895C
:102CC00086E08C93A289B3898C9180618C93A289D0
:102CD000B3898C9188608C93A289B3898C91806828
:102CE0008C930288F389E02D80818F7D8083089505
:102CF00090914B0680914A06813061F0D0F082308D
:102D000081F08330A9F480934A0690934B0683E0C8
:102D100090E0089580934A0690934B0681E090E0FE
:102D2000089580934A0690934B0682E090E00895C0
:102D300091E010924A0690934B0680E090E008954F
:102D4000CF93DF930E94210CEB010E947C0C8F3FFC
:102D500049F00E94210C6C1B7D0B69357240A8F371
:102D600080E001C081E0DF91CF9108958F929F9222
:102D7000AF92BF92CF92DF92EF92FF92CF93C82F84
:102D80001092F00381E090E0A0E0B0E08093F303C4
:102D90009093F403A093F503B093F6038BEE93E0C6
:102DA000909311048093100410920F048FEF9FEF03
:102DB000DC018093120490931304A0931404B09345
:102DC0001504CC2331F1C53008F0E7C020E040E025
:102DD00050E0BA018FE094E00E94DC0E009709F405
:102DE000DCC020E1C29F800D911D11244097FC01A1
:102DF000E254FE4F20812F7709F0CFC038968080B3
:102E00009180A280B38081149104A104B10421F4C3
:102E1000C4C0812C912C540120E0B501A4018FE0A5
:102E200094E00E94DC0EFC01892B09F4B6C0838576
:102E300094858115924009F0B0C08089823009F0F4
:102E4000ACC0468557854115510509F4A6C02585B6
:102E50002093ED038FEF820F8093EE0380E091E0EB
:102E6000291751F031E0380F393019F48093EF030E
:102E700094C0990F832FF4CF8093EF03C688D7882F
:102E8000C114D10419F0E12CF12C04C0C4A0D5A0C8
:102E9000E6A0F7A0C092F703D092F803E092F903FE
:102EA000F092FA03D501C401840F951FA11DB11D35
:102EB0008093FF0390930004A0930104B093020455
:102EC000218932893093F2032093F103CC0CDD1C6D
:102ED000EE1CFF1CC80ED91EEA1EFB1EC092070482
:102EE000D0920804E0920904F0920A0455E0220FFF
:102EF000331F5A95E1F721503E4F232F3327269554
:102F0000C20ED31EE11CF11CC092FB03D092FC0345
:102F1000E092FD03F092FE032389348921153105E7
:102F200021F0C901A0E0B0E004C080A191A1A2A15C
:102F3000B3A1B501A4014C195D096E097F09480FC1
:102F4000591F6A1F7B1F0090EF0304C07695679599
:102F5000579547950A94D2F7DB01CA010196A11D46
:102F6000B11D8093030490930404A0930504B093CF
:102F700006048FEF9FEFDC0180930B0490930C0409
:102F8000A0930D04B0930E04453F8FE058076105F0
:102F9000710528F48CE08093F00380E017C0453F72
:102FA0005F4F6105710510F480E10DC084A595A502
:102FB000A6A5B7A58093070490930804A0930904DD
:102FC000B0930A0480E28093F00381E0CF91FF90F8
:102FD000EF90DF90CF90BF90AF909F908F9008952B
:102FE000FF920F931F93CF93DF93CDB7DEB7A097D8
:102FF0000FB6F894DEBF0FBECDBFF62E19821A822F
:103000008C01055D1D4F21E041EA52E0B801CE017F
:1030100001960E94DC048823C9F099819077A9F079
:1030200090E2FE013196D80101900D929A95E1F758
:10303000FF2061F090911606907741F026E136E08E
:103040003093E1022093E00201C080E0A0960FB629
:10305000F894DEBF0FBECDBFDF91CF911F910F91CE
:10306000FF9008952F923F924F925F926F927F92BE
:103070008F929F92AF92BF92CF92DF92EF92FF9288
:103080000F931F93CF93DF9300D000D0CDB7DEB75F
:103090008C011801C12CD12C7601C394812C912C68
:1030A00054018394D1014D905D906D907D901D01F0
:1030B0008D919D910D90BC91A02D89839A83AB83B6
:1030C000BC839C01AD01C301B2010E9450291816B6
:1030D00084F4F10140825182628273823497898143
:1030E0009A81AB81BC8180839183A283B3834601A3
:1030F00057019FEFC91AD90AE90AF90AA8E2CA16C4
:10310000D104E104F10471F68A9489288A288B2875
:1031100009F0BFCF0F900F900F900F90DF91CF91DC
:103120001F910F91FF90EF90DF90CF90BF90AF90E5
:103130009F908F907F906F905F904F903F902F90D7
:103140000895EF92FF920F931F93CF93DF93EC01BB
:103150007B010E94210C8B010E947C0C8E838F3F8F
:1031600049F40E94210C601B710B6D327140A0F379
:1031700085E503C08E3F39F080E58A83CE010E9449
:10318000830C80E01BC08FEF8EBDF701D701A150EB
:10319000BE4F9FEF0DB407FEFDCF8EB59EBD819350
:1031A000EA17FB07B9F70DB407FEFDCF8EB58C9378
:1031B0001E820E947C0C0E947C0C81E0DF91CF91EA
:1031C0001F910F91FF90EF9008950F931F93CF934E
:1031D000DF93EC0188819981009729F02A813B8156
:1031E0002617370788F48B016F5F7F4F0E94172BDC
:1031F000009761F0998388831B830A832C813D812A
:10320000232B11F4FC01108281E001C080E0DF91EA
:10321000CF911F910F910895EF92FF920F931F93FB
:10322000CF93DF93EC017B018A01BA010E94E5187C
:103230002881398181110DC02115310519F0C9018D
:103240000E947F2A198218821D821C821B821A8288
:1032500006C01D830C83B701C9010E94FC2BCE015F
:10326000DF91CF911F910F91FF90EF900895CF9331
:10327000DF93EC016115710559F0FB01019000200D
:10328000E9F73197AF01461B570B0E940C190CC090
:1032900088819981009711F00E947F2A19821882F3
:1032A0001D821C821B821A82CE01DF91CF9108956C
:1032B0004F925F926F927F92EF92FF920F931F93C4
:1032C000CF93DF93CDB7DEB7A1970FB6F894DEBFEB
:1032D0000FBECDBF7C01FA01CB0119A2223008F448
:1032E0002AE08E010F5D1F4F422E512C612C712C54
:1032F000BF01A30192010E94A127F901CA01015057
:1033000011096A3014F4605D01C0695CD8016C93E6
:10331000232B242B252B61F7B801C7010E94F40F42
:10332000A1960FB6F894DEBF0FBECDBFDF91CF914F
:103330001F910F91FF90EF907F906F905F904F9053
:103340000895CF92DF92EF92FF92CF93DF936B01BC
:103350007C01E091C703F091C8030190F081E02D5A
:103360006DE287EC93E00995EC0144275527BA01FB
:103370004C195D096E097F092AE087EC93E00E94F1
:1033800058198C0F9D1FDF91CF91FF90EF90DF9028
:10339000CF900895AC01990F660B770B77FF04C0AF
:1033A000CB01BA010C94A1192AE087EC93E00C94AC
:1033B000581963EF71E00C94F40FCF93DF93BC01C5
:1033C00082EE92E00E94F40FEC0182EE92E00E9405
:1033D000D9198C0F9D1FDF91CF910895EF92FF9225
:1033E0000F931F93CF93DF938C017B01C0E0D0E05C
:1033F000F701EC0FFD1F6491662361F0D801ED9198
:10340000FC910190F081E02DC8010995892B11F004
:103410002196EECFCE01DF91CF911F910F91FF90BA
:10342000EF900895CF93DF93BC0182EE92E00E946B
:10343000EE19EC0182EE92E00E94D9198C0F9D1FCB
:10344000DF91CF910895CF92DF92EF92FF920F9389
:103450001F93CF93DF936C017A018B01C0E0D0E022
:10346000CE15DF0589F0D8016D918D01D601ED9162
:10347000FC910190F081E02DC6010995892B11F492
:103480007E0102C02196ECCFC701DF91CF911F9141
:103490000F91FF90EF90DF90CF900895CF92DF9241
:1034A000EF92FF920F931F93E82FF92F05C0015061
:1034B00011092109310961F1908196239417B9F31B
:1034C00005C0015011092109310911F1908196239C
:1034D0009413F7CFC12CD12CE12CF12C0AC08FEF23
:1034E000C81AD80AE80AF80A0C151D052E053F056A
:1034F00079F080818623841791F36C2D7D2D8E2D9C
:103500009F2D1F910F91FF90EF90DF90CF90089526
:1035100060E070E080E090E01F910F91FF90EF90ED
:10352000DF90CF900895CF93DF93CDB7DEB7CA5E1B
:10353000D1090FB6F894DEBF0FBECDBF789484B525
:10354000826084BD84B5816084BD85B5826085BD9F
:1035500085B5816085BD80916E00816080936E002D
:10356000109281008091810082608093810080911F
:1035700081008160809381008091800081608093D0
:1035800080008091B10084608093B1008091B00090
:1035900081608093B00080917A00846080937A008B
:1035A00080917A00826080937A0080917A008160B5
:1035B00080937A0080917A00806880937A001092DC
:1035C000C1001092C3031092C4031092C50310925D
:1035D000C60310928103109282031092830310920B
:1035E00084030E94210C6B017C014B015C0128EBE0
:1035F000820E2BE0921EA11CB11C0E94210C6C15A6
:103600007D058E059F0528F086169706A806B90643
:10361000A0F782EE92E09093C2038093C1030E94D0
:1036200050160E94210C6093810370938203809353
:1036300083039093840364EE71E08091C1039091C1
:10364000C2030E94F40F0E94210C6B017C014B010C
:103650005C018AE0880E911CA11CB11C0E94210C07
:103660006C157D058E059F0528F086169706A80621
:10367000B906A0F781E0809395030E94501686EF6B
:1036800091E00E94DD1982EE92E00E94D91960E07B
:1036900082E00E94560B61E082E00E94860B60E0AF
:1036A00081E00E94860B69E573E082EE92E00E9461
:1036B000EE19E9E6F0E08491E4E8F3E00491E0E754
:1036C000F3E01491112389F081110E942D0BE12F59
:1036D000F0E0EE0FFF1FEB59FC4FA591B491EC9178
:1036E000E02319F08DE792E002C08FE892E00E949B
:1036F000DD1962E070E080E090E00E94E70B1E01BF
:1037000091EA290E311C80914B068111BAC20E94A8
:10371000781681309105F9F06CF4892B21F5E09150
:103720004E06F0914F06C452DF4FF983E883CC5D1B
:10373000D04019C08230910559F00397A1F484E973
:1037400096E0C452DF4F99838883CC5DD0400BC094
:10375000A2E7B6E002C0A0E5B6E0C452DF4FB983ED
:10376000A883CC5DD040C452DF4FE881F981CC5DA5
:10377000D040D10182E201900D928A95E1F7F101EA
:103780006789708DC1010E94EF08D1015196BC91EB
:10379000CA51DF4FB883C65ED04020E030E040E839
:1037A0005FE3F101638D748D858D968D0E943C28B9
:1037B0004B015C010E94210C6B017C01F4E6CF0EF1
:1037C000D11CE11CF11CD1015B962D913D914D91D5
:1037D0005C915E97C501B4010E94502918160CF047
:1037E0007AC08E010F5F1F4F5801D10159968C91FD
:1037F0008E3008F08E508770806480937C008091BA
:103800007A00806480937A0080917A0086FDFCCFF4
:10381000609178008091790070E0782B072E000C81
:10382000880B990B0E947426F50161937193819323
:1038300091935F01E215F305C1F6CE0101960E9456
:103840003218CE0101965C0160E070E0CB01D50139
:103850002D913D914D915D915D010E943C28A214F6
:10386000B304A9F720E030E040E252E40E94A82827
:103870002B013C01812C912C5401F8016191719133
:10388000819191918F01A30192010E943B289B019C
:10389000AC010E94D3269B01AC01C501B4010E947A
:1038A0003C284B015C010215130539F720E030E09C
:1038B0004CE152E40E94A8280E945B294B015C0164
:1038C0000E94210CC616D706E806F90608F07BCF41
:1038D00060E070E023C18DB79EB7C951DF4F998377
:1038E0008883C75ED040ADB7BEB7A05AB1090FB646
:1038F000F894BEBF0FBEADBF0DB71EB70F5F1F4F11
:10390000EDB7FEB7E05AF1090FB6F894FEBF0FBE4F
:10391000EDBF8F539140C052DF4F99838883C05EC3
:10392000D040A05FB1090FB6F894BEBF0FBEADBFC7
:10393000EF54F109CE51DF4FF983E883C25ED040E6
:10394000FE0131967801D8014191519161917191B7
:103950004D935D936D937D93E215F305A9F7C8012F
:103960000E943218F80180819181A281B381C052F6
:10397000DF4FE881F981C05ED04080839183A283CC
:10398000B383E1E0F0E0CE51DF4FA881B981C25EA0
:10399000D040ED93FC93C80184569F4FC751DF4F31
:1039A00099838883C95ED040CC51DF4F1982188239
:1039B000C45ED040C12CD12C00E010E0F70144805F
:1039C000558066807780208131814281538194E0E7
:1039D000E90EF11CC301B2010E943B284B015C01BE
:1039E00020E030E0A9010E946D2687FF04C0B7FAED
:1039F000B094B7F8B09420E030E040E85FE3C50150
:103A0000B4010E946D2687FF1BC0F801EE0FFF1F57
:103A1000CE51DF4FA881B981C25ED040EA0FFB1FB3
:103A200080819181019691838083C816D90654F5CF
:103A3000CC51DF4F19830883C45ED0406C0122C093
:103A40000F5F1F4FF801EE0FFF1FEE0FFF1FC05259
:103A5000DF4F88819981C05ED040E80FF91F408216
:103A6000518262827382F801EE0FFF1FCE51DF4F49
:103A7000A881B981C25ED040EA0FFB1F81E090E0CF
:103A800091838083C751DF4FA881B981C95ED0403F
:103A9000EA16FB0609F092CFB2E0CB16D104BCF0D7
:103AA000CC51DF4FE881F981C45ED040EE0FFF1F9B
:103AB000EE0FFF1FC052DF4F88819981C05ED0405A
:103AC000E80FF91FC080D180E280F38003C0C12CD1
:103AD000D12C7601C951DF4FA881B981C75ED04092
:103AE0000FB6F894BEBF0FBEADBF20E030E040E29D
:103AF00051E4C701B6010E946D2687FDE9CE20E0A2
:103B000030E040E054E4C701B6010E945029181685
:103B10000CF4DECEC701B6010E941A29072E000C54
:103B2000880B990B0E947426F10123813481458111
:103B300056810E94D326D10117962D913D914D912A
:103B40005C911A970E943C280E941A29F10123894E
:103B500034896217730744F0258936892617370799
:103B60001CF0C1010E94EF08D1018C918C3008F04B
:103B70005DC061E0CA51DF4F8881C65ED0400E94BF
:103B8000860BF1018081E82FF0E09F01220F331FA7
:103B9000E20FF31FE455FD4FCA51DF4F2881C65E87
:103BA000D0402F739081907C922B9083D1011196FD
:103BB0001C92119712961C926CE00E94B029BCE0F6
:103BC0008B9FB001112440E050E09A01260F371F6F
:103BD000F901EE0FFF1F2E0F3F1FF901E455FD4FB6
:103BE000908196FD16C04F5F5F4F4C30510569F7CD
:103BF00081110FC01092800082E0809381001092AA
:103C0000850010928400B19A80916F008260809349
:103C10006F00D101EC91F0E0CF01880F991FE80F00
:103C2000F91FE455FD4F8081806480836DE473E06B
:103C300082EE92E00E94EE19F101808190E0FC0199
:103C4000EE0FFF1F8E0F9F1FFC01E455FD4F80817B
:103C500086FF03C08DE393E002C085E293E00E94FB
:103C6000121A62E070E080E090E00E94E70B809121
:103C70004A068F5F80934A0610924B060E94781680
:103C800042CD61E082E00E94560B10924A0612E299
:103C900080914B06811165C00E9478168130910594
:103CA000F9F06CF4892B21F5A0914E06B0914F06E6
:103CB000C252DF4FB983A883CE5DD04019C0823095
:103CC000910559F00397A1F4E4E9F6E0C252DF4F01
:103CD000F983E883CE5DD0400BC082E796E002C056
:103CE00080E596E0C252DF4F99838883CE5DD04055
:103CF000C252DF4FE881F981CE5DD040DE011196DE
:103D0000812F01900D928A95E1F76C897D89CE0112
:103D100001960E9402096E897F89CE0101960E9458
:103D20000209688D798DCE0101960E94020969E130
:103D300073E082EE92E00E94EE198EEF92E00E9414
:103D4000121A62E070E080E090E00E94E70B809140
:103D50004A068F5F80934A0610924B060E9478169F
:103D600097CF62EF72E082EE92E00E94EE1986ED4C
:103D700092E00E94121A62E070E080E090E00E94FF
:103D8000E70B6AEC72E082EE92E00E94EE1910926C
:103D9000420610923B061092380610923D0683E4CC
:103DA00096E090933A06809339060E94210C8B018D
:103DB000E0903906F0903A068AE0D70112968C938B
:103DC00061E00E94860B61E0F70182810E94560B40
:103DD000FFB6F8948091D002811127C0E9E7F3E0A3
:103DE0008491EDE8F3E09491E82FF0E0EE0FFF1FEF
:103DF000E458FF4FA591B491EC91E92321F461E0DF
:103E00008AE00E94560B61E08AE00E94860B8CB526
:103E100080618CBD8CB580648CBD61E08DE00E94BA
:103E2000860B61E08BE00E94860B8091D0028F5F51
:103E30008093D002FFBEE0913906F0913A0682E508
:103E40008083118286E396E00E94CE0CE0913906D1
:103E5000F0913A0661E082810E94560B7AE0F72EDB
:103E60008FEF0E94770CFA94F110FACFE0913906A7
:103E7000F0913A0660E082810E94560B20E030E02B
:103E8000A90160E086E396E00E94E70C813049F0EA
:103E90000E94210C601B710B613D774078F380E23A
:103EA0005AC02AEA31E040E050E068E086E396E05C
:103EB0000E94E70C853011F481E00CC064E0F62E1E
:103EC0000E947C0C80933C06FA94F110F9CF8A3A58
:103ED00059F482E080933D0680913D06823069F07E
:103EE000C12CD12C76010EC00E94210C601B710BDD
:103EF000613D7740B0F285E22EC0C12CD12CE12C7F
:103F000050E4F52E20E030E0A90167E386E396E077
:103F10000E94E70CA701960169E286E396E00E9401
:103F2000E70C882349F00E94210C601B710B613D56
:103F3000774040F383E40FC080913D06823001F565
:103F400020E030E0A9016AE386E396E00E94E70CF6
:103F5000882341F087E38093380686E396E00E9449
:103F6000830C45C00E947C0C807C803C19F483E06B
:103F700080933D060E947C0C0E947C0C0E947C0C6D
:103F800086E396E00E94830CE0913906F0913A06B0
:103F900080E5808381E0818386E396E09093EC0363
:103FA0008093EB0386E196E00E94D30481E00E94B7
:103FB000B616882349F06BEE73E086E196E00E9426
:103FC000B9048823A1F006C080E00E94B6168111D2
:103FD000F2CF0DC080911606807749F086E196E019
:103FE0009093E1028093E00289EA92E002C08AEBBA
:103FF00092E00E94121A62E070E080E090E00E947D
:10400000E70B19821A8221E042EA52E066E176E08B
:10401000CE0101960E94DC0481117FC06DE972E03F
:1040200082EE92E00E94EE19CF55DF4F1882C15AFE
:10403000D040CE55DF4F1882C25AD04082EA92E07B
:10404000C652DF4F99838883CA5DD04019821A8295
:1040500080911606807709F456C006E116E040E22A
:10406000F42EAE0146525F4FBE016D537F4FC652D4
:10407000DF4F88819981CA5DD0400E9485138823D3
:1040800009F441C0C652DF4FE881F981CA5DD040D2
:104090008081882351F121E0AE014D535F4FB8017B
:1040A000CE018F559F4F0E94091081110BC0AE01A8
:1040B0004D535F4FB801CE018F559F4F0E94B206FE
:1040C000882309F1FE01EF55FF4FDE0111968F2D78
:1040D00001900D928A95E1F7CE018F559F4F0E9476
:1040E000D3048E010F5F1F4FBCCFAE014D535F4F06
:1040F000B801CE018F559F4F0E94B206882319F058
:1041000080E892E002C086E692E00E94121A62E025
:1041100070E080E090E00E94E70BCC52DF4F198204
:104120001882C45DD040CA52DF4F19821882C65D22
:10413000D040C852DF4F19821882C85DD0402AE0B3
:10414000AE014F5F5F4F6FEF7FEFCB010E943B26C9
:10415000BE016F5F7F4FCE018C529F4F0E94371977
:1041600061E08BEE93E00E94D10961E08BEE93E079
:104170000E94F0173EE2D32EC852DF4FE880F9804C
:10418000C85DD0401A8219821C821B821E821D8249
:1041900048E050E060E772E0CE0101960E940C1901
:1041A0008D819E81E81AF90AC852DF4F0881198172
:1041B000C85DD0400E151F0528F49E2D8F2D780167
:1041C000092F182FCD53DF4F19821882C35CD040BE
:1041D000CB53DF4F19821882C55CD040C953DF4FE3
:1041E00019821882C75CD04040E050E065EF71E072
:1041F000CE018D539F4F0E940C19C852DF4F88810A
:104200009981C85DD040E816F90620F5801791071E
:1042100008F48C01CC52DF4FE881F981C45DD040B5
:10422000E00FF11FC0801082CC52DF4F688179818E
:10423000C45DD0406E0D7F1DCE018D539F4F0E94F7
:104240003719CC52DF4FE881F981C45DD040E00FCF
:10425000F11FC082CC52DF4F88819981C45DD0406C
:10426000009749F1CD53DF4F68817981C35CD0401D
:1042700061157105F1F0CA52DF4F48815981C65D61
:10428000D040C953DF4F28813981C75CD0404217E5
:10429000530778F00E94FC2BC953DF4F8881998126
:1042A000C75CD040C852DF4F99838883C85DD04037
:1042B00032C00E947F2ACD53DF4F88819981C35C31
:1042C000D040CC52DF4F99838883C45DD040CB531C
:1042D000DF4F88819981C55CD040CA52DF4F9983F6
:1042E0008883C65DD040C953DF4F88819981C75C00
:1042F000D040C852DF4F99838883C85DD040CD53EA
:10430000DF4F19821882C35CD040CB53DF4F198234
:104310001882C55CD040C953DF4F19821882C75C30
:10432000D040CD53DF4F88819981C35CD0400E943B
:104330007F2A89819A810E947F2AD9821A82C85253
:10434000DF4F08811981C85DD0400F5F1F4FB80152
:10435000CE018C529F4F0E94E5188823C9F0CC52A1
:10436000DF4F28813981C45DD040C852DF4F88813A
:104370009981C85DD040BE016F5F7F4F820F931F50
:104380000E94FC2BC852DF4F19830883C85DD040C0
:10439000C852DF4F08811981C85DD0400D5F1F4FA3
:1043A000B801CE018C529F4F0E94E5188823C1F0BE
:1043B000CC52DF4F28813981C45DD040C852DF4FD5
:1043C00088819981C85DD04069E772E0820F931FB0
:1043D0000E94FC2BC852DF4F19830883C85DD04070
:1043E000C852DF4F08811981C85DD0400115110501
:1043F00031F4CF55DF4F1882C15AD04018C00C306D
:10440000110510F00CE010E0CC52DF4F688179818B
:10441000C45DD040A801CE018F559F4F0E94032C50
:10442000E1EAF0E0EC0FFD1FE00FF11F10821982AE
:104430001A8221E0AE014F555F4F66E176E0CE0172
:1044400001960E94DC04811197CE61E08BEE93E02F
:104450000E94D109CC52DF4F88819981C45DD04040
:104460000E947F2A6AE572E082EE92E00E94EE19D5
:1044700061E472E082EE92E00E94EE19CE018F5567
:104480009F4F0E94DD1962E070E080E090E00E94A2
:10449000E70B60E08BEE93E00E94F017811110C0F3
:1044A00065E372E082EE92E00E94EE198EE092E007
:1044B0000E94121A62E070E080E090E00E94E70B38
:1044C0006091E0027091E10222E4AE014F555F4F2E
:1044D0008BEC93E00E94DC04811117C062E072E073
:1044E00082EE92E00E94EE196FEE71E082EE92E0B1
:1044F0000E94EE19CE018F559F4F0E94DD1962E098
:1045000070E080E090E00E94E70B6FEA71E087ECDA
:1045100093E00E94EE196FE671E087EC93E00E9451
:10452000EE196AE271E087EC93E00E94EE196EEEFC
:1045300070E087EC93E00E94EE1965EC70E087EC88
:1045400093E00E94EE1987EC93E00E94D91969EB81
:1045500070E082EE92E00E94EE1986E890E00E9400
:10456000121A62E070E080E090E00E94E70B0E9487
:10457000C20B20E231EA47E050E00E94A1272F5F02
:104580003F4F4F4F5F4F60E271EA87E090E00E943B
:1045900091276093D1027093D2028093D3029093BB
:1045A000D40293E0E92EF12C23E2C22ED12C4090CC
:1045B000D1025090D2026090D3027090D40290E267
:1045C000490E91EA591E97E0691E711C4092D10272
:1045D0005092D2026092D3027092D4020E94C20B17
:1045E0004B015C0184189508A608B708B7FCF6CF04
:1045F00063EE73E082EE92E00E94EE19ABE08A1661
:104600009104A104B1041CF08FEC93E002C08FEB85
:1046100093E00E94121A62E070E080E090E00E9455
:10462000E70B80914E0690914F060E94AA070E94C8
:10463000CA196CE287EC93E00E94DC0280914E067E
:1046400090914F060E9485090E94CA196CE287EC7E
:1046500093E00E94DC0280914E0690914F060E94EA
:10466000B6090E94CA196CE287EC93E00E94DC0252
:1046700080914E0690914F060E9491090E94CA199E
:104680006CE287EC93E00E94DC0280E596E00E94F9
:10469000AA070E94CA196CE287EC93E00E94DC0230
:1046A00080E596E00E9485090E94CA196CE287ECB9
:1046B00093E00E94DC0280E596E00E94B6090E9429
:1046C000CA196CE287EC93E00E94DC0280E596E078
:1046D0000E9491090E94CA196CE287EC93E00E9443
:1046E000DC0282E796E00E94AA070E94CA196CE2E7
:1046F00087EC93E00E94DC0282E796E00E94850945
:104700000E94CA196CE287EC93E00E94DC0282E707
:1047100096E00E94B6090E94CA196CE287EC93E009
:104720000E94DC0282E796E00E9491090E94CA1969
:104730006CE287EC93E00E94DC0284E996E00E9440
:10474000AA070E94CA196CE287EC93E00E94DC027F
:1047500084E996E00E9485090E94CA196CE287EC00
:1047600093E00E94DC0284E996E00E94B6090E9470
:10477000CA196CE287EC93E00E94DC0284E996E0BF
:104780000E9491090E94CA196CE287EC93E00E9492
:10479000DC0280914E0690914F060E94B6098C0172
:1047A00080E596E00E94B609080F191F84E996E09B
:1047B0000E94B609800F911FAC0160E070E02AE012
:1047C00087EC93E00E9458196CE287EC93E00E941A
:1047D000DC0280914E0690914F060E9491098C0157
:1047E00080E596E00E949109080F191F84E996E080
:1047F0000E949109800F911FAC0160E070E02AE0F7
:1048000087EC93E00E9458196CE287EC93E00E94D9
:10481000DC0282E796E00E948509AC0160E070E06E
:104820002AE087EC93E00E9458196CE287EC93E051
:104830000E94DC0260E0809146060E94560BC70190
:104840000197F1F761E0809146060E94560BC60180
:104850000197F1F760E0809146060E94560B809127
:104860004806909149069927FC01ED57FC4F649149
:10487000FC01E159FC4FE491F0E0EE0FFF1FEB5912
:10488000FC4F8591949103E61BE020E030E0462F39
:104890000E944E1A611571058105910541F0AB0129
:1048A000BC014F5F5F4F6F4F7F4F7F7003C040E091
:1048B00050E0BA012AE087EC93E00E94581987EC97
:1048C00093E00E94D91963EB73E082EE92E00E94BC
:1048D000EE198BEC93E00E94A314882321F08091C1
:1048E000CC0380FF03C086EA93E002C087E993E02F
:1048F0000E94121A62E070E080E090E00E94E70BF4
:104900000E94C90A54CE08952F923F924F925F920F
:104910006F927F928F929F92AF92BF92CF92DF92CF
:10492000EF92FF920F931F93CF93DF9300D000D0AD
:10493000CDB7DEB7E2EEF2E01382128288EE93E0AA
:10494000A0E0B0E084839583A683B78380EC91E0F8
:104950009183808385EC90E09587848784EC90E058
:104960009787868780EC90E0918B808B81EC90E03C
:10497000938B828B82EC90E0958B848B86EC90E01D
:10498000978B868B118E128E138E148EEFE7F3E0C9
:104990001682178210861186128613861486158653
:1049A00016861786108A118A128A138A148A158A23
:1049B0008CE197E00E9412088CE1282E87E0382EC7
:1049C0004DE857E96EE07FE3F1014383548365834B
:1049D00076838CE59FE8A6E4B2EC87839087A18775
:1049E000B2871486138687E890E09687858784ECE3
:1049F0009FEF908B878786E090E0928B818B94E687
:104A0000E92EF12CF48AE38A26E9A22EB12CB68A8B
:104A1000A58A8EE690E0908F878B8FE090E0928F52
:104A2000818F412C512C38E4632E32E4732E438E57
:104A3000548E658E768E02E310E010A3078F8AEF06
:104A400096E049835A836B837C830E941208EAEFC5
:104A5000F6E089EC96E7AEE8BFE383839483A58311
:104A6000B6838AE999E1A3E1B3EC87839087A187B4
:104A7000B28788248394912C948683868EE890E074
:104A80009687858786EA9FEF908B878789E090E0FD
:104A9000928B818B86E490E0948B838B83E790E00C
:104AA000968B858B80E590E0908F878B8EE090E0F1
:104AB000928F818F438E548E658E768E10A3078FD2
:104AC00088ED96E00E941208E8EDF6E080E090E0C4
:104AD000A0E8BFE383839483A583B68380E090E05E
:104AE000A0E8BFEB87839087A187B28782E090E040
:104AF0009487838716861586108A178653E0C52EFD
:104B0000D12CD28AC18A8EE190E0948B838BB68AB5
:104B1000A58A8AE590E0908F878B81E190E0928F63
:104B2000818F438E548E658E768E10A3078F86EB11
:104B300096E00E941208E6EBF6E049815A816B810B
:104B40007C81438354836583768388EB9EE1A5E76C
:104B5000B2EC87839087A187B287D486C3861686F6
:104B60001586108A178685E090E0928B818B8CE306
:104B700090E0948B838B82E890E0968B858BF08E0F
:104B8000E78A80E190E0928F818F438E548E658E0C
:104B9000768E10A3078FEAE4F6E0108211829382EA
:104BA00082823582248282E2EAEFF6E0A0E5B6E076
:104BB00001900D928A95E1F782E2E8EDF6E0A2E736
:104BC000B6E001900D928A95E1F782E2E6EBF6E01D
:104BD000A4E9B6E001900D928A95E1F7E6E4F6E0EB
:104BE00084E090E09183808387E090E093838283E8
:104BF00061E084E00E94860B60E084E00E94560B36
:104C000060E087E00E94860B1092F0031092160677
:104C10001092170684E68093380610923D068EEDBA
:104C200091E0909337068093360680E580934306A3
:104C300010924406E7ECF3E014821582138212828C
:104C400082ED91E0918380830F900F900F900F90F1
:104C5000DF91CF911F910F91FF90EF90DF90CF9058
:104C6000BF90AF909F908F907F906F905F904F908C
:104C70003F902F900895BB27FA01A62F6217710568
:104C800081059105330B30FB66F0AA27660F771F6D
:104C9000881F991FAA1FA21710F0A21B63953850F6
:104CA000A9F7A05DAA3308F0A95DA19336F7B11169
:104CB000B1931082CA010C945D26DC01FC01672FC0
:104CC00071917723E1F7329704C07C916D937083E3
:104CD0006291AE17BF07C8F308950E94AF2608F48B
:104CE00081E00895E89409C097FB3EF49095809583
:104CF000709561957F4F8F4F9F4F9923A9F0F92FA2
:104D000096E9BB279395F695879577956795B7951F
:104D1000F111F8CFFAF4BB0F11F460FF1BC06F5F05
:104D20007F4F8F4F9F4F16C0882311F096E911C017
:104D3000772321F09EE8872F762F05C0662371F038
:104D400096E8862F70E060E02AF09A95660F771F4C
:104D5000881FDAF7880F9695879597F90895990F28
:104D60000008550FAA0BE0E8FEEF16161706E80735
:104D7000F907C0F012161306E407F50798F0621B56
:104D8000730B840B950B39F40A2661F0232B242B2B
:104D9000252B21F408950A2609F4A140A6958FEF4A
:104DA000811D811D08950E94E6260C9457270E94BC
:104DB000492738F00E94502720F0952311F00C94D9
:104DC00040270C94462711240C948B270E946827B7
:104DD00070F3959FC1F3950F50E0551F629FF0014E
:104DE000729FBB27F00DB11D639FAA27F00DB11D67
:104DF000AA1F649F6627B00DA11D661F829F2227F0
:104E0000B00DA11D621F739FB00DA11D621F839F76
:104E1000A00D611D221F749F3327A00D611D231F4C
:104E2000849F600D211D822F762F6A2F11249F579A
:104E300050409AF0F1F088234AF0EE0FFF1FBB1F9D
:104E4000661F771F881F91505040A9F79E3F51055C
:104E500080F00C9440270C948B275F3FE4F3983E3E
:104E6000D4F3869577956795B795F795E7959F5F06
:104E7000C1F7FE2B880F911D9695879597F9089598
:104E800097F99F6780E870E060E008959FEF80ECFD
:104E9000089500240A9416161706180609060895A0
:104EA00000240A9412161306140605060895092E06
:104EB0000394000C11F4882352F0BB0F40F4BF2B75
:104EC00011F460FF04C06F5F7F4F8F4F9F4F0895B5
:104ED00057FD9058440F551F59F05F3F71F04795AB
:104EE000880F97FB991F61F09F3F79F08795089590
:104EF000121613061406551FF2CF4695F1DF08C0AF
:104F0000161617061806991FF1CF869571056105CB
:104F100008940895E894BB2766277727CB0197F973
:104F20000895DB018F939F930E94E227BF91AF9179
:104F3000A29F800D911DA39F900DB29F900D1124F3
:104F40000895A1E21A2EAA1BBB1BFD010DC0AA1FCA
:104F5000BB1FEE1FFF1FA217B307E407F50720F0E2
:104F6000A21BB30BE40BF50B661F771F881F991F5D
:104F70001A9469F760957095809590959B01AC01A6
:104F8000BD01CF010895052E97FB1EF400940E94E9
:104F9000DA2757FD07D00E94A12707FC03D04EF463
:104FA0000C94DA2750954095309521953F4F4F4FFF
:104FB0005F4F089590958095709561957F4F8F4FC5
:104FC0009F4F08950E942C28A59F900DB49F900D8F
:104FD000A49F800D911D11240895B7FF0C94E22722
:104FE0000E94E227821B930B08952F923F924F92CB
:104FF0005F926F927F928F929F92AF92BF92CF9269
:10500000DF92EF92FF920F931F93CF93DF93CDB771
:10501000DEB7CA1BDB0B0FB6F894DEBF0FBECDBFE9
:1050200009942A88398848885F846E847D848C84BA
:105030009B84AA84B984C884DF80EE80FD800C81C3
:105040001B81AA81B981CE0FD11D0FB6F894DEBFA6
:105050000FBECDBFED010895A29FB001B39FC00167
:10506000A39F700D811D1124911DB29F700D811D94
:105070001124911D08955058BB27AA270E94532838
:105080000C9457270E94492738F00E94502720F09F
:1050900039F49F3F19F426F40C9446270EF4E0955A
:1050A000E7FB0C944027E92F0E94682758F3BA17B2
:1050B000620773078407950720F079F4A6F50C942E
:1050C0008A270EF4E0950B2EBA2FA02D0B01B90103
:1050D00090010C01CA01A0011124FF27591B99F06E
:1050E000593F50F4503E68F11A16F040A22F232F7A
:1050F000342F4427585FF3CF469537952795A795CA
:10510000F0405395C9F77EF41F16BA0B620B730B70
:10511000840BBAF09150A1F0FF0FBB1F661F771FE1
:10512000881FC2F70EC0BA0F621F731F841F48F496
:10513000879577956795B795F7959E3F08F0B0CF1F
:105140009395880F08F09927EE0F97958795089506
:105150000E94BC280C9457270E94502758F00E94A8
:10516000492740F029F45F3F29F00C944027511162
:105170000C948B270C9446270E94682768F3992388
:10518000B1F3552391F3951B550BBB27AA27621743
:105190007307840738F09F5F5F4F220F331F441F50
:1051A000AA1FA9F335D00E2E3AF0E0E832D0915084
:1051B0005040E695001CCAF72BD0FE2F29D0660F71
:1051C000771F881FBB1F261737074807AB07B0E8B4
:1051D00009F0BB0B802DBF01FF2793585F4F3AF0BA
:1051E0009E3F510578F00C9440270C948B275F3F2D
:1051F000E4F3983ED4F3869577956795B795F79540
:105200009F5FC9F7880F911D9695879597F9089527
:10521000E1E0660F771F881FBB1F621773078407C3
:10522000BA0720F0621B730B840BBA0BEE1F88F7D2
:10523000E09508950E9421296894B1110C948B2760
:1052400008950E94702788F09F5798F0B92F9927EA
:10525000B751B0F0E1F0660F771F881F991F1AF061
:10526000BA95C9F714C0B13091F00E948A27B1E015
:1052700008950C948A27672F782F8827B85F39F014
:10528000B93FCCF3869577956795B395D9F73EF4FA
:1052900090958095709561957F4F8F4F9F4F0895A2
:1052A0000E94AF2608F48FEF089519F416F40C94B9
:1052B00046270C949B290E947027B8F39923C9F3C1
:1052C000B6F39F57550B87FF0E94A9290024A0E63B
:1052D00040EA900180585695979528F4805C660FB7
:1052E000771F881F20F026173707480730F4621B06
:1052F000730B840B202931294A2BA6951794079408
:10530000202531254A2758F7660F771F881F20F080
:1053100026173707480730F4620B730B840B200DF8
:10532000311D411DA09581F7B901842F9158880F37
:105330009695879508959F3F31F0915020F4879579
:1053400077956795B795880F911D9695879597F9ED
:10535000089591505040660F771F881FD2F7089527
:10536000991B79E004C0991F961708F0961B881FB7
:105370007A95C9F780950895AA1BBB1B51E107C018
:10538000AA1FBB1FA617B70710F0A61BB70B881FD5
:10539000991F5A95A9F780959095BC01CD01089564
:1053A00097FB072E16F4009407D077FD09D00E94D2
:1053B000BC2907FC05D03EF4909581959F4F089538
:1053C000709561957F4F0895EE0FFF1F0590F49142
:1053D000E02D0994CF93DF938230910510F482E0A1
:1053E00090E0E0914007F091410720E030E0C0E01C
:1053F000D0E0309711F14081518148175907C0F032
:105400004817590761F482819381209719F09B8393
:105410008A832BC0909341078093400726C02115B3
:10542000310519F04217530718F49A01BE01DF0144
:10543000EF010280F381E02DDCCF2115310509F168
:10544000281B390B2430310590F412968D919C91D4
:1054500013976115710521F0FB019383828304C0CA
:105460009093410780934007FD01329644C0FD01AF
:10547000E20FF31F81939193225031092D933C93B6
:105480003AC020913E0730913F07232B41F42091F1
:1054900002013091030130933F0720933E07209192
:1054A0000001309101012115310541F42DB73EB7BE
:1054B0004091040150910501241B350BE0913E07FA
:1054C000F0913F07E217F307A0F42E1B3F0B2817BC
:1054D000390778F0AC014E5F5F4F2417350748F06D
:1054E0004E0F5F1F50933F0740933E078193919368
:1054F00002C0E0E0F0E0CF01DF91CF9108950F937B
:105500001F93CF93DF93009709F48CC0FC0132976F
:105510001382128200914007109141070115110575
:1055200081F420813181820F931F20913E073091B9
:105530003F072817390779F5F0933F07E0933E07B7
:1055400071C0D80140E050E0AE17BF0750F412968A
:105550002D913C911397AD012115310509F1D90128
:10556000F3CF9D01DA013383228360817181860F3D
:10557000971F8217930769F4EC0128813981260F60
:10558000371F2E5F3F4F318320838A819B81938316
:105590008283452B29F4F0934107E093400742C0F2
:1055A0001396FC93EE931297ED01499159919E0148
:1055B000240F351FE217F30771F480819181840F66
:1055C000951F029611969C938E93828193811396D8
:1055D0009C938E931297E0E0F0E0D80112968D91A3
:1055E0009C911397009719F0F8018C01F6CF8D91DB
:1055F0009C9198012E5F3F4F820F931F20913E0791
:1056000030913F072817390769F4309729F4109231
:1056100041071092400702C01382128210933F0785
:1056200000933E07DF91CF911F910F910895A0E065
:10563000B0E0EDE1FBE20C94F927EC01009721F4D6
:10564000CB010E94EA29B8C0FC01E60FF71F9C01BC
:1056500022503109E217F30708F4ACC0D9010D91CB
:105660001C91119706171707B0F00530110508F4C3
:105670009FC0C80104978617970708F499C0025085
:105680001109061B170B019311936D937C93CF01A6
:105690000E947F2A8DC05B01A01AB10A4C01800EC6
:1056A000911EA0914007B091410740E050E0E12CED
:1056B000F12C109709F44AC0A815B905D1F56D90E1
:1056C0007C901197630182E0C80ED11CCA14DB04E0
:1056D00080F1A3014A195B096A0182E0C80ED11C5E
:1056E0001296BC9012971396AC91B5E0CB16D104EC
:1056F00040F0B282A38351834083D9016D937C93A0
:105700000AC00E5F1F4FC301800F911FF9019183E3
:105710008083EB2DFA2FE114F10431F0D7011396B9
:10572000FC93EE93129744C0F0934107E093400737
:105730003FC08D919C9111974817590708F4AC010F
:105740007D0112960D90BC91A02DB3CF80913E07A4
:1057500090913F0788159905E1F446175707C8F45B
:105760008091000190910101009741F48DB79EB79F
:105770004091040150910501841B950BE817F9072E
:10578000C8F4F0933F07E0933E07F901718360830B
:105790000FC0CB010E94EA297C01009759F0A801B3
:1057A000BE010E94F32BCE010E947F2AC70104C0D4
:1057B000CE0102C080E090E0CDB7DEB7EEE00C9401
:1057C000152881E090E0F8940C94122CFB01DC0188
:1057D00004C08D910190801921F441505040C8F7C8
:1057E000881B990B0895FB01DC0102C001900D920A
:1057F00041505040D8F70895FB01DC0101900D9213
:105800000020E1F70895FB01DC014150504048F0D1
:1058100001900D920020C9F701C01D9241505040E7
:10582000E0F7089511E0CEEFD1E004C0FE010E9440
:0E583000E4292196CF3FD107C9F7F894FFCFA6
:10583E0000004207800000001100230034004600E3
:10584E00570069007A008B009C00AE00BF00D000AC
:10585E00E100F20003011401240135014601560155
:10586E006601770187019701A701B601C601D5012F
:10587E00E501F4010302120221022F023E024C0244
:10588E005A0268027502830290029D02AA02B702B2
:10589E00C302CF02DB02E702F302FE020903140386
:1058AE001F03290333033D034703500359036203C8
:1058BE006B0373037B0383038A03920399039F0392
:1058CE00A603AC03B203B703BC03C103C603CA03EA
:1058DE00CE03D203D603D903DC03DE03E103E303D5
:1058EE00E403E603E703E703E803E8030000000030
:1058FE00600A231AF809A70A290A070A1B0A0000D8
:10590E000000DC02D902D302D60200000000C60D50
:10591E00920D2F0D564D4450565F317C315F564DD2
:10592E004450560D0A00433A5C55736572735C74AD
:10593E0079626C755C417070446174615C4C6F632C
:10594E00616C5C54656D705C564D4275696C647328
:10595E005C4175746F4D6F76655C537061726B460A
:10596E00756E5F526564426F6172645C4465627508
:10597E00675C4175746F4D6F76652E637070206332
:10598E006F6D70696C6564204F6374203331203203
:10599E003031372061742032313A32353A353800A1
:1059AE0030313233343536370074787400536572C3
:1059BE00766F73207475726E6564206F6E2E005351
:1059CE006572766F73207374696C6C206F66662EC9
:0C59DE00002F546F706F4D61707300005B
:107E0000112484B714BE81FFF0D085E080938100F7
:107E100082E08093C00088E18093C10086E0809377
:107E2000C20080E18093C4008EE0C9D0259A86E02C
:107E300020E33CEF91E0309385002093840096BBD3
:107E4000B09BFECF1D9AA8958150A9F7CC24DD24C4
:107E500088248394B5E0AB2EA1E19A2EF3E0BF2EE7
:107E6000A2D0813461F49FD0082FAFD0023811F036
:107E7000013811F484E001C083E08DD089C08234E0
:107E800011F484E103C0853419F485E0A6D080C0E4
:107E9000853579F488D0E82EFF2485D0082F10E0AE
:107EA000102F00270E291F29000F111F8ED06801E7
:107EB0006FC0863521F484E090D080E0DECF843638
:107EC00009F040C070D06FD0082F6DD080E0C81688
:107ED00080E7D80618F4F601B7BEE895C0E0D1E017
:107EE00062D089930C17E1F7F0E0CF16F0E7DF06D8
