:100000000C94B7010C94DF010C94DF010C94DF0118
:100010000C94DF010C94DF010C94DF010C94DF01E0
:100020000C94DF010C94DF010C94DF010C94920915
:100030000C94DF010C94DF010C94DF010C94DF01C0
:100040000C94670E0C94DF010C945A0D0C94340D33
:100050000C94DF010C94DF010C94DF010C94DF01A0
:100060000C94DF010C94DF01000000002300260047
:10007000290000000000240027002A0001020408D3
:100080001020408001020408102001020408102002
:10009000040404040404040402020202020203032E
:1000A000030303036865696768742C2072616469DF
:1000B00075732C2074686574612C20736F6E617287
:1000C000206D6561737572656D656E7400636C613A
:1000D0007720736572766F20616E676C652C206384
:1000E0006C61772061646A20616E676C652C2063A7
:1000F0006C6177206865696768742C20636C617730
:10010000207261646975732C0074757272656E7407
:1001100020736572766F20616E676C652C20747534
:10012000727265742061646A20616E676C652C2050
:10013000747572726574206865696768742C2074C0
:100140007572726574207261646975732C00626FD8
:100150006F6D3220736572766F20616E676C652CEF
:1001600020626F6F6D322061646A20616E676C651A
:100170002C20626F6F6D32206865696768742C206F
:10018000626F6F6D32207261646975732C00626FEB
:100190006F6D3120736572766F20616E676C652CB0
:1001A00020626F6F6D312061646A20616E676C65DB
:1001B0002C20626F6F6D31206865696768742C2030
:1001C000626F6F6D31207261646975732C004175C7
:1001D000746F4D6F7665203A20004175746F4D6FD6
:1001E0007665203A20004F70656E2066696C652048
:1001F0006661696C65643A20004175746F4D6F7675
:1002000065203A20004368616E6765206469726505
:1002100063746F727920746F2022546F706F4D6118
:10022000707322206661696C65642E004175746F7D
:100230004D6F7665203A2000556E697175652073A3
:10024000686F72742066696C65206E616D653A2016
:10025000004175746F4D6F7665203A2000437265DA
:100260006174652022546F706F4D61707322206637
:1002700061696C65642E0043726561746520225467
:100280006F706F4D61707322207375636365656471
:1002900065642E004175746F4D6F7665203A2000BD
:1002A000626567696E20737563636573732E0062A0
:1002B0006567696E206661696C65642E00417574BE
:1002C0006F4D6F7665203A20005374617274696EC9
:1002D0006720535049205344206361726420737433
:1002E0007566662E004175746F4D6F7665203A20F5
:1002F0000046696E697368656420776967676C6931
:100300006E67206120736572766F2E004175746F81
:100310004D6F7665203A2000536572766F206661D6
:10032000696C656420746F206174746163682E0069
:10033000536572766F2061747461636865642E0022
:100340004175746F4D6F7665203A20000000000003
:10035000250028002B000000000800020100000317
:1003600004070000000000000000E121201C11240F
:100370001FBECFEFD8E0DEBFCDBF12E0A0E0B1E0FE
:10038000EAEFFDE402C005900D92AC3CB107D9F74D
:1003900027E0ACECB2E001C01D92A836B207E1F74D
:1003A00011E0C6EBD1E004C02197FE010E94C224F7
:1003B000C53BD107C9F70E94211C0C94F0260C9470
:1003C0000000CF92DF92EF92FF92CF93DF93EC0188
:1003D000603282E078070CF03DC077FD06C0653BD7
:1003E00071052CF064EB70E002C060E070E0898180
:1003F00028E830E06901C81AD10887FDD394CC0CF5
:10040000DD1CCC0CDD1C0D2C000CEE08FF088A81D5
:1004100028E532E0281B310987FD3395220F331F71
:10042000220F331FC901330FAA0BBB0B9C01AD0177
:100430002C193D094E095F09DB010E94402424EB81
:1004400030E040E050E00E941624C20ED31EE41EAD
:10045000F51EB60188818C3080F5998148E850E01E
:10046000491B510997FD5395440F551F440F551FC4
:100470006417750784F09A8128E532E0291B310959
:1004800097FD3395220F331F220F331FAB01261721
:1004900037070CF4A90142505109440F551F2FB7DB
:1004A000F89490E0FC01EE0FFF1F8E0F9F1FFC01E0
:1004B000E253FD4F528341832FBFDF91CF91FF90D5
:1004C000EF90DF90CF900895CF93DF93EC0124EB72
:1004D00030E0B9010E94AE24AC01465A5F4F453B63
:1004E000510510F4FE0103C0F901E81BF90BEE0FF2
:1004F000FF1FEA5FFE4F20813181D7FF05C08827AB
:100500009927821B930B01C0C901DF91CF910895F8
:1005100081E00895089580E090E008953F924F9221
:100520005F926F927F928F929F92AF92BF92CF9283
:10053000DF92EF92FF920F931F93CF93DF93CDB78C
:10054000DEB728970FB6F894DEBF0FBECDBF4C01C3
:10055000DC0112968C911297806812968C931297F8
:100560001C964D905D906D907C901F971696AD9067
:10057000BC901797411451046104710461F4D501D2
:1005800018968D919D910D90BC91A02D8D839E8389
:10059000AF83B88704C04D825E826F827886CD803B
:1005A000DE80EF80F884BFEFCB1ADB0AEB0AFB0A90
:1005B000F501808D918DA28DB38D8C159D05AE05B5
:1005C000BF0528F482E0C82ED12CE12CF12C9E012D
:1005D0002F5F3F4FB701A601C5010E94BE1187FDE5
:1005E00020C0882341F089819A81AB81BC81892B0D
:1005F0008A2B8B2B51F08D819E81AF81B885C816D7
:10060000D906EA06FB0679F60CC00FEF1FEF2FEFB5
:100610003FE0B701A601C5010E945B11382E811190
:1006200002C0312C2BC0411451046104710451F0FB
:1006300097018601B301A201C5010E945B118111DE
:1006400008C0EFCFD5011896CD92DD92ED92FC92C5
:100650001B97F50180A191A1A2A1B3A1B7FD07C08D
:100660000197A109B10980A391A3A2A3B3A3D401C7
:100670001C96CD92DD92ED92FC921F97832D2896C9
:100680000FB6F894DEBF0FBECDBFDF91CF911F91A3
:100690000F91FF90EF90DF90CF90BF90AF909F9021
:1006A0008F907F906F905F904F903F9008950F9341
:1006B0001F93CF93DF93DC012C91211102C081E0C5
:1006C00051C0EC018A8187FF35C04C895D896E89F4
:1006D0007F898E819F8121E084960E941611009768
:1006E000E9F1EC81FD81EF70FF2725E0EE0FFF1FA0
:1006F0002A95E1F7DC01AE0FBF1F2C91253E71F169
:10070000288123FF0AC0488D598D6A8D7B8D5C96A8
:100710004D935D936D937C935F974C8D5D8D6E8D46
:100720007F8DE80FF91F538F428F758B648B8A8101
:100730008F778A830E811F81C80184960E94BC1026
:10074000882361F0F80180819181DC01ED91FC91B9
:100750000280F381E02D09958111B1CF89818160FB
:10076000898380E0DF91CF911F910F9108950496C6
:100770000C9457034F925F926F927F928F929F9249
:10078000AF92BF92CF92DF92EF92FF920F931F939F
:10079000CF93DF93EC014A015B014C845D846E844E
:1007A0007F84A881AA2309F491C0488959896A895C
:1007B0007B8984169506A606B70609F48DC08114B8
:1007C0009104A104B10429F41C861D861E861F868F
:1007D00078C0A3FF0BC0088D198D2A8D3B8D08159D
:1007E00019052A053B0508F471C014C0A5FF12C005
:1007F000EE81FF818681978125E0880F991F2A95D8
:10080000E1F7A0E0B0E088159905AA05BB0508F45A
:100810005DC057C0EE81FF81848190E009968A0116
:100820009B010150110921093109082E04C0369598
:100830002795179507950A94D2F775016401B1E0E1
:10084000CB1AD108E108F10804C0F694E794D794D4
:10085000C7948A95D2F7C016D106E206F30620F0B7
:10086000452B462B472B81F4A6FF05C0848D958D23
:10087000A68DB78D04C08C8D9D8DAE8DBF8D8C8760
:100880009D87AE87BF8704C0C01AD10AE20AF30A67
:100890008E01045F1F4FC114D104E104F10489F0FB
:1008A0004C855D856E857F8598018E819F810E9434
:1008B000BE1191E0C91AD108E108F10818165CF3DD
:1008C00005C0888A998AAA8ABB8A06C04C865D863A
:1008D0006E867F8680E001C081E0DF91CF911F911D
:1008E0000F91FF90EF90DF90CF90BF90AF909F90CF
:1008F0008F907F906F905F904F9008952F923F92CE
:100900004F925F926F927F928F929F92AF92BF921F
:10091000CF92DF92EF92FF920F931F93CF93DF93CB
:10092000EC015B014A01888183FF0EC08A8181FF4F
:100930000BC082FF0FC0488D598D6A8D7B8DCE0113
:100940000E94BA03811106C08981816089838FEF7B
:100950009FEF0DC1A40160E070E088899989AA89A0
:10096000BB8980959095A095B09584179507A607AB
:10097000B70750F364011E018CE0280E311C088972
:1009800019892A893B89C114D10409F4D5C08E8103
:100990009F81B901A80129E07695679557954795FC
:1009A0002A95D1F7DC011396FC90F4221170F11016
:1009B00034C00115110589F54C855D856E857F85EF
:1009C000411551056105710569F091010E94BE1143
:1009D00087FDBACF811121C0CE010E948E02811104
:1009E0001CC0B2CF8C8D9D8DAE8DBF8D0097A105A3
:1009F000B10579F4CE010E948E02882309F4A4CFB8
:100A00008C859D85AE85BF858C8F9D8FAE8FBF8F6A
:100A100004C08C879D87AE87BF87EE81FF814C85A0
:100A20005D856E857F854250510961097109048099
:100A300004C0440F551F661F771F0A94D2F78089A0
:100A40009189A289B389480F591F6A1F7B1F4F0DD7
:100A5000511D611D711D0115110521F4C114B2E074
:100A6000DB06B0F580E092E0801B910B76018C15DF
:100A70009D0508F47C010115110579F44888598811
:100A80006A887B88888D998DAA8DBB8D48165906FA
:100A90006A067B0610F025E001C021E0CF018496B4
:100AA0000E941611009709F44FCFA701B501800FDE
:100AB000911F0E94D1260E0D1F1D0115124059F5E0
:100AC0008E819F8184960E94BC10811124C03CCFEE
:100AD00087A190A5A1A5B2A584179507A607B7077A
:100AE00041F414A28FEF9FEFDC0187A390A7A1A789
:100AF000B2A7EE81FF8180819181DC01ED91FC91B3
:100B00000480F581E02D95010995882309F41CCF17
:100B1000E12C82E0F82E88899989AA89BB898E0DFB
:100B20009F1DA11DB11D888B998BAA8BBB8BAE0C11
:100B3000BF1CCE18DF0823CF888D998DAA8DBB8D61
:100B400080179107A207B30738F4088F198F2A8FEF
:100B50003B8F8A8180688A838A8183FD02C0C401B9
:100B600006C0CE010E9457038111F9CFEDCEDF916F
:100B7000CF911F910F91FF90EF90DF90CF90BF909A
:100B8000AF909F908F907F906F905F904F903F902D
:100B90002F90089504960C947E04CF93DF931F92B8
:100BA000CDB7DEB7698341E050E0BE016F5F7F4F94
:100BB00004960E947E040F90DF91CF910895CF920A
:100BC000DF92EF92FF920F931F93CF93DF93EC018D
:100BD000862F488959896A897B898A019B01E5E0CA
:100BE0003695279517950795EA95D1F7102F1F7021
:100BF00011F0811151C098819923D9F18A8180FF28
:100C000038C093FF63C0C88CD98CEA8CFB8CC41AA3
:100C1000D50AE60AF70A22E0C216D104E104F1047B
:100C200008F44EC09A01317095FD61C0EE81FF81DC
:100C300003816A017B0189E0F694E794D794C79415
:100C40008A95D1F70C21232B09F07EC001117CC0BD
:100C5000452B462B472B09F45CC04C855D856E8582
:100C60007F859E01245F3F4FCF010E94BE1187FF09
:100C700060C08981826089838FEF9FEF0197E9F4DB
:100C800088899989AA89BB894F96A11DB11D888B36
:100C9000998BAA8BBB8B08C0405E5F4F6F4F7F4F15
:100CA000488B598B6A8B7B8B8E819F818B9620E240
:100CB000129F800D911D112480C080E090E07DC0C6
:100CC000CD28CE28CF2809F0ADCF0EC095FFAACFF2
:100CD000EE81FF818681978125E0880F991F2A95F3
:100CE000E1F78417950719F480E090E061C099E07E
:100CF00076956795579547959A95D1F7EE81FF813F
:100D0000848D958DA68DB78D480F591F6A1F7B1F47
:100D100039C096FF05C0848D958DA68DB78D04C012
:100D20008C8D9D8DAE8DBF8D8C879D87AE87BF8747
:100D30000BC0811109C08881807709F49ACF81E0C6
:100D400090E021E030E036C0EE81FF814C855D858A
:100D50006E857F854250510961097109048004C084
:100D6000440F551F661F771F0A94D2F78089918917
:100D7000A289B389480F591F6A1F7B1F400F511D5D
:100D8000611D711D8E819F8120E084960E94161145
:100D9000892B09F46ECF88899989AA89BB89019624
:100DA000A11DB11D888B998BAA8BBB8B81E090E034
:100DB00020E030E0821B930B61CFDF91CF911F9138
:100DC0000F91FF90EF90DF90CF900895FC0180810C
:100DD000811114C080E2DF01982F1D929A95E9F7E6
:100DE00077836683DB0115969C91903119F09032E0
:100DF00029F480E4808381E08283089580E008956F
:100E0000CF93DF93EC010E9457031882DF91CF91BB
:100E10000895CF92DF92EF92FF920F931F93CF939B
:100E2000DF93CDB7DEB7E3970FB6F894DEBF0FBE02
:100E3000CDBF7C018B015BAB4AABD22E19821A82EB
:100E4000FC018081882311F080E059C0FB01808182
:100E50008077D1F3EAA9FBA980818F32D9F4EAA97E
:100E6000FBA980818F3221F43196FBABEAABF7CF3F
:100E7000F80166817781811104C0C7010E94E606EE
:100E80003EC0CE0101960E94E6068823E9F28E015B
:100E90000F5F1F4F80E2C82EAE014E5C5F4FBE0158
:100EA0006F5D7F4F8AA99BA90E948717882361F2F3
:100EB000EAA9FBA980818823D1F021E0AE014F5D32
:100EC0005F4FB801C7010E940B14882309F4BCCFFF
:100ED000F701DE0111968C2D01900D928A95E1F7B4
:100EE000C7010E9400078E010F5F1F4FD5CF2D2D28
:100EF000AE014F5D5F4FB801C7010E940B14E3962E
:100F00000FB6F894DEBF0FBECDBFDF91CF911F911A
:100F10000F91FF90EF90DF90CF9008958F929F9266
:100F2000AF92BF92EF92FF920F931F93CF93DF93F5
:100F3000EC01888185FF02C010E06CC08889998926
:100F4000AA89BB8981159E4FAF41B105A8F7CE0193
:100F50000E948E02182F882379F3EE81FF814C8541
:100F60005D856E857F854250510961097109048054
:100F700004C0440F551F661F771F0A94D2F780885C
:100F80009188A288B388840E951EA61EB71E25E000
:100F9000B501A401CF0184960E9416117C01892B12
:100FA00059F280E092E0D701FC011D923197E9F7F8
:100FB00001E0EE81FF8192810917A8F4808191817F
:100FC000DC01ED91FC910480F581E02D9701B501E4
:100FD000A401400F511D611D711D0995882309F45D
:100FE000ABCF0F5FE6CF492F50E060E070E089E0C3
:100FF000440F551F661F771F8A95D1F788899989F5
:10100000AA89BB89480F591F6A1F7B1F488B598BC0
:101010006A8B7B8B812FDF91CF911F910F91FF9076
:10102000EF90BF90AF909F908F900895AF92BF9236
:10103000CF92DF92EF92FF920F931F93CF93DF93A4
:10104000CDB7DEB7A0970FB6F894DEBF0FBECDBF09
:101050008C01DB019C91907709F4CEC07B0123ECDD
:10106000C8010E940B14882309F4C6C081E0F8016E
:10107000828350E1D52ED082C8010E948E0788233A
:1010800009F4BAC0F80184859585A685B785848F53
:10109000958FA68FB78F40E050E0BA01C8010E943B
:1010A000BA03C8010E945703882309F4A5C0D801D8
:1010B00054964D915D916D917C91579716968D91B7
:1010C0009C91179721E084960E941611009709F4CD
:1010D00093C0F801248135812F70332745E0220F1A
:1010E000331F4A95E1F7820F931FDC011B96DC92B8
:1010F00020E2FC01DE01119601900D922A95E1F7A4
:10110000FC01A488B588C28CD38C8EE28983FE0151
:101110003296CE010C9620E22193E817F907E1F709
:10112000D8011696ED91FC9117975C964D915D91C3
:101130006D917C915F97425051096109710904805A
:1011400004C0440F551F661F771F0A94D2F7808989
:101150009189A289B389480F591F6A1F7B1F21E01B
:10116000CF0184960E941611009709F445C0BE8AEB
:10117000AD8ADC8ECB8E20E2FE013196DC0101903F
:101180000D922A95E1F72EE22A83F701448D558DC1
:10119000668D778D7E8B6D8B5C8F4B8F20E2FE0191
:1011A0003196DC01909601900D922A95E1F7D801D5
:1011B00016960D911C911797C80184960E94BC1039
:1011C0008823D1F0F80180819181DC01ED91FC91BF
:1011D0000280F381E02DA0960FB6F894DEBF0FBE1B
:1011E000CDBFDF91CF911F910F91FF90EF90DF90D6
:1011F000CF90BF90AF90099480E0A0960FB6F8947E
:10120000DEBF0FBECDBFDF91CF911F910F91FF9039
:10121000EF90DF90CF90BF90AF9008958F929F9204
:10122000AF92BF92CF92DF92EF92FF92FC01828148
:1012300028E532E06901C81AD10887FDD394CC0CA7
:10124000DD1CCC0CDD1C0D2C000CEE08FF08818190
:1012500028E830E04901881A910887FD9394880CAA
:10126000991C880C991C092C000CAA08BB088081C9
:101270008F3FC1F090E0FC01EE0FFF1F8E0F9F1F0C
:10128000FC01E253FD4F2181328143E0220F331FE5
:101290004A95E1F754E0369527955A95E1F72E5F88
:1012A0003F4F02C020E030E02F5F3F4FC901330FB6
:1012B000AA0BBB0B9C01AD01281939094A095B092E
:1012C000A4EBB0E00E943524A70196012819390942
:1012D0004A095B090E941624C901FF90EF90DF9034
:1012E000CF90BF90AF909F908F900895FC01909108
:1012F000CD029C30A0F481E0890F8093CD029083D1
:10130000892F90E0FC01EE0FFF1F8E0F9F1FFC0145
:10131000E253FD4F88EB9BE09283818308958FEF2A
:10132000808308951F920F920FB60F9211242F936E
:101330003F934F935F936F937F938F939F93AF935D
:10134000BF93EF93FF938091CC0287FF05C010926B
:101350008500109284001BC02091CC02022E000C4C
:10136000330B8091CD0290E02817390784F48091E7
:10137000CC02082E000C990BFC01EE0FFF1F8E0F04
:101380009F1FFC01E253FD4F808186FD15C08091B7
:10139000CC028F5F8093CC022091CC02022E000CF5
:1013A000330B8091CD0290E028173907C4F4809167
:1013B000CC028C3064F113C08091CC02082E000C5A
:1013C000990BFC01EE0FFF1F8E0F9F1FFC01E253D4
:1013D000FD4F808160E08F730E94B50DD8CF809162
:1013E000840090918500049680349C4918F480E430
:1013F0009CE905C0809184009091850004969093AB
:101400008900809388008FEF8093CC023BC02091AD
:101410008400309185008091CC02082E000C990B3D
:10142000FC01EE0FFF1F8E0F9F1FFC01E253FD4FCB
:1014300081819281820F931F90938900809388000D
:101440008091CC02082E000C990BFC01EE0FFF1FBF
:101450008E0F9F1FFC01E253FD4F808186FF12C05B
:101460008091CC02082E000C990BFC01EE0FFF1F9F
:101470008E0F9F1FFC01E253FD4F808161E08F734F
:101480000E94B50DFF91EF91BF91AF919F918F9108
:101490007F916F915F914F913F912F910F900FBE70
:1014A0000F901F9018950F931F93CF93DF93EC012C
:1014B00060E088810E94B50D83E090E00197F1F72C
:1014C00061E088810E94B50D83E290E00197F1F719
:1014D00060E088810E94B50D8A819B819927FC017B
:1014E000E458FF4F6491FC01E057FF4FE491F0E0B6
:1014F000EE0FFF1FE859FF4F8591949103E61BE023
:1015000020E030E0462F0E94DB1B6115710581054C
:10151000910549F0DC01CB010196A11DB11DBC0173
:10152000CD019F7003C060E070E0CB01DF91CF91EF
:101530001F910F9108959B01FC01638974892617FF
:10154000370754F0FC0165897689621773071CF42C
:10155000283C31050CF0B9010C94E1018F929F9267
:10156000AF92BF92CF92DF92EF92FF920F931F93B1
:10157000CF93DF936C018B010E940E097C010197D0
:10158000833B910580F0B801C601DF91CF911F9197
:101590000F91FF90EF90DF90CF90BF90AF909F9012
:1015A0008F900C949B0A0E945B0E4B015C012EEE07
:1015B000820E22E0921EA11CB11CE70120E0C017A0
:1015C000D10709F441C0C8018C1B9D0B222331F0C7
:1015D0009C012E5F3F4F2530310570F421E030E053
:1015E0001816190614F020E030E0892F881F88278C
:1015F000881F281B31090FC021E030E0181619069A
:1016000014F020E030E0892F881F8827881F281BCE
:101610003109220F331FC20FD31FEC16FD06A1F0B4
:10162000BE01C6010E949B0A69E170E080E090E083
:101630000E94210E0E945B0E21E086169706A806E6
:10164000B90608F0BCCF9FCFDF91CF911F910F91CA
:10165000FF90EF90DF90CF90BF90AF909F908F90D2
:101660000895CF93DF93EC010E940E092F853889EE
:10167000820F931FDF91CF910895CF93DF93FC01E9
:10168000C585D6850E94310B64EB70E00E94AE24C4
:101690002AE530E0A901481B590BCA010E946402E7
:1016A000FC01EC9FC001ED9F900DFC9F900D11245B
:1016B0008C509E4F68EE73E00E94AE24CB01DF9108
:1016C000CF910895CF93DF93FC01C585D6850E9405
:1016D000310B0E9464029C012C9FC0012D9F900D34
:1016E0003C9F900D11248C509E4F68EE73E00E9439
:1016F000AE24CB01DF91CF9108958F929F92AF924C
:10170000BF92CF92DF92EF92FF920F931F93CF93EE
:10171000DF93EC01298130E0F901EA5AFC4F849112
:10172000F901E458FF4F0491F901E057FF4F14917C
:101730001123A1F081110E948C0DE12FF0E0EE0F3A
:10174000FF1FE859FF4FA591B491EC91E02391E080
:1017500080E009F490E0E92EF82E02C0E12CF12C93
:1017600061E089810E94B50D0E945B0E4B015C0116
:1017700024E6820E911CA11CB11CC12CD12C00E0CE
:1017800010E098819E3008F09E509770906490937E
:101790007C0080917A00806480937A0080917A0046
:1017A00086FDFCCF809178002091790090E0922B0B
:1017B0002A8130E02817390724F4C80ED91E0F5F9C
:1017C0001F4F0233110538F40E945B0E681579052E
:1017D0008A059B05B0F2EF2821F460E089810E9420
:1017E000B50DB801660F771F660F771FCB01969571
:1017F00087958C0D9D1D0E949A24862FDF91CF9195
:101800001F910F91FF90EF90DF90CF90BF90AF901E
:101810009F908F900895FF920F931F93CF93DF9324
:101820008C01F62EEC01C55DDD4FCE010E94000754
:10183000B801CE010E94E606882371F0FF2061F016
:1018400090913C06907739F02CE336E03093FD021E
:101850002093FC0201C080E0DF91CF911F910F9196
:10186000FF900895FC01538D448D252F30E0842F87
:1018700090E0821B930B541710F0CF9608950197B8
:101880000895FC01918D828D981761F0828DDF01A2
:10189000A80FB11D5D968C91928D9F5F9F73928F63
:1018A00090E008958FEF9FEF0895FC01918D828D58
:1018B000981731F0828DE80FF11D858D90E0089525
:1018C0008FEF9FEF0895FC01918D228D892F90E07D
:1018D000805C9F4F821B91098F73992708958EEF2B
:1018E00092E00E94630C21E0892B09F420E0822F12
:1018F0000895FC01848DDF01A80FB11DA35ABF4FCD
:101900002C91848D90E001968F739927848FA689FE
:10191000B7892C93A089B1898C9180648C93938D25
:10192000848D981306C00288F389E02D80818F7D15
:1019300080830895EF92FF920F931F93CF93DF93CD
:10194000EC0181E0888F9B8D8C8D981305C0E88910
:10195000F989808185FD24C0F62E0B8D10E00F5F84
:101960001F4F0F731127E02E8C8DE8120CC00FB69D
:1019700007FCFACFE889F989808185FFF5CFCE0190
:101980000E94790CF1CF8B8DFE01E80FF11DE35A17
:10199000FF4FF0820B8FEA89FB898081806207C04C
:1019A000EE89FF896083E889F9898081806480837A
:1019B00081E090E0DF91CF911F910F91FF90EF9028
:1019C0000895CF93DF93EC01888D8823C9F0EA89CD
:1019D000FB89808185FD05C0A889B9898C9186FD28
:1019E0000FC00FB607FCF5CF808185FFF2CFA88925
:1019F000B9898C9185FFEDCFCE010E94790CE7CF9C
:101A0000DF91CF91089580E090E0892B29F00E942A
:101A10006F0C81110C94000008953FB7F8948091E9
:101A2000F8029091F902A091FA02B091FB0226B55A
:101A3000A89B05C02F3F19F00196A11DB11D3FBF06
:101A4000BA2FA92F982F8827820F911DA11DB11D94
:101A5000BC01CD0142E0660F771F881F991F4A9590
:101A6000D1F708950E94BF261F920F920FB60F92D2
:101A700011242F933F934F935F936F937F938F9393
:101A80009F93AF93BF93EF93FF938EEF92E00E94EB
:101A9000790CFF91EF91BF91AF919F918F917F91C1
:101AA0006F915F914F913F912F910F900FBE0F90CB
:101AB0001F9018951F920F920FB60F9211242F931B
:101AC0008F939F93EF93FF93E0910E03F0910F0399
:101AD0008081E0911403F091150382FD12C0908182
:101AE000809117038F5F8F7320911803821751F035
:101AF000E0911703F0E0E250FD4F958F80931703BC
:101B000001C08081FF91EF919F918F912F910F9054
:101B10000FBE0F901F901895833081F028F481300C
:101B200099F08230A1F008958730A9F08830B9F09B
:101B30008430D1F4809180008F7D03C0809180003B
:101B40008F7780938000089584B58F7702C084B525
:101B50008F7D84BD08958091B0008F7703C0809100
:101B6000B0008F7D8093B00008951F93CF93DF93D3
:101B7000282F30E0F901EA5AFC4F8491F901E4582A
:101B8000FF4FD491F901E057FF4FC491CC23C9F026
:101B9000162F81110E948C0DEC2FF0E0EE0FFF1F2D
:101BA000E45BFC4FA591B4918FB7F894111105C077
:101BB0009C91ED2FE095E92302C0EC91ED2BEC9385
:101BC0008FBFDF91CF911F910895CF93DF9390E066
:101BD000FC01E458FF4F2491FC01E057FF4F849132
:101BE000882361F190E0880F991FFC01EE58FF4FA8
:101BF000C591D491FC01E45BFC4FA591B4916111B6
:101C000009C09FB7F8948881209582238883EC913E
:101C10002E230BC0623061F49FB7F8943881822F75
:101C2000809583238883EC912E2B2C939FBF06C035
:101C30008FB7F894E8812E2B28838FBFDF91CF9147
:101C400008958F929F92AF92BF92CF92DF92EF92C0
:101C5000FF926B017C010E940D0D4B015C01C114D0
:101C6000D104E104F104F1F00E940D0DDC01CB017F
:101C700088199909AA09BB09883E9340A105B105B5
:101C800070F321E0C21AD108E108F10888EE880E4D
:101C900083E0981EA11CB11CC114D104E104F1041D
:101CA00019F7DDCFFF90EF90DF90CF90BF90AF900E
:101CB0009F908F9008952FB7F8946091F4027091DF
:101CC000F5028091F6029091F7022FBF08951F92BE
:101CD0000F920FB60F9211242F933F938F939F93E0
:101CE000AF93BF938091F4029091F502A091F60218
:101CF000B091F7023091F30223E0230F2D3720F447
:101D00000196A11DB11D05C026E8230F0296A11D55
:101D1000B11D2093F3028093F4029093F502A093F7
:101D2000F602B093F7028091F8029091F902A09127
:101D3000FA02B091FB020196A11DB11D8093F80239
:101D40009093F902A093FA02B093FB02BF91AF9176
:101D50009F918F913F912F910F900FBE0F901F90E9
:101D600018958EBD0DB407FEFDCF08958FEF8EBD83
:101D70000DB407FEFDCF8EB50895CF93DF93FC0120
:101D80002581222361F0EC010380F481E02D61E0E4
:101D900082810E94B50D8FEF0E94B10E1D82DF91EE
:101DA000CF9108950F931F93CF93DF938C01862FCC
:101DB000EA010E94B10E88818EBD8981FE013296B2
:101DC000DE5F0DB407FEFDCF8EBDEC17FD0711F0F1
:101DD0008191F7CF0DB407FEFDCF8FEF0E94B10EBA
:101DE0008FEF0E94B10E0E94B60EF8018683982FE5
:101DF0009F71953039F087E58283C8010E94BD0E3E
:101E000080E001C081E0DF91CF911F910F91089593
:101E1000CF93DF93FC012581211110C0EC010380D9
:101E2000F481E02D908181819CBD8DBDEB81FC8191
:101E300060E082810E94B50D81E08D83DF91CF91BA
:101E40000895EF92FF921F93CF93DF9300D000D0BD
:101E5000CDB7DEB77C01162F29833A834B835C8391
:101E6000FC018581811103C0C7010E94080F0E94F7
:101E7000F518812F80640E94B10E8C810E94B10EF2
:101E80008B810E94B10E8A810E94B10E89810E94CD
:101E9000B10E112311F087E801C085E90E94B10E4F
:101EA0001C3011F40E94B60E10E00E94B60EF7012D
:101EB000868387FF04C01F3F11F01F5FF6CF0F908E
:101EC0000F900F900F90DF91CF911F91FF90EF90A7
:101ED0000895CF92DF92EF92FF920F931F93CF93CB
:101EE000DF93EC016A017B0189018C85823049F422
:101EF00088859985AA85BB8584179507A607B707A6
:101F000019F1E881F9810280F381E02DCE01099574
:101F10008823C9F18F81A7019601833039F089E0C8
:101F2000220F331F441F551F8A95D1F769E1CE0157
:101F30000E94210F882311F083E30BC0C886D98645
:101F4000EA86FB8682E08C870E94F518811103C027
:101F50008AE58A8307C0A8016CEFCE010E94D20EE9
:101F6000811105C0CE010E94BD0E80E00CC04885E5
:101F700059856A857B854F5F5F4F6F4F7F4F4887DD
:101F800059876A877B87DF91CF911F910F91FF90CF
:101F9000EF90DF90CF9008951F93CF93DF93EC01E4
:101FA0008C858130A9F41C8620E030E0A9016CE02A
:101FB000CE010E94210F882339F088E28A83CE0166
:101FC0000E94BD0E10E017C0CE010E94BD0E12C0CF
:101FD000823081F41C860E94F518182F882321F086
:101FE0008DEF0E94B10E02C086E58A83CE010E9469
:101FF000BD0E01C011E0812FDF91CF911F91089597
:10200000CF92DF92EF92FF920F931F93CF93DF93C4
:10201000EC016A017B0189018C85813049F4888556
:102020009985AA85BB85481759076A077B0741F13F
:10203000E881F9810280F381E02DCE0109958823A2
:10204000B9F08F81A7019601833039F089E0220F22
:10205000331F441F551F8A95D1F762E1CE010E94BC
:10206000210F882339F081E38A83CE010E94BD0EBF
:1020700080E018C0C886D986EA86FB8681E08C8716
:10208000B801CE010E94C713882391F34885598572
:102090006A857B854F5F5F4F6F4F7F4F48875987BA
:1020A0006A877B87DF91CF911F910F91FF90EF900F
:1020B000DF90CF9008950F931F93CF93DF93EC01A0
:1020C00089018F81833039F089E0440F551F661FE5
:1020D000771F8A95D1F79A01AB0168E1CE010E9482
:1020E000210F882319F082E38A830CC0A8016EEFC8
:1020F000CE010E94D20E182F882321F0CE010E941B
:10210000BD0E04C0CE010E94BD0E10E0812FDF91F4
:10211000CF911F910F9108950F931F93CF93DF934A
:10212000EC0189018F81833039F089E0440F551F1C
:10213000661F771F8A95D1F79A01AB0161E1CE0145
:102140000E94210F882319F080E38A830BC0B80115
:10215000CE010E94C713182F882321F0CE010E94C0
:10216000BD0E04C0CE010E94BD0E10E0812FDF9194
:10217000CF911F910F9108958F929F92AF92BF922E
:10218000EF92FF921F93CF93DF93DC012C9120FFFE
:1021900041C0EC017C01B7E0EB0EF11CE981FA8152
:1021A00080819181DC01ED91FC914B815C816D819D
:1021B0007E810480F581E02D97010995182F81110A
:1021C00002C010E028C0888181FD04C088818E7F14
:1021D000888321C0A981BA818D919C911197FC01BE
:1021E000208131811C968D909D90AD90BC901F9761
:1021F0004B815C816D817E81480D591D6A1D7B1D5F
:10220000D9011496ED91FC911597970109958111CB
:10221000DDCFD7CF11E0812FDF91CF911F91FF90BC
:10222000EF90BF90AF909F908F900895CF92DF92E4
:10223000EF92FF921F93CF93DF93EC016A017B0132
:10224000122F8B819C81AD81BE8184179507A607D3
:10225000B70719F1CE010E94BC10811103C080E0C4
:1022600090E021C012FF06C01882CB82DC82ED8292
:10227000FE8213C0E981FA8180819181DC01ED91B8
:10228000FC910190F081E02D9E01295F3F4FB70145
:10229000A60109958111E8CFE2CF13708881182B30
:1022A0001883CE010796DF91CF911F91FF90EF9099
:1022B000DF90CF9008958F929F92AF92BF92CF926E
:1022C000DF92EF92FF920F931F936A017B01480107
:1022D0005901FC012581203251F5448955896689CF
:1022E000778997018601E7E0369527951795079539
:1022F000EA95D1F7400F511F621F731F23E08496A8
:102300000E941611009711F480E02DC0E894C7F8E0
:10231000DD24EE24FF24CC0CDD1CCC0CDD1CFC01E8
:10232000EC0DFD1D80829182A282B3821BC0203100
:1023300059F7FC0144895589668977894D0D511DEE
:10234000611D711D23E084960E9416110097E1F231
:10235000DD24EE24FF24CC0CDD1CFC01EC0DFD1D66
:102360009182808281E01F910F91FF90EF90DF902A
:10237000CF90BF90AF909F908F900895CF92DF92B3
:10238000EF92FF920F931F93CF93DF93EC016A01BB
:102390007B0189018D81803251F58C899D89AE89BF
:1023A000BF89E7E07695679557954795EA95D1F708
:1023B000480F591F6A1F7B1F22E0CE0184960E949E
:1023C0001611009711F48FEF40C0E894C7F8DD2490
:1023D000EE24FF24CC0CDD1CCC0CDD1CFC01EC0D30
:1023E000FD1D80819181A281B381BF701DC08031AC
:1023F00051F74C895D896E897F894D0D511D611D95
:10240000711D22E0CE0184960E9416110097D9F228
:10241000DD24EE24FF24CC0CDD1CFC01EC0DFD1DA5
:1024200080819181A0E0B0E0488D598D6A8D7B8DCF
:10243000481759076A077B0738F0F80180839183B2
:10244000A283B38381E001C080E0DF91CF911F912F
:102450000F91FF90EF90DF90CF9008956115710577
:1024600079F0FB0101900020E9F73197AF01461B9D
:10247000570BDC01ED91FC910280F381E02D099472
:1024800080E090E008950F931F93CF93DF93E09146
:10249000E903F091EA03848195810E940E090E946C
:1024A000B01A6CE28DEE93E00E94CD05E091E90355
:1024B000F091EA03848195810E94310B0E94B01A49
:1024C0006CE28DEE93E00E94CD05E091E903F0917E
:1024D000EA03848195810E94620B0E94B01A6CE22B
:1024E0008DEE93E00E94CD05E091E903F091EA03BF
:1024F000848195810E943D0B0E94B01A6CE28DEEA2
:1025000093E00E94CD058091E9039091EA0306963D
:102510000E940E090E94B01A6CE28DEE93E00E94B8
:10252000CD058091E9039091EA0306960E94310B54
:102530000E94B01A6CE28DEE93E00E94CD0580916E
:10254000E9039091EA0306960E94620B0E94B01A7A
:102550006CE28DEE93E00E94CD058091E9039091AD
:10256000EA0306960E943D0B0E94B01A6CE28DEEC3
:1025700093E00E94CD058091E9039091EA0388964B
:102580000E940E090E94B01A6CE28DEE93E00E9448
:10259000CD058091E9039091EA0388960E94310B62
:1025A0000E94B01A6CE28DEE93E00E94CD058091FE
:1025B000E9039091EA0388960E94620B0E94B01A88
:1025C0006CE28DEE93E00E94CD058091E90390913D
:1025D000EA0388960E943D0B0E94B01A6CE28DEED1
:1025E00093E00E94CD058091E9039091EA03865B18
:1025F0009F4F0E940E090E94B01A6CE28DEE93E08C
:102600000E94CD058091E9039091EA03865B9F4F7C
:102610000E94310B0E94B01A6CE28DEE93E00E9492
:10262000CD058091E9039091EA03865B9F4F0E945C
:10263000620B0E94B01A6CE28DEE93E00E94CD0511
:102640008091E9039091EA03865B9F4F0E943D0BC6
:102650000E94B01A6CE28DEE93E00E94CD050091CD
:10266000E9031091EA03F801848195810E94620BCD
:10267000EC01C80106960E94620BC80FD91FC80161
:10268000865B9F4F0E94620B8C0F9D1FAC0160E028
:1026900070E02AE08DEE93E00E946A1B6CE28DEE02
:1026A00093E00E94CD050091E9031091EA03F8013F
:1026B000848195810E943D0BEC01C80106960E9421
:1026C0003D0BC80FD91FC801865B9F4F0E943D0B71
:1026D0008C0F9D1FAC0160E070E02AE08DEE93E06E
:1026E0000E946A1B6CE28DEE93E00E94CD05809102
:1026F000E9039091EA0388960E94310BAC0160E0F7
:1027000070E02AE08DEE93E00E946A1B6CE28DEE91
:1027100093E00E94CD058091EB039091EC030E9421
:10272000530A97FF03C00E94871A07C02AE0AB0133
:10273000BC018DEE93E00E946A1B8DEE93E0DF9169
:10274000CF911F910F910C94B31BCF93DF93BC01DA
:102750008EEF92E00E942E12EC018EEF92E00E942A
:10276000B31B8C0F9D1FDF91CF910895CF93DF9303
:10277000BC018EEF92E00E94B71BEC018EEF92E05D
:102780000E94B31B8C0F9D1FDF91CF910895EF9294
:10279000FF920F931F93CF93DF93EC017B010E9475
:1027A0005B0E8B010E94B60E8E838F3F49F40E9410
:1027B0005B0E601B710B6D327140A0F385E503C0A9
:1027C0008E3F39F080E58A83CE010E94BD0E80E005
:1027D0001BC08FEF8EBDF701D701A150BE4F9FEFF9
:1027E0000DB407FEFDCF8EB59EBD8193EA17FB07A2
:1027F000B9F70DB407FEFDCF8EB58C931E820E94F3
:10280000B60E0E94B60E81E0DF91CF911F910F911D
:10281000FF90EF9008952F923F924F925F926F92A8
:102820007F928F929F92AF92BF92CF92DF92EF9260
:10283000FF920F931F93CF93DF93CDB7DEB72D9702
:102840000FB6F894DEBF0FBECDBF6C017B01FA015D
:1028500081809280DB018C91807709F444C0D6019D
:102860008C91811140C08081837009F422C3C4011E
:102870000C966DE070E00E949A2455245394560EF5
:102880002D835F0140E050E0BA01C7010E94BA0306
:102890001C861D861E82412C612C712C1B86150105
:1028A000B6E02B0E311CF70180899189A289B3898A
:1028B0009C01AD0195E056954795379527959A95DA
:1028C000D1F72F83388749875A870F81188561E0B0
:1028D000C7010E94DF05009741F4D70111968C9142
:1028E000882309F4A8C080E0F9C2FC012081253EBC
:1028F00011F021110CC0611004C03F813C87388564
:102900003D87651408F46394211105C094C06514D3
:1029100008F4D2C202C0253EF1F12E32E1F1DC0111
:102920001B963C911B973F3009F057C0711009C0AE
:1029300026FFB9CF2F71722E1D962C912E83472C16
:1029400009C04A94241127C0DC011D962C913E81B8
:10295000321321C0442D50E0415051096DE0649F75
:102960009001659F300D112428153905A0F4FC0154
:1029700070E0753018F48181928107C07B3018F4C3
:102980008481958102C0868197812815390529F4B3
:10299000892B09F488CF712C86CF8F3F910509F0E0
:1029A000D0F74FEB480F4A3110F0682F02C060E2B9
:1029B000680FA9014F5F5F4FD50113968D919C91D0
:1029C0001497DC01A20FB31F8C919FEB980F9A31E3
:1029D00008F4805E6813DFCF71C233FDDCCF77204F
:1029E000B9F0B1E04B127FCFFC01AC01455F5F4F06
:1029F00090E060E8969F900111249695922B21918A
:102A0000920FE417F507A9F72E8192136CCF0FC030
:102A10004BE050E0B1010E94C426892B09F043CF5E
:102A2000D5018C9180FF03C021E02B873CCFBD8175
:102A3000B7FF6FC158CF8D818274823409F053CFB4
:102A4000662051F00C851D8507C060E0C7010E941B
:102A5000DF05892B21F063946514B8F315C0F701E5
:102A60008181882389F03FCFC7010E948E07882388
:102A700009F439CFD7011696ED91FC911797828111
:102A8000823020F430E1630E651470F32B8522232D
:102A900009F473C0D50115964C9082E0682E712C14
:102AA0001501B6E02B0E311C43C0F3E0F41510F411
:102AB000A3E04A2E34E0340D282F2F70432F50E02E
:102AC0002A3008F053C0205DF501E40FF51F26837E
:102AD000F4E096958795FA95E1F73150431660F347
:102AE000F501E40DF11D2EE7268340E050E0BA0128
:102AF000C7010E94BA0361E0C7010E94DF05009789
:102B0000B9F1FC0120812223C1F1238523FDF3CFFC
:102B10004BE050E0BC01C1010E94C426892B59F74B
:102B2000BFEF6B1A7B0AE4E66E16710409F4DBCE84
:102B3000F50141815281C301840F951F0380F48107
:102B4000E02D4E0F5F1FE417F50709F4AECF9C018F
:102B5000B5E0220F331FBA95E1F7820F931F219141
:102B6000022E000C330B82279327EDCF295CACCFCC
:102B7000D70111968C918111B6CEA80160E070E06A
:102B8000E5E0440F551F661F771FEA95D1F7C7018F
:102B90000E94BA03882309F4A6CE77247A94750C90
:102BA000172D5FE0652E1501F6E02F0E311C250173
:102BB00021E1420E511C0DE0112309F463C060E0D5
:102BC000C7010E94DF05FC01892B09F48CCED701D7
:102BD00016962D913C911797D90194968C919497C4
:102BE000816094968C93612F171101C0606460839B
:102BF00063861486D10120E030E8239FC0011124B0
:102C00002695282B9D91290FA415B505A9F7258791
:102C1000138E128ED50113964D915C9114976F719E
:102C200070E061507109069F9001079F300D1124DB
:102C300060E02815390540F4DA01A20FB31F8C912A
:102C4000082E000C990B0AC081E090E02815390588
:102C500011F480E090E0919581959109653018F428
:102C60009283818307C06B3018F49583848302C0FC
:102C7000978386836F5F2F5F3F4F32966D30C9F623
:102C800011509ACFF701008911892289338945E0D3
:102C900036952795179507954A95D1F760E0C701B6
:102CA0000E94DF05009709F41ECE20E2DC011D9290
:102CB0002A95E9F7F50136962BE0DC0101900D929B
:102CC0002A95E1F7F50120812871DC011C962C93EF
:102CD0001C9721E238E251963C932E93509740E0A6
:102CE00058E01F965C934E931E9753963C932E93F9
:102CF000529759963C932E93589757965C934E93C0
:102D00005697D7011696ED91FC91179784A1816093
:102D100084A380E2F60111928A95E9F7D70116960D
:102D2000AD90BC901797F601B782A68215830483F5
:102D30005C968D919D910D90BC91A02D808791877F
:102D4000A287B3870F701127F501BB9695E0000F9E
:102D5000111F9A95E1F7E00FF11F838583FF03C0F0
:102D6000D6011C92C0CDD501A00FB11FD6968C9173
:102D70008771D6018C939385987111F488608C9338
:102D8000F60173828D81827319F08081817141F720
:102D90008D818F70D60112968C93F50187A190A535
:102DA000A1A5B2A5F601848B958BA68BB78B0A0DD6
:102DB0001B1DF801FF9640805180612C712CD201BF
:102DC00099278827369640805180612C712C482A9B
:102DD000592A6A2A7B2AFD81F4FF48C04114510414
:102DE0006104710409F471C09E012F5F3F4FB3016C
:102DF000A201C5010E94BE11F82E87FDB1CF00E0EF
:102E000010E09801B301A201C5010E945B11882363
:102E100009F4A6CFD50190964D915D916D917C916D
:102E2000939777FD09C04F5F5F4F6F4F7F4FF5015D
:102E300040A351A362A373A3D50118964D915D9150
:102E40006D917C911B97441655066606770628F40B
:102E5000F501408651866286738649805A806B8070
:102E60007C80F110C1CF811130C07ACFD6015C9641
:102E70004D925D926D927C925F97F801E95BFF4FF6
:102E800080819181A281B381F601808F918FA28F81
:102E9000B38FFD81F5FF21C0D60158964D915D910C
:102EA0006D917C915B97C6010E94BA03811115C098
:102EB00057CF55245394E4CC612C2FCD7F5F3296AD
:102EC0007D3009F4F0CC9A0154CDD60112968C9144
:102ED0001297806812968C93DCCF81E02D960FB606
:102EE000F894DEBF0FBECDBFDF91CF911F910F9140
:102EF000FF90EF90DF90CF90BF90AF909F908F901A
:102F00007F906F905F904F903F902F900895AF9279
:102F1000BF92CF92DF92EF92FF920F931F93CF93C6
:102F2000DF93FB01DC0101962C912032D9F3B483AD
:102F3000A3839D0189010A1B1B0BE90189919E0155
:102F40008823C1F08F32B1F08C3511F480E0F2C0EB
:102F5000982F977F9232D1F38A33C1F3982F9F7BBA
:102F60009C33A1F392EC980F923080F380528F350E
:102F700008F3ECCF0A0F1B1FC801682F392FEC0193
:102F80002991CE012032C9F32F32B9F3EA016883C7
:102F9000398398012A1B3B0B0A171B0741F0E801F4
:102FA0008A918E018E32A9F3803299F303C0A12C4D
:102FB000B12C05C059012F3F310509F03CF6B28212
:102FC000A182CF0106969F012F5E3F4F40E2EC01A8
:102FD0004993CE01C217D307D1F7CD01AC014A1BEB
:102FE0005B0BEC013991CE013E32C1F33032B1F3CB
:102FF0009A0191E0452B09F090E0A501415051095B
:1030000038F0BD01640F751FEB0188818E32B1F776
:1030100017E060E000E070E088E0E82E2A153B054C
:103020000CF06CC06D01C20ED31EE60188818032A7
:1030300009F45BC08E3229F44217530709F055C0DA
:1030400004C08232E1F08C37D1F0D6EDFD2EF80EBF
:10305000D5E0DF1510F08D3291F4C6ECFC2EF80EA1
:10306000C5E0CF1560F4D5EAFD2EF80ED2E0DF15ED
:1030700030F4CFEDFC2EF80ECDE5CF1520F424175B
:10308000350781F438C024173507A9F1161718F150
:10309000F82ECFE9DC2ED80ED9E1DD1548F08052AC
:1030A0007E290CC01617B8F090E08FE5CFE5FC2E16
:1030B000CFEBFC0ED9E1DF1508F00E29FF24F394C5
:1030C000F60E6F01C60ED11CE6018E83D6E0DF1529
:1030D00070F0F5820CC01A3081F0421753076CF083
:1030E0009A011AE068E0D0E1ED2E90E001C06F2D6A
:1030F0002F5F3F4F93CF1A30B9F490E08681803232
:1031000009F424CF992329F0072309F072E0708392
:1031100009C081E080838581E80FF11D8EE78683F9
:1031200081E3878381E006C09A011AE068E0D0E17C
:10313000ED2EDECFDF91CF911F910F91FF90EF9099
:10314000DF90CF90BF90AF900895EEEFF2E0A089AE
:10315000B18982E08C93A485B5851C92A685B7853C
:103160008FEC8C93108EA489B58986E08C93A2890C
:10317000B3898C9180618C93A289B3898C9188608A
:103180008C93A289B3898C9180688C930288F3898F
:10319000E02D80818F7D80830895909171068091CC
:1031A0007006813061F0D0F0823081F08330A9F474
:1031B000809370069093710683E090E00895809369
:1031C00070069093710681E090E0089580937006F8
:1031D0009093710682E090E0089591E0109270065D
:1031E0009093710680E090E00895CF93DF930E9462
:1031F0005B0EEB010E94B60E8F3F49F00E945B0E02
:103200006C1B7D0B69357240A8F380E001C081E042
:10321000DF91CF9108958F929F92AF92BF92CF92FC
:10322000DF92EF92FF92CF93C82F1092160481E0A5
:1032300090E0A0E0B0E08093190490931A04A0936A
:103240001B04B0931C0481E194E0909337048093B5
:103250003604109235048FEF9FEFDC018093380421
:1032600090933904A0933A04B0933B04CC2331F1FA
:10327000C53008F0E7C020E040E050E0BA0185E347
:1032800094E00E941611009709F4DCC020E1C29F6F
:10329000800D911D11244097FC01E254FE4F2081C6
:1032A0002F7709F0CFC0389680809180A280B380BC
:1032B00081149104A104B10421F4C4C0812C912C87
:1032C000540120E0B501A40185E394E00E941611A9
:1032D000FC01892B09F4B6C0838594858115924041
:1032E00009F0B0C08089823009F0ACC046855785AE
:1032F0004115510509F4A6C02585209313048FEFCD
:10330000820F8093140480E091E0291751F031E09E
:10331000380F393019F48093150494C0990F832F16
:10332000F4CF80931504C688D788C114D10419F04E
:10333000E12CF12C04C0C4A0D5A0E6A0F7A0C09257
:103340001D04D0921E04E0921F04F0922004D501C7
:10335000C401840F951FA11DB11D80932504909376
:103360002604A0932704B09328042189328930933E
:10337000180420931704CC0CDD1CEE1CFF1CC80E97
:10338000D91EEA1EFB1EC0922D04D0922E04E0929C
:103390002F04F092300455E0220F331F5A95E1F7C5
:1033A00021503E4F232F33272695C20ED31EE11CFA
:1033B000F11CC0922104D0922204E0922304F092E6
:1033C0002404238934892115310521F0C901A0E0A5
:1033D000B0E004C080A191A1A2A1B3A1B501A40154
:1033E0004C195D096E097F09480F591F6A1F7B1F21
:1033F0000090150404C076956795579547950A94F3
:10340000D2F7DB01CA010196A11DB11D80932904E9
:1034100090932A04A0932B04B0932C048FEF9FEF7A
:10342000DC018093310490933204A0933304B09371
:103430003404453F8FE058076105710528F48CE09E
:103440008093160480E017C0453F5F4F610571050A
:1034500010F480E10DC084A595A5A6A5B7A580931D
:103460002D0490932E04A0932F04B093300480E297
:103470008093160481E0CF91FF90EF90DF90CF9082
:10348000BF90AF909F908F900895FF920F931F93DE
:10349000CF93DF93CDB7DEB7A0970FB6F894DEBF1A
:1034A0000FBECDBFF62E19821A828C01055D1D4F0D
:1034B00021E041EC52E0B801CE0101960E940907DB
:1034C0008823C9F099819077A9F090E2FE013196A6
:1034D000D80101900D929A95E1F7FF2061F090914B
:1034E0003C06907741F02CE336E03093FD022093C8
:1034F000FC0201C080E0A0960FB6F894DEBF0FBEBC
:10350000CDBFDF91CF911F910F91FF900895CF9282
:10351000DF92EF92FF92CF93DF936B017C01E091FA
:10352000ED03F091EE030190F081E02D6DE28DEE60
:1035300093E00995EC0144275527BA014C195D0920
:103540006E097F092AE08DEE93E00E946A1B8C0FC2
:103550009D1FDF91CF91FF90EF90DF90CF90089566
:10356000AC01990F660B770B77FF04C0CB01BA0152
:103570000C94871A2AE08DEE93E00C946A1BCF928C
:10358000DF92EF92FF920F931F93CF93DF936C0123
:103590007A018B01C0E0D0E0CE15DF0589F0D801BB
:1035A0006D918D01D601ED91FC910190F081E02D9E
:1035B000C6010995892B11F47E0102C02196ECCF3A
:1035C000C701DF91CF911F910F91FF90EF90DF9096
:1035D000CF9008950F931F93CF93DF93EC018881D1
:1035E0009981009729F02A813B812617370788F4B3
:1035F0008B016F5F7F4F0E94F525009761F09983E3
:1036000088831B830A832C813D81232B11F4FC01C9
:10361000108281E001C080E0DF91CF911F910F9176
:103620000895EF92FF920F931F93CF93DF93FC01C6
:10363000248135816115710511F480E019C04115AF
:103640005105A9F07B01EC018A01020F131FB8019B
:103650000E94EA1A882389F3288139818C819D810F
:10366000B701820F931F0E94DA261D830C8381E02D
:10367000DF91CF911F910F91FF90EF900895EF92FE
:10368000FF920F931F93CF93DF93EC017B018A018D
:10369000BA010E94EA1A2881398181110DC02115D1
:1036A000310519F0C9010E945D25198218821D8219
:1036B0001C821B821A8206C01D830C83B701C901BC
:1036C0000E94DA26CE01DF91CF911F910F91FF90DA
:1036D000EF9008954F925F926F927F92EF92FF92D8
:1036E0000F931F93CF93DF93CDB7DEB7A1970FB69C
:1036F000F894DEBF0FBECDBF7C01FA01CB0119A249
:10370000223008F42AE08E010F5D1F4F422E512C0B
:10371000612C712CBF01A30192010E94F423F901D5
:10372000CA01015011096A3014F4605D01C0695C7E
:10373000D8016C93232B242B252B61F7B801C701EB
:103740000E942E12A1960FB6F894DEBF0FBECDBF19
:10375000DF91CF911F910F91FF90EF907F906F902D
:103760005F904F90089563EF71E00C942E12EF92EA
:10377000FF920F931F93CF93DF938C017B01C0E0E7
:10378000D0E0F701EC0FFD1F6491662361F0D801D2
:10379000ED91FC910190F081E02DC8010995892BF4
:1037A00011F02196EECFCE01DF91CF911F910F91B5
:1037B000FF90EF900895CF92DF92EF92FF920F93D8
:1037C0001F93E82FF92F05C0015011092109310974
:1037D00061F1908196239417B9F305C00150110946
:1037E0002109310911F1908196239413F7CFC12C4F
:1037F000D12CE12CF12C0AC08FEFC81AD80AE80AA4
:10380000F80A0C151D052E053F0579F080818623E9
:10381000841791F36C2D7D2D8E2D9F2D1F910F916F
:10382000FF90EF90DF90CF90089560E070E080E02F
:1038300090E01F910F91FF90EF90DF90CF9008954F
:103840000895CF93DF93CDB7DEB7CB55D1090FB62F
:10385000F894DEBF0FBECDBF789484B5826084BD7E
:1038600084B5816084BD85B5826085BD85B5816084
:1038700085BD80916E00816080936E001092810002
:1038800080918100826080938100809181008160BD
:10389000809381008091800081608093800080917E
:1038A000B10084608093B1008091B000816080930A
:1038B000B00080917A00846080937A0080917A00D1
:1038C000826080937A0080917A00816080937A0090
:1038D00080917A00806880937A001092C1001092E3
:1038E000DF031092E0031092E1031092E2031092C2
:1038F0009D0310929E0310929F031092A0030E94BA
:103900005B0E4B015C012B013C0128EB420E2BE0CE
:10391000521E611C711C0E945B0E681579058A0598
:103920009B0528F04616570668067906A0F78EEF25
:1039300092E09093DE038093DD030E94A5180E941D
:103940005B0E60939D0370939E0380939F039093FF
:10395000A00364EE71E08091DD039091DE030E948C
:103960002E120E945B0E4B015C012B013C018AE090
:10397000480E511C611C711C0E945B0E6815790574
:103980008A059B0528F04616570668067906A0F7B3
:1039900081E08093B1030E94A51886EF91E00E9418
:1039A000A5138EEF92E00E94B31B60E088E00E94B6
:1039B000B50D61E088E00E94E50D82E2D82E9CE022
:1039C000C92E22E0B22E809171068111A6C00E94FC
:1039D000CD188130910599F03CF4892B91F4009138
:1039E0007406109175060DC08230910529F0039779
:1039F00041F40AEB16E005C008E916E002C006E74C
:103A000016E0F801DE0111968D2D01900D928A9538
:103A1000E1F7688D798DCE0101960E949B0AAA88F4
:103A200089818C3008F04FC061E08A2D0E94E50D3D
:103A30008981E82FF0E09F01220F331FE20FF31F6F
:103A4000E253FD4F9A2D9F732081207CA22EA92A3C
:103A5000A0821A821B826C2D0E948E249CE0899F7A
:103A6000B001112440E050E09A01260F371FF90100
:103A7000EE0FFF1F2E0F3F1FF901E253FD4F908104
:103A800096FD15C04F5F5F4F4C30510569F78111AE
:103A90000EC010928000B0928100109285001092AA
:103AA0008400B19A80916F00826080936F00A98139
:103AB000B0E0CD01880F991FA80FB91FA253BD4FC9
:103AC0008C9180648C9360E473E08EEF92E00E94AE
:103AD000B71B898190E0FC01EE0FFF1F8E0F9F1F27
:103AE000FC01E253FD4F808186FF03C080E393E039
:103AF00002C088E193E00E94B61362E070E080E0CB
:103B000090E00E94210E809170068F5F8093700676
:103B1000109271060E94CD1856CF61E088E00E9495
:103B2000B50D109270061092710612E28091710626
:103B3000811154C00E94CD1881309105B9F03CF438
:103B4000892BC1F4E0907406F090750613C08230A2
:103B5000910539F0039771F4FAEBEF2EF6E0FF2EA2
:103B600009C0A8E9EA2EA6E0FA2E04C0E6E7EE2E88
:103B7000E6E0FE2EF701DE011196812F01900D92F5
:103B80008A95E1F76C897D89CE0101960E94AE0A83
:103B90006E897F89CE0101960E94AE0A688D798D6B
:103BA000CE0101960E94AE0A6CE073E08EEF92E0C7
:103BB0000E94B71B81EF92E00E94B61362E070E0B2
:103BC00080E090E00E94210E809170068F5F8093CC
:103BD0007006109271060E94CD18A8CF65EE72E0B3
:103BE0008EEF92E00E94B71B89EC92E00E94B61320
:103BF00062E070E080E090E00E94210E6DEB72E0E8
:103C00008EEF92E00E94B71B109268061092610638
:103C100010925E061092630689E696E09093600625
:103C200080935F060E945B0E8B01E0905F06F09030
:103C300060068AE0F701828361E00E94E50D61E0A1
:103C4000F70182810E94B50DFFB6F8948091F202CF
:103C5000811127C0EAE9F0E08491E6E8F0E0949170
:103C6000E82FF0E0EE0FFF1FEE58FF4FA591B49143
:103C7000EC91E92321F461E08AE00E94B50D61E056
:103C80008AE00E94E50D8CB580618CBD8CB58064A6
:103C90008CBD61E08DE00E94E50D61E08BE00E944B
:103CA000E50D8091F2028F5F8093F202FFBEE091FA
:103CB0005F06F091600682E5808311828CE596E0D4
:103CC0000E94080FE0915F06F091600661E082813A
:103CD0000E94B50D6AE0F62E8FEF0E94B10EFA94A5
:103CE000F110FACFE0915F06F091600660E082810A
:103CF0000E94B50D20E030E0A90160E08CE596E07F
:103D00000E94210F813049F00E945B0E601B710BF5
:103D1000613D774078F380E25AC02AEA31E040E022
:103D200050E068E08CE596E00E94210F853011F4A8
:103D300081E00CC054E0F52E0E94B60E809362061E
:103D4000FA94F110F9CF8A3A59F482E0809363062D
:103D500080916306823069F0C12CD12C76010EC0AF
:103D60000E945B0E601B710B613D7740B0F285E2F3
:103D70002EC0C12CD12CE12C40E4F42E20E030E008
:103D8000A90167E38CE596E00E94210FA701960147
:103D900069E28CE596E00E94210F882349F00E9499
:103DA0005B0E601B710B613D774040F383E40FC0F5
:103DB00080916306823001F520E030E0A9016AE3DA
:103DC0008CE596E00E94210F882341F087E38093E1
:103DD0005E068CE596E00E94BD0E45C00E94B60EC0
:103DE000807C803C19F483E0809363060E94B60EC9
:103DF0000E94B60E0E94B60E8CE596E00E94BD0EA3
:103E0000E0915F06F091600680E5808381E0818328
:103E10008CE596E090931204809311048CE396E075
:103E20000E94000781E00E940B19882349F061E19C
:103E300074E08CE396E00E94E6068823A1F006C0B9
:103E400080E00E940B198111F2CF0DC080913C06D9
:103E5000807749F08CE396E09093FD028093FC021A
:103E600080EA92E002C08FEA92E00E94B61362E01C
:103E700070E080E090E00E94210E19821A8221E019
:103E800042EC52E06CE376E0FE0131967F01CF0117
:103E90000E9409078E010D5D1F4F811168C064E902
:103EA00072E08EEF92E00E94B71B1BA21CA282EC74
:103EB00092E06C969FAF8EAF6C9719821A828091B8
:103EC0003C06807709F449C02CE3C22E26E0D22EAE
:103ED00030E2B32E902EA12EAE01465A5F4FBE01A6
:103EE0006D5B7F4F6C968EAD9FAD6C970E94871770
:103EF000882399F16C96EEADFFAD6C978081882395
:103F000001F121E0AE014D5B5F4FB601C8010E9497
:103F10000B14811109C0AE014D5B5F4FB601C801A2
:103F20000E9416088823C9F0E92DFA2DD7018B2DA0
:103F300001900D928A95E1F7C8010E940007670180
:103F4000CBCFAE014D5B5F4FB601C8010E94160892
:103F5000882319F087E792E002C08DE592E00E9485
:103F6000B61362E070E080E090E00E94210E669659
:103F70001FAE1EAE669768961FAE1EAE68976A9615
:103F80001FAE1EAE6A9748E050E060E772E0CE01D7
:103F90008C5A9F4F0E943F1B1A8219821C821B82DF
:103FA0001E821D8266966EAD7FAD669761157105A6
:103FB00039F06A964EAD5FAD6A97C7010E943F1B0C
:103FC00044E050E069E772E0C7010E94111B8111D3
:103FD0000CC089819A81009711F00E945D251A8298
:103FE00019821E821D821C821B8225961FAE1EAE68
:103FF000259727961FAE1EAE279729961FAE1EAE99
:10400000299769817A816115710539F04D815E8149
:10401000CE018D5B9F4F0E943F1B89819A810E9438
:104020005D2561E081E194E00E940B0C61E081E19B
:1040300094E00E94451AD12C9EE2A92EF4E6FD15CB
:1040400028F445E050E06EE772E00CC02AE02D1540
:1040500028F446E050E064E872E004C047E050E035
:104060006BE872E0CE018D5B9F4F0E943F1BBB242B
:10407000B394BD0C4AE0B7018D2D90E00E94BF23A0
:10408000F70101900020E9F73197AF014E195F0960
:10409000B701CE018D5B9F4F0E94111BA9821A822E
:1040A00041E050E0B701CE018D5B9F4F0E94111B94
:1040B00043E050E063E972E0CE018D5B9F4F0E94C8
:1040C000111B2996CEACDFAC2997C114D10411F491
:1040D0001BA213C08CE0C816D10418F08CE0C82EC7
:1040E000D12C25966EAD7FAD2597A601C8010E9403
:1040F000E126F801EC0DFD1D108219821A8221E0E3
:10410000A8016CE376E0C7010E940907882311F03B
:10411000DB2C94CF61E081E194E00E940B0C2596AA
:104120008EAD9FAD25970E945D2566968EAD9FADA5
:1041300066970E945D2561E572E08EEF92E00E9435
:10414000B71B68E372E08EEF92E00E94B71BC801D4
:104150000E94A51362E070E080E090E00E94210ED2
:1041600060E081E194E00E94451A811110C06CE288
:1041700072E08EEF92E00E94B71B85E092E00E9411
:10418000B61362E070E080E090E00E94210E609142
:10419000FC027091FD0222E4A80181EF93E00E94ED
:1041A0000907811115C069EF71E08EEF92E00E945E
:1041B000B71B66EE71E08EEF92E00E94B71BC8015C
:1041C0000E94A51362E070E080E090E00E94210E62
:1041D0006EE871E08DEE93E00E94B71B6EE471E033
:1041E0008DEE93E00E94B71B69E071E08DEE93E0E5
:1041F0000E94B71B6DEC70E08DEE93E00E94B71B40
:1042000064EA70E08DEE93E00E94B71B8DEE93E0C0
:104210000E94B31B6AED71E08EEF92E00E94B71B23
:1042200067E972E08EEF92E00E942E1286EE93E034
:104230000E947D0B482F50E060E070E02AE08EEF96
:1042400092E00E946A1B8EEF92E00E94B31B62E034
:1042500070E080E090E00E94210E6EEC71E08EEF45
:1042600092E00E94B71B6CEA72E08EEF92E00E942F
:104270002E1283EE93E00E947D0B482F50E060E009
:1042800070E02AE08EEF92E00E946A1B8EEF92E0CF
:104290000E94B31B62E070E080E090E00E94210E7B
:1042A00064E670E080E297E00E94AE0A63E770E0A7
:1042B00082E497E00E94AE0A64EF71E080E090E053
:1042C0000E94210E8CE696E00E94530A2B013C01CD
:1042D00000915507602F70E0809157079091580723
:1042E00068177907E4F582E497E00E94AE0A6AE570
:1042F00070E08EEF96E00E94AE0A8CE696E00E9497
:10430000530A6B017C01C418D508E608F7080E941F
:104310005B0E4B015C01E4EF8E0EE1E09E1EA11CE2
:10432000B11CFAE1CF16D104E104F104DCF00E94E3
:104330005B0E681579058A059B05A0F46FEF7FEF8A
:1043400080E297E00E94AE0A8CE696E00E94530A53
:104350006B017C01C418D508E608F708E2CF0E947B
:10436000030D9ECF10911107612F70E0809113070C
:10437000909114076817790764F48EEF96E00E9415
:10438000AE0A0E94431281EF93E00E9457031B5F25
:10439000EBCF182F612F70E08091110790911207D9
:1043A0008617970764F48EEF96E00E94AE0A0E948B
:1043B000431281EF93E00E9457031550EBCF0B5F40
:1043C00089CF2F923F924F925F926F927F928F92FE
:1043D0009F92AF92BF92CF92DF92EF92FF920F9394
:1043E0001F93CF93DF9300D000D0CDB7DEB7EEEFB1
:1043F000F2E01382128288EE93E0A0E0B0E08483C2
:104400009583A683B78380EC91E09183808385ECCC
:1044100090E09587848784EC90E09787868780EC8E
:1044200090E0918B808B81EC90E0938B828B82EC7F
:1044300090E0958B848B86EC90E0978B868B118E29
:10444000128E138E148EEBE9F3E01682178210861B
:104450001186128613861486158616861786108A8C
:10446000118A128A138A148A158A82E497E00E94BC
:10447000760982E4282E87E0382E4DE857E96EE071
:104480007FE3F10143835483658376838CE59FE862
:10449000A6E4B2EC87839087A187B287148613863F
:1044A00087E890E09687858784EC9FEF908B8787DD
:1044B00086E090E0928B818B94E6E92EF12CF48AD1
:1044C000E38A26E9A22EB12CB68AA58A8EE690E070
:1044D000908F878B8FE090E0928F818F412C512CB1
:1044E00038E4632E32E4732E438E548E658E768EBE
:1044F00002E310E010A3078F80E297E049835A831C
:104500006B837C830E947609E0E2F7E089EC96E712
:10451000AEE8BFE383839483A583B6838AE999E1F8
:10452000A3E1B3EC87839087A187B2878824839423
:10453000912C948683868EE890E09687858786EA1C
:104540009FEF908B878789E090E0928B818B86E448
:1045500090E0948B838B83E790E0968B858B80E54E
:1045600090E0908F878B8EE090E0928F818F438ECA
:10457000548E658E768E10A3078F8EEF96E00E9484
:104580007609EEEFF6E080E090E0A0E8BFE38383F9
:104590009483A583B68380E090E0A0E8BFEB878397
:1045A0009087A187B28782E090E094878387168600
:1045B0001586108A178653E0C52ED12CD28AC18A5F
:1045C0008EE190E0948B838BB68AA58A8AE590E091
:1045D000908F878B81E190E0928F818F438E548EF4
:1045E000658E768E10A3078F8CED96E00E9476097B
:1045F000ECEDF6E049815A816B817C8143835483E1
:104600006583768388EB9EE1A5E7B2EC878390878C
:10461000A187B287D486C38616861586108A178628
:1046200085E090E0928B818B8CE390E0948B838B80
:1046300082E890E0968B858BF08EE78A80E190E0AF
:10464000928F818F438E548E658E768E10A3078F46
:1046500000E716E0F801108211829382828235828F
:10466000248282E2E0E2F7E0A6E7B6E001900D9254
:104670008A95E1F782E2EEEFF6E0A8E9B6E0019074
:104680000D928A95E1F782E2ECEDF6E0AAEBB6E056
:1046900001900D928A95E1F76CE6E62E66E0F62E23
:1046A00084E090E0F7019183808387E090E093833A
:1046B000828361E084E00E94E50D60E084E00E9476
:1046C000B50D60E087E00E94E50D1092160410928F
:1046D0003C0610923D0684E680935E0610926306C7
:1046E0008EED91E090935D0680935C0680E580936B
:1046F000690610926A06EDEEF3E0148215821382C9
:10470000128282ED91E091838083E9EEF3E01183E0
:104710000083F382E282E6EEF3E082E1808312E03E
:1047200011830AE0028361E082E00E94E50D60E00F
:1047300082E10E94E50DE3EEF3E083E180831183E3
:10474000028361E082E00E94E50D60E083E10F906A
:104750000F900F900F90DF91CF911F910F91FF90CD
:10476000EF90DF90CF90BF90AF909F908F907F9011
:104770006F905F904F903F902F900C94E50DBB276A
:104780004A3031F4992322F4BDE2909581959F4FF0
:104790000C94CB23BB27FB015527AA27880F991F11
:1047A000AA1FA41710F0A41B83955051B9F7A05D60
:1047B000AA3308F0A95DA193009779F7B111B193DD
:1047C0001192CB010C94E423DC01FC01672F719161
:1047D0007723E1F7329704C07C916D9370836291E7
:1047E000AE17BF07C8F30895A1E21A2EAA1BBB1B80
:1047F000FD010DC0AA1FBB1FEE1FFF1FA217B307AD
:10480000E407F50720F0A21BB30BE40BF50B661FC2
:10481000771F881F991F1A9469F760957095809586
:1048200090959B01AC01BD01CF010895052E97FB2A
:104830001EF400940E942D2457FD07D00E94F423FB
:1048400007FC03D04EF40C942D24509540953095E0
:1048500021953F4F4F4F5F4F0895909580957095EC
:1048600061957F4F8F4F9F4F08950E947F24A59F92
:10487000900DB49F900DA49F800D911D112408955B
:10488000B7FF0C9435240E943524821B930B0895A6
:104890002F923F924F925F926F927F928F929F9250
:1048A000AF92BF92CF92DF92EF92FF920F931F933E
:1048B000CF93DF93CDB7DEB7CA1BDB0B0FB6F894EF
:1048C000DEBF0FBECDBF09942A88398848885F842F
:1048D0006E847D848C849B84AA84B984C884DF80A0
:1048E000EE80FD800C811B81AA81B981CE0FD11D84
:1048F0000FB6F894DEBF0FBECDBFED010895A29FA5
:10490000B001B39FC001A39F700D811D1124911DA3
:10491000B29F700D811D1124911D0895991B79E09E
:1049200004C0991F961708F0961B881F7A95C9F73F
:1049300080950895AA1BBB1B51E107C0AA1FBB1F8E
:10494000A617B70710F0A61BB70B881F991F5A951B
:10495000A9F780959095BC01CD01089597FB072E8E
:1049600016F4009407D077FD09D00E949A2407FC22
:1049700005D03EF4909581959F4F0895709561956F
:104980007F4F0895EE0FFF1F0590F491E02D0994DD
:10499000CF93DF938230910510F482E090E0E091B4
:1049A0006607F091670720E030E0C0E0D0E0309784
:1049B00011F14081518148175907C0F04817590734
:1049C00061F482819381209719F09B838A832BC0A5
:1049D000909367078093660726C02115310519F06B
:1049E0004217530718F49A01BE01DF01EF0102805C
:1049F000F381E02DDCCF2115310509F1281B390B9E
:104A00002430310590F412968D919C911397611585
:104A1000710521F0FB019383828304C090936707A3
:104A200080936607FD01329644C0FD01E20FF31F3B
:104A300081939193225031092D933C933AC0209158
:104A4000640730916507232B41F4209102013091D6
:104A50000301309365072093640720910001309192
:104A600001012115310541F42DB73EB740910401F4
:104A700050910501241B350BE0916407F091650707
:104A8000E217F307A0F42E1B3F0B2817390778F025
:104A9000AC014E5F5F4F2417350748F04E0F5F1F84
:104AA00050936507409364078193919302C0E0E0BF
:104AB000F0E0CF01DF91CF9108950F931F93CF9333
:104AC000DF93009709F48CC0FC01329713821282A5
:104AD00000916607109167070115110581F4208187
:104AE0003181820F931F2091640730916507281749
:104AF000390779F5F0936507E093640771C0D80131
:104B000040E050E0AE17BF0750F412962D913C9153
:104B10001397AD012115310509F1D901F3CF9D019D
:104B2000DA013383228360817181860F971F821798
:104B3000930769F4EC0128813981260F371F2E5F16
:104B40003F4F318320838A819B8193838283452BCE
:104B500029F4F0936707E093660742C01396FC932D
:104B6000EE931297ED01499159919E01240F351F43
:104B7000E217F30771F480819181840F951F0296EB
:104B800011969C938E938281938113969C938E931E
:104B90001297E0E0F0E0D80112968D919C91139766
:104BA000009719F0F8018C01F6CF8D919C91980136
:104BB0002E5F3F4F820F931F20916407309165074E
:104BC0002817390769F4309729F410926707109273
:104BD000660702C013821282109365070093640770
:104BE000DF91CF911F910F910895A0E0B0E0EBEF1E
:104BF000F5E20C944C24EC01009721F4CB010E94C7
:104C0000C824B8C0FC01E60FF71F9C0122503109EF
:104C1000E217F30708F4ACC0D9010D911C9111976C
:104C200006171707B0F00530110508F49FC0C8013A
:104C300004978617970708F499C002501109061BBC
:104C4000170B019311936D937C93CF010E945D2507
:104C50008DC05B01A01AB10A4C01800E911EA0917B
:104C60006607B091670740E050E0E12CF12C109707
:104C700009F44AC0A815B905D1F56D907C9011973B
:104C8000630182E0C80ED11CCA14DB0480F1A301C9
:104C90004A195B096A0182E0C80ED11C1296BC90C9
:104CA00012971396AC91B5E0CB16D10440F0B282C6
:104CB000A38351834083D9016D937C930AC00E5F17
:104CC0001F4FC301800F911FF90191838083EB2D4A
:104CD000FA2FE114F10431F0D7011396FC93EE930F
:104CE000129744C0F0936707E09366073FC08D9129
:104CF0009C9111974817590708F4AC017D01129651
:104D00000D90BC91A02DB3CF809164079091650761
:104D100088159905E1F446175707C8F480910001FA
:104D200090910101009741F48DB79EB74091040125
:104D300050910501841B950BE817F907C8F4F0930F
:104D40006507E0936407F901718360830FC0CB01AD
:104D50000E94C8247C01009759F0A801BE010E945E
:104D6000D126CE010E945D25C70104C0CE0102C03C
:104D700080E090E0CDB7DEB7EEE00C94682481E0EF
:104D800090E0F8940C94F026FB01DC0104C08D91B6
:104D90000190801921F441505040C8F7881B990BAD
:104DA0000895FB01DC0102C001900D92415050407A
:104DB000D8F70895FB01DC0101900D920020E1F786
:104DC0000895FB01DC014150504048F001900D92E4
:104DD0000020C9F701C01D9241505040E0F70895EE
:104DE00011E0C6EBD1E004C0FE010E94C22421966E
:0A4DF000C73BD107C9F7F894FFCFC5
:104DFA00000068078000000011002300340046000C
:104E0A00570069007A008B009C00AE00BF00D000FA
:104E1A00E100F200030114012401350146015601A3
:104E2A006601770187019701A701B601C601D5017D
:104E3A00E501F4010302120221022F023E024C0292
:104E4A005A0268027502830290029D02AA02B70200
:104E5A00C302CF02DB02E702F302FE0209031403D4
:104E6A001F03290333033D03470350035903620316
:104E7A006B0373037B0383038A03920399039F03E0
:104E8A00A603AC03B203B703BC03C103C603CA0338
:104E9A00CE03D203D603D903DC03DE03E103E30323
:104EAA00E403E603E703E703E803E803000000007E
:104EBA009A0CBF1A320CE10C630C410C550C000021
:104ECA000000CD05CA058B02B703000000000010E0
:104EDA00CC0F690F564D4450565F317C315F564DA9
:104EEA004450560D0A00433A5C55736572735C74FC
:104EFA0079626C755C417070446174615C4C6F637B
:104F0A00616C5C54656D705C564D4275696C647376
:104F1A005C4175746F4D6F76655C537061726B4658
:104F2A00756E5F526564426F6172645C4465627556
:104F3A00675C4175746F4D6F76652E637070206380
:104F4A006F6D70696C6564204E6F76202032203256
:104F5A003031372061742031353A34383A323100F1
:104F6A003031323334353637002E65787400736F3A
:104F7A006E617200736F6E61723000736F6E617270
:104F8A00303000747874004C48532073656E736F28
:104F9A00722072656164696E673A20005248532034
:104FAA0073656E736F722072656164696E673A2009
:0C4FBA00002F546F706F4D617073000089
:00000001FF
