:100000000C945D000C9485000C9485000C94850084
:100010000C9485000C9485000C9485000C9485004C
:100020000C9485000C9485000C9485000C94490573
:100030000C9485000C9485000C9485000C9485002C
:100040000C94FF040C9485000C94CD040C94A7042C
:100050000C9485000C9485000C9485000C9485000C
:100060000C9485000C94850000000008000201003B
:100070000003040700000000000000000000000072
:10008000250028002B0000000000240027002A0083
:10009000040404040404040402020202020203032E
:1000A0000303030301020408102040800102040836
:1000B00010200102040810200A0611241FBECFEFF1
:1000C000D8E0DEBFCDBF11E0A0E0B1E0E4E6FBE1A7
:1000D00002C005900D92A43EB107D9F723E0A4EE2B
:1000E000B1E001C01D92AC34B207E1F710E0CDE5FC
:1000F000D0E004C02197FE010E94A50DCC35D107A8
:10010000C9F70E94F7060C94B00D0C940000E3E1CF
:10011000F2E0A089B18982E08C93A485B5851C9218
:10012000A685B7858FEC8C93108EA489B58986E05F
:100130008C93A289B3898C9180618C93A289B389B5
:100140008C9188608C93A289B3898C9180688C9300
:100150000288F389E02D80818F7D808308952F921E
:100160003F924F925F926F927F928F929F92AF9247
:10017000BF92CF92DF92EF92FF920F931F93CF9394
:10018000DF9300D000D0CDB7DEB78C011801C12CB1
:10019000D12C7601C394812C912C54018394D101EC
:1001A0004D905D906D907D901D018D919D910D9074
:1001B000BC91A02D89839A83AB83BC839C01AD0144
:1001C000C301B2010E94390D181684F4F101408276
:1001D000518262827382349789819A81AB81BC811A
:1001E00080839183A283B383460157019FEFC91A8D
:1001F000D90AE90AF90AA8E2CA16D104E104F1040D
:1002000071F68A9489288A288B2809F0BFCF0F902D
:100210000F900F900F90DF91CF911F910F91FF9052
:10022000EF90DF90CF90BF90AF909F908F907F9096
:100230006F905F904F903F902F900895CF92DF92F4
:10024000EF92FF920F931F932FB7F894C0900F0275
:10025000D0901002E0901102F09012022FBFDC014A
:10026000CB018C0D9D1DAE1DBF1D4FB7F8940091A5
:100270000F021091100220911102309112024FBF13
:100280000C151D052E053F0528F080179107A207C4
:10029000B30758F71F910F91FF90EF90DF90CF9029
:1002A0000895CF92DF92EF92FF920F931F93CF9317
:1002B000DF936C017A018B01C0E0D0E0CE15DF0541
:1002C00089F0D8016D918D01D601ED91FC910190DD
:1002D000F081E02DC6010995892B11F47E0102C041
:1002E0002196ECCFC701DF91CF911F910F91FF9025
:1002F000EF90DF90CF900895089580E090E008950A
:10030000FC01538D448D252F30E0842F90E0821B1B
:10031000930B541710F0CF96089501970895FC01A0
:10032000918D828D981761F0828DDF01A80FB11D2C
:100330005D968C91928D9F5F9F73928F90E0089550
:100340008FEF9FEF0895FC01918D828D981731F00A
:10035000828DE80FF11D858D90E008958FEF9FEF5E
:100360000895FC01918D228D892F90E0805C9F4F34
:10037000821B91098F739927089583E192E00E946F
:10038000B10121E0892B09F420E0822F0895FC01BE
:10039000848DDF01A80FB11DA35ABF4F2C91848D0E
:1003A00090E001968F739927848FA689B7892C9343
:1003B000A089B1898C9180648C93938D848D9813DE
:1003C00006C00288F389E02D80818F7D80830895A7
:1003D000EF92FF920F931F93CF93DF93EC0181E095
:1003E000888F9B8D8C8D981305C0E889F989808151
:1003F00085FD24C0F62E0B8D10E00F5F1F4F0F738D
:100400001127E02E8C8DE8120CC00FB607FCFACF36
:10041000E889F989808185FFF5CFCE010E94C70167
:10042000F1CF8B8DFE01E80FF11DE35AFF4FF082F3
:100430000B8FEA89FB898081806207C0EE89FF8982
:100440006083E889F98980818064808381E090E01D
:10045000DF91CF911F910F91FF90EF900895CF936F
:10046000DF93EC01888D8823C9F0EA89FB898081BC
:1004700085FD05C0A889B9898C9186FD0FC00FB68E
:1004800007FCF5CF808185FFF2CFA889B9898C91CF
:1004900085FFEDCFCE010E94C701E7CFDF91CF915D
:1004A000089580E090E0892B29F00E94BD01811120
:1004B0000C940000089590E0FC01E859FF4F34913E
:1004C000FC01EC55FF4F2491FC01E057FF4FE491F4
:1004D000EE2309F43BC0332339F1333091F038F483
:1004E0003130A9F0323001F584B58F7D12C037303C
:1004F00091F03830A1F03430B9F4809180008F7DD4
:1005000003C0809180008F77809380000DC084B5F8
:100510008F7784BD09C08091B0008F7703C0809130
:10052000B0008F7D8093B000F0E0EE0FFF1FE45825
:10053000FF4FA591B4918FB7F894EC91611103C06E
:1005400020952E2301C02E2B2C938FBF08953FB7EB
:10055000F8948091E7019091E801A091E901B091B0
:10056000EA0126B5A89B05C02F3F19F00196A11DF1
:10057000B11D3FBFBA2FA92F982F8827820F911D39
:10058000A11DB11DBC01CD0142E0660F771F881F80
:10059000991F4A95D1F708958F929F92AF92BF927B
:1005A000CF92DF92EF92FF926B017C010E94A70233
:1005B0004B015C01C114D104E104F104F1F00E948B
:1005C000A702DC01CB0188199909AA09BB09883E59
:1005D0009340A105B10570F321E0C21AD108E108EA
:1005E000F10888EE880E83E0981EA11CB11CC1148E
:1005F000D104E104F10419F7DDCFFF90EF90DF9013
:10060000CF90BF90AF909F908F900895CF92DF9240
:10061000EF92FF92CF93DF93EC01603282E0780794
:100620000CF03DC077FD06C0653B71052CF064EB16
:1006300070E002C060E070E0898128E830E0690184
:10064000C81AD10887FDD394CC0CDD1CCC0CDD1C62
:100650000D2C000CEE08FF088A8128E532E0281BEB
:10066000310987FD3395220F331F220F331FC90134
:10067000330FAA0BBB0B9C01AD012C193D094E0990
:100680005F09DB010E940D0C24EB30E040E050E0FC
:100690000E94E30BC20ED31EE41EF51EB601888134
:1006A0008C3080F5998148E850E0491B510997FD4D
:1006B0005395440F551F440F551F6417750784F059
:1006C0009A8128E532E0291B310997FD3395220FE5
:1006D000331F220F331FAB01261737070CF4A90174
:1006E00042505109440F551F2FB7F89490E0FC0178
:1006F000EE0FFF1F8E0F9F1FFC01E551FE4F52832F
:1007000041832FBFDF91CF91FF90EF90DF90CF908B
:100710000895FC019091E5019C30A0F481E0890FDF
:100720008093E5019083892F90E0FC01EE0FFF1F7D
:100730008E0F9F1FFC01E551FE4F88EB9BE09283DB
:10074000818308958FEF808308959B01FC01658567
:1007500076852617370754F0FC0167857089621784
:1007600073071CF4283C31050CF0B9010C94060306
:100770008F929F92AF92BF92CF92DF92EF92FF92B1
:100780000F931F93CF93DF93EC018B018A8128E5B0
:1007900032E06901C81AD10887FDD394CC0CDD1C66
:1007A000CC0CDD1C0D2C000CEE08FF08898128E81C
:1007B00030E04901881A910887FD9394880C991CB0
:1007C000880C991C092C000CAA08BB0888818F3F53
:1007D000C1F090E0FC01EE0FFF1F8E0F9F1FFC0188
:1007E000E551FE4F2181328143E0220F331F4A95AC
:1007F000E1F754E0369527955A95E1F72E5F3F4F84
:1008000002C020E030E02F5F3F4FC901330FAA0B39
:10081000BB0B9C01AD01281939094A095B09A4EBFE
:10082000B0E00E94020CA7019601281939094A0973
:100830005B090E94E30B7901C9010197833B910594
:1008400018F4690140E032C0B801CE01DF91CF91C8
:100850001F910F91FF90EF90DF90CF90BF90AF90DE
:100860009F908F900C94A503C8018C199D0941118C
:1008700021C041E050E01816190614F040E050E0A5
:10088000892F881F8827881F481B5109C40ED51E31
:10089000EC14FD0429F1B601CE010E94A50369E123
:1008A00070E080E090E00E94CC0241E0C016D106EA
:1008B000D9F616C0AC014E5F5F4F45305105C8F206
:1008C00041E050E01816190614F040E050E0892F7E
:1008D000881F8827881F481B5109440F551FD6CFF2
:1008E000DF91CF911F910F91FF90EF90DF90CF900C
:1008F000BF90AF909F908F9008950E94AB0D6115AF
:10090000710579F0FB0101900020E9F73197AF0103
:10091000461B570BDC01ED91FC910280F381E02D29
:10092000099480E090E00895CF93DF93BC0183E1C8
:1009300092E00E947F04EC0161E271E083E192E0C9
:100940000E947F048C0F9D1FDF91CF9108951F920D
:100950000F920FB60F9211242F933F934F935F93F3
:100960006F937F938F939F93AF93BF93EF93FF9377
:1009700083E192E00E94C701FF91EF91BF91AF9197
:100980009F918F917F916F915F914F913F912F91A7
:100990000F900FBE0F901F9018951F920F920FB6D9
:1009A0000F9211242F938F939F93EF93FF93E091D6
:1009B0002302F09124028081E0912902F0912A0221
:1009C00082FD12C0908180912C028F5F8F732091E5
:1009D0002D02821751F0E0912C02F0E0ED5EFD4F08
:1009E000958F80932C0201C08081FF91EF919F91A0
:1009F0008F912F910F900FBE0F901F9018951F92FF
:100A00000F920FB60F9211242F933F938F939F93C2
:100A1000AF93BF9380910F0290911002A0911102A9
:100A2000B09112023091E60123E0230F2D3720F41C
:100A30000196A11DB11D05C026E8230F0296A11D38
:100A4000B11D2093E60180930F0290931002A093B2
:100A50001102B09312028091E7019091E801A091F8
:100A6000E901B091EA010196A11DB11D8093E70152
:100A70009093E801A093E901B093EA01BF91AF918F
:100A80009F918F913F912F910F900FBE0F901F90CC
:100A900018951F920F920FB60F9211242F933F9328
:100AA0004F935F936F937F938F939F93AF93BF9376
:100AB000EF93FF938091E40187FF05C010928500BA
:100AC000109284001BC02091E401022E000C330B15
:100AD0008091E50190E02817390784F48091E401C2
:100AE000082E000C990BFC01EE0FFF1F8E0F9F1FAD
:100AF000FC01E551FE4F808186FD15C08091E40127
:100B00008F5F8093E4012091E401022E000C330BEF
:100B10008091E50190E028173907C4F48091E40141
:100B20008C3064F113C08091E401082E000C990B05
:100B3000FC01EE0FFF1F8E0F9F1FFC01E551FE4FC2
:100B4000808160E08F730E945B02D8CF8091840027
:100B500090918500049680349C4918F480E49CE9C7
:100B600005C080918400909185000496909389003F
:100B7000809388008FEF8093E4013BC02091840034
:100B8000309185008091E401082E000C990BFC0146
:100B9000EE0FFF1F8E0F9F1FFC01E551FE4F81815D
:100BA0009281820F931F9093890080938800809197
:100BB000E401082E000C990BFC01EE0FFF1F8E0FB5
:100BC0009F1FFC01E551FE4F808186FF12C080917E
:100BD000E401082E000C990BFC01EE0FFF1F8E0F95
:100BE0009F1FFC01E551FE4F808161E08F730E94E1
:100BF0005B02FF91EF91BF91AF919F918F917F9198
:100C00006F915F914F913F912F910F900FBE0F9079
:100C10001F9018958F929F92AF92BF92CF92DF92C2
:100C2000EF92FF920F931F93CF93DF93E3E1F2E0F4
:100C30001382128288EE93E0A0E0B0E08483958373
:100C4000A683B78384E091E09183808385EC90E074
:100C50009587848784EC90E09787868780EC90E086
:100C6000918B808B81EC90E0938B828B82EC90E077
:100C7000958B848B86EC90E0978B868B118E128EF1
:100C8000138E148EE0EBF2E0168217821086118626
:100C9000128613861486158616861786108A118A80
:100CA000128A138A148A158A80E393E00E948903CA
:100CB000E0E3F3E0C12CD12C88E4E82E82E4F82EA6
:100CC000C58AD68AE78AF08EC2E3D0E0D28FC18F80
:100CD00086E090E09487838704E610E01687058716
:100CE00086E990E0908B87878EE690E0928B818BEF
:100CF0008FE090E0948B838B9DE8892E97E9992E65
:100D00009EE0A92E9FE3B92E83829482A582B682AB
:100D10008CE59FE8A6E4B2EC87839087A187B28731
:100D200084E193E00E948903E4E1F3E0C58AD68A76
:100D3000E78AF08ED28FC18F89E090E09487838715
:100D400086E490E09687858783E790E0908B87879D
:100D500080E590E0928B818B8EE090E0948B838B8A
:100D600089EC96E7AEE8BFE383839483A583B683DB
:100D70008AE999E1A3E1B3EC87839087A187B287E1
:100D800088EF92E00E948903E8EFF2E0C58AD68AF4
:100D9000E78AF08ED28FC18F85E090E094878387B9
:100DA0008CE390E09687858782E890E0908B878738
:100DB000128B018B80E190E0948B838B83829482F1
:100DC000A582B6828FE195E8A5E7B2EC878390878C
:100DD000A187B287DF91CF911F910F91FF90EF9084
:100DE000DF90CF90BF90AF909F908F900895CF935A
:100DF000DF93CDB7DEB7CE5AD1090FB6F894DEBF78
:100E00000FBECDBF789484B5826084BD84B5816007
:100E100084BD85B5826085BD85B5816085BD8091C5
:100E20006E00816080936E0010928100809181003D
:100E30008260809381008091810081608093810035
:100E4000809180008160809380008091B1008460F7
:100E50008093B1008091B00081608093B000809158
:100E60007A00846080937A0080917A008260809317
:100E70007A0080917A00816080937A0080917A0074
:100E8000806880937A001092C1001092F402109250
:100E9000F5021092F6021092F7021092B20210922E
:100EA000B3021092B4021092B50268EB7BE080E0CE
:100EB00090E00E941E0183E192E09093F302809300
:100EC000F2020E9487002FB7F89480910F02909150
:100ED0001002A0911102B09112022FBF8093B202B2
:100EE0009093B302A093B402B093B50262E171E0B3
:100EF0008091F2029091F3020E947F046AE070E018
:100F000080E090E00E941E0181E08093C60260EDC7
:100F100077E080E090E00E94CC020E94870084E2AB
:100F200091E00E94940461E271E083E192E00E940A
:100F30007F0485E090E0CF55DF4F99838883C15AC5
:100F4000D040DE01AF55BF4F6D01E0910303F0913A
:100F50000403C755DF4FF983E883C95AD04020E026
:100F600030E040E85FE360910D0370910E038091E3
:100F70000F03909110030E94250C20910D033091D6
:100F80000E0340910F03509110030E94390D181663
:100F90000CF06DC08E010F5F1F4F780180910B0325
:100FA0008E3008F08E508770806480937C00809132
:100FB0007A00806480937A0080917A0086FDFCCF6D
:100FC000609178008091790070E0782B072E000CFA
:100FD000880B990B0E94A40AD7016D937D938D9382
:100FE0009D937D01AC15BD05C9F6CE0101960E9409
:100FF000AF00FE0131967F0160E070E0CB01D701C8
:101000002D913D914D915D917D010E94250CEC1437
:10101000FD04A9F720E030E040E252E40E94910C88
:101020002B013C01812C912C5401F80161917191AB
:10103000819191918F01A30192010E94240C9B0147
:10104000AC010E94030B9B01AC01C501B4010E94DD
:10105000250C4B015C010C151D0539F720E030E033
:101060004CE152E40E94910C0E94440D86CFADB732
:10107000BEB7C555DF4FB983A883CB5AD040EDB773
:10108000FEB7E05AF1090FB6F894FEBF0FBEEDBFF0
:101090000DB71EB70F5F1F4F8DB79EB7805A9109CE
:1010A0000FB6F8949EBF0FBE8DBFAF53B140CD5564
:1010B000DF4FB983A883C35AD040E05FF1090FB670
:1010C000F894FEBF0FBEEDBF8F549109CB55DF4F93
:1010D00099838883C55AD040FE0131967801D801A2
:1010E00041915191619171914D935D936D937D9378
:1010F000EC15FD05A9F7C8010E94AF00F801808139
:101100009181A281B381CD55DF4FE881F981C35A26
:10111000D04080839183A283B383E1E0F0E0CB559C
:10112000DF4FA881B981C55AD040ED93FC93C80127
:1011300084569F4FC355DF4F99838883CD5AD04043
:10114000C955DF4F19821882C75AD040212C312C43
:1011500000E010E0F70144805580668077802081B0
:1011600031814281538194E0E90EF11CC301B20147
:101170000E94240C4B015C0120E030E0A9010E9498
:101180009D0A87FF04C0B7FAB094B7F8B09420E086
:1011900030E040E85FE3C501B4010E949D0A87FF8B
:1011A0001BC0F801EE0FFF1FCB55DF4FA881B9819F
:1011B000C55AD040EA0FFB1F80819181019691832F
:1011C00080832816390654F5C955DF4F19830883E3
:1011D000C75AD0401C0122C00F5F1F4FF801EE0F0D
:1011E000FF1FEE0FFF1FCD55DF4F88819981C35A36
:1011F000D040E80FF91F4082518262827382F80169
:10120000EE0FFF1FCB55DF4FA881B981C55AD040E3
:10121000EA0FFB1F81E090E091838083C355DF4F8D
:10122000A881B981CD5AD040EA16FB0609F092CFC9
:10123000B2E02B163104BCF0C955DF4FE881F981CB
:10124000C75AD040EE0FFF1FEE0FFF1FCD55DF4FE7
:1012500088819981C35AD040E80FF91F808091801E
:10126000A280B38003C0812C912C5401C555DF4F5F
:10127000A881B981CB5AD0400FB6F894BEBF0FBE3B
:10128000ADBF20E030E040E251E4C501B4010E946E
:101290009D0A87FD0FC020E030E040E054E4C50126
:1012A000B4010E94390D18162CF0C501B4010E943A
:1012B000030D02C060E070E0072E000C880B990B54
:1012C0000E94A40A2091FB023091FC024091FD0291
:1012D0005091FE020E94030B2091FF023091000307
:1012E00040910103509102030E94250C0E94030DBE
:1012F0002091050330910603621773075CF020917B
:101300000703309108032617370724F088EF92E08F
:101310000E94A5038091F8028C3008F077C0C75571
:10132000DF4F88819981C95AD0409927FC01EC553B
:10133000FF4F2491FC01E057FF4F8491882399F0DF
:1013400090E0880F991FFC01EA57FF4FA591B491D7
:1013500084589F4FFC01859194918FB7F894EC913C
:101360002E2B2C938FBF8091F802E82FF0E09F0185
:10137000220F331FE20FF31FE551FE4FC755DF4F1A
:101380002881C95AD0402F739081907C922B9083F2
:101390001092F9021092FA026CE00E94990DBCE0E2
:1013A0008B9FB001112440E050E09A01260F371FB7
:1013B000F901EE0FFF1F2E0F3F1FF901E551FE4F00
:1013C000908196FD16C04F5F5F4F4C30510569F715
:1013D00081110FC010928000E2E0E0938100109232
:1013E000850010928400B19A80916F008260809392
:1013F0006F00E091F802F0E0CF01880F991FE80F2D
:10140000F91FE551FE4F808180648083CF55DF4F07
:1014100088819981C15AD0400197CF55DF4F998378
:101420008883C15AD040892B89F46EE971E083E149
:1014300092E00E947F048AEA91E00E94940462E0B4
:1014400070E080E090E00E94CC0214C06AE070E09E
:1014500080E090E00E94CC028091F80290E0FC01D4
:10146000EE0FFF1F8E0F9F1FFC01E551FE4F808185
:1014700086FF6BCD6091090370910A0388EF92E0BB
:101480000E94B803609107037091080388EF92E00F
:101490000E94B803609105037091060388EF92E003
:1014A0000E94B8036091090370910A0388EF92E0EB
:1014B0000E94B803609107037091080388EF92E0DF
:1014C0000E94B8036EE971E083E192E00E947F041C
:1014D00084EC91E00E94940462E070E080E090E08F
:1014E0000E94CC0261E271E083E192E00E947F04FD
:1014F00061E271E083E192E00E947F0460ED77E0B9
:1015000080E090E00E94CC026EE971E083E192E01D
:101510000E947F048BED91E00E94940462E070E0F1
:1015200080E090E00E94CC0268E873E180E090E007
:101530000E94CC020E945102E7CF0E94DF0A08F409
:1015400081E00895E89409C097FB3EF4909580955A
:10155000709561957F4F8F4F9F4F9923A9F0F92F79
:1015600096E9BB279395F695879577956795B795F7
:10157000F111F8CFFAF4BB0F11F460FF1BC06F5FDD
:101580007F4F8F4F9F4F16C0882311F096E911C0EF
:10159000772321F09EE8872F762F05C0662371F010
:1015A00096E8862F70E060E02AF09A95660F771F24
:1015B000881FDAF7880F9695879597F90895990F00
:1015C0000008550FAA0BE0E8FEEF16161706E8070D
:1015D000F907C0F012161306E407F50798F0621B2E
:1015E000730B840B950B39F40A2661F0232B242B03
:1015F000252B21F408950A2609F4A140A6958FEF22
:10160000811D811D08950E94160B0C94870B0E946A
:10161000790B38F00E94800B20F0952311F00C9488
:10162000700B0C94760B11240C94BB0B0E94980B3E
:1016300070F3959FC1F3950F50E0551F629FF00125
:10164000729FBB27F00DB11D639FAA27F00DB11D3E
:10165000AA1F649F6627B00DA11D661F829F2227C7
:10166000B00DA11D621F739FB00DA11D621F839F4E
:10167000A00D611D221F749F3327A00D611D231F24
:10168000849F600D211D822F762F6A2F11249F5772
:1016900050409AF0F1F088234AF0EE0FFF1FBB1F75
:1016A000661F771F881F91505040A9F79E3F510534
:1016B00080F00C94700B0C94BB0B5F3FE4F3983EEE
:1016C000D4F3869577956795B795F795E7959F5FDE
:1016D000C1F7FE2B880F911D9695879597F9089570
:1016E00097F99F6780E870E060E008959FEF80ECD5
:1016F000089500240A941616170618060906089578
:1017000000240A9412161306140605060895092EDD
:101710000394000C11F4882352F0BB0F40F4BF2B4C
:1017200011F460FF04C06F5F7F4F8F4F9F4F08958C
:1017300057FD9058440F551F59F05F3F71F0479582
:10174000880F97FB991F61F09F3F79F08795089567
:10175000121613061406551FF2CF4695F1DF08C086
:10176000161617061806991FF1CF869571056105A3
:1017700008940895E894BB2766277727CB0197F94B
:101780000895A1E21A2EAA1BBB1BFD010DC0AA1FC2
:10179000BB1FEE1FFF1FA217B307E407F50720F0DA
:1017A000A21BB30BE40BF50B661F771F881F991F55
:1017B0001A9469F760957095809590959B01AC019E
:1017C000BD01CF010895052E97FB1EF400940E94E1
:1017D000FA0B57FD07D00E94C10B07FC03D04EF453
:1017E0000C94FA0B50954095309521953F4F4F4FF3
:1017F0005F4F089590958095709561957F4F8F4FBD
:101800009F4F08950E94150CA59F900DB49F900DB9
:10181000A49F800D911D11240895B7FF0C94020C14
:101820000E94020C821B930B0895A29FB001B39FEC
:10183000C001A39F700D811D1124911DB29F700DD9
:10184000811D1124911D08955058BB27AA270E947D
:101850003C0C0C94870B0E94790B38F00E94800B93
:1018600020F039F49F3F19F426F40C94760B0EF413
:10187000E095E7FB0C94700BE92F0E94980B58F34E
:10188000BA17620773078407950720F079F4A6F565
:101890000C94BA0B0EF4E0950B2EBA2FA02D0B0171
:1018A000B90190010C01CA01A0011124FF27591BA5
:1018B00099F0593F50F4503E68F11A16F040A22FAB
:1018C000232F342F4427585FF3CF4695379527951C
:1018D000A795F0405395C9F77EF41F16BA0B620B1B
:1018E000730B840BBAF09150A1F0FF0FBB1F661F62
:1018F000771F881FC2F70EC0BA0F621F731F841FA5
:1019000048F4879577956795B795F7959E3F08F0CA
:10191000B0CF9395880F08F09927EE0F979587958C
:1019200008950E94A50C0C94870B0E94800B58F020
:101930000E94790B40F029F45F3F29F00C94700B62
:1019400051110C94BB0B0C94760B0E94980B68F30E
:101950009923B1F3552391F3951B550BBB27AA2768
:1019600062177307840738F09F5F5F4F220F331FA2
:10197000441FAA1FA9F335D00E2E3AF0E0E832D06A
:1019800091505040E695001CCAF72BD0FE2F29D06D
:10199000660F771F881FBB1F261737074807AB073F
:1019A000B0E809F0BB0B802DBF01FF2793585F4FB4
:1019B0003AF09E3F510578F00C94700B0C94BB0BE1
:1019C0005F3FE4F3983ED4F3869577956795B79596
:1019D000F7959F5FC9F7880F911D9695879597F9A1
:1019E0000895E1E0660F771F881FBB1F621773071A
:1019F0008407BA0720F0621B730B840BBA0BEE1F2F
:101A000088F7E09508950E940A0D6894B1110C942E
:101A1000BB0B08950E94A00B88F09F5798F0B92F38
:101A20009927B751B0F0E1F0660F771F881F991F13
:101A30001AF0BA95C9F714C0B13091F00E94BA0BF0
:101A4000B1E008950C94BA0B672F782F8827B85F00
:101A500039F0B93FCCF3869577956795B395D9F76B
:101A60003EF490958095709561957F4F8F4F9F4F75
:101A700008950E94DF0A08F48FEF089519F416F410
:101A80000C94760B0C94840D0E94A00BB8F3992350
:101A9000C9F3B6F39F57550B87FF0E94920D0024A0
:101AA000A0E640EA900180585695979528F4805C0E
:101AB000660F771F881F20F026173707480730F476
:101AC000621B730B840B202931294A2BA69517948E
:101AD0000794202531254A2758F7660F771F881F5E
:101AE00020F026173707480730F4620B730B840B7E
:101AF000200D311D411DA09581F7B901842F91580A
:101B0000880F9695879508959F3F31F0915020F466
:101B1000879577956795B795880F911D96958795C9
:101B200097F9089591505040660F771F881FD2F79C
:101B30000895991B79E004C0991F961708F0961B29
:101B4000881F7A95C9F780950895EE0FFF1F0590BD
:101B5000F491E02D099481E090E0F8940C94B00D9C
:041B6000F894FFCF27
:101B640000000000E801510180012F02B1018F0142
:101B7400A301564D4450565F317C315F564D44505D
:101B8400560D0A00433A5C55736572735C7479624E
:101B94006C755C417070446174615C4C6F63616C22
:101BA4005C54656D705C564D4275696C64735C4140
:101BB40075746F4D6F76655C537061726B46756EAC
:101BC4005F526564426F6172645C44656275675C10
:101BD4004175746F4D6F76652E63707020636F6D01
:101BE40070696C6564204F63742032352032303163
:101BF400372061742031373A35373A34380041752B
:101C0400746F4D6F7665203A2000436F756C6420C5
:101C14006E6F7420617474616368206120736572EF
:101C2400766F2E004E65787420736572766F202867
:101C3400696620616E79292E2E2E004D616465201F
:041C4400697421009E
:00000001FF
