:100000000C94D7030C94FF030C94FF030C94FF0390
:100010000C94FF030C94FF030C94FF030C94FF0358
:100020000C94FF030C94FF030C94FF030C941E0D1F
:100030000C94FF030C94FF030C94FF030C94FF0338
:100040000C9461120C94FF030C9454110C942E1117
:100050000C94FF030C94FF030C94FF030C94FF0318
:100060000C94FF030C94FF03706F734D6178526121
:10007000646975733A2000526F626F7441726D53F8
:1000800074617465203A2000706F734D696E52611F
:10009000646975733A2000526F626F7441726D53D8
:1000A00074617465203A2000706F734D6178486503
:1000B000696768743A2000526F626F7441726D53C1
:1000C00074617465203A2000706F734D696E4865E5
:1000D000696768743A2000526F626F7441726D53A1
:1000E00074617465203A2000706F734D696E4865C5
:1000F00069676874206368616E67656420746F3A2D
:100100002000526F626F7441726D53746174652088
:100110003A2000706F734D696E5261646975732087
:100120006368616E67656420746F3A2000526F6285
:100130006F7441726D5374617465203A2000706F62
:10014000734D6178486569676874206368616E679C
:10015000656420746F3A2000526F626F7441726D53
:100160005374617465203A2000706F734D6178524A
:100170006164697573206368616E67656420746F7C
:100180003A2000526F626F7441726D5374617465EE
:10019000203A2000206174205B002C20686569678C
:1001A00068743A20007261646975733A2000526F76
:1001B000626F7441726D5374617465203A2000005F
:1001C000000000240027002A00303030303030306A
:1001D000303030006865696768742C20726164692A
:1001E00075732C2074686574612C20736F6E617256
:1001F000206D6561737572656D656E7400636C6109
:100200007720736572766F20616E676C652C206352
:100210006C61772061646A20616E676C652C206375
:100220006C6177206865696768742C20636C6177FE
:10023000207261646975732C0074757272656E74D6
:1002400020736572766F20616E676C652C20747503
:10025000727265742061646A20616E676C652C201F
:10026000747572726574206865696768742C20748F
:100270007572726574207261646975732C00626FA7
:100280006F6D3220736572766F20616E676C652CBE
:1002900020626F6F6D322061646A20616E676C65E9
:1002A0002C20626F6F6D32206865696768742C203E
:1002B000626F6F6D32207261646975732C00626FBA
:1002C0006F6D3120736572766F20616E676C652C7F
:1002D00020626F6F6D312061646A20616E676C65AA
:1002E0002C20626F6F6D31206865696768742C20FF
:1002F000626F6F6D31207261646975732C005248B2
:10030000532073656E736F722072656164696E67E6
:100310003A20004175746F4D6F7665203A20004C8D
:1003200048532073656E736F722072656164696EE5
:10033000673A20004175746F4D6F7665203A200052
:10034000536B697070696E672053442063617264F7
:100350002073747566662E004F70656E207375632A
:10036000636573732E004F70656E206661696C65FE
:10037000642E004175746F4D6F7665203A200063DE
:100380006864697220737563636573732E006368B4
:1003900064697220746F2022546F706F4D617073A6
:1003A00022206661696C65642E004175746F4D6F23
:1003B0007665203A2000556E697175652066696C16
:1003C00065206E616D653A20004175746F4D6F76E2
:1003D00065203A20004372656174652022546F7075
:1003E0006F4D61707322206661696C65642E0043F5
:1003F00072656174652022546F706F4D6170732255
:10040000207375636365656465642E004175746F60
:100410004D6F7665203A2000626567696E207375BE
:1004200063636573732E00626567696E2066616938
:100430006C65642E004175746F4D6F7665203A20AF
:10044000005374617274696E67205350492053449D
:1004500020636172642073747566662E0041757442
:100460006F4D6F7665203A2000536572766F73206A
:10047000706F7765726564206F6E2E004175746FC2
:100480004D6F7665203A2000000000002300260012
:100490002900040404040404040402020202020207
:1004A0000303030303030102040810204080010238
:1004B000040810200102040810202E2020202020F3
:1004C000544845544120203D20002E20202020204B
:1004D000524144495553203D20002E636C617720E2
:1004E000726164697573203D2000626F6F6D322008
:1004F000726164697573203D2000626F6F6D3120F9
:10050000726164697573203D20002E202020202018
:10051000484549474854203D20002E636C617720B0
:10052000686569676874203D20007475727265742F
:10053000206865696768743D2000626F6F6D3220C6
:10054000686569676874203D2000626F6F6D3120B7
:10055000686569676874203D2000536F6E61722082
:100560006D6561737572656D656E743A2000206407
:10057000656772656573207772697474656E2E00A5
:10058000206465677265657320656E746572656465
:100590002E20002E2E2E20456E74657220746172FE
:1005A00067657420616E676C653A2000456E7465FE
:1005B000722074617267657420616E676C653A20A1
:1005C0000054727920616761696E2E00456E746512
:1005D00072206D656D626572206E756D6265723A2E
:1005E0002000456E746572206D656D626572206EC7
:1005F000756D6265723A2000290020287068797351
:1006000020002E20202020202020202020202020FC
:10061000205B345D202020636C6177203A20002924
:100620000020287068797320002E202020202020B0
:1006300020202020202020205B335D2074757272E2
:100640006574203A20002900202870687973200002
:100650002E20202020202020202020202020205B51
:10066000325D20626F6F6D3220203A200029002019
:100670002870687973200053656C656374206D651C
:100680006D6265723A205B315D20626F6F6D312063
:10069000203A2000000011002300340046005700DB
:1006A00069007A008B009C00AE00BF00D000E10022
:1006B000F2000301140124013501460156016601CF
:1006C000770187019701A701B601C601D501E501B0
:1006D000F4010302120221022F023E024C025A02CE
:1006E00068027502830290029D02AA02B702C30249
:1006F000CF02DB02E702F302FE02090314031F0329
:10070000290333033D0347035003590362036B037B
:1007100073037B0383038A03920399039F03A60356
:10072000AC03B203B703BC03C103C603CA03CE03C1
:10073000D203D603D903DC03DE03E103E303E403BE
:10074000E603E703E703E803E80373616665416EC8
:10075000676C652073657420746F20006D6178414B
:100760006E676C652073657420746F20006D696E10
:10077000416E676C652073657420746F2000436C54
:100780006177206C656E677468203D200000000072
:1007900000250028002B00000000080002010000D6
:1007A0000304070000000000000000001A2C1124C0
:1007B0001FBECFEFD8E0DEBFCDBF12E0A0E0B1E0BA
:1007C000ECEEF2E602C005900D92AE34B107D9F717
:1007D00027E0AEE4B2E001C01D92AB39B207E1F709
:1007E00013E0C7EDD3E004C02197FE010E94413120
:1007F000C63DD107C9F70E94A11E0C9474310C9418
:100800000000DC01ED91FC91119718966D917C919F
:1008100019970084F185E02D0994DC01ED91FC919C
:10082000119718966D917C9119970480F581E02DB0
:10083000099480E090E0089580E090E0089580E0E1
:1008400090E0089580E090E00895DC01ED91FC9146
:10085000119718966D917C9119970084F185E02D80
:100860000994DC01ED91FC91119718966D917C91A2
:1008700019970480F581E02D0994FC018681978108
:100880000895FC01848195810895FC0184819581FE
:100890000895FC01828193810895FC0182819381F6
:1008A00008950895CF93DF9321E030E0E8E6F1E08A
:1008B000C4EBD0E0BF010E942D3188599E4FBF018B
:1008C0000E942D318E3041E0940724F0919581955E
:1008D000910905C0843B910534F08C549F4F3195AC
:1008E00021953109E7CF8B3591052CF0AE01481BDE
:1008F000590BCA01DFCFFC01EE0FFF1FEC56F94F79
:1009000085919491AC01249FC001259F900D349F47
:10091000900D1124DF91CF910895CF93DF9300D0F4
:1009200000D0CDB7DEB7FC012285338544855585DF
:10093000CB01865A9F4F29833A834B835C830E9465
:100940005204DC0129813A814B815C810E94F6309E
:1009500028EE33E040E050E00E94CC30C9010F9017
:100960000F900F900F90DF91CF910895CF93DF9369
:1009700000D000D0CDB7DEB7FC0122853385448599
:100980005585CB0129833A834B835C830E945204B3
:10099000DC0129813A814B815C810E94F63028EE8E
:1009A00033E040E050E00E94CC30C9010F900F903E
:1009B0000F900F90DF91CF91089581E008950895F1
:1009C00080E090E008950F931F93CF93DF93DC01B5
:1009D0002C91211102C081E051C0EC018A8187FF76
:1009E00035C04C895D896E897F898E819F8121E028
:1009F00084960E9410150097E9F1EC81FD81EF705B
:100A0000FF2725E0EE0FFF1F2A95E1F7DC01AE0F6F
:100A1000BF1F2C91253E71F1288123FF0AC0488D0C
:100A2000598D6A8D7B8D5C964D935D936D937C9310
:100A30005F974C8D5D8D6E8D7F8DE80FF91F538F05
:100A4000428F758B648B8A818F778A830E811F8199
:100A5000C80184960E94B614882361F0F801808151
:100A60009181DC01ED91FC910280F381E02D0995EB
:100A70008111B1CF89818160898380E0DF91CF913D
:100A80001F910F91089504960C94E3043F924F92A6
:100A90005F926F927F928F929F92AF92BF92CF920E
:100AA000DF92EF92FF920F931F93CF93DF93CDB717
:100AB000DEB728970FB6F894DEBF0FBECDBF4C014E
:100AC000DC0112968C911297806812968C93129783
:100AD0001C964D905D906D907C901F971696AD90F2
:100AE000BC901797411451046104710461F4D5015D
:100AF00018968D919D910D90BC91A02D8D839E8314
:100B0000AF83B88704C04D825E826F827886CD80C5
:100B1000DE80EF80F884BFEFCB1ADB0AEB0AFB0A1A
:100B2000F501808D918DA28DB38D8C159D05AE053F
:100B3000BF0528F482E0C82ED12CE12CF12C9E01B7
:100B40002F5F3F4FB701A601C5010E94B81587FD71
:100B500020C0882341F089819A81AB81BC81892B97
:100B60008A2B8B2B51F08D819E81AF81B885C81661
:100B7000D906EA06FB0679F60CC00FEF1FEF2FEF40
:100B80003FE0B701A601C5010E945515382E81111D
:100B900002C0312C2BC0411451046104710451F086
:100BA00097018601B301A201C5010E94551581116B
:100BB00008C0EFCFD5011896CD92DD92ED92FC9250
:100BC0001B97F50180A191A1A2A1B3A1B7FD07C018
:100BD0000197A109B10980A391A3A2A3B3A3D40152
:100BE0001C96CD92DD92ED92FC921F97832D289654
:100BF0000FB6F894DEBF0FBECDBFDF91CF911F912E
:100C00000F91FF90EF90DF90CF90BF90AF909F90AB
:100C10008F907F906F905F904F903F900895CF920C
:100C2000DF92EF92FF92CF93DF9300D000D0CDB749
:100C3000DEB77C01CB01F7012089318942895389D4
:100C400029833A834B835C830E945204DC0129810F
:100C50003A814B815C810E94F63028EE33E040E01F
:100C600050E00E94CC30F70184859585A685B78534
:100C700069017A01C80ED91EEA1EFB1E6BE372E001
:100C800081E892E00E9428166EE777E081E892E022
:100C90000E94381EB701A60181E892E00E94CB179E
:100CA00081E892E00E940C1E62E070E080E090E03B
:100CB0000E941B12C701B6010F900F900F900F906A
:100CC000DF91CF91FF90EF90DF90CF9008950F9339
:100CD0001F93CF93DF9300D000D0CDB7DEB78C0148
:100CE0000E940F069B01AC01F80182859385865A0C
:100CF0009F4F29833A834B835C830E945204DC011B
:100D000029813A814B815C810E94F63028EE33E0E4
:100D100040E050E00E94CC30C9010F900F900F903E
:100D20000F90DF91CF911F910F9108950F931F9313
:100D3000CF93DF9300D000D0CDB7DEB78C010E94F7
:100D40000F069B01AC01F8018285938529833A83C4
:100D50004B835C830E945204DC0129813A814B81E0
:100D60005C810E94F63028EE33E040E050E00E94C3
:100D7000CC30C9010F900F900F900F90DF91CF9161
:100D80001F910F9108954F925F926F927F928F9271
:100D90009F92AF92BF92CF92DF92EF92FF920F930A
:100DA0001F93CF93DF93EC014A015B014C845D8478
:100DB0006E847F84A881AA2309F491C04889598947
:100DC0006A897B8984169506A606B70609F48DC044
:100DD00081149104A104B10429F41C861D861E8689
:100DE0001F8678C0A3FF0BC0088D198D2A8D3B8DFF
:100DF000081519052A053B0508F471C014C0A5FFA4
:100E000012C0EE81FF818681978125E0880F991FAE
:100E10002A95E1F7A0E0B0E088159905AA05BB0581
:100E200008F45DC057C0EE81FF81848190E009968F
:100E30008A019B010150110921093109082E04C0C2
:100E400036952795179507950A94D2F77501640191
:100E5000B1E0CB1AD108E108F10804C0F694E79498
:100E6000D794C7948A95D2F7C016D106E206F30646
:100E700020F0452B462B472B81F4A6FF05C0848D1F
:100E8000958DA68DB78D04C08C8D9D8DAE8DBF8D3B
:100E90008C879D87AE87BF8704C0C01AD10AE20A3B
:100EA000F30A8E01045F1F4FC114D104E104F10461
:100EB00089F04C855D856E857F8598018E819F8147
:100EC0000E94B81591E0C91AD108E108F108181676
:100ED0005CF305C0888A998AAA8ABB8A06C04C86B8
:100EE0005D866E867F8680E001C081E0DF91CF91D4
:100EF0001F910F91FF90EF90DF90CF90BF90AF9038
:100F00009F908F907F906F905F904F9008952F9259
:100F10003F924F925F926F927F928F929F92AF9289
:100F2000BF92CF92DF92EF92FF920F931F93CF93D6
:100F3000DF93EC015B014A01888183FF0EC08A8147
:100F400081FF0BC082FF0FC0488D598D6A8D7B8D4C
:100F5000CE010E94C306811106C089818160898308
:100F60008FEF9FEF0DC1A40160E070E0888999893F
:100F7000AA89BB8980959095A095B095841795070F
:100F8000A607B70750F364011E018CE0280E311C40
:100F9000088919892A893B89C114D10409F4D5C06B
:100FA0008E819F81B901A80129E0769567955795B3
:100FB00047952A95D1F7DC011396FC90F422117025
:100FC000F11034C00115110589F54C855D856E85DC
:100FD0007F85411551056105710569F091010E94F8
:100FE000B81587FDBACF811121C0CE010E944605F8
:100FF00081111CC0B2CF8C8D9D8DAE8DBF8D0097A1
:10100000A105B10579F4CE010E944605882309F4B3
:10101000A4CF8C859D85AE85BF858C8F9D8FAE8F2F
:10102000BF8F04C08C879D87AE87BF87EE81FF810D
:101030004C855D856E857F85425051096109710936
:10104000048004C0440F551F661F771F0A94D2F70F
:1010500080899189A289B389480F591F6A1F7B1F14
:101060004F0D511D611D711D0115110521F4C11494
:10107000B2E0DB06B0F580E092E0801B910B7601D8
:101080008C159D0508F47C010115110579F448883B
:1010900059886A887B88888D998DAA8DBB8D481662
:1010A00059066A067B0610F025E001C021E0CF0159
:1010B00084960E941015009709F44FCFA701B5013F
:1010C000800F911F0E9459310E0D1F1D01151240F6
:1010D00059F58E819F8184960E94B614811124C097
:1010E0003CCF87A190A5A1A5B2A584179507A60717
:1010F000B70741F414A28FEF9FEFDC0187A390A7FD
:10110000A1A7B2A7EE81FF8180819181DC01ED91E1
:10111000FC910480F581E02D95010995882309F45F
:101120001CCFE12C82E0F82E88899989AA89BB8995
:101130008E0D9F1DA11DB11D888B998BAA8BBB8B1A
:10114000AE0CBF1CCE18DF0823CF888D998DAA8DD9
:10115000BB8D80179107A207B30738F4088F198F4A
:101160002A8F3B8F8A8180688A838A8183FD02C0AF
:10117000C40106C0CE010E94E3048111F9CFEDCE77
:10118000DF91CF911F910F91FF90EF90DF90CF9063
:10119000BF90AF909F908F907F906F905F904F9097
:1011A0003F902F90089504960C948707CF93DF9378
:1011B0001F92CDB7DEB7698341E050E0BE016F5F9B
:1011C0007F4F04960E9487070F90DF91CF9108957B
:1011D000CF92DF92EF92FF920F931F93CF93DF9303
:1011E000EC01862F488959896A897B898A019B018C
:1011F000E5E03695279517950795EA95D1F7102FD5
:101200001F7011F0811151C098819923D9F18A8101
:1012100080FF38C093FF63C0C88CD98CEA8CFB8CEC
:10122000C41AD50AE60AF70A22E0C216D104E1047C
:10123000F10408F44EC09A01317095FD61C0EE8151
:10124000FF8103816A017B0189E0F694E794D794DA
:10125000C7948A95D1F70C21232B09F07EC0011188
:101260007CC0452B462B472B09F45CC04C855D8523
:101270006E857F859E01245F3F4FCF010E94B81588
:1012800087FF60C08981826089838FEF9FEF01971C
:10129000E9F488899989AA89BB894F96A11DB11D56
:1012A000888B998BAA8BBB8B08C0405E5F4F6F4FBA
:1012B0007F4F488B598B6A8B7B8B8E819F818B965E
:1012C00020E2129F800D911D112480C080E090E0EB
:1012D0007DC0CD28CE28CF2809F0ADCF0EC095FF18
:1012E000AACFEE81FF818681978125E0880F991F23
:1012F0002A95E1F78417950719F480E090E061C022
:1013000099E076956795579547959A95D1F7EE812F
:10131000FF81848D958DA68DB78D480F591F6A1F4B
:101320007B1F39C096FF05C0848D958DA68DB78D26
:1013300004C08C8D9D8DAE8DBF8D8C879D87AE87B3
:10134000BF870BC0811109C08881807709F49ACFCB
:1013500081E090E021E030E036C0EE81FF814C85F5
:101360005D856E857F854250510961097109048050
:1013700004C0440F551F661F771F0A94D2F7808957
:101380009189A289B389480F591F6A1F7B1F400F9B
:10139000511D611D711D8E819F8120E084960E94E8
:1013A0001015892B09F46ECF88899989AA89BB8980
:1013B0000196A11DB11D888B998BAA8BBB8B81E0F7
:1013C00090E020E030E0821B930B61CFDF91CF9162
:1013D0001F910F91FF90EF90DF90CF900895FC0147
:1013E0008081811114C080E2DF01982F1D929A95AF
:1013F000E9F777836683DB0115969C91903119F0AC
:10140000903229F480E4808381E08283089580E033
:101410000895CF93DF93EC010E94E3041882DF91DB
:10142000CF910895CF92DF92EF92FF920F931F9387
:10143000CF93DF93CDB7DEB7E3970FB6F894DEBF57
:101440000FBECDBF7C018B015BAB4AABD22E1982A4
:101450001A82FC018081882311F080E059C0FB01D1
:1014600080818077D1F3EAA9FBA980818F32D9F4FA
:10147000EAA9FBA980818F3221F43196FBABEAAB5C
:10148000F7CFF80166817781811104C0C7010E94FE
:10149000EF093EC0CE0101960E94EF098823E9F2D0
:1014A0008E010F5F1F4F80E2C82EAE014E5C5F4F72
:1014B000BE016F5D7F4F8AA99BA90E947D1B882377
:1014C00061F2EAA9FBA980818823D1F021E0AE0175
:1014D0004F5D5F4FB801C7010E940118882309F4CE
:1014E000BCCFF701DE0111968C2D01900D928A95EB
:1014F000E1F7C7010E94090A8E010F5F1F4FD5CF88
:101500002D2DAE014F5D5F4FB801C7010E9401183C
:10151000E3960FB6F894DEBF0FBECDBFDF91CF913B
:101520001F910F91FF90EF90DF90CF9008958F92D1
:101530009F92AF92BF92EF92FF920F931F93CF9320
:10154000DF93EC01888185FF02C010E06CC08889C0
:101550009989AA89BB8981159E4FAF41B105A8F72A
:10156000CE010E944605182F882379F3EE81FF8172
:101570004C855D856E857F854250510961097109F1
:10158000048004C0440F551F661F771F0A94D2F7CA
:1015900080889188A288B388840E951EA61EB71EE7
:1015A00025E0B501A401CF0184960E9410157C01AD
:1015B000892B59F280E092E0D701FC011D9231970E
:1015C000E9F701E0EE81FF8192810917A8F480819B
:1015D0009181DC01ED91FC910480F581E02D970172
:1015E000B501A401400F511D611D711D099588238E
:1015F00009F4ABCF0F5FE6CF492F50E060E070E019
:1016000089E0440F551F661F771F8A95D1F7888997
:101610009989AA89BB89480F591F6A1F7B1F488B6C
:10162000598B6A8B7B8B812FDF91CF911F910F910B
:10163000FF90EF90BF90AF909F908F900895AF92E2
:10164000BF92CF92DF92EF92FF920F931F93CF93AF
:10165000DF93CDB7DEB7A0970FB6F894DEBF0FBE0D
:10166000CDBF8C01DB019C91907709F4CEC07B014A
:1016700023ECC8010E940118882309F4C6C081E048
:10168000F801828350E1D52ED082C8010E94970ACA
:10169000882309F4BAC0F80184859585A685B785A5
:1016A000848F958FA68FB78F40E050E0BA01C801B4
:1016B0000E94C306C8010E94E304882309F4A5C060
:1016C000D80154964D915D916D917C9157971696E6
:1016D0008D919C91179721E084960E941015009798
:1016E00009F493C0F801248135812F70332745E038
:1016F000220F331F4A95E1F7820F931FDC011B96DF
:10170000DC9220E2FC01DE01119601900D922A95F7
:10171000E1F7FC01A488B588C28CD38C8EE2898362
:10172000FE013296CE010C9620E22193E817F907CC
:10173000E1F7D8011696ED91FC9117975C964D91C3
:101740005D916D917C915F974250510961097109DA
:10175000048004C0440F551F661F771F0A94D2F7F8
:1017600080899189A289B389480F591F6A1F7B1FFD
:1017700021E0CF0184960E941015009709F445C01E
:10178000BE8AAD8ADC8ECB8E20E2FE013196DC0172
:1017900001900D922A95E1F72EE22A83F701448DFC
:1017A000558D668D778D7E8B6D8B5C8F4B8F20E298
:1017B000FE013196DC01909601900D922A95E1F799
:1017C000D80116960D911C911797C80184960E9416
:1017D000B6148823D1F0F80180819181DC01ED916C
:1017E000FC910280F381E02DA0960FB6F894DEBF45
:1017F0000FBECDBFDF91CF911F910F91FF90EF9062
:10180000DF90CF90BF90AF90099480E0A0960FB684
:10181000F894DEBF0FBECDBFDF91CF911F910F9126
:10182000FF90EF90DF90CF90BF90AF9008958F9290
:101830009F92AF92BF92CF92DF92EF92FF92FC0104
:10184000828128E532E06901C81AD10887FDD39466
:10185000CC0CDD1CCC0CDD1C0D2C000CEE08FF08A4
:10186000818128E830E04901881A910887FD939426
:10187000880C991C880C991C092C000CAA08BB0820
:1018800080818F3FC1F090E0FC01EE0FFF1F8E0FB3
:101890009F1FFC01E25BFD4F2181328143E0220F5B
:1018A000331F4A95E1F754E0369527955A95E1F7AD
:1018B0002E5F3F4F02C020E030E02F5F3F4FC90155
:1018C000330FAA0BBB0B9C01AD01281939094A093A
:1018D0005B09A4EBB0E00E94EB30A7019601281948
:1018E00039094A095B090E94CC30C901FF90EF9089
:1018F000DF90CF90BF90AF909F908F900895CF9240
:10190000DF92EF92FF92CF93DF93EC01603282E09F
:1019100078070CF03DC077FD06C0653B71052CF0E3
:1019200064EB70E002C060E070E0898128E830E09C
:101930006901C81AD10887FDD394CC0CDD1CCC0CEE
:10194000DD1C0D2C000CEE08FF088A8128E532E032
:10195000281B310987FD3395220F331F220F331FB8
:10196000C901330FAA0BBB0B9C01AD012C193D091A
:101970004E095F09DB010E94F63024EB30E040E0C5
:1019800050E00E94CC30C20ED31EE41EF51EB601FC
:1019900088818C3080F5998148E850E0491B5109D5
:1019A00097FD5395440F551F440F551F6417750736
:1019B00084F09A8128E532E0291B310997FD33959F
:1019C000220F331F220F331FAB01261737070CF4EA
:1019D000A90142505109440F551F2FB7F89490E0C8
:1019E000FC01EE0FFF1F8E0F9F1FFC01E25BFD4FFE
:1019F000528341832FBFDF91CF91FF90EF90DF9013
:101A0000CF900895FC01909177029C30A0F481E082
:101A1000890F809377029083892F90E0FC01EE0F6D
:101A2000FF1F8E0F9F1FFC01E25BFD4F88EB9BE0C9
:101A30009283818308958FEF808308951F920F9280
:101A40000FB60F9211242F933F934F935F936F9391
:101A50007F938F939F93AF93BF93EF93FF93809167
:101A6000760287FF05C010928500109284001BC08B
:101A700020917602022E000C330B8091770290E0C9
:101A80002817390784F480917602082E000C990BF0
:101A9000FC01EE0FFF1F8E0F9F1FFC01E25BFD4F4D
:101AA000808186FD15C0809176028F5F80937602DB
:101AB00020917602022E000C330B8091770290E089
:101AC00028173907C4F4809176028C3064F113C072
:101AD00080917602082E000C990BFC01EE0FFF1F7F
:101AE0008E0F9F1FFC01E25BFD4F808160E08F73D2
:101AF0000E94AF11D8CF8091840090918500049608
:101B000080349C4918F480E49CE905C080918400ED
:101B100090918500049690938900809388008FEFC0
:101B2000809376023BC020918400309185008091A3
:101B30007602082E000C990BFC01EE0FFF1F8E0F92
:101B40009F1FFC01E25BFD4F81819281820F931FF9
:101B5000909389008093880080917602082E000C73
:101B6000990BFC01EE0FFF1F8E0F9F1FFC01E25B24
:101B7000FD4F808186FF12C080917602082E000CF6
:101B8000990BFC01EE0FFF1F8E0F9F1FFC01E25B04
:101B9000FD4F808161E08F730E94AF11FF91EF9143
:101BA000BF91AF919F918F917F916F915F914F9175
:101BB0003F912F910F900FBE0F901F901895CF93CC
:101BC000DF93EC0188E290E00E94C6176A817B8176
:101BD00081E892E00E94001D8CE290E00E94C6170E
:101BE0006C817D8181E892E00E94001D8CE290E092
:101BF0000E94C6176E817F8181E892E00E94001DDD
:101C000089E290E00E94C61764E070E080E090E016
:101C1000DF91CF910C941B12CF93DF93EC010E94C4
:101C2000170C29853A854B855C85DC010E94F630CE
:101C30006C507E4F8F4F9F4F28EE33E040E050E0D6
:101C40000E94CC308D819E81AF81B885820F931F19
:101C5000A41FB51FDF91CF910895CF93DF93EC01BF
:101C6000CB010E940C0EBC0199878887E881F9811D
:101C70000480F581E02DCE0109959B838A83E8815C
:101C8000F981688579850084F185E02DCE0109957B
:101C90009D838C83DF91CF910895CF93DF93EC01E7
:101CA000CB010E940C0E9F838E83DF91CF9108950C
:101CB000CF93DF93EC01CB010E940C0EBC019987FE
:101CC0008887E881F9810084F185E02DCE010995AE
:101CD0009D838C83E881F981688579850480F5810D
:101CE000E02DCE0109959B838A83DF91CF910895E2
:101CF0008F929F92AF92BF92CF92DF92EF92FF921C
:101D00000F931F93CF93DF938C01DC011F96ED900F
:101D1000FC9050976E157F054CF051968D919C91DB
:101D200052977B01861797070CF47C01C8010E942B
:101D3000170CEC016701CC1ADD0AD9F00E9455128C
:101D40004B015C01BFE08B0E911CA11CB11C0E94D9
:101D50005512681579058A059B05C8F31C141D04E6
:101D600014F4219601C02197BE01C8010E947F0C86
:101D7000E1CFF80183819481DC01ED91FC91019028
:101D8000F081E02DB801DF91CF911F910F91FF906D
:101D9000EF90DF90CF90BF90AF909F908F9009947D
:101DA000CF93DF93EC01788B6F875A8B498B3C8BF9
:101DB0002B8B6BE372E081E892E00E9428166DE6BF
:101DC00077E081E892E00E94381E6F85788981E88B
:101DD00092E00E94101E62E070E080E090E00E94BD
:101DE0001B126BE372E081E892E00E9428166CE51A
:101DF00077E081E892E00E94381E69897A8981E85B
:101E000092E00E94101E62E070E080E090E00E948C
:101E10001B126BE372E081E892E00E9428166AE4EC
:101E200077E081E892E00E94381E6B897C8981E826
:101E300092E00E94101E62E070E080E090E0DF918E
:101E4000CF910C941B128F929F92AF92BF92CF9220
:101E5000DF92EF92FF920F931F93CF93DF93EC01EA
:101E6000298130E0F901E956F84F8491F901EA55EA
:101E7000FB4F0491F901EE56FB4F14911123A1F091
:101E800081110E948611E12FF0E0EE0FFF1FE8574D
:101E9000FB4FA591B491EC91E02391E080E009F42F
:101EA00090E0E92EF82E02C0E12CF12C61E089814E
:101EB0000E94AF1183E090E00197F1F70E94551264
:101EC0004B015C0124E6820E911CA11CB11CC12CAB
:101ED000D12C00E010E098819E3008F09E50977061
:101EE000906490937C0080917A00806480937A0063
:101EF00080917A0086FDFCCF809178002091790056
:101F000090E0922B2A8130E02817390724F4C80E7C
:101F1000D91E0F5F1F4F0233110538F40E9455126E
:101F2000681579058A059B05B0F2EF2841F460E059
:101F300089810E94AF1183E090E00197F1F7B80129
:101F4000660F771F660F771FCB01969587958C0DCF
:101F50009D1D0E941931862FDF91CF911F910F9106
:101F6000FF90EF90DF90CF90BF90AF909F908F90B9
:101F70000895FF920F931F93CF93DF938C01F62E5A
:101F8000EC01C55DDD4FCE010E94090AB801CE010A
:101F90000E94EF09882371F0FF2061F09091BF0546
:101FA000907739F02FEB35E0309373022093720273
:101FB00001C080E0DF91CF911F910F91FF900895B4
:101FC000FF920F931F93CF93DF93CDB7DEB7A09708
:101FD0000FB6F894DEBF0FBECDBFFB01F42E198201
:101FE0001A8220812F3239F42181211104C0642FFB
:101FF0000E94B90F25C08C01055D1D4F21E0AF0186
:10200000B801CE0101960E94120A8823C9F0998175
:102010009077A9F090E2FE013196D80101900D92DF
:102020009A95E1F7FF2061F09091BF05907741F01C
:102030002FEB35E0309373022093720201C080E0F1
:10204000A0960FB6F894DEBF0FBECDBFDF91CF9143
:102050001F910F91FF900895FC01538D448D252F02
:1020600030E0842F90E0821B930B541710F0CF9632
:10207000089501970895FC01918D828D981761F064
:10208000828DDF01A80FB11D5D968C91928D9F5FAF
:102090009F73928F90E008958FEF9FEF0895FC015A
:1020A000918D828D981731F0828DE80FF11D858D0D
:1020B00090E008958FEF9FEF0895FC01918D228DA0
:1020C000892F90E0805C9F4F821B91098F73992725
:1020D000089581E892E00E945D1021E0892B09F4C7
:1020E00020E0822F0895FC01848DDF01A80FB11D2F
:1020F000A35ABF4F2C91848D90E001968F7399273E
:10210000848FA689B7892C93A089B1898C9180642A
:102110008C93938D848D981306C00288F389E02DEB
:1021200080818F7D80830895EF92FF920F931F939C
:10213000CF93DF93EC0181E0888F9B8D8C8D98137A
:1021400005C0E889F989808185FD24C0F62E0B8DB4
:1021500010E00F5F1F4F0F731127E02E8C8DE812D8
:102160000CC00FB607FCFACFE889F989808185FF9A
:10217000F5CFCE010E947310F1CF8B8DFE01E80FD9
:10218000F11DE35AFF4FF0820B8FEA89FB898081B2
:10219000806207C0EE89FF896083E889F9898081C0
:1021A0008064808381E090E0DF91CF911F910F9157
:1021B000FF90EF900895CF93DF93EC01888D8823F3
:1021C000C9F0EA89FB89808185FD05C0A889B989A4
:1021D0008C9186FD0FC00FB607FCF5CF808185FF7F
:1021E000F2CFA889B9898C9185FFEDCFCE010E94ED
:1021F0007310E7CFDF91CF91089580E090E0892BB5
:1022000029F00E94691081110C94000008953FB7D5
:10221000F89480917D0290917E02A0917F02B0910E
:10222000800226B5A89B05C02F3F19F00196A11D7D
:10223000B11D3FBFBA2FA92F982F8827820F911D5C
:10224000A11DB11DBC01CD0142E0660F771F881FA3
:10225000991F4A95D1F708950E9447311F920F9216
:102260000FB60F9211242F933F934F935F936F9369
:102270007F938F939F93AF93BF93EF93FF9381E8E7
:1022800092E00E947310FF91EF91BF91AF919F91E7
:102290008F917F916F915F914F913F912F910F900F
:1022A0000FBE0F901F9018951F920F920FB60F92AE
:1022B00011242F938F939F93EF93FF93E0919102BB
:1022C000F09192028081E0919702F091980282FD54
:1022D00012C0908180919A028F5F8F7320919B0230
:1022E000821751F0E0919A02F0E0EF57FD4F958F81
:1022F00080939A0201C08081FF91EF919F918F910D
:102300002F910F900FBE0F901F901895833081F082
:1023100028F4813099F08230A1F008958730A9F037
:102320008830B9F08430D1F4809180008F7D03C073
:10233000809180008F7780938000089584B58F7797
:1023400002C084B58F7D84BD08958091B0008F77E1
:1023500003C08091B0008F7D8093B00008951F93DB
:10236000CF93DF93282F30E0F901E956F84F84919D
:10237000F901EA55FB4FD491F901EE56FB4FC49198
:10238000CC23C9F0162F81110E948611EC2FF0E0AA
:10239000EE0FFF1FE357F84FA591B4918FB7F89454
:1023A000111105C09C91ED2FE095E92302C0EC913D
:1023B000ED2BEC938FBFDF91CF911F910895CF93B9
:1023C000DF9390E0FC01EA55FB4F2491FC01EE56AF
:1023D000FB4F8491882361F190E0880F991FFC01E5
:1023E000E154FE4FC591D491FC01E357F84FA591FC
:1023F000B491611109C09FB7F89488812095822318
:102400008883EC912E230BC0623061F49FB7F8945F
:102410003881822F809583238883EC912E2B2C93F7
:102420009FBF06C08FB7F894E8812E2B28838FBFFB
:10243000DF91CF9108958F929F92AF92BF92CF92EA
:10244000DF92EF92FF926B017C010E9407114B011A
:102450005C01C114D104E104F104F1F00E94071100
:10246000DC01CB0188199909AA09BB09883E934070
:10247000A105B10570F321E0C21AD108E108F10805
:1024800088EE880E83E0981EA11CB11CC114D104F3
:10249000E104F10419F7DDCFFF90EF90DF90CF90CA
:1024A000BF90AF909F908F9008952FB7F894609150
:1024B000790270917A0280917B0290917C022FBF09
:1024C00008951F920F920FB60F9211242F933F93EE
:1024D0008F939F93AF93BF938091790290917A02EB
:1024E000A0917B02B0917C023091780223E0230F0F
:1024F0002D3720F40196A11DB11D05C026E8230F3C
:102500000296A11DB11D20937802809379029093C9
:102510007A02A0937B02B0937C0280917D0290911D
:102520007E02A0917F02B09180020196A11DB11D93
:1025300080937D0290937E02A0937F02B0938002ED
:10254000BF91AF919F918F913F912F910F900FBEAF
:102550000F901F9018958EBD0DB407FEFDCF089506
:102560008FEF8EBD0DB407FEFDCF8EB50895CF93CE
:10257000DF93FC012581222361F0EC010380F481CB
:10258000E02D61E082810E94AF118FEF0E94AB12BB
:102590001D82DF91CF9108950F931F93CF93DF9307
:1025A0008C01862FEA010E94AB1288818EBD898141
:1025B000FE013296DE5F0DB407FEFDCF8EBDEC1737
:1025C000FD0711F08191F7CF0DB407FEFDCF8FEF1E
:1025D0000E94AB128FEF0E94AB120E94B012F80162
:1025E0008683982F9F71953039F087E58283C801E3
:1025F0000E94B71280E001C081E0DF91CF911F916E
:102600000F910895CF93DF93FC012581211110C014
:10261000EC010380F481E02D908181819CBD8DBD12
:10262000EB81FC8160E082810E94AF1181E08D83AB
:10263000DF91CF910895EF92FF921F93CF93DF9395
:1026400000D000D0CDB7DEB77C01162F29833A83A6
:102650004B835C83FC018581811103C0C7010E940B
:1026600002130E946516812F80640E94AB128C8138
:102670000E94AB128B810E94AB128A810E94AB1226
:1026800089810E94AB12112311F087E801C085E90E
:102690000E94AB121C3011F40E94B01210E00E9494
:1026A000B012F701868387FF04C01F3F11F01F5F40
:1026B000F6CF0F900F900F900F90DF91CF911F9159
:1026C000FF90EF900895CF92DF92EF92FF920F93D9
:1026D0001F93CF93DF93EC016A017B0189018C8505
:1026E000823049F488859985AA85BB85841795072A
:1026F000A607B70719F1E881F9810280F381E02D7F
:10270000CE0109958823C9F18F81A70196018330F5
:1027100039F089E0220F331F441F551F8A95D1F7E6
:1027200069E1CE010E941B13882311F083E30BC0E3
:10273000C886D986EA86FB8682E08C870E94651669
:10274000811103C08AE58A8307C0A8016CEFCE011E
:102750000E94CC12811105C0CE010E94B71280E008
:102760000CC0488559856A857B854F5F5F4F6F4FE9
:102770007F4F488759876A877B87DF91CF911F9169
:102780000F91FF90EF90DF90CF9008951F93CF931C
:10279000DF93EC018C858130A9F41C8620E030E0C9
:1027A000A9016CE0CE010E941B13882339F088E256
:1027B0008A83CE010E94B71210E017C0CE010E949A
:1027C000B71212C0823081F41C860E946516182F41
:1027D000882321F08DEF0E94AB1202C086E58A8328
:1027E000CE010E94B71201C011E0812FDF91CF917D
:1027F0001F910895CF92DF92EF92FF920F931F9354
:10280000CF93DF93EC016A017B0189018C858130D4
:1028100049F488859985AA85BB85481759076A07B1
:102820007B0741F1E881F9810280F381E02DCE013F
:1028300009958823B9F08F81A7019601833039F07B
:1028400089E0220F331F441F551F8A95D1F762E19B
:10285000CE010E941B13882339F081E38A83CE01C5
:102860000E94B71280E018C0C886D986EA86FB8627
:1028700081E08C87B801CE010E947F1D882391F3EF
:10288000488559856A857B854F5F5F4F6F4F7F4FC6
:10289000488759876A877B87DF91CF911F910F9176
:1028A000FF90EF90DF90CF9008950F931F93CF93F9
:1028B000DF93EC0189018F81833039F089E0440F87
:1028C000551F661F771F8A95D1F79A01AB0168E102
:1028D000CE010E941B13882319F082E38A830CC067
:1028E000A8016EEFCE010E94CC12182F882321F090
:1028F000CE010E94B71204C0CE010E94B71210E0B0
:10290000812FDF91CF911F910F9108950F931F9306
:10291000CF93DF93EC0189018F81833039F089E017
:10292000440F551F661F771F8A95D1F79A01AB0197
:1029300061E1CE010E941B13882319F080E38A8392
:102940000BC0B801CE010E947F1D182F882321F0F3
:10295000CE010E94B71204C0CE010E94B71210E04F
:10296000812FDF91CF911F910F9108958F929F92A8
:10297000AF92BF92EF92FF921F93CF93DF93DC0150
:102980002C9120FF41C0EC017C01B7E0EB0EF11C63
:10299000E981FA8180819181DC01ED91FC914B818B
:1029A0005C816D817E810480F581E02D9701099520
:1029B000182F811102C010E028C0888181FD04C059
:1029C00088818E7F888321C0A981BA818D919C9155
:1029D0001197FC01208131811C968D909D90AD90C6
:1029E000BC901F974B815C816D817E81480D591D84
:1029F0006A1D7B1DD9011496ED91FC9115979701E5
:102A000009958111DDCFD7CF11E0812FDF91CF91D3
:102A10001F91FF90EF90BF90AF909F908F9008957F
:102A2000CF92DF92EF92FF921F93CF93DF93EC014F
:102A30006A017B01122F8B819C81AD81BE8184173D
:102A40009507A607B70719F1CE010E94B6148111A8
:102A500003C080E090E021C012FF06C01882CB8244
:102A6000DC82ED82FE8213C0E981FA81808191814E
:102A7000DC01ED91FC910190F081E02D9E01295F38
:102A80003F4FB701A60109958111E8CFE2CF13703E
:102A90008881182B1883CE010796DF91CF911F9163
:102AA000FF90EF90DF90CF9008958F929F92AF921A
:102AB000BF92CF92DF92EF92FF920F931F936A0122
:102AC0007B0148015901FC012581203251F54489DF
:102AD00055896689778997018601E7E036952795BC
:102AE00017950795EA95D1F7400F511F621F731F85
:102AF00023E084960E941015009711F480E02DC009
:102B0000E894C7F8DD24EE24FF24CC0CDD1CCC0CAB
:102B1000DD1CFC01EC0DFD1D80829182A282B3823E
:102B20001BC0203159F7FC01448955896689778992
:102B30004D0D511D611D711D23E084960E941015DD
:102B40000097E1F2DD24EE24FF24CC0CDD1CFC0117
:102B5000EC0DFD1D9182808281E01F910F91FF900D
:102B6000EF90DF90CF90BF90AF909F908F9008959F
:102B7000CF92DF92EF92FF920F931F93CF93DF9349
:102B8000EC016A017B0189018D81803251F58C89CC
:102B90009D89AE89BF89E7E07695679557954795FA
:102BA000EA95D1F7480F591F6A1F7B1F22E0CE011B
:102BB00084960E941015009711F48FEF40C0E8949E
:102BC000C7F8DD24EE24FF24CC0CDD1CCC0CDD1C6E
:102BD000FC01EC0DFD1D80819181A281B381BF704C
:102BE0001DC0803151F74C895D896E897F894D0DFB
:102BF000511D611D711D22E0CE0184960E941015A9
:102C00000097D9F2DD24EE24FF24CC0CDD1CFC015E
:102C1000EC0DFD1D80819181A0E0B0E0488D598DC3
:102C20006A8D7B8D481759076A077B0738F0F801D2
:102C300080839183A283B38381E001C080E0DF9130
:102C4000CF911F910F91FF90EF90DF90CF9008955B
:102C50006115710579F0FB0101900020E9F73197CA
:102C6000AF01461B570BDC01ED91FC910280F38113
:102C7000E02D099480E090E00895E1E8F2E0A08979
:102C8000B18982E08C93A485B5851C92A685B78511
:102C90008FEC8C93108EA489B58986E08C93A289E1
:102CA000B3898C9180618C93A289B3898C9188605F
:102CB0008C93A289B3898C9180688C930288F38964
:102CC000E02D80818F7D80830895CF93DF930E94D4
:102CD0005512EB010E94B0128F3F49F00E9455122D
:102CE0006C1B7D0B69357240A8F380E001C081E068
:102CF000DF91CF9108958F929F92AF92BF92CF9222
:102D0000DF92EF92FF92CF93C82F1092990381E048
:102D100090E0A0E0B0E080939C0390939D03A0938B
:102D20009E03B0939F0384E993E09093BA0380934A
:102D3000B9031092B8038FEF9FEFDC018093BB03C0
:102D40009093BC03A093BD03B093BE03CC2331F199
:102D5000C53008F0E7C020E040E050E0BA0188EB61
:102D600093E00E941015009709F4DCC020E1C29F97
:102D7000800D911D11244097FC01E254FE4F2081EB
:102D80002F7709F0CFC0389680809180A280B380E1
:102D900081149104A104B10421F4C4C0812C912CAC
:102DA000540120E0B501A40188EB93E00E941015C6
:102DB000FC01892B09F4B6C0838594858115924066
:102DC00009F0B0C08089823009F0ACC046855785D3
:102DD0004115510509F4A6C02585209396038FEF70
:102DE000820F8093970380E091E0291751F031E042
:102DF000380F393019F48093980394C0990F832FBA
:102E0000F4CF80939803C688D788C114D10419F0F1
:102E1000E12CF12C04C0C4A0D5A0E6A0F7A0C0927C
:102E2000A003D092A103E092A203F092A303D501E4
:102E3000C401840F951FA11DB11D8093A803909319
:102E4000A903A093AA03B093AB03218932893093DD
:102E50009B0320939A03CC0CDD1CEE1CFF1CC80EB8
:102E6000D91EEA1EFB1EC092B003D092B103E092BD
:102E7000B203F092B30355E0220F331F5A95E1F7E6
:102E800021503E4F232F33272695C20ED31EE11C1F
:102E9000F11CC092A403D092A503E092A603F09285
:102EA000A703238934892115310521F0C901A0E048
:102EB000B0E004C080A191A1A2A1B3A1B501A40179
:102EC0004C195D096E097F09480F591F6A1F7B1F46
:102ED0000090980304C076956795579547950A9496
:102EE000D2F7DB01CA010196A11DB11D8093AC038D
:102EF0009093AD03A093AE03B093AF038FEF9FEF1A
:102F0000DC018093B4039093B503A093B603B09310
:102F1000B703453F8FE058076105710528F48CE041
:102F20008093990380E017C0453F5F4F61057105AD
:102F300010F480E10DC084A595A5A6A5B7A5809342
:102F4000B0039093B103A093B203B093B30380E2B4
:102F50008093990381E0CF91FF90EF90DF90CF9025
:102F6000BF90AF909F908F900895CF93DF93BC0157
:102F700081E892E00E94381EEC0181E892E00E9414
:102F80000C1E8C0F9D1FDF91CF910895682F81E853
:102F900092E00C949410CF92DF92EF92FF920F93F5
:102FA0001F93CF93DF9377FF21C06A017B01EC0170
:102FB000E881F9810190F081E02D6DE209958C01A5
:102FC00044275527BA014C195D096E097F092AE08B
:102FD000CE010E94C31D800F911FDF91CF911F91E1
:102FE0000F91FF90EF90DF90CF9008952AE0DF914E
:102FF000CF911F910F91FF90EF90DF90CF900C94A5
:10300000C31D2F923F924F925F926F927F928F9249
:103010009F92AF92BF92CF92DF92EF92FF920F9367
:103020001F93CF93DF93CDB7DEB72D970FB6F894EC
:10303000DEBF0FBECDBF6C017B01FA0181809280A3
:10304000DB018C91807709F444C0D6018C91811109
:1030500040C08081837009F422C3C4010C966DE0E6
:1030600070E00E94193155245394560E2D835F0150
:1030700040E050E0BA01C7010E94C3061C861D86CD
:103080001E82412C612C712C1B861501B6E02B0E83
:10309000311CF70180899189A289B3899C01AD0116
:1030A00095E056954795379527959A95D1F72F83B3
:1030B000388749875A870F81188561E0C7010E94C8
:1030C000E808009741F4D70111968C91882309F400
:1030D000A8C080E0F9C2FC012081253E11F0211139
:1030E0000CC0611004C03F813C8738853D87651462
:1030F00008F46394211105C094C0651408F4D2C289
:1031000002C0253EF1F12E32E1F1DC011B963C912B
:103110001B973F3009F057C0711009C026FFB9CF87
:103120002F71722E1D962C912E83472C09C04A9424
:10313000241127C0DC011D962C913E81321321C041
:10314000442D50E0415051096DE0649F9001659F0E
:10315000300D112428153905A0F4FC0170E07530FC
:1031600018F48181928107C07B3018F484819581A5
:1031700002C0868197812815390529F4892B09F425
:1031800088CF712C86CF8F3F910509F0D0F74FEB98
:10319000480F4A3110F0682F02C060E2680FA901A1
:1031A0004F5F5F4FD50113968D919C911497DC0171
:1031B000A20FB31F8C919FEB980F9A3108F4805E99
:1031C0006813DFCF71C233FDDCCF7720B9F0B1E0F7
:1031D0004B127FCFFC01AC01455F5F4F90E060E890
:1031E000969F900111249695922B2191920FE417AE
:1031F000F507A9F72E8192136CCF0FC04BE050E07A
:10320000B1010E944C31892B09F043CFD5018C913B
:1032100080FF03C021E02B873CCFBD81B7FF6FC18A
:1032200058CF8D818274823409F053CF662051F0DB
:103230000C851D8507C060E0C7010E94E808892B46
:1032400021F063946514B8F315C0F70181818823D8
:1032500089F03FCFC7010E94970A882309F439CF2C
:10326000D7011696ED91FC9117978281823020F458
:1032700030E1630E651470F32B85222309F473C0CB
:10328000D50115964C9082E0682E712C1501B6E0A0
:103290002B0E311C43C0F3E0F41510F4A3E04A2ECA
:1032A00034E0340D282F2F70432F50E02A3008F0DF
:1032B00053C0205DF501E40FF51F2683F4E09695D9
:1032C0008795FA95E1F73150431660F3F501E40D67
:1032D000F11D2EE7268340E050E0BA01C7010E94AD
:1032E000C30661E0C7010E94E8080097B9F1FC013C
:1032F00020812223C1F1238523FDF3CF4BE050E051
:10330000BC01C1010E944C31892B59F7BFEF6B1AE8
:103310007B0AE4E66E16710409F4DBCEF501418107
:103320005281C301840F951F0380F481E02D4E0F5D
:103330005F1FE417F50709F4AECF9C01B5E0220F3B
:10334000331FBA95E1F7820F931F2191022E000CD3
:10335000330B82279327EDCF295CACCFD701119691
:103360008C918111B6CEA80160E070E0E5E0440FD9
:10337000551F661F771FEA95D1F7C7010E94C30644
:10338000882309F4A6CE77247A94750C172D5FE074
:10339000652E1501F6E02F0E311C250121E1420EAC
:1033A000511C0DE0112309F463C060E0C7010E94C5
:1033B000E808FC01892B09F48CCED70116962D91D3
:1033C0003C911797D90194968C919497816094962B
:1033D0008C93612F171101C060646083638614862B
:1033E000D10120E030E8239FC00111242695282B2D
:1033F0009D91290FA415B505A9F72587138E128E67
:10340000D50113964D915C9114976F7170E06150E6
:103410007109069F9001079F300D112460E0281567
:10342000390540F4DA01A20FB31F8C91082E000C6D
:10343000990B0AC081E090E02815390511F480E06D
:1034400090E0919581959109653018F4928381837C
:1034500007C06B3018F49583848302C097838683FA
:103460006F5F2F5F3F4F32966D30C9F611509ACF84
:10347000F701008911892289338945E0369527951E
:10348000179507954A95D1F760E0C7010E94E808B3
:10349000009709F41ECE20E2DC011D922A95E9F77F
:1034A000F50136962BE0DC0101900D922A95E1F7AB
:1034B000F50120812871DC011C962C931C9721E2D8
:1034C00038E251963C932E93509740E058E01F9677
:1034D0005C934E931E9753963C932E935297599616
:1034E0003C932E93589757965C934E935697D701DB
:1034F0001696ED91FC91179784A1816084A380E2D8
:10350000F60111928A95E9F7D7011696AD90BC9015
:103510001797F601B782A682158304835C968D9176
:103520009D910D90BC91A02D80879187A287B38734
:103530000F701127F501BB9695E0000F111F9A95AA
:10354000E1F7E00FF11F838583FF03C0D6011C92D2
:10355000C0CDD501A00FB11FD6968C918771D60131
:103560008C939385987111F488608C93F601738223
:103570008D81827319F08081817141F78D818F7007
:10358000D60112968C93F50187A190A5A1A5B2A5AD
:10359000F601848B958BA68BB78B0A0D1B1DF8014A
:1035A000FF9640805180612C712CD2019927882789
:1035B000369640805180612C712C482A592A6A2AFB
:1035C0007B2AFD81F4FF48C0411451046104710459
:1035D00009F471C09E012F5F3F4FB301A201C501E5
:1035E0000E94B815F82E87FDB1CF00E010E09801D9
:1035F000B301A201C5010E945515882309F4A6CF85
:10360000D50190964D915D916D917C91939777FD49
:1036100009C04F5F5F4F6F4F7F4FF50140A351A32C
:1036200062A373A3D50118964D915D916D917C9124
:103630001B97441655066606770628F4F501408662
:1036400051866286738649805A806B807C80F11037
:10365000C1CF811130C07ACFD6015C964D925D9278
:103660006D927C925F97F801E95BFF4F80819181B9
:10367000A281B381F601808F918FA28FB38FFD81DC
:10368000F5FF21C0D60158964D915D916D917C91C9
:103690005B97C6010E94C306811115C057CF552400
:1036A0005394E4CC612C2FCD7F5F32967D3009F4AA
:1036B000F0CC9A0154CDD60112968C911297806865
:1036C00012968C93DCCF81E02D960FB6F894DEBF76
:1036D0000FBECDBFDF91CF911F910F91FF90EF9063
:1036E000DF90CF90BF90AF909F908F907F906F9022
:1036F0005F904F903F902F900895AF92BF92CF92DE
:10370000DF92EF92FF920F931F93CF93DF93FB0112
:10371000DC0101962C912032D9F3B483A3839D015F
:1037200089010A1B1B0BE90189919E018823C1F0C5
:103730008F32B1F08C3511F480E0F2C0982F977F72
:103740009232D1F38A33C1F3982F9F7B9C33A1F33C
:1037500092EC980F923080F380528F3508F3ECCFC3
:103760000A0F1B1FC801682F392FEC012991CE01C8
:103770002032C9F32F32B9F3EA0168833983980103
:103780002A1B3B0B0A171B0741F0E8018A918E01A7
:103790008E32A9F3803299F303C0A12CB12C05C05D
:1037A00059012F3F310509F03CF6B282A182CF01C9
:1037B00006969F012F5E3F4F40E2EC014993CE01F8
:1037C000C217D307D1F7CD01AC014A1B5B0BEC014B
:1037D0003991CE013E32C1F33032B1F39A0191E01A
:1037E000452B09F090E0A5014150510938F0BD0189
:1037F000640F751FEB0188818E32B1F717E060E02E
:1038000000E070E088E0E82E2A153B050CF06CC063
:103810006D01C20ED31EE6018881803209F45BC0BF
:103820008E3229F44217530709F055C004C0823282
:10383000E1F08C37D1F0D6EDFD2EF80ED5E0DF1596
:1038400010F08D3291F4C6ECFC2EF80EC5E0CF15C9
:1038500060F4D5EAFD2EF80ED2E0DF1530F4CFED9E
:10386000FC2EF80ECDE5CF1520F42417350781F492
:1038700038C024173507A9F1161718F1F82ECFE92B
:10388000DC2ED80ED9E1DD1548F080527E290CC01F
:103890001617B8F090E08FE5CFE5FC2ECFEBFC0ECD
:1038A000D9E1DF1508F00E29FF24F394F60E6F011D
:1038B000C60ED11CE6018E83D6E0DF1570F0F582CE
:1038C0000CC01A3081F0421753076CF09A011AE0CD
:1038D00068E0D0E1ED2E90E001C06F2D2F5F3F4FEB
:1038E00093CF1A30B9F490E08681803209F424CF66
:1038F000992329F0072309F072E0708309C081E061
:1039000080838581E80FF11D8EE7868381E38783BD
:1039100081E006C09A011AE068E0D0E1ED2EDECF2A
:10392000DF91CF911F910F91FF90EF90DF90CF909B
:10393000BF90AF900895CF92DF92EF92FF920F93D6
:103940001F93CF93DF936C017A018B01C0E0D0E02D
:10395000CE15DF0589F0D8016D918D01D601ED916D
:10396000FC910190F081E02DC6010995892B11F49D
:103970007E0102C02196ECCFC701DF91CF911F914C
:103980000F91FF90EF90DF90CF9008950F931F93CA
:103990000E9455126093890270938A0280938B0271
:1039A00090938C02E0918102F09182020484F5856B
:1039B000E02D81E892E0099597FF1FC00E94551203
:1039C0000091890210918A0220918B0230918C0221
:1039D000DC01CB01801B910BA20BB30B0091850284
:1039E00010918602209187023091880280179107FA
:1039F000A207B307B8F28FEF9FEF1F910F910895C1
:103A0000AB01770F660B770B0C94CB17FF920F93DC
:103A10001F93CF93DF9300D000D0CDB7DEB70E94C5
:103A2000C61CFC0197FD11C08D32910591F0C09725
:103A30000A9778F0E0918102F09182020284F38586
:103A4000E02D81E892E00995EACF60E070E0CB01DB
:103A50004CC020E030E0A901F12CE130F105F1F09B
:103A6000ED32F105C9F0CF01C0970A97B8F4AAE08A
:103A7000B0E00E94EB308F01FF0F220B330BDC0113
:103A8000CB01800F911FA21FB31F9C01AD012053DA
:103A900031094109510902C0FF24F394E0918102E8
:103AA000F09182020284F385E02D81E892E029837F
:103AB0003A834B835C8309950E94C61CFC01C09726
:103AC00029813A814B815C810A9738F2E130F10516
:103AD00021F2FF2041F066277727CB01621B730B91
:103AE000840B950B02C0CA01B9010F900F900F9083
:103AF0000F90DF91CF911F910F91FF900895EF925A
:103B0000FF920F931F93CF93DF93EC017B010E94F1
:103B100055128B010E94B0128E838F3F49F40E9490
:103B20005512601B710B6D327140A0F385E503C027
:103B30008E3F39F080E58A83CE010E94B71280E083
:103B40001BC08FEF8EBDF701D701A150BE4F9FEF75
:103B50000DB407FEFDCF8EB59EBD8193EA17FB071E
:103B6000B9F70DB407FEFDCF8EB58C931E820E946F
:103B7000B0120E94B01281E0DF91CF911F910F919E
:103B8000FF90EF9008954F925F926F927F92EF9225
:103B9000FF920F931F93CF93DF93CDB7DEB7A1971B
:103BA0000FB6F894DEBF0FBECDBF7C01FA01CB018A
:103BB00019A2223008F42AE08E010F5D1F4F422E19
:103BC000512C612C712CBF01A30192010E94AA30DB
:103BD000F901CA01015011096A3014F4605D01C095
:103BE000695CD8016C93232B242B252B61F7B8013A
:103BF000C7010E942816A1960FB6F894DEBF0FBE2B
:103C0000CDBFDF91CF911F910F91FF90EF907F90EB
:103C10006F905F904F9008956FEA71E00C942816B2
:103C20000F931F93CF93DF93EC01AB01770F660BDC
:103C3000770B0E94CB178C01CE010E940C1E800FC7
:103C4000911FDF91CF911F910F9108950F931F93B3
:103C5000CF93DF93EC010E9428168C01CE010E94C5
:103C60000C1E800F911FDF91CF911F910F9108952E
:103C7000EF92FF920F931F93CF93DF938C017B0101
:103C8000C0E0D0E0F701EC0FFD1F6491662361F006
:103C9000D801ED91FC910190F081E02DC8010995CA
:103CA000892B11F02196EECFCE01DF91CF911F919C
:103CB0000F91FF90EF900895CF92DF92EF92FF92D5
:103CC0000F931F93E82FF92F05C001501109210907
:103CD000310961F1908196239417B9F305C0015021
:103CE00011092109310911F1908196239413F7CF1D
:103CF000C12CD12CE12CF12C0AC08FEFC81AD80AA4
:103D0000E80AF80A0C151D052E053F0579F080819B
:103D10008623841791F36C2D7D2D8E2D9F2D1F9161
:103D20000F91FF90EF90DF90CF90089560E070E0EA
:103D300080E090E01F910F91FF90EF90DF90CF9087
:103D40000895CF93DF93CDB7DEB7C959D1090FB628
:103D5000F894DEBF0FBECDBF789484B5826084BD79
:103D600084B5816084BD85B5826085BD85B581607F
:103D700085BD80916E00816080936E0010928100FD
:103D800080918100826080938100809181008160B8
:103D90008093810080918000816080938000809179
:103DA000B10084608093B1008091B0008160809305
:103DB000B00080917A00846080937A0080917A00CC
:103DC000826080937A0080917A00816080937A008B
:103DD00080917A00806880937A001092C1001092DE
:103DE00062031092630310926403109265031092B1
:103DF00020031092210310922203109223030E94A9
:103E000055126B017C014B015C0128EB820E2BE00B
:103E1000921EA11CB11C0E9455126C157D058E05C9
:103E20009F0528F086169706A806B906A0F781E830
:103E300092E090936103809360030E943D160E947C
:103E40005512609320037093210380932203909373
:103E5000230360EA71E080916003909161030E9406
:103E600028160E9455126B017C014B015C013AE05F
:103E7000830E911CA11CB11C0E9455126C157D056E
:103E80008E059F0528F086169706A806B906A0F7A6
:103E900081E0809334030E943D1662EB71E081E87B
:103EA00092E00E94261E81E892E00E940C1E88E1AA
:103EB0009CEFAFEFBFEF80930F0790931007A09395
:103EC0001107B09312078CED90E0A0E0B0E0809372
:103ED0000B0790930C07A0930D07B0930E072AE5EC
:103EE00030E044EB50E066E570E086E097E00E9449
:103EF000D00EE8EECE2EE3E0DE2EE12CF12CC092C7
:103F0000FA06D092FB06E092FC06F092FD0683E8EA
:103F10009FEFAFEFBFEF8093F6069093F706A09365
:103F2000F806B093F9062FE530E046E950E064E189
:103F300070E081EF96E00E94D00EC092D006D09241
:103F4000D106E092D206F092D3068CEE9FEFAFEF4F
:103F5000BFEF8093CC069093CD06A093CE06B0938E
:103F6000CF0622E330E04EE650E068E270E087ECF6
:103F700096E00E94D00E8AEE91E0A0E0B0E080933F
:103F8000E5069093E606A093E706B093E806109244
:103F9000E1061092E2061092E3061092E4062AE08F
:103FA00030E044EB50E060E070E08CED96E00E9481
:103FB000D00EE0915506F0915606C784D088EC9655
:103FC000DFAECEAEEC97812C912C54012FEF3FE762
:103FD000EA963FAF2EAFEA9740E050E8E6965FAF33
:103FE0004EAFE6978FEF9FE7E8969FAF8EAFE897CB
:103FF000A0E0B0E8E496BFAFAEAFE4970D2C000CA4
:10400000EE08FF08CC56DF4FC882D982EA82FB82D5
:10401000C459D040F8EE4F2EF3E05F2E612C712C86
:10402000EC96CEACDFACEC97C80CD91CC058DF4F77
:10403000D982C882C058D040E0915506F09156060A
:1040400081899289C816D9060CF0A0C360EE71E090
:1040500081E892E00E94261E62E070E080E090E03D
:104060000E941B12E0906606F0906706EE96FFAE87
:10407000EEAEEE97AA961CAE1DAE1EAE1FAEAA9770
:10408000CC56DF4FC880D980EA80FB80C459D0402D
:10409000C80CD91CEA1CFB1CC857DF4FC882D98248
:1040A000EA82FB82C858D040EE96CEACDFACEE97E9
:1040B0000D2C000CEE08FF08C057DF4FC882D982D4
:1040C000EA82FB82C059D040EE96CEACDFACEE97D0
:1040D000A896EEACFFACA897CE0CDF1CCE57DF4FF6
:1040E000D982C882C258D0408091680690916906F2
:1040F000C816D9060CF044C366EF71E081E892E07F
:104100000E94261E62E070E080E090E00E941B1298
:10411000E0909006F0909106C258DF4FF982E88255
:10412000CE57D040E2961CAE1DAE1EAE1FAEE2973B
:10413000AA96CCACDDACEEACFFACAA97C057DF4F73
:10414000288139814A815B81C059D040C20ED31E7B
:10415000E41EF51ECC57DF4FC882D982EA82FB826B
:10416000C458D040C258DF4FC880D980CE57D04005
:104170000D2C000CEE08FF08C457DF4FC882D9820F
:10418000EA82FB82CC58D040C258DF4F2880398069
:10419000CE57D040E0964EAD5FADE097240E351E71
:1041A0008091920690919306281639060CF0D8C299
:1041B0006DE072E081E892E00E94261E62E070E00D
:1041C00080E090E00E941B12009155061091560667
:1041D000D8011396ED90FC90149719966D917D91EE
:1041E0008D919C911C97C857DF4F288139814A8156
:1041F0005B81C858D0400E949A306C507E4F8F4FE0
:104200009F4FA30192010E94CC30F701C080D18062
:10421000F80185819681A781B085BC01CD01620F2F
:10422000731F841F951FD6011896ED91FC91199765
:10423000C70109957C0100915A0610915B066091B7
:104240006006709161068091620690916306CC577A
:10425000DF4F288139814A815B81C458D0400E9458
:104260009A306C507E4F8F4F9F4FA30192010E9456
:10427000CC30D801ED91FC9180915C0690915D0667
:10428000A0915E06B0915F06BC01CD01620F731F65
:10429000841F951F0084F185E02DC80109958E0DBE
:1042A0009F1DC856DF4F99838883C859D04000911D
:1042B00084061091850660918A0670918B06809124
:1042C0008C0690918D06E296CCACDDACEEACFFACEA
:1042D000E297C457DF4F288139814A815B81CC58EE
:1042E000D040C20ED31EE41EF51EAE96CCAEDDAE9F
:1042F000EEAEFFAEAE97A70196010E949A306C50C9
:104300007E4F8F4F9F4FA30192010E94CC30D80166
:10431000ED91FC918091860690918706A091880688
:10432000B0918906BC01CD01620F731F841F951FD8
:104330000084F185E02DC8010995C856DF4FE8805B
:10434000F980C859D040E80EF91E00915506109129
:104350005606F801C380D480618572858385948573
:10436000C857DF4F288139814A815B81C858D040C6
:104370000E949A306C507E4F8F4F9F4FA301920145
:104380000E94CC30D6010D90BC91A02DC856DF4FB5
:10439000B983A883C859D040F80185819681A78147
:1043A000B085BC01CD01620F731F841F951FC856D5
:1043B000DF4FA881B981C859D0401496ED91FC9186
:1043C0001597C60109958C01C0905A06D0905B06DE
:1043D000609160067091610680916206909163061B
:1043E000CC57DF4F288139814A815B81C458D04046
:1043F0000E949A306C507E4F8F4F9F4FA3019201C5
:104400000E94CC30D601ED91FC9180915C06909198
:104410005D06A0915E06B0915F06BC01CD01620F02
:10442000731F841F951F0480F581E02DC601099537
:10443000080F191FC0908406D090850660918A06E7
:1044400070918B0680918C0690918D06AE962CAD66
:104450003DAD4EAD5FADAE970E949A306C507E4F31
:104460008F4F9F4FA30192010E94CC30D601ED9156
:10447000FC918091860690918706A0918806B09164
:104480008906BC01CD01620F731F841F951F048034
:10449000F581E02DC6010995080F191F6EEA71E03C
:1044A00081E892E00E94381E65EA71E081E892E0BE
:1044B0000E94381EB70181E892E00E94001D62E070
:1044C00070E080E090E00E941B126AE971E081E8F0
:1044D00092E00E94381E62E070E080E090E00E946E
:1044E0001B12B80181E892E00E94001D62E070E0BA
:1044F00080E090E00E941B1264E971E081E892E0A4
:104500000E94381E62E070E080E090E00E941B1282
:10451000C058DF4F68817981C058D04081E892E06F
:104520000E94001D62E070E080E090E00E941B129B
:104530008CE290E00E94C61762E070E080E090E0BC
:104540000E941B12CE57DF4F68817981C258D0403C
:1045500081E892E00E94001D62E070E080E090E05F
:104560000E941B128CE290E00E94C61762E070E08D
:1045700080E090E00E941B12B10181E892E00E946D
:10458000001D62E070E080E090E00E941B1263E298
:1045900072E081E892E00E94261E62E070E080E016
:1045A00090E00E941B12E496CEACDFACE497CE14F0
:1045B000DF0464F51093420600934106F09244062E
:1045C000E092430663E871E081E892E00E94381EC1
:1045D00069E671E081E892E00E94381E62E070E0D6
:1045E00080E090E00E941B128FE396E00E94DF0DB6
:1045F00081E892E00E940C1E62E070E080E090E0B2
:104600000E941B12E496FFAEEEAEE497E696CEACA7
:10461000DFACE697C016D10664F510932E06009322
:104620002D06F0923006E0922F0668E571E081E8F1
:1046300092E00E94381E6EE371E081E892E00E94F1
:10464000381E62E070E080E090E00E941B128BE276
:1046500096E00E94DF0D81E892E00E940C1E62E06D
:1046600070E080E090E00E941B12E6961FAF0EAF54
:10467000E697E896CEACDFACE897EC14FD0464F561
:1046800010934C0600934B06F0924E06E0924D06B6
:104690006DE271E081E892E00E94381E63E171E012
:1046A00081E892E00E94381E62E070E080E090E0D5
:1046B0000E941B1289E496E00E94DF0D81E892E0DF
:1046C0000E940C1E62E070E080E090E00E941B12ED
:1046D000E896FFAEEEAEE897EA96CEACDFACEA978E
:1046E0000C151D0564F51093380600933706F092FB
:1046F0003A06E092390662E071E081E892E00E94B9
:10470000381E68EE70E081E892E00E94381E62E098
:1047100070E080E090E00E941B1285E396E00E942A
:10472000DF0D81E892E00E940C1E62E070E080E004
:1047300090E00E941B12EA961FAF0EAFEA97E29636
:104740002CAD3DAD4EAD5FADE2972F5F3F4F4F4F6C
:104750005F4FE2962CAF3DAF4EAF5FAFE29714CD07
:10476000AA968CAD9DADAEADBFADAA970196A11D29
:10477000B11DAA968CAF9DAFAEAFBFAFAA97A4CC28
:104780002FEF821A920AA20AB20A4ACC67ED70E0B1
:1047900081E892E00E94381E68EC70E081E892E0C7
:1047A0000E94381E62E070E080E090E00E941B12E0
:1047B00085E396E00E94DF0D81E892E00E940C1EE6
:1047C00062E070E080E090E00E941B1267EB70E016
:1047D00081E892E00E94381E68EA70E081E892E089
:1047E0000E94381E62E070E080E090E00E941B12A0
:1047F0008BE296E00E94DF0D81E892E00E940C1EA1
:1048000062E070E080E090E00E941B1267E970E0D7
:1048100081E892E00E94381E68E870E081E892E04A
:104820000E94381E62E070E080E090E00E941B125F
:1048300089E496E00E94DF0D81E892E00E940C1E60
:1048400062E070E080E090E00E941B1267E770E099
:1048500081E892E00E94381E68E670E081E892E00C
:104860000E94381E62E070E080E090E00E941B121F
:104870008FE396E00E94DF0D81E892E00E940C1E1B
:1048800062E070E080E090E00E941B1276E9E72E83
:1048900076E0F72E8701D8018D919D918D01FC0165
:1048A000208130E0F901EE0FFF1F2E0F3F1FF901AD
:1048B000E25BFD4F2081DC0153966D917C91549712
:1048C00026FD03C00E947F0C02C00E94780EB6E055
:1048D0000E391B0701F74CE0D42E52E0C52EF7012C
:1048E000019111917F01D8012C91822F90E0FC0160
:1048F000EE0FFF1F8E0F9F1FFC01E25BFD4F8081BB
:1049000086FD65C01D96BC902C3008F055C061E056
:104910008B2D0E94DF11F8018081E82FF0E09F01CC
:10492000220F331FE20FF31FE25BFD4F9B2D9F739E
:104930002081207CB22EB92AB082D80111961C9217
:10494000119712961C926D2D0E940D31BCE08B9F29
:10495000B001112440E050E09A01260F371FF90101
:10496000EE0FFF1F2E0F3F1FF901E25BFD4F9081FD
:1049700096FD15C04F5F5F4F4C30510569F78111AF
:104980000EC010928000C09281001092850010929B
:104990008400B19A80916F00826080936F00D8018B
:1049A000EC91F0E0CF01880F991FE80FF91FE25B4F
:1049B000FD4F808180648083F80183819481DC01D4
:1049C000ED91FC910190F081E02DB8010995BEE9CF
:1049D000EB16B6E0FB0609F082CF61E0809153064A
:1049E0000E94AF116CE774E081E892E00E94381EEB
:1049F00089E694E00E94B51762E070E080E090E004
:104A00000E941B126DE574E081E892E00E94381E5E
:104A100081E494E00E94B51762E070E080E090E0ED
:104A20000E941B121092EB051092E4051092E10512
:104A30001092E6058CEE95E09093E3058093E205F5
:104A40000E9455128B01E090E205F090E3058AE0A8
:104A5000F701828361E00E94DF1161E0D7011296C5
:104A60008C910E94AF11FFB6F8948091740281116D
:104A700027C0ECE9F4E08491E0EBF4E09491E82FB6
:104A8000F0E0EE0FFF1FE154FE4FA591B491EC91C1
:104A9000E92321F461E08AE00E94AF1161E08AE03D
:104AA0000E94DF118CB580618CBD8CB580648CBD9B
:104AB00061E08DE00E94DF1161E08BE00E94DF1178
:104AC000809174028F5F80937402FFBEE091E205D3
:104AD000F091E30582E5808311828FED95E00E94DD
:104AE0000213E091E205F091E30561E082810E940A
:104AF000AF11AAE0FA2E8FEF0E94AB12FA94F110D8
:104B0000FACFE091E205F091E30560E082810E9436
:104B1000AF1120E030E0A90160E08FED95E00E9448
:104B20001B13813049F00E945512601B710B613DCF
:104B3000774078F380E25AC02AEA31E040E050E062
:104B400068E08FED95E00E941B13853011F481E041
:104B50000CC0F4E0FF2E0E94B0128093E505FA9499
:104B6000F110F9CF8A3A59F482E08093E6058091FA
:104B7000E605823069F0C12CD12C76010EC00E946E
:104B80005512601B710B613D7740B0F285E22EC07B
:104B9000C12CD12CE12CE0E4FE2E20E030E0A90174
:104BA00067E38FED95E00E941B13A701960169E270
:104BB0008FED95E00E941B13882349F00E94551247
:104BC000601B710B613D774040F383E40FC080911F
:104BD000E605823001F520E030E0A9016AE38FEDBF
:104BE00095E00E941B13882341F087E38093E10541
:104BF0008FED95E00E94B71243C00E94B012807CF6
:104C0000803C19F483E08093E6050E94B0120E9474
:104C1000B0120E94B0128FED95E00E94B712E091A1
:104C2000E205F091E30580E5808381E081838FEDEB
:104C300095E090939503809394038FEB95E00E9409
:104C4000090A81E00E947B16882349F064E973E039
:104C50008FEB95E00E94EF09882391F006C080E079
:104C60000E947B168111F2CF0BC09091BF05907707
:104C700039F02FEB35E0309373022093720201C0BC
:104C800080E08093750265E374E081E892E00E9421
:104C9000381E80917502811103C087E294E002C042
:104CA00088E194E00E94B51762E070E080E090E057
:104CB0000E941B1280917502882309F448C18E015D
:104CC0000E5A1F4F8AE0E1E3F2E0D80101900D9205
:104CD0008A95E1F719821A8221E0A8016FEB75E04D
:104CE000CE0101960E94120A81113CC06CE074E072
:104CF00081E892E00E94381E19A21AA2A6961FAF60
:104D00000EAFA69719821A828091BF05807709F0AD
:104D10003CC51EC06091C5057091C605CE010196C7
:104D20000E94EF098823A1F09E012F5F3F4F790178
:104D300070E2D72EAE014C595F4FBE016F5B7F4FC3
:104D4000A6968EAD9FADA6970E947D1B811130C5A2
:104D500085ED93E00E94B51762E070E080E090E09E
:104D60000E941B1261E084E993E00E94B90F41E0C8
:104D7000B80184E993E00E94E00FC12CD12C4AE0F5
:104D8000642E712C88248394912C62E0A62EB12C81
:104D900065E272E0CE0181960E946D311EA255E659
:104DA000C516D10409F45BC0C601E12C8A30910517
:104DB00030F0E394B3010E941931CB01F7CFF12C0D
:104DC000A4014E195F0969EC71E0CE018F5B9F4F22
:104DD0000E945630F501EE19FF0981E490E08C0F36
:104DE0009D1FE80FF91F1082BC0180970E9462315D
:104DF0004AE0BE01645A7F4FC6010E946530BE0181
:104E0000645A7F4FCE0181960E9462316BE272E05C
:104E1000CE0181960E9462316DE272E0CE018196F0
:104E20000E9462319FEFC91AD90A19821A8221E0C1
:104E3000AE014F5D5F4F6FEB75E0CE0101960E94B2
:104E4000120A8111A5CFBE016F5D7F4FCE01019681
:104E50000E946D3161E084E993E00E94B90F69EC32
:104E600073E081E892E00E94381E66EB73E081E80F
:104E700092E00E94381EBE016F5F7F4F81E892E092
:104E80000E94261E62E070E080E090E00E941B120B
:104E90006AEA73E081E892E00E94381E40E0B801BF
:104EA00084E993E00E94E00F811103C08EE893E053
:104EB00002C08FE793E00E94B51762E070E080E0E7
:104EC00090E00E941B1263E773E081E892E00E9489
:104ED000381E609172027091730222E4AE014F5F3E
:104EE0005F4F84E793E00E94120A811103C086E6B7
:104EF00093E002C088E593E00E94B51762E070E09D
:104F000080E090E00E941B126EEB72E080E793E07D
:104F10000E94381E6EE772E080E793E00E94381E20
:104F200069E372E080E793E00E94381E6DEF71E064
:104F300080E793E00E94381E64ED71E080E793E023
:104F40000E94381E80E793E00E940C1E04C080E49B
:104F500093E00E94B51764E373E081E892E00E9459
:104F6000381E6FE173E081E892E00E94381E89E606
:104F700093E00E94230F482F50E060E070E02AE0A9
:104F800081E892E00E94C31D81E892E00E940C1E1D
:104F900062E070E080E090E00E941B1263E173E049
:104FA00081E892E00E94381E6EEF72E081E892E0A4
:104FB0000E94381E86E693E00E94230F482F50E09F
:104FC00060E070E02AE081E892E00E94C31D81E881
:104FD00092E00E940C1E62E070E080E090E00E948F
:104FE0001B1223E0E22EF12C33E2C32ED12C81E8F8
:104FF00092E00E940C1E67E776E081E892E00E9452
:10500000381E62E070E080E090E00E941B1286E0B3
:1050100097E00E94170CBC0181E892E00E94001DFD
:105020006FE676E081E892E00E94381E62E070E070
:1050300080E090E00E941B1286E097E00E940C0E38
:10504000BC0181E892E00E94001D8DE696E00E947E
:10505000B51762E070E080E090E00E941B1260E50E
:1050600076E081E892E00E94381E62E070E080E025
:1050700090E00E941B1281EF96E00E94170CBC0189
:1050800081E892E00E94001D68E476E081E892E009
:105090000E94381E62E070E080E090E00E941B12E7
:1050A00081EF96E00E940C0EBC0181E892E00E9424
:1050B000001D86E496E00E94B51762E070E080E093
:1050C00090E00E941B1269E276E081E892E00E9483
:1050D000381E62E070E080E090E00E941B128CEDD0
:1050E00096E00E94170CBC0181E892E00E94001D2E
:1050F00061E276E081E892E00E94381E62E070E0B2
:1051000080E090E00E941B128CED96E00E940C0E55
:10511000BC0181E892E00E94001D8FE196E00E94B0
:10512000B51762E070E080E090E00E941B1262E040
:1051300076E081E892E00E94381E62E070E080E054
:1051400090E00E941B1287EC96E00E94170CBC01B5
:1051500081E892E00E94001D6AEF75E081E892E02C
:105160000E94381E62E070E080E090E00E941B1216
:1051700087EC96E00E940C0EBC0181E892E00E9450
:10518000001D88EF95E00E94B51762E070E080E0B6
:1051900090E00E941B1262EE75E081E892E00E94AE
:1051A000381E62E070E080E090E00E941B120E94D6
:1051B00055124B015C01A0E18A0EA7E29A1EA11CC8
:1051C000B11C81E892E00E945D10892B11F50E94CC
:1051D000551286169706A806B90698F70E9455122A
:1051E0004B015C01B0E18B0EB7E29B1EA11CB11C10
:1051F00081E892E00E940C1E6CEC75E081E892E080
:105200000E94381E62E070E080E090E00E941B1275
:10521000D8CF0E94061D8B0181E892E00E94101EEB
:105220000230110571F024F40130110501F10CC0B8
:1052300003301105F9F00430110531F407EC16E0E4
:105240001BC001EF16E018C081EC95E00E94B51775
:1052500062E070E080E090E00E941B1281E892E042
:105260000E940C1E81E892E00E94DB108BC206E0D7
:1052700017E002C00CED16E00E9455124B015C01D4
:10528000E0E18E0EE7E29E1EA11CB11C6CEA75E007
:1052900081E892E00E94381E62E070E080E090E0D9
:1052A0000E941B1281E892E00E945D10892BC1F4DC
:1052B0000E94551286169706A806B90698F70E940E
:1052C00055124B015C01F0E18F0EF7E29F1EA11C0D
:1052D000B11C81E892E00E940C1E63E975E0D8CF12
:1052E0000E94061D4B015C0181E892E00E94101EA5
:1052F000B40181E892E00E94001D60E875E081E859
:1053000092E00E94381E62E070E080E090E00E942F
:105310001B12B401C8010E94780EC8010E94170C2C
:10532000BC0181E892E00E94001D8EE695E00E949B
:10533000B51762E070E080E090E00E941B126AE521
:1053400075E081E892E00E94381E62E070E080E043
:1053500090E00E941B1260E08091EF050E94AF1167
:10536000C7010197F1F761E08091EF050E94AF114D
:10537000C6010197F1F760E08091EF050E94AF113F
:105380008091F1059091F2059927FC01EA55FB4FB8
:105390006491FC01EE56FB4FE491F0E0EE0FFF1F2D
:1053A000E857FB4F8591949103E61BE020E030E045
:1053B000462F0E945C1E611571058105910541F023
:1053C000AB01BC014F5F5F4F6F4F7F4F7F7003C0DA
:1053D00040E050E0BA0181E892E00E94CB1781E8FA
:1053E00092E00E940C1E62E070E080E090E00E947B
:1053F0001B128091050690910606DC01ED91FC914F
:105400006091FD057091FE050190F081E02D0995F8
:105410008091070690910806DC01ED91FC91609166
:10542000FF05709100060190F081E02D09958091B3
:10543000090690910A06DC01ED91FC91609101064C
:10544000709102060190F081E02D099580910B0684
:1054500090910C06DC01ED91FC9160910306709136
:1054600004060190F081E02D0995409105065091C8
:105470000606A0910706B091080660910B06709190
:105480000C06FA012281338112968D919C9113971B
:10549000820F931FFB0122813381820F931F909310
:1054A000F6058093F505FA012481358114968D91D6
:1054B0009C911597820F931FDB0114962D913C91BF
:1054C0001597820F931F9093F8058093F705E0914D
:1054D0000906F0910A06868197819093FA058093D8
:1054E000F9056AE475E081E892E00E94381E62E006
:1054F00070E080E090E00E941B128091090790917B
:105500000A07DC01ED91FC910280F381E02D099501
:10551000BC0181E892E00E94101E62E070E080E031
:1055200090E00E941B126AE375E081E892E00E941D
:10553000381E62E070E080E090E00E941B128091D3
:10554000F4069091F506DC01ED91FC910280F38167
:10555000E02D0995BC0181E892E00E94101E62E0F6
:1055600070E080E090E00E941B126AE275E081E842
:1055700092E00E94381E62E070E080E090E00E94BD
:105580001B128091DF069091E006DC01ED91FC9109
:105590000280F381E02D0995BC0181E892E00E9430
:1055A000101E62E070E080E090E00E941B126AE151
:1055B00075E081E892E00E94381E62E070E080E0D1
:1055C00090E00E941B128091CA069091CB06DC01EC
:1055D000ED91FC910280F381E02D0995BC0181E8F9
:1055E00092E00E94101E62E070E080E090E00E9475
:1055F0001B126AE075E081E892E00E94381E62E0CA
:1056000070E080E090E00E941B12E091F305F091C1
:10561000F4050280F381E02D83EF95E00995BC014C
:1056200081E892E00E94101E62E070E080E090E06D
:105630000E941B126AEF74E081E892E00E94381E1B
:1056400062E070E080E090E00E941B128091090708
:1056500090910A07DC01ED91FC910680F781E02D25
:105660000995BC0181E892E00E94101E62E070E0A2
:1056700080E090E00E941B126AEE74E081E892E004
:105680000E94381E62E070E080E090E00E941B12F1
:105690008091F4069091F506DC01ED91FC91068075
:1056A000F781E02D0995BC0181E892E00E94101E6F
:1056B00062E070E080E090E00E941B126AED74E00E
:1056C00081E892E00E94381E62E070E080E090E0A5
:1056D0000E941B128091CA069091CB06DC01ED91CD
:1056E000FC910680F781E02D0995BC0181E892E0EC
:1056F0000E94101E62E070E080E090E00E941B12A9
:105700006AEC74E081E892E00E94381E62E070E08A
:1057100080E090E00E941B12E091F305F091F40507
:105720000680F781E02D83EF95E00995BC0181E8C3
:1057300092E00E94101E62E070E080E090E00E9423
:105740001B126AEB74E081E892E00E94381E62E06E
:1057500070E080E090E00E941B12E091F305F09170
:10576000F4050284F385E02D83EF95E00995BC01F3
:1057700081E892E00E94101E62E070E080E090E01C
:105780000E941B120E94FD1032CCF80180818F32E2
:1057900009F04BC0A696EEADFFADA69780818F3283
:1057A00009F0B8CA3196A696FFAFEEAFA697F2CF32
:1057B000A696EEADFFADA6978081882341F121E04A
:1057C000AE014F5B5F4FB701CE0181960E94011879
:1057D00081110BC0AE014F5B5F4FB701CE018196C7
:1057E0000E941F0B882309F4B3CAFE01B196DE01A3
:1057F00011968D2D01900D928A95E1F7CE0181963B
:105800000E94090AAE014F5F5F4F7A0193CAAE0151
:105810004F5B5F4FB701CE0181960E941F0B88231B
:1058200009F496CA8FEE93E095CA8FEBE82E85E0D7
:10583000F82E7ECAAF92BF92CF92DF92EF92FF9284
:105840000F931F93CF93DF931092840210928302E1
:1058500088EE93E0A0E0B0E080938502909386020A
:10586000A0938702B09388028CE291E09093820229
:105870008093810285EC90E090938E0280938D025C
:1058800084EC90E09093900280938F0280EC90E003
:10589000909392028093910281EC90E09093940215
:1058A0008093930282EC90E090939602809395020D
:1058B00086EC90E0909398028093970210929A025F
:1058C00010929B0210929C0210929D02109224034F
:1058D000109225031092260310922703109228039A
:1058E0001092290310922A0310922B0310922C037A
:1058F00010922D0310922E0310922F03109230035A
:10590000109231031092320310923303C4E9D1E0B4
:10591000D0935607C09355072DE730E030935807D2
:105920002093570748E750E050935A074093590790
:1059300087E890E090935C0780935B0710925E0786
:1059400010925D07D0936007C0935F0730936207A2
:105950002093610750936407409363073093660771
:10596000209365071092680710926707D0936A0723
:10597000C09369074AE550E050936C0740936B076A
:1059800046E450E050936E0740936D079093700784
:1059900080936F071092720710927107D09374076B
:1059A000C093730742E850E0509376074093750721
:1059B000309378072093770790937A07809379073D
:1059C00010927C0710927B07D0937E07C0937D07CF
:1059D0001092800710927F0726EA3FEF30938207EC
:1059E00020938107109284071092830710928607F4
:1059F00010928507D0938807C093870710928A0773
:105A00001092890710928C0710928B0790938E0743
:105A100080938D071092900710928F07D093920772
:105A2000C09391078CE890E090939407809393073C
:105A30008AEB9FEF909396078093950710929807B3
:105A40001092970710929A071092990710924A079E
:105A50001092490710924C0710924B0710924E0774
:105A600010924D071092500710924F0784E891E072
:105A700090934807809347074CE850E060E070E05F
:105A80004093510750935207609353077093540704
:105A900010923C0710923B0710923E0710923D0770
:105AA0001092400710923F07109242071092410750
:105AB00090933A078093390781E990E0A0E0B0E045
:105AC0008093430790934407A0934507B0934607FC
:105AD0001092320710923107109234071092330758
