:100000000C9402030C942A030C942A030C942A03E4
:100010000C942A030C942A030C942A030C942A03AC
:100020000C942A030C942A030C942A030C941E0C9F
:100030000C942A030C942A030C942A030C942A038C
:100040000C9424110C942A030C9417100C94F10FA7
:100050000C942A030C942A030C942A030C942A036C
:100060000C942A030C942A030000000024002700AB
:100070002A00303030303030303030300068656940
:100080006768742C207261646975732C20746865CC
:1000900074612C20736F6E6172206D65617375726F
:1000A000656D656E7400636C617720736572766F41
:1000B00020616E676C652C20636C61772061646AD7
:1000C00020616E676C652C20636C617720686569C0
:1000D0006768742C20636C61772072616469757342
:1000E0002C0074757272656E7420736572766F2061
:1000F000616E676C652C2074757272657420616422
:100100006A20616E676C652C20747572726574204C
:100110006865696768742C207475727265742072E2
:1001200061646975732C00626F6F6D322073657244
:10013000766F20616E676C652C20626F6F6D322068
:1001400061646A20616E676C652C20626F6F6D322E
:10015000206865696768742C20626F6F6D32207249
:1001600061646975732C00626F6F6D312073657205
:10017000766F20616E676C652C20626F6F6D312029
:1001800061646A20616E676C652C20626F6F6D31EF
:10019000206865696768742C20626F6F6D3120720A
:1001A00061646975732C005248532073656E736FD8
:1001B000722072656164696E673A20004175746FE0
:1001C0004D6F7665203A20004C48532073656E735E
:1001D0006F722072656164696E673A2000417574C0
:1001E0006F4D6F7665203A20004F70656E207375F5
:1001F00063636573732E004F70656E206661696C72
:1002000065642E004175746F4D6F7665203A20004D
:10021000636864697220737563636573732E00632A
:100220006864697220746F2022546F706F4D617022
:100230007322206661696C65642E004175746F4D90
:100240006F7665203A2000556E6971756520666984
:100250006C65206E616D653A20004175746F4D6F5D
:100260007665203A20004372656174652022546FE0
:10027000706F4D61707322206661696C65642E0039
:100280004372656174652022546F706F4D617073A5
:1002900022207375636365656465642E004175741F
:1002A0006F4D6F7665203A2000626567696E207336
:1002B0007563636573732E00626567696E2066619E
:1002C000696C65642E004175746F4D6F7665203AD8
:1002D00020005374617274696E6720535049205333
:1002E0004420636172642073747566662E004175E4
:1002F000746F4D6F7665203A200046696E697368A9
:10030000656420706F776572696E6720616E642026
:10031000776967676C696E6720736572766F732E95
:10032000004175746F4D6F7665203A200000000023
:100330000023002600290004040404040404040229
:100340000202020202030303030303010204081072
:1003500020408001020408102001020408102054EB
:100360006865746120203D200052616469757320C6
:100370003D200020636C6177207261646975732091
:100380003D2000626F6F6D32207261646975732069
:100390003D2000626F6F6D3120726164697573205A
:1003A0003D2000486569676874203D200020636C2B
:1003B000617720686569676874203D2000626F6F0F
:1003C0006D3220686569676874203D2000626F6F38
:1003D0006D3120686569676874203D2000536F6E39
:1003E0006172206D6561737572656D656E743A201A
:1003F000002064656772656573207772697474653F
:100400006E2E00206465677265657320656E746585
:100410007265642E2000456E746572207461726787
:10042000657420616E676C653A2000456E74657274
:100430002074617267657420616E676C653A200094
:1004400054727920616761696E2E00456E74657221
:10045000206D656D626572206E756D6265723A2001
:1004600000456E746572206D656D626572206E75F3
:100470006D6265723A20002E20202020202020204E
:100480002020202020205B345D20636C61772020B9
:10049000203A20002E202020202020202020202054
:1004A0002020205B335D20747572726574203A20C1
:1004B0000029002028002E2020202020202020207D
:1004C00020202020205B325D20626F6F6D32202063
:1004D0003A2000290020280053656C656374206D64
:1004E000656D6265723A205B315D20626F6F6D31C0
:1004F00020203A20005741524E494E473A2053455A
:100500005454494E4720414C4C20534552564F209D
:100510004C494D49545320544F204D4158494D5555
:100520004D205B302D3138305D2E0000001100234E
:100530000034004600570069007A008B009C00AE32
:1005400000BF00D000E100F20003011401240135D6
:1005500001460156016601770187019701A701B69F
:1005600001C601D501E501F4010302120221022FA7
:10057000023E024C025A0268027502830290029DFA
:1005800002AA02B702C302CF02DB02E702F302FEB5
:1005900002090314031F03290333033D03470350D8
:1005A00003590362036B0373037B0383038A039280
:1005B0000399039F03A603AC03B203B703BC03C1B3
:1005C00003C603CA03CE03D203D603D903DC03DE7A
:1005D00003E103E303E403E603E703E703E803E8D7
:1005E0000300000000250028002B00000000080088
:1005F00002010000030407000000000000000000EA
:100600007D257C2511241FBECFEFD8E0DEBFCDBFF6
:1006100011E0A0E0B1E0E8E2F4E502C005900D923F
:10062000AA3CB107D9F727E0AAECB1E001C01D92BE
:10063000A331B207E1F713E0C1E0D3E004C0219792
:10064000FE010E94D429C030D107C9F70E944F1C77
:100650000C94072A0C940000CF92DF92EF92FF9245
:10066000CF93DF93EC01603282E078070CF03DC05D
:1006700077FD06C0653B71052CF064EB70E002C0AD
:1006800060E070E0898128E830E06901C81AD1088B
:1006900087FDD394CC0CDD1CCC0CDD1C0D2C000C88
:1006A000EE08FF088A8128E532E0281B310987FD22
:1006B0003395220F331F220F331FC901330FAA0BAB
:1006C000BB0B9C01AD012C193D094E095F09DB01F3
:1006D0000E94892924EB30E040E050E00E945F292D
:1006E000C20ED31EE41EF51EB60188818C3080F543
:1006F000998148E850E0491B510997FD5395440FF3
:10070000551F440F551F6417750784F09A8128E51B
:1007100032E0291B310997FD3395220F331F220F39
:10072000331FAB01261737070CF4A90142505109BA
:10073000440F551F2FB7F89490E0FC01EE0FFF1FF8
:100740008E0F9F1FFC01E653FE4F528341832FBF44
:10075000DF91CF91FF90EF90DF90CF9008950F93AE
:100760001F93CF93DF9301E010E020E030E0E8E654
:10077000F1E0C4EBD0E0BF010E94C02988599E4F30
:10078000BF010E94C0298E3041E0940724F091956A
:100790008195910905C0843B910554F08C549F4F7D
:1007A00030952095109501951F4F2F4F3F4FE3CF68
:1007B0008B3591052CF0AE01481B590BCA01DBCFDC
:1007C000FC01EE0FFF1FE55DFA4F859194910596B0
:1007D0006AE070E00E94AC29DB01A90198010E9447
:1007E0007E29DF91CF911F910F91089581E00895A7
:1007F000089580E090E008950F931F93CF93DF93C7
:10080000DC012C91211102C081E051C0EC018A81F0
:1008100087FF35C04C895D896E897F898E819F8174
:1008200021E084960E94D3130097E9F1EC81FD81C9
:10083000EF70FF2725E0EE0FFF1F2A95E1F7DC019F
:10084000AE0FBF1F2C91253E71F1288123FF0AC0F6
:10085000488D598D6A8D7B8D5C964D935D936D931C
:100860007C935F974C8D5D8D6E8D7F8DE80FF91FAA
:10087000538F428F758B648B8A818F778A830E8129
:100880001F81C80184960E947913882361F0F801C2
:1008900080819181DC01ED91FC910280F381E02D5A
:1008A00009958111B1CF89818160898380E0DF91D1
:1008B000CF911F910F91089504960C94FC033F92E1
:1008C0004F925F926F927F928F929F92AF92BF9260
:1008D000CF92DF92EF92FF920F931F93CF93DF930C
:1008E000CDB7DEB728970FB6F894DEBF0FBECDBFE9
:1008F0004C01DC0112968C911297806812968C93B1
:1009000012971C964D905D906D907C901F97169657
:10091000AD90BC901797411451046104710461F4C7
:10092000D50118968D919D910D90BC91A02D8D8330
:100930009E83AF83B88704C04D825E826F827886C3
:10094000CD80DE80EF80F884BFEFCB1ADB0AEB0AA4
:10095000FB0AF501808D918DA28DB38D8C159D05BF
:10096000AE05BF0528F482E0C82ED12CE12CF12C75
:100970009E012F5F3F4FB701A601C5010E947B1466
:1009800087FD20C0882341F089819A81AB81BC8199
:10099000892B8A2B8B2B51F08D819E81AF81B8855D
:1009A000C816D906EA06FB0679F60CC00FEF1FEF52
:1009B0002FEF3FE0B701A601C5010E941814382EA1
:1009C000811102C0312C2BC0411451046104710407
:1009D00051F097018601B301A201C5010E941814CC
:1009E000811108C0EFCFD5011896CD92DD92ED921E
:1009F000FC921B97F50180A191A1A2A1B3A1B7FD23
:100A000007C00197A109B10980A391A3A2A3B3A331
:100A1000D4011C96CD92DD92ED92FC921F97832D0E
:100A200028960FB6F894DEBF0FBECDBFDF91CF91F1
:100A30001F910F91FF90EF90DF90CF90BF90AF90FC
:100A40009F908F907F906F905F904F903F90089510
:100A5000AF92BF92CF92DF92EF92FF920F931F93CC
:100A6000CF93DF93FB01DC0101962C912032D9F367
:100A7000B483A3839D0189010A1B1B0BE9018991A2
:100A80009E018823C1F08F32B1F08C3511F480E0E3
:100A9000F2C0982F977F9232D1F38A33C1F3982F07
:100AA0009F7B9C33A1F392EC980F923080F380529D
:100AB0008F3508F3ECCF0A0F1B1FC801682F392FA1
:100AC000EC012991CE012032C9F32F32B9F3EA01AA
:100AD0006883398398012A1B3B0B0A171B0741F0D7
:100AE000E8018A918E018E32A9F3803299F303C016
:100AF000A12CB12C05C059012F3F310509F03CF65E
:100B0000B282A182CF0106969F012F5E3F4F40E245
:100B1000EC014993CE01C217D307D1F7CD01AC0147
:100B20004A1B5B0BEC013991CE013E32C1F33032EE
:100B3000B1F39A0191E0452B09F090E0A5014150F5
:100B4000510938F0BD01640F751FEB0188818E32A9
:100B5000B1F717E060E000E070E088E0E82E2A15C9
:100B60003B050CF06CC06D01C20ED31EE6018881FE
:100B7000803209F45BC08E3229F44217530709F022
:100B800055C004C08232E1F08C37D1F0D6EDFD2E95
:100B9000F80ED5E0DF1510F08D3291F4C6ECFC2E86
:100BA000F80EC5E0CF1560F4D5EAFD2EF80ED2E0C0
:100BB000DF1530F4CFEDFC2EF80ECDE5CF1520F487
:100BC0002417350781F438C024173507A9F1161703
:100BD00018F1F82ECFE9DC2ED80ED9E1DD1548F05A
:100BE00080527E290CC01617B8F090E08FE5CFE553
:100BF000FC2ECFEBFC0ED9E1DF1508F00E29FF2407
:100C0000F394F60E6F01C60ED11CE6018E83D6E07A
:100C1000DF1570F0F5820CC01A3081F042175307CF
:100C20006CF09A011AE068E0D0E1ED2E90E001C08E
:100C30006F2D2F5F3F4F93CF1A30B9F490E086812C
:100C4000803209F424CF992329F0072309F072E0B8
:100C5000708309C081E080838581E80FF11D8EE7F4
:100C6000868381E3878381E006C09A011AE068E009
:100C7000D0E1ED2EDECFDF91CF911F910F91FF904C
:100C8000EF90DF90CF90BF90AF9008954F925F921A
:100C90006F927F928F929F92AF92BF92CF92DF928C
:100CA000EF92FF920F931F93CF93DF93EC014A01D2
:100CB0005B014C845D846E847F84A881AA2309F43F
:100CC00091C0488959896A897B8984169506A60648
:100CD000B70609F48DC081149104A104B10429F46C
:100CE0001C861D861E861F8678C0A3FF0BC0088D3C
:100CF000198D2A8D3B8D081519052A053B0508F429
:100D000071C014C0A5FF12C0EE81FF81868197815A
:100D100025E0880F991F2A95E1F7A0E0B0E088153B
:100D20009905AA05BB0508F45DC057C0EE81FF8197
:100D3000848190E009968A019B01015011092109E3
:100D40003109082E04C036952795179507950A9402
:100D5000D2F775016401B1E0CB1AD108E108F108BE
:100D600004C0F694E794D794C7948A95D2F7C01636
:100D7000D106E206F30620F0452B462B472B81F4E3
:100D8000A6FF05C0848D958DA68DB78D04C08C8D72
:100D90009D8DAE8DBF8D8C879D87AE87BF8704C02C
:100DA000C01AD10AE20AF30A8E01045F1F4FC11470
:100DB000D104E104F10489F04C855D856E857F8561
:100DC00098018E819F810E947B1491E0C91AD108FD
:100DD000E108F10818165CF305C0888A998AAA8A86
:100DE000BB8A06C04C865D866E867F8680E001C029
:100DF00081E0DF91CF911F910F91FF90EF90DF90F5
:100E0000CF90BF90AF909F908F907F906F905F90AA
:100E10004F9008952F923F924F925F926F927F92E0
:100E20008F929F92AF92BF92CF92DF92EF92FF92FA
:100E30000F931F93CF93DF93EC015B014A018881ED
:100E400083FF0EC08A8181FF0BC082FF0FC0488DD7
:100E5000598D6A8D7B8DCE010E944606811106C098
:100E60008981816089838FEF9FEF0DC1A40160E0CC
:100E700070E088899989AA89BB8980959095A09509
:100E8000B09584179507A607B70750F364011E01B4
:100E90008CE0280E311C088919892A893B89C114E4
:100EA000D10409F4D5C08E819F81B901A80129E040
:100EB00076956795579547952A95D1F7DC01139656
:100EC000FC90F4221170F11034C00115110589F560
:100ED0004C855D856E857F854115510561057105E0
:100EE00069F091010E947B1487FDBACF811121C066
:100EF000CE010E945F0481111CC0B2CF8C8D9D8DEC
:100F0000AE8DBF8D0097A105B10579F4CE010E9489
:100F10005F04882309F4A4CF8C859D85AE85BF85A9
:100F20008C8F9D8FAE8FBF8F04C08C879D87AE87BF
:100F3000BF87EE81FF814C855D856E857F85425040
:100F4000510961097109048004C0440F551F661FCF
:100F5000771F0A94D2F780899189A289B389480FB3
:100F6000591F6A1F7B1F4F0D511D611D711D0115FA
:100F7000110521F4C114B2E0DB06B0F580E092E087
:100F8000801B910B76018C159D0508F47C010115E1
:100F9000110579F4488859886A887B88888D998DED
:100FA000AA8DBB8D481659066A067B0610F025E00F
:100FB00001C021E0CF0184960E94D313009709F469
:100FC0004FCFA701B501800F911F0E94EC290E0D94
:100FD0001F1D0115124059F58E819F8184960E9434
:100FE0007913811124C03CCF87A190A5A1A5B2A5FA
:100FF00084179507A607B70741F414A28FEF9FEF58
:10100000DC0187A390A7A1A7B2A7EE81FF81808111
:101010009181DC01ED91FC910480F581E02D950139
:101020000995882309F41CCFE12C82E0F82E8889E9
:101030009989AA89BB898E0D9F1DA11DB11D888B21
:10104000998BAA8BBB8BAE0CBF1CCE18DF0823CFAD
:10105000888D998DAA8DBB8D80179107A207B30744
:1010600038F4088F198F2A8F3B8F8A8180688A8392
:101070008A8183FD02C0C40106C0CE010E94FC0328
:101080008111F9CFEDCEDF91CF911F910F91FF909C
:10109000EF90DF90CF90BF90AF909F908F907F9018
:1010A0006F905F904F903F902F90089504960C940E
:1010B0000A07CF93DF931F92CDB7DEB7698341E074
:1010C00050E0BE016F5F7F4F04960E940A070F90A9
:1010D000DF91CF910895CF92DF92EF92FF920F931D
:1010E0001F93CF93DF93EC01862F488959896A8932
:1010F0007B898A019B01E5E0369527951795079531
:10110000EA95D1F7102F1F7011F0811151C098810D
:101110009923D9F18A8180FF38C093FF63C0C88CBE
:10112000D98CEA8CFB8CC41AD50AE60AF70A22E0AD
:10113000C216D104E104F10408F44EC09A013170E2
:1011400095FD61C0EE81FF8103816A017B0189E029
:10115000F694E794D794C7948A95D1F70C21232B62
:1011600009F07EC001117CC0452B462B472B09F4AA
:101170005CC04C855D856E857F859E01245F3F4FF9
:10118000CF010E947B1487FF60C0898182608983C0
:101190008FEF9FEF0197E9F488899989AA89BB8924
:1011A0004F96A11DB11D888B998BAA8BBB8B08C054
:1011B000405E5F4F6F4F7F4F488B598B6A8B7B8BA5
:1011C0008E819F818B9620E2129F800D911D1124AC
:1011D00080C080E090E07DC0CD28CE28CF2809F0E7
:1011E000ADCF0EC095FFAACFEE81FF81868197819A
:1011F00025E0880F991F2A95E1F78417950719F4C0
:1012000080E090E061C099E07695679557954795A5
:101210009A95D1F7EE81FF81848D958DA68DB78D3E
:10122000480F591F6A1F7B1F39C096FF05C0848D68
:10123000958DA68DB78D04C08C8D9D8DAE8DBF8D87
:101240008C879D87AE87BF870BC0811109C08881BD
:10125000807709F49ACF81E090E021E030E036C059
:10126000EE81FF814C855D856E857F8542505109F9
:1012700061097109048004C0440F551F661F771F60
:101280000A94D2F780899189A289B389480F591F9E
:101290006A1F7B1F400F511D611D711D8E819F8133
:1012A00020E084960E94D313892B09F46ECF88899D
:1012B0009989AA89BB890196A11DB11D888B998B3B
:1012C000AA8BBB8B81E090E020E030E0821B930B87
:1012D00061CFDF91CF911F910F91FF90EF90DF9041
:1012E000CF900895FC018081811114C080E2DF015C
:1012F000982F1D929A95E9F777836683DB011596FF
:101300009C91903119F0903229F480E4808381E03F
:101310008283089580E00895CF93DF93EC010E94CB
:10132000FC031882DF91CF910895CF92DF92EF9264
:10133000FF920F931F93CF93DF93CDB7DEB7E39761
:101340000FB6F894DEBF0FBECDBF7C018B015BAB47
:101350004AABD22E19821A82FC018081882311F0B7
:1013600080E059C0FB0180818077D1F3EAA9FBA915
:1013700080818F32D9F4EAA9FBA980818F3221F4D0
:101380003196FBABEAABF7CFF8016681778181112B
:1013900004C0C7010E9472093EC0CE0101960E949E
:1013A00072098823E9F28E010F5F1F4F80E2C82E79
:1013B000AE014E5C5F4FBE016F5D7F4F8AA99BA956
:1013C0000E942805882361F2EAA9FBA9808188236D
:1013D000D1F021E0AE014F5D5F4FB801C7010E941F
:1013E0000015882309F4BCCFF701DE0111968C2D7E
:1013F00001900D928A95E1F7C7010E948C098E0138
:101400000F5F1F4FD5CF2D2DAE014F5D5F4FB80140
:10141000C7010E940015E3960FB6F894DEBF0FBE19
:10142000CDBFDF91CF911F910F91FF90EF90DF9093
:10143000CF9008958F929F92AF92BF92EF92FF92BA
:101440000F931F93CF93DF93EC01888185FF02C038
:1014500010E06CC088899989AA89BB8981159E4F43
:10146000AF41B105A8F7CE010E945F04182F882371
:1014700079F3EE81FF814C855D856E857F854250D5
:10148000510961097109048004C0440F551F661F8A
:10149000771F0A94D2F780889188A288B388840E37
:1014A000951EA61EB71E25E0B501A401CF018496A6
:1014B0000E94D3137C01892B59F280E092E0D7017E
:1014C000FC011D923197E9F701E0EE81FF819281E5
:1014D0000917A8F480819181DC01ED91FC910480D1
:1014E000F581E02D9701B501A401400F511D611D4B
:1014F000711D0995882309F4ABCF0F5FE6CF492F03
:1015000050E060E070E089E0440F551F661F771FD0
:101510008A95D1F788899989AA89BB89480F591F6B
:101520006A1F7B1F488B598B6A8B7B8B812FDF91C6
:10153000CF911F910F91FF90EF90BF90AF909F9030
:101540008F900895AF92BF92CF92DF92EF92FF9269
:101550000F931F93CF93DF93CDB7DEB7A0970FB64E
:10156000F894DEBF0FBECDBF8C01DB019C9190775C
:1015700009F4CEC07B0123ECC8010E94001588232A
:1015800009F4C6C081E0F801828350E1D52ED082F3
:10159000C8010E941A0A882309F4BAC0F801848598
:1015A0009585A685B785848F958FA68FB78F40E0E8
:1015B00050E0BA01C8010E944606C8010E94FC031F
:1015C000882309F4A5C0D80154964D915D916D9181
:1015D0007C91579716968D919C91179721E0849650
:1015E0000E94D313009709F493C0F8012481358138
:1015F0002F70332745E0220F331F4A95E1F7820F02
:10160000931FDC011B96DC9220E2FC01DE011196A7
:1016100001900D922A95E1F7FC01A488B588C28C4F
:10162000D38C8EE28983FE013296CE010C9620E2A5
:101630002193E817F907E1F7D8011696ED91FC918F
:1016400017975C964D915D916D917C915F9742509B
:10165000510961097109048004C0440F551F661FB8
:10166000771F0A94D2F780899189A289B389480F9C
:10167000591F6A1F7B1F21E0CF0184960E94D3135C
:10168000009709F445C0BE8AAD8ADC8ECB8E20E27D
:10169000FE013196DC0101900D922A95E1F72EE2D0
:1016A0002A83F701448D558D668D778D7E8B6D8BEA
:1016B0005C8F4B8F20E2FE013196DC019096019009
:1016C0000D922A95E1F7D80116960D911C91179766
:1016D000C80184960E9479138823D1F0F801808193
:1016E0009181DC01ED91FC910280F381E02DA096C7
:1016F0000FB6F894DEBF0FBECDBFDF91CF911F9123
:101700000F91FF90EF90DF90CF90BF90AF90099432
:1017100080E0A0960FB6F894DEBF0FBECDBFDF917C
:10172000CF911F910F91FF90EF90DF90CF90BF90DE
:10173000AF9008958F929F92AF92BF92CF92DF9217
:10174000EF92FF92FC01828128E532E06901C81A1C
:10175000D10887FDD394CC0CDD1CCC0CDD1C0D2CEA
:10176000000CEE08FF08818128E830E04901881A62
:10177000910887FD9394880C991C880C991C092C5E
:10178000000CAA08BB0880818F3FC1F090E0FC01EB
:10179000EE0FFF1F8E0F9F1FFC01E653FE4F2181AE
:1017A000328143E0220F331F4A95E1F754E036952A
:1017B00027955A95E1F72E5F3F4F02C020E030E0B9
:1017C0002F5F3F4FC901330FAA0BBB0B9C01AD012B
:1017D000281939094A095B09A4EBB0E00E947E2967
:1017E000A7019601281939094A095B090E945F2956
:1017F000C901FF90EF90DF90CF90BF90AF909F9086
:101800008F900895FC019091F2019C30A0F481E04A
:10181000890F8093F2019083892F90E0FC01EE0FF5
:10182000FF1F8E0F9F1FFC01E653FE4F88EB9BE0CE
:101830009283818308958FEF808308951F920F9282
:101840000FB60F9211242F933F934F935F936F9393
:101850007F938F939F93AF93BF93EF93FF93809169
:10186000F10187FF05C010928500109284001BC013
:101870002091F101022E000C330B8091F20190E0D7
:101880002817390784F48091F101082E000C990B78
:10189000FC01EE0FFF1F8E0F9F1FFC01E653FE4F52
:1018A000808186FD15C08091F1018F5F8093F101E9
:1018B0002091F101022E000C330B8091F20190E097
:1018C00028173907C4F48091F1018C3064F113C0FA
:1018D0008091F101082E000C990BFC01EE0FFF1F07
:1018E0008E0F9F1FFC01E653FE4F808160E08F73D7
:1018F0000E947210D8CF8091840090918500049648
:1019000080349C4918F480E49CE905C080918400EF
:1019100090918500049690938900809388008FEFC2
:101920008093F1013BC0209184003091850080912B
:10193000F101082E000C990BFC01EE0FFF1F8E0F1A
:101940009F1FFC01E653FE4F81819281820F931FFE
:1019500090938900809388008091F101082E000CFB
:10196000990BFC01EE0FFF1F8E0F9F1FFC01E6532A
:10197000FE4F808186FF12C08091F101082E000C7D
:10198000990BFC01EE0FFF1F8E0F9F1FFC01E6530A
:10199000FE4F808161E08F730E947210FF91EF9182
:1019A000BF91AF919F918F917F916F915F914F9177
:1019B0003F912F910F900FBE0F901F9018959B0194
:1019C000FC01618D728D2617370754F0FC01638D81
:1019D000748D621773071CF4283C31050CF0B901B3
:1019E0000C942C038F929F92AF92BF92CF92DF9272
:1019F000EF92FF920F931F93CF93DF936C018B01B4
:101A00000E949A0B7C010197833B910580F0B801FD
:101A1000C601DF91CF911F910F91FF90EF90DF9062
:101A2000CF90BF90AF909F908F900C94DF0C0E944E
:101A300018114B015C0128EE820E23E0921EA11CBE
:101A4000B11CE70120E0C017D10709F441C0C8016B
:101A50008C1B9D0B222331F09C012E5F3F4F2530C4
:101A6000310570F421E030E01816190614F020E07A
:101A700030E0892F881F8827881F281B31090FC055
:101A800021E030E01816190614F020E030E0892F2C
:101A9000881F8827881F281B3109220F331FC20F78
:101AA000D31FEC16FD06A1F0BE01C6010E94DF0C9B
:101AB00069E170E080E090E00E94DE100E94181161
:101AC00021E086169706A806B90608F0BCCF9FCF7E
:101AD000DF91CF911F910F91FF90EF90DF90CF900A
:101AE000BF90AF909F908F900895CF93DF93EC01BC
:101AF0000E949A0B2B853C854D855E85DC010E94FA
:101B0000892928EE33E040E050E00E945F298F8170
:101B10009885820F931FDF91CF910895CF93DF9324
:101B200000D000D0CDB7DEB7FC012581368140E082
:101B300050E029833A834B835C830E94750D865A5B
:101B40009F4F0E94AF0329813A814B815C810E94A3
:101B50002D296C507E4F8F4F9F4F28EE33E040E091
:101B600050E00E945F29C9010F900F900F900F90D5
:101B7000DF91CF910895CF93DF9300D000D0CDB700
:101B8000DEB7FC012581368140E050E029833A83AD
:101B90004B835C830E94750D0E94AF0329813A81BB
:101BA0004B815C810E942D296C507E4F8F4F9F4F3F
:101BB00028EE33E040E050E00E945F29C9010F9019
:101BC0000F900F900F90DF91CF9108958F929F9279
:101BD000AF92BF92CF92DF92EF92FF920F931F933B
:101BE000CF93DF93EC01298130E0F901E551FA4F01
:101BF0008491F901E55BFC4F0491F901E95CFC4F2C
:101C000014911123A1F081110E944910E12FF0E0FD
:101C1000EE0FFF1FE35DFC4FA591B491EC91E02323
:101C200091E080E009F490E0E92EF82E02C0E12C6A
:101C3000F12C61E089810E94721083E090E00197AD
:101C4000F1F70E9418114B015C0124E6820E911CF1
:101C5000A11CB11CC12CD12C00E010E098819E3059
:101C600008F09E509770906490937C0080917A0069
:101C7000806480937A0080917A0086FDFCCF809109
:101C800078002091790090E0922B2A8130E028178B
:101C9000390724F4C80ED91E0F5F1F4F02331105F8
:101CA00038F40E941811681579058A059B05B0F271
:101CB000EF2841F460E089810E94721083E090E097
:101CC0000197F1F7B801660F771F660F771FCB01F9
:101CD000969587958C0D9D1D0E94AC29862FDF91CE
:101CE000CF911F910F91FF90EF90DF90CF90BF9019
:101CF000AF909F908F900895FF920F931F93CF9373
:101D0000DF938C01F62EEC01C55DDD4FCE010E9404
:101D10008C09B801CE010E947209882371F0FF205E
:101D200061F090913A05907739F02AE335E03093ED
:101D3000EF012093EE0101C080E0DF91CF911F9170
:101D40000F91FF900895FF920F931F93CF93DF930E
:101D5000CDB7DEB7A0970FB6F894DEBF0FBECDBFEC
:101D6000FB01F42E19821A8220812F3239F421814D
:101D7000211104C0642F0E947C0E25C08C01055DDA
:101D80001D4F21E0AF01B801CE0101960E949509D7
:101D90008823C9F099819077A9F090E2FE013196ED
:101DA000D80101900D929A95E1F7FF2061F0909192
:101DB0003A05907741F02AE335E03093EF01209324
:101DC000EE0101C080E0A0960FB6F894DEBF0FBE12
:101DD000CDBFDF91CF911F910F91FF900895FC012E
:101DE000538D448D252F30E0842F90E0821B930B80
:101DF000541710F0CF96089501970895FC01918D26
:101E0000828D981761F0828DDF01A80FB11D5D965C
:101E10008C91928D9F5F9F73928F90E008958FEFCA
:101E20009FEF0895FC01918D828D981731F0828D7E
:101E3000E80FF11D858D90E008958FEF9FEF0895D5
:101E4000FC01918D228D892F90E0805C9F4F821B39
:101E500091098F73992708958CEF91E00E94200FCC
:101E600021E0892B09F420E0822F0895FC01848D64
:101E7000DF01A80FB11DA35ABF4F2C91848D90E0B4
:101E800001968F739927848FA689B7892C93A0898F
:101E9000B1898C9180648C93938D848D981306C046
:101EA0000288F389E02D80818F7D80830895EF92F1
:101EB000FF920F931F93CF93DF93EC0181E0888F04
:101EC0009B8D8C8D981305C0E889F989808185FDEB
:101ED00024C0F62E0B8D10E00F5F1F4F0F731127DC
:101EE000E02E8C8DE8120CC00FB607FCFACFE88903
:101EF000F989808185FFF5CFCE010E94360FF1CFA1
:101F00008B8DFE01E80FF11DE35AFF4FF0820B8F1E
:101F1000EA89FB898081806207C0EE89FF8960833E
:101F2000E889F98980818064808381E090E0DF9195
:101F3000CF911F910F91FF90EF900895CF93DF9372
:101F4000EC01888D8823C9F0EA89FB89808185FDB1
:101F500005C0A889B9898C9186FD0FC00FB607FC12
:101F6000F5CF808185FFF2CFA889B9898C9185FF53
:101F7000EDCFCE010E94360FE7CFDF91CF910895CC
:101F800080E090E0892B29F00E942C0F81110C94A5
:101F9000000008953FB7F8948091F8019091F901FD
:101FA000A091FA01B091FB0126B5A89B05C02F3F77
:101FB00019F00196A11DB11D3FBFBA2FA92F982F6F
:101FC0008827820F911DA11DB11DBC01CD0142E0EA
:101FD000660F771F881F991F4A95D1F708950E94B1
:101FE000DA291F920F920FB60F9211242F933F936D
:101FF0004F935F936F937F938F939F93AF93BF9311
:10200000EF93FF938CEF91E00E94360FFF91EF91D9
:10201000BF91AF919F918F917F916F915F914F9100
:102020003F912F910F900FBE0F901F9018951F9208
:102030000F920FB60F9211242F938F939F93EF93CC
:10204000FF93E0910C02F0910D028081E091120269
:10205000F091130282FD12C09081809115028F5F72
:102060008F7320911602821751F0E0911502F0E073
:10207000E450FE4F958F8093150201C08081FF913F
:10208000EF919F918F912F910F900FBE0F901F9006
:102090001895833081F028F4813099F08230A1F0D6
:1020A00008958730A9F08830B9F08430D1F4809158
:1020B00080008F7D03C0809180008F7780938000A7
:1020C000089584B58F7702C084B58F7D84BD08954F
:1020D0008091B0008F7703C08091B0008F7D809396
:1020E000B00008951F93CF93DF93282F30E0F901BC
:1020F000E551FA4F8491F901E55BFC4FD491F90168
:10210000E95CFC4FC491CC23C9F0162F81110E94C9
:102110004910EC2FF0E0EE0FFF1FEF51FA4FA591A1
:10212000B4918FB7F894111105C09C91ED2FE095F3
:10213000E92302C0EC91ED2BEC938FBFDF91CF919F
:102140001F910895CF93DF9390E0FC01E55BFC4F76
:102150002491FC01E95CFC4F8491882361F190E0BB
:10216000880F991FFC01E859FF4FC591D491FC01DC
:10217000EF51FA4FA591B491611109C09FB7F8943E
:102180008881209582238883EC912E230BC06230B6
:1021900061F49FB7F8943881822F809583238883D8
:1021A000EC912E2B2C939FBF06C08FB7F894E8813B
:1021B0002E2B28838FBFDF91CF9108958F929F920E
:1021C000AF92BF92CF92DF92EF92FF926B017C01B0
:1021D0000E94CA0F4B015C01C114D104E104F10457
:1021E000F1F00E94CA0FDC01CB0188199909AA09F4
:1021F000BB09883E9340A105B10570F321E0C21AE6
:10220000D108E108F10888EE880E83E0981EA11C31
:10221000B11CC114D104E104F10419F7DDCFFF9022
:10222000EF90DF90CF90BF90AF909F908F900895E8
:102230002FB7F8946091F4017091F5018091F60147
:102240009091F7012FBF08951F920F920FB60F9232
:1022500011242F933F938F939F93AF93BF938091BC
:10226000F4019091F501A091F601B091F701309140
:10227000F30123E0230F2D3720F40196A11DB11D9A
:1022800005C026E8230F0296A11DB11D2093F3017E
:102290008093F4019093F501A093F601B093F701B8
:1022A0008091F8019091F901A091FA01B091FB01A0
:1022B0000196A11DB11D8093F8019093F901A0939F
:1022C000FA01B093FB01BF91AF919F918F913F9124
:1022D0002F910F900FBE0F901F9018958EBD0DB4CB
:1022E00007FEFDCF08958FEF8EBD0DB407FEFDCF25
:1022F0008EB50895CF93DF93FC012581222361F0F1
:10230000EC010380F481E02D61E082810E94721073
:102310008FEF0E946E111D82DF91CF9108951F9360
:10232000CF93DF93EC018C858130A9F41C8620E0EB
:1023300030E0A9016CE0CE010E943113882339F00E
:1023400088E28A83CE010E947A1110E017C0CE0184
:102350000E947A1112C0823081F41C860E94CC182F
:10236000182F882321F08DEF0E946E1102C086E5A0
:102370008A83CE010E947A1101C011E0812FDF9182
:10238000CF911F910895CF92DF92EF92FF920F931A
:102390001F93CF93DF93EC016A017B0189018C8548
:1023A000813049F488859985AA85BB8548175907E6
:1023B0006A077B0741F1E881F9810280F381E02D12
:1023C000CE0109958823B9F08F81A701960183304A
:1023D00039F089E0220F331F441F551F8A95D1F72A
:1023E00062E1CE010E943113882339F081E38A83B0
:1023F000CE010E947A1180E018C0C886D986EA868C
:10240000FB8681E08C87B801CE010E94551B882392
:1024100091F3488559856A857B854F5F5F4F6F4F84
:102420007F4F488759876A877B87DF91CF911F91BC
:102430000F91FF90EF90DF90CF9008950F931F932F
:10244000CF93DF938C01862FEA010E946E11888161
:102450008EBD8981FE013296DE5F0DB407FEFDCF91
:102460008EBDEC17FD0711F08191F7CF0DB407FE7B
:10247000FDCF8FEF0E946E118FEF0E946E110E94B0
:102480007311F8018683982F9F71953039F087E595
:102490008283C8010E947A1180E001C081E0DF914F
:1024A000CF911F910F910895CF92DF92EF92FF92FB
:1024B0000F931F93CF93DF93EC016A017B01890196
:1024C0008C85823049F488859985AA85BB858417D7
:1024D0009507A607B70719F1E881F9810280F38112
:1024E000E02DCE0109958823C9F18F81A7019601BE
:1024F000833039F089E0220F331F441F551F8A951E
:10250000D1F769E1CE010E943113882311F083E3F2
:102510000BC0C886D986EA86FB8682E08C870E943B
:10252000CC18811103C08AE58A8307C0A8016CEF2B
:10253000CE010E941E12811105C0CE010E947A11A7
:1025400080E00CC0488559856A857B854F5F5F4F69
:102550006F4F7F4F488759876A877B87DF91CF917D
:102560001F910F91FF90EF90DF90CF9008950F9300
:102570001F93CF93DF93EC0189018F81833039F072
:1025800089E0440F551F661F771F8A95D1F79A017E
:10259000AB0168E1CE010E943113882319F082E378
:1025A0008A830CC0A8016EEFCE010E941E12182F64
:1025B000882321F0CE010E947A1104C0CE010E942E
:1025C0007A1110E0812FDF91CF911F910F91089523
:1025D0000F931F93CF93DF93EC0189018F81833099
:1025E00039F089E0440F551F661F771F8A95D1F790
:1025F0009A01AB0161E1CE010E943113882319F0E9
:1026000080E38A830BC0B801CE010E94551B182FAE
:10261000882321F0CE010E947A1104C0CE010E94CD
:102620007A1110E0812FDF91CF911F910F910895C2
:10263000CF93DF93FC012581211110C0EC010380B1
:10264000F481E02D908181819CBD8DBDEB81FC8169
:1026500060E082810E94721081E08D83DF91CF91D2
:102660000895EF92FF921F93CF93DF9300D000D095
:10267000CDB7DEB77C01162F29833A834B835C8369
:10268000FC018581811103C0C7010E9418130E94BB
:10269000CC18812F80640E946E118C810E946E1173
:1026A0008B810E946E118A810E946E1189810E9425
:1026B0006E11112311F087E801C085E90E946E11A7
:1026C0001C3011F40E94731110E00E947311F70185
:1026D000868387FF04C01F3F11F01F5FF6CF0F9066
:1026E0000F900F900F90DF91CF911F91FF90EF907F
:1026F00008958F929F92AF92BF92EF92FF921F9395
:10270000CF93DF93DC012C9120FF41C0EC017C01D1
:10271000B7E0EB0EF11CE981FA8180819181DC0147
:10272000ED91FC914B815C816D817E810480F5810E
:10273000E02D97010995182F811102C010E028C0E3
:10274000888181FD04C088818E7F888321C0A98112
:10275000BA818D919C911197FC01208131811C9649
:102760008D909D90AD90BC901F974B815C816D8149
:102770007E81480D591D6A1D7B1DD9011496ED916E
:10278000FC911597970109958111DDCFD7CF11E005
:10279000812FDF91CF911F91FF90EF90BF90AF906D
:1027A0009F908F900895CF92DF92EF92FF921F93A8
:1027B000CF93DF93EC016A017B01122F8B819C8107
:1027C000AD81BE8184179507A607B70719F1CE0121
:1027D0000E947913811103C080E090E021C012FFB4
:1027E00006C01882CB82DC82ED82FE8213C0E981B2
:1027F000FA8180819181DC01ED91FC910190F08161
:10280000E02D9E01295F3F4FB701A6010995811177
:10281000E8CFE2CF13708881182B1883CE0107967A
:10282000DF91CF911F91FF90EF90DF90CF900895AF
:102830008F929F92AF92BF92CF92DF92EF92FF92D0
:102840000F931F936A017B0148015901FC01258107
:10285000203251F544895589668977899701860127
:10286000E7E03695279517950795EA95D1F7400F3C
:10287000511F621F731F23E084960E94D313009799
:1028800011F480E02DC0E894C7F8DD24EE24FF2485
:10289000CC0CDD1CCC0CDD1CFC01EC0DFD1D808284
:1028A0009182A282B3821BC0203159F7FC01448976
:1028B0005589668977894D0D511D611D711D23E074
:1028C00084960E94D3130097E1F2DD24EE24FF24C6
:1028D000CC0CDD1CFC01EC0DFD1D9182808281E0A1
:1028E0001F910F91FF90EF90DF90CF90BF90AF902E
:1028F0009F908F900895CF92DF92EF92FF920F9367
:102900001F93CF93DF93EC016A017B0189018D81D5
:10291000803251F58C899D89AE89BF89E7E0769533
:10292000679557954795EA95D1F7480F591F6A1F44
:102930007B1F22E0CE0184960E94D313009711F4EE
:102940008FEF40C0E894C7F8DD24EE24FF24CC0CC0
:10295000DD1CCC0CDD1CFC01EC0DFD1D808191818A
:10296000A281B381BF701DC0803151F74C895D8950
:102970006E897F894D0D511D611D711D22E0CE01B3
:1029800084960E94D3130097D9F2DD24EE24FF240D
:10299000CC0CDD1CFC01EC0DFD1D80819181A0E0C3
:1029A000B0E0488D598D6A8D7B8D481759076A07AD
:1029B0007B0738F0F80180839183A283B38381E0A1
:1029C00001C080E0DF91CF911F910F91FF90EF90B8
:1029D000DF90CF9008956115710579F0FB010190AA
:1029E0000020E9F73197AF01461B570BDC01ED9151
:1029F000FC910280F381E02D099480E090E008953D
:102A00002F923F924F925F926F927F928F929F92FE
:102A1000AF92BF92CF92DF92EF92FF920F931F93EC
:102A2000CF93DF93CDB7DEB72D970FB6F894DEBF07
:102A30000FBECDBF6C017B01FA0181809280DB016A
:102A40008C91807709F444C0D6018C91811140C0EB
:102A50008081837009F422C3C4010C966DE070E09C
:102A60000E94AC2955245394560E2D835F0140E0FB
:102A700050E0BA01C7010E9446061C861D861E82D0
:102A8000412C612C712C1B861501B6E02B0E311CDC
:102A9000F70180899189A289B3899C01AD0195E0F4
:102AA00056954795379527959A95D1F72F8338876F
:102AB00049875A870F81188561E0C7010E946B081A
:102AC000009741F4D70111968C91882309F4A8C08E
:102AD00080E0F9C2FC012081253E11F021110CC0DB
:102AE000611004C03F813C8738853D87651408F438
:102AF0006394211105C094C0651408F4D2C202C0C9
:102B0000253EF1F12E32E1F1DC011B963C911B9741
:102B10003F3009F057C0711009C026FFB9CF2F719F
:102B2000722E1D962C912E83472C09C04A94241195
:102B300027C0DC011D962C913E81321321C0442D0B
:102B400050E0415051096DE0649F9001659F300D48
:102B5000112428153905A0F4FC0170E0753018F433
:102B60008181928107C07B3018F48481958102C0F5
:102B7000868197812815390529F4892B09F488CF96
:102B8000712C86CF8F3F910509F0D0F74FEB480F9E
:102B90004A3110F0682F02C060E2680FA9014F5F50
:102BA0005F4FD50113968D919C911497DC01A20F74
:102BB000B31F8C919FEB980F9A3108F4805E6813D5
:102BC000DFCF71C233FDDCCF7720B9F0B1E04B121B
:102BD0007FCFFC01AC01455F5F4F90E060E8969FBE
:102BE000900111249695922B2191920FE417F507ED
:102BF000A9F72E8192136CCF0FC04BE050E0B101CA
:102C00000E94DF29892B09F043CFD5018C9180FFE9
:102C100003C021E02B873CCFBD81B7FF6FC158CFE8
:102C20008D818274823409F053CF662051F00C8577
:102C30001D8507C060E0C7010E946B08892B21F049
:102C400063946514B8F315C0F7018181882389F076
:102C50003FCFC7010E941A0A882309F439CFD70150
:102C60001696ED91FC9117978281823020F430E125
:102C7000630E651470F32B85222309F473C0D5010C
:102C800015964C9082E0682E712C1501B6E02B0E43
:102C9000311C43C0F3E0F41510F4A3E04A2E34E0F5
:102CA000340D282F2F70432F50E02A3008F053C0E6
:102CB000205DF501E40FF51F2683F4E096958795D6
:102CC000FA95E1F73150431660F3F501E40DF11D7B
:102CD0002EE7268340E050E0BA01C7010E94460675
:102CE00061E0C7010E946B080097B9F1FC012081E7
:102CF0002223C1F1238523FDF3CF4BE050E0BC013B
:102D0000C1010E94DF29892B59F7BFEF6B1A7B0A9B
:102D1000E4E66E16710409F4DBCEF50141815281BF
:102D2000C301840F951F0380F481E02D4E0F5F1FB8
:102D3000E417F50709F4AECF9C01B5E0220F331F6D
:102D4000BA95E1F7820F931F2191022E000C330BED
:102D500082279327EDCF295CACCFD70111968C91B8
:102D60008111B6CEA80160E070E0E5E0440F551F88
:102D7000661F771FEA95D1F7C7010E944606882390
:102D800009F4A6CE77247A94750C172D5FE0652E92
:102D90001501F6E02F0E311C250121E1420E511CD8
:102DA0000DE0112309F463C060E0C7010E946B08C5
:102DB000FC01892B09F48CCED70116962D913C91FC
:102DC0001797D90194968C919497816094968C93DF
:102DD000612F171101C06064608363861486D1017E
:102DE00020E030E8239FC00111242695282B9D91D7
:102DF000290FA415B505A9F72587138E128ED501C5
:102E000013964D915C9114976F7170E06150710948
:102E1000069F9001079F300D112460E028153905A9
:102E200040F4DA01A20FB31F8C91082E000C990B0D
:102E30000AC081E090E02815390511F480E090E0A7
:102E4000919581959109653018F49283818307C02B
:102E50006B3018F49583848302C0978386836F5FF9
:102E60002F5F3F4F32966D30C9F611509ACFF70160
:102E7000008911892289338945E036952795179570
:102E800007954A95D1F760E0C7010E946B0800974B
:102E900009F41ECE20E2DC011D922A95E9F7F50126
:102EA00036962BE0DC0101900D922A95E1F7F501B1
:102EB00020812871DC011C962C931C9721E238E2BA
:102EC00051963C932E93509740E058E01F965C93A8
:102ED0004E931E9753963C932E93529759963C933C
:102EE0002E93589757965C934E935697D701169604
:102EF000ED91FC91179784A1816084A380E2F60193
:102F000011928A95E9F7D7011696AD90BC90179764
:102F1000F601B782A682158304835C968D919D91FC
:102F20000D90BC91A02D80879187A287B3870F70E9
:102F30001127F501BB9695E0000F111F9A95E1F757
:102F4000E00FF11F838583FF03C0D6011C92C0CD23
:102F5000D501A00FB11FD6968C918771D6018C93A5
:102F60009385987111F488608C93F60173828D813A
:102F7000827319F08081817141F78D818F70D60144
:102F800012968C93F50187A190A5A1A5B2A5F60193
:102F9000848B958BA68BB78B0A0D1B1DF801FF96B2
:102FA00040805180612C712CD20199278827369658
:102FB00040805180612C712C482A592A6A2A7B2A28
:102FC000FD81F4FF48C0411451046104710409F407
:102FD00071C09E012F5F3F4FB301A201C5010E9446
:102FE0007B14F82E87FDB1CF00E010E09801B3010B
:102FF000A201C5010E941814882309F4A6CFD501A7
:1030000090964D915D916D917C91939777FD09C05C
:103010004F5F5F4F6F4F7F4FF50140A351A362A3F6
:1030200073A3D50118964D915D916D917C911B977D
:10303000441655066606770628F4F5014086518643
:103040006286738649805A806B807C80F110C1CF84
:10305000811130C07ACFD6015C964D925D926D920F
:103060007C925F97F801E95BFF4F80819181A2819B
:10307000B381F601808F918FA28FB38FFD81F5FF11
:1030800021C0D60158964D915D916D917C915B97D1
:10309000C6010E944606811115C057CF552453948E
:1030A000E4CC612C2FCD7F5F32967D3009F4F0CCDB
:1030B0009A0154CDD60112968C911297806812967F
:1030C0008C93DCCF81E02D960FB6F894DEBF0FBE57
:1030D000CDBFDF91CF911F910F91FF90EF90DF90C7
:1030E000CF90BF90AF909F908F907F906F905F90A8
:1030F0004F903F902F900895ECEFF1E0A089B189B7
:1031000082E08C93A485B5851C92A685B7858FEC4B
:103110008C93108EA489B58986E08C93A289B3899B
:103120008C9180618C93A289B3898C9188608C93F7
:10313000A289B3898C9180688C930288F389E02DF1
:1031400080818F7D80830895909197058091960569
:10315000813061F0D0F0823081F08330A9F4809327
:1031600096059093970583E090E0089580939605E7
:103170009093970581E090E0089580939605909351
:10318000970582E090E0089591E010929605909363
:10319000970580E090E00895CF93DF930E94181187
:1031A000EB010E9473118F3F49F00E9418116C1BB4
:1031B0007D0B69357240A8F380E001C081E0DF91AA
:1031C000CF9108958F929F92AF92BF92CF92DF924C
:1031D000EF92FF92CF93C82F1092140381E090E0FA
:1031E000A0E0B0E08093170390931803A093190315
:1031F000B0931A038FE093E09093350380933403E8
:10320000109233038FEF9FEFDC018093360390938E
:103210003703A0933803B0933903CC2331F1C53081
:1032200008F0E7C020E040E050E0BA0183E393E01B
:103230000E94D313009709F4DCC020E1C29F800DE7
:10324000911D11244097FC01E254FE4F20812F77FD
:1032500009F0CFC0389680809180A280B38081141D
:103260009104A104B10421F4C4C0812C912C540117
:1032700020E0B501A40183E393E00E94D313FC0195
:10328000892B09F4B6C0838594858115924009F095
:10329000B0C08089823009F0ACC0468557854115A1
:1032A000510509F4A6C02585209311038FEF820FE5
:1032B0008093120380E091E0291751F031E0380F3C
:1032C000393019F48093130394C0990F832FF4CFEE
:1032D00080931303C688D788C114D10419F0E12C58
:1032E000F12C04C0C4A0D5A0E6A0F7A0C0921B0397
:1032F000D0921C03E0921D03F0921E03D501C4017D
:10330000840F951FA11DB11D809323039093240367
:10331000A0932503B09326032189328930931603A5
:1033200020931503CC0CDD1CEE1CFF1CC80ED91E0F
:10333000EA1EFB1EC0922B03D0922C03E0922D03B9
:10334000F0922E0355E0220F331F5A95E1F72150DA
:103350003E4F232F33272695C20ED31EE11CF11CAE
:10336000C0921F03D0922003E0922103F092220327
:10337000238934892115310521F0C901A0E0B0E08D
:1033800004C080A191A1A2A1B3A1B501A4014C19CF
:103390005D096E097F09480F591F6A1F7B1F009046
:1033A000130304C076956795579547950A94D2F70D
:1033B000DB01CA010196A11DB11D809327039093E3
:1033C0002803A0932903B0932A038FEF9FEFDC011A
:1033D00080932F0390933003A0933103B093320373
:1033E000453F8FE058076105710528F48CE0809314
:1033F000140380E017C0453F5F4F6105710510F46D
:1034000080E10DC084A595A5A6A5B7A580932B0343
:1034100090932C03A0932D03B0932E0380E280930E
:10342000140381E0CF91FF90EF90DF90CF90BF9099
:10343000AF909F908F900895CF93DF93BC018CEF56
:1034400091E00E94E61BEC018CEF91E00E94E21BF0
:103450008C0F9D1FDF91CF910895CF92DF92EF9255
:10346000FF92CF93DF93AB01BC0177FF23C06A01CA
:103470007B01E091FC01F091FD010190F081E02DD4
:103480006DE28CEF91E00995EC0144275527BA01D4
:103490004C195D096E097F092AE08CEF91E00E94CA
:1034A000991B8C0F9D1FDF91CF91FF90EF90DF90C4
:1034B000CF9008952AE08CEF91E0DF91CF91FF90BB
:1034C000EF90DF90CF900C94991BCF93DF93BC01CA
:1034D000990F880B990B0E942D1AEC018CEF91E04B
:1034E0000E94E21B8C0F9D1FDF91CF9108950F93D7
:1034F0001F930E9418116093040270930502809339
:10350000060290930702E091FC01F091FD01048412
:10351000F585E02D8CEF91E0099597FF1FC00E9483
:1035200018110091040210910502209106023091B9
:103530000702DC01CB01801B910BA20BB30B0091A6
:1035400000021091010220910202309103028017C3
:103550009107A207B307B8F28FEF9FEF1F910F916A
:103560000895CF92DF92EF92FF920F931F93CF9324
:10357000DF936C017A018B01C0E0D0E0CE15DF054E
:1035800089F0D8016D918D01D601ED91FC910190EA
:10359000F081E02DC6010995892B11F47E0102C04E
:1035A0002196ECCFC701DF91CF911F910F91FF9032
:1035B000EF90DF90CF900895FF920F931F93CF93DA
:1035C000DF9300D000D0CDB7DEB70E94771AFC01A0
:1035D00097FD11C08D32910591F0C0970A9778F050
:1035E000E091FC01F091FD010284F385E02D8CEF68
:1035F00091E00995EACF60E070E0CB014CC020E09B
:1036000030E0A901F12CE130F105F1F0ED32F105E6
:10361000C9F0CF01C0970A97B8F4AAE0B0E00E94C1
:103620007E298F01FF0F220B330BDC01CB01800FB2
:10363000911FA21FB31F9C01AD0120533109410905
:10364000510902C0FF24F394E091FC01F091FD01C7
:103650000284F385E02D8CEF91E029833A834B833C
:103660005C8309950E94771AFC01C09729813A81F1
:103670004B815C810A9738F2E130F10521F2FF209D
:1036800041F066277727CB01621B730B840B950BE8
:1036900002C0CA01B9010F900F900F900F90DF91F7
:1036A000CF911F910F91FF900895EF92FF920F938A
:1036B0001F93CF93DF93EC017B010E9418118B01C4
:1036C0000E9473118E838F3F49F40E941811601B72
:1036D000710B6D327140A0F385E503C08E3F39F068
:1036E00080E58A83CE010E947A1180E01BC08FEFB3
:1036F0008EBDF701D701A150BE4F9FEF0DB407FE5D
:10370000FDCF8EB59EBD8193EA17FB07B9F70DB4C7
:1037100007FEFDCF8EB58C931E820E9473110E940E
:10372000731181E0DF91CF911F910F91FF90EF9086
:1037300008954F925F926F927F92EF92FF920F9354
:103740001F93CF93DF93CDB7DEB7A1970FB6F89451
:10375000DEBF0FBECDBF7C01FA01CB0119A2223022
:1037600008F42AE08E010F5D1F4F422E512C612C70
:10377000712CBF01A30192010E943D29F901CA01E8
:10378000015011096A3014F4605D01C0695CD80110
:103790006C93232B242B252B61F7B801C7010E94C2
:1037A000EB14A1960FB6F894DEBF0FBECDBFDF912C
:1037B000CF911F910F91FF90EF907F906F905F904E
:1037C0004F90089567E371E00C94EB14EF92FF9231
:1037D0000F931F93CF93DF938C017B01C0E0D0E068
:1037E000F701EC0FFD1F6491662361F0D801ED91A4
:1037F000FC910190F081E02DC8010995892B11F011
:103800002196EECFCE01DF91CF911F910F91FF90C6
:10381000EF900895CF92DF92EF92FF920F931F9354
:10382000E82FF92F05C0015011092109310961F173
:10383000908196239417B9F305C00150110921090D
:10384000310911F1908196239413F7CFC12CD12C1B
:10385000E12CF12C0AC08FEFC81AD80AE80AF80A3E
:103860000C151D052E053F0579F0808186238417F0
:1038700091F36C2D7D2D8E2D9F2D1F910F91FF901B
:10388000EF90DF90CF90089560E070E080E090E0EE
:103890001F910F91FF90EF90DF90CF900895CF93FD
:1038A000DF93CDB7DEB7C756D1090FB6F894DEBFA8
:1038B0000FBECDBF789484B5826084BD84B581602D
:1038C00084BD85B5826085BD85B5816085BD8091EB
:1038D0006E00816080936E00109281008091810063
:1038E000826080938100809181008160809381005B
:1038F000809180008160809380008091B10084601D
:103900008093B1008091B00081608093B00080917D
:103910007A00846080937A0080917A00826080933C
:103920007A0080917A00816080937A0080917A0099
:10393000806880937A001092C1001092DD0210928C
:10394000DE021092DF021092E00210929B021092AF
:103950009C0210929D0210929E020E9418116B010F
:103960007C012B013C0128EB420E2BE0521E611C16
:10397000711C0E9418116C157D058E059F0528F09D
:103980004616570668067906A0F78CEF91E09093EB
:10399000DC028093DB020E947C180E941811609365
:1039A0009B0270939C0280939D0290939E0268E21A
:1039B00071E08091DB029091DC020E94EB140E9486
:1039C00018116B017C012B013C013AE0430E511CA4
:1039D000611C711C0E9418116C157D058E059F05D8
:1039E00028F04616570668067906A0F781E080930E
:1039F000AF020E947C186AE371E08CEF91E00E94B4
:103A0000EB148CEF91E00E94E21B8CEF91E00E949E
:103A1000E21B8CE99FEFAFEFBFEF8093EA06909334
:103A2000EB06A093EC06B093ED0681EE90E0A0E0EB
:103A3000B0E08093E6069093E706A093E806B09383
:103A4000E90684E690E0A0E0B0E08093C20690939F
:103A5000C306A093C406B093C50683E89FEFAFEFFB
:103A6000BFEF8093BE069093BF06A093C006B093AD
:103A7000C106EEE6F5E042815381608171812091BB
:103A800046062A3008F449C0349645E0E639F40782
:103A900091F72DE730E0309348062093470668E71A
:103AA00070E070934A066093490647E850E05093EF
:103AB0004C0640934B068AE590E090934E06809327
:103AC0004D063093500620934F0670935206609334
:103AD00051063093540620935306909356068093D4
:103AE0005506909358068093570626E430E03093AD
:103AF0005A062093590650935C0640935B069093B8
:103B00005E0680935D0606E1E02E06E0F02E67017A
:103B10008CE0682E92E0792E63C0A4E02A9FC00159
:103B200011248A569A4FDC01A857BF4F11967C93F7
:103B30006E9312964D935C9377247394720E7092E9
:103B4000460622E236E0A8963FAF2EAFA89791E056
:103B5000971508F099CFA896AEADBFADA897CD90B8
:103B6000DD90ED90FC9013974D915C91892F282F5B
:103B700030E02150304C220F331F220F331FB90188
:103B8000625E794FDB010D911C91401751077CF467
:103B90002E5D394FDB012D903D904D905C90D90109
:103BA0002D923D924D925C921397815001F76A01DC
:103BB000B4E08B9F90011124225E394FD901CD9240
:103BC000DD92ED92FC9213979F5FA8962EAD3FADCC
:103BD000A8972C5F3F4FA8963FAF2EAFA897B8CFBE
:103BE000D6018D919C91FC01208130E0F901EE0F0E
:103BF000FF1F2E0F3F1FF901E653FE4F2081DC010E
:103C00005D966D917C915E9726FD62C00E94DF0CEF
:103C1000F60100811181D80157965C9057978C91DD
:103C20008C3008F057C061E0852D0E94A210F80189
:103C30008081E82FF0E09F01220F331FE20FF31F76
:103C4000E653FE4F952D9F732081207C522E592ADA
:103C50005082D80111961C92119712961C92662DD3
:103C60000E94A029BCE08B9FB001112440E050E0ED
:103C70009A01260F371FF901EE0FFF1FE20FF31F06
:103C8000E653FE4F908196FD15C04F5F5F4F4C305D
:103C9000510571F781110EC0109280007092810061
:103CA0001092850010928400B19A80916F0082601A
:103CB00080936F00D801EC91F0E0CF01880F991F3D
:103CC000E80FF91FE653FE4F80818064808302C0B5
:103CD0000E94F20CB2E0CB0ED11CEEE1CE16E6E073
:103CE000DE0609F07DCF61E080919A050E94721096
:103CF00080919C0590919D050E949A0B9A838983DF
:103D00008EE995E00E949A0B9C838B8386EC95E06C
:103D10000E949A0B9E838D838EEE95E00E949A0BF3
:103D200098878F8306E116E0D8018D919D918D01D2
:103D3000FC01658D768D0E94F20CF6E00E311F07B6
:103D400099F766E1C62E66E0D62ED6010D911D913B
:103D50006D01C8010E949A0B3C01F801618D728DC2
:103D6000C8010E94F20CD8015B966D917C915C9722
:103D7000C8010E94F20CB301C8010E94F20CBEE11E
:103D8000CB16B6E0DB0609F78E010F5F1F4F6E0101
:103D9000E9E0CE0ED11C302E212ED8016D917D91FF
:103DA0008D01F701819191917F010E94F20C0C1518
:103DB0001D0599F761E273E08CEF91E00E94E61B2C
:103DC0008AEF92E00E941C1A62E070E080E090E0CE
:103DD0000E94DE106EEE72E08CEF91E00E94E61B16
:103DE00082ED92E00E941C1A62E070E080E090E0B8
:103DF0000E94DE1066EC72E08CEF91E00E94E61B00
:103E00001092660510925F0510925C051092610594
:103E100087E695E090935E0580935D050E941811FA
:103E20008B01E0905D05F0905E058AE0D701129667
:103E30008C9361E00E94A21061E0F70182810E94F0
:103E40007210FFB6F8948091F001811127C0E1E46F
:103E5000F3E08491E5E5F3E09491E82FF0E0EE0FD4
:103E6000FF1FE859FF4FA591B491EC91E92321F48C
:103E700061E08AE00E94721061E08AE00E94A21074
:103E80008CB580618CBD8CB580648CBD61E08DE0AB
:103E90000E94A21061E08BE00E94A2108091F001CC
:103EA0008F5F8093F001FFBEE0915D05F0915E05AC
:103EB00082E5808311828AE595E00E941813E091E3
:103EC0005D05F0915E0561E082810E9472104AE01A
:103ED000F42E8FEF0E946E11FA94F110FACFE09158
:103EE0005D05F0915E0560E082810E94721020E025
:103EF00030E0A90160E08AE595E00E94311381304D
:103F000049F00E941811601B710B613D774078F3F6
:103F100080E25AC02AEA31E040E050E068E08AE5F9
:103F200095E00E943113853011F481E00CC034E03B
:103F3000F32E0E94731180936005FA94F110F9CF6B
:103F40008A3A59F482E0809361058091610582305C
:103F500069F0C12CD12C76010EC00E941811601B93
:103F6000710B613D7740B0F285E22EC0C12CD12C9F
:103F7000E12C20E4F22E20E030E0A90167E38AE59D
:103F800095E00E943113A701960169E28AE595E068
:103F90000E943113882349F00E941811601B710B95
:103FA000613D774040F383E40FC08091610582302A
:103FB00001F520E030E0A9016AE38AE595E00E947E
:103FC0003113882341F087E380935C058AE595E00F
:103FD0000E947A1145C00E947311807C803C19F4C4
:103FE00083E0809361050E9473110E9473110E9407
:103FF00073118AE595E00E947A11E0915D05F091D8
:104000005E0580E5808381E081838AE595E0909379
:10401000100380930F038AE395E00E948C0981E0EE
:104020000E94E218882349F06FE073E08AE395E08C
:104030000E9472098823A1F006C080E00E94E21865
:104040008111F2CF0DC080913A05807749F08AE363
:1040500095E09093EF018093EE0189EA92E002C02F
:1040600088EB92E00E941C1A62E070E080E090E031
:104070000E94DE108E010E5A1F4F8AE0E0ECF1E044
:10408000D80101900D928A95E1F719821A8221E0F8
:10409000A8016AE375E0832D922D0E949509811194
:1040A0003AC06DE972E08CEF91E00E94E61B19A224
:1040B0001AA2A6961FAF0EAFA69719821A828091F8
:1040C0003A05807709F0C5C41CC060914005709125
:1040D0004105832D922D0E947209882391F0E32CD3
:1040E000F22C90E2D92EAE014C595F4FBE016F5BAE
:1040F0007F4FA6968EAD9FADA6970E942805811191
:10410000BBC486E692E00E941C1A62E070E080E088
:1041100090E00E94DE1061E08FE093E00E947C0E50
:1041200041E0B8018FE093E00E94A30EC12CD12C96
:10413000BAE06B2E712C44244394512C64EB71E053
:10414000CE0181960E94002A1EA245E6C416D10423
:1041500009F45CC0C601E12C8A30910530F0E3948B
:10416000B3010E94AC29CB01F7CFF12CA2014E196B
:104170005F0962E770E0CE018F5B9F4F0E94E928E4
:10418000E2E0F0E0EE19FF0981E490E08C0F9D1F62
:10419000E80FF91F1082BC0180970E94F5294AE0C0
:1041A000BE01645A7F4FC6010E94F828BE01645ABE
:1041B0007F4FCE0181960E94F5296AEB71E0CE0116
:1041C00081960E94F5296CEB71E0CE0181960E94E8
:1041D000F5299FEFC91AD90A19821A8221E0AE0186
:1041E0004F5D5F4F6AE375E0832D922D0E94950924
:1041F0008111A4CFBE016F5D7F4F832D922D0E9450
:10420000002A61E08FE093E00E947C0E6AE572E094
:104210008CEF91E00E94E61B67E472E08CEF91E086
:104220000E94E61B632D722D8CEF91E00E94EB142F
:104230008CEF91E00E94E21B62E070E080E090E091
:104240000E94DE106BE372E08CEF91E00E94E61BAF
:1042500040E0B8018FE093E00E94A30E811103C0FB
:104260008FE192E002C080E192E00E941C1A62E0BD
:1042700070E080E090E00E94DE1064E072E08CEF7D
:1042800091E00E94E61B6091EE017091EF0122E443
:10429000432D522D8FEE92E00E949509811103C0AB
:1042A00087EF91E002C089EE91E00E941C1A62E063
:1042B00070E080E090E00E94DE1067E671E08BEE37
:1042C00092E00E94E61B67E271E08BEE92E00E94B2
:1042D000E61B62EE70E08BEE92E00E94E61B66EA5F
:1042E00070E08BEE92E00E94E61B6DE770E08BEED3
:1042F00092E00E94E61B8BEE92E00E94E21B6DEDC5
:1043000071E08CEF91E00E94E61B68EC71E08CEFAD
:1043100091E00E94E61B84EE92E00E94E60D482F99
:1043200050E060E070E02AE08CEF91E00E94991B81
:104330008CEF91E00E94E21B62E070E080E090E090
:104340000E94DE106CEB71E08CEF91E00E94E61BA6
:1043500067EA71E08CEF91E00E94E61B81EE92E04B
:104360000E94E60D482F50E060E070E02AE08CEFFC
:1043700091E00E94991B8CEF91E00E94E21B62E0A9
:1043800070E080E090E00E94DE108091970581113E
:1043900004C085EF94E00E941C1A62E070E080E0A7
:1043A00090E00E94DE1080919705811154C00E9418
:1043B000A41881309105B9F03CF4892BC1F48090A8
:1043C0009C0590909D0513C08230910539F00397AC
:1043D00071F4FEEE8F2EF5E09F2E09C0A6EC8A2E1A
:1043E000A5E09A2E04C0EEE98E2EE5E09E2ED401C3
:1043F0005A961C921E9259970E94A41881309105DA
:10440000B9F03CF4892BC1F4A0909C05B0909D05B7
:1044100013C08230910539F0039771F46EEEA62E29
:1044200065E0B62E09C076ECA72E75E0B72E04C065
:104430005EE9A52E55E0B52E24EB30E0F501348F72
:10444000238F809196058F5F809396051092970534
:104450000E94A418A8CF8CEF91E00E94E21B68EDA7
:1044600074E08CEF91E00E94E61B62E070E080E077
:1044700090E00E94DE108FED96E00E949A0BBC0146
:10448000990F880B990B0E942D1A65ED74E08CEF43
:1044900091E00E94E61B62E070E080E090E00E9404
:1044A000DE108FED96E00E94750DBC01990F880B10
:1044B000990B0E942D1A83ED94E00E941C1A62E071
:1044C00070E080E090E00E94DE1066EB74E08CEF1C
:1044D00091E00E94E61B62E070E080E090E00E94C4
:1044E000DE1087EB96E00E949A0BBC01990F880BB7
:1044F000990B0E942D1A63EB74E08CEF91E00E94FF
:10450000E61B62E070E080E090E00E94DE1087EB46
:1045100096E00E94750DBC01990F880B990B0E94C3
:104520002D1A81EB94E00E941C1A62E070E080E09A
:1045300090E00E94DE1064E974E08CEF91E00E944C
:10454000E61B62E070E080E090E00E94DE108FE801
:1045500096E00E949A0B0E94651A62E070E080E08B
:1045600090E00E94DE1067E774E08CEF91E00E941B
:10457000E61B62E070E080E090E00E94DE1087E6DB
:1045800096E00E949A0B0E94651A62E070E080E05B
:1045900090E00E94DE1061E674E08CEF91E00E94F2
:1045A000E61B62E070E080E090E00E94DE100E9476
:1045B00018116B017C0130E1C30E37E2D31EE11C00
:1045C000F11C8CEF91E00E94200F892B11F50E94C5
:1045D0001811C616D706E806F90698F70E941811B2
:1045E0006B017C0140E1C40E47E2D41EE11CF11CCA
:1045F0008CEF91E00E94E21B6BE474E08CEF91E0A1
:104600000E94E61B62E070E080E090E00E94DE1015
:10461000D8CF0E94DC1A8B01CB010E94651A0230B0
:10462000110541F144F40130110589F4E0909C0535
:10463000F0909D0528C00330110521F004301105CC
:10464000F1F005C046ECE42E45E0F42E1CC080E4F9
:1046500094E00E941C1A62E070E080E090E00E940A
:10466000DE108CEF91E00E94E21B8CEF91E00E9443
:104670009E0FECC13EE9E32E35E0F32E04C02EEE92
:10468000E22E25E0F22E0E9418112B013C01A0E140
:104690004A0EA7E25A1E611C711C6BE274E08CEF9B
:1046A00091E00E94E61B62E070E080E090E00E94F2
:1046B000DE108CEF91E00E94200F892BC1F40E9444
:1046C0001811461657066806790698F70E941811C1
:1046D0002B013C01B0E14B0EB7E25B1E611C711C6B
:1046E0008CEF91E00E94E21B66E174E0D8CF0E945B
:1046F000DC1A1B012C016B01CB010E94651AB10170
:10470000032C000C880B990B0E942D1A63E074E0B7
:104710008CEF91E00E94E61B62E070E080E090E0A8
:104720000E94DE10E5EB2E16310408F45AC0C701D2
:104730000E949A0BBC01990F880B990B0E942D1AAD
:1047400081EF93E00E941C1A62E070E080E090E04C
:104750000E94DE106DED73E08CEF91E00E94E61B8D
:1047600062E070E080E090E00E94DE1060E0809106
:104770006A050E94721083E090E00197F1F761E012
:1047800080916A050E94721083E290E00197F1F730
:1047900060E080916A050E94721080916C05909192
:1047A0006D059927FC01E55BFC4F6491FC01E95C18
:1047B000FC4FE491F0E0EE0FFF1FE35DFC4F8591AD
:1047C000949103E61BE020E030E0462F0E940A1C93
:1047D000611571058105910579F560E070E0CB0107
:1047E00033C0C7010E949A0B3C018101081B190BC1
:1047F0000115110509F49BCF24F0FFEF6F1A7F0A12
:1048000003C021E0621A7108B301C7010E94DF0CE6
:104810008601061917090E9418111B012C013FE09F
:10482000230E311C411C511C0E9418116215730586
:1048300084059505C8F3DCCFDC01CB010196A11DF1
:10484000B11DBC01CD019F700E942D1A8CEF91E02B
:104850000E94E21B62E070E080E090E00E94DE10C7
:104860006DEC73E08CEF91E00E94E61B62E070E07B
:1048700080E090E00E94DE108FED96E00E94BB0D7C
:104880000E94651A62E070E080E090E00E94DE1015
:104890006DEB73E08CEF91E00E94E61B62E070E04C
:1048A00080E090E00E94DE1087EB96E00E94BB0D56
:1048B0000E94651A62E070E080E090E00E94DE10E5
:1048C0006DEA73E08CEF91E00E94E61B62E070E01D
:1048D00080E090E00E94DE1087E696E00E94BB0D2B
:1048E0000E94651A62E070E080E090E00E94DE10B5
:1048F00063EA73E08CEF91E00E94E61B62E070E0F7
:1049000080E090E00E94DE1080919C0590919D05D2
:104910000E94BB0D8C018EE995E00E94BB0D080F33
:10492000191F8EEE95E00E94BB0D800F911F0E9413
:10493000651A62E070E080E090E00E94DE1063E9BA
:1049400073E08CEF91E00E94E61B62E070E080E093
:1049500090E00E94DE108FED96E00E948E0D0E9486
:10496000651A62E070E080E090E00E94DE1063E88B
:1049700073E08CEF91E00E94E61B62E070E080E063
:1049800090E00E94DE1087EB96E00E948E0D0E9460
:10499000651A62E070E080E090E00E94DE1063E75C
:1049A00073E08CEF91E00E94E61B62E070E080E033
:1049B00090E00E94DE1087E696E00E948E0D0E9435
:1049C000651A62E070E080E090E00E94DE1069E627
:1049D00073E08CEF91E00E94E61B62E070E080E003
:1049E00090E00E94DE1080919C0590919D050E94B0
:1049F0008E0D8C018EE995E00E948E0D080F191F17
:104A00008EEE95E00E948E0D800F911F0E94651A18
:104A100062E070E080E090E00E94DE106FE573E0FD
:104A20008CEF91E00E94E61B62E070E080E090E095
:104A30000E94DE1086EC95E00E94750D0E94651ABA
:104A400062E070E080E090E00E94DE100E94C00F03
:104A50009CCCD8018C918F3209F049C0A696EEAD5E
:104A6000FFADA69780818F3209F02FCB3196A696A5
:104A7000FFAFEEAFA697F2CFA696EEADFFADA6972D
:104A80008081882331F121E0AE014F5B5F4FB70198
:104A9000CE0181960E94001581110BC0AE014F5BC3
:104AA0005F4FB701CE0181960E94A20A882309F4C4
:104AB00028CBFE01B196A32DB22D8D2D01900D9224
:104AC0008A95E1F7CE0181960E948C09E32CF22CA5
:104AD0000ACBAE014F5B5F4FB701CE0181960E94BA
:104AE000A20A882309F40DCB80E892E00CCB8AE37C
:104AF000E82E85E0F82EF5CA08952F923F924F9246
:104B00005F926F927F928F929F92AF92BF92CF925D
:104B1000DF92EF92FF920F931F93CF93DF9300D01A
:104B2000CDB7DEB71092FF011092FE0188EE882EFD
:104B300083E0982EA12CB12C809200029092010269
:104B4000A0920202B092030284E091E09093FD01F2
:104B50008093FC0185EC90E0909309028093080219
:104B600084EC90E090930B0280930A0280EC90E03A
:104B700090930D0280930C0281EC90E090930F02D1
:104B800080930E0282EC90E09093110280931002C9
:104B900086EC90E09093130280931202109215021B
:104BA00010921602109217021092180210929F0291
:104BB0001092A0021092A1021092A2021092A302DF
:104BC0001092A4021092A5021092A6021092A702BF
:104BD0001092A8021092A9021092AA021092AB029F
:104BE0001092AC021092AD021092AE028FEF9FE7CE
:104BF00090930C0780930B0790930E0780930D07FB
:104C00009093100780930F079093120780931107DA
:104C1000909308078093070790930A0780930907EA
:104C20008FED96E00E94020C1092E3061092E206CD
:104C300097E8E92EF12CF092E506E092E406109256
:104C4000E6061092E7061092E8061092E9068092B6
:104C5000EA069092EB06A092EC06B092ED06109256
:104C6000EE061092EF061092F0061092F106809276
:104C7000F2069092F306A092F406B092F50686E052
:104C800090E09093F7068093F6060AE510E0109303
:104C9000F9060093F80624EB30E03093FB062093EE
:104CA000FA06F092FD06E092FC068FE090E0909309
:104CB000FF068093FE06412C512C48E4642E42E40A
:104CC000742E409200075092010760920207709282
:104CD000030782E390E0909305078093040787EB36
:104CE00096E029833A830E94020CCC24C394D12CF1
:104CF000D092BB06C092BA068EE890E09093BD06B3
:104D00008093BC061092BE061092BF061092C00699
:104D10001092C1068092C2069092C306A092C40669
:104D2000B092C5061092C6061092C7061092C80629
:104D30001092C9068092CA069092CB06A092CC0629
:104D4000B092CD0689E090E09093CF068093CE0696
:104D500084E190E09093D1068093D00681E990E0C1
:104D60009093D3068093D2068FE590E09093D5067A
:104D70008093D4068EE090E09093D7068093D60679
:104D80004092D8065092D9066092DA067092DB06FD
:104D9000A2E3B0E0B093DD06A093DC068FE896E0D6
:104DA0000E94020C82E090E090939306809392061A
:104DB00010929506109294061092960610929706FD
:104DC000109298061092990680929A0690929B06ED
:104DD000A0929C06B0929D0610929E0610929F068D
:104DE0001092A0061092A1068092A2069092A306AD
:104DF000A092A406B092A50663E0262E312C309234
:104E0000A7062092A6061092A9061092A80629814C
:104E10003A813093AB062093AA06F092AD06E09259
:104E2000AC0683E690E09093AF068093AE06409286
:104E3000B0065092B1066092B2067092B30682E359
:104E400090E09093B5068093B40687E696E00E94C2
:104E5000020C30926B0620926A0610926D06109238
:104E60006C0610926E0610926F06109270061092E9
:104E700071068092720690927306A0927406B092A8
:104E800075061092760610927706109278061092A8
:104E9000790680927A0690927B06A0927C06B09268
:104EA0007D0685E090E090937F0680937E061093C8
:104EB0008106009380068CE890E0909383068093AF
:104EC0008206109385060093840680E190E090931B
:104ED00087068093860640928806509289066092E3
:104EE0008A0670928B06A2E3B0E0B0938D06A09381
:104EF0008C061092960510929705D0929905C09253
:104F0000980588E080939A0581E180939B058FED59
:104F100096E090939D0580939C0588E2E7EBF6E090
:104F2000AEE9B5E001900D928A95E1F788E2EFE8ED
:104F3000F6E0A6ECB5E001900D928A95E1F788E2E3
:104F4000E7E6F6E0AEEEB5E001900D928A95E1F766
:104F5000EEE1F6E08FEF9FE7918380839383828376
:104F60003496B6E0E634FB07B9F71092460688E0BF
:104F7000E7E4F6E0DF01282F1D922A95E9F7EFE438
:104F8000F6E0DF01282F1D922A95E9F7E7E5F6E024
:104F9000DF01282F1D922A95E9F7EFE5F6E0DF0102
:104FA0001D928A95E9F760E088E00E94721061E046
:104FB00088E00E94A21060E081E10E94A2108FEDC3
:104FC00096E0909317068093160687EB96E09093F1
:104FD0001906809318068FE896E090931B0680933D
:104FE0001A0687E696E090931D0680931C068AE5D4
:104FF00090E090936F0580936E0583E590E0909329
:1050000071058093700584E690E09093730580931A
:10501000720584E490E090937505809374058EE6A4
:1050200090E0909377058093760587E390E09093E6
:1050300079058093780588E790E090937B058093CD
:105040007A0582E390E090937D0580937C0582E869
:1050500090E090937F0580937E0588E290E09093A6
:105060008105809380058CE890E090938305809380
:1050700082058EE190E0909385058093840586E912
:1050800090E0909387058093860584E190E090936B
:1050900089058093880580EA90E090938B05809342
:1050A0008A0589E190E090938D0580938C058AEACA
:1050B00090E090938F0580938E058AE190E0909325
:1050C00091058093900524EB30E030939305209375
:1050D0009205909395058093940584E090E09093D9
:1050E0006B0580936A0587E090E090936D0580934F
:1050F0006C0561E084E00E94A21060E084E00E9400
:10510000721060E087E00E94A210109214031092C7
:105110003A0510923B0584E680935C051092610588
:1051200082E291E090935B0580935A0580E580933D
:105130006705109268051092EF021092F00210922B
:10514000EE021092ED0286E191E09093EC028093E2
:10515000EB0286E995E09093E8028093E7028AE605
:1051600095E09093EA028093E90282E18093E40261
:1051700012E01093E5020AE00093E60261E082E0AB
:105180000E94A21060E082E10E94A21083E180935D
:10519000E1021093E2020093E30261E082E00E94E8
:1051A000A21060E083E10F900F90DF91CF911F91EB
:1051B0000F91FF90EF90DF90CF90BF90AF909F90B6
:1051C0008F907F906F905F904F903F902F900C94B6
:1051D000A210FB01DC014150504048F005900D92B7
:1051E0000020C9F701C01D9241505040E0F70895DA
:1051F000BB274A3031F4992322F4BDE29095819582
:105200009F4F0C940429BB27FB015527AA27880F21
:10521000991FAA1FA41710F0A41B83955051B9F72A
:10522000A05DAA3308F0A95DA193009779F7B111A9
:10523000B1931192CB010C941D29DC01FC01672F65
:1052400071917723E1F7329704C07C916D9370835D
:105250006291AE17BF07C8F30895DB018F939F9348
:105260000E947E29BF91AF91A29F800D911DA39FA7
:10527000900DB29F900D11240895A1E21A2EAA1B41
:10528000BB1BFD010DC0AA1FBB1FEE1FFF1FA217F6
:10529000B307E407F50720F0A21BB30BE40BF50BF3
:1052A000661F771F881F991F1A9469F7609570957C
:1052B000809590959B01AC01BD01CF010895052E0D
:1052C00097FB1EF400940E94762957FD07D00E9498
:1052D0003D2907FC03D04EF40C9476295095409557
:1052E000309521953F4F4F4F5F4F08959095809592
:1052F000709561957F4F8F4F9F4F08950E94912920
:10530000A59F900DB49F900DA49F800D911D112419
:105310000895B7FF0C947E290E947E29821B930B6F
:105320000895A29FB001B39FC001A39F700D811D7E
:105330001124911DB29F700D811D1124911D08959E
:10534000991B79E004C0991F961708F0961B881FD7
:105350007A95C9F780950895AA1BBB1B51E107C038
:10536000AA1FBB1FA617B70710F0A61BB70B881FF5
:10537000991F5A95A9F780959095BC01CD01089584
:1053800097FB072E16F4009407D077FD09D00E94F2
:10539000AC2907FC05D03EF4909581959F4F089568
:1053A000709561957F4F0895EE0FFF1F0590F49162
:1053B000E02D099481E090E0F8940C94072AFB0119
:1053C000DC0104C08D910190801921F441505040BE
:1053D000C8F7881B990B0895FB01DC0102C00190FE
:1053E0000D9241505040D8F70895FB01DC010D901B
:1053F0000020E9F7119701900D920020E1F7089540
:10540000FB01DC0101900D920020E1F7089513E00B
:10541000C1E0D3E004C0FE010E94D4292196C2302D
:08542000D107C9F7F894FFCF92
:1054280000000000570FB11AEF0E9E0F200FFE0E5E
:10543800120F0000000059085608F9035C04000028
:105448000000C3118F115412564D4450565F317CE1
:10545800315F564D4450560D0A00433A5C5573650A
:1054680072735C7479626C755C41707044617461CC
:105478005C4C6F63616C5C54656D705C564D427535
:10548800696C64735C4175746F4D6F76655C5370BD
:1054980061726B46756E5F526564426F6172645CDF
:1054A80044656275675C4175746F4D6F76652E63F0
:1054B800707020636F6D70696C6564204E6F762024
:1054C800203620323031372061742031343A353576
:1054D8003A323500736F6E6172002E007478740072
:0A54E8002F546F706F4D6170730058
:00000001FF
