:100000000C94AC040C94D4040C94D4040C94D40438
:100010000C94D4040C94D4040C94D4040C94D40400
:100020000C94D4040C94D4040C94D4040C94460E74
:100030000C94D4040C94D4040C94D4040C94D404E0
:100040000C946F1B0C94D4040C94F6100C94D010E8
:100050000C94D4040C94D4040C94D4040C94D404C0
:100060000C94D4040C94D404EF15EC15F21501167D
:10007000F515F815FB15FE15041607160A160D16CC
:1000800000001100230034004600570069007A0088
:100090008B009C00AE00BF00D000E100F200030125
:1000A00014012401350146015601660177018701DB
:1000B0009701A701B601C601D501E501F4010302CC
:1000C000120221022F023E024C025A0268027502FD
:1000D000830290029D02AA02B702C302CF02DB0292
:1000E000E702F302FE02090314031F03290333038B
:1000F0003D0347035003590362036B0373037B0300
:1001000083038A03920399039F03A603AC03B203FC
:10011000B703BC03C103C603CA03CE03D203D6038D
:10012000D903DC03DE03E103E303E403E603E703AF
:10013000E703E803E8032C2000466F726365207331
:10014000656E736F727320636F6E66696775726533
:100150006420286E6F726D616C6C79206F66662901
:100160003A200053442063617264206D616C6675AF
:100170006E6374696F6E2E00534420636172642055
:1001800066696C657320696E697469616C697A650A
:10019000643A2000536572766F7320706F776572D2
:1001A0006564206F6E2E004175746F4D6F7665200B
:1001B0003A20007363616E466F724F626A28293A73
:1001C000205343414E5F4F424A5F48595354202DBC
:1001D0002D2D2D2D2D2D2D2D2D3E20004175746F93
:1001E0004D6F7665203A20007363616E466F724FE3
:1001F000626A28293A20736F6E6172446174612EBD
:100200006765745374644465762829202D2D3E203B
:10021000004175746F4D6F7665203A2000736361FD
:100220006E466F724F626A28293A20736F6E617250
:10023000446174612E6765744176672829202D2DED
:100240002D2D2D3E20004175746F4D6F7665203A3F
:1002500020007363616E466F724F626A28293A20EC
:10026000626173656C696E65202D2D2D2D2D2D2DF0
:100270002D2D2D2D2D2D2D2D3E20004175746F4DD2
:100280006F7665203A20007363616E466F724F622D
:100290006A28293A206E657720626173656C696E01
:1002A000652073657420746F20004175746F4D6F05
:1002B0007665203A20007363616E466F724F626A02
:1002C00028293A20736F6E6172446174612E7065E3
:1002D000656B2829202D2D2D2D2D2D2D3E20004103
:1002E00075746F4D6F7665203A20007363616E46BA
:1002F0006F724F626A28293A207475726E656420A5
:100300006F6E20706F776572004175746F4D6F76F8
:1003100065203A200072656C656173654F626A41C1
:100320007428293A2072656C656173696E67206F65
:10033000626A6563742E2E2E004175746F4D6F7660
:1003400065203A2000677269704F626A41742829FB
:100350003A20666F7263657320004175746F4D6F4C
:100360007665203A2000677269704F626A4174288E
:10037000293A206772616262696E67206F626A65FE
:1003800063742E2E2E004175746F4D6F7665203A82
:1003900020004F626A65637420666F756E642C205E
:1003A0006D6F76696E67206974206F666620746869
:1003B0006520706C6174666F726D2E2E2E00417513
:1003C000746F4D6F7665203A2000446964206E6F2B
:1003D0007420646574656374206F626A6563742E4B
:1003E00020436F6E74696E75696E6720746F207339
:1003F00063616E2E2E2E004175746F4D6F766520F1
:100400003A2000536572766F20706F7765722069AD
:1004100073207377697463686564206F6E20616E02
:100420006420776527726520726561647920746F36
:1004300020726F636B20616E6420726F6C6C2100A0
:10044000000000002300260029002C3058005344EF
:10045000206572726F72436F64653A203058004EA7
:100460006F20636172642C2077726F6E67206368FF
:1004700069702073656C6563742070696E2C206FE1
:1004800072205350492070726F626C656D3F00435B
:10049000616E277420616363657373205344206326
:1004A0006172642E20446F206E6F74207265666FD7
:1004B000726D61742E004E6F206572726F722066CD
:1004C0006F756E642E0043616E2774206F70656EC9
:1004D00020726F6F74206469726563746F72792E15
:1004E00000496E76616C696420666F726D61742C70
:1004F000207265666F726D61742053442E00000097
:100500000000240027002A00010204081020408077
:10051000010204081020010204081020040404044D
:10052000040404040202020202020303030303039D
:1005300073746172745363726970742829206661E0
:10054000696C656420617420465F4350552F0041FB
:1005500075746F4D6F76655344203A200073642E96
:100560006368646972282920746F20726F6F742029
:100570006661696C65642E004175746F4D6F7665B8
:100580005344203A20006865696768742C207261C2
:10059000646975732C2074686574612C20736F6EA8
:1005A0006172206D6561737572656D656E7400634F
:1005B0006C617720736572766F20616E676C652C55
:1005C00020636C61772061646A20616E676C652CC2
:1005D00020636C6177206865696768742C20636CA0
:1005E0006177207261646975732C0074757272652D
:1005F0006E7420736572766F20616E676C652C2057
:100600007475727265742061646A20616E676C65CE
:100610002C20747572726574206865696768742C23
:1006200020747572726574207261646975732C0030
:10063000626F6F6D3220736572766F20616E676CCA
:10064000652C20626F6F6D322061646A20616E6775
:100650006C652C20626F6F6D322068656967687405
:100660002C20626F6F6D32207261646975732C008B
:10067000626F6F6D3120736572766F20616E676C8B
:10068000652C20626F6F6D312061646A20616E6736
:100690006C652C20626F6F6D3120686569676874C6
:1006A0002C20626F6F6D31207261646975732C004C
:1006B000290020287261773A20005B7269676874AC
:1006C0005D2000292C200020287261773A20005BF1
:1006D0006C6566745D200000000000250028002B7A
:1006E00000000000080002010000030407000000F1
:1006F0000000000000293D006C6F67313028004188
:1007000075746F4D6F76655344203A2000293D0083
:10071000706F7728004175746F4D6F766553442074
:100720003A2000676574556E6971756546696C6538
:100730004E616D65496E64657828292066696E2072
:10074000202020202D2D3E2066696C656E616D6530
:10075000203D20004175746F4D6F76655344203AFB
:100760002000646F2D7768696C65206C6F6F702056
:1007700066696E697368656420202020202020202F
:100780002020202D2D3E2066696C656E616D6520F0
:100790003D20004175746F4D6F76655344203A20BB
:1007A000007374726361742866696C656E616D654F
:1007B0002C202230222920666F72206C6F6F7020EF
:1007C00020202D2D3E2066696C656E616D65203D93
:1007D00020004175746F4D6F76655344203A2000B8
:1007E0007374726370792866696C656E616D652CCF
:1007F0002070726566697829202020202020202022
:10080000202D2D3E2066696C656E616D65203D2052
:10081000004175746F4D6F76655344203A20006E29
:10082000756D6265724C656E6774683D2000417538
:10083000746F4D6F76655344203A2000696E64658D
:10084000784C656E677468203D20004175746F4D6B
:100850006F76655344203A20007072656669784C63
:10086000656E6774683D20004175746F4D6F7665E5
:100870005344203A2000696E6465784E756D626558
:1008800072203D20004175746F4D6F766553442092
:100890003A2000676574556E697175652E2E2E2895
:1008A00029203A2073642E636864697228292074B1
:1008B0006F20726F6F74206661696C65642E0041F1
:1008C00075746F4D6F76655344203A2000676574E8
:1008D000556E697175652E2E2E2829203A20736475
:1008E0002E6368646972282920746F20726F6F7498
:1008F000206661696C65642E004175746F4D6F767A
:10090000655344203A2000676574556E69717565BA
:1009100046696C654E616D65496E6465782829206D
:1009200066696E20287072656669784C656E6774BA
:1009300068203E203829202D2D3E2066696C656E8A
:10094000616D65203D20004175746F4D6F76655374
:1009500044203A200000DB2911241FBECFEFD8E04D
:10096000DEBFCDBF12E0A0E0B1E0E4EDF0E602C0F2
:1009700005900D92A230B107D9F727E0A2E0B2E0CE
:1009800001C01D92A43AB207E1F714E0CCEAD4E02A
:1009900004C02197FE010E942630CB3AD107C9F747
:1009A0000E9469240C9468300C9400008F929F92EE
:1009B000AF92BF92EF92FF921F93CF93DF93DC0130
:1009C0002C9120FF41C0EC017C01B7E0EB0EF11C43
:1009D000E981FA8180819181DC01ED91FC914B816B
:1009E0005C816D817E810480F581E02D9701099500
:1009F000182F811102C010E028C0888181FD04C039
:100A000088818E7F888321C0A981BA818D919C9134
:100A10001197FC01208131811C968D909D90AD90A5
:100A2000BC901F974B815C816D817E81480D591D63
:100A30006A1D7B1DD9011496ED91FC9115979701C4
:100A400009958111DDCFD7CF11E0812FDF91CF91B3
:100A50001F91FF90EF90BF90AF909F908F9008955F
:100A6000DC01ED91FC91119718966D917C9119978D
:100A70000084F185E02D0994DC01ED91FC91119742
:100A800018966D917C9119970480F581E02D099459
:100A900080E090E0089580E090E0089580E090E0AC
:100AA000089580E090E00895DC01ED91FC911197AC
:100AB00018966D917C9119970084F185E02D099429
:100AC000DC01ED91FC91119718966D917C9119972D
:100AD0000480F581E02D0994FC01868197810895B9
:100AE000FC01848195810895FC018481958108959C
:100AF000FC01828193810895FC0182819381089594
:100B00000895CF93DF9321E030E0E8E6F1E0C4EB15
:100B1000D0E0BF010E94123088599E4FBF010E9451
:100B200012308E3041E0940724F09195819591091F
:100B300005C0843B910534F08C549F4F319521952D
:100B40003109E7CF8B3591052CF0AE01481B590BCD
:100B5000CA01DFCFFC01EE0FFF1FE058FF4F859168
:100B60009491AC01249FC001259F900D349F900D5E
:100B70001124DF91CF910895CF93DF9300D000D05F
:100B8000CDB7DEB7FC012285338544855585CB0181
:100B9000865A9F4F29833A834B835C830E94810549
:100BA000DC0129813A814B815C810E94DB2F28EE98
:100BB00033E040E050E00E94B12FC9010F900F9048
:100BC0000F900F90DF91CF910895CF93DF9300D0D6
:100BD00000D0CDB7DEB7FC0122853385448555852D
:100BE000CB0129833A834B835C830E948105DC011E
:100BF00029813A814B815C810E94DB2F28EE33E012
:100C000040E050E00E94B12FC9010F900F900F906B
:100C10000F90DF91CF9108958F929F92AF92BF92E4
:100C2000EF92FF92CF93DF9300D000D0CDB7DEB725
:100C30007C01CB01F70120893189428953892983BD
:100C40003A834B835C830E948105DC0129813A81D0
:100C50004B815C810E94DB2F28EE822E23E0922EB6
:100C6000A12CB12CA50194010E94B12FF70184851C
:100C70009585A685B785280F391F4A1F5B1F82857A
:100C80009385865A9F4F29833A834B835C830E94C6
:100C90008105DC0129813A814B815C810E94DB2F37
:100CA000A50194010E94B12FC9010F900F900F90E0
:100CB0000F90DF91CF91FF90EF90BF90AF909F90FA
:100CC0008F9008958F929F92AF92BF92EF92FF9272
:100CD000CF93DF9300D000D0CDB7DEB77C01CB013E
:100CE000F701208931894289538929833A834B83CB
:100CF0005C830E948105DC0129813A814B815C8102
:100D00000E94DB2F28EE822E23E0922EA12CB12C04
:100D1000A50194010E94B12FF70184859585A685D0
:100D2000B785280F391F4A1F5B1F8285938529834A
:100D30003A834B835C830E948105DC0129813A81DF
:100D40004B815C810E94DB2FA50194010E94B12F91
:100D5000C9010F900F900F900F90DF91CF91FF90EE
:100D6000EF90BF90AF909F908F90089581E008958D
:100D7000089580E090E00895EF92FF921F93CF9343
:100D8000DF9300D000D0CDB7DEB77C01162F2983CA
:100D90003A834B835C83FC018581811103C0C701C9
:100DA0000E94331D0E941A21812F80640E94B91B6A
:100DB0008C810E94B91B8B810E94B91B8A810E9481
:100DC000B91B89810E94B91B112311F087E801C06A
:100DD00085E90E94B91B1C3011F40E94BE1B10E073
:100DE0000E94BE1BF701868387FF04C01F3F11F0DE
:100DF0001F5FF6CF0F900F900F900F90DF91CF9164
:100E00001F91FF90EF9008950F931F93CF93DF935F
:100E1000EC0189018F81833039F089E0440F551F3F
:100E2000661F771F8A95D1F79A01AB0161E1CE0168
:100E30000E94BC06882319F080E38A830BC0B801A6
:100E4000CE010E942E23182F882321F0CE010E946C
:100E5000C51B04C0CE010E94C51B10E0812FDF918D
:100E6000CF911F910F910895CF92DF92EF92FF9251
:100E70001F93CF93DF93EC016A017B01122F8B81CB
:100E80009C81AD81BE8184179507A607B70719F12C
:100E9000CE010E94D604811103C080E090E021C001
:100EA00012FF06C01882CB82DC82ED82FE8213C064
:100EB000E981FA8180819181DC01ED91FC910190C1
:100EC000F081E02D9E01295F3F4FB701A6010995F2
:100ED0008111E8CFE2CF13708881182B1883CE01DF
:100EE0000796DF91CF911F91FF90EF90DF90CF9009
:100EF00008958F929F92AF92BF92CF92DF92EF921E
:100F0000FF920F931F936A017B0148015901FC0175
:100F10002581203251F54489558966897789970161
:100F20008601E7E03695279517950795EA95D1F75D
:100F3000400F511F621F731F23E084960E943407E5
:100F4000009711F480E02DC0E894C7F8DD24EE246A
:100F5000FF24CC0CDD1CCC0CDD1CFC01EC0DFD1DBC
:100F600080829182A282B3821BC0203159F7FC019A
:100F700044895589668977894D0D511D611D711D03
:100F800023E084960E9434070097E1F2DD24EE24EA
:100F9000FF24CC0CDD1CFC01EC0DFD1D9182808238
:100FA00081E01F910F91FF90EF90DF90CF90BF9065
:100FB000AF909F908F900895CF92DF92EF92FF9223
:100FC0000F931F93CF93DF93EC016A017B0189019B
:100FD0008D81803251F58C899D89AE89BF89E7E08A
:100FE0007695679557954795EA95D1F7480F591F1C
:100FF0006A1F7B1F22E0CE0184960E94340700976F
:1010000011F48FEF40C0E894C7F8DD24EE24FF24EC
:10101000CC0CDD1CCC0CDD1CFC01EC0DFD1D80811D
:101020009181A281B381BF701DC0803151F74C897D
:101030005D896E897F894D0D511D611D711D22E0F5
:10104000CE0184960E9434070097D9F2DD24EE2465
:10105000FF24CC0CDD1CFC01EC0DFD1D8081918179
:10106000A0E0B0E0488D598D6A8D7B8D48175907F7
:101070006A077B0738F0F80180839183A283B383EA
:1010800081E001C080E0DF91CF911F910F91FF902F
:10109000EF90DF90CF9008956115710579F0FB0115
:1010A00001900020E9F73197AF01461B570BDC0197
:1010B000ED91FC910280F381E02D099480E090E0B5
:1010C00008950F931F93CF93DF93DC012C9121118F
:1010D00002C081E051C0EC018A8187FF35C04C8994
:1010E0005D896E897F898E819F8121E084960E942F
:1010F00034070097E9F1EC81FD81EF70FF2725E0CF
:10110000EE0FFF1F2A95E1F7DC01AE0FBF1F2C91F8
:10111000253E71F1288123FF0AC0488D598D6A8DC3
:101120007B8D5C964D935D936D937C935F974C8D17
:101130005D8D6E8D7F8DE80FF91F538F428F758BFC
:10114000648B8A818F778A830E811F81C801849680
:101150000E94D604882361F0F80180819181DC012E
:10116000ED91FC910280F381E02D09958111B1CFC1
:1011700089818160898380E0DF91CF911F910F91F8
:10118000089504960C9461084F925F926F927F923B
:101190008F929F92AF92BF92CF92DF92EF92FF9287
:1011A0000F931F93CF93DF93EC014A015B014C84B3
:1011B0005D846E847F84A881AA2309F491C0488944
:1011C00059896A897B8984169506A606B70609F4AB
:1011D0008DC081149104A104B10429F41C861D86DC
:1011E0001E861F8678C0A3FF0BC0088D198D2A8D1F
:1011F0003B8D081519052A053B0508F471C014C07C
:10120000A5FF12C0EE81FF818681978125E0880FBE
:10121000991F2A95E1F7A0E0B0E088159905AA0585
:10122000BB0508F45DC057C0EE81FF81848190E06A
:1012300009968A019B010150110921093109082EE3
:1012400004C036952795179507950A94D2F775012E
:101250006401B1E0CB1AD108E108F10804C0F694AA
:10126000E794D794C7948A95D2F7C016D106E206C0
:10127000F30620F0452B462B472B81F4A6FF05C033
:10128000848D958DA68DB78D04C08C8D9D8DAE8D72
:10129000BF8D8C879D87AE87BF8704C0C01AD10AD7
:1012A000E20AF30A8E01045F1F4FC114D104E10466
:1012B000F10489F04C855D856E857F8598018E816E
:1012C0009F810E94DC0791E0C91AD108E108F1086A
:1012D00018165CF305C0888A998AAA8ABB8A06C058
:1012E0004C865D866E867F8680E001C081E0DF915E
:1012F000CF911F910F91FF90EF90DF90CF90BF9013
:10130000AF909F908F907F906F905F904F900895D7
:10131000CF92DF92EF92FF920F931F93CF93DF93C1
:10132000EC01862F488959896A897B898A019B014A
:10133000E5E03695279517950795EA95D1F7102F93
:101340001F7011F0811151C098819923D9F18A81C0
:1013500080FF38C093FF63C0C88CD98CEA8CFB8CAB
:10136000C41AD50AE60AF70A22E0C216D104E1043B
:10137000F10408F44EC09A01317095FD61C0EE8110
:10138000FF8103816A017B0189E0F694E794D79499
:10139000C7948A95D1F70C21232B09F07EC0011147
:1013A0007CC0452B462B472B09F45CC04C855D85E2
:1013B0006E857F859E01245F3F4FCF010E94DC0731
:1013C00087FF60C08981826089838FEF9FEF0197DB
:1013D000E9F488899989AA89BB894F96A11DB11D15
:1013E000888B998BAA8BBB8B08C0405E5F4F6F4F79
:1013F0007F4F488B598B6A8B7B8B8E819F818B961D
:1014000020E2129F800D911D112480C080E090E0A9
:101410007DC0CD28CE28CF2809F0ADCF0EC095FFD6
:10142000AACFEE81FF818681978125E0880F991FE1
:101430002A95E1F78417950719F480E090E061C0E0
:1014400099E076956795579547959A95D1F7EE81EE
:10145000FF81848D958DA68DB78D480F591F6A1F0A
:101460007B1F39C096FF05C0848D958DA68DB78DE5
:1014700004C08C8D9D8DAE8DBF8D8C879D87AE8772
:10148000BF870BC0811109C08881807709F49ACF8A
:1014900081E090E021E030E036C0EE81FF814C85B4
:1014A0005D856E857F85425051096109710904800F
:1014B00004C0440F551F661F771F0A94D2F7808916
:1014C0009189A289B389480F591F6A1F7B1F400F5A
:1014D000511D611D711D8E819F8120E084960E94A7
:1014E0003407892B09F46ECF88899989AA89BB8929
:1014F0000196A11DB11D888B998BAA8BBB8B81E0B6
:1015000090E020E030E0821B930B61CFDF91CF9120
:101510001F910F91FF90EF90DF90CF900895FC0105
:101520008081811114C080E2DF01982F1D929A956D
:10153000E9F777836683DB0115969C91903119F06A
:10154000903229F480E4808381E08283089580E0F2
:1015500008953F924F925F926F927F928F929F92E7
:10156000AF92BF92CF92DF92EF92FF920F931F93B1
:10157000CF93DF93CDB7DEB728970FB6F894DEBFD1
:101580000FBECDBF4C01DC0112968C911297806882
:1015900012968C9312971C964D905D906D907C9056
:1015A0001F971696AD90BC90179741145104610493
:1015B000710461F4D50118968D919D910D90BC91A7
:1015C000A02D8D839E83AF83B88704C04D825E8239
:1015D0006F827886CD80DE80EF80F884BFEFCB1AF3
:1015E000DB0AEB0AFB0AF501808D918DA28DB38D8C
:1015F0008C159D05AE05BF0528F482E0C82ED12CC0
:10160000E12CF12C9E012F5F3F4FB701A601C501D0
:101610000E94DC0787FD20C0882341F089819A81E0
:10162000AB81BC81892B8A2B8B2B51F08D819E81C4
:10163000AF81B885C816D906EA06FB0679F60CC054
:101640000FEF1FEF2FEF3FE0B701A601C5010E948A
:101650007907382E811102C0312C2BC0411451045E
:101660006104710451F097018601B301A201C50123
:101670000E947907811108C0EFCFD5011896CD924D
:10168000DD92ED92FC921B97F50180A191A1A2A1A0
:10169000B3A1B7FD07C00197A109B10980A391A328
:1016A000A2A3B3A3D4011C96CD92DD92ED92FC923D
:1016B0001F97832D28960FB6F894DEBF0FBECDBFBF
:1016C000DF91CF911F910F91FF90EF90DF90CF901E
:1016D000BF90AF909F908F907F906F905F904F9052
:1016E0003F9008952F923F924F925F926F927F9218
:1016F0008F929F92AF92BF92CF92DF92EF92FF9222
:101700000F931F93CF93DF93EC015B014A01888114
:1017100083FF0EC08A8181FF0BC082FF0FC0488DFE
:10172000598D6A8D7B8DCE010E94C408811106C03F
:101730008981816089838FEF9FEF0DC1A40160E0F3
:1017400070E088899989AA89BB8980959095A09530
:10175000B09584179507A607B70750F364011E01DB
:101760008CE0280E311C088919892A893B89C1140B
:10177000D10409F4D5C08E819F81B901A80129E067
:1017800076956795579547952A95D1F7DC0113967D
:10179000FC90F4221170F11034C00115110589F587
:1017A0004C855D856E857F85411551056105710507
:1017B00069F091010E94DC0787FDBACF811121C039
:1017C000CE010E94A90A81111CC0B2CF8C8D9D8DC3
:1017D000AE8DBF8D0097A105B10579F4CE010E94B1
:1017E000A90A882309F4A4CF8C859D85AE85BF8581
:1017F0008C8F9D8FAE8FBF8F04C08C879D87AE87E7
:10180000BF87EE81FF814C855D856E857F85425067
:10181000510961097109048004C0440F551F661FF6
:10182000771F0A94D2F780899189A289B389480FDA
:10183000591F6A1F7B1F4F0D511D611D711D011521
:10184000110521F4C114B2E0DB06B0F580E092E0AE
:10185000801B910B76018C159D0508F47C01011508
:10186000110579F4488859886A887B88888D998D14
:10187000AA8DBB8D481659066A067B0610F025E036
:1018800001C021E0CF0184960E943407009709F43B
:101890004FCFA701B501800F911F0E943E300E0D62
:1018A0001F1D0115124059F58E819F8184960E945B
:1018B000D604811124C03CCF87A190A5A1A5B2A5D3
:1018C00084179507A607B70741F414A28FEF9FEF7F
:1018D000DC0187A390A7A1A7B2A7EE81FF81808139
:1018E0009181DC01ED91FC910480F581E02D950161
:1018F0000995882309F41CCFE12C82E0F82E888911
:101900009989AA89BB898E0D9F1DA11DB11D888B48
:10191000998BAA8BBB8BAE0CBF1CCE18DF0823CFD4
:10192000888D998DAA8DBB8D80179107A207B3076B
:1019300038F4088F198F2A8F3B8F8A8180688A83B9
:101940008A8183FD02C0C40106C0CE010E946108E5
:101950008111F9CFEDCEDF91CF911F910F91FF90C3
:10196000EF90DF90CF90BF90AF909F908F907F903F
:101970006F905F904F903F902F90089504960C9435
:10198000720BCF93DF931F92CDB7DEB7698341E02F
:1019900050E0BE016F5F7F4F04960E94720B0F9064
:1019A000DF91CF9108958F929F92AF92BF92CF9285
:1019B000DF92EF92FF92FC01828128E532E069011B
:1019C000C81AD10887FDD394CC0CDD1CCC0CDD1CCF
:1019D0000D2C000CEE08FF08818128E830E0490159
:1019E000881A910887FD9394880C991C880C991C7F
:1019F000092C000CAA08BB0880818F3FC1F090E041
:101A0000FC01EE0FFF1F8E0F9F1FFC01EB5FFD4FD0
:101A10002181328143E0220F331F4A95E1F754E0E0
:101A2000369527955A95E1F72E5F3F4F02C020E08B
:101A300030E02F5F3F4FC901330FAA0BBB0B9C0156
:101A4000AD01281939094A095B09A4EBB0E00E94ED
:101A5000D02FA7019601281939094A095B090E946C
:101A6000B12FC901FF90EF90DF90CF90BF90AF9062
:101A70009F908F900895CF93DF93EC010E94D30C39
:101A800029853A854B855C85DC010E94DB2F6C50F3
:101A90007E4F8F4F9F4F28EE33E040E050E00E9492
:101AA000B12F8D819E81AF81B885820F931FA41FB6
:101AB000B51FDF91CF910895CF93DF93EC01CB0158
:101AC0000E943B0DBC0199878887E881F9810480D9
:101AD000F581E02DCE0109959B838A83E881F98108
:101AE000688579850084F185E02DCE0109959D8377
:101AF0008C83DF91CF910895CF93DF93EC01CB01DD
:101B00000E943B0D9F838E83DF91CF910895CF93E9
:101B1000DF93EC01CB010E943B0DBC0199878887C4
:101B2000E881F9810084F185E02DCE0109959D833E
:101B30008C83E881F981688579850480F581E02DC1
:101B4000CE0109959B838A83DF91CF910895CF922F
:101B5000DF92EF92FF92CF93DF93EC01603282E04D
:101B600078070CF03DC077FD06C0653B71052CF091
:101B700064EB70E002C060E070E0898128E830E04A
:101B80006901C81AD10887FDD394CC0CDD1CCC0C9C
:101B9000DD1C0D2C000CEE08FF088A8128E532E0E0
:101BA000281B310987FD3395220F331F220F331F66
:101BB000C901330FAA0BBB0B9C01AD012C193D09C8
:101BC0004E095F09DB010E94DB2F24EB30E040E08F
:101BD00050E00E94B12FC20ED31EE41EF51EB601C6
:101BE00088818C3080F5998148E850E0491B510983
:101BF00097FD5395440F551F440F551F64177507E4
:101C000084F09A8128E532E0291B310997FD33954C
:101C1000220F331F220F331FAB01261737070CF497
:101C2000A90142505109440F551F2FB7F89490E075
:101C3000FC01EE0FFF1F8E0F9F1FFC01EB5FFD4F9E
:101C4000528341832FBFDF91CF91FF90EF90DF90C0
:101C5000CF900895FC01909103029C30A0F481E0A4
:101C6000890F809303029083892F90E0FC01EE0F8F
:101C7000FF1F8E0F9F1FFC01EB5FFD4F88EB9BE06A
:101C80009283818308958FEF808308951F920F922E
:101C90000FB60F9211242F933F934F935F936F933F
:101CA0007F938F939F93AF93BF93EF93FF93809115
:101CB000020287FF05C010928500109284001BC0AD
:101CC00020910202022E000C330B8091030290E05F
:101CD0002817390784F480910202082E000C990B12
:101CE000FC01EE0FFF1F8E0F9F1FFC01EB5FFD4FEE
:101CF000808186FD15C0809102028F5F8093020271
:101D000020910202022E000C330B8091030290E01E
:101D100028173907C4F4809102028C3064F113C093
:101D200080910202082E000C990BFC01EE0FFF1FA0
:101D30008E0F9F1FFC01EB5FFD4F808160E08F7372
:101D40000E94A61AD8CF80918400909185000496B5
:101D500080349C4918F480E49CE905C0809184009B
:101D600090918500049690938900809388008FEF6E
:101D7000809302023BC020918400309185008091C5
:101D80000202082E000C990BFC01EE0FFF1F8E0FB4
:101D90009F1FFC01EB5FFD4F81819281820F931F9A
:101DA000909389008093880080910202082E000C95
:101DB000990BFC01EE0FFF1F8E0F9F1FFC01EB5FC5
:101DC000FD4F808186FF12C080910202082E000C18
:101DD000990BFC01EE0FFF1F8E0F9F1FFC01EB5FA5
:101DE000FD4F808161E08F730E94A61AFF91EF91F1
:101DF000BF91AF919F918F917F916F915F914F9123
:101E00003F912F910F900FBE0F901F9018950F9339
:101E10001F93CF93DF93EC01488159816A817B81C5
:101E20008C819D81AE81BF81840F951FA61FB71F36
:101E30000196A11DB11D488559856A857B858C0158
:101E40009D01040F151F261F371FC901B80123E08C
:101E500030E040E050E00E948F2F2C873D874E8776
:101E60005F8781E0888BDF91CF911F910F9108955B
:101E70004F925F926F927F928F929F92AF92BF929A
:101E8000CF92DF92EF92FF92CF93DF93EC0188899C
:101E9000811103C0CE010E94070F4C845D846E84C3
:101EA0007F84FE015E018CE0A80EB11CC12CD12CF8
:101EB000760181919191A191B191BC01CD016419FB
:101EC0007509860997099B01AC010E947F2FC60EF8
:101ED000D71EE81EF91EEA15FB0559F7C701B60122
:101EE0006F5F7F4F8F4F9F4F23E030E040E050E027
:101EF0000E94B12F49015A012115310541055105B3
:101F0000B1F1233031054105510598F169017A019C
:101F100021E030E040E050E0D701C601821B930B86
:101F2000A40BB50B0297A105B105F0F0C20ED31EAC
:101F3000E41EF51E8FEFC81AD80AE80AF80AF694CC
:101F4000E794D794C794D701C601B695A7959795FE
:101F50008795BC01CD01680D791D8A1D9B1DA701C8
:101F600096010E948F2FD8CFB601C70106C060E04E
:101F700001C061E070E080E090E0DF91CF91FF90E0
:101F8000EF90DF90CF90BF90AF909F908F907F9019
:101F90006F905F904F900895FC01DB0184E991E020
:101FA0009183808312968D919C9113979383828362
:101FB00014968D919C9115979583848316968D9197
:101FC0009C9117979783868318968D919C9119976A
:101FD0009187808708958F929F92AF92BF92CF9200
:101FE000DF92EF92FF920F931F93CF93DF938C01B9
:101FF000DC011F96ED90FC9050976E157F054CF01C
:1020000051968D919C9152977B01861797070CF4FE
:102010007C01C8010E94D30CEC016701CC1ADD0AD7
:10202000D9F00E94631B4B015C01BFE08B0E911C39
:10203000A11CB11C0E94631B681579058A059B05CC
:10204000C8F31C141D0414F4219601C02197BE018D
:10205000C8010E94A70DE1CFF80183819481DC01C2
:10206000ED91FC910190F081E02DB801DF91CF91CD
:102070001F910F91FF90EF90DF90CF90BF90AF90A6
:102080009F908F9009940F931F93CF93DF938C01B0
:10209000EB010E94D30CBC016C0F7D1FC801DF91C6
:1020A000CF911F910F910C94EB0F8F929F92AF9253
:1020B000BF92DF92EF92FF920F931F93CF93DF9324
:1020C0008C01FC0181810E947D1ADD24D39401974B
:1020D00051F0D12C61E0F80181810E94A61A83E0C1
:1020E00090E00197F1F70E94631B4B015C01F4E65D
:1020F0008F0E911CA11CB11CE12CF12CC0E0D0E092
:10210000F80180810E94121BF80122813381281777
:10211000390740F4248135818217930718F4E80EBB
:10212000F91E2196C233D10538F40E94631B68154D
:1021300079058A059B0520F3BE01660F771F660FA0
:10214000771F6115710549F0CB01969587958E0D26
:102150009F1D0E94FE2FC62F01C0C0E0D11009C0F4
:1021600060E0F80181810E94A61A83E090E0019767
:10217000F1F78C2FDF91CF911F910F91FF90EF908E
:10218000DF90BF90AF909F908F90089585E392E08D
:102190000E948D1921E0892B09F420E0822F0895F7
:1021A0001F920F920FB60F9211242F933F934F93CC
:1021B0005F936F937F938F939F93AF93BF93EF93AF
:1021C000FF9385E392E00E94F319FF91EF91BF9195
:1021D000AF919F918F917F916F915F914F913F91BF
:1021E0002F910F900FBE0F901F9018951F920F9276
:1021F0000FB60F9211242F938F939F93EF93FF931A
:10220000E0914502F09146028081E0914B02F0910D
:102210004C0282FD12C0908180914E028F5F8F73BD
:1022200020914F02821751F0E0914E02F0E0EB5CFA
:10223000FD4F958F80934E0201C08081FF91EF91F9
:102240009F918F912F910F900FBE0F901F90189517
:10225000CF93DF93C1EDD5E08A899B89DC01ED91B5
:10226000FC916A857B850190F081E02D09958C8930
:102270009D89DC01ED91FC916C857D850190F0815B
:10228000E02D09958E899F89DC01ED91FC916E8589
:102290007F850190F081E02D0995888D998DDC0175
:1022A000ED91FC91688979890190F081E02D099583
:1022B0004A895B89AC89BD89688D798DFA01228153
:1022C000338112968D919C911397820F931FFB017E
:1022D00022813381820F931F9B838A83FA01248199
:1022E000358114968D919C911597820F931FDB0178
:1022F00014962D913C911597820F931F9D838C838B
:10230000EE89FF89868197819F838E83DF91CF91AC
:1023100008954F925F926F927F928F929F92AF92A9
:10232000BF92CF92DF92EF92FF920F931F93CF93C2
:10233000DF937C0180916506909166060E94D30C24
:102340008C0180916706909168060E94D30CEC0185
:102350000E94631B4B015C0128E8820E23E1921E60
:10236000A11CB11C78E8472E73E1572E612C712C0B
:10237000E091D305F091D405D70112966D917C912F
:1023800013979F01261B370B37FF03C0319521950B
:1023900031098091D5059091D605D70114964D91BC
:1023A0005C911597841B950B97FF03C091958195C0
:1023B0009109A901480F591F8091D7059091D8051F
:1023C000D70116962D913C911797821B930B97FF7F
:1023D00003C0919581959109840F951F03970CF483
:1023E0004BC114141504160417040CF045C1E6176C
:1023F000F707C4F5E0916706F09168068189928934
:10240000C817D9077CF52196BE0180916706909187
:1024100068060E94EB0F0E9428110E94631BD701DF
:1024200012962D913C9113974091D3055091D4056C
:1024300042175307BCF4E0916706F09168062189C2
:102440003289AE014F5F5F4F421753075CF4A5011D
:102450009401261B370B480B590B12161306140652
:1024600015068CF2D70114962D913C911597809109
:10247000D5059091D60528173907BCF5E09165067A
:10248000F0916606878590898017910774F5015051
:102490001109B80180916506909166060E94EB0FC4
:1024A0000E9428110E94631BF7012481358140910D
:1024B000D5055091D60524173507BCF4E091650683
:1024C000F091660627853089A801415051092417EB
:1024D00035075CF4A5019401261B370B480B590BFB
:1024E000121613061406150694F2D70116962D91AE
:1024F0003C9117978091D7059091D80528173907F7
:1025000009F440C0C0906906D0906A06281B390BB8
:10251000A901330F660B770BF60185819681A781A0
:10252000B0859A01AB01281B390B4A0B5B0BA8EE57
:10253000B3E00E94D02F21853285438554852B013D
:102540003C01F4EF4F1AF1E05F0A61087108DA010B
:10255000C90157FF07C088279927DC01821B930B0D
:10256000A40BB50BB595A79597958795BC01CD01A3
:10257000640D751D861D971D0E94B12FB901C601FE
:102580000E944310D70112962D913C911397809190
:10259000D3059091D405821793075CF48091670668
:1025A00090916806FC0121893289C217D3070CF487
:1025B0004DC0D70114962D913C9115978091D5056A
:1025C0009091D6052817390754F4809165069091AB
:1025D0006606FC012785308920173107E4F1D70111
:1025E00012962D913C9113978091D3059091D4052B
:1025F0002817390754F48091670690916806FC010A
:10260000278530892C173D0764F1D70114962D9149
:102610003C9115978091D5059091D6058217930727
:1026200054F48091650690916606FC0121893289F7
:1026300002171307DCF00E9428110E94631B24017B
:102640003501461A570A680A790A92CE2196BE01C8
:102650000E94EB0FAECF01501109B8010E94EB0FA1
:10266000BECF2197BE010E94EB0FCFCF0F5F1F4F50
:10267000B8010E94EB0FDFCFDF91CF911F910F9137
:10268000FF90EF90DF90CF90BF90AF909F908F9092
:102690007F906F905F904F9008952F923F924F924E
:1026A0005F926F927F928F929F92AF92BF92CF92E2
:1026B000DF92EF92FF920F931F93CF93DF937C01F2
:1026C0007AEC272E75E0372EEAE0CE2EF2E5DF2EEB
:1026D000D3E047010F2C000CAA08BB0860E070E0B3
:1026E00081E59AE4A50194010E948F2FC0E080E06B
:1026F00092E1AAE7B0E0281739074A075B0740F4E0
:10270000B695A79597958795CF5FC630A1F7C7E097
:102710001092C9051092C2051092BF051092C4050F
:102720003092C1052092C0050E94631B8B0160900E
:10273000C0057090C105F301C28261E08AE00E9489
:10274000D61A61E0F30182810E94A61A7FB6F8943E
:1027500080912902811127C0E6E2F5E09491E2E13F
:10276000F5E08491E92FF0E0EE0FFF1FE250FB4F00
:10277000A591B4919C91892321F461E08AE00E94A3
:10278000A61A61E08AE00E94D61A8CB580618CBDE1
:102790008CB580648CBD61E08DE00E94D61A61E04A
:1027A0008BE00E94D61A809129028F5F80932902C4
:1027B0007FBEE091C005F091C105D08211828DEB02
:1027C00095E00E94331DE091C005F091C10561E0E4
:1027D00082810E94A61A3AE0732E8FEF0E94B91BE5
:1027E0007A947110FACFE091C005F091C10560E0D4
:1027F00082810E94A61A20E030E0A90160E08DEB02
:1028000095E00E94BC06813049F00E94631B601B6A
:10281000710B613D774078F380E25AC02AEA31E0DB
:1028200040E050E068E08DEB95E00E94BC0685300A
:1028300011F481E00CC024E0722E0E94BE1B809334
:10284000C3057A947110F9CF8A3A59F482E08093E3
:10285000C4058091C405823069F0412C512C3201AD
:102860000EC00E94631B601B710B613D7740B0F28C
:1028700085E22EC0412C512C612C90E4792E20E071
:1028800030E0A90167E38DEB95E00E94BC06A3014F
:10289000920169E28DEB95E00E94BC06882349F025
:1028A0000E94631B601B710B613D774040F383E422
:1028B0000FC08091C4058230F9F420E030E0A90116
:1028C0006AE38DEB95E00E94BC06882341F087E324
:1028D0008093BF058DEB95E00E94C51B48C00E9408
:1028E000BE1B807C803C11F4D093C4050E94BE1BAB
:1028F0000E94BE1B0E94BE1B81E0C8278DEB95E0A5
:102900000E94C51BE091C005F091C1058C2F806A23
:1029100086958083C170C1838DEB95E0909373039E
:10292000809372038DE995E00E94610810929D05E5
:1029300081E00E94E01F882349F062E773E08DE99F
:1029400095E00E948F0A882391F006C080E00E94E3
:10295000E01F8111F2CF0BC090919D05907739F067
:102960002DE935E030932B0220932A0272C06FE4E8
:1029700075E085E392E00E94EE2360E375E085E375
:1029800092E00E94EE23B501A40185E392E00E944B
:10299000F01685E392E00E94BB2362E070E080E0E5
:1029A00090E00E94291BF1E2EF16F1041CF4EE0CFA
:1029B000FF1C8FCE8091BF058823B1F16FE874E0D2
:1029C00085E392E00E9412248091BF05803231F4A9
:1029D0006FE574E085E392E00E9412248091BF05C8
:1029E0008823B1F16EE474E085E392E00E94EE2367
:1029F0004091BF0550E060E070E020E185E392E0A7
:102A00000E9472236AE474E085E392E00E94EE2360
:102A10004091C30550E060E070E020E130E085E3E4
:102A200092E00E94BF2314C080917703811103C0FC
:102A300061EE74E009C080919D05811103C066ECD0
:102A400074E002C066EB74E085E392E00E94122419
:102A500080E0DF91CF911F910F91FF90EF90DF9079
:102A6000CF90BF90AF909F908F907F906F905F902E
:102A70004F903F902F900895809163060E947D1A99
:102A8000019769F061E0809163060E94A61A68ECE4
:102A900070E080E090E00E94291B0C9428110895BA
:102AA000DF92EF92FF920F931F93CF93DF930DE688
:102AB00016E04CE0F42E52E0E52ED801CD91DD91E8
:102AC0008D012881822F90E0FC01EE0FFF1F8E0FF9
:102AD0009F1FFC01EB5FFD4F808186FD5DC0DD84A3
:102AE0002C3008F04FC061E08D2D0E94D61A8881ED
:102AF000E82FF0E09F01220F331FE20FF31FEB5F7F
:102B0000FD4F9D2D9F732081207CD22ED92AD0820B
:102B100019821A826F2D0E94F22FBCE08B9FB001A8
:102B2000112440E050E09A01260F371FF901EE0F03
:102B3000FF1F2E0F3F1FF901EB5FFD4F908196FDA8
:102B400015C04F5F5F4F4C30510569F781110EC0C2
:102B500010928000E0928100109285001092840013
:102B6000B19A80916F00826080936F00E881F0E0FD
:102B7000CF01880F991FE80FF91FEB5FFD4F808190
:102B8000806480838B819C81DC01ED91FC910190BC
:102B9000F081E02DBE010995B6E005371B0709F06D
:102BA0008CCFDF91CF911F910F91FF90EF90DF902D
:102BB0000895CF93DF93CDB7DEB72A970FB6F89479
:102BC000DEBF0FBECDBF01978C30910580F58C5CC8
:102BD0009F4FFC010C94263065EF75E020C06BEE32
:102BE00075E01DC06FEF75E01AC063E176E017C0B5
:102BF0006DE176E014C067E276E011C061E376E053
:102C00000EC069E076E00BC06BE376E008C065E4D7
:102C100076E005C06FE476E002C069E576E0CE01BB
:102C200001960E94CC0FCE0101960E9489112A962E
:102C30000FB6F894DEBF0FBECDBFDF91CF910895E0
:102C40008F929F92AF92BF92CF92DF92EF92FF92BC
:102C50000F931F93CF93DF93CEE1D0E0812C912C83
:102C6000540193E0E92EF12C23E2C22ED12C60E036
:102C70008091CD050E94A61AC7010197F1F761E086
:102C80008091CD050E94A61AC6010197F1F760E078
:102C90008091CD050E94A61A8091CF059091D00514
:102CA0009927FC01E85FFA4F6491FC01E45EFA4F5A
:102CB000E491F0E0EE0FFF1FE05CFB4F85919491F3
:102CC0000CE119E020E030E0462F0E942424611539
:102CD00071058105910539F0DC01CB010196A11D3B
:102CE000B11DBF7003C080E090E0DC01880E991E2A
:102CF000AA1EBB1E6CE370E080E090E00E94291BDE
:102D0000219709F0B4CFC501B401615F7F4F8F4FA8
:102D10009F4F2EE130E040E050E00E948F2FCA012B
:102D2000B901DF91CF911F910F91FF90EF90DF904C
:102D3000CF90BF90AF909F908F900895CF93DF93E7
:102D4000CDB7DEB764970FB6F894DEBF0FBECDBF28
:102D500024E931E03C872B879E878D87788B6F87AE
:102D60005A8B498B1C8A1B8ABE01655F7F4FCE013F
:102D700001960E94CC0FCE0101960E9489116496A3
:102D80000FB6F894DEBF0FBECDBFDF91CF9108958F
:102D9000E5E3F2E0A089B18982E08C93A485B58552
:102DA0001C92A685B7858FEC8C93108EA489B5896B
:102DB00086E08C93A289B3898C9180618C93A289DF
:102DC000B3898C9188608C93A289B3898C91806837
:102DD0008C930288F389E02D80818F7D8083089514
:102DE000CF92DF92EF92FF920F931F93CF93DF93D7
:102DF00077FF21C06A017B01EC01E881F981019034
:102E0000F081E02D6DE209958C0144275527BA0128
:102E10004C195D096E097F092AE0CE010E947223D8
:102E2000800F911FDF91CF911F910F91FF90EF9035
:102E3000DF90CF9008952AE0DF91CF911F910F91FD
:102E4000FF90EF90DF90CF900C9472236FEC76E0C0
:102E500085E392E00E94EE2380E293E00E94551009
:102E6000482F50E060E070E02AE085E392E00E94A5
:102E7000722367EC76E085E392E00E94EE23809176
:102E800020030E94121BAC01990F660B770B85E3A0
:102E900092E00E94F01663EC76E085E392E00E94F7
:102EA000EE236AEB76E085E392E00E94EE238AE16E
:102EB00093E00E945510482F50E060E070E02AE057
:102EC00085E392E00E94722362EB76E085E392E074
:102ED0000E94EE2380911A030E94121BAC01990FED
:102EE000660B770B85E392E00E94F01660EB76E0CC
:102EF00085E392E00E94EE2385E392E00C94BB23ED
:102F0000CF93DF93EC0160E776E00E94EE2360E36D
:102F100076E0CE010E94EE236BEE75E0CE010E94BA
:102F2000EE236FEA75E0CE010E94EE2366E875E0BD
:102F3000CE010E94EE23CE01DF91CF910C94BB23F2
:102F4000CF93C82F8DE995E00E94610810929D05EE
:102F500062E773E08DE995E00E948F0A882371F0A3
:102F6000CC2361F090919D05907739F02DE935E003
:102F700030932B0220932A0201C080E0CF91089564
:102F800080E00E94A01768E775E085E392E00E9468
:102F9000EE236DE575E085E392E00E94122462E085
:102FA00070E080E090E00E94291B80E008952F925D
:102FB0003F924F925F926F927F928F929F92AF92C9
:102FC000BF92CF92DF92EF92FF920F931F93CF9316
:102FD000DF9300D01F92CDB7DEB79C018B01FA01C1
:102FE000C180D280DB019C91907771F1D9018C91E5
:102FF00081112AC09081937009F438C1C6010C96E2
:103000006DE070E00E94FE2F55245394560E7F0110
:103010003B832A8340E050E0BA01C8010E94C40803
:103020001982612C412C712C1701B6E02B0E311C3A
:10303000F80180889188A288B38861E0C8010E9465
:103040008809FC01892B11F480E020C18081853E34
:1030500039F0882309F416C1451408F40AC107C0E1
:10306000451438F44394882379F3853E11F08E3269
:1030700011F4712CDDCF93859F3009F051C0711090
:1030800008C086FFD5CF8F71682E45854983782E7D
:1030900007C06A948611EDCF858599819813E9CF91
:1030A000862D90E00197ADE0A89F9001A99F300D7B
:1030B00011242C153D05E8F670E0753018F4818177
:1030C000928107C07B3018F48481958102C086818B
:1030D00097812C153D0521F4892B09F4A9CFC9CF7F
:1030E0008F3F910509F028F64FEB480F4A3110F059
:1030F000682F02C060E2680FA9014F5F5F4FD701E0
:1031000013968D919C911497DC01A20FB31F8C91A3
:103110009FEB980F9A3108F4805E6813AACFABC07A
:1031200093FDA7CF7720B1F0B1E06B128DCFAF0147
:10313000455F5F4F90E080E8989F9001112496953D
:10314000922B2191920FE417F507A9F7A9819A1301
:103150007BCF0DC04BE050E0B101CF010E94313078
:10316000892B09F065CFF701808180FD61CF35E0C3
:10317000B694A794979487943A95D1F780E2AA8160
:10318000BB811D928A95E9F7F801A681B781EA8192
:10319000FB81B783A68395828482F801448D558D87
:1031A000668D778DEA81FB814087518762877387BF
:1031B000FFE08F229924FD01BB9645E0880C991C05
:1031C0004A95E1F79F01280D391DF901838583FD9B
:1031D00049C0CD01880D991DFC0186A98771EA813E
:1031E000FB818083F9019385987121F48860EA81DD
:1031F000FB818083EA81FB81738281E082839796E1
:103200004D915D916D917C919A97448B558B668B16
:10321000778B8A0E9B1EF401FF9680819181A0E03E
:10322000B0E0DC019927882736964081518160E023
:1032300070E0842B952BA62BB72BEA81FB81848F22
:10324000958FA68FB78FF401E95BFF4F8081918145
:10325000A281B381EA81FB81808F918FA28FB38F8E
:1032600081E014C0AA81BB811C92EECE55245394F8
:10327000CECE412CFCCE7F5F32967D3009F4D8CE85
:103280009A011BCF451408F4EDCEDECE0F900F90BF
:103290000F90DF91CF911F910F91FF90EF90DF90F2
:1032A000CF90BF90AF909F908F907F906F905F90E6
:1032B0004F903F902F900895FC01538D448D252F02
:1032C00030E0842F90E0821B930B541710F0CF96C0
:1032D000089501970895FC01918D828D981761F0F2
:1032E000828DDF01A80FB11D5D968C91928D9F5F3D
:1032F0009F73928F90E008958FEF9FEF0895FC01E8
:10330000918D828D981731F0828DE80FF11D858D9A
:1033100090E008958FEF9FEF0895FC01918D228D2D
:10332000892F90E0805C9F4F821B91098F739927B2
:10333000089580E090E0892B29F00E94C610811149
:103340000C9400000895833081F028F4813099F0C6
:103350008230A1F008958730A9F08830B9F0843028
:10336000D1F4809180008F7D03C0809180008F77A1
:1033700080938000089584B58F7702C084B58F7DD7
:1033800084BD08958091B0008F7703C08091B00014
:103390008F7D8093B00008953FB7F89480913102FB
:1033A00090913202A0913302B091340226B5A89BCD
:1033B00005C02F3F19F00196A11DB11D3FBFBA2FC7
:1033C000A92F982F8827820F911DA11DB11DBC0127
:1033D000CD0142E0660F771F881F991F4A95D1F7EC
:1033E00008950E942C30FC01848DDF01A80FB11DCF
:1033F000A35ABF4F2C91848D90E001968F7399272B
:10340000848FA689B7892C93A089B1898C91806417
:103410008C93938D848D981306C00288F389E02DD8
:1034200080818F7D80830895EF92FF920F931F9389
:10343000CF93DF93EC0181E0888F9B8D8C8D981367
:1034400005C0E889F989808185FD24C0F62E0B8DA1
:1034500010E00F5F1F4F0F731127E02E8C8DE812C5
:103460000CC00FB607FCFACFE889F989808185FF87
:10347000F5CFCE010E94F319F1CF8B8DFE01E80F3D
:10348000F11DE35AFF4FF0820B8FEA89FB8980819F
:10349000806207C0EE89FF896083E889F9898081AD
:1034A0008064808381E090E0DF91CF911F910F9144
:1034B000FF90EF900895CF93DF93EC01888D8823E0
:1034C000C9F0EA89FB89808185FD05C0A889B98991
:1034D0008C9186FD0FC00FB607FCF5CF808185FF6C
:1034E000F2CFA889B9898C9185FFEDCFCE010E94DA
:1034F000F319E7CFDF91CF910895CF93DF93282F72
:1035000030E0F901EF51F94F8491F901E85FFA4F8A
:10351000D491F901E45EFA4FC491CC2391F081116A
:103520000E94A319EC2FF0E0EE0FFF1FE05CFB4FB1
:10353000A591B491EC91ED2381E090E021F480E03D
:1035400002C080E090E0DF91CF9108951F93CF9368
:10355000DF93282F30E0F901EF51F94F8491F90101
:10356000E85FFA4FD491F901E45EFA4FC491CC239D
:10357000C9F0162F81110E94A319EC2FF0E0EE0F75
:10358000FF1FE952F94FA591B4918FB7F89411112B
:1035900005C09C91ED2FE095E92302C0EC91ED2B45
:1035A000EC938FBFDF91CF911F910895CF93DF935D
:1035B00090E0FC01E85FFA4F2491FC01E45EFA4FD1
:1035C0008491882361F190E0880F991FFC01E250FB
:1035D000FB4FC591D491FC01E952F94FA591B491EB
:1035E000611109C09FB7F894888120958223888350
:1035F000EC912E230BC0623061F49FB7F8943881B0
:10360000822F809583238883EC912E2B2C939FBF50
:1036100006C08FB7F894E8812E2B28838FBFDF91E7
:10362000CF9108958E3008F08E508770806480931B
:103630007C0080917A00806480937A0080917A0087
:1036400086FDFCCF809178002091790090E0922B4C
:1036500008958F929F92AF92BF92CF92DF92EF9296
:10366000FF926B017C010E94CC194B015C01C114DB
:10367000D104E104F104F1F00E94CC19DC01CB018A
:1036800088199909AA09BB09883E9340A105B1058B
:1036900070F321E0C21AD108E108F10888EE880E23
:1036A00083E0981EA11CB11CC114D104E104F104F3
:1036B00019F7DDCFFF90EF90DF90CF90BF90AF90E4
:1036C0009F908F9008952FB7F89460912D0270917C
:1036D0002E0280912F02909130022FBF08951F92E9
:1036E0000F920FB60F9211242F933F938F939F93B6
:1036F000AF93BF9380912D0290912E02A0912F0243
:10370000B091300230912C0223E0230F2D3720F4AA
:103710000196A11DB11D05C026E8230F0296A11D2B
:10372000B11D20932C0280932D0290932E02A09322
:103730002F02B09330028091310290913202A09119
:103740003302B09134020196A11DB11D8093310264
:1037500090933202A0933302B0933402BF91AF91A1
:103760009F918F913F912F910F900FBE0F901F90BF
:1037700018958EBD0DB407FEFDCF08958FEF8EBD59
:103780000DB407FEFDCF8EB50895CF93DF93FC01F6
:103790002581222361F0EC010380F481E02D61E0BA
:1037A00082810E94A61A8FEF0E94B91B1D82DF91B1
:1037B000CF9108951F93CF93DF93EC018C858130D7
:1037C000A9F41C8620E030E0A9016CE0CE010E9443
:1037D000BC06882339F088E28A83CE010E94C51B8B
:1037E00010E017C0CE010E94C51B12C0823081F4C8
:1037F0001C860E941A21182F882321F08DEF0E9429
:10380000B91B02C086E58A83CE010E94C51B01C098
:1038100011E0812FDF91CF911F910895CF92DF9218
:10382000EF92FF920F931F93CF93DF93EC016A0106
:103830007B0189018C85813049F488859985AA8529
:10384000BB85481759076A077B0741F1E881F98171
:103850000280F381E02DCE0109958823B9F08F8194
:10386000A7019601833039F089E0220F331F441FEE
:10387000551F8A95D1F762E1CE010E94BC068823CC
:1038800039F081E38A83CE010E94C51B80E018C015
:10389000C886D986EA86FB8681E08C87B801CE018E
:1038A0000E942E23882391F3488559856A857B855C
:1038B0004F5F5F4F6F4F7F4F488759876A877B877E
:1038C000DF91CF911F910F91FF90EF90DF90CF90FC
:1038D00008950F931F93CF93DF938C01862FEA01F6
:1038E0000E94B91B88818EBD8981FE013296DE5F00
:1038F0000DB407FEFDCF8EBDEC17FD0711F08191D1
:10390000F7CF0DB407FEFDCF8FEF0E94B91B8FEFED
:103910000E94B91B0E94BE1BF8018683982F9F71DD
:10392000953039F087E58283C8010E94C51B80E08D
:1039300001C081E0DF91CF911F910F910895CF9247
:10394000DF92EF92FF920F931F93CF93DF93EC01DF
:103950006A017B0189018C85823049F488859985CB
:10396000AA85BB8584179507A607B70719F1E881D3
:10397000F9810280F381E02DCE0109958823C9F1F8
:103980008F81A7019601833039F089E0220F331F20
:10399000441F551F8A95D1F769E1CE010E94BC06EC
:1039A000882311F083E30BC0C886D986EA86FB869C
:1039B00082E08C870E941A21811103C08AE58A83E4
:1039C00007C0A8016CEFCE010E94691C811105C0DF
:1039D000CE010E94C51B80E00CC0488559856A85D0
:1039E0007B854F5F5F4F6F4F7F4F488759876A874F
:1039F0007B87DF91CF911F910F91FF90EF90DF9028
:103A0000CF9008950F931F93CF93DF93EC0189011B
:103A10008F81833039F089E0440F551F661F771F6F
:103A20008A95D1F79A01AB0168E1CE010E94BC06EC
:103A3000882319F082E38A830CC0A8016EEFCE01BF
:103A40000E94691C182F882321F0CE010E94C51BFB
:103A500004C0CE010E94C51B10E0812FDF91CF91E1
:103A60001F910F910895CF93DF93FC0125812111C0
:103A700010C0EC010380F481E02D908181819CBD18
:103A80008DBDEB81FC8160E082810E94A61A81E0FD
:103A90008D83DF91CF9108952F923F924F925F9245
:103AA0006F927F928F929F92AF92BF92CF92DF924E
:103AB000EF92FF920F931F93CF93DF93CDB7DEB7B3
:103AC000E2970FB6F894DEBF0FBECDBF8C016B013D
:103AD000FB0101900020E9F731974F01861A970A00
:103AE00029E082169104C8F048E050E00E94593065
:103AF000F80110866BEE71E0C8010E94473061EF5B
:103B000071E0C8010E94473067E479E085E392E004
:103B10000E94EE2367E079E02BC281E00E94A017AB
:103B2000811109C069EF78E085E392E00E94EE23FD
:103B30006DEC78E02AC019821A8265EF71E0CE013F
:103B400001960E9430218823C1F099819077A9F0D5
:103B500090E2FE013196ADE9B5E001900D929A95A3
:103B6000E1F790919D05907731F02DE935E03093A4
:103B70002B0220932A0281112FC06FEB78E085E39E
:103B800092E00E94EE2363E978E085E392E00E94F0
:103B9000122462E070E080E090E00E94291B6DEE4C
:103BA00071E0C801E2960FB6F894DEBF0FBECDBF3C
:103BB000DF91CF911F910F91FF90EF90DF90CF9009
:103BC000BF90AF909F908F907F906F905F904F903D
:103BD0003F902F900C94523088E08819E12CF12C02
:103BE00097E0981999A7292F30E040E050E02AA7E4
:103BF0003BA74CA75DA7940140E050E02EA73FA74C
:103C000048AB59AB482E512C612C712C282E312CED
:103C1000A9A465E177E085E392E00E94EE2360E1EC
:103C200077E085E392E00E94EE232AE04AE050E04C
:103C300060E070E085E392E00E94722362E070E051
:103C400080E090E00E94291B6CE285E392E00E94F4
:103C5000141A62E070E080E090E00E94291B2AE0E4
:103C60004AA55BA56CA57DA585E392E00E94722321
:103C700062E070E080E090E00E94291B6DE077E058
:103C800085E392E00E94EE2362E070E080E090E045
:103C90000E94291B8AE0882E912CAA94AA2041F028
:103CA0008AE0A401849F4001859F900C1124F5CFE8
:103CB000A40160E070E02AE085E392E00E947223B4
:103CC00085E392E00E94BB2362E070E080E090E038
:103CD0000E94291B8E149F0408F459C16FEF76E0EF
:103CE00085E392E00E94EE2368EF76E085E392E0C0
:103CF0000E94EE234701A12CB12C2AE0B501A401BA
:103D000085E392E00E94722362E070E080E090E040
:103D10000E94291B65EF76E085E392E00E94EE2386
:103D200062E070E080E090E00E94291BC70140E063
:103D300031E0340F8A30910538F0432F6AE070E0AB
:103D40000E94FE2FCB01F4CF50E060E070E02AE04B
:103D500085E392E03AAB0E94722385E392E00E94F1
:103D6000BB2362E070E080E090E00E94291B65E8E0
:103D700078E085E392E00E94EE2366E778E085E351
:103D800092E00E94EE232AE0B501A40185E392E0CF
:103D90000E94722385E392E00E94BB2362E070E000
:103DA00080E090E00E94291B68E678E085E392E0DD
:103DB0000E94EE2369E578E085E392E00E94EE231D
:103DC0002AE04EA55FA568A979A985E392E00E9443
:103DD000722385E392E00E94BB2362E070E080E002
:103DE00090E00E94291B6BE478E085E392E00E945A
:103DF000EE236CE378E085E392E00E94EE232AE074
:103E0000B301A20185E392E00E94722385E392E070
:103E10000E94BB2362E070E080E090E00E94291BDA
:103E20006EE278E085E392E00E94EE236FE178E0B5
:103E300085E392E00E94EE233AA9432F50E060E030
:103E400070E02AE085E392E00E94722385E392E02D
:103E50000E94BB2362E070E080E090E00E94291B9A
:103E6000B601C8010E94523061E178E085E392E03A
:103E70000E94EE2360EE77E085E392E00E94EE235D
:103E8000B80185E392E00E94DC2362E070E080E00C
:103E900090E00E94291BA12C3AA94101831A9108A4
:103EA0008A2D90E0881599053CF46FEF71E0C80108
:103EB0000E944730A394F4CF62ED77E085E392E06F
:103EC0000E94EE2361EA77E085E392E00E94EE2310
:103ED000B80185E392E00E94DC2362E070E080E0BC
:103EE00090E00E94291B4AE0BE016F5D7F4FC70131
:103EF0000E944A2FBE016F5D7F4FC8010E9447306C
:103F00006BEE71E0C8010E94473061EF71E0C801BB
:103F10000E94473063E977E085E392E00E94EE2358
:103F200062E677E085E392E00E94EE23B80185E344
:103F300092E00E94DC2362E070E080E090E00E946A
:103F4000291B9FEFE91AF90A19821A82B801CE01DA
:103F500001960E94302181115BCE81E00E94A01762
:103F600064E577E085E392E00E94EE2363E277E088
:103F700085E392E00E94EE23B80185E392E00E947F
:103F8000DC2362E070E080E090E00E94291BE29672
:103F90000FB6F894DEBF0FBECDBFDF91CF911F915A
:103FA0000F91FF90EF90DF90CF90BF90AF909F90D8
:103FB0008F907F906F905F904F903F902F900895DB
:103FC0008F929F92AF92BF92CF92DF92EF92FF9229
:103FD000CF93C82F1092770381E090E0A0E0B0E08B
:103FE00080937A0390937B03A0937C03B0937D032B
:103FF00082E793E09093980380939703109296033F
:104000008FEF9FEFDC018093990390939A03A09325
:104010009B03B0939C03CC2331F1C53008F0E7C07B
:1040200020E040E050E0BA0186E993E00E943407C6
:10403000009709F4DCC020E1C29F800D911D11247E
:104040004097FC01E254FE4F20812F7709F0CFC04A
:10405000389680809180A280B38081149104A1045D
:10406000B10421F4C4C0812C912C540120E0B5018D
:10407000A40186E993E00E943407FC01892B09F42E
:10408000B6C0838594858115924009F0B0C08089BF
:10409000823009F0ACC0468557854115510509F4B9
:1040A000A6C02585209374038FEF820F809375033C
:1040B00080E091E0291751F031E0380F393019F4E0
:1040C0008093760394C0990F832FF4CF8093760367
:1040D000C688D788C114D10419F0E12CF12C04C092
:1040E000C4A0D5A0E6A0F7A0C0927E03D0927F0323
:1040F000E0928003F0928103D501C401840F951FE3
:10410000A11DB11D8093860390938703A09388031C
:10411000B0938903218932893093790320937803FE
:10412000CC0CDD1CEE1CFF1CC80ED91EEA1EFB1EAB
:10413000C0928E03D0928F03E0929003F09291038D
:1041400055E0220F331F5A95E1F721503E4F232FA0
:1041500033272695C20ED31EE11CF11CC0928203A8
:10416000D0928303E0928403F092850323893489FB
:104170002115310521F0C901A0E0B0E004C080A103
:1041800091A1A2A1B3A1B501A4014C195D096E09C9
:104190007F09480F591F6A1F7B1F0090760304C0D8
:1041A00076956795579547950A94D2F7DB01CA0132
:1041B0000196A11DB11D80938A0390938B03A09358
:1041C0008C03B0938D038FEF9FEFDC0180939203FC
:1041D00090939303A0939403B0939503453F8FE08E
:1041E00058076105710528F48CE08093770380E01F
:1041F00017C0453F5F4F6105710510F480E10DC0A8
:1042000084A595A5A6A5B7A580938E0390938F034B
:10421000A0939003B093910380E28093770381E0B1
:10422000CF91FF90EF90DF90CF90BF90AF909F9095
:104230008F900895CF93DF930E94631BEB010E9440
:10424000BE1B8F3F49F00E94631B6C1B7D0B6935C1
:104250007240A8F380E001C081E0DF91CF91089522
:104260002F923F924F925F926F927F928F929F9286
:10427000AF92BF92CF92DF92EF92FF920F931F9374
:10428000CF93DF93CDB7DEB7E3970FB6F894DEBFD9
:104290000FBECDBF7C018B0119821A82FC01808187
:1042A000811172C180919D05807709F46DC1FB0178
:1042B00080818F32C9F48F0181918F32E1F3609157
:1042C000A3057091A405811104C0C7010E948F0A43
:1042D00060C1CE0101960E948F0A882309F454C15F
:1042E000BE016F5F7F4F02C06DE975E06E01F2E3C2
:1042F000CF0ED11CD8010F5F1F4F8C918032D1F3AC
:10430000BDA3ACA3FD019F012A1B3B0B8191882318
:10431000D9F08F32C9F08C3509F436C1982F977FC8
:10432000923209F431C18A3309F42EC1982F9F7B50
:104330009C3309F429C192EC980F923008F424C1FF
:1043400080528F3500F320C1AD01420F531FCA01C7
:104350008C01FC016190CF01F0E26F16C9F32FE2EE
:104360006216B1F39A012A1B3B0B4A175B0741F017
:10437000FA018291AF018E32A9F3803299F303C022
:104380001BAA1AAA07C03BAB2AAB2F3F310511F07D
:104390000CF0FAC08AA99BA99BA38AA3CE01879699
:1043A000FC0120E22193CF01EC15FD05C9F7CD01F9
:1043B0009C012A1B3B0BFC014191CF014E32C1F302
:1043C0004032B1F381E02115310509F080E04AA9BE
:1043D0005BA94150510938F05D01A40EB51EF501ED
:1043E00090819E32B1F77EA097E0892E312C512C1E
:1043F000912CE8E04E2EEAA9FBA92E173F070CF0FE
:104400007FC05D01A20EB31EF5019081903209F4C8
:1044100065C09E3229F44217530709F05FC004C0FB
:104420009232E1F09C37D1F0F6EDBF2EB90EF5E0F7
:10443000FB1510F09D3291F4E6ECBE2EB90EE5E0CE
:10444000EB1560F4F5EABF2EB90EF2E0FB1530F47F
:10445000EFEDBE2EB90EEDE5EB1520F42417350770
:1044600081F440C024173507E9F1831440F1B92ED7
:10447000FFE9AF2EA90EF9E1FA1548F09052942801
:104480000CC08314E0F080E09FE5EFE5BE2EEFEB7B
:10449000BE0EF9E1FB1508F0542822242394230CC6
:1044A000E7E2AE2EB12CAC0EBD1EA30CB11CF50183
:1044B0009083F6E0F215A0F0722C322C1EC08AE038
:1044C000881609F463C0421753070CF45FC09A01C1
:1044D000FAE08F2E88E0382E90E1492E80E00DC062
:1044E000322C0BC0FAE08F1609F450C09A01FAE0A2
:1044F0008F2E98E0392EE0E14E2E2F5F3F4F7BCF7D
:104500007EA29FA1903209F43FC0882339F0592040
:1045100011F4892D01C082E089A314C081E089A330
:104520008EA190E0E7E2F0E0EC0FFD1FE80FF91F2D
:104530002EE72083E8E2F0E0EC0FFD1FE80FF91F03
:1045400021E320836620C9F0AE014F5D5F4FC701B4
:104550000E94D7178823C1F0F701DE01119680E28F
:1045600001900D928A95E1F7C7010E946108F70159
:104570001082BE016F5F7F4FBDCEAE014F5D5F4FBA
:10458000C7010E94D71705C080E003C07EA280E06B
:10459000B8CFE3960FB6F894DEBF0FBECDBFDF9164
:1045A000CF911F910F91FF90EF90DF90CF90BF9030
:1045B000AF909F908F907F906F905F904F903F90C3
:1045C0002F900895CF92DF92EF92FF920F931F9357
:1045D000CF93DF936C017A018B01C0E0D0E0CE1560
:1045E000DF0589F0D8016D918D01D601ED91FC9127
:1045F0000190F081E02DC6010995892B11F47E010F
:1046000002C02196ECCFC701DF91CF911F910F918E
:10461000FF90EF90DF90CF9008956091AD0670917C
:10462000AE06861797074CF02091AF063091B00682
:10463000BC01281739070CF4B9018EE996E00E94F5
:10464000A70D8091A1069091A206DC01ED91FC914D
:104650000190F081E02D6EE976E00994EF92FF92EF
:104660000F931F93CF93DF93EC017B010E94631B99
:104670008B010E94BE1B8E838F3F49F40E94631BF7
:10468000601B710B6D327140A0F385E503C08E3F56
:1046900039F080E58A83CE010E94C51B80E01BC0F3
:1046A0008FEF8EBDF701D701A150BE4F9FEF0DB424
:1046B00007FEFDCF8EB59EBD8193EA17FB07B9F7C4
:1046C0000DB407FEFDCF8EB58C931E820E94BE1BDB
:1046D0000E94BE1B81E0DF91CF911F910F91FF904F
:1046E000EF9008954F925F926F927F92EF92FF92B8
:1046F0000F931F93CF93DF93CDB7DEB7A1970FB67C
:10470000F894DEBF0FBECDBF7C01FA01CB0119A228
:10471000223008F42AE08E010F5D1F4F422E512CEB
:10472000612C712CBF01A30192010E948F2FF9010E
:10473000CA01015011096A3014F4605D01C0695C5E
:10474000D8016C93232B242B252B61F7B801C701CB
:104750000E944C08A1960FB6F894DEBF0FBECDBFE5
:10476000DF91CF911F910F91FF90EF907F906F900D
:104770005F904F9008956FEA71E00C944C080F938E
:104780001F93CF93DF93EC012115310541F4E881AC
:10479000F9810190F081E02D642F099502C00E94FB
:1047A00072238C01CE010E94BB23800F911FDF91E9
:1047B000CF911F910F9108950F931F93CF93DF9384
:1047C000EC010E944C088C01CE010E94BB23800F9B
:1047D000911FDF91CF911F910F910895EF92FF925A
:1047E0000F931F93CF93DF938C017B01C0E0D0E048
:1047F000F701EC0FFD1F6491662361F0D801ED9184
:10480000FC910190F081E02DC8010995892B11F0F0
:104810002196EECFCE01DF91CF911F910F91FF90A6
:10482000EF9008950F931F93CF93DF93EC010E94B5
:10483000EE238C01CE010E94BB23800F911FDF91DC
:10484000CF911F910F910895CF92DF92EF92FF9237
:104850000F931F93E82FF92F05C00150110921096B
:10486000310961F1908196239417B9F305C0015085
:1048700011092109310911F1908196239413F7CF81
:10488000C12CD12CE12CF12C0AC08FEFC81AD80A08
:10489000E80AF80A0C151D052E053F0579F0808100
:1048A0008623841791F36C2D7D2D8E2D9F2D1F91C6
:1048B0000F91FF90EF90DF90CF90089560E070E04F
:1048C00080E090E01F910F91FF90EF90DF90CF90EC
:1048D0000895CF93DF93CDB7DEB7AD970FB6F894B9
:1048E000DEBF0FBECDBF789484B5826084BD84B531
:1048F000816084BD85B5826085BD85B5816085BDDB
:1049000080916E00816080936E0010928100809192
:10491000810082608093810080918100816080931A
:104920008100809180008160809380008091B1003F
:1049300084608093B1008091B00081608093B0006A
:1049400080917A00846080937A0080917A008260FE
:1049500080937A0080917A00816080937A008091C0
:104960007A00806880937A001092C100109216033A
:104970001092170310921803109219031092D40288
:104980001092D5021092D6021092D7020E94631B99
:104990006B017C014B015C0128EB820E2BE0921E27
:1049A000A11CB11C0E94631B6C157D058E059F0523
:1049B00028F086169706A806B906A0F785E392E0C8
:1049C00090931503809314030E94C8160E94631BE2
:1049D0006093D4027093D5028093D6029093D7024D
:1049E00060EA71E080911403909115030E944C08D5
:1049F0000E94631B6B017C014B015C013AE0830E5A
:104A0000911CA11CB11C0E94631B6C157D058E05B9
:104A10009F0528F086169706A806B906A0F781E03C
:104A20008093E8020E94C81662EB71E085E392E091
:104A30000E94DC2388E19CEFAFEFBFEF8093E60696
:104A40009093E706A093E806B093E9068CED90E01A
:104A5000A0E0B0E08093E2069093E306A093E40622
:104A6000B093E50686E590E09093ED068093EC0622
:104A700084EB90E09093EF068093EE062AE530E019
:104A80003093F1062093F00648EE53E060E070E0CA
:104A90004093D1065093D2066093D3067093D40608
:104AA00003E81FEF2FEF3FEF0093CD061093CE06E4
:104AB0002093CF063093D00624E130E03093D8061F
:104AC0002093D70626E930E03093DA062093D90602
:104AD0002FE530E03093DC062093DB064093A706F9
:104AE0005093A8066093A9067093AA064CEE5FEF58
:104AF0006FEF7FEF4093A3065093A4066093A50643
:104B00007093A6062DE730E03093AE062093AD06F5
:104B10002AEA30E03093B0062093AF0622E830E076
:104B20003093B2062093B1064AEE51E060E070E0A7
:104B30004093BC065093BD066093BE067093BF06BB
:104B40001092B8061092B9061092BA061092BB06DF
:104B50001092C3061092C2069093C5068093C406B5
:104B60008AE090E09093C7068093C6060DE616E0B3
:104B7000D8018D919C910E94D30C7C01F801808119
:104B80009181DC011F966D917C915097E616F70696
:104B900014F40E94A70DF801819191918F01DC011D
:104BA00051966D917C9152976E157F0514F40E9479
:104BB000A70DB6E005371B07D9F681E090E00E940B
:104BC000D9150E9450150E943C1567EA71E085E3F3
:104BD00092E00E94EE2364E971E085E392E00E9496
:104BE000122462E070E080E090E00E94291B82E0E5
:104BF00090E00E944D138093040261EE71E08E01FB
:104C00000F5F1F4FC8010E944C1D0E94C017809368
:104C1000040266EE71E0C8010E944C1D0E94C0179C
:104C200080930402882309F44CC08EE493E00E9430
:104C300080178AE293E00E94801768E771E085E3BD
:104C400092E00E94EE2355E5E52E53E0F52ED12C9F
:104C5000442443946DE0562E70E2672EE0E17E2EF0
:104C6000FEE2BF2EAFE2CA2E19821A82F7013397F5
:104C70008081811102C019A209C0D7019C919111B4
:104C800082C2807609F426C2C9A21AA2BE016F5D53
:104C90007F4F85E392E00E944C08F4E2EF0EF11C96
:104CA00021E0D21649F066E371E085E392E00E94CC
:104CB000EE23DD24D394D8CF85E392E00E94BB237A
:104CC00006C063E671E085E392E00E94122469E386
:104CD00071E085E392E00E94EE230E942617BB2438
:104CE000B39494E1D92EE12CF12C809164060E94BA
:104CF000121BE80EF91EDA94D110F7CF37EFE31646
:104D000037E2F30674F40E943C150E94501581E0CE
:104D100090E00E94D91563E074E085E392E00E9480
:104D2000122484E1D82EE12CF12C809164060E949B
:104D3000121BE80EF91EDA94D110F7CF47EFE416F4
:104D400047E2F406B4F40E943C150E94501569E055
:104D500073E085E392E00E94EE236BEE72E085E360
:104D600092E00E94122462E070E080E090E00E94F5
:104D7000291B81E090E00E94D9156AEF70E080E085
:104D800090E00E94291B0E9420166B017C016D8718
:104D90007E878F87988BB98A69837A838B839C837C
:104DA0006D837E838F83988769877A878B879C87BB
:104DB0000E94631B2B013C0150E3450E55E7551E35
:104DC000611C711C0E9420162D813E814F815885E7
:104DD00029833A834B835C8329853A854B855C859F
:104DE0002D833E834F83588769877A878B879C877B
:104DF000198A6FED72E085E392E00E94EE2366EB84
:104E000072E085E392E00E94EE2349855A856B8526
:104E10007C852AE030E085E392E00E94BF2362E0D7
:104E200070E080E090E00E94291B49855A856B85DF
:104E30007C85D701C6010496A11DB11D8417950775
:104E4000A607B70758F50E9420166B017C016D83F9
:104E50007E838F83988769877A878B879C876D8706
:104E60007E878F87988BB98A6AEA72E085E392E041
:104E70000E94EE2367E872E085E392E00E94EE2351
:104E80002AE030E0B701A60185E392E00E94BF234B
:104E900062E070E080E090E00E94291B6BE772E026
:104EA00085E392E00E94EE2362E572E085E392E002
:104EB0000E94EE232AE030E0B701A60185E392E0EC
:104EC0000E94BF2362E070E080E090E00E94291B16
:104ED00066E472E085E392E00E94EE236DE172E009
:104EE00085E392E00E94EE238989811103C0C80105
:104EF0000E94070F4D855E856F8578892AE030E036
:104F000085E392E00E94BF2362E070E080E090E0E1
:104F10000E94291B61E172E085E392E00E94EE238A
:104F200068EE71E085E392E00E94EE23C8010E94E2
:104F3000380FAB01BC0185E392E00E94F01685E3D7
:104F400092E00E94BB2362E070E080E090E00E946B
:104F5000291B6CED71E085E392E00E94EE2363EB88
:104F600071E085E392E00E94EE232AE030E044E025
:104F700050E060E070E085E392E00E94BF2362E0D1
:104F800070E080E090E00E94291B8989811103C0B4
:104F9000C8010E94070F8D859E85AF85B8898C1545
:104FA0009D05AE05BF0538F0898981110DC0C80186
:104FB0000E94070F09C0C8010E94380F65307105B3
:104FC0008105910570F4F0CF8D859E85AF85B889F8
:104FD0000896A11DB11D8C159D05AE05BF0508F0F5
:104FE0006DC16EEB73E085E392E00E94EE2362E90F
:104FF00073E085E392E00E94122462E070E080E0BA
:1050000090E00E94291B66E873E085E392E00E942D
:10501000EE2366E673E085E392E00E94122462E0EC
:1050200070E080E090E00E94291B8091AD06909195
:10503000AE060E940D23E091D105F091D2050280C9
:10504000F381E02D81ED95E0099547E350E060EABA
:1050500070E00E949E1647E350E060EA70E081EF46
:105060009FEF0E949E1680E293E00E9455108AE115
:1050700093E00E9455108EE996E00E94D30C209197
:10508000AF063091B006821793070CF03AC147E3A0
:1050900050E064E071E081EF9FEF0E949E1665E0B2
:1050A00070E08EE996E00E9443106AE573E085E3C4
:1050B00092E00E94EE2365E473E085E392E00E94B3
:1050C000EE230E94261762E070E080E090E00E94EC
:1050D000291BC9CFF701418952896389748983816A
:1050E000948120E084960E943407009709F4CECD85
:1050F000D70111962D913C9112972F70332745E0DF
:10510000220F331F4A95E1F740E050E068E0A12C00
:10511000DC01A20FB31F4D01ECE08E0E911CFA01D1
:10512000E20FF31FE80FF91F70817032F9F0483079
:10513000510551F461E270E06C0F7D1F6A0D711D25
:10514000DB01BC92A39460E17081EFEBE70FEA31E1
:1051500028F4D401EC91E62309F0705EE1E2F0E07E
:10516000EC0FFD1FEA0DF11D7083A3944F5F5F4F9D
:105170004B305105A1F6E1E2F0E0EC0FFD1FEA0D26
:10518000F11D108283CDF70185819681A781B085BD
:10519000638174810097A105B10531F4C8010E94B3
:1051A0008F0A81110EC067CDF801262D11922A9524
:1051B000E9F779824B8278876F838D8F9E8FAF8FCF
:1051C000B8A3AA24A394F70180818A1508F453CDCB
:1051D0008A2C912CD70111964D915C911297481908
:1051E000590960E070E025E0440F551F661F771FE6
:1051F0002A95D1F7C8010E94C408882309F43BCD41
:1052000060E0C8010E948809FC01892B09F433CDB4
:1052100083858F3009F02FCD80818F7190E08816C3
:10522000990609F028CDB1E08B1A9108589C90019D
:10523000599C300D112481E290E08C0F9D1F820F4C
:10524000931F4F0160E0D401653028F411964D9111
:105250005C9112970BC06B3028F414964D915C91C1
:10526000159704C016964D915C91179741155105FD
:1052700091F02D303105E0F42F5F3F4F4F3751054E
:1052800008F04FE3DC014D93CD016F5FB2E08B0E70
:10529000911C6D30C1F62D30310550F4808186FFB0
:1052A00007C0A1E2B0E0AC0FBD1FA20FB31F1C925C
:1052B0001DA6808186FDEACCA39485CF0E94631B46
:1052C000A3019201261B370B480B590B121613062C
:1052D000140615060CF476CD67EF73E085E392E0D3
:1052E0000E94EE236AEC73E085E392E00E941224B0
:1052F00062E070E080E090E00E94291B0E94991912
:10530000F0CC64EF71E080E090E00E94291B84E023
:1053100090E00E94D9158090D7059090D805C09054
:10532000D505D090D605E090D305F090D40569E37B
:1053300073E085E392E00E94EE2365E173E085E38C
:1053400092E00E94122462E070E080E090E00E940F
:10535000291B80E293E00E945510A82E8AE193E079
:105360000E945510282F30E02A0D311D23353105BC
:10537000BCF08EE996E00E94D30C2091AD063091EE
:10538000AE062817390764F4A401B601C7010E94CC
:105390009E166BEF7FEF8EE996E00E944310D9CF07
:1053A0008091AD069091AE060E940D2364EF71E0EE
:1053B00080E090E0A1CFAF92BF92CF92DF92EF92C8
:1053C000FF920F931F93CF93DF93109238021092A6
:1053D000370288EE93E0A0E0B0E08093390290932A
:1053E0003A02A0933B02B0933C028CE291E090938E
:1053F00036028093350285EC90E0909342028093D0
:10540000410284EC90E0909344028093430280EC4C
:1054100090E0909346028093450281EC90E0909357
:1054200048028093470282EC90E090934A02809376
:10543000490246EC50E050934C0240934B021092CC
:105440004E0210924F02109250021092510210928E
:10545000D8021092D9021092DA021092DB02109256
:10546000DC021092DD021092DE021092DF02109236
:10547000E0021092E1021092E2021092E302109216
:10548000E4021092E5021092E6021092E702C4E9EB
:10549000D1E0D0932D07C0932C0784EB90E090933C
:1054A0002F0780932E0782E791E090933107809336
:1054B00030078FE390E09093330780933207109288
:1054C000350710923407D0933707C09336071092F0
:1054D0003907109238078CE990E090933B0780934E
:1054E0003A0722E330E030933D0720933C071092C7
:1054F0003F0710923E07D0934107C093400781E0D9
:1055000090E0909343078093420761EA70E07093C4
:10551000450760934407909347078093460710928E
:10552000490710924807D0934B07C0934A075093FE
:105530004D0740934C0743E251E050934F0740938F
:105540004E07309351072093500710925307109243
:105550005207D0935507C093540740EE5FEF509326
:105560005707409356074DE251E050935907409337
:10557000580790935B0780935A0710925D0710922B
:105580005C07D0935F07C0935E0742E650E05093FC
:1055900061074093600741E851E0509363074093EF
:1055A0006207309365072093640710926707109293
:1055B0006607D0936907C093680710926B07109233
:1055C0006A072FE830E030936D0720936C079093C3
:1055D0006F0780936E071092710710927007D09337
:1055E0007307C093720784E190E0909375078093EE
:1055F000740785EA90E0909377078093760784E0BC
:1056000090E0909379078093780710927B0710922F
:105610007A07D0937D07C0937C0784E690E090934F
:105620007F0780937E0723E131E030938107209349
:1056300080072EE130E03093830720938207109299
:10564000850710928407D0938707C09386079093AD
:105650008907809388072DE731E030938B072093EB
:105660008A0725E330E030938D0720938C07109252
:105670008F0710928E07D0939107C0939007909355
:1056800093078093920725E331E0309395072093A9
:10569000940721E530E03093970720939607109206
:1056A000990710929807D0939B07C0939A079093FD
:1056B0009D0780939C078EED90E090939F078093C9
:1056C0009E0787E590E09093A1078093A007109232
:1056D000A3071092A20710922107109220071092A0
:1056E0002307109222071092250710922407109288
:1056F00027071092260784E891E090931F07809374
:105700001E074CE850E060E070E04093280750939B
:10571000290760932A0770932B07109213071092A2
:105720001207109215071092140710921707109283
:10573000160710921907109218079093110780937B
:10574000100781E990E0A0E0B0E080931A07909301
:105750001B07A0931C07B0931D0710920907109216
:10576000080710920B0710920A0710920D0710926B
:105770000C0710920F0710920E0784E791E09093A8
:1057800007078093060752EFA52E56E0B52E10921C
:10579000F5061092F4061092F7061092F606109293
:1057A000F9061092F8061092FB061092FA0684E6AB
:1057B00091E09093F3068093F2061092FD0610920A
:1057C000FC0688E790E0A0E0B0E08093FE069093AE
:1057D000FF06A0930007B093010780E290E0A0E0ED
:1057E000B0E08093020790930307A0930407B0935F
:1057F00005078DED96E00E942A0E6DEDC62E66E03F
:10580000D62E8EE197E09093E1068093E00686E045
:1058100090E09093EB068093EA0688EC96E00E9475
:105820002A0E78ECE72E76E0F72E80E197E0909351
:10583000CC068093CB0689E090E09093D6068093C7
:10584000D50683EB96E00E942A0E03EB16E086E075
:1058500097E09093B7068093B60683E090E090932C
:10586000C1068093C0068EE996E00E942A0E8EE95A
:1058700096E0B092A206A092A10625E030E0309317
:10588000AC062093AB061092D4051092D30510926B
:10589000D6051092D5051092D8051092D705109212
:1058A000DA051092D90524E531E03093D205209332
:1058B000D105D092DC05C092DB05F092DE05E092C6
:1058C000DD051093E0050093DF059093E2058093DA
:1058D000E1052091E0063091E1063093E405209344
:1058E000E3052091CB063091CC063093E60520935A
:1058F000E5052091B6063091B7063093E805209370
:10590000E705B092EA05A092E905209132073091AF
:105910003307409130075091310760912E07709105
:105920002F07D093EC05C093EB057093EE056093C1
:10593000ED055093F0054093EF053093F205209369
:10594000F1051092F4051092F30520913C07309177
:105950003D0740913A0750913B076091380770919D
:105960003907D093F605C093F5057093F805609359
:10597000F7055093FA054093F9053093FC05209301
:10598000FB051092FE051092FD052091460730910F
:105990004707409144075091450760914207709135
:1059A0004307D0930006C093FF05709302066093EF
:1059B0000106509304064093030630930606209395
:1059C000050610920806109207062091780730917C
:1059D000790740917607509177076091740770912D
:1059E0007507D0930A06C093090670930C0660935E
:1059F0000B0650930E0640930D063093100620932D
:105A00000F06109212061092110620915007309145
:105A1000510740914E0750914F0760914C0770918C
:105A20004D07D0931406C093130670931606609327
:105A30001506509318064093170630931A062093C4
:105A4000190610921C0610921B0620915A073091DD
:105A50005B07409158075091590760915607709124
:105A60005707D0931E06C0931D06709320066093BF
:105A70001F0650932206409321063093240620935C
:105A80002306109226061092250620916407309175
:105A900065074091620750916307609160077091BC
:105AA0006107D0932806C093270670932A06609357
:105AB000290650932C0640932B0630932E062093F4
:105AC0002D061092300610922F0620916E0730910D
:105AD0006F0740916C0750916D0760916A07709154
